:020000040800F2
:1000000080290020850100084F1A0008BF11000850
:100010004D1A000843100008F73B000800000000DC
:10002000000000000000000000000000F5300008A3
:100030004510000800000000C12D0008913B000899
:100040009F0100089F0100089F0100089F01000810
:100050009F0100089F010008891000089F01000807
:100060009F0100089F0100089F0100089F010008F0
:100070009F0100089F0100089F0100089F010008E0
:100080009F0100089F0100083F1000089F01000821
:100090009F0100089F0100089F0100089F010008C0
:1000A0009F0100089F0100089F0100089F010008B0
:1000B0009F0100089F0100089F0100089F010008A0
:1000C0009F0100089F0100089F0100089F01000890
:1000D0009F010008ED3B00089F0100089F010008F8
:1000E0009F0100089F0100089F0100089F01000870
:1000F0009F0100089F0100089F0100080000000008
:10010000000000009F0100089F010008000000009F
:100110009F0100089F01000800000000000000008F
:100120009F0100089F0100089F0100089F0100082F
:1001300000000000000000000000000000000000BF
:1001400000000000000000000000000000000000AF
:100150009F0100089F0100089F0100089F010008FF
:100160009F0100089F010008EF3B00089F01000865
:10017000DFF80CD000F0E2FC004800475589000889
:10018000802900200648804706480047FEE7FEE732
:10019000FEE7FEE7FEE7FEE7FEE7FEE7FEE7FEE737
:1001A000953B0008710100084FF0FF30704710B513
:1001B000431A934209D28318881803E010F8011DEE
:1001C00003F8011D521EF9D210BD40EA01039B073E
:1001D00003D009E008C9121F08C0042AFAD203E0BC
:1001E00011F8013B00F8013B521EF9D210BDD2B20A
:1001F00001E000F8012B491EFBD270470022F6E710
:1002000010B513460A4604461946FFF7F0FF20468C
:1002100010BDCAB2401E10F8011F8A4202D0002948
:10022000F9D100207047421C10F8011B0029FBD1B6
:10023000801A704730B503461D783DB10A4612F862
:10024000014B1CB1AC42FAD15B1CF5E7181A30BD6A
:1002500030B50546002008E00A4602E0A34207D078
:10026000521C1378002BF9D1401C2C5C002CF3D1CC
:1002700030BD2DE9F0410E460546002400E0641C27
:10028000285D00F00EFB0746305D00F00AFB381ACF
:1002900002D1295D0029F2D1BDE8F0812DE9F047B6
:1002A00091460F4680460446002614F8015B2DB1A6
:1002B00000F0EAFA0068405DC007F6D12B2D02D0AD
:1002C0002D2D18D0641E4A463946204600F0EFFA1C
:1002D00027B13968A14201D1C7F8008071054FF0FC
:1002E00002040BD54042002803DD0DF07BF80460CA
:1002F000A007BDE8F08746F48066E4E70028F8DA56
:100300000DF070F804606FF00040F2E72DE9F05F47
:1003100093460F468046044600260DF063F8D0F859
:100320000090824614F8015B2DB100F0ADFA006830
:10033000405DC007F6D12B2D02D02D2D1AD0641EA2
:100340000021CAF800105A463946204600F0AFFA9C
:10035000014627B13868A04201D1C7F80080DAF819
:100360000000022809D0CAF80090700505D548425F
:10037000BDE8F09F46F48066E2E70846F8E72DE91D
:10038000FE4F804681EA0300C00F0C46009021F02A
:10039000004123F00045B8EB0200A94105D24046D8
:1003A000214690461C460B46024623F0004010436F
:1003B00047D0270DC7F30A00C3F30A510290401A31
:1003C000019040286BDAC3F3130040F4801B0098BF
:1003D000924620B10023D2EB030A63EB0B0B01988A
:1003E0005946C0F14002504600F01DFA06460D463F
:1003F00050465946019A00F035FA10EB0800614169
:10040000002487EA115284EAE7731A4340D0009A25
:1004100062B3019A012A4FEA075215DC001B61EB17
:1004200002014FF0004202EA0752CDE90042001CEF
:1004300041F5801132462B4600F0D2FA03B0BDE8F8
:10044000F08F40462146F9E7001B61EB0201001CDA
:1004500041F5801300185B412018A2F5001747EB07
:10046000030140EAD570B6196D4111E06D084FEAFD
:10047000360645EAC0754FEA0752001B61EB0201E0
:10048000001C41F5801149084FEA30000019514124
:1004900032462B4603B0BDE8F04F00F092BA009808
:1004A000012240000023D0EB020263EBE0730098CE
:1004B00021464FEAE074B8EB000061EB0401E9E784
:1004C00083F000435BE781F0004158E72DE9FE4FE0
:1004D00081EA030404F0004421F0004100944FF04D
:1004E000000B23F0004350EA01045ED052EA0304FB
:1004F0005BD0C3F30A54C1F30A552C44A4F2F3347D
:100500000194A0FB0254C1F3130141F48011C3F321
:10051000130343F4801301FB024400FB034E840ADF
:10052000970A44EA815447EA8357A4FB0768029577
:100530008D0A05FB07854FEA932C04FB0C54270515
:10054000029D4FEA065847EA1637B5EB08056EEBF1
:10055000070C870E920E47EA811742EA8312A7FB27
:100560000201B6EB0B0164EB00042B0D43EA0C33E4
:100570005E1844EB1C50DA465146E7FB0201C5F316
:1005800013044FEA0B3343EA14534FEA0432019C3D
:1005900043EA0603A4F10C040294009CCDE900B4E4
:1005A00000F01EFA03B0BDE8F08F00200146F9E725
:1005B0002DE9F04D81EA030404F0004B21F00045E1
:1005C00014464FF0000A23F0004150EA050220D003
:1005D00054EA01021DD0C5F30A570246C5F31303BE
:1005E000C1F31300C1F30A5640F4801543F480139D
:1005F000A7EB0608101BD64608F2FD3873EB050082
:1006000002D308F1010801E092185B41B8F1000F34
:1006100003DA00200146BDE8F08D00204FF4801180
:10062000064684460EE0171B73EB050705D3121B25
:1006300063EB050306434CEA010C49084FEA30001E
:1006400092185B4150EA0107EDD152EA030012D043
:1006500082EA040083EA0501084305D0101BAB4180
:1006600006D20122002306E000224FF0004302E000
:100670006FF0010253101AEB06004CEB085110EB1F
:100680000A0041EB0B01BDE8F04D00F09AB90EB540
:10069000C10F80EAE0700844CA07002140F23343EA
:1006A0008DE80E000A460B4600F09AF903B000BD33
:1006B0000EB540F2334102910021CDE900110A4606
:1006C0000B4600F08DF903B000BD70B5C1F30A52BE
:1006D00001F000450024C1F3130140F2FF3341F45F
:1006E00080119A4201DA002070BD40F233439A42F1
:1006F000A2F2334203DC524200F0A4F800E0904042
:100700002C43F1D0404270BDC1F30A5210B5C1F381
:10071000130140F2FF3341F480119A4201DA0020C4
:1007200010BD40F233439A42A2F2334203DC5242FC
:1007300000F088F810BD904010BD00F0004230F08D
:1007400000400AD0C10D01F56071C0F3160042EA05
:100750000151C2084007114370470020014670470D
:1007600001F0004330B421F0004150EA010206D00C
:100770000A0DA2F56072C1F31301002A02DC30BC3D
:1007800000207047440F44EAC104C100E01830BCA7
:1007900000EBC25000F0DEB830B50B460146002039
:1007A0002022012409E021FA02F59D4205D303FA33
:1007B00002F5491B04FA02F52844151EA2F10102B4
:1007C000F1DC30BD2DE9F05F0546002092469B46E6
:1007D00088460646814640241BE028464146474657
:1007E000224600F02FF853465A46C01A914110D3C2
:1007F00011461846224600F016F82D1A67EB01083C
:100800004F4622460120002100F00DF817EB0009A9
:100810004E41201EA4F10104DFDC484631462A4641
:100820004346BDE8F09F202A04DB203A00FA02F19B
:10083000002070479140C2F1200320FA03F31943CE
:1008400090407047202A04DB203A21FA02F0002170
:10085000704721FA02F3D040C2F1200291400843D0
:1008600019467047202A06DBCB17203A41FA02F0DE
:1008700043EAE07306E041FA02F3D040C2F12002FD
:10088000914008431946704700487047C0DE000891
:1008900010B50446FFF7F8FF0068005D00F00100A6
:1008A00010BDA0F14101192900D8203070472DE971
:1008B000F05F82460078002715468B460AF1010456
:1008C000B946302801D09DB113E014F8010B01277F
:1008D000782803D0582801D045B10AE00DB1102D79
:1008E00007D10027102514F8010B02E0082500E0CD
:1008F0000A250026B0460EE005FB080005FB06F1C0
:10090000012701EB10461FFA80F8B6F5803F00D3AF
:10091000B94614F8010B294600F028F90028EBDA53
:10092000BBF1000F05D00FB1641E00E05446CBF8B8
:100930000040B9F1000F06D00CF054FD0221016017
:10094000C81EBDE8F09F48EA0640FAE700230360AE
:1009500000F039B90029A8BF7047401C490008BF02
:1009600020F00100704710B4B0FA80FC00FA0CF0DF
:1009700050EA010404BF10BC704749B1CCF1200417
:1009800021FA04F411FA0CF118BF012121430843A4
:10099000A3EB0C01CB1D4FEA00614FEA102042BFD0
:1009A000002010BC704700EBC35010440029A4BFC6
:1009B00010BC7047401C490008BF20F0010010BC6B
:1009C000704710B5141E73F1000408DA401C41F1A1
:1009D000000192185B411A4301D120F0010010BDC3
:1009E0002DE9F04D92469B4611B1B1FA81F202E039
:1009F000B0FA80F220329046FFF715FF04460F460A
:100A000040EA0A0041EA0B0153465A46084313D014
:100A1000114653EA010019D0C8F140025046FFF7D1
:100A200011FF05460E46504659464246FFF7FBFE6B
:100A3000084305D0012004E020463946BDE8F08D8A
:100A40000020054346EAE0762C4337430A986305C5
:100A5000E40AA0EB08000022FD0A44EA47540A30E9
:100A600002D500200146E9E7010510196941DDE9D9
:100A7000084500196941BDE8F04DA2E770B521F0C5
:100A8000004303430CD0C1F30A550024D5EB040501
:100A900064EB0403D617AD1AB34102DB0020014614
:100AA00070BD201841EB025170BDC1F30A52C1F371
:100AB000130140F2FF3341F480119A4202DA002020
:100AC0000146704740F233439A42A2F2334202DCBD
:100AD0005242FFF7B7BEFFF7A6BE000030B5041EB6
:100AE00071F1000404DB4FF00044404264EB01016B
:100AF000141E73F1000405DB1C464FF00043524204
:100B000063EB04038B4208BF824230BD30B5041E44
:100B100071F1000404DB4FF00044404264EB01013A
:100B2000141E73F1000405DB1C464FF000435242D3
:100B300063EB0403994208BF904230BD1CB50948DD
:100B40000090094801900546009C06E0E06840F0EE
:100B5000010394E8070098471034AC42F6D3FFF73E
:100B60000BFB000064F2000884F200083A2800D26F
:100B7000303820F02002412A01D3A2F13700884208
:100B800001D34FF0FF3070470FB40B0010B58AB09F
:100B90000FA900910E994FF00004234ACC60214C1C
:100BA000CDE9064200D004236FF00042CDE90132C6
:100BB0001E4A089202466B46002000F0CDF80AB0AB
:100BC00010BC5DF814FBF0B585B007464FF0FF3060
:100BD0000091CDE901011E46002015460C46049007
:100BE0003B466A46314604A8FFF7CEFF0499034608
:100BF000601825B109B1024600E022462A600029AA
:100C00000ED0002B02DD0099814209D00094001B18
:100C1000CDE901043B466A46314604A8FFF7B4FF1C
:100C200005B0F0BD910F0008AF0F00089108000853
:100C30002DE9FF4F087883B09946FF2805D0491C5D
:100C40002D2804D00024002008E000200BE001241F
:100C5000F9E700EB800003EB4000491C0B78FF2B09
:100C6000F7D104B1404200230293147819461D467F
:100C70002D2C01D02B2C04D1521C2D2C13D0002450
:100C80000294AA461478FF2C0FD00A25A3FB0578FE
:100C900001FB05814FF0000C03FB0C11521CE31902
:100CA0004AEB0101EEE70124EAE7814453EA01003F
:100CB00002D019F5C87F06DA03980021C0E90011B7
:100CC00007B0BDE8F08F0025AE4E2F46DFF8B882A2
:100CD000184600F07DF9CDE90001B9F1000002DA13
:100CE000C9F1000400E004460023A74A1AEB030BF5
:100CF00042EB045A12E0E00707D02A463346384652
:100D00004146FFF7E3FB074688462A46334610462E
:100D10001946FFF7DBFB05460E466410002CEAD1AE
:100D2000DDE90001B9F1000F5A46534606DAFFF734
:100D30003FFC3A464346FFF73BFC05E0FFF7C6FBA6
:100D40003A464346FFF7C2FB029A0AB181F00041DE
:100D5000039AC2E90001B3E72DE9FF4F1F468DB0AA
:100D6000D7E901464FF0FF382E2045464FF00009E5
:100D70000B90B9696D1C0E988847396A824688477E
:100D80000028F6D1BAF1FF3F0AD024F4D064002E37
:100D900011DDBAF12B0F08D0BAF12D0F0BD102E003
:100DA000404611B08DE744F48064B9696D1C0E981B
:100DB00088478246761E6946600501D52D2000E0F1
:100DC0002B208DF8000001F1010B0DF1200809E046
:100DD000B9696D1C0E98884782460F9844F40074D8
:100DE000761E0560002E02DDBAF1300FF0D00B99AF
:100DF0008A453ED144F0800406E00F99681CA9F1B1
:100E0000010944F400740860B9696D1C761E0E98DF
:100E1000884782463028F0D02BE00B998A4505D1CF
:100E2000200603D444F08004761E18E050460CF0EF
:100E30004FFC08B30DF11302761EAAF1300044F402
:100E40000074934506D20BF8010B200607D5A9F1D3
:100E5000010003E0200602D409F101008146A0054B
:100E600002D50F99681C0860B9696D1C0E988847F7
:100E70008246002ED1DC53E0002E51DDBAF1650F21
:100E800002D0BAF1450F4BD1A00549D5B9696D1C07
:100E900024F44074761E0E9888478246002E0CDD9E
:100EA0002B2804D0BAF12D0F07D144F48074B9690E
:100EB0006D1C0E9888478246761EE00501D52D21CF
:100EC00000E02B2108F8011BCDF82C8021E00DF16A
:100ED0002901761E44F4007488450CD2AAF1300032
:100EE00010F0FF0088F8000002D10B99884509D95D
:100EF00008F1010806E0E00501D5244801E042F2CE
:100F00000F708146B9696D1C0E98884782460F980C
:100F10000560002E04DD50460CF0DAFB0028D6D127
:100F2000F9690E988847FF208BF8000088F80000C8
:100F30000020069007904B466A4608A906A8FFF7CE
:100F400077FEA00502D46FF001002AE714F0240F09
:100F50000AD0E00714D1DDE906123868031D3B60B2
:100F60000068C0E900120BE0DDE90601FFF7F8FBBD
:100F70000146E00704D13868021D3A60006801604C
:100F800028460EE7000014400000F03FF1D8FFFFB4
:100F9000426842B1016811F8013B23B1521EC0E919
:100FA0000012184670470121C160881E70474268D0
:100FB0005AB1C368016843B983688B4205D0491EA2
:100FC000521CC0E90012002070474FF0FF307047FC
:100FD0000EB540F2334202920022CDE900221346C0
:100FE000FFF7FEFC03B000BD70B58C1810F8015B74
:100FF00015F0070301D110F8013B2A1106D110F8B2
:10100000012B03E010F8016B01F8016B5B1EF9D1B5
:101010002B0705D40023521E0DD401F8013BFAE73B
:1010200010F8013BCB1A921C03E013F8015B01F8A6
:10103000015B521EF9D5A142D8D3002070BD02F049
:101040004FBEFEE7704700001CB5012408A2002037
:1010500020211023009400F087F80A482021102353
:10106000009400F10B02002000F07EF81CBD00BFD0
:101070002020202020202020202020202020202070
:10108000000000004403002080B5012005F0E0FFCF
:10109000012818BF80BD012005F0D6FFBDE88040C3
:1010A00008F030BE2DE9F84FC0F3C01440B2102B49
:1010B00020EAE0760A9801EB4409A2F1200126D04B
:1010C000082B4BD1264A00284FF00000C9B24FF040
:1010D000000B08BF4FF0FF305FFA80FA02EBC10847
:1010E000BBF1080F3AD018F80B1009EB0B000027E2
:1010F000C4B281EA0A05082F06D005FA07F1F019F3
:1011000000F023FE0137F6E70BF1010BE8E70027BB
:10111000C9B200284FF000004FEA011808BF4FF095
:10112000FF305FFA80FB102F18D00E4A48EA070103
:1011300009EB07004FF0000AC4B2515C81EA0B05CD
:10114000BAF1080F08D005FA0AF106EB0A0000F020
:10115000FCFD0AF1010AF3E70137E4E7BDE8F88F87
:10116000DADE0008D2E100082DE9FC47DDF828802E
:101170001C4691460E460746102B06D0082C18BF79
:10118000BDE8FC874FF0060A01E04FF0080A002591
:10119000E8B219F8002072B1F8B2F1B22346CDF8E6
:1011A0000080FFF77FFF5744F8B2782884BF2644B9
:1011B00000270135ECE7BDE8FC4701F099BEFEE7EA
:1011C000B0B5064D72B66C780CB105F087FC002006
:1011D000687003A0005D62B6B0BD00BF20030020B0
:1011E000003132334134353642373839432A3023DF
:1011F00044400000FEB501AC204606F093F8002004
:101200004A4D184E022721468DF8080041F204008D
:101210008DF80B70ADF809004FF48050019028460E
:10122000B0474FF4005000F0BFFC4FF4804000F096
:10123000BBFC4FF4004000F0B7FC01F021FE182089
:1012400021460197ADF809002846B047042000F078
:10125000ABFC4FF4806000F0A7FC4FF4006000F09E
:10126000A3FCFEBD757300082DE9F04701F008FEF0
:101270002D4D2E4928788A46032805D82CA131F80F
:101280001010504606F04AF84FF000092AA70FF256
:10129000B0080026042E21D037F81610504606F06C
:1012A000BDF8B0FA80F14A09297805EB810333448F
:1012B0001C79944202D183F814900DE01C7D013416
:1012C0001C75E4B2142C07D31A7183F8149018B962
:1012D00008EB8100805D68700136DBE7287801301B
:1012E000C1B2032988BF002028705046082106F0AB
:1012F00095F8B0FA80F1AA7849098A4203D1002012
:10130000E870BDE8F087EA780132EA70D2B2142AB8
:1013100003D3A9700021E97008B1BDE8F08711205E
:101320006870BDE8F08700BF20030020000C01407A
:1013300000100020004000800200040000040008AB
:101340000102030405060708090A0B0C0D0E0F1015
:10135000E0B501AB00200021002206F059FDAD49A7
:10136000002006F023FD0198410702D5064901221D
:101370000A70010702D5054901220A70000602D54C
:101380000348012101708CBD671D0020661D0020EF
:10139000481C002010B504460020214606F042FB00
:1013A00048B90D480E490D4A844238BF1146002005
:1013B00006F020FB00B110BD0A480B490B4A8442DD
:1013C0000B4838BF0A460B49844228BF114600200B
:1013D000BDE8104006F040BB00B33F71FEEB0008D3
:1013E000F0EB00080094357724E8000810E80008C6
:1013F0000046C323FCE7000810B5072842D8DFE801
:1014000000F0042A161C0D323A2320480024002143
:1014100000220470002006F089FD34E01B480421FE
:1014200000F0DDFB6FF07F4106F06AFB2BE0174810
:10143000022100F0D4FB012112E01448032100F046
:10144000CEFB06F05DFD1EE01048072100F0C7FB53
:1014500006F09BFB17E00D48012100F0C0FB0021C6
:1014600006F081FD0FE00948052100F0B8FB0021DE
:1014700006F07AFB07E00548062100F0B0FB06F015
:101480007AFB00E00424204610BD00BF651D00204B
:1014900070B586B05D48CDF80E005D48CDF80A0005
:1014A000002006F0F8FCB0B94FF4FA7005F0F2FA3B
:1014B000002006F07DFD70B90020012106F02AFD14
:1014C00048B90DF10A01002006F0E7FC18B9002028
:1014D00006F062FC08B106B070BDCD4DA87F38B1F2
:1014E000002002214FF4A07206F049FD0028F2D13D
:1014F0000A2005F0CFFA00200021012206F03CFC72
:101500000028E8D1434C0020214606F04FFC00287B
:10151000E1D10020012106F026FD0028DBD10A20C0
:1015200005F0B8FA0DF11601002006F059FC00286C
:10153000D1D1002006F030FC0028CCD100203F2182
:1015400006F0FDFB0028C6D1002006F025FC00288F
:10155000C1D10020214606F029FC0028BBD10DF1A5
:101560001201002006F07CFC0028B4D100200221EA
:1015700006F04CFA0028AED1288A00210022002370
:1015800000F04CF80028A6D1298BA87DAB7EEA7E1E
:101590002C7F6E7FCDE9004600F07EF800289AD1BE
:1015A000A868FFF7F7FE002895D195F90C100020E8
:1015B000002206F0FCFA00287FF48DAFA8681649D7
:1015C000B0FBF1F0C1B20230C2B2002006F0C3FBA2
:1015D00000287FF480AF00208C21002206F070FCF0
:1015E00000287FF478AF0020022106F090FA00284E
:1015F0007FF471AF0020002106F03EF900287FF44F
:101600006AAF0420FFF7F8FE002064E70100040041
:101610001F000203FCCFFF0B00093D000C2801D284
:10162000082129E0112801D2012125E0162801D244
:10163000092121E0212801D202211DE02B2801D21D
:101640000A2119E0402801D2032115E07E2801D2A9
:10165000042111E0CD2801D20D210DE0FC2801D29A
:10166000052109E0B0F5CC7F01D20E2104E00F2165
:10167000B0F5FB7F38BF0621E0B565488DF8051051
:10168000417B808AADF806008DF8041001A9002086
:1016900006F082F98CBD00BF1CB504460598ADF874
:1016A00002100DF102018DF805208DF804308DF83F
:1016B000070004988DF80600002006F079F900B1C3
:1016C0001CBD0020214606F089F91CBDB0B58CB0C8
:1016D000002007F039F8C0B94B484C4901230A9063
:1016E0000AAA002006F035FF78B90020022107F091
:1016F00057F850B90020002106F097FF28B90DF1E6
:101700002601002006F0D7FF08B10CB0B0BDBDF82F
:10171000260020B1002006F094FF0028F5D100201B
:101720006FF4784106F097FF0028EED100F06AFAD6
:101730000028EAD1002009218C2207F01AF800289D
:10174000E3D10020002106F064FF0028DDD100F085
:1017500059FA0028D9D1002009214FF4980207F046
:1017600008F80028D1D10020002106F052FF0028FF
:10177000CBD103AC18212046FEF740FD214600F0F6
:101780002FF900202146032206F0E2FC0028BCD1FC
:101790000DF12E01002006F0C6FF0028B5D1002073
:1017A000002106F03BFD0028AFD1194CA06800F0E5
:1017B00031F80028A9D1207B0322400041B200204B
:1017C00006F099FD0028A0D10020022106F075FD49
:1017D00000289AD1617B227D637D208A00F044F845
:1017E000002892D1218BA07DA37EE27E257F647F9D
:1017F000CDE9005400F086F800287FF486AF04207D
:1018000000F09AF8002080E7CCCC2C004C0080003F
:101810007C1F002010B504460020214606F015FD6F
:1018200000B110BD0D48844208D80E49002006F0D2
:10183000D7FC0028F5D10020002107E0084900204E
:1018400006F0CEFC0028ECD100200121002206F099
:101850001CFD0028E5D1002010BD00BFFFC99A3B48
:10186000F4EB0008F9EB0008BCB5092801D200240C
:101870003BE00C2801D2082437E0112801D20124D2
:1018800033E0162801D209242FE0212801D20224B6
:101890002BE02B2801D20A2427E0402801D2032480
:1018A00023E0552801D20B241FE0672801D20C2425
:1018B0001BE07E2801D2042417E0CD2801D20D249C
:1018C00013E0FC2801D205240FE0B0F5CC7F01D253
:1018D0000E240AE0B0F5FB7F01D2062405E040F2B9
:1018E0002E350724A84238BF0F248DF807308DF815
:1018F00006208DF804108DF8054001A9002006F09F
:10190000AFFDBCBD1CB504460598ADF802100DF145
:1019100002018DF805208DF804308DF80700049839
:101920008DF80600002006F0BBFD00B11CBDE1B241
:10193000002006F0D5FD1CBD1CB5042409284BD899
:10194000DFE800F0051F11333A17272D4A452348D9
:1019500000240DF106010022ADF8064004700020BD
:1019600006F02AFF38E01D48022100F000FA0121AC
:101970000CE01A48052100F0FAF9002106F0B4FC49
:101980002AE01648012100F0F2F9002106F034FFA8
:1019900022E01248062100F0EAF902211AE00F487D
:1019A000072100F0E4F9012114E00C48032100F0C4
:1019B000DEF906F0EBFE0FE00848042100F0D7F94D
:1019C000002106F05BFC002006F0BDFC04E00024D2
:1019D0000020032106F0A0FC20461CBD651D002050
:1019E00010B5002008A20C2808BF10BDA0F1080304
:1019F0001458B3FA83F35B0901F8103001EB40038C
:101A000004305C60EFE700BF80A1031C60C37E353B
:101A100040B47E91E0B501A9002006F036FE0198A1
:101A2000010302D5064901220A70410302D5054986
:101A300001220A70400202D50348012101708CBDC9
:101A4000671D0020661D0020481C0020FEE770472F
:101A5000B0B50446FFF7B4FB88B3302801D339286A
:101A60000DD9232830D044281AD043282AD02A2838
:101A700025D13B48017881F0010101701BE0384914
:101A80004A78082A19D8012A04D10B4613F8024FC4
:101A9000302C03D0531C4B7011448B1C18700AE07F
:101AA0002F48417849B101394170090604BF43F21A
:101AB0000101A0F8011001F0BFF9FFF7C5FA0020FD
:101AC00040B2B0BDFF20FBE7254800224378811CCF
:101AD00043B111F8015B02EB8202013B05EB4202CC
:101AE000303AF5E70078002818BF52422260012002
:101AF000E6E700BF7FB500221949B0F1FF3F0A7049
:101B000005DD38B943F20100A1F8010021E001220E
:101B100040420A7000220A240DF1060360B1B0FBB6
:101B2000F4F505EB8506A0EB4600D6B2013240F095
:101B3000300098552846F1E74FF0FF308C1C50FAE2
:101B400082F0451C04D01D5C013804F8015BF8E705
:101B50004A7001F071F9BDE87F40FFF775BA00BF28
:101B600044030020012104F001B899F8035099F8CA
:101B7000047099F8058099F806904FF01C10012127
:101B800004F09AB80725A34005FA04F40C250A29A5
:101B90007047206840F0400020604FF0804005F022
:101BA000C7BA486802F067BD214601902846304711
:101BB0001021102300900020FFF7D6BA2A460823F0
:101BC000CDF800B0304722460823CDF800B050478A
:101BD000CDE90010F8B231462A462346704700246A
:101BE000017000207047002010211023CDF80080E4
:101BF000FFF7BABA0024017000207047002401707A
:101C000000207047002009210122022306F09EBD1A
:101C100003220023ADF80510002100917047032234
:101C20000023ADF805100021009170479846164634
:101C30000F46054605F0D0BD8DF80F100023ADF816
:101C40000B200A0A090C8DF80D1000218DF80E20CA
:101C500005220091704703220023ADF805100021F2
:101C600000917047204629464FF4702270479846ED
:101C700016460F46054606F017BA0A20002100F066
:101C800068BF0C46002102228DF80C1002911D2124
:101C9000ADF80610052100917047984616460F468C
:101CA000054609F03FBCC0B208F0E2BE14460D463E
:101CB000064601F0D1BC022200238DF80610002157
:101CC00000917047984616460F46054609F0E4B85D
:101CD00000F0FE002070207800F0FB0020707047BC
:101CE000013104F01F05C4F3421403FA05F540F86E
:101CF00024507047681E4FF46161C0B200FB06407B
:101D000017FB0100C8EB081100EB81004844704745
:101D100000BF00BF00BF00BF00BF00BF00BF00BFCB
:101D200000BF00BF70474FF4801005F001BA0446B1
:101D3000A86802F0A0BC00202021082300952047BD
:101D40008DED001B8DED020B7047C9B2C0B2CA0900
:101D5000214601F07BB940F261410088884270471A
:101D6000002010211023CDF80090FFF7FDB90024CA
:101D700001700020704702220023ADF806100021F8
:101D80000091704717F8011B284605F0D5BF0322C4
:101D90000023ADF805100021009170478DF80F2049
:101DA0000023ADF80910110A8DF80E10110C8DF8F2
:101DB0000D10110E07228DF80C10002100917047B4
:101DC00017F8011B284606F021BC14460D4600F00A
:101DD00059BD17F8011B284609F098BD8DF807007A
:101DE000204609F08BBA17F8011B284609F04EBAB5
:101DF00001F00F0004EB400000EBD11414F8330F96
:101E0000C0077047BFF34F8FBFF36F8F70472268D3
:101E100042F00102226070470823009628470078AC
:101E20002870022008F070BA03F00F0343EA021290
:101E300070470090204609F050B8224610230096C3
:101E4000384700EE101AB8EEC00A7047022200238D
:101E5000ADF80610002100917047012309F068BD1C
:101E6000BDF8041009BA090C21801CBD019801219C
:101E70004EF6602202F0E2BB012309F03FBA019066
:101E800004F096BE00202821082300952047012356
:101E900009F059B8A0F13101207004297047019070
:101EA00004F0B4BF012103F007BF48680D4602F0FB
:101EB000E2BB0020102108230095204708F10C0503
:101EC00031CDFEF73ABC384631462A4623467047A4
:101ED000BDF8081009BA090C2180BDF80A1009BA2A
:101EE000090C6180BDF80C1009BA090CA18070477B
:101EF000130A8DF80E30130C120E8DF80C2070475B
:101F0000002105F019BF02220023ADF806100021C0
:101F10000091704702220023ADF8061000210091C5
:101F200070472846002106F071BB224600F02ABE09
:101F3000022200238DF806100021009170478DF8D1
:101F40000720032200238DF805100021009170471F
:101F50009DF800009DF8011042460AF079B94DF84D
:101F600008ED18F8070000FB0645B9F8000005F079
:101F7000C9FA00282C465DF808EB7047216821F06B
:101F80000101216010BD0020182108230095204781
:101F9000044628460E46FEF7D0BB1C4615460E46A4
:101FA000007888F80000022008F0AEB90023009005
:101FB000204605F034BC0222ADF806100021ADF831
:101FC000041002210091704702220023ADF8061090
:101FD0000021009170470222ADF806100021ADF8F3
:101FE0000410022100917047069C284606F008BBA9
:101FF00002203E21082200F055BC012200238DF86A
:10200000071000210091704704F00F0001EB400021
:1020100000EBD41090F8331070474FF4801005F0A7
:10202000E7B8002000210823009520470823CDF8B9
:1020300000B0FFF799B840F2EE41884270478DF842
:102040000F10ADF80B00080A8DF80E00080C8DF883
:102050000D0070478DF80710032200230021009126
:102060007047284605F0A6BF012200238DF807100F
:102070000021009170470222ADF806100021ADF852
:102080000410022100917047069D0078267846F0E2
:102090000106267000957047D4F8801021F00101E8
:1020A000C4F880104FF004610968704700200821CF
:1020B000082300952047814620460F46FEF73DBB8A
:1020C00040F2E571884270478DF807200422002312
:1020D000ADF8041000210091704703202621202232
:1020E00000F047BDBDF8081009BA090C2180BDF801
:1020F0000A1009BA090C6180BDF80C1009BA090C64
:10210000A180704700F00F0098F801104044C07C97
:102110008842704747F2305102F090BA40F2FC41D9
:10212000884270471C4615460E4600F0ABBB8DF842
:102130000700204609F0FCBB01238DF8070020466C
:1021400008F001BF416800200847016841F08001A4
:1021500001607047002000F0ABBE40F6D5318842E8
:102160007047012100F030B98DF8072000238DF869
:102170000410110A04228DF8061000210091704706
:102180008DF8071000238DF804200A0A090C8DF839
:10219000051000218DF8062004220091704701F0FF
:1021A0000F0002EB400000EBD1107047D4F8802004
:1021B00042F00102C4F8802070472046FFF748BC77
:1021C00000EE100A9DF90500B8EEC00A01EE100AF3
:1021D00070470123044609F0EDB90C461021022294
:1021E000ADF80E100021ADF80C10029106210091FF
:1021F0007047013010F0FD0F70479DF804309DF8D6
:10220000051022460370002070470023ADF80A2015
:102210000622039100210091704700238DF80610DB
:1022200000218DF805200322009170470222ADF8AD
:102230000E1000218DF80C10ADF80A10032100914A
:1022400070470000BCB5174DA86800F06BF908B1E5
:10225000052424E095F90C0000F0ACFDA86800F01E
:1022600077FA288A002100220023002400F046FD8E
:102270002A7F6B7F298BA87DCDE9002300220023D4
:1022800000F05AFD002000F029FB0020582109220F
:1022900000F008FB04480421017000F0B2F8204669
:1022A000BCBD00BF7C1F0020651D0020BCB5002404
:1022B00002203E2108228DF80640ADF8044000F0CF
:1022C000EAF901AD032C0AD004F11E0045F6A52160
:1022D000C2B23B2000F085F928550134F2E73B20DB
:1022E00045F6A5211C2200F07CF95A281AD10220BB
:1022F0003D21FD2200F03DFC9DF806201AB1002092
:10230000452100F036FC9DF8042006201C2160F3D6
:102310005F12032000F02DFC9DF8052003201D21F5
:1023200000F027FCFFF764FE0020BCBD0246002041
:102330006C2100F01EBC000010B5044602200621EE
:10234000012200F0A8F9094809490A4A844238BF25
:102350000A4602200A21282300F030FC0220342102
:10236000EF2200F006FC002010BD00BF0027B929B5
:10237000C8E80008A0E80008B0B5124D00243A2CC7
:1023800009D004EB44016A18685C5178927800F037
:10239000F0FB0134F3E70320122100F045F9044675
:1023A00001202521482200F0E4FB04F0080012215E
:1023B000821C032000F0DDFB012000F0A1F90020C9
:1023C000B0BD00BFF0E8000810B5012906D099B9EA
:1023D000082832BF63210838642104E0082826BF9A
:1023E0000838662165210122002402FA00F0C2B2F9
:1023F000002000F057FA00E0FF2460B210BD04F0A6
:1024000049BB80B5042000F077FA00F073FB00F0C0
:102410003FFB022000F07AFA0620BDE8804000F081
:102420006BBA000010B50420042400F065FA64487B
:10243000047010BD80B500206C2100F0F5F800F0AC
:102440007F0080BD80B501207F2100F0EDF840B213
:1024500080BD0000FEB50DF10604022071210323AA
:10246000224600F0EAF8E21C012074210323012433
:1024700000F0E3F89DF80A009DF80B109DF8095054
:102480009DF807209DF80830000240EA01409DF8C1
:1024900006102844F54D2E7B2D7BC5F10907093D1B
:1024A00020FA05F50A2E38BF00FA07F510020B4A8C
:1024B00040EA03400844012888BF0446B5FBF4F114
:1024C00000201F2804BF0020FEBD52F8203001303C
:1024D00099429CBF1538FEBDF3E700BF68EB0008CA
:1024E00080B502200621042200F0D5F80220062142
:1024F000042200F0D7F901207E2100F095F840B2C7
:1025000080BDB0B5044600F008F80546012021461C
:102510002A4600F0ABF82846B0BD01207D2100F02E
:1025200083B80000F8B5244E044604200621042593
:10253000B047224F0120B84700200321B0471A209E
:102540000321B047002000F09DF902200021B04790
:102550000120B84702200121B0470120B8470320DD
:102560000621202200F005FB0120B84702200221AD
:10257000B0470120B847FFF7B0FD0120B84704205D
:102580003621B0470120B84702200321B04701207F
:10259000B84702200421B0470120B847FFF7ECFEFE
:1025A000FFF784FE2046FFF7C7FE00F00BF8E8486F
:1025B00005700020F8BD00BFD12B0008FF230008E4
:1025C000501C002080B50A20FFF7CBFD0020FFF74C
:1025D000C8FDFFF752FB00200021BDE8804000F05D
:1025E000B8BABCB5044650008DF806100DF10502CE
:1025F00003238DF80700080A21468DF80500022004
:1026000000F0DCFA42F2107500206C2100F00CF8AA
:1026100040B2002803D4681E29040546F4D10220E4
:10262000214600F001F8BCBD10B50C4600F02AF9B7
:102630002046BDE8104000F00AB870B5FFF772FD03
:10264000304629462246BDE8704000F00FB810B56C
:10265000044606F09BFB6000FFF725FB002008F016
:1026600007FA044606F08EFB204610BD70B51446EE
:102670000D46064606F08AFB7000FFF714FB34B1E6
:10268000002008F0F5F905F8010B013CF7E7BDE87B
:10269000704006F077BBB0B5FFF797FB2846FFF711
:1026A000D6FF20EA0401284600F092FA0020B0BDCF
:1026B00010B5044603200D21F023FFF736FC02205D
:1026C0003F210222092C02D1FFF7E5FF01E000F0D3
:1026D000E9F8D048447310BD10B5044603200D211D
:1026E0000E23FFF722FCCB48847310BD10B50446BF
:1026F00003200E210823FFF718FCF148C47310BD16
:1027000070B500280546114E044618BF0125AA00E1
:1027100001202521F023B047012025212A46082346
:10272000B047B4FA84F012210423450903202A4655
:10273000B047032012212A461023B0470020582119
:102740002A460423B047EA48847570BD852B0008EB
:102750002DE9FC4104463848844202D3374884427C
:1027600003D9FF2778B2BDE8FC8135490020B0F5D8
:10277000C07FF6D00A58944203D90D186A68944273
:1027800001D90C30F3E7DFF8BC8005F10802002026
:10279000402102230027C047AD7A3D20294600F0A2
:1027A00017FA019401AA032009210423C047C5F3A5
:1027B000021025A1085CFDF77BFF054620460E466A
:1027C000FDF776FF2A463346FDF780FE9FED160B98
:1027D00053EC102BFDF7ECFE05460E46FDF794FF7B
:1027E000A0F114018DF80110FDF762FF02460B46BF
:1027F00028463146FDF764FE9FED0D0B53EC102B80
:10280000FDF764FEFDF761FF8DF80200C0F30320C1
:102810000DF10102152103238DF803000320C047A9
:10282000B34884609EE700BF000000C079847E4109
:10283000000000000000894090BF3E08007E5F401D
:10284000A0E90008BD2B0008020406080C100404CF
:1028500010B502220446002818BF012201200E21D3
:10286000602300F08FF9A248047410BD8403002097
:1028700010B50446032012210823FFF756FB9C489D
:10288000847410BD0146064802788A4206D080B59D
:102890000170002000F09CF9BDE8804000207047E6
:1028A00030000020B0B5FFF790FA2846FFF7CFFEC2
:1028B00040EA0401284600F08BF90020B0BD00007A
:1028C0001CB50446ADF806000DF1060203201321E5
:1028D000022300F073F9864884821CBD10B50446BB
:1028E00001382421B0FA80F04009C200032000F032
:1028F00040F97F48C47510BD10B50446022021463A
:1029000000F066F96148047010BD00BF0246032064
:102910000621032300F036B910B5044603200E212A
:10292000F023FFF702FB7248047310BD10B5044694
:1029300003200F21224600F01CF96D48447410BD9D
:1029400080B500F0EBF851480521017080BD00BF53
:10295000501C0020024603200621042300F012B977
:102960002DE9F041054616282849294E28BF16258D
:10297000002808BF012505EB45000844222110F876
:10298000027C10F8034C10F8018C032007F00102C0
:10299000B04700201E212246B0473A0900204B21B3
:1029A000B047002046210422B8F1700F02D1FFF792
:1029B00072FE01E0FFF776FF4D4C2078012801D12F
:1029C000607814E001203E210822082720700220B0
:1029D000FFF761FE3B2045F6A5212022FFF701FE0F
:1029E0006070FFF705FB607808B90820677008F091
:1029F0000F01401A08F0F00108434521C2B200203F
:102A000000F0B7F82571BDE8F08100BF20EB0008A9
:102A1000732B00088403002080B5FFF72EF90020F7
:102A20000021BDE8804000F094B80000B0B50E4C25
:102A300002200421A04700205821002200F099F82C
:102A40000120FFF787FF01200C21012200F091F8FF
:102A500000F03EF8022005210525A0470120FF21B6
:102A6000A0470A480570B0BDD12B000810B5022060
:102A70000421042400F0ACF800F010F800205821E4
:102A80000F2200F076F80148047010BD501C0020A1
:102A900000204F210822FFF7FEBD000080B5FFF7A0
:102AA000F7FFFFF7B9FF1248C07D012818BF80BDAE
:102AB000032024210822BDE8804000F05AB800BF5E
:102AC0008403002000204F210822FFF7EBBE000006
:102AD00080B50748C07D012804D1032024210022AD
:102AE00000F047F8FFF7EEFFBDE8804000F00DB8BA
:102AF0008403002080B50020002100F02AF80A207D
:102B00000121BDE8804000F024B880B5FFF7B5F89A
:102B100000200121BDE8804000F01BB8B0B50C4694
:102B200005460220042100F053F80020FFF712FFB1
:102B300001200C21224600F01CF8FFF7C9FF0520F8
:102B4000FFF7DAFE012029462246BDE8B04000F03A
:102B50004FB880B50A466821082834BF6721083875
:102B6000012303FA00F0C3B2002000F00BF80020AC
:102B700080BDB0B5FFF729F92846214600F028F8B6
:102B80000020B0BD2DE9F041074618461C4690468E
:102B90000E4601F043F805463846FFF773FE08FA83
:102BA00005F004EA00053046FFF751FDA04329185F
:102BB000304600F00DF80020BDE8F08170B5FFF759
:102BC000B1FA304629462246BDE8704000F010B800
:102BD000B0B50C46054606F0D9F868000130FFF79D
:102BE00062F8204607F044FF06F0CCF80020B0BDA4
:102BF00070B514460D46064606F0C8F87000013060
:102C0000FFF751F82CB115F8010B07F031FF013C2B
:102C1000F8E7BDE8704006F0B5B80000B0B52E4842
:102C2000012104F0FBFB012854D1FFF703FC04460B
:102C30002AA021460AF0B2FBE00709D0FFF72EFFD9
:102C400001200125FFF772FB284804F0FE040570FF
:102C5000200714D5FFF7FEFB254D85F81201FFF77D
:102C6000F1FB85F81101681CFFF74BFC2870082068
:102C7000FFF75CFB1F48012104F0F70401706006B8
:102C800011D500206E21FFF7CFFC194991F80021E2
:102C9000531C81F80031114481F801014020FFF7F5
:102CA00045FB04F0BF04600707D50420FFF73EFB97
:102CB0001148012104F0FB040170A00704D5022093
:102CC000FFF734FB04F0FD0424B12046BDE8B0401A
:102CD000FFF72CBBB0BD00BF000C0140466C616724
:102CE000733A3078253032580D0A0000671D0020F5
:102CF000511C0020661D0020481C0020402801D2E5
:102D0000062008E001467E2801D2072003E00920C2
:102D1000FB2938BF082010B5FFF7CAFC054C607BC3
:102D2000FFF7FAFD207DFFF7D7FC607DFFF7A0FDE0
:102D3000002010BD7C1F0020B0B5054604980C464D
:102D4000FFF7D4FC2046FFF7BBFD0598002818BF0D
:102D50000120FFF77DFD2846FFF7E8FD0020B0BD0C
:102D600010B5062818D80024DFE800F004200A1661
:102D7000181F10000E4804700120FFF7BDFD15E07C
:102D80000B4802210170FFF74DFB0CE008480621BB
:102D90000170FFF74BFE06E0042407E0044804211D
:102DA0000170FFF72EFB002400E07F24204610BDB9
:102DB000651D00200149085CFFF7D2BDC2E700088D
:102DC0007047000080B5084800214FF4806200235E
:102DD0004FF0FF30054800214FF480620023BDE82A
:102DE0008040FDF7E1B900BF040000200000002092
:102DF00080B5034872B607F05FFC62B680BD00BFC5
:102E0000300E002070B50B4D0446A888E9880131CA
:102E1000B1FBF0F202FB10162889864202D104F0C1
:102E200007FAF9E7034872B6214607F05AFC62B682
:102E3000204670BD3C1200201048017819B12D21A8
:102E4000C172012100E0002142786AB1B0B5831C53
:102E50003AB113F8015B50FA81F4013A0131E5729D
:102E6000F6E7BDE8B04003E0421830230131D372E9
:102E700050FA81F00021C172704700BF4403002066
:102E8000B0B59A4C094D4FF480512046A8472046D2
:102E90004FF40051A84720464FF48041A8472046F0
:102EA0004FF400412A46BDE8B040104721730008A6
:102EB00080B530B16E484FF48061FF22FDF797F97D
:102EC00004E06B484FF48061FDF798F9BDE880405D
:102ED00000F00EB80146854811B1402104F020BA37
:102EE000402104F01BBA00BF8048202104F018BA2A
:102EF000F8B55F4D474E0024082C08BFF8BD44F0DC
:102F0000B00000210027C0B2B04700200021B04728
:102F100010200021B047802F05D0E85D012100F08E
:102F2000A9F80137F7E780350134E5E710B5394CEA
:102F30008D200021A04710200021A047AE200021B5
:102F40002246BDE81040104710B5324C8D200021BC
:102F5000A04714200021A047AF2000212246BDE851
:102F60001040104710B500F097F80A2003F092FDCA
:102F700000F052F8274CAE200021A047002000218D
:102F8000A04710200021A04740200021A047B020EA
:102F90000021A04781200021A047FF200021A04759
:102FA000A1200021A047A6200021A047A8200021A1
:102FB000A0473F200021A047C8200021A047D320E0
:102FC0000021A04700200021A047D5200021A047D4
:102FD00080200021A047D9200021A047F120002116
:102FE000A047DA200021A04712200021A047DB20C3
:102FF0000021A04730200021A0478D200021A047BC
:1030000014200021A047AF2000212246BDE8104037
:10301000104700BF7530000810B5344C80212046A1
:1030200004F07EF9642003F035FD2046802104F091
:1030300075F9642003F02EFD20468021BDE8104084
:1030400004F06EB92948202104F068B910B501F0E8
:10305000070301F0F801012400EB01100449002AE4
:1030600004FA03F30A5C0CBF9A431A430A5410BDD6
:103070006C04002010B50029044618BF0121084641
:10308000FFF728FFFFF7DEFF204607F0F1FCBDE861
:103090001040FFF729BF00007CB56C46204604F0C5
:1030A00041F90020114D124E21468DF804002020D8
:1030B00000904FF44470ADF806002846B04728460B
:1030C000202104F02DF98020214600902846B047A9
:1030D0002846802104F024F940202146009028460B
:1030E000B0472846402104F019F97CBD000C01408E
:1030F0007573000870470000C0480A494FF47F729A
:103100008068B0FBF1F0B0F57F7F28BF10468108E2
:1031100000EB5000B0F57F7F38BF024692080020D8
:1031200007F0AEBD40420F00E0B50DF106010020F2
:1031300007F0FAFD002044F2FF3107F0CCFDBDF8A6
:103140000600C10702D0074901220A70810702D593
:10315000054901220A70400602D504480121017088
:103160008CBD00BF671D0020661D0020481C00208C
:1031700010B5072842D8DFE800F00429151B0C31F0
:103180003A222048002400210470002008F036F87C
:1031900035E01C480421FEF72DFD6FF07F4108F05B
:1031A00025F82CE017480221FEF724FD012112E04A
:1031B00014480321FEF71EFD07F03FFF1FE01148F2
:1031C0000721FEF717FD08F045F818E00D4801212A
:1031D000FEF710FD002108F01CF810E00948052159
:1031E000FEF708FD6FF07F4108F048F807E005485A
:1031F0000621FEF7FFFC08F024F800E00424204636
:1032000010BD00BF651D0020BFB5002007F0AFFE58
:1032100080B9002008F061F860B90A2003F03AFC98
:103220000020002107F0F5FF20B90020012107F060
:10323000AEFF08B104B0B0BDDE4CA07F90B1E17F1D
:1032400000204FF47A7207F0BDFE0028F2D1002072
:103250007F2107F00AFD0028ECD1002007F02DFDAA
:103260000028E7D10020012107F086FF0028E1D1E6
:10327000A168002007F096FF0028DBD10020002184
:10328000002207F089FE0028D4D1617B227D637D76
:10329000208A00F059F80028CCD1207F657F218B4F
:1032A000A37EE27ECDE90005002000F087F800282B
:1032B000C0D100206FF07F4107F098FF0028B9D1FE
:1032C000FFF71AFFA07F88B31E48039003A90020D0
:1032D00007F042FF0028ADD10020382107F032FF6F
:1032E0000028A7D194F90C100020002207F0BBFFA2
:1032F00000289FD10020012107F0CDFC002899D1A2
:1033000000200121002407F052FE002892D1002065
:10331000432103220023009407F06CFE00287FF471
:1033200089AF0420FFF724FF002083E794F82010E2
:1033300094F82120002007F077FF00287FF47AAF6F
:10334000C2E700BF040700011CB5092801D2002410
:103350001FE00C2801D208241BE0112801D201240F
:1033600017E0162801D2092413E0212801D20224F3
:103370000FE02B2801D20A240BE0402801D20324BD
:1033800007E07E2801D2042403E00624FB2838BF8E
:1033900005248DF806208DF805408DF807308DF84E
:1033A000041001A9002007F051FE00B11CBD00204F
:1033B0000121224607F06DFF1CBD0000E0B5059815
:1033C000ADF802108DF805208DF804300DF10201E2
:1033D000002818BF01208DF807000498002818BFA6
:1033E00001208DF80600002007F051FE00B18CBDD1
:1033F000E248817D002007F07EFE8CBD7C1F00200E
:10340000092801D2002121E00C2801D210211DE061
:10341000112801D2202119E0162801D2302115E00F
:10342000212801D2402111E02B2801D250210DE0AA
:10343000402801D2602109E07E2801D2702105E0F8
:103440006FF06F01FB2838BF6FF07F01C8B2704783
:103450008348082103F064BFE0B50DF105010620A3
:10346000032200F0CBF89DF806109DF805009DF8AA
:1034700007209FED081A090241EA0040104400EEBF
:10348000100AB8EE400A20EE010ABCEEC00A10EEA7
:10349000100A8CBD00247442B0B50DA4FFF7DCFF08
:1034A0000F49884288BF083494ED000B1B2055EC6F
:1034B000104B00F09BF8FDF7FBF802460B46204648
:1034C0002946FCF75CFFFDF74BF900EE100AB0BD92
:1034D00000000000008064C00000000000A063C085
:1034E000FF07AF2F0000000010B5FFF7B5FF04463F
:1034F0001A2000F07BF80E498C420CD3FDF7D8F867
:103500009FED090B53EC102BFCF739FFFDF728F961
:1035100000EE100A10BDA43800EE100AB8EEC00A82
:1035200010BD00BF00BF00BF0000000000A063C0CE
:103530000008AF2F132000F059B880B5192000F013
:1035400055F800EE100AB5EE001AB8EE400A20EE6B
:10355000010A80BDBCB500F06BF80020002400F02B
:103560007FF90120802100F09FF90A2003F092FAF0
:10357000012000F075F90A2003F08CFAA54D012115
:10358000A86800F0FDF895F90C000F2100F054F93F
:103590002A7D6B7D288A002100F064F8298BA87DA4
:1035A000AB7EEA7E6D7FCDE9004500F0A5F80020F6
:1035B000BCBD00BF7C1F002010B5122000F016F823
:1035C00004461220FF2100F06FF9200702D5F548CC
:1035D00001210170A00602D5F448012101706006A6
:1035E00002D5F1480121017010BD00BFE0B50DF119
:1035F0000701012200F002F800208CBD70B5FEF733
:1036000055FB46F0800007F033FA2CB115F8010B9A
:1036100007F02EFA013CF8E7BDE87040FFF718BF4D
:1036200080B50A4601460020FFF7E8FF002080BD74
:1036300010B5084C1021204603F070FE012003F065
:1036400029FA2046102103F06BFE0A20BDE8104045
:1036500003F020BA000C01400148082103F05EBECF
:1036600000080140F8B51D461646FFF7C9FE04469E
:1036700040EA4600794FC1B21D20B847654E707BC5
:103680000001C1B21E20B847002D18BF0125262019
:10369000FFF7ACFF00F0F70040EAC5012620B8476D
:1036A000707B062806D13120052100F0FDF8372077
:1036B0000C2101E03120032100F0F6F8902C13D109
:1036C000B0680A49884201D9642405E008490844E1
:1036D0000849884208D87F243620022100F0E4F807
:1036E0003A20214600F0E0F80020F8BD7F13613356
:1036F00080E58FE7C0C2DA062DE9F041574D0F464D
:103700008046090A20201E461446A847F9B2212007
:10371000A84722202146A8472320FF21A8471D2093
:103720001D24FFF763FF711E00F0FE00B1FA81F166
:10373000490901441D20A84739204146A8471E20B9
:10374000FFF754FFEA4900F0FB00097F0139B1FAA5
:1037500081F1490940EA81011E20A8470798012804
:1037600004D13320412100F09FF819243B20214649
:1037700000F09AF80020BDE8F08100BF7C1F002017
:1037800070B500EE100A9FED221A22480D46B8EEE1
:10379000400A80EE010A0069BCEEC00A10EE106A11
:1037A000FFF72EFE35B304463120902C07D1FFF7EA
:1037B0001DFF40F08001312000F076F81AE0FFF79D
:1037C00015FF00F07F01312000F06EF8302000215D
:1037D000002500F069F84FEA3410052805D80EA13D
:1037E00051F8205012A1095C00E040212F2000F088
:1037F0005BF82E44194CC6F307410620A047C6F3D8
:1038000007210720A047F1B20820A047002070BD83
:10381000002474427C1F002080000000AA000000E9
:10382000000100005501000000020000AA02000093
:103830004844444444440000B0B57E30074D0C4633
:1038400040F08000C1B20920A8470A202146A847BD
:103850000B200F21A8470020B0BD00BFA9380008E9
:1038600010B507281ED87F210446DFE800F00C04BD
:1038700004090B0719190120012404E0032402E0C4
:10388000042400E00524704908700120FFF7AEFE13
:1038900000F0F80040EA0401012000F005F80021E2
:1038A000084610BD0421FBE7E0B50DF10701012238
:1038B00000F001F88CBD70B5FEF7F8F906F07F0056
:1038C00007F0D6F834B1002007F0D2F805F8010B64
:1038D000013CF7E7BDE87040FFF7BABD000000000B
:1038E0002DE9F8432DED048BB0F5704F9FED1C8B47
:1038F00028BF4FF4704090468946041F01260125D9
:10390000102E21D0EFB20F2F19D8B0EE480A304652
:10391000F0EE680A09F06CFDB0EE409A3846F0EE21
:10392000609AFCF7C5FE02460B4651EC190BFCF7FA
:10393000CDFDFCF7E9FE844202D90135E2E710250E
:10394000A04202D20136DAE7102689F8005088F842
:103950000060BDEC048B01B0BDE8F08300BF00BF88
:10396000000000000000F03FE0B50DF1060100206E
:1039700007F024FD00204FF6FF7107F0FBFCBDF8B7
:103980000600C10702D0074901220A70810702D54B
:10399000054901220A70400602D504480121017040
:1039A0008CBD00BF671D0020661D0020481C002044
:1039B00010B5072844D8DFE800F0042B171D0D339D
:1039C0003C2421480024002100220470002007F03C
:1039D00052FF36E01C4804214FF6FF72FEF70EF945
:1039E000FF2107F03EFF2CE017480221FEF706F901
:1039F000012112E014480321FEF700F907F02AFE26
:103A00001FE011480721FEF7F9F807F063FF18E0FF
:103A10000D480121FEF7F2F8002107F03DFF10E00C
:103A2000094805210022FEF7E9F8002107F03FFFD1
:103A300007E005480621FEF7E1F807F042FF00E045
:103A40000424204610BD00BF651D00207FB5002066
:103A500007F0C4FD002848D10020012107F0D7FE5F
:103A60000020012107F0C8FE00283ED1204C617BD8
:103A7000227D208A00F040F8B8BB218BA07DA37E78
:103A8000E27E257F667FCDE9005600F052F860BBEC
:103A9000A168002007F0C6FE38BB002000210022EC
:103AA00007F0A4FD08BB94F90C100020002207F0D9
:103AB0001AFFD0B90F48EF210423039003AA002076
:103AC00007F036FF88B900200121002407F0CBFD64
:103AD00058B90020432103220023009407F097FDEA
:103AE00018B90420FFF764FF002004B070BD00BFC8
:103AF0007C1F002000AD089A1CB5CD2801D23423CC
:103B00000AE0B0F5CC7F01D2262305E040F22E3446
:103B10000A23A04238BF182308010DF105018DF8D2
:103B200007208DF806308DF80500002007F0BCFD59
:103B30001CBDFEB50DF106071646044608460DF1FC
:103B400005021D463946FFF7CBFE09988DF809603E
:103B50003946002818BF01208DF80B00089800286E
:103B600018BF01208DF80A00002D18BF0125E801BB
:103B70008DF808009DF805008DF80700002007F07B
:103B8000DDFD00B1FEBD0020214607F00EFEFEBDAA
:103B900000F090BA1248D0F8801041F47001C0F8DB
:103BA000801010490A6842F001020A600A68920710
:103BB000FCD54A6822F003024A604A6812F00C0FF2
:103BC000FBD10A68084B1A400A6000224A600A6367
:103BD0004FF41F028A604FF000610160704700BF20
:103BE00008ED00E000100240FFFFF2FE70470020E9
:103BF000012108F0C9BEFEE70648BFF34F8F064A11
:103C0000016801F4E06111430160BFF34F8F00BF11
:103C1000FDE700BF0CED00E00400FA0500210829D3
:103C200005D020FA01F2D20702D10131F7E70021D5
:103C3000C8B270470A78436802F0010223F4807327
:103C400043EA022242604A78836862F34103836058
:103C50008A78836802F0010223F4006343EAC222F7
:103C60008260C978C26A013922F4700201F00F0142
:103C700042EA0151C16270474FF0807101607047A4
:103C8000816841F00801816070478068C0F3C0001E
:103C90007047816841F00401816070478068C0F31B
:103CA00080007047044900F00F000A6822F4702277
:103CB00042EA00400860704704240140826861F3D2
:103CC00000028260704722B1012A06D14268114386
:103CD00002E0426822EA01014160704700000000F2
:103CE00010B5194C04F5E05000F05DF8FCF7E0FC6D
:103CF0009FED0F0B53EC102BFCF7E8FB9FED0E0B29
:103D000053EC102BFCF7E2FB9FED0D0B53EC102B4B
:103D1000FCF74EFCFCF724FD0C49086020464FF4EC
:103D20000041BDE8104003F0F9BA00BF00BF00BF7A
:103D30000000000000C8E93F000000A0999927405A
:103D40000000000000408F40000801406C08002087
:103D500070B501EB41040A2928BF1E3CFDF712FF94
:103D600038BF1025465926EA0404234302EB820497
:103D700043516FF00403062A88BF6FF022030C2A18
:103D800088BF6FF04003342523441F249C40062A3B
:103D900088BF30250C2A88BF2C2542599940A24360
:103DA0001143415170BDC06C80B2704710B54B04D7
:103DB0008468082904D344F0007103F4602301E00F
:103DC00024F000718160816821F4602119438160D1
:103DD00002F00101826822F4801242EA01518160FE
:103DE00010BD426801F0010122F4006242EAC121E3
:103DF00041607047826801F0010122F4800242EACA
:103E0000815181607047000010B50A49084C884212
:103E100004D00949884218BF10BD01342046012151
:103E200001F058FF20460021BDE8104001F052BFCC
:103E300009000C000024014000280140BCB5FEF739
:103E400089F901200BA2FDF7B3FE6C4DB5F88A008D
:103E5000FDF750FE01ACFEF7B0F9FEF7CAF9FAD152
:103E600001986328DCBF64200190A5F88A0002F065
:103E700041FEBCBD53656E64696E6720696E7465F2
:103E80007276616C00000000BCB5FEF763F901209A
:103E90000BA2FDF78DFEF34D6868FDF72BFE01AC1C
:103EA000FEF78BF9FEF7A5F9FAD10198B0F1FF3FC3
:103EB000DCBF00200190686002F01CFEBCBD00BFAA
:103EC0004F776E2049440000BCB5FEF743F901204E
:103ED0000EA2FDF76DFEE34DD5F88C00FDF70AFE4E
:103EE00001ACFEF76AF9FEF784F9FAD10198B0F156
:103EF000FF3FDCBF002001906968884204BF0130A9
:103F00000190C5F88C0002F0F5FDBCBD50616972EE
:103F100020494400BCB5FEF71DF901200BA2FDF7B6
:103F200047FED04DD5F89000FDF7E4FD01ACFEF75B
:103F300044F9FEF75EF9FAD10198002801DC01206E
:103F40000190C5F8900002F0D5FDBCBD5061636BD7
:103F5000657420636F756E7400000000BCB5FEF7D9
:103F6000F9F8012021A2FDF723FEBE4D95F90C00C2
:103F7000FDF7C0FD01ACFEF720F9FEF73AF9FAD1E2
:103F8000298840F261420198914222D040F2EE42EB
:103F900091421BD040F6D53291420DD0B1F5A06FC1
:103FA00010D040F2E572914209D040F2FC429142B9
:103FB00015D1022111220FE0002114220CE06FF034
:103FC000120108E06FF011010D2205E06FF0080109
:103FD00001E06FF01101162200F030FB0190287310
:103FE00040B206F0E7F802F085FDBCBD54582070E1
:103FF0006F7765722C2064426D0000007C1F0020EA
:1040000010B502F077FD104CFDF7DAF8FDF742FF2E
:1040100007D8DFE801F003120C0F0900FFF734FFA7
:10402000F2E72328F0D10BE0FFF798FFECE7FFF76A
:1040300071FFE9E7FFF702FFE6E7FFF745FFE3E778
:10404000BDE8104002F0E0BD641D002011448AB2BA
:104050008A4202D1B2EB400F01D3A1EB400188B2FA
:10406000704700000D490A6802604A68426089682A
:1040700081600C20704700BF04490A6822F478620E
:104080000A600A6810430860704700BF2C6C00404B
:104090000248034900680968704700BFE8F7FF1F3E
:1040A000ECF7FF1F08F04EFD642002F0F3FCFFF771
:1040B000A3FD0000B0B5374CE0680130E060364841
:1040C000017801291DD1354A116801311160344947
:1040D000096813688B4214D300211160314A1368B8
:1040E00001331360304B12681B689A4206D9017085
:1040F0002E4801702EA009F08FFE02E02B4801210E
:1041000001702E48007801280BD12D480168013933
:104110000160016829B92B49096801602A48012119
:1041200001702A4D68680138686068680A2804D1FF
:1041300027484FF4004103F0F3F8686820B903F012
:10414000B5FA4FF47A706860FDF78EF86068013058
:1041500060606068B0F57A7F0BD300200121606059
:104160002170A2680132A260A2683C2A24BFA0602C
:1041700061702878012808D116480078012804D1F8
:10418000A8680138A860A86800B1B0BDBDE8B0401B
:1041900002F0ECBC180400205C0300207403002033
:1041A00014030020640300207C2400205D03002011
:1041B00054583A20444F4E450D0000005F03002044
:1041C000800300207C030020600300200C000020FE
:1041D0000008014061030020BCB513460C460546AB
:1041E0000DF107010DF10602184604F0FBFD9DF8E4
:1041F00007009DF80610084A091A890241EAC030F2
:10420000010404BF48F20000CFF6FF70290101EB62
:10421000C4018852BCBD00BF04600040BCB5FDF7BE
:1042200099FF01200EA2FDF7C3FC0E4D2869FDF792
:1042300061FC01ACFDF7C1FFFDF7DBFFFAD101988E
:1042400007214FF4C86200F0F9F9697B2A7D6B7D84
:104250002861019080B206F011F802F005FEBCBDA5
:10426000425700007C1F0020137803F06003202BCE
:104270001CBF00207047B0B5EE4B95885C78A54216
:1042800012D15478203C032C0ED8DFE804F002044D
:104290000F2603292ED0012930D1043311461A46A6
:1042A000072307F037FF29E00020B0BD032916D10E
:1042B0005588924805F001040078DD7084F0010112
:1042C00001EA900103F1180007F0CEFDC5F34002AA
:1042D0000020214607F0CFFE10E0032905D0012978
:1042E0000CD1114607F00AFF08E05188002007F0C2
:1042F00002FF03E0191D002007F0BCFE0120B0BD45
:10430000012070477FB5CB4CBC212046FBF776FFE0
:104310004FF4006040250026002100220023A4F86D
:1043200009004FF4E13003956060FF20E07204F172
:104330007C008DE8610004F1240007F0CDFB6F489C
:1043400001220395017804F13C008DE8610004F13D
:104350000C00C1F38003002107F0BEFB7FBD00BF4E
:104360002DE9FE4F05464879022816D188790C467A
:10437000022812D1DFF8BC92002699F80E0099F8B5
:104380002610F30703D111B101260028F9D143B15A
:10439000A9480068C00700D000BE002080B2BDE878
:1043A000FE8FA07889F8005004EB020A89F801001A
:1043B000207820440646504506D230783044504597
:1043C00002D871782429F5D0707805280BD12846B9
:1043D000314608F075FC002861D0B07889F80200F9
:1043E000307806447078042861D170790A285ED14B
:1043F00009F130004FF0000809F1240B3746029014
:1044000009F11800019009F10C0000903878574527
:104410004CD23179884549D23918514546D8487827
:10442000052846D1C8780F4600F00300022840D185
:104430002846394608F044FC002841D097F902008C
:10444000B0F1FF3F14DD89F82600B88889F82450C0
:104450006FF3DF20A9F8280028480078C00702D1B0
:10446000029807F00DFC584607F056FBA0B92EE065
:1044700089F80E00B88889F80C506FF3DF20A9F88E
:1044800010001E480078800703D4019807F0F8FB5D
:1044900002E0009807F09CFB08F10108B6E76648C7
:1044A0000068C0073FF479AF00BE76E73E18301BC6
:1044B00074E761480068C0073FF46FAF00BE6CE767
:1044C0005D480068C0073FF468AF00BE65E75A4822
:1044D0000068C0073FF461AF00BE5EE7B0B50748B3
:1044E000544C0025017804F118002560C1F38001C7
:1044F00007F0BAFCA57384F82650B0BD3100002047
:104500002DE9FF474B480C46984622468178857B2B
:1045100090F82630611AB1FA81F14909002C18BFD0
:104520000122E31A651B11400022B3FA83F3B5FAA6
:1045300085F55B096E0915461A4332430A43D207D3
:104540004FF00102F7D015F0010105D03A4800689C
:10455000C00769D000BE67E0C1F1000ABC211AFBA8
:10456000010797F82600844246D1F96A31B107F174
:1045700030001FFA88F2002307F07BFCF87A07F17D
:104580002409FF282DD007F13000694607F08EFB83
:10459000BDF8080040B1DDF80CE0DDF804C0BDF85E
:1045A00000300EEB000108E0BDF80030CBB1DDF8C3
:1045B00004C0DDF80CE00CEB03016344464686B111
:1045C000481EF97A0278914207D07045194602D008
:1045D0006045014605D0013EF1E75FFA8AF007F039
:1045E00089FD388F798F884203D05FFA8AF007F00F
:1045F00080FD484607F090FAB87B5FFA8AF684425D
:104600000CD1304607F10C0907F076FD484607F05B
:10461000DFFA18B94846414607F012FBB8788442E1
:1046200002D1304607F064FD0120A84304B0BDE884
:10463000F08700BF70080020F0ED00E08842D8BF8E
:1046400008469042A8BF104670470000022988BF64
:10465000704702A050F8210009F0DEBBA1EC000871
:10466000D3EC0008FBEC0008002108F029BF002172
:104670000022FBF713BE00210022FBF747BE50B11A
:1046800049B110B50446002004F1080C21602071E6
:10469000ACE80D0010BD0120704700002DE9F84F77
:1046A0008046002600270446CCB12068B8B1FBF74D
:1046B000BAFD0546606810B1FBF7B5FD00E00020CB
:1046C000AF42C8BF3D46A168002918BF2F468642A9
:1046D000C8BF3046002918BF06461034E4E720A0C2
:1046E00009F09AFB264809F097FB75427E422D4F50
:1046F000DFF894B028A40FF28C090FF2900AB8F1F9
:10470000000F27D0D8F8002022B3D8F80800B8B19D
:104710004846314608F042FED8F804005A4620B117
:104720000178002908BF584602465046294608F03D
:1047300035FED8F80C1039B1087828B115A001E081
:104740002046114608F02AFE384609F065FB08F1BC
:104750001008D4E7134809F05FFB0120BDE8F88F8B
:104760003C636F6D6D616E643E203C617267733EA9
:10477000203C68656C7020746578743E0D00000004
:1047800002EC0008252A730048F1000820252A734E
:104790000000000020257300202D2D2D20257320E2
:1047A0002D2D2D005EEC00082DE9F04F9BB0002868
:1047B00000F03D81002900F03A810446D0E902B0C2
:1047C00015465A44824280F0348120682A46584473
:1047D000FBF7EDFCA0684FF0000A002300262844F8
:1047E000A0600AA904310691834580F024812168E4
:1047F00011F80B90B9F10A0F05D0B9F10D0F02D0E5
:104800000BF1010BF0E701F80BA05B4500F0FE8017
:1048100020682169C518CDE90831284629460A785B
:10482000082A03D03AB100F8012B02E0A84288BF61
:1048300001380131F3E7854980F800A028461AAA1B
:1048400006F0F7F9002800F0E080DDF824A0074624
:104850000796BAF1000F12D0DAF80060002EB046C9
:1048600018BF4FF0010812D0DAF8080020B138461E
:104870003146FBF7FEFCD0B10AF1100AE9E70998CE
:1048800080B3079E4FF000084FF0000A06E00120B9
:104890000999079E4FF0000A29B120B128466CA162
:1048A000FBF7E7FCC8B1B8F1000F1ED0ADE06749D7
:1048B0000A9600201AAA002606F0BBF90127E0B1EB
:1048C0000AA90F2F41F8270036D0604900201AAA04
:1048D00006F0AFF901360137F1E70998FFF7DEFE80
:1048E00018B192E0079E4FF0000A002F00F08D8073
:1048F00038460021FFF7AAFE87E0DAF80400002816
:1049000070D001783F2902D1417800296AD0039004
:10491000FBF789FC029003982A21FBF77AFC68B127
:10492000DDE9022E0EEB02010139884266D1012A2F
:1049300064D0901E009005E0012160E0029ADDF84D
:104940000CE000920EEB020000234FF02E0C0190C1
:10495000002E44D0934205DA1EF803002A2818BF1F
:10496000844604E0019810F8010C2A2846D1ACF1E5
:104970007300022104280CD8CDE904C3DFE800F05D
:10498000033F20101D0006980421012250F8230047
:104990001BE0BCF1620F1FD0BCF1660F1CD02EE0F3
:1049A0000698002250F8230008F00BFA0221DDE9F6
:1049B00004C3DDE9022E78B921E00698042101E064
:1049C0000698012150F82300002208F0FAF9DDE9E9
:1049D00004C3DDE9022E88B1013E0133B8E7009837
:1049E00087420BDDDAF8082038460AA99047DAF842
:1049F00000000027B0FA80F0400949E7022128466C
:104A0000FFF724FE079E4FF0000A089BB9F10A0F3A
:104A100008BF5B4507D00136A0680BF1010B84F895
:104A200004905B46E0E620790D28F5D0F3E7FF26F9
:104A300008E0FE2606E02BB1C21A2068A260C11869
:104A4000FBF7B5FB70B21BB0BDE8F08F60EC00085F
:104A500068656C700000000080B507A008F09EFC3F
:104A600004F0FAFD18B1BDE8804004F015BC05481B
:104A7000BDE8804009F0D0B9434C525F53544154D3
:104A8000533A2000B7EC0008F8B5FDF70EFAFDF731
:104A90004EF905460AA009F0BFF90C4F6E46AC422C
:104AA0000DD82046314605F007FA30B9009A38464D
:104AB000214608F073FC0134F1E704F0EDFBF8BD8A
:104AC00044554D505F524547533A0D0065EC000880
:104AD0001CB501A804F096FF044608A008F05EFC8F
:104AE0001CB1204604F0D8FB1CBD0198FBF725FE45
:104AF000024605A00B4608F051FC1CBD4745545F1B
:104B0000525353493A200000252E31662064426DED
:104B10000D0A0000E0B50EA008F040FC0DF1070002
:104B20000DF106010DF1050201AB04F0C3FD10B15A
:104B300004F0B2FB8CBD9DF804009DF805309DF893
:104B400006209DF80710009004A008F027FC8CBDFB
:104B50004745545F434849503A20000025642C25BE
:104B6000642C25642C25640D0A0D0A000248416856
:104B700002A008F013BC00BF7C1F00204745545F13
:104B800044455649443A2025640D0A0004484FF430
:104B90007A718068B0FBF1F102A008F0FFBB00BFA2
:104BA0007C1F00204745545F465245513A202575E9
:104BB0000D0A00001CB5054800F16004006F1ECC12
:104BC000CDE9004002A008F0E9FB1CBD7C1F0020DD
:104BD0004745545F4A414D504152414D533A20534D
:104BE000544152543D25642C53544F503D25642C60
:104BF000535445503D25642C54494D453D25642C66
:104C00004D4F443D25640D0A0000000010B50F4CC7
:104C10000FA0627B216908F0C1FB154808F0BEFBBC
:104C2000207D04289ABF144951F82000114809F04A
:104C3000F3F8124808F0B2FB617D4448424A01296A
:104C400008BF1046BDE8104009F0E6B87C1F002000
:104C50004745545F4D4F44504152414D533A200D0A
:104C60000A42573D25750D0A53463D25640D0A003D
:104C700023ED000898EC0008C4DE000827ED0008CA
:104C8000024890F8881002A008F088BB7C1F002022
:104C90004745545F504B54464F524D41543A20259E
:104CA000640D0A002DE9F041124DDFF87C8A12A054
:104CB0002A8BA97DEB7EC047A97E214E1F481E4A44
:104CC000012908BF1046B0471E48C047287F1F4C27
:104CD0001D4F0128204608BF3846B0471C48C04732
:104CE000687F3146012808BF3C462046BDE8F041B8
:104CF000084700BF7C1F00204745545F5041434B8D
:104D00004554504152414D533A0D0A53594E433D7B
:104D10003078253032582C5052455F4C454E3D2559
:104D2000640D0A5041595F4C454E3D25640D0A48BB
:104D300045414445523A0000E7EC0008F1EC000818
:104D400019DE000814ED0008BBEC0008B2EC000806
:104D500019ED00080248D0F88C1002A008F01EBB24
:104D60007C1F00204745545F5041495249443A2036
:104D700025640D0A00000000024890F90C1002A002
:104D800008F00CBB7C1F00204745545F504F57452F
:104D9000523A2025642064426D0D0A00BFB5094DCA
:104DA000D5F88400FBF7C9FCD5E91D4241EC100B96
:104DB000D5E91F3504A021468DED020B009508F0C2
:104DC000EDFABFBD7C1F00204745545F5343414E61
:104DD000504152414D533A2053544152543D256461
:104DE0002C53544F503D25642C535445503D25645D
:104DF0002C54494D453D25642C525353493D252E95
:104E000031660D0A00000000E0B50AA008F0C6FAFD
:104E1000684604F053FE10B104F03EFA8CBDBDF8B4
:104E20000430BDF80220BDF8001005A008F0B6FA65
:104E30008CBD00BF4745545F53544154533A200042
:104E4000504B543D25642C464552523D25642C4818
:104E50004552523D25640D0A00000000E0B50AA04D
:104E600008F09CFA0DF107000DF1060104F072FC48
:104E700010B104F011FA8CBD9DF806209DF80710C2
:104E800005A008F08BFA8CBD4745545F535441543C
:104E900055533A20000000003078253032582C302D
:104EA00078253032580D0A0080B505480068FBF7B8
:104EB00044FC024603A00B46BDE8804008F06EBAF1
:104EC0006C0800204745545F564241543A20252E35
:104ED00032660D0A0000000002A001210022012319
:104EE00008F05CBA4745545F56455253494F4E3A15
:104EF0002048573D25642C46573D25642E25640DDA
:104F00000A00000080B509A008F048FA0B480078B4
:104F100004289ABF0CA151F8200009A008F03EFA1D
:104F20007F48BDE8804008F077BF00BF4745545F29
:104F3000574F524B4D4F44453A200000610300202B
:104F4000554E4B4E4F574E009EED000841EE000867
:104F500050EE000849EE000850EF00081CB50DF1B6
:104F6000070004F0F3FD044606A008F017FA1CB190
:104F7000204604F091F91CBD9DF80710054808F083
:104F80000DFA1CBD4745545F584F5452494D3A20C5
:104F900000000000B4F0000880B5FFF779F8024681
:104FA00002A00B46BDE8804008F0F8B94745545FC1
:104FB0005549443A203078256C6C580D0A000000A1
:104FC0009B480349034B4FF40072FFF758BB00BFE7
:104FD0004812002034000020B0B50DA00C4608F0A7
:104FE000DDF96068FFF747FB0546A068FFF743FB64
:104FF000AAB2C1B2104604F00BFE18B1BDE8B04031
:1050000004F04AB99748BDE8B04008F005BF00BFBA
:10501000494E49545F434F4E4649473A20000000ED
:10502000BCB5FCF7BEFD044613A008F0B7F9E24D8D
:1050300005F160030FCB64B195F87040009405F062
:1050400063FA58B907F0E4FCB64803210170B6488A
:105050000EE00024009405F057FA18B1BDE8BC40FA
:1050600004F01AB907F0CEFCAE4801210170B04837
:10507000BDE8BC4008F0D0BE4A414D3A20000000D7
:105080002DE9F84348681F4F0E46B8470546B068FB
:10509000B8470446F068B84706461BA008F07EF9FA
:1050A000E0B27E2888BF7E24E0B2310648BF7F266A
:1050B000F1B28142184898BF661C40F6D53115F010
:1050C000FC0F18BF03250088884214D1DFF85080F8
:1050D000EFB2F6B20FF24C09E5B2AE420DD338464C
:1050E0002946FDF7A1FA0346484639462A4608F004
:1050F00055F90134F0E7DFF824804046BDE8F84375
:1051000008F08ABE7746000850414E5F44554D5026
:10511000524547533A2000007C1F0020BFEC000896
:105120005EEC00080D0A25642C3078253032582CAE
:105130003078253032580000B0B5FCF7B6FEFCF7E9
:10514000F6FD05460FA008F029F9CB4840F6D53109
:105150000088884211D114F0FC0F18BF0324EDB26F
:10516000E4B229462046FDF75FFA03462748214668
:105170002A46BDE8B04008F011B92348BDE8B04068
:1051800008F04ABE50414E5F524541445245473AAD
:1051900020000000F8B54868164F0E46B847044690
:1051A000B068B8470546F068B847064612A008F050
:1051B000F5F8EB4840F6D5310088884214D114F058
:1051C000FC0F18BF0324EDB2F6B2E4B22946324612
:1051D0002046FDF7CEFC0D4821462A46334601B055
:1051E000BDE8F04008F0DAB80748BDE8F84008F03C
:1051F00013BE00BF7746000850414E5F57524954D6
:10520000455245473A200000BFEC000871EC000809
:10521000E0B5FDF7EDFD411E11F1030F07D88DF844
:10522000070003480DF107010122FFF7BDFA8CBD0D
:105230001821002080B507A008F0B0F804F0B4FCF5
:1052400018B1BDE8804004F027B80648BDE88040AA
:1052500008F0E2BD524144494F5F494E49543A205B
:1052600000000000B7EC00081CB5FCF79AFC0446EF
:1052700008A008F093F801A9204604F01DFE10B123
:1052800004F00AF81CBD019A0548214608F086F88A
:105290001CBD00BF524541445F5245473A200000C3
:1052A00065EC000880B503A008F0B6FDBDE88040BD
:1052B000FEF7F8BE52455345543A204F4B0D0000BF
:1052C000B0B5FCF76EFC044613A008F067F8144D67
:1052D00005F174030FCB5CB195ED210A04F060FE7B
:1052E00058B905F097FA0F48022101700E480EE0F8
:1052F0009FED0E0A04F054FE18B1BDE8B04003F073
:10530000CBBF05F081FA0748012101700848BDE8CC
:10531000B04008F081BD00BF5343414E3A20000029
:105320007C1F0020610300200DED0008000000003C
:10533000CDEC000870B548680C46FFF79CF90F4D9E
:105340002860286808B901202860A068FFF793F951
:105350000B4E3060E068FFF78EF90A49C1F88C0007
:10536000306863289CBF6420306005F095F832688F
:10537000296805A0BDE8704008F010B87C24002022
:10538000140300207C1F002053544152545F545892
:105390003A2025642C25640D0A00000010B5FCF7A6
:1053A00000FC054C606007F0D1FF616803A0BDE818
:1053B000104007F0F3BF00BF7C1F00205345545F2F
:1053C00044455649443A2025640D0A00B0B5486862
:1053D0000C46FFF750F904F09FFE05460BA007F0BE
:1053E000DDFF25B12846BDE8B04003F055BF606839
:1053F000FFF741F94FF47A71074A48439060B0FBD8
:10540000F1F106A0BDE8B04007F0C8BF5345545FB6
:10541000465245513A2000007C1F002025750D0A98
:10542000000000002DE9FE434868DFF848900E4672
:10543000C8478046B068C8470746F068C847054671
:105440003069C84704467069C8470B4905EB080234
:105450002B46974288BF3A46CDE900400867C1E92C
:105460001882C1E91A5405A0414607F097FFBDE82C
:10547000FE8300BF774600087C1F00205345545F21
:105480004A414D504152414D533A20535441525498
:105490003D25642C53544F503D25642C53544550A6
:1054A0003D25642C54494D453D25642C4D4F443DCC
:1054B00025640D0A000000002DE9F8434868234FD9
:1054C0000C46B8470646A068B8478046E068B8472B
:1054D00005462069B84704461DA007F05FFFB6B235
:1054E0005FFA88F7EAB2E3B23046394604F0C6FE06
:1054F00018B1BDE8F84303F0CFBEDFF8649019A0FF
:1055000031463A4689F8154089F8145089F80D80DB
:10551000C9F8106007F042FF174807F03FFF99F8FD
:10552000140004289ABF164951F82000134808F0C7
:1055300073FC144807F032FF99F8150001280CBFDE
:105540007D487E48BDE8F84308F066BC7746000811
:105550005345545F4D4F44504152414D533A200002
:105560007C1F00200D0A42573D25750D0A53463D0C
:1055700025640D0A0000000023ED000898EC0008E7
:10558000C4DE000827ED000810B5FCF70AFB04464E
:1055900008A007F003FF0A48007804F0B5FE18B130
:1055A000BDE8104003F078BEE1B206A0BDE81040AF
:1055B00007F0F4BE5345545F4F504D4F4445200013
:1055C000651D002025640D0A0D0A000080B5FCF75A
:1055D000E8FA80F30201044880F8881003A0BDE8CF
:1055E000804007F0DBBE00BF7C1F00205345545FA6
:1055F000504B54464F524D41543A2025640D0A00F9
:105600002DE9F04F85B04868344E0D46B047074647
:10561000A868B0470446E868B04781462869B047A3
:1056200083466869B0478246A869B0478046C0B2E1
:105630005FFA8AF1FDB2A6B25FFA8BF3CDE90010F2
:1056400004975FFA89F72846314603944C463A4658
:1056500004F08EFE814622A007F0A0FEB9F1000FF3
:1056600005D0484605B0BDE8F04F03F015BEDFF8A1
:1056700084900398294632463B46A9F818000498BE
:1056800089F81B40284C89F81D8089F81CA089F8EE
:105690001AB089F8160018A0A04799F81A102448E3
:1056A000224A012908BF104608F0B6FB2148A0474E
:1056B00099F81C10D848204A012908BF104608F064
:1056C000ABFB1F48A04799F81D0001280CBF1A48E2
:1056D000D14805B0BDE8F04F08F09EBB7746000802
:1056E0005345545F5041434B4554504152414D53F3
:1056F0003A2000007C1F00200D0A53594E433D30D4
:1057000078253034582C5052455F4C454E3D256429
:105710000D0A5041595F4C454E3D25640D0A4845E0
:10572000414445523A0000009DD30008E7EC0008D0
:10573000F1EC000814ED0008BBEC0008B2EC000826
:1057400019ED000810B5FCF72CFA064CC4F88C00D3
:1057500007F0FCFDD4F88C1003A0BDE8104007F062
:105760001DBE00BF7C1F00205345545F504149526D
:1057700049443A2025640D0A0000000070B54868CD
:10578000FEF775FF44B20546204604F013FD0646B9
:1057900008A007F003FE26B13046BDE8704003F0D4
:1057A0007BBD07482146057306A0BDE8704007F0A1
:1057B000F5BD00BF5345545F504F5745523A200046
:1057C0007C1F002025642064426D0D0A000000004B
:1057D0002DE9FF414868234E0F46B0478046B86820
:1057E000B0470446F868B04705463869B0470646F2
:1057F0000A281D48D8BF0A268642A8BF06467869EF
:10580000FEF732FF05EB0807BFEE001A1748BC424F
:10581000B4EE410A88BF2746C0E91D87C0E91F567C
:10582000F1EE10FAC8BFB0EE410A9FED111AB4EEC6
:10583000410AF1EE10FAB8BFB0EE410A80ED210A3C
:1058400010EE100AFAF779FF41EC100B09A041465F
:105850003A462B4600968DED020B07F09FFDBDE802
:10586000FF8100BF77460008A08601007C1F002052
:105870000000FFC25345545F5343414E50415241D3
:105880004D533A2053544152543D25642C53544FA8
:10589000503D25642C535445503D25642C54494DAE
:1058A000453D25642C525353493D252E31660D0A42
:1058B00000000000B0B5FCF774F9C4B2204604F053
:1058C000A7FD054607A007F069FD25B12846BDE8FC
:1058D000B04003F0E1BC07482146BDE8B04007F006
:1058E0005DBD00BF5345545F584F5452494D3A2057
:1058F00000000000B4F0000806480178012911BF3B
:1059000005A0094900220A7004BF027007A008F030
:1059100083BA00BF5C03002053544F505F54583A81
:10592000204552524F520D005D03002053544F50FA
:105930005F54583A204F4B0D0000000080B508A07E
:1059400007F02CFD07F002FD20B140B2BDE8804019
:1059500003F0A2BC0648BDE8804008F05DBA00BF75
:1059600053544F52455F434F4E4649473A2000003B
:10597000B7EC000810B51AA00C4607F00FFD6068E0
:10598000FEF779FEC0B204F08FFD18B1BDE81040FB
:1059900003F082BC154800780138032817D8DFE8E7
:1059A00000F00211070C12480421017017A012E048
:1059B0000F48042101700FA00DE00D480421017073
:1059C00013A008E00A48042101700DA003E0084874
:1059D000012101701048BDE8104008F01DBA00BF59
:1059E00054585F53545245414D3A20006203002001
:1059F00061030020303130312E2E2E0D00000000CA
:105A0000505245414D424C450D00000043570D009A
:105A1000504E390D00000000B2EC0008B0B5FCF7A4
:105A200044FAFCF784F9054609A007F0B7FC2046C4
:105A3000294604F0CDFD18B1BDE8B04003F02CBC00
:105A4000064821462A46BDE8B04007F0A7BC00BF83
:105A500057524954455F5245473A200065EC0008CB
:105A60002DE9F041174DDFF8748A0446002600271F
:105A70006878411CC9B28F420DD2874203D2A86810
:105A8000B0B1304401E0404612D1C1682046884799
:105A900024360137ECE705F10C003721FAF7AEFBAD
:105AA00005F113002021FF22FAF7A1FBBDE8F081E8
:105AB00005480068C00701D1BDE8F08100BEBDE81F
:105AC000F08100BF28040020F0ED00E0BCB5FCF739
:105AD00041FB01200EA2FCF76BF80E4D287DFCF770
