:020000040800F2
:1000000078260020850100084F1A0008BF1100085B
:100010004D1A000843100008B73B0008000000001C
:10002000000000000000000000000000B1300008E7
:100030004510000800000000BD2D0008513B0008DD
:100040009F0100089F0100089F0100089F01000810
:100050009F0100089F010008891000089F01000807
:100060009F0100089F0100089F0100089F010008F0
:100070009F0100089F0100089F0100089F010008E0
:100080009F0100089F0100083F1000089F01000821
:100090009F0100089F0100089F0100089F010008C0
:1000A0009F0100089F0100089F0100089F010008B0
:1000B0009F0100089F0100089F0100089F010008A0
:1000C0009F0100089F0100089F0100089F01000890
:1000D0009F010008AD3B00089F0100089F01000838
:1000E0009F0100089F0100089F0100089F01000870
:1000F0009F0100089F0100089F0100080000000008
:10010000000000009F0100089F010008000000009F
:100110009F0100089F01000800000000000000008F
:100120009F0100089F0100089F0100089F0100082F
:1001300000000000000000000000000000000000BF
:1001400000000000000000000000000000000000AF
:100150009F0100089F0100089F0100089F010008FF
:100160009F0100089F010008AF3B00089F010008A5
:10017000DFF80CD000F0E2FC00480047C988000816
:10018000782600200648804706480047FEE7FEE73D
:10019000FEE7FEE7FEE7FEE7FEE7FEE7FEE7FEE737
:1001A000553B0008710100084FF0FF30704710B553
:1001B000431A934209D28318881803E010F8011DEE
:1001C00003F8011D521EF9D210BD40EA01039B073E
:1001D00003D009E008C9121F08C0042AFAD203E0BC
:1001E00011F8013B00F8013B521EF9D210BDD2B20A
:1001F00001E000F8012B491EFBD270470022F6E710
:1002000010B513460A4604461946FFF7F0FF20468C
:1002100010BDCAB2401E10F8011F8A4202D0002948
:10022000F9D100207047421C10F8011B0029FBD1B6
:10023000801A704730B503461D783DB10A4612F862
:10024000014B1CB1AC42FAD15B1CF5E7181A30BD6A
:1002500030B50546002008E00A4602E0A34207D078
:10026000521C1378002BF9D1401C2C5C002CF3D1CC
:1002700030BD2DE9F0410E460546002400E0641C27
:10028000285D00F00EFB0746305D00F00AFB381ACF
:1002900002D1295D0029F2D1BDE8F0812DE9F047B6
:1002A00091460F4680460446002614F8015B2DB1A6
:1002B00000F0EAFA0068405DC007F6D12B2D02D0AD
:1002C0002D2D18D0641E4A463946204600F0EFFA1C
:1002D00027B13968A14201D1C7F8008071054FF0FC
:1002E00002040BD54042002803DD0DF01FF8046026
:1002F000A007BDE8F08746F48066E4E70028F8DA56
:100300000DF014F804606FF00040F2E72DE9F05FA3
:1003100093460F468046044600260DF007F8D0F8B5
:100320000090824614F8015B2DB100F0ADFA006830
:10033000405DC007F6D12B2D02D02D2D1AD0641EA2
:100340000021CAF800105A463946204600F0AFFA9C
:10035000014627B13868A04201D1C7F80080DAF819
:100360000000022809D0CAF80090700505D548425F
:10037000BDE8F09F46F48066E2E70846F8E72DE91D
:10038000FE4F804681EA0300C00F0C46009021F02A
:10039000004123F00045B8EB0200A94105D24046D8
:1003A000214690461C460B46024623F0004010436F
:1003B00047D0270DC7F30A00C3F30A510290401A31
:1003C000019040286BDAC3F3130040F4801B0098BF
:1003D000924620B10023D2EB030A63EB0B0B01988A
:1003E0005946C0F14002504600F01DFA06460D463F
:1003F00050465946019A00F035FA10EB0800614169
:10040000002487EA115284EAE7731A4340D0009A25
:1004100062B3019A012A4FEA075215DC001B61EB17
:1004200002014FF0004202EA0752CDE90042001CEF
:1004300041F5801132462B4600F0D2FA03B0BDE8F8
:10044000F08F40462146F9E7001B61EB0201001CDA
:1004500041F5801300185B412018A2F5001747EB07
:10046000030140EAD570B6196D4111E06D084FEAFD
:10047000360645EAC0754FEA0752001B61EB0201E0
:10048000001C41F5801149084FEA30000019514124
:1004900032462B4603B0BDE8F04F00F092BA009808
:1004A000012240000023D0EB020263EBE0730098CE
:1004B00021464FEAE074B8EB000061EB0401E9E784
:1004C00083F000435BE781F0004158E72DE9FE4FE0
:1004D00081EA030404F0004421F0004100944FF04D
:1004E000000B23F0004350EA01045ED052EA0304FB
:1004F0005BD0C3F30A54C1F30A552C44A4F2F3347D
:100500000194A0FB0254C1F3130141F48011C3F321
:10051000130343F4801301FB024400FB034E840ADF
:10052000970A44EA815447EA8357A4FB0768029577
:100530008D0A05FB07854FEA932C04FB0C54270515
:10054000029D4FEA065847EA1637B5EB08056EEBF1
:10055000070C870E920E47EA811742EA8312A7FB27
:100560000201B6EB0B0164EB00042B0D43EA0C33E4
:100570005E1844EB1C50DA465146E7FB0201C5F316
:1005800013044FEA0B3343EA14534FEA0432019C3D
:1005900043EA0603A4F10C040294009CCDE900B4E4
:1005A00000F01EFA03B0BDE8F08F00200146F9E725
:1005B0002DE9F04D81EA030404F0004B21F00045E1
:1005C00014464FF0000A23F0004150EA050220D003
:1005D00054EA01021DD0C5F30A570246C5F31303BE
:1005E000C1F31300C1F30A5640F4801543F480139D
:1005F000A7EB0608101BD64608F2FD3873EB050082
:1006000002D308F1010801E092185B41B8F1000F34
:1006100003DA00200146BDE8F08D00204FF4801180
:10062000064684460EE0171B73EB050705D3121B25
:1006300063EB050306434CEA010C49084FEA30001E
:1006400092185B4150EA0107EDD152EA030012D043
:1006500082EA040083EA0501084305D0101BAB4180
:1006600006D20122002306E000224FF0004302E000
:100670006FF0010253101AEB06004CEB085110EB1F
:100680000A0041EB0B01BDE8F04D00F09AB90EB540
:10069000C10F80EAE0700844CA07002140F23343EA
:1006A0008DE80E000A460B4600F09AF903B000BD33
:1006B0000EB540F2334102910021CDE900110A4606
:1006C0000B4600F08DF903B000BD70B5C1F30A52BE
:1006D00001F000450024C1F3130140F2FF3341F45F
:1006E00080119A4201DA002070BD40F233439A42F1
:1006F000A2F2334203DC524200F0A4F800E0904042
:100700002C43F1D0404270BDC1F30A5210B5C1F381
:10071000130140F2FF3341F480119A4201DA0020C4
:1007200010BD40F233439A42A2F2334203DC5242FC
:1007300000F088F810BD904010BD00F0004230F08D
:1007400000400AD0C10D01F56071C0F3160042EA05
:100750000151C2084007114370470020014670470D
:1007600001F0004330B421F0004150EA010206D00C
:100770000A0DA2F56072C1F31301002A02DC30BC3D
:1007800000207047440F44EAC104C100E01830BCA7
:1007900000EBC25000F0DEB830B50B460146002039
:1007A0002022012409E021FA02F59D4205D303FA33
:1007B00002F5491B04FA02F52844151EA2F10102B4
:1007C000F1DC30BD2DE9F05F0546002092469B46E6
:1007D00088460646814640241BE028464146474657
:1007E000224600F02FF853465A46C01A914110D3C2
:1007F00011461846224600F016F82D1A67EB01083C
:100800004F4622460120002100F00DF817EB0009A9
:100810004E41201EA4F10104DFDC484631462A4641
:100820004346BDE8F09F202A04DB203A00FA02F19B
:10083000002070479140C2F1200320FA03F31943CE
:1008400090407047202A04DB203A21FA02F0002170
:10085000704721FA02F3D040C2F1200291400843D0
:1008600019467047202A06DBCB17203A41FA02F0DE
:1008700043EAE07306E041FA02F3D040C2F12002FD
:1008800091400843194670470048704708DE000849
:1008900010B50446FFF7F8FF0068005D00F00100A6
:1008A00010BDA0F14101192900D8203070472DE971
:1008B000F05F82460078002715468B460AF1010456
:1008C000B946302801D09DB113E014F8010B01277F
:1008D000782803D0582801D045B10AE00DB1102D79
:1008E00007D10027102514F8010B02E0082500E0CD
:1008F0000A250026B0460EE005FB080005FB06F1C0
:10090000012701EB10461FFA80F8B6F5803F00D3AF
:10091000B94614F8010B294600F028F90028EBDA53
:10092000BBF1000F05D00FB1641E00E05446CBF8B8
:100930000040B9F1000F06D00CF0F8FC0221016074
:10094000C81EBDE8F09F48EA0640FAE700230360AE
:1009500000F039B90029A8BF7047401C490008BF02
:1009600020F00100704710B4B0FA80FC00FA0CF0DF
:1009700050EA010404BF10BC704749B1CCF1200417
:1009800021FA04F411FA0CF118BF012121430843A4
:10099000A3EB0C01CB1D4FEA00614FEA102042BFD0
:1009A000002010BC704700EBC35010440029A4BFC6
:1009B00010BC7047401C490008BF20F0010010BC6B
:1009C000704710B5141E73F1000408DA401C41F1A1
:1009D000000192185B411A4301D120F0010010BDC3
:1009E0002DE9F04D92469B4611B1B1FA81F202E039
:1009F000B0FA80F220329046FFF715FF04460F460A
:100A000040EA0A0041EA0B0153465A46084313D014
:100A1000114653EA010019D0C8F140025046FFF7D1
:100A200011FF05460E46504659464246FFF7FBFE6B
:100A3000084305D0012004E020463946BDE8F08D8A
:100A40000020054346EAE0762C4337430A986305C5
:100A5000E40AA0EB08000022FD0A44EA47540A30E9
:100A600002D500200146E9E7010510196941DDE9D9
:100A7000084500196941BDE8F04DA2E770B521F0C5
:100A8000004303430CD0C1F30A550024D5EB040501
:100A900064EB0403D617AD1AB34102DB0020014614
:100AA00070BD201841EB025170BDC1F30A52C1F371
:100AB000130140F2FF3341F480119A4202DA002020
:100AC0000146704740F233439A42A2F2334202DCBD
:100AD0005242FFF7B7BEFFF7A6BE000030B5041EB6
:100AE00071F1000404DB4FF00044404264EB01016B
:100AF000141E73F1000405DB1C464FF00043524204
:100B000063EB04038B4208BF824230BD30B5041E44
:100B100071F1000404DB4FF00044404264EB01013A
:100B2000141E73F1000405DB1C464FF000435242D3
:100B300063EB0403994208BF904230BD1CB50948DD
:100B40000090094801900546009C06E0E06840F0EE
:100B5000010394E8070098471034AC42F6D3FFF73E
:100B60000BFB0000ACF10008CCF100083A2800D2E1
:100B7000303820F02002412A01D3A2F13700884208
:100B800001D34FF0FF3070470FB40B0010B58AB09F
:100B90000FA900910E994FF00004234ACC60214C1C
:100BA000CDE9064200D004236FF00042CDE90132C6
:100BB0001E4A089202466B46002000F0CDF80AB0AB
:100BC00010BC5DF814FBF0B585B007464FF0FF3060
:100BD0000091CDE901011E46002015460C46049007
:100BE0003B466A46314604A8FFF7CEFF0499034608
:100BF000601825B109B1024600E022462A600029AA
:100C00000ED0002B02DD0099814209D00094001B18
:100C1000CDE901043B466A46314604A8FFF7B4FF1C
:100C200005B0F0BD910F0008AF0F00089108000853
:100C30002DE9FF4F087883B09946FF2805D0491C5D
:100C40002D2804D00024002008E000200BE001241F
:100C5000F9E700EB800003EB4000491C0B78FF2B09
:100C6000F7D104B1404200230293147819461D467F
:100C70002D2C01D02B2C04D1521C2D2C13D0002450
:100C80000294AA461478FF2C0FD00A25A3FB0578FE
:100C900001FB05814FF0000C03FB0C11521CE31902
:100CA0004AEB0101EEE70124EAE7814453EA01003F
:100CB00002D019F5C87F06DA03980021C0E90011B7
:100CC00007B0BDE8F08F0025AE4E2F46DFF8B882A2
:100CD000184600F07DF9CDE90001B9F1000002DA13
:100CE000C9F1000400E004460023A74A1AEB030BF5
:100CF00042EB045A12E0E00707D02A463346384652
:100D00004146FFF7E3FB074688462A46334610462E
:100D10001946FFF7DBFB05460E466410002CEAD1AE
:100D2000DDE90001B9F1000F5A46534606DAFFF734
:100D30003FFC3A464346FFF73BFC05E0FFF7C6FBA6
:100D40003A464346FFF7C2FB029A0AB181F00041DE
:100D5000039AC2E90001B3E72DE9FF4F1F468DB0AA
:100D6000D7E901464FF0FF382E2045464FF00009E5
:100D70000B90B9696D1C0E988847396A824688477E
:100D80000028F6D1BAF1FF3F0AD024F4D064002E37
:100D900011DDBAF12B0F08D0BAF12D0F0BD102E003
:100DA000404611B08DE744F48064B9696D1C0E981B
:100DB00088478246761E6946600501D52D2000E0F1
:100DC0002B208DF8000001F1010B0DF1200809E046
:100DD000B9696D1C0E98884782460F9844F40074D8
:100DE000761E0560002E02DDBAF1300FF0D00B99AF
:100DF0008A453ED144F0800406E00F99681CA9F1B1
:100E0000010944F400740860B9696D1C761E0E98DF
:100E1000884782463028F0D02BE00B998A4505D1CF
:100E2000200603D444F08004761E18E050460CF0EF
:100E3000F3FB08B30DF11302761EAAF1300044F45F
:100E40000074934506D20BF8010B200607D5A9F1D3
:100E5000010003E0200602D409F101008146A0054B
:100E600002D50F99681C0860B9696D1C0E988847F7
:100E70008246002ED1DC53E0002E51DDBAF1650F21
:100E800002D0BAF1450F4BD1A00549D5B9696D1C07
:100E900024F44074761E0E9888478246002E0CDD9E
:100EA0002B2804D0BAF12D0F07D144F48074B9690E
:100EB0006D1C0E9888478246761EE00501D52D21CF
:100EC00000E02B2108F8011BCDF82C8021E00DF16A
:100ED0002901761E44F4007488450CD2AAF1300032
:100EE00010F0FF0088F8000002D10B99884509D95D
:100EF00008F1010806E0E00501D5244801E042F2CE
:100F00000F708146B9696D1C0E98884782460F980C
:100F10000560002E04DD50460CF07EFB0028D6D183
:100F2000F9690E988847FF208BF8000088F80000C8
:100F30000020069007904B466A4608A906A8FFF7CE
:100F400077FEA00502D46FF001002AE714F0240F09
:100F50000AD0E00714D1DDE906123868031D3B60B2
:100F60000068C0E900120BE0DDE90601FFF7F8FBBD
:100F70000146E00704D13868021D3A60006801604C
:100F800028460EE7000014400000F03FF1D8FFFFB4
:100F9000426842B1016811F8013B23B1521EC0E919
:100FA0000012184670470121C160881E70474268D0
:100FB0005AB1C368016843B983688B4205D0491EA2
:100FC000521CC0E90012002070474FF0FF307047FC
:100FD0000EB540F2334202920022CDE900221346C0
:100FE000FFF7FEFC03B000BD70B58C1810F8015B74
:100FF00015F0070301D110F8013B2A1106D110F8B2
:10100000012B03E010F8016B01F8016B5B1EF9D1B5
:101010002B0705D40023521E0DD401F8013BFAE73B
:1010200010F8013BCB1A921C03E013F8015B01F8A6
:10103000015B521EF9D5A142D8D3002070BD02F049
:101040002FBEFEE7704700001CB5012408A2002057
:1010500020211023009400F087F80A482021102353
:10106000009400F10B02002000F07EF81CBD00BFD0
:101070002020202020202020202020202020202070
:10108000000000003C03002080B5012005F0C0FFF7
:10109000012818BF80BD012005F0B6FFBDE88040E3
:1010A00008F0E8BD2DE9F84FC0F3C01440B2102B92
:1010B00020EAE0760A9801EB4409A2F1200126D04B
:1010C000082B4BD1264A00284FF00000C9B24FF040
:1010D000000B08BF4FF0FF305FFA80FA02EBC10847
:1010E000BBF1080F3AD018F80B1009EB0B000027E2
:1010F000C4B281EA0A05082F06D005FA07F1F019F3
:1011000000F023FE0137F6E70BF1010BE8E70027BB
:10111000C9B200284FF000004FEA011808BF4FF095
:10112000FF305FFA80FB102F18D00E4A48EA070103
:1011300009EB07004FF0000AC4B2515C81EA0B05CD
:10114000BAF1080F08D005FA0AF106EB0A0000F020
:10115000FCFD0AF1010AF3E70137E4E7BDE8F88F87
:1011600022DE00081AE100082DE9FC47DDF828809E
:101170001C4691460E460746102B06D0082C18BF79
:10118000BDE8FC874FF0060A01E04FF0080A002591
:10119000E8B219F8002072B1F8B2F1B22346CDF8E6
:1011A0000080FFF77FFF5744F8B2782884BF2644B9
:1011B00000270135ECE7BDE8FC4701F077BEFEE70C
:1011C000B0B5064D72B66C780CB105F067FC002026
:1011D000687003A0005D62B6B0BD00BF18030020B8
:1011E000003132334134353642373839432A3023DF
:1011F00044400000FEB501AC204606F04DF800204A
:101200004A4D184E022721468DF8080041F204008D
:101210008DF80B70ADF809004FF48050019028460E
:10122000B0474FF4005000F0BFFC4FF4804000F096
:10123000BBFC4FF4004000F0B7FC01F0FFFD1820AC
:1012400021460197ADF809002846B047042000F078
:10125000ABFC4FF4806000F0A7FC4FF4006000F09E
:10126000A3FCFEBDE97200082DE9F04701F0E6FDA0
:101270002D4D2E4928788A46032805D82CA131F80F
:101280001010504606F004F84FF000092AA70FF29C
:10129000B0080026042E21D037F81610504606F06C
:1012A00077F8B0FA80F14A09297805EB81033344D5
:1012B0001C79944202D183F814900DE01C7D013416
:1012C0001C75E4B2142C07D31A7183F8149018B962
:1012D00008EB8100805D68700136DBE7287801301B
:1012E000C1B2032988BF002028705046082106F0AB
:1012F0004FF8B0FA80F1AA7849098A4203D1002058
:10130000E870BDE8F087EA780132EA70D2B2142AB8
:1013100003D3A9700021E97008B1BDE8F08711205E
:101320006870BDE8F08700BF18030020000C014082
:1013300000100020004000800200040000040008AB
:101340000102030405060708090A0B0C0D0E0F1015
:10135000E0B501AB00200021002206F013FDAD49ED
:10136000002006F0DDFC0198410702D50649012264
:101370000A70010702D5054901220A70000602D54C
:101380000348012101708CBD5F1A00205E1A002005
:101390004019002010B504460020214606F0FCFA52
:1013A00048B90D480E490D4A844238BF1146002005
:1013B00006F0DAFA00B110BD0A480B490B4A844224
:1013C0000B4838BF0A460B49844228BF114600200B
:1013D000BDE8104006F0FABA00B33F7146EB0008D2
:1013E00038EB0008009435776CE7000858E70008F0
:1013F0000046C32344E7000810B5072842D8DFE8B9
:1014000000F0042A161C0D323A2320480024002143
:1014100000220470002006F043FD34E01B48042144
:1014200000F0DDFB6FF07F4106F024FB2BE0174856
:10143000022100F0D4FB012112E01448032100F046
:10144000CEFB06F017FD1EE01048072100F0C7FB99
:1014500006F055FB17E00D48012100F0C0FB00210C
:1014600006F03BFD0FE00948052100F0B8FB002124
:1014700006F034FB07E00548062100F0B0FB06F05B
:1014800034FB00E00424204610BD00BF5D1A00209C
:1014900070B586B05D48CDF80E005D48CDF80A0005
:1014A000002006F0B2FCB0B94FF4FA7005F0D2FAA1
:1014B000002006F037FD70B90020012106F0E4FCA1
:1014C00048B90DF10A01002006F0A1FC18B900206E
:1014D00006F01CFC08B106B070BDCD4DA87F38B138
:1014E000002002214FF4A07206F003FD0028F2D183
:1014F0000A2005F0AFFA00200021012206F0F6FBD9
:101500000028E8D1434C0020214606F009FC0028C1
:10151000E1D10020012106F0E0FC0028DBD10A2007
:1015200005F098FA0DF11601002006F013FC0028D2
:10153000D1D1002006F0EAFB0028CCD100203F21C9
:1015400006F0B7FB0028C6D1002006F0DFFB00281C
:10155000C1D10020214606F0E3FB0028BBD10DF1EC
:101560001201002006F036FC0028B4D10020022130
:1015700006F006FA0028AED1288A002100220023B6
:1015800000F04CF80028A6D1298BA87DAB7EEA7E1E
:101590002C7F6E7FCDE9004600F07EF800289AD1BE
:1015A000A868FFF7F7FE002895D195F90C100020E8
:1015B000002206F0B6FA00287FF48DAFA86816491D
:1015C000B0FBF1F0C1B20230C2B2002006F07DFBE8
:1015D00000287FF480AF00208C21002206F02AFC36
:1015E00000287FF478AF0020022106F04AFA002894
:1015F0007FF471AF0020002106F0F8F800287FF496
:101600006AAF0420FFF7F8FE002064E70100040041
:101610001F000203FCCFFF0B00093D000C2801D284
:10162000082129E0112801D2012125E0162801D244
:10163000092121E0212801D202211DE02B2801D21D
:101640000A2119E0402801D2032115E07E2801D2A9
:10165000042111E0CD2801D20D210DE0FC2801D29A
:10166000052109E0B0F5CC7F01D20E2104E00F2165
:10167000B0F5FB7F38BF0621E0B565488DF8051051
:10168000417B808AADF806008DF8041001A9002086
:1016900006F03CF98CBD00BF1CB504460598ADF8BA
:1016A00002100DF102018DF805208DF804308DF83F
:1016B000070004988DF80600002006F033F900B109
:1016C0001CBD0020214606F043F91CBDB0B58CB00E
:1016D000002006F0F3FFC0B94B484C4901230A90A3
:1016E0000AAA002006F0EFFE78B90020022107F0D8
:1016F00011F850B90020002106F051FF28B90DF172
:101700002601002006F091FF08B10CB0B0BDBDF875
:10171000260020B1002006F04EFF0028F5D1002061
:101720006FF4784106F051FF0028EED100F06AFA1C
:101730000028EAD1002009218C2206F0D4FF0028DD
:10174000E3D10020002106F01EFF0028DDD100F0CB
:1017500059FA0028D9D1002009214FF4980206F047
:10176000C2FF0028D1D10020002106F00CFF002884
:10177000CBD103AC18212046FEF740FD214600F0F6
:101780002FF900202146032206F09CFC0028BCD142
:101790000DF12E01002006F080FF0028B5D10020B9
:1017A000002106F0F5FC0028AFD1194CA06800F02C
:1017B00031F80028A9D1207B0322400041B200204B
:1017C00006F053FD0028A0D10020022106F02FFDD5
:1017D00000289AD1617B227D637D208A00F044F845
:1017E000002892D1218BA07DA37EE27E257F647F9D
:1017F000CDE9005400F086F800287FF486AF04207D
:1018000000F09AF8002080E7CCCC2C004C0080003F
:10181000741C002010B504460020214606F0CFFCC1
:1018200000B110BD0D48844208D80E49002006F0D2
:1018300091FC0028F5D10020002107E00849002094
:1018400006F088FC0028ECD100200121002206F0DF
:10185000D6FC0028E5D1002010BD00BFFFC99A3B8F
:101860003CEB000841EB0008BCB5092801D200247C
:101870003BE00C2801D2082437E0112801D20124D2
:1018800033E0162801D209242FE0212801D20224B6
:101890002BE02B2801D20A2427E0402801D2032480
:1018A00023E0552801D20B241FE0672801D20C2425
:1018B0001BE07E2801D2042417E0CD2801D20D249C
:1018C00013E0FC2801D205240FE0B0F5CC7F01D253
:1018D0000E240AE0B0F5FB7F01D2062405E040F2B9
:1018E0002E350724A84238BF0F248DF807308DF815
:1018F00006208DF804108DF8054001A9002006F09F
:1019000069FDBCBD1CB504460598ADF802100DF18B
:1019100002018DF805208DF804308DF80700049839
:101920008DF80600002006F075FD00B11CBDE1B287
:10193000002006F08FFD1CBD1CB5042409284BD8DF
:10194000DFE800F0051F11333A17272D4A452348D9
:1019500000240DF106010022ADF8064004700020BD
:1019600006F0E4FE38E01D48022100F000FA0121F3
:101970000CE01A48052100F0FAF9002106F06EFC8F
:101980002AE01648012100F0F2F9002106F0EEFEEF
:1019900022E01248062100F0EAF902211AE00F487D
:1019A000072100F0E4F9012114E00C48032100F0C4
:1019B000DEF906F0A5FE0FE00848042100F0D7F993
:1019C000002106F015FC002006F077FC04E000245E
:1019D0000020032106F05AFC20461CBD5D1A0020A1
:1019E00010B5002008A20C2808BF10BDA0F1080304
:1019F0001458B3FA83F35B0901F8103001EB40038C
:101A000004305C60EFE700BF80A1031C60C37E353B
:101A100040B47E91E0B501A9002006F0F0FD0198E8
:101A2000010302D5064901220A70410302D5054986
:101A300001220A70400202D50348012101708CBDC9
:101A40005F1A00205E1A002040190020FEE7704750
:101A5000B0B50446FFF7B4FB88B3302801D339286A
:101A60000DD9232830D044281AD043282AD02A2838
:101A700025D13B48017881F0010101701BE0384914
:101A80004A78082A19D8012A04D10B4613F8024FC4
:101A9000302C03D0531C4B7011448B1C18700AE07F
:101AA0002F48417849B101394170090604BF43F21A
:101AB0000101A0F8011001F09DF9FFF7C5FA00201F
:101AC00040B2B0BDFF20FBE7254800224378811CCF
:101AD00043B111F8015B02EB8202013B05EB4202CC
:101AE000303AF5E70078002818BF52422260012002
:101AF000E6E700BF7FB500221949B0F1FF3F0A7049
:101B000005DD38B943F20100A1F8010021E001220E
:101B100040420A7000220A240DF1060360B1B0FBB6
:101B2000F4F505EB8506A0EB4600D6B2013240F095
:101B3000300098552846F1E74FF0FF308C1C50FAE2
:101B400082F0451C04D01D5C013804F8015BF8E705
:101B50004A7001F04FF9BDE87F40FFF775BA00BF4A
:101B60003C030020012103F0E1BF99F8035099F8EC
:101B7000047099F8058099F806904FF01C10012127
:101B800004F07AB80725A34005FA04F40C250A29C5
:101B90007047206840F0400020604FF0804005F022
:101BA000A7BA486802F047BD214601902846304751
:101BB0001021102300900020FFF7D6BA2A460823F0
:101BC000CDF800B0304722460823CDF800B050478A
:101BD000CDE90010F8B231462A462346704700246A
:101BE000017000207047002010211023CDF80080E4
:101BF000FFF7BABA0024017000207047002401707A
:101C000000207047002009210122022306F058BD60
:101C100003220023ADF80510002100917047032234
:101C20000023ADF805100021009170479846164634
:101C30000F46054605F08ABD8DF80F100023ADF85C
:101C40000B200A0A090C8DF80D1000218DF80E20CA
:101C500005220091704703220023ADF805100021F2
:101C600000917047204629464FF4702270479846ED
:101C700016460F46054606F0D1B90A20002100F0AD
:101C800068BF0C46002102228DF80C1002911D2124
:101C9000ADF80610052100917047984616460F468C
:101CA000054609F0F7BBC0B208F09ABE14460D46CF
:101CB000064601F0B1BC022200238DF80610002177
:101CC00000917047984616460F46054609F09CB8A5
:101CD00000F0FE002070207800F0FB0020707047BC
:101CE000013104F01F05C4F3421403FA05F540F86E
:101CF00024507047681E4FF46161C0B200FB06407B
:101D000017FB0100C8EB081100EB81004844704745
:101D100000BF00BF00BF00BF00BF00BF00BF00BFCB
:101D200000BF00BF70474FF4801005F0E1B90446D2
:101D3000A86802F080BC00202021082300952047DD
:101D40008DED001B8DED020B7047C9B2C0B2CA0900
:101D5000214601F059B940F261410088884270473C
:101D6000002010211023CDF80090FFF7FDB90024CA
:101D700001700020704702220023ADF806100021F8
:101D80000091704717F8011B284605F08FBF03220A
:101D90000023ADF805100021009170478DF80F2049
:101DA0000023ADF80910110A8DF80E10110C8DF8F2
:101DB0000D10110E07228DF80C10002100917047B4
:101DC00017F8011B284606F0DBBB14460D4600F051
:101DD00059BD17F8011B284609F050BD8DF80700C2
:101DE000204609F043BA17F8011B284609F006BA45
:101DF00001F00F0004EB400000EBD11414F8330F96
:101E0000C0077047BFF34F8FBFF36F8F70472268D3
:101E100042F00102226070470823009628470078AC
:101E20002870022008F028BA03F00F0343EA0212D8
:101E300070470090204609F008B82246102300960B
:101E4000384700EE101AB8EEC00A7047022200238D
:101E5000ADF80610002100917047012309F020BD64
:101E6000BDF8041009BA090C21801CBD019801219C
:101E70004EF6602202F0C2BB012309F0F7B90190CF
:101E800004F076BE00202821082300952047012376
:101E900009F011B8A0F131012070042970470190B8
:101EA00004F094BF012103F0E7BE48680D4602F03C
:101EB000C2BB0020102108230095204708F10C0523
:101EC00031CDFEF73ABC384631462A4623467047A4
:101ED000BDF8081009BA090C2180BDF80A1009BA2A
:101EE000090C6180BDF80C1009BA090CA18070477B
:101EF000130A8DF80E30130C120E8DF80C2070475B
:101F0000002105F0D3BE02220023ADF80610002107
:101F10000091704702220023ADF8061000210091C5
:101F200070472846002106F02BBB224600F02ABE4F
:101F3000022200238DF806100021009170478DF8D1
:101F40000720032200238DF805100021009170471F
:101F50009DF800009DF8011042460AF01FB94DF8A7
:101F600008ED18F8070000FB0645B9F8000005F079
:101F700083FA00282C465DF808EB7047216821F0B1
:101F80000101216010BD0020182108230095204781
:101F9000044628460E46FEF7D0BB1C4615460E46A4
:101FA000007888F80000022008F066B9002300904D
:101FB000204605F0EEBB0222ADF806100021ADF878
:101FC000041002210091704702220023ADF8061090
:101FD0000021009170470222ADF806100021ADF8F3
:101FE0000410022100917047069C284606F0C2BAF0
:101FF00002203E21082200F055BC012200238DF86A
:10200000071000210091704704F00F0001EB400021
:1020100000EBD41090F8331070474FF4801005F0A7
:10202000C7B8002000210823009520470823CDF8D9
:1020300000B0FFF799B840F2EE41884270478DF842
:102040000F10ADF80B00080A8DF80E00080C8DF883
:102050000D0070478DF80710032200230021009126
:102060007047284605F060BF012200238DF8071055
:102070000021009170470222ADF806100021ADF852
:102080000410022100917047069D0078267846F0E2
:102090000106267000957047D4F8801021F00101E8
:1020A000C4F880104FF004610968704700200821CF
:1020B000082300952047814620460F46FEF73DBB8A
:1020C00040F2E571884270478DF807200422002312
:1020D000ADF8041000210091704703202621202232
:1020E00000F047BDBDF8081009BA090C2180BDF801
:1020F0000A1009BA090C6180BDF80C1009BA090C64
:10210000A180704700F00F0098F801104044C07C97
:102110008842704747F2305102F070BA40F2FC41F9
:10212000884270471C4615460E4600F0ABBB8DF842
:102130000700204609F0B4BB01238DF807002046B4
:1021400008F0B9BE416800200847016841F08001ED
:1021500001607047002000F089BE40F6D53188420A
:102160007047012100F030B98DF8072000238DF869
:102170000410110A04228DF8061000210091704706
:102180008DF8071000238DF804200A0A090C8DF839
:10219000051000218DF8062004220091704701F0FF
:1021A0000F0002EB400000EBD1107047D4F8802004
:1021B00042F00102C4F8802070472046FFF748BC77
:1021C00000EE100A9DF90500B8EEC00A01EE100AF3
:1021D00070470123044609F0A5B90C4610210222DC
:1021E000ADF80E100021ADF80C10029106210091FF
:1021F0007047013010F0FD0F70479DF804309DF8D6
:10220000051022460370002070470023ADF80A2015
:102210000622039100210091704700238DF80610DB
:1022200000218DF805200322009170470222ADF8AD
:102230000E1000218DF80C10ADF80A10032100914A
:1022400070470000BCB5174DA86800F06BF908B1E5
:10225000052424E095F90C0000F0AAFDA86800F020
:1022600077FA288A002100220023002400F046FD8E
:102270002A7F6B7F298BA87DCDE9002300220023D4
:1022800000F058FD002000F029FB00205821092211
:1022900000F008FB04480421017000F0B2F8204669
:1022A000BCBD00BF741C00205D1A0020BCB500241A
:1022B00002203E2108228DF80640ADF8044000F0CF
:1022C000EAF901AD032C0AD004F11E0045F6A52160
:1022D000C2B23B2000F085F928550134F2E73B20DB
:1022E00045F6A5211C2200F07CF95A281AD10220BB
:1022F0003D21FD2200F03DFC9DF806201AB1002092
:10230000452100F036FC9DF8042006201C2160F3D6
:102310005F12032000F02DFC9DF8052003201D21F5
:1023200000F027FCFFF764FE0020BCBD0246002041
:102330006C2100F01EBC000010B5044602200621EE
:10234000012200F0A8F9094809490A4A844238BF25
:102350000A4602200A21282300F030FC0220342102
:10236000EF2200F006FC002010BD00BF0027B929B5
:1023700010E80008E8E70008B0B5124D00243A2C38
:1023800009D004EB44016A18685C5178927800F037
:10239000F0FB0134F3E70320122100F045F9044675
:1023A00001202521482200F0E4FB04F0080012215E
:1023B000821C032000F0DDFB012000F0A1F90020C9
:1023C000B0BD00BF38E8000810B5012906D099B9A2
:1023D000082832BF63210838642104E0082826BF9A
:1023E0000838662165210122002402FA00F0C2B2F9
:1023F000002000F057FA00E0FF2460B210BD04F0A6
:1024000029BB80B5042000F077FA00F073FB00F0E0
:102410003FFB022000F07AFA0620BDE8804000F081
:102420006BBA000010B50420042400F065FA64487B
:10243000047010BD80B500206C2100F0F5F800F0AC
:102440007F0080BD80B501207F2100F0EDF840B213
:1024500080BD0000FEB50DF10604022071210323AA
:10246000224600F0EAF8E21C012074210323012433
:1024700000F0E3F89DF80A009DF80B109DF8095054
:102480009DF807209DF80830000240EA01409DF8C1
:1024900006102844F54D2E7B2D7BC5F10907093D1B
:1024A00020FA05F50A2E38BF00FA07F510020B4A8C
:1024B00040EA03400844012888BF0446B5FBF4F114
:1024C00000201F2804BF0020FEBD52F8203001303C
:1024D00099429CBF1538FEBDF3E700BFB0EA000883
:1024E00080B502200621042200F0D5F80220062142
:1024F000042200F0D7F901207E2100F095F840B2C7
:1025000080BDB0B5044600F008F80546012021461C
:102510002A4600F0ABF82846B0BD01207D2100F02E
:1025200083B80000F8B5244E044604200621042593
:10253000B047224F0120B84700200321B0471A209E
:102540000321B047002000F09DF902200021B04790
:102550000120B84702200121B0470120B8470320DD
:102560000621202200F005FB0120B84702200221AD
:10257000B0470120B847FFF7B0FD0120B84704205D
:102580003621B0470120B84702200321B04701207F
:10259000B84702200421B0470120B847FFF7ECFEFE
:1025A000FFF784FE2046FFF7C7FE00F00BF8E8486F
:1025B00005700020F8BD00BFD12B0008FF230008E4
:1025C0004819002080B50A20FFF7CBFD0020FFF757
:1025D000C8FDFFF752FB00200021BDE8804000F05D
:1025E000B8BABCB5044650008DF806100DF10502CE
:1025F00003238DF80700080A21468DF80500022004
:1026000000F0DCFA42F2107500206C2100F00CF8AA
:1026100040B2002803D4681E29040546F4D10220E4
:10262000214600F001F8BCBD10B50C4600F02AF9B7
:102630002046BDE8104000F00AB870B5FFF772FD03
:10264000304629462246BDE8704000F00FB810B56C
:10265000044606F055FB6000FFF725FB002008F05C
:10266000BFF9044606F048FB204610BD70B514467D
:102670000D46064606F044FB7000FFF714FB34B12C
:10268000002008F0ADF905F8010B013CF7E7BDE8C3
:10269000704006F031BBB0B5FFF797FB2846FFF757
:1026A000D6FF20EA0401284600F092FA0020B0BDCF
:1026B00010B5044603200D21F023FFF736FC02205D
:1026C0003F210222092C02D1FFF7E5FF01E000F0D3
:1026D000E9F8D048447310BD10B5044603200D211D
:1026E0000E23FFF722FCCB48847310BD10B50446BF
:1026F00003200E210823FFF718FCF148C47310BD16
:1027000070B500280546114E044618BF0125AA00E1
:1027100001202521F023B047012025212A46082346
:10272000B047B4FA84F012210423450903202A4655
:10273000B047032012212A461023B0470020582119
:102740002A460423B047EA48847570BD852B0008EB
:102750002DE9FC4104463848844202D3374884427C
:1027600003D9FF2778B2BDE8FC8135490020B0F5D8
:10277000C07FF6D00A58944203D90D186A68944273
:1027800001D90C30F3E7DFF8BC8005F10802002026
:10279000402102230027C047AD7A3D20294600F0A2
:1027A00017FA019401AA032009210423C047C5F3A5
:1027B000021025A1085CFDF77BFF054620460E466A
:1027C000FDF776FF2A463346FDF780FE9FED160B98
:1027D00053EC102BFDF7ECFE05460E46FDF794FF7B
:1027E000A0F114018DF80110FDF762FF02460B46BF
:1027F00028463146FDF764FE9FED0D0B53EC102B80
:10280000FDF764FEFDF761FF8DF80200C0F30320C1
:102810000DF10102152103238DF803000320C047A9
:10282000B34884609EE700BF000000C079847E4109
:10283000000000000000894090BF3E08007E5F401D
:10284000E8E80008BD2B0008020406080C10040488
:1028500010B502220446002818BF012201200E21D3
:10286000602300F08FF9A248047410BD7C0300209F
:1028700010B50446032012210823FFF756FB9C489D
:10288000847410BD0146064802788A4206D080B59D
:102890000170002000F09CF9BDE8804000207047E6
:1028A0002C000020B0B5FFF790FA2846FFF7CFFEC6
:1028B00040EA0401284600F08BF90020B0BD00007A
:1028C0001CB50446ADF806000DF1060203201321E5
:1028D000022300F073F9864884821CBD10B50446BB
:1028E00001382421B0FA80F04009C200032000F032
:1028F00040F97F48C47510BD10B50446022021463A
:1029000000F066F96148047010BD00BF0246032064
:102910000621032300F036B910B5044603200E212A
:10292000F023FFF702FB7248047310BD10B5044694
:1029300003200F21224600F01CF96D48447410BD9D
:1029400080B500F0EBF851480521017080BD00BF53
:1029500048190020024603200621042300F012B982
:102960002DE9F041054616282849294E28BF16258D
:10297000002808BF012505EB45000844222110F876
:10298000027C10F8034C10F8018C032007F00102C0
:10299000B04700201E212246B0473A0900204B21B3
:1029A000B047002046210422B8F1700F02D1FFF792
:1029B00072FE01E0FFF776FF4D4C2078012801D12F
:1029C000607814E001203E210822082720700220B0
:1029D000FFF761FE3B2045F6A5212022FFF701FE0F
:1029E0006070FFF705FB607808B90820677008F091
:1029F0000F01401A08F0F00108434521C2B200203F
:102A000000F0B7F82571BDE8F08100BF68EA000862
:102A1000732B00087C03002080B5FFF72EF90020FF
:102A20000021BDE8804000F094B80000B0B50E4C25
:102A300002200421A04700205821002200F099F82C
:102A40000120FFF787FF01200C21012200F091F8FF
:102A500000F03EF8022005210525A0470120FF21B6
:102A6000A0470A480570B0BDD12B000810B5022060
:102A70000421042400F0ACF800F010F800205821E4
:102A80000F2200F076F80148047010BD48190020AC
:102A900000204F210822FFF7FEBD000080B5FFF7A0
:102AA000F7FFFFF7B9FF1248C07D012818BF80BDAE
:102AB000032024210822BDE8804000F05AB800BF5E
:102AC0007C03002000204F210822FFF7EBBE00000E
:102AD00080B50748C07D012804D1032024210022AD
:102AE00000F047F8FFF7EEFFBDE8804000F00DB8BA
:102AF0007C03002080B50020002100F02AF80A2085
:102B00000121BDE8804000F024B880B5FFF7B5F89A
:102B100000200121BDE8804000F01BB8B0B50C4694
:102B200005460220042100F053F80020FFF712FFB1
:102B300001200C21224600F01CF8FFF7C9FF0520F8
:102B4000FFF7DAFE012029462246BDE8B04000F03A
:102B50004FB880B50A466821082834BF6721083875
:102B6000012303FA00F0C3B2002000F00BF80020AC
:102B700080BDB0B5FFF729F92846214600F028F8B6
:102B80000020B0BD2DE9F041074618461C4690468E
:102B90000E4601F023F805463846FFF773FE08FAA3
:102BA00005F004EA00053046FFF751FDA04329185F
:102BB000304600F00DF80020BDE8F08170B5FFF759
:102BC000B1FA304629462246BDE8704000F010B800
:102BD000B0B50C46054606F093F868000130FFF7E3
:102BE00062F8204607F0FCFE06F086F80020B0BD33
:102BF00070B514460D46064606F082F870000130A6
:102C0000FFF751F82CB115F8010B07F0E9FE013C74
:102C1000F8E7BDE8704006F06FB80000B0B52E4888
:102C2000012104F0B5FB012854D1FFF703FC044651
:102C30002AA021460AF056FBE00709D0FFF72EFF35
:102C400001200125FFF772FB284804F0FE040570FF
:102C5000200714D5FFF7FEFB254D85F81201FFF77D
:102C6000F1FB85F81101681CFFF74BFC2870082068
:102C7000FFF75CFB1F48012104F0F70401706006B8
:102C800011D500206E21FFF7CFFC194991F80021E2
:102C9000531C81F80031114481F801014020FFF7F5
:102CA00045FB04F0BF04600707D50420FFF73EFB97
:102CB0001148012104F0FB040170A00704D5022093
:102CC000FFF734FB04F0FD0424B12046BDE8B0401A
:102CD000FFF72CBBB0BD00BF000C0140466C616724
:102CE000733A3078253032580D0A00005F1A002000
:102CF000491900205E1A002040190020402801D206
:102D0000062008E001467E2801D2072003E00920C2
:102D1000FB2938BF082010B5FFF7CAFCF04C607BD8
:102D2000FFF7FAFD207DFFF7D7FC607DFFF7A0FDE0
:102D3000002010BDB0B5054604980C46FFF7D6FC40
:102D40002046FFF7BDFD0598002818BF0120FFF7BA
:102D50007FFD2846FFF7EAFD0020B0BD10B506282C
:102D600018D80024DFE800F004200A16181F10000D
:102D70000E4804700120FFF7BFFD15E00B4802214B
:102D80000170FFF74FFB0CE0084806210170FFF7C8
:102D90004DFE06E0042407E0044804210170FFF71B
:102DA00030FB002400E07F24204610BD5D1A002087
:102DB0000149085CFFF7D4BD0AE70008704700002E
:102DC000034800214FF480620023FDF7EDB900BFF6
:102DD00000000020014807F027BC00BF280C00209D
:102DE00010B504460248214607F033FC204610BDCA
:102DF000341000201048017819B12D21C172012131
:102E000000E0002142786AB1B0B5831C3AB113F8F2
:102E1000015B50FA81F4013A0131E572F6E7BDE851
:102E2000B04003E0421830230131D37250FA81F0F0
:102E30000021C172704700BF3C030020B0B59A4C1E
:102E4000094D4FF480512046A84720464FF40051C9
:102E5000A84720464FF48041A84720464FF4004140
:102E60002A46BDE8B04010479572000880B530B1E1
:102E70006E484FF48061FF22FDF7B9F904E06B481A
:102E80004FF48061FDF7BAF9BDE8804000F00EB85C
:102E90000146854811B1402104F0FCB9402104F0FD
:102EA000F7B900BF8048202104F0F4B9F8B55F4DB0
:102EB000474E0024082C08BFF8BD44F0B0000021A4
:102EC0000027C0B2B04700200021B04710200021E9
:102ED000B047802F05D0E85D012100F0A9F8013747
:102EE000F7E780350134E5E710B5394C8D20002136
:102EF000A04710200021A047AE2000212246BDE8B7
:102F00001040104710B5324C8D200021A0471420EE
:102F10000021A047AF2000212246BDE81040104705
:102F200010B500F097F80A2003F094FD00F052F875
:102F3000274CAE200021A04700200021A0471020F0
:102F40000021A04740200021A047B0200021A04739
:102F500081200021A047FF200021A047A1200021BF
:102F6000A047A6200021A047A8200021A0473F207D
:102F70000021A047C8200021A047D3200021A0475E
:102F800000200021A047D5200021A047802000215B
:102F9000A047D9200021A047F1200021A047DA2036
:102FA0000021A04712200021A047DB200021A047DC
:102FB00030200021A0478D200021A04714200021AF
:102FC000A047AF2000212246BDE81040104700BFB7
:102FD0003130000810B5344C8021204604F05AF9F5
:102FE000642003F037FD2046802104F051F964206D
:102FF00003F030FD20468021BDE8104004F04AB9BE
:103000002948202104F044B910B501F0070301F06C
:10301000F801012400EB01100449002A04FA03F32B
:103020000A5C0CBF9A431A430A5410BD6404002082
:1030300010B50029044618BF01210846FFF728FFF4
:10304000FFF7DEFF204607F0CBFCBDE81040FFF79E
:1030500029BF00007CB56C46204604F01DF9002015
:10306000114D124E21468DF80400202000904FF49F
:103070004470ADF806002846B0472846202104F0E9
:1030800009F98020214600902846B0472846802133
:1030900004F000F94020214600902846B047284619
:1030A000402104F0F5F87CBD000C0140E9720008F5
:1030B00070470000C1480B494FF47F728068B0FB35
:1030C000F1F0B0F57F7F28BF1046810800EB50007B
:1030D000B0F57F7F38BF02469208002007F088BD18
:1030E000741C002040420F00E0B50DF106010020E5
:1030F00007F0D2FD002044F2FF3107F0A4FDBDF837
:103100000600C10702D0074901220A70810702D5D3
:10311000054901220A70400602D5044801210170C8
:103120008CBD00BF5F1A00205E1A002040190020ED
:1031300010B5072842D8DFE800F00429151B0C3130
:103140003A222048002400210470002008F00EF8E4
:1031500035E01C480421FEF74DFD6FF07F4107F07C
:10316000FDFF2CE017480221FEF744FD012112E08B
:1031700014480321FEF73EFD07F017FF1FE011483A
:103180000721FEF737FD08F01DF818E00D48012172
:10319000FEF730FD002107F0F4FF10E0094805219B
:1031A000FEF728FD6FF07F4108F020F807E00548A2
:1031B0000621FEF71FFD07F0FCFF00E00424204677
:1031C00010BD00BF5D1A0020BFB5002007F087FECC
:1031D00080B9002008F039F860B90A2003F03AFC01
:1031E0000020002107F0CDFF20B90020012107F0C9
:1031F00086FF08B104B0B0BDDE4CA07F90B1E17F86
:1032000000204FF47A7207F095FE0028F2D10020DA
:103210007F2107F0E2FC0028ECD1002007F005FD3B
:103220000028E7D10020012107F05EFF0028E1D14E
:10323000A168002007F06EFF0028DBD100200021EC
:10324000002207F061FE0028D4D1617B227D637DDE
:10325000208A00F059F80028CCD1207F657F218B8F
:10326000A37EE27ECDE90005002000F087F800286B
:10327000C0D100206FF07F4107F070FF0028B9D166
:10328000FFF718FFA07F88B31E48039003A9002012
:1032900007F01AFF0028ADD10020382107F00AFFFF
:1032A0000028A7D194F90C100020002207F093FF0A
:1032B00000289FD10020012107F0A5FC002899D10A
:1032C00000200121002407F02AFE002892D10020CE
:1032D000432103220023009407F044FE00287FF4DA
:1032E00089AF0420FFF724FF002083E794F8201023
:1032F00094F82120002007F04FFF00287FF47AAFD8
:10330000C2E700BF040700011CB5092801D2002450
:103310001FE00C2801D208241BE0112801D201244F
:1033200017E0162801D2092413E0212801D2022433
:103330000FE02B2801D20A240BE0402801D20324FD
:1033400007E07E2801D2042403E00624FB2838BFCE
:1033500005248DF806208DF805408DF807308DF88E
:10336000041001A9002007F029FE00B11CBD0020B7
:103370000121224607F045FF1CBD0000E0B505987D
:10338000ADF802108DF805208DF804300DF1020122
:10339000002818BF01208DF807000498002818BFE6
:1033A00001208DF80600002007F029FE00B18CBD39
:1033B000E248817D002007F056FE8CBD741C002081
:1033C000092801D2002121E00C2801D210211DE0A2
:1033D000112801D2202119E0162801D2302115E050
:1033E000212801D2402111E02B2801D250210DE0EB
:1033F000402801D2602109E07E2801D2702105E039
:103400006FF06F01FB2838BF6FF07F01C8B27047C3
:103410008348082103F03EBFE0B50DF10501062009
:10342000032200F0CBF89DF806109DF805009DF8EA
:1034300007209FED081A090241EA0040104400EEFF
:10344000100AB8EE400A20EE010ABCEEC00A10EEE7
:10345000100A8CBD00247442B0B50DA4FFF7DCFF48
:103460000F49884288BF083494ED000B1B2055ECAF
:10347000104B00F09BF8FDF71BF902460B46204667
:103480002946FCF77CFFFDF76BF900EE100AB0BD92
:1034900000000000008064C00000000000A063C0C5
:1034A000FF07AF2F0000000010B5FFF7B5FF04467F
:1034B0001A2000F07BF80E498C420CD3FDF7F8F887
:1034C0009FED090B53EC102BFCF759FFFDF748F962
:1034D00000EE100A10BDA43800EE100AB8EEC00AC3
:1034E00010BD00BF00BF00BF0000000000A063C00F
:1034F0000008AF2F132000F059B880B5192000F054
:1035000055F800EE100AB5EE001AB8EE400A20EEAB
:10351000010A80BDBCB500F06BF80020002400F06B
:103520007FF90120802100F09FF90A2003F092FA30
:10353000012000F075F90A2003F08CFAA54D012155
:10354000A86800F0FDF895F90C000F2100F054F97F
:103550002A7D6B7D288A002100F064F8298BA87DE4
:10356000AB7EEA7E6D7FCDE9004500F0A5F8002036
:10357000BCBD00BF741C002010B5122000F016F86E
:1035800004461220FF2100F06FF9200702D5F5480C
:1035900001210170A00602D5F448012101706006E6
:1035A00002D5F1480121017010BD00BFE0B50DF159
:1035B0000701012200F002F800208CBD70B5FEF773
:1035C00075FB46F0800007F00BFA2CB115F8010BE3
:1035D00007F006FA013CF8E7BDE87040FFF718BFB6
:1035E00080B50A4601460020FFF7E8FF002080BDB5
:1035F00010B5084C1021204603F04AFE012003F0CC
:1036000029FA2046102103F045FE0A20BDE81040AB
:1036100003F020BA000C01400148082103F038BE35
:1036200000080140F8B51D461646FFF7C9FE0446DE
:1036300040EA4600794FC1B21D20B847654E707B05
:103640000001C1B21E20B847002D18BF0125262059
:10365000FFF7ACFF00F0F70040EAC5012620B847AD
:10366000707B062806D13120052100F0FDF83720B7
:103670000C2101E03120032100F0F6F8902C13D149
:10368000B0680A49884201D9642405E00849084421
:103690000849884208D87F243620022100F0E4F847
:1036A0003A20214600F0E0F80020F8BD7F13613396
:1036B00080E58FE7C0C2DA062DE9F041574D0F468D
:1036C0008046090A20201E461446A847F9B2212048
:1036D000A84722202146A8472320FF21A8471D20D4
:1036E0001D24FFF763FF711E00F0FE00B1FA81F1A7
:1036F000490901441D20A84739204146A8471E20FA
:10370000FFF754FFEA4900F0FB00097F0139B1FAE5
:1037100081F1490940EA81011E20A8470798012844
:1037200004D13320412100F09FF819243B20214689
:1037300000F09AF80020BDE8F08100BF741C002062
:1037400070B500EE100A9FED221A22480D46B8EE21
:10375000400A80EE010A0069BCEEC00A10EE106A51
:10376000FFF72EFE35B304463120902C07D1FFF72A
:103770001DFF40F08001312000F076F81AE0FFF7DD
:1037800015FF00F07F01312000F06EF8302000219D
:10379000002500F069F84FEA3410052805D80EA17D
:1037A00051F8205012A1095C00E040212F2000F0C8
:1037B0005BF82E44194CC6F307410620A047C6F318
:1037C00007210720A047F1B20820A047002070BDC4
:1037D00000247442741C002080000000AA00000035
:1037E000000100005501000000020000AA020000D4
:1037F0004844444444440000B0B57E30074D0C4674
:1038000040F08000C1B20920A8470A202146A847FD
:103810000B200F21A8470020B0BD00BF6938000869
:1038200010B507281ED87F210446DFE800F00C04FD
:1038300004090B0719190120012404E0032402E004
:10384000042400E00524704908700120FFF7AEFE53
:1038500000F0F80040EA0401012000F005F8002122
:10386000084610BD0421FBE7E0B50DF10701012278
:1038700000F001F88CBD70B5FEF718FA06F07F0075
:1038800007F0AEF834B1002007F0AAF805F8010BF4
:10389000013CF7E7BDE87040FFF7BABD000000004B
:1038A0002DE9F8432DED048BB0F5704F9FED1C8B87
:1038B00028BF4FF4704090468946041F0126012519
:1038C000102E21D0EFB20F2F19D8B0EE480A304693
:1038D000F0EE680A09F030FDB0EE409A3846F0EE9E
:1038E000609AFCF7E5FE02460B4651EC190BFCF71B
:1038F000EDFDFCF709FF844202D90135E2E710250E
:10390000A04202D20136DAE7102689F8005088F882
:103910000060BDEC048B01B0BDE8F08300BF00BFC8
:10392000000000000000F03FE0B50DF106010020AE
:1039300007F0FCFC00204FF6FF7107F0D3FCBDF848
:103940000600C10702D0074901220A70810702D58B
:10395000054901220A70400602D504480121017080
:103960008CBD00BF5F1A00205E1A002040190020A5
:1039700010B5072844D8DFE800F0042B171D0D33DD
:103980003C2421480024002100220470002007F07C
:103990002AFF36E01C4804214FF6FF72FEF72EF98D
:1039A000FF2107F016FF2CE017480221FEF726F949
:1039B000012112E014480321FEF720F907F002FE6E
:1039C0001FE011480721FEF719F907F03BFF18E047
:1039D0000D480121FEF712F9002107F015FF10E054
:1039E000094805210022FEF709F9002107F017FF19
:1039F00007E005480621FEF701F907F01AFF00E08D
:103A00000424204610BD00BF5D1A00207FB50020B1
:103A100007F09CFD002848D10020012107F0AFFEEF
:103A20000020012107F0A0FE00283ED1204C617B40
:103A3000227D208A00F040F8B8BB218BA07DA37EB8
:103A4000E27E257F667FCDE9005600F052F860BB2C
:103A5000A168002007F09EFE38BB00200021002254
:103A600007F07CFD08BB94F90C100020002207F041
:103A7000F2FED0B90F48EF210423039003AA0020DF
:103A800007F00EFF88B900200121002407F0A3FDF4
:103A900058B90020432103220023009407F06FFD52
:103AA00018B90420FFF764FF002004B070BD00BF08
:103AB000741C002000AD089A1CB5CD2801D2342317
:103AC0000AE0B0F5CC7F01D2262305E040F22E3487
:103AD0000A23A04238BF182308010DF105018DF813
:103AE00007208DF806308DF80500002007F094FDC2
:103AF0001CBDFEB50DF106071646044608460DF13D
:103B000005021D463946FFF7CBFE09988DF809607E
:103B10003946002818BF01208DF80B0008980028AE
:103B200018BF01208DF80A00002D18BF0125E801FB
:103B30008DF808009DF805008DF80700002007F0BB
:103B4000B5FD00B1FEBD0020214607F0E6FDFEBD3B
:103B500000F090BA1248D0F8801041F47001C0F81B
:103B6000801010490A6842F001020A600A68920750
:103B7000FCD54A6822F003024A604A6812F00C0F32
:103B8000FBD10A68084B1A400A6000224A600A63A7
:103B90004FF41F028A604FF000610160704700BF60
:103BA00008ED00E000100240FFFFF2FE7047002029
:103BB000012108F083BEFEE70648BFF34F8F064A97
:103BC000016801F4E06111430160BFF34F8F00BF52
:103BD000FDE700BF0CED00E00400FA050021082914
:103BE00005D020FA01F2D20702D10131F7E7002116
:103BF000C8B270470A78436802F0010223F4807368
:103C000043EA022242604A78836862F34103836098
:103C10008A78836802F0010223F4006343EAC22237
:103C20008260C978C26A013922F4700201F00F0182
:103C300042EA0151C16270474FF0807101607047E4
:103C4000816841F00801816070478068C0F3C0005E
:103C50007047816841F00401816070478068C0F35B
:103C600080007047044900F00F000A6822F47022B7
:103C700042EA00400860704704240140826861F312
:103C800000028260704722B1012A06D142681143C6
:103C900002E0426822EA0101416070470000000032
:103CA00010B5194C04F5E05000F05DF8FCF700FD8C
:103CB0009FED0F0B53EC102BFCF708FC9FED0E0B48
:103CC00053EC102BFCF702FC9FED0D0B53EC102B6B
:103CD000FCF76EFCFCF744FD0C49086020464FF4ED
:103CE0000041BDE8104003F0D3BA00BF00BF00BFE1
:103CF0000000000000C8E93F000000A0999927409B
:103D00000000000000408F400008014064080020CF
:103D100070B501EB41040A2928BF1E3CFDF732FFB4
:103D200038BF1025465926EA0404234302EB8204D7
:103D300043516FF00403062A88BF6FF022030C2A58
:103D400088BF6FF04003342523441F249C40062A7B
:103D500088BF30250C2A88BF2C2542599940A243A0
:103D60001143415170BDC06C80B2704710B54B0417
:103D70008468082904D344F0007103F4602301E04F
:103D800024F000718160816821F460211943816011
:103D900002F00101826822F4801242EA015181603E
:103DA00010BD426801F0010122F4006242EAC12123
:103DB00041607047826801F0010122F4800242EA0A
:103DC000815181607047000010B50A49084C884253
:103DD00004D00949884218BF10BD01342046012192
:103DE00001F058FF20460021BDE8104001F052BF0D
:103DF00009000C000024014000280140BCB5FEF77A
:103E0000A9F901200BA2FDF7D3FE6C4DB5F88A008D
:103E1000FDF770FE01ACFEF7D0F9FEF7EAF9FAD132
:103E200001986328DCBF64200190A5F88A0002F0A5
:103E300041FEBCBD53656E64696E6720696E746532
:103E40007276616C00000000BCB5FEF783F90120BA
:103E50000BA2FDF7ADFEF34D6868FDF74BFE01AC1C
:103E6000FEF7ABF9FEF7C5F9FAD10198B0F1FF3FC3
:103E7000DCBF00200190686002F01CFEBCBD00BFEA
:103E80004F776E2049440000BCB5FEF763F901206E
:103E90000EA2FDF78DFEE34DD5F88C00FDF72AFE4E
:103EA00001ACFEF78AF9FEF7A4F9FAD10198B0F156
:103EB000FF3FDCBF002001906968884204BF0130E9
:103EC0000190C5F88C0002F0F5FDBCBD506169722F
:103ED00020494400BCB5FEF73DF901200BA2FDF7D7
:103EE00067FED04DD5F89000FDF704FE01ACFEF75B
:103EF00064F9FEF77EF9FAD10198002801DC01206F
:103F00000190C5F8900002F0D5FDBCBD5061636B17
:103F1000657420636F756E7400000000BCB5FEF719
:103F200019F9012021A2FDF743FEBE4D95F90C00C1
:103F3000FDF7E0FD01ACFEF740F9FEF75AF9FAD1C2
:103F4000298840F261420198914222D040F2EE422B
:103F500091421BD040F6D53291420DD0B1F5A06F01
:103F600010D040F2E572914209D040F2FC429142F9
:103F700015D1022111220FE0002114220CE06FF074
:103F8000120108E06FF011010D2205E06FF0080149
:103F900001E06FF01101162200F030FB0190287350
:103FA00040B206F0BFF802F085FDBCBD5458207049
:103FB0006F7765722C2064426D000000741C002035
:103FC00010B502F077FD104CFDF7FAF8FDF762FF2F
:103FD00007D8DFE801F003120C0F0900FFF734FFE8
:103FE000F2E72328F0D10BE0FFF798FFECE7FFF7AB
:103FF00071FFE9E7FFF702FFE6E7FFF745FFE3E7B9
:10400000BDE8104002F0E0BD5C1A002011448AB205
:104010008A4202D1B2EB400F01D3A1EB400188B23A
:10402000704700000D490A6802604A68426089686A
:1040300081600C20704700BF04490A6822F478624E
:104040000A600A6810430860704700BF2C6C00408B
:104050000248034900680968704700BFE8F7FF1F7E
:10406000ECF7FF1F08F008FD642002F0F3FCFFF7F7
:10407000A3FD0000B0B5374CE0680130E060364881
:10408000017801291DD1354A116801311160344987
:10409000096813688B4214D300211160314A1368F8
:1040A00001331360304B12681B689A4206D90170C5
:1040B0002E4801702EA009F053FE02E02B4801218A
:1040C00001702E48007801280BD12D480168013974
:1040D0000160016829B92B49096801602A4801215A
:1040E00001702A4D68680138686068680A2804D140
:1040F00027484FF4004103F0CDF8686820B903F079
:104100008FFA4FF47A706860FDF7AEF8606801309E
:1041100060606068B0F57A7F0BD300200121606099
:104120002170A2680132A260A2683C2A24BFA0606C
:1041300061702878012808D116480078012804D138
:10414000A8680138A860A86800B1B0BDBDE8B0405B
:1041500002F0ECBC10040020540300206C0300208B
:10416000100300205C030020742100205503002070
:1041700054583A20444F4E450D000000570300208C
:10418000780300207403002058030020080000205A
:104190000008014059030020BCB513460C460546F3
:1041A0000DF107010DF10602184604F0D5FD9DF84A
:1041B00007009DF80610084A091A890241EAC03032
:1041C000010404BF48F20000CFF6FF70290101EBA3
:1041D000C4018852BCBD00BF04600040BCB5FDF7FF
:1041E000B9FF01200EA2FDF7E3FC0E4D2869FDF793
:1041F00081FC01ACFDF7E1FFFDF7FBFFFAD101986F
:1042000007214FF4C86200F0F9F9697B2A7D6B7DC4
:104210002861019080B205F0E9FF02F005FEBCBD07
:1042200042570000741C0020137803F06003202B19
:104230001CBF00207047B0B5EE4B95885C78A54256
:1042400012D15478203C032C0ED8DFE804F002048D
:104250000F2603292ED0012930D1043311461A46E6
:10426000072307F0FDFE29E00020B0BD032916D189
:104270005588924805F001040078DD7084F0010152
:1042800001EA900103F1180007F0A6FDC5F3400212
:104290000020214607F0A7FE10E0032905D00129E0
:1042A0000CD1114607F0D0FE08E05188002007F03D
:1042B000C8FE03E0191D002007F094FE0120B0BDE8
:1042C000012070477FB5CB4CBC212046FBF796FF01
:1042D0004FF4006040250026002100220023A4F8AE
:1042E00009004FF4E13003956060FF20E07204F1B3
:1042F0007C008DE8610004F1240007F0A5FB6F4805
:1043000001220395017804F13C008DE8610004F17D
:104310000C00C1F38003002107F096FB7FBD00BFB6
:104320002DE9FE4F05464879022816D188790C46BA
:10433000022812D1DFF8BC92002699F80E0099F8F5
:104340002610F30703D111B101260028F9D143B19A
:10435000A9480068C00700D000BE002080B2BDE8B8
:10436000FE8FA07889F8005004EB020A89F801005A
:10437000207820440646504506D2307830445045D7
:1043800002D871782429F5D0707805280BD12846F9
:10439000314608F039FC002861D0B07889F8020075
:1043A000307806447078042861D170790A285ED18B
:1043B00009F130004FF0000809F1240B3746029054
:1043C00009F11800019009F10C0000903878574568
:1043D0004CD23179884549D23918514546D8487868
:1043E000052846D1C8780F4600F00300022840D1C6
:1043F0002846394608F008FC002841D097F9020009
:10440000B0F1FF3F14DD89F82600B88889F8245000
:104410006FF3DF20A9F8280028480078C00702D1F0
:10442000029807F0E5FB584607F02EFBA0B92EE0F6
:1044300089F80E00B88889F80C506FF3DF20A9F8CE
:1044400010001E480078800703D4019807F0D0FBC5
:1044500002E0009807F074FB08F10108B6E766482F
:104460000068C0073FF479AF00BE76E73E18301B06
:1044700074E761480068C0073FF46FAF00BE6CE7A7
:104480005D480068C0073FF468AF00BE65E75A4862
:104490000068C0073FF461AF00BE5EE7B0B50748F3
:1044A000544C0025017804F118002560C1F3800107
:1044B00007F092FCA57384F82650B0BD2D000020B3
:1044C0002DE9FF474B480C46984622468178857B6C
:1044D00090F82630611AB1FA81F14909002C18BF11
:1044E0000122E31A651B11400022B3FA83F3B5FAE7
:1044F00085F55B096E0915461A4332430A43D20714
:104500004FF00102F7D015F0010105D03A480068DC
:10451000C00769D000BE67E0C1F1000ABC211AFBE8
:10452000010797F82600844246D1F96A31B107F1B4
:1045300030001FFA88F2002307F053FCF87A07F1E5
:104540002409FF282DD007F13000694607F066FBEB
:10455000BDF8080040B1DDF80CE0DDF804C0BDF89E
:1045600000300EEB000108E0BDF80030CBB1DDF803
:1045700004C0DDF80CE00CEB03016344464686B151
:10458000481EF97A0278914207D07045194602D048
:104590006045014605D0013EF1E75FFA8AF007F079
:1045A0004FFD388F798F884203D05FFA8AF007F089
:1045B00046FD484607F068FAB87B5FFA8AF68442FF
:1045C0000CD1304607F10C0907F03CFD484607F0D6
:1045D000B7FA18B94846414607F0EAFAB878844273
:1045E00002D1304607F02AFD0120A84304B0BDE8FF
:1045F000F08700BF68080020F0ED00E08842D8BFD7
:1046000008469042A8BF104670470000022988BFA4
:10461000704702A050F8210009F0A2BBE9EB0008A6
:104620001BEC000843EC0008002108F0EDBE00215F
:104630000022FBF733BE00210022FBF767BE50B11A
:1046400049B110B50446002004F1080C2160207126
:10465000ACE80D0010BD0120704700002DE9F84FB7
:104660008046002600270446CCB12068B8B1FBF78D
:10467000DAFD0546606810B1FBF7D5FD00E00020CB
:10468000AF42C8BF3D46A168002918BF2F468642E9
:10469000C8BF3046002918BF06461034E4E720A002
:1046A00009F05EFB264809F05BFB75427E422D4F08
:1046B000DFF894B028A40FF28C090FF2900AB8F139
:1046C000000F27D0D8F8002022B3D8F80800B8B1DE
:1046D0004846314608F006FED8F804005A4620B194
:1046E0000178002908BF584602465046294608F07E
:1046F000F9FDD8F80C1039B1087828B115A001E0FF
:104700002046114608F0EEFD384609F029FB08F175
:104710001008D4E7134809F023FB0120BDE8F88F07
:104720003C636F6D6D616E643E203C617267733EE9
:10473000203C68656C7020746578743E0D00000044
:104740004AEB0008252A730090F0000820252A7300
:104750000000000020257300202D2D2D2025732022
:104760002D2D2D00A6EB00082DE9F04F9BB0002861
:1047700000F03D81002900F03A810446D0E902B002
:1047800015465A44824280F0348120682A465844B3
:10479000FBF70DFDA0684FF0000A00230026284417
:1047A000A0600AA904310691834580F02481216824
:1047B00011F80B90B9F10A0F05D0B9F10D0F02D025
:1047C0000BF1010BF0E701F80BA05B4500F0FE8058
:1047D00020682169C518CDE90831284629460A789C
:1047E000082A03D03AB100F8012B02E0A84288BFA2
:1047F00001380131F3E7854980F800A028461AAA5C
:1048000006F0CFF9002800F0E080DDF824A007468C
:104810000796BAF1000F12D0DAF80060002EB04609
:1048200018BF4FF0010812D0DAF8080020B138465E
:104830003146FBF71EFDD0B10AF1100AE9E70998ED
:1048400080B3079E4FF000084FF0000A06E00120F9
:104850000999079E4FF0000A29B120B128466CA1A2
:10486000FBF707FDC8B1B8F1000F1ED0ADE06749F6
:104870000A9600201AAA002606F093F90127E0B153
:104880000AA90F2F41F8270036D0604900201AAA44
:1048900006F087F901360137F1E70998FFF7DEFEE8
:1048A00018B192E0079E4FF0000A002F00F08D80B3
:1048B00038460021FFF7AAFE87E0DAF80400002856
:1048C00070D001783F2902D1417800296AD0039045
:1048D000FBF7A9FC029003982A21FBF79AFC68B128
:1048E000DDE9022E0EEB02010139884266D1012A70
:1048F00064D0901E009005E0012160E0029ADDF88E
:104900000CE000920EEB020000234FF02E0C019001
:10491000002E44D0934205DA1EF803002A2818BF5F
:10492000844604E0019810F8010C2A2846D1ACF125
:104930007300022104280CD8CDE904C3DFE800F09D
:10494000033F20101D0006980421012250F8230087
:104950001BE0BCF1620F1FD0BCF1660F1CD02EE033
:104960000698002250F8230008F0CFF90221DDE973
:1049700004C3DDE9022E78B921E00698042101E0A4
:104980000698012150F82300002208F0BEF9DDE965
:1049900004C3DDE9022E88B1013E0133B8E7009877
:1049A00087420BDDDAF8082038460AA99047DAF882
:1049B00000000027B0FA80F0400949E702212846AC
:1049C000FFF724FE079E4FF0000A089BB9F10A0F7B
:1049D00008BF5B4507D00136A0680BF1010B84F8D6
:1049E00004905B46E0E620790D28F5D0F3E7FF263A
:1049F00008E0FE2606E02BB1C21A2068A260C118AA
:104A0000FBF7D5FB70B21BB0BDE8F08FA8EB000838
:104A100068656C700000000080B507A008F062FCBB
:104A200004F0D4FD18B1BDE8804004F0EFBB0548A8
:104A3000BDE8804009F094B9434C525F535441544F
:104A4000533A2000FFEB0008F8B5FDF72EFAFDF70A
:104A50006EF905460AA009F083F90C4F6E46AC4288
:104A60000DD82046314605F0DFF930B9009A3846B6
:104A7000214608F037FC0134F1E704F0C7FBF8BD2C
:104A800044554D505F524547533A0D00ADEB000879
:104A90001CB501A804F06EFF044608A008F022FC33
:104AA0001CB1204604F0B2FB1CBD0198FBF745FE8B
:104AB000024605A00B4608F015FC1CBD4745545F97
:104AC000525353493A200000252E31662064426D2E
:104AD0000D0A0000E0B50EA008F004FC0DF107007F
:104AE0000DF106010DF1050201AB04F09DFD10B1C1
:104AF00004F08CFB8CBD9DF804009DF805309DF8FA
:104B000006209DF80710009004A008F0EBFB8CBD78
:104B10004745545F434849503A20000025642C25FE
:104B2000642C25642C25640D0A0D0A000248416896
:104B300002A008F0D7BB00BF741C00204745545F9B
:104B400044455649443A2025640D0A0004484FF470
:104B50007A718068B0FBF1F102A008F0C3BB00BF1E
:104B6000741C00204745545F465245513A20257534
:104B70000D0A00001CB5054800F16004006F1ECC52
:104B8000CDE9004002A008F0ADFB1CBD741C002064
:104B90004745545F4A414D504152414D533A20538D
:104BA000544152543D25642C53544F503D25642CA0
:104BB000535445503D25642C54494D453D25642CA6
:104BC0004D4F443D25640D0A0000000010B50F4C08
:104BD0000FA0627B216908F085FB154808F082FB75
:104BE000207D04289ABF144951F82000114809F08B
:104BF000B7F8124808F076FB617D4448424A012923
:104C000008BF1046BDE8104009F0AAB8741C002087
:104C10004745545F4D4F44504152414D533A200D4A
:104C20000A42573D25750D0A53463D25640D0A007D
:104C30006BEC0008E0EB00080CDE00086FEC0008ED
:104C4000024890F8881002A008F04CBB741C0020A9
:104C50004745545F504B54464F524D41543A2025DE
:104C6000640D0A002DE9F041124DDFF87C8A12A094
:104C70002A8BA97DEB7EC047A97E214E1F481E4A84
:104C8000012908BF1046B0471E48C047287F1F4C67
:104C90001D4F0128204608BF3846B0471C48C04772
:104CA000687F3146012808BF3C462046BDE8F041F8
:104CB000084700BF741C00204745545F5041434BD8
:104CC0004554504152414D533A0D0A53594E433DBC
:104CD0003078253032582C5052455F4C454E3D259A
:104CE000640D0A5041595F4C454E3D25640D0A48FC
:104CF00045414445523A00002FEC000839EC0008C9
:104D000061DD00085CEC000803EC0008FAEB000829
:104D100061EC00080248D0F88C1002A008F0E2BA5A
:104D2000741C00204745545F5041495249443A2081
:104D300025640D0A00000000024890F90C1002A042
:104D400008F0D0BA741C00204745545F504F5745B7
:104D5000523A2025642064426D0D0A00BFB5094D0A
:104D6000D5F88400FBF7E9FCD5E91D4241EC100BB6
:104D7000D5E91F3504A021468DED020B009508F002
:104D8000B1FABFBD741C00204745545F5343414EE8
:104D9000504152414D533A2053544152543D2564A1
:104DA0002C53544F503D25642C535445503D25649D
:104DB0002C54494D453D25642C525353493D252ED5
:104DC00031660D0A00000000E0B50AA008F08AFA7A
:104DD000684604F02BFE10B104F018FA8CBDBDF843
:104DE0000430BDF80220BDF8001005A008F07AFAE2
:104DF0008CBD00BF4745545F53544154533A200083
:104E0000504B543D25642C464552523D25642C4858
:104E10004552523D25640D0A00000000E0B50AA08D
:104E200008F060FA0DF107000DF1060104F04CFCEA
:104E300010B104F0EBF98CBD9DF806209DF8071029
:104E400005A008F04FFA8CBD4745545F53544154B8
:104E500055533A20000000003078253032582C306D
:104E600078253032580D0A0080B505480068FBF7F8
:104E700064FC024603A00B46BDE8804008F032BA4D
:104E8000640800204745545F564241543A20252E7D
:104E900032660D0A0000000002A001210022012359
:104EA00008F020BA4745545F56455253494F4E3A91
:104EB0002048573D25642C46573D25642E25640D1A
:104EC0000A00000080B509A008F00CFA0B48007831
:104ED00004289ABF0CA151F8200009A008F002FA9A
:104EE0007F48BDE8804008F03BBF00BF4745545FA6
:104EF000574F524B4D4F44453A2000005903002074
:104F0000554E4B4E4F574E00E6EC000889ED000819
:104F100098ED000891ED000898EE00081CB50DF121
:104F2000070004F0CBFD044606A008F0DBF91CB135
:104F3000204604F06BF91CBD9DF80710054808F0E9
:104F4000D1F91CBD4745545F584F5452494D3A2042
:104F500000000000FCEF000880B5FFF779F802467A
:104F600002A00B46BDE8804008F0BCB94745545F3D
:104F70005549443A203078256C6C580D0A000000E1
:104F80009B480349034B4FF48072FFF758BB00BFA7
:104F90004010002030000020B0B50DA00C4608F0F5
:104FA000A1F96068FFF747FB0546A068FFF743FBE0
:104FB000AAB2C1B2104604F0E3FD18B1BDE8B0409A
:104FC00004F024B99748BDE8B04008F0C9BE00BF5E
:104FD000494E49545F434F4E4649473A200000002E
:104FE000BCB5FCF7DEFD044613A008F07BF9E24DEA
:104FF00005F160030FCB64B195F87040009405F0A3
:105000003BFA58B907F09EFCB64803210170B64838
:105010000EE00024009405F02FFA18B1BDE8BC4062
:1050200004F0F4B807F088FCAE4801210170B048E4
:10503000BDE8BC4008F094BE4A414D3A2000000053
:105040002DE9F84348681F4F0E46B8470546B0683B
:10505000B8470446F068B84706461BA008F042F976
:10506000E0B27E2888BF7E24E0B2310648BF7F26AA
:10507000F1B28142184898BF661C40F6D53115F050
:10508000FC0F18BF03250088884214D1DFF8508038
:10509000EFB2F6B20FF24C09E5B2AE420DD338468C
:1050A0002946FDF7C1FA0346484639462A4608F024
:1050B00019F90134F0E7DFF824804046BDE8F843F1
:1050C00008F04EBE3746000850414E5F44554D50E3
:1050D000524547533A200000741C002007EC00089A
:1050E000A6EB00080D0A25642C3078253032582CA8
:1050F0003078253032580000B0B5FCF7D6FEFCF70A
:1051000016FE05460FA008F0EDF8CB4840F6D53165
:105110000088884211D114F0FC0F18BF0324EDB2AF
:10512000E4B229462046FDF77FFA03462748214688
:105130002A46BDE8B04008F0D5B82348BDE8B040E5
:1051400008F00EBE50414E5F524541445245473A29
:1051500020000000F8B54868164F0E46B8470446D0
:10516000B068B8470546F068B847064612A008F090
:10517000B9F8EB4840F6D5310088884214D114F0D4
:10518000FC0F18BF0324EDB2F6B2E4B22946324652
:105190002046FDF7EEFC0D4821462A46334601B075
:1051A000BDE8F04008F09EB80748BDE8F84008F0B8
:1051B000D7BD00BF3746000850414E5F5752495493
:1051C000455245473A20000007EC0008B9EB0008BB
:1051D000E0B5FDF7FFFD8DF80700C0B238B1FF283C
:1051E00005D003480DF107010122FFF7BDFA8CBD80
:1051F000101E002080B507A008F074F804F08CFCA5
:1052000018B1BDE8804004F001B80648BDE8804010
:1052100008F0A6BD524144494F5F494E49543A20D7
:1052200000000000FFEB00081CB5FCF7BAFC0446C8
:1052300008A008F057F801A9204604F0F5FD10B1C8
:1052400003F0E4FF1CBD019A0548214608F04AF826
:105250001CBD00BF524541445F5245473A20000003
:10526000ADEB000880B503A008F07AFDBDE88040F2
:10527000FEF7F8BE52455345543A204F4B0D0000FF
:10528000B0B5FCF78EFC044613A008F02BF8144DC3
:1052900005F174030FCB5CB195ED210A04F038FEE3
:1052A00058B905F06FFA0F48022101700E480EE060
:1052B0009FED0E0A04F02CFE18B1BDE8B04003F0DB
:1052C000A5BF05F059FA0748012101700848BDE85B
:1052D000B04008F045BD00BF5343414E3A200000A6
:1052E000741C00205903002055EC00080000000049
:1052F00015EC000870B548680C46FFF79CF90F4D97
:105300002860286808B901202860A068FFF793F991
:105310000B4E3060E068FFF78EF90A49C1F88C0047
:10532000306863289CBF6420306005F06DF83268F7
:10533000296805A0BDE8704007F0D4BF74210020A3
:1053400010030020741C002053544152545F5458E1
:105350003A2025642C25640D0A00000010B5FCF7E6
:1053600020FC054C606007F095FF616803A0BDE874
:10537000104007F0B7BF00BF741C00205345545FB6
:1053800044455649443A2025640D0A00B0B54868A2
:105390000C46FFF750F904F077FE05460BA007F026
:1053A000A1FF25B12846BDE8B04003F02FBF6068DB
:1053B000FFF741F94FF47A71074A48439060B0FB18
:1053C000F1F106A0BDE8B04007F08CBF5345545F33
:1053D000465245513A200000741C002025750D0AE4
:1053E000000000002DE9FE434868DFF848900E46B3
:1053F000C8478046B068C8470746F068C8470546B2
:105400003069C84704467069C8470B4905EB080274
:105410002B46974288BF3A46CDE900400867C1E96C
:105420001882C1E91A5405A0414607F05BFFBDE8A8
:10543000FE8300BF37460008741C00205345545FAC
:105440004A414D504152414D533A205354415254D8
:105450003D25642C53544F503D25642C53544550E6
:105460003D25642C54494D453D25642C4D4F443D0C
:1054700025640D0A000000002DE9F8434868234F19
:105480000C46B8470646A068B8478046E068B8476B
:1054900005462069B84704461DA007F023FFB6B2B1
:1054A0005FFA88F7EAB2E3B23046394604F09EFE6E
:1054B00018B1BDE8F84303F0A9BEDFF8649019A065
:1054C00031463A4689F8154089F8145089F80D801C
:1054D000C9F8106007F006FF174807F003FF99F8B6
:1054E000140004289ABF164951F82000134808F008
:1054F00037FC144807F0F6FE99F8150001280CBF98
:105500007D487E48BDE8F84308F02ABC37460008CD
:105510005345545F4D4F44504152414D533A200042
:10552000741C00200D0A42573D25750D0A53463D57
:1055300025640D0A000000006BEC0008E0EB000899
:105540000CDE00086FEC000810B5FCF72AFB0446DF
:1055500008A007F0C7FE0A48007804F08DFE18B1D5
:10556000BDE8104003F052BEE1B206A0BDE8104015
:1055700007F0B8BE5345545F4F504D4F444520008F
:105580005D1A002025640D0A0D0A000080B5FCF7A5
:1055900008FB80F30201044880F8881003A0BDE8EE
:1055A000804007F09FBE00BF741C00205345545F2D
:1055B000504B54464F524D41543A2025640D0A0039
:1055C0002DE9F04F85B04868344E0D46B047074688
:1055D000A868B0470446E868B04781462869B047E4
:1055E00083466869B0478246A869B0478046C0B222
:1055F0005FFA8AF1FDB2A6B25FFA8BF3CDE9001033
:1056000004975FFA89F72846314603944C463A4698
:1056100004F066FE814622A007F064FEB9F1000F97
:1056200005D0484605B0BDE8F04F03F0EFBDDFF808
:1056300084900398294632463B46A9F818000498FE
:1056400089F81B40284C89F81D8089F81CA089F82E
:105650001AB089F8160018A0A04799F81A10244823
:10566000224A012908BF104608F07AFB2148A047CA
:1056700099F81C10D848204A012908BF104608F0A4
:105680006FFB1F48A04799F81D0001280CBF1A485E
:10569000D14805B0BDE8F04F08F062BB37460008BE
:1056A0005345545F5041434B4554504152414D5333
:1056B0003A200000741C00200D0A53594E433D301F
:1056C00078253034582C5052455F4C454E3D25646A
:1056D0000D0A5041595F4C454E3D25640D0A484521
:1056E000414445523A000000E5D200082FEC000882
:1056F00039EC00085CEC000803EC0008FAEB000849
:1057000061EC000810B5FCF74CFA064CC4F88C00AC
:1057100007F0C0FDD4F88C1003A0BDE8104007F0DE
:10572000E1BD00BF741C00205345545F50414952F5
:1057300049443A2025640D0A0000000070B548680D
:10574000FEF775FF44B20546204604F0EBFC064622
:1057500008A007F0C7FD26B13046BDE8704003F051
:1057600055BD07482146057306A0BDE8704007F007
:10577000B9BD00BF5345545F504F5745523A2000C2
:10578000741C002025642064426D0D0A0000000096
:105790002DE9FF414868234E0F46B0478046B86860
:1057A000B0470446F868B04705463869B047064632
:1057B0000A281D48D8BF0A268642A8BF064678692F
:1057C000FEF732FF05EB0807BFEE001A1748BC4290
:1057D000B4EE410A88BF2746C0E91D87C0E91F56BD
:1057E000F1EE10FAC8BFB0EE410A9FED111AB4EE07
:1057F000410AF1EE10FAB8BFB0EE410A80ED210A7D
:1058000010EE100AFAF799FF41EC100B09A041467F
:105810003A462B4600968DED020B07F063FDBDE87E
:10582000FF8100BF37460008A0860100741C0020DD
:105830000000FFC25345545F5343414E5041524113
:105840004D533A2053544152543D25642C53544FE8
:10585000503D25642C535445503D25642C54494DEE
:10586000453D25642C525353493D252E31660D0A82
:1058700000000000B0B5FCF794F9C4B2204604F073
:105880007FFD054607A007F02DFD25B12846BDE8A0
:10589000B04003F0BBBC07482146BDE8B04007F06C
:1058A00021BD00BF5345545F584F5452494D3A20D3
:1058B00000000000FCEF000806480178012911BF34
:1058C00005A0094900220A7004BF027007A008F071
:1058D00047BA00BF5403002053544F505F54583A06
:1058E000204552524F520D005503002053544F5043
:1058F0005F54583A204F4B0D0000000080B508A0BF
:1059000007F0F0FC07F0C6FC20B140B2BDE88040D3
:1059100003F07CBC0648BDE8804008F021BA00BF17
:1059200053544F52455F434F4E4649473A2000007B
:10593000FFEB000810B51AA00C4607F0D3FC606816
:10594000FEF779FEC0B204F067FD18B1BDE8104063
:1059500003F05CBC154800780138032817D8DFE84D
:1059600000F00211070C12480421017017A012E088
:105970000F48042101700FA00DE00D4804210170B3
:1059800013A008E00A48042101700DA003E00848B4
:10599000012101701048BDE8104008F0E1B900BFD6
:1059A00054585F53545245414D3A20005A03002049
:1059B00059030020303130312E2E2E0D0000000012
:1059C000505245414D424C450D00000043570D00DB
:1059D000504E390D00000000FAEB0008B0B5FCF79E
:1059E00064FAFCF7A4F9054609A007F07BFC204601
:1059F000294604F0A5FD18B1BDE8B04003F006BC8F
:105A0000064821462A46BDE8B04007F06BBC00BFFF
:105A100057524954455F5245473A2000ADEB0008C4
:105A20002DE9F041174DDFF8748A0446002600275F
:105A30006878411CC9B28F420DD2874203D2A86850
:105A4000B0B1304401E0404612D1C16820468847D9
:105A500024360137ECE705F10C003721FAF7CEFBCD
:105A600005F113002021FF22FAF7C1FBBDE8F08108
:105A700005480068C00701D1BDE8F08100BEBDE85F
:105A8000F08100BF20040020F0ED00E0BCB5FCF781
:105A900061FB01200EA2FCF78BF80E4D287DFCF770
:105AA00029F801ACFCF789FBFCF7A3FBFAD10198BC
:105AB00000210422FEF7A2FD28750190C2B2697B85
:105AC0006B7D288A04F092FB01F0AEF9BCBD00BFEB
:105AD00043520000741C0020B4490A6860F38F32FE
