:020000040800F2
:1000000068290020850100084B1A0008BB11000870
:10001000491A00083F100008F53B000800000000E6
:10002000000000000000000000000000E5300008B3
:100030004110000800000000A12D0008813B0008CD
:100040009F0100089F0100089F0100089F01000810
:100050009F0100089F010008851000089F0100080B
:100060009F0100089F0100089F0100089F010008F0
:100070009F0100089F0100089F0100089F010008E0
:100080009F0100089F0100083B1000089F01000825
:100090009F0100089F0100089F0100089F010008C0
:1000A0009F0100089F0100089F0100089F010008B0
:1000B0009F0100089F0100089F0100089F010008A0
:1000C0009F0100089F0100089F0100089F01000890
:1000D0009F010008DD3B00089F0100089F01000808
:1000E0009F0100089F0100089F0100089F01000870
:1000F0009F0100089F0100089F0100080000000008
:10010000000000009F0100089F010008000000009F
:100110009F0100089F01000800000000000000008F
:100120009F0100089F0100089F0100089F0100082F
:1001300000000000000000000000000000000000BF
:1001400000000000000000000000000000000000AF
:100150009F0100089F0100089F0100089F010008FF
:100160009F0100089F010008E13B00089F01000873
:10017000DFF80CD000F0E0FC004800478D78000864
:10018000682900200648804706480047FEE7FEE74A
:10019000FEE7FEE7FEE7FEE7FEE7FEE7FEE7FEE737
:1001A000853B00087101000810B5431A934209D23B
:1001B0008318881803E010F8011D03F8011D521E72
:1001C000F9D210BD40EA01039B0703D009E008C93A
:1001D000121F08C0042AFAD203E011F8013B00F80C
:1001E000013B521EF9D210BDD2B201E000F8012B42
:1001F000491EFBD270470022F6E710B513460A46A7
:1002000004461946FFF7F0FF204610BDCAB2401E53
:1002100010F8011F8A4202D00029F9D1002070474E
:10022000421C10F8011B0029FBD1801A704730B521
:1002300003461D783DB10A4612F8014B1CB1AC4291
:10024000FAD15B1CF5E7181A30BD30B50546002021
:1002500008E00A4602E0A34207D0521C1378002BA4
:10026000F9D1401C2C5C002CF3D130BD2DE9F041BC
:100270000E460546002400E0641C285D00F00FFBDC
:100280000746305D00F00BFB381A02D1295D0029CA
:10029000F2D1BDE8F0812DE9F04791460F46804646
:1002A0000446002614F8015B2DB100F0EBFA00685B
:1002B000405DC007F6D12B2D02D02D2D18D0641E25
:1002C0004A463946204600F0F0FA27B13968A14283
:1002D00001D1C7F8008071054FF002040BD54042F0
:1002E000002803DD0BF0F6FE0460A007BDE8F087F0
:1002F00046F48066E4E70028F8DA0BF0EBFE0460D1
:100300006FF00040F2E72DE9F05F93460F4680461C
:10031000044600260BF0DEFED0F80090824614F86A
:10032000015B2DB100F0AEFA0068405DC007F6D168
:100330002B2D02D02D2D1AD0641E0021CAF80010DA
:100340005A463946204600F0B0FA014627B13868CF
:10035000A04201D1C7F80080DAF80000022809D0D5
:10036000CAF80090700505D54842BDE8F09F46F4F4
:100370008066E2E70846F8E72DE9FE4F804681EA0D
:100380000300C00F0C46009021F0004123F000450F
:10039000B8EB0200A94105D24046214690461C46D2
:1003A0000B46024623F00040104347D0270DC7F309
:1003B0000A00C3F30A510290401A019040286BDAF8
:1003C000C3F3130040F4801B0098924620B1002331
:1003D000D2EB030A63EB0B0B01985946C0F14002C4
:1003E000504600F01DFA06460D4650465946019A01
:1003F00000F035FA10EB08006141002487EA115241
:1004000084EAE7731A4340D0009A62B3019A012A42
:100410004FEA075215DC001B61EB02014FF000426E
:1004200002EA0752CDE90042001C41F58011324634
:100430002B4600F0D3FA03B0BDE8F08F40462146CA
:10044000F9E7001B61EB0201001C41F58013001865
:100450005B412018A2F5001747EB030140EAD57075
:10046000B6196D4111E06D084FEA360645EAC075D0
:100470004FEA0752001B61EB0201001C41F580119D
:1004800049084FEA30000019514132462B4603B06B
:10049000BDE8F04F00F093BA00980122400000231D
:1004A000D0EB020263EBE073009821464FEAE07460
:1004B000B8EB000061EB0401E9E783F000435BE780
:1004C00081F0004158E72DE9FE4F81EA030404F072
:1004D000004421F0004100944FF0000B23F0004352
:1004E00050EA01045ED052EA03045BD0C3F30A541D
:1004F000C1F30A552C44A4F2F3340194A0FB025436
:10050000C1F3130141F48011C3F3130343F48013C7
:1005100001FB024400FB034E840A970A44EA81541B
:1005200047EA8357A4FB076802958D0A05FB0785F8
:100530004FEA932C04FB0C542705029D4FEA065802
:1005400047EA1637B5EB08056EEB070C870E920EDF
:1005500047EA811742EA8312A7FB0201B6EB0B01BF
:1005600064EB00042B0D43EA0C335E1844EB1C5083
:10057000DA465146E7FB0201C5F313044FEA0B3399
:1005800043EA14534FEA0432019C43EA0603A4F100
:100590000C040294009CCDE900B400F01FFA03B0F3
:1005A000BDE8F08F00200146F9E72DE9F04D81EA22
:1005B000030404F0004B21F0004514464FF0000AFC
:1005C00023F0004150EA050220D054EA01021DD078
:1005D000C5F30A570246C5F31303C1F31300C1F371
:1005E0000A5640F4801543F48013A7EB0608101B4D
:1005F000D64608F2FD3873EB050002D308F1010876
:1006000001E092185B41B8F1000F03DA00200146C7
:10061000BDE8F08D00204FF48011064684460EE0C0
:10062000171B73EB050705D3121B63EB050306438A
:100630004CEA010C49084FEA300092185B4150EA3D
:100640000107EDD152EA030012D082EA040083EAE6
:100650000501084305D0101BAB4106D2012200233F
:1006600006E000224FF0004302E06FF00102531059
:100670001AEB06004CEB085110EB0A0041EB0B01A2
:10068000BDE8F04D00F09BB90EB5C10F80EAE070F7
:100690000844CA07002140F233438DE80E000A46A1
:1006A0000B4600F09BF903B000BD0EB540F233419C
:1006B00002910021CDE900110A460B4600F08EF9A7
:1006C00003B000BD70B5C1F30A5201F0004500242B
:1006D000C1F3130140F2FF3341F480119A4201DA71
:1006E000002070BD40F233439A42A2F2334203DC51
:1006F000524200F0A4F800E090402C43F1D0404278
:1007000070BDC1F30A5210B5C1F3130140F2FF33BB
:1007100041F480119A4201DA002010BD40F23343C7
:100720009A42A2F2334203DC524200F088F810BD34
:10073000904010BD00F0004230F000400AD0C10DE2
:1007400001F56071C0F3160042EA0151C20840078A
:100750001143704700200146704701F0004330B458
:1007600021F0004150EA010206D00A0DA2F56072A4
:10077000C1F31301002A02DC30BC00207047440F93
:1007800044EAC104C100E01830BC00EBC25000F0E4
:10079000DFB830B50B46014600202022012409E0D5
:1007A00021FA02F59D4205D303FA02F5491B04FA2A
:1007B00002F52844151EA2F10102F1DC30BD2DE93D
:1007C000F05F0546002092469B46884606468146D5
:1007D00040241BE0284641464746224600F02FF8B9
:1007E00053465A46C01A914110D311461846224624
:1007F00000F016F82D1A67EB01084F46224601203B
:10080000002100F00DF817EB00094E41201EA4F165
:100810000104DFDC484631462A464346BDE8F09FE6
:10082000202A04DB203A00FA02F1002070479140B0
:10083000C2F1200320FA03F3194390407047202AA5
:1008400004DB203A21FA02F00021704721FA02F37A
:10085000D040C2F120029140084319467047202A37
:1008600006DBCB17203A41FA02F043EAE07306E0D8
:1008700041FA02F3D040C2F12002914008431946E8
:100880007047000000487047B0CB000810B5044620
:10089000FFF7F8FF0068005D00F0010010BDA0F157
:1008A0004101192900D8203070472DE9F05F8246B8
:1008B0000078002715468B460AF10104B946302816
:1008C00001D09DB113E014F8010B0127782803D063
:1008D000582801D045B10AE00DB1102D07D10027ED
:1008E000102514F8010B02E0082500E00A25002677
:1008F000B0460EE005FB080005FB06F1012701EB01
:1009000010461FFA80F8B6F5803F00D3B94614F8B8
:10091000010B294600F028F90028EBDABBF1000FA3
:1009200005D00FB1641E00E05446CBF80040B9F189
:10093000000F06D00BF0CEFB02210160C81EBDE8FF
:10094000F09F48EA0640FAE70023036000F039B957
:100950000029A8BF7047401C490008BF20F00100D3
:10096000704710B4B0FA80FC00FA0CF050EA0104B1
:1009700004BF10BC704749B1CCF1200421FA04F443
:1009800011FA0CF118BF012121430843A3EB0C011C
:10099000CB1D4FEA00614FEA102042BF002010BC7F
:1009A000704700EBC35010440029A4BF10BC70472F
:1009B000401C490008BF20F0010010BC704710B572
:1009C000141E73F1000408DA401C41F10001921872
:1009D0005B411A4301D120F0010010BD2DE9F04D1B
:1009E00092469B4611B1B1FA81F202E0B0FA80F270
:1009F00020329046FFF714FF04460F4640EA0A00F3
:100A000041EA0B0153465A46084313D0114653EAB4
:100A1000010019D0C8F140025046FFF710FF05460B
:100A20000E46504659464246FFF7FAFE084305D0A7
:100A3000012004E020463946BDE8F08D0020054342
:100A400046EAE0762C4337430A986305E40AA0EBB4
:100A500008000022FD0A44EA47540A3002D500206B
:100A60000146E9E7010510196941DDE9084500196A
:100A70006941BDE8F04DA2E770B521F000430343A2
:100A80000CD0C1F30A550024D5EB040564EB040334
:100A9000D617AD1AB34102DB0020014670BD201805
:100AA00041EB025170BDC1F30A52C1F3130140F290
:100AB000FF3341F480119A4202DA00200146704768
:100AC00040F233439A42A2F2334202DC5242FFF731
:100AD000B6BEFFF7A5BE000030B5041E71F10004DC
:100AE00004DB4FF00044404264EB0101141E73F13B
:100AF000000405DB1C464FF00043524263EB040345
:100B00008B4208BF824230BD30B5041E71F1000433
:100B100004DB4FF00044404264EB0101141E73F10A
:100B2000000405DB1C464FF00043524263EB040314
:100B3000994208BF904230BD1CB509480090094851
:100B400001900546009C06E0E06840F0010394E84F
:100B5000070098471034AC42F6D3FFF70DFB0000B6
:100B6000A0DE0008C0DE00083A2800D2303820F0AD
:100B70002002412A01D3A2F13700884201D34FF06D
:100B8000FF3070470FB40B0010B58AB00FA9009169
:100B90000E994FF00004234ACC60214CCDE9064267
:100BA00000D004236FF00042CDE901321E4A0892C2
:100BB00002466B46002000F0CDF80AB010BC5DF88C
:100BC00014FBF0B585B007464FF0FF300091CDE93A
:100BD00001011E46002015460C4604903B466A461D
:100BE000314604A8FFF7CEFF04990346601825B1EB
:100BF00009B1024600E022462A6000290ED0002BEF
:100C000002DD0099814209D00094001BCDE9010466
:100C10003B466A46314604A8FFF7B4FF05B0F0BD75
:100C20008D0F0008AB0F00088D0800082DE9FF4F5D
:100C3000087883B09946FF2805D0491C2D2804D098
:100C40000024002008E000200BE00124F9E700EB7D
:100C5000800003EB4000491C0B78FF2BF7D104B157
:100C6000404200230293147819461D462D2C01D0D2
:100C70002B2C04D1521C2D2C13D000240294AA46F4
:100C80001478FF2C0FD00A25A3FB057801FB058102
:100C90004FF0000C03FB0C11521CE3194AEB01014D
:100CA000EEE70124EAE7814453EA010002D019F596
:100CB000C87F06DA03980021C0E9001107B0BDE83B
:100CC000F08F0025AE4E2F46DFF8B882184600F0B0
:100CD0007DF9CDE90001B9F1000002DAC9F10004A3
:100CE00000E004460023A74A1AEB030B42EB045A28
:100CF00012E0E00707D02A46334638464146FFF760
:100D0000E2FB074688462A46334610461946FFF757
:100D1000DAFB05460E466410002CEAD1DDE900013D
:100D2000B9F1000F5A46534606DAFFF73EFC3A4641
:100D30004346FFF73AFC05E0FFF7C5FB3A4643465A
:100D4000FFF7C1FB029A0AB181F00041039AC2E9A0
:100D50000001B3E72DE9FF4F1F468DB0D7E90146EB
:100D60004FF0FF382E2045464FF000090B90B9692F
:100D70006D1C0E988847396A824688470028F6D14C
:100D8000BAF1FF3F0AD024F4D064002E11DDBAF18D
:100D90002B0F08D0BAF12D0F0BD102E0404611B055
:100DA0008DE744F48064B9696D1C0E9888478246CB
:100DB000761E6946600501D52D2000E02B208DF8B8
:100DC000000001F1010B0DF1200809E0B9696D1C6B
:100DD0000E98884782460F9844F40074761E05608A
:100DE000002E02DDBAF1300FF0D00B998A453ED1CA
:100DF00044F0800406E00F99681CA9F1010944F44D
:100E000000740860B9696D1C761E0E98884782468A
:100E10003028F0D02BE00B998A4505D1200603D469
:100E200044F08004761E18E050460BF0C9FA08B36F
:100E30000DF11302761EAAF1300044F400749345BC
:100E400006D20BF8010B200607D5A9F1010003E03B
:100E5000200602D409F101008146A00502D50F99B0
:100E6000681C0860B9696D1C0E9888478246002E80
:100E7000D1DC53E0002E51DDBAF1650F02D0BAF19A
:100E8000450F4BD1A00549D5B9696D1C24F44074B8
:100E9000761E0E9888478246002E0CDD2B2804D043
:100EA000BAF12D0F07D144F48074B9696D1C0E9806
:100EB00088478246761EE00501D52D2100E02B21D2
:100EC00008F8011BCDF82C8021E00DF12901761ED8
:100ED00044F4007488450CD2AAF1300010F0FF00F1
:100EE00088F8000002D10B99884509D908F101085A
:100EF00006E0E00501D5244801E042F20F7081468A
:100F0000B9696D1C0E98884782460F980560002EBF
:100F100004DD50460BF054FA0028D6D1F9690E983A
:100F20008847FF208BF8000088F80000002006901A
:100F300007904B466A4608A906A8FFF777FEA0056A
:100F400002D46FF001002AE714F0240F0AD0E00762
:100F500014D1DDE906123868031D3B600068C0E962
:100F600000120BE0DDE90601FFF7F7FB0146E007A1
:100F700004D13868021D3A600068016028460EE717
:100F8000000014400000F03FF1D8FFFF426842B17A
:100F9000016811F8013B23B1521EC0E90012184646
:100FA00070470121C160881E704742685AB1C3680A
:100FB000016843B983688B4205D0491E521CC0E9C1
:100FC0000012002070474FF0FF3070470EB540F21E
:100FD000334202920022CDE900221346FFF7FEFCC5
:100FE00003B000BD70B58C1810F8015B15F0070355
:100FF00001D110F8013B2A1106D110F8012B03E0B2
:1010000010F8016B01F8016B5B1EF9D12B0705D4B9
:101010000023521E0DD401F8013BFAE710F8013B02
:10102000CB1A921C03E013F8015B01F8015B521E1E
:10103000F9D5A142D8D3002070BD02F051BEFEE721
:10104000704700001CB5012408A2002020211023B5
:10105000009400F087F80A4820211023009400F142
:101060000B02002000F07EF81CBD00BF20202020D5
:1010700020202020202020202020202000000000F0
:101080002C04002080B5012004F09CFF012818BF2B
:1010900080BD012004F092FFBDE8804007F09EBDB6
:1010A0002DE9F84FC0F3C01440B2102B20EAE076CF
:1010B0000A9801EB4409A2F1200126D0082B4BD15C
:1010C000264A00284FF00000C9B24FF0000B08BFBD
:1010D0004FF0FF305FFA80FA02EBC108BBF1080F56
:1010E0003AD018F80B1009EB0B000027C4B281EAC4
:1010F0000A05082F06D005FA07F1F01900F03DFEA9
:101100000137F6E70BF1010BE8E70027C9B2002829
:101110004FF000004FEA011808BF4FF0FF305FFAB0
:1011200080FB102F18D00E4A48EA070109EB070090
:101130004FF0000AC4B2515C81EA0B05BAF1080F06
:1011400008D005FA0AF106EB0A0000F016FE0AF1D3
:10115000010AF3E70137E4E7BDE8F88FC8CB0008E0
:10116000C0CE00082DE9FC47DDF828801C469146DA
:101170000E460746102B06D0082C18BFBDE8FC878A
:101180004FF0060A01E04FF0080A0025E8B219F80E
:10119000002072B1F8B2F1B22346CDF80080FFF71B
:1011A0007FFF5744F8B2782884BF264400270135D2
:1011B000ECE7BDE8FC4701F093BEFEE7B0B5064D95
:1011C00072B66C780CB104F0C9FC0020687003A002
:1011D000005D62B6B0BD00BF0804002000313233AC
:1011E0004134353642373839432A302344400000F1
:1011F000FEB501AC204605F081F800204A4D184E9E
:10120000022721468DF8080041F204008DF80B708A
:10121000ADF809004FF4805001902846B0474FF4D4
:10122000005000F0DFFC4FF4804000F0DBFC4FF496
:10123000004000F0D7FC01F01BFE1820214601976A
:10124000ADF809002846B047042000F0CBFC4FF46D
:10125000806000F0C7FC4FF4006000F0C3FCFEBDEE
:101260004D6300082DE9F04701F002FE2D4D2E4997
:1012700028788A46032805D82CA131F8101050464A
:1012800005F038F84FF000092AA70FF2B008002641
:10129000042E21D037F81610504605F0ABF8B0FAFE
:1012A00080F14A09297805EB810333441C79944283
:1012B00002D183F814900DE01C7D01341C75E4B25A
:1012C000142C07D31A7183F8149018B908EB810015
:1012D000805D68700136DBE728780130C1B20329F0
:1012E00088BF002028705046082105F083F8B0FA26
:1012F00080F1AA7849098A4203D10020E870BDE84C
:10130000F087EA780132EA70D2B2142A03D3A970C6
:101310000021E97008B1BDE8F08711206870BDE8D0
:10132000F08700BF08040020000C014000100020DE
:1013300000400080020004000004000801020304D1
:1013400005060708090A0B0C0D0E0F10E0B501ABDE
:1013500000200021002205F0F7FCAD49002005F037
:10136000C1FC0198410702D5064901220A70010714
:1013700002D5054901220A70000602D50348012161
:1013800001708CBD0F1400200E140020F0110020FD
:1013900010B504460020214605F0E0FA48B90D4892
:1013A0000E490D4A844238BF1146002005F0BEFAAE
:1013B00000B110BD0A480B490B4A84420B4838BFA4
:1013C0000A460B49844228BF11460020BDE8104060
:1013D00005F0DEBA00B33F7166D8000858D800089F
:1013E00000943577EED40008DAD400080046C32311
:1013F000C6D4000810B5072842D8DFE800F0042A58
:10140000161C0D323A2320480024002100220470CB
:10141000002005F027FD34E01B48042100F0FDFB0F
:101420006FF07F4105F008FB2BE01748022100F028
:10143000F4FB012112E01448032100F0EEFB05F05B
:10144000FBFC1EE01048072100F0E7FB05F039FB2C
:1014500017E00D48012100F0E0FB002105F01FFD21
:101460000FE00948052100F0D8FB002105F018FB2A
:1014700007E00548062100F0D0FB05F018FB00E06E
:101480000424204610BD00BF0D14002070B586B0A6
:101490005D48CDF80E005D48CDF80A00002005F04B
:1014A00096FCB0B94FF4FA7004F034FB002005F05C
:1014B0001BFD70B90020012105F0C8FC48B90DF1F1
:1014C0000A01002005F085FC18B9002005F000FC99
:1014D00008B106B070BDCD4DA87F38B10020022103
:1014E0004FF4A07205F0E7FC0028F2D10A2004F0C6
:1014F00011FB00200021012205F0DAFB0028E8D1D1
:10150000434C0020214605F0EDFB0028E1D10020EE
:10151000012105F0C4FC0028DBD10A2004F0FAFA0E
:101520000DF11601002005F0F7FB0028D1D10020B5
:1015300005F0CEFB0028CCD100203F2105F09BFB1D
:101540000028C6D1002005F0C3FB0028C1D100202F
:10155000214605F0C7FB0028BBD10DF11201002088
:1015600005F01AFC0028B4D10020022105F0EAF9A8
:101570000028AED1288A00210022002300F04CF878
:101580000028A6D1298BA87DAB7EEA7E2C7F6E7FBA
:10159000CDE9004600F07EF800289AD1A868FFF750
:1015A000F7FE002895D195F90C100020002205F0D7
:1015B0009AFA00287FF48DAFA8681649B0FBF1F0C5
:1015C000C1B20230C2B2002005F061FB00287FF4F6
:1015D00080AF00208C21002205F00EFC00287FF453
:1015E00078AF0020022105F02EFA00287FF471AFB9
:1015F0000020002105F0DCF800287FF46AAF042009
:10160000FFF7F8FE002064E7010004001F0002035A
:10161000FCCFFF0B00093D000C2801D2082129E076
:10162000112801D2012125E0162801D2092121E04B
:10163000212801D202211DE02B2801D20A2119E024
:10164000402801D2032115E07E2801D2042111E0B7
:10165000CD2801D20D210DE0FC2801D2052109E0A1
:10166000B0F5CC7F01D20E2104E00F21B0F5FB7F55
:1016700038BF0621E0B565488DF80510417B808AAA
:10168000ADF806008DF8041001A9002005F020F93E
:101690008CBD00BF1CB504460598ADF802100DF1D5
:1016A00002018DF805208DF804308DF807000498AC
:1016B0008DF80600002005F017F900B11CBD0020D0
:1016C000214605F027F91CBDB0B58CB0002005F00F
:1016D000D7FFC0B94B484C4901230A900AAA002001
:1016E00005F0D3FE78B90020022105F0F5FF50B9CE
:1016F0000020002105F035FF28B90DF1260100205A
:1017000005F075FF08B10CB0B0BDBDF8260020B1E2
:10171000002005F032FF0028F5D100206FF4784159
:1017200005F035FF0028EED100F08AFA0028EAD152
:10173000002009218C2205F0B8FF0028E3D1002009
:10174000002105F002FF0028DDD100F079FA002821
:10175000D9D1002009214FF4980205F0A6FF0028F6
:10176000D1D10020002105F0F0FE0028CBD103AC40
:1017700018212046FEF73FFD214600F02FF90020FA
:101780002146032205F080FC0028BCD10DF12E017A
:10179000002005F064FF0028B5D10020002105F0ED
:1017A000D9FC0028AFD1194CA06800F031F800280E
:1017B000A9D1207B0322400041B2002005F037FD73
:1017C0000028A0D10020022105F013FD00289AD1A5
:1017D000617B227D637D208A00F044F8002892D14D
:1017E000218BA07DA37EE27E257F647FCDE900541E
:1017F00000F086F800287FF486AF042000F09AF805
:10180000002080E7CCCC2C004C0080002416002067
:1018100010B504460020214605F0B3FC00B110BD10
:101820000D48844208D80E49002005F075FC0028B8
:10183000F5D10020002107E00849002005F06CFCEC
:101840000028ECD100200121002205F0BAFC00287C
:10185000E5D1002010BD00BFFFC99A3B5CD800084D
:1018600061D80008BCB5092801D200243BE00C284F
:1018700001D2082437E0112801D2012433E01628D0
:1018800001D209242FE0212801D202242BE02B28A9
:1018900001D20A2427E0402801D2032423E055285E
:1018A00001D20B241FE0672801D20C241BE07E2804
:1018B00001D2042417E0CD2801D20D2413E0FC2826
:1018C00001D205240FE0B0F5CC7F01D20E240AE04E
:1018D000B0F5FB7F01D2062405E040F22E35072447
:1018E000A84238BF0F248DF807308DF806208DF8F8
:1018F00004108DF8054001A9002005F04DFDBCBD88
:101900001CB504460598ADF802100DF102018DF8E2
:1019100005208DF804308DF8070004988DF8060036
:10192000002005F059FD00B11CBDE1B2002005F01A
:1019300073FD1CBD1CB5042409284BD8DFE800F05A
:10194000051F11333A17272D4A45234800240DF16E
:1019500006010022ADF806400470002005F0C8FE24
:1019600038E01D48022100F01AFA01210CE01A4863
:10197000052100F014FA002105F052FC2AE0164877
:10198000012100F00CFA002105F0D2FE22E01248FD
:10199000062100F004FA02211AE00F48072100F0A6
:1019A000FEF9012114E00C48032100F0F8F905F0DC
:1019B00089FE0FE00848042100F0F1F9002105F04C
:1019C000F9FB002005F05BFC04E00024002003216B
:1019D00005F03EFC20461CBD0D14002010B5002073
:1019E00008A20C2808BF10BDA0F108031458B3FAD0
:1019F00083F35B0901F8103001EB400304305C60B5
:101A0000EFE700BF80A1031C60C37E3540B47E9128
:101A1000E0B501A9002005F0D4FD0198010302D52D
:101A2000064901220A70410302D5054901220A70C4
:101A3000400202D50348012101708CBD0F14002023
:101A40000E140020F0110020FEE77047B0B50446E8
:101A5000FFF7B4FB88B3302801D339280DD92328E8
:101A600030D044281AD043282AD02A2825D13B48F0
:101A7000017881F0010101701BE038494A78082A99
:101A800019D8012A04D10B4613F8024F302C03D089
:101A9000531C4B7011448B1C18700AE02F4841787E
:101AA00049B101394170090604BF43F20101A0F8B0
:101AB000011001F0B9F9FFF7C5FA002040B2B0BD3E
:101AC000FF20FBE7254800224378811C43B111F831
:101AD000015B02EB8202013B05EB4202303AF5E783
:101AE0000078002818BF524222600120E6E700BFBC
:101AF0007FB500221949B0F1FF3F0A7005DD38B902
:101B000043F20100A1F8010021E0012240420A70E5
:101B100000220A240DF1060360B1B0FBF4F505EBD9
:101B20008506A0EB4600D6B2013240F03000985551
:101B30002846F1E74FF0FF308C1C50FA82F0451C2C
:101B400004D01D5C013804F8015BF8E74A7001F02D
:101B50006BF9BDE87F40FFF775BA00BF2C04002089
:101B6000012103F059BE99F8035099F8047099F8CF
:101B7000058099F806904FF01C10012103F0F2BE89
:101B80000725A34005FA04F40C250A2970472068AC
:101B900040F0400020604FF0804004F083BA50F8DD
:101BA000223040F60F74234048F2C004234340F82B
:101BB00022300A787047016811404BF28002514090
:101BC000016070476FF39F26324609F0BBB820468C
:101BD000294609F029BE088008464A6080BD486849
:101BE00002F027BB214601902846304710211023E0
:101BF00000900020FFF7B6BA2A460823CDF800B0BF
:101C0000304722460823CDF800B05047CDE90010F8
:101C1000F8B231462A46234670470024017000205E
:101C20007047002010211023CDF80080FFF79ABAEA
:101C300000240170002070470024017000207047CC
:101C4000002009210122022305F01CBD03220023EC
:101C5000ADF8051000210091704703220023ADF874
:101C60000510002100917047984616460F4605461C
:101C700004F04EBD8DF80F100023ADF80B200A0ABA
:101C8000090C8DF80D1000218DF80E200522009111
:101C9000704703220023ADF8051000210091704722
:101CA000204629464FF470227047984616460F4644
:101CB000054605F095B90A20002100F03ABF0C4610
:101CC000002102228DF80C1002911D21ADF80610A2
:101CD000052100917047984616460F46054608F0C4
:101CE00029BBC0B207F004BE14460D46064601F0FB
:101CF000ABBC022200238DF8061000210091704732
:101D0000984616460F46054607F0CEBF681E4FF4AC
:101D10006161C0B200FB064017FB0100C8EB08116F
:101D200000EB81004844704700BF00BF00BF00BF08
:101D300000BF00BF00BF00BF00BF00BF70474FF42F
:101D4000801004F0AFB950F8223040F60F742340F1
:101D50004CF28004234370478268204610470446B3
:101D6000A86802F066BA00202021082300952047C9
:101D70008DED001B8DED020B7047C9B2C0B2CA09D0
:101D8000214601F05BB940F261410088884270470A
:101D9000002010211023CDF80090FFF7E3B90024B4
:101DA00001700020704702220023ADF806100021C8
:101DB0000091704717F8011B284604F059BF032211
:101DC0000023ADF805100021009170478DF80F2019
:101DD0000023ADF80910110A8DF80E10110C8DF8C2
:101DE0000D10110E07228DF80C1000210091704784
:101DF00017F8011B284605F0A5BB14460D4600F058
:101E000031BD17F8011B284608F088BC8DF8070083
:101E1000204608F07BB917F8011B284608F03EB9A8
:101E2000226842F00102226070470823009628478A
:101E300000782870022007F0D3B903F00F0343EABB
:101E4000021270470090204607F04FBF2246102331
:101E50000096384700EE101AB8EEC00A704702220A
:101E60000023ADF80610002100917047012308F00F
:101E700067BCBDF8041009BA090C21801CBD01988B
:101E800001214EF6602202F0B7B9012308F03EB9F5
:101E9000019003F0CDBE00202821082300952047A3
:101EA000012307F058BFA0F13101207004297047C9
:101EB000019003F0EBBF012103F054BD40F8223044
:101EC0000A78704794F824020328704748680D4642
:101ED00002F0AFB90020102108230095204708F137
:101EE0000C0531CDFEF726BC384631462A4623463E
:101EF0007047BDF8081009BA090C2180BDF80A1016
:101F000009BA090C6180BDF80C1009BA090CA1804E
:101F10007047130A8DF80E30130C120E8DF80C203A
:101F20007047002104F0A4BE02220023ADF8061081
:101F300000210091704702220023ADF80610002115
:101F4000009170472846002105F0FCBA224600F0B7
:101F500009BE022200238DF806100021009170476F
:101F60008DF80720032200238DF805100021009131
:101F700070474DF808ED18F8070000FB0645B9F862
:101F8000000004F05BFA00282C465DF808EB70476F
:101F9000216821F00101216010BD40F8223040F697
:101FA0003F73097850F821201A407047002018210B
:101FB000082300952047044628460E46FEF7BABB84
:101FC0001C4615460E46007888F80000022007F0EF
:101FD00007B900230090204604F0BDBB0222ADF8F3
:101FE00006100021ADF80410022100917047022272
:101FF0000023ADF806100021009170470222ADF8D1
:1020000006100021ADF80410022100917047069CD3
:10201000284605F091BA02203E21082200F032BC89
:10202000012200238DF807100021009170474FF422
:10203000801004F097B80020002108230095204765
:102040000823CDF800B0FFF78DB840F2EE4188428A
:1020500070478DF80F10ADF80B00080A8DF80E00D0
:10206000080C8DF80D0070478DF80710032200232F
:10207000002100917047284604F038BF0122002358
:102080008DF807100021009170470222ADF806106C
:102090000021ADF80410022100917047D4F880109F
:1020A00021F00101C4F880104FF004610968704705
:1020B00000200821082300952047814620460F462E
:1020C000FEF738BB40F2E571884270478DF8072073
:1020D00004220023ADF80410002100917047032072
:1020E0002621202200F035BDBDF8081009BA090CE0
:1020F0002180BDF80A1009BA090C6180BDF80C10E6
:1021000009BA090CA180704747F2305102F074B847
:1021100040F2FC41884270471C4615460E4600F0CE
:10212000A1BB8DF80700204608F00ABB01238DF8FB
:102130000700204607F00FBE016841F080010160F2
:102140007047002000F0ACBE40F6D53188427047A1
:10215000012100F029B98DF8072000238DF8041023
:10216000110A04228DF806100021009170478DF8A5
:10217000071000238DF804200A0A090C8DF80510B9
:1021800000218DF80620042200917047D4F88020A9
:1021900042F00102C4F8802070472046FFF756BC89
:1021A00000EE100A9DF90500B8EEC00A01EE100A13
:1021B00070470123044608F005B90C46102102229D
:1021C000ADF80E100021ADF80C100291062100911F
:1021D0007047013010F0FD0F70479DF804309DF8F6
:1021E000051022460370002070470023ADF80A2036
:1021F0000622039100210091704700238DF80610FC
:1022000000218DF805200322009170470222ADF8CD
:102210000E1000218DF80C10ADF80A10032100916A
:1022200070470000BCB5174DA86800F06BF908B105
:10223000052424E095F90C0000F0ACFDA86800F03E
:1022400077FA288A002100220023002400F046FDAE
:102250002A7F6B7F298BA87DCDE9002300220023F4
:1022600000F05AFD002000F029FB0020582109222F
:1022700000F008FB04480421017000F0B2F8204689
:10228000BCBD00BF241600200D140020BCB50024E6
:1022900002203E2108228DF80640ADF8044000F0EF
:1022A000EAF901AD032C0AD004F11E0045F6A52180
:1022B000C2B23B2000F085F928550134F2E73B20FB
:1022C00045F6A5211C2200F07CF95A281AD10220DB
:1022D0003D21FD2200F03DFC9DF806201AB10020B2
:1022E000452100F036FC9DF8042006201C2160F3F7
:1022F0005F12032000F02DFC9DF8052003201D2116
:1023000000F027FCFFF787FE0020BCBD024600203E
:102310006C2100F01EBC000010B50446022006210E
:10232000012200F0A8F9094809490A4A844238BF45
:102330000A4602200A21282300F030FC0220342122
:10234000EF2200F006FC002010BD00BF0027B929D5
:1023500032D500080AD50008B0B5124D00243A2C39
:1023600009D004EB44016A18685C5178927800F057
:10237000F0FB0134F3E70320122100F045F9044695
:1023800001202521482200F0E4FB04F0080012217E
:10239000821C032000F0DDFB012000F0A1F90020E9
:1023A000B0BD00BF5AD5000810B5012906D099B9B3
:1023B000082832BF63210838642104E0082826BFBA
:1023C0000838662165210122002402FA00F0C2B219
:1023D000002000F057FA00E0FF2460B210BD03F0C7
:1023E00099BB80B5042000F077FA00F073FB00F091
:1023F0003FFB022000F07AFA0620BDE8804000F0A2
:102400006BBA000010B50420042400F065FA64489B
:10241000047010BD80B500206C2100F0F5F800F0CC
:102420007F0080BD80B501207F2100F0EDF840B233
:1024300080BD0000FEB50DF10604022071210323CA
:10244000224600F0EAF8E21C012074210323012453
:1024500000F0E3F89DF80A009DF80B109DF8095074
:102460009DF807209DF80830000240EA01409DF8E1
:1024700006102844F54D2E7B2D7BC5F10907093D3B
:1024800020FA05F50A2E38BF00FA07F510020B4AAC
:1024900040EA03400844012888BF0446B5FBF4F134
:1024A00000201F2804BF0020FEBD52F8203001305C
:1024B00099429CBF1538FEBDF3E700BFD0D7000896
:1024C00080B502200621042200F0D5F80220062162
:1024D000042200F0D7F901207E2100F095F840B2E7
:1024E00080BDB0B5044600F008F80546012021463D
:1024F0002A4600F0ABF82846B0BD01207D2100F04F
:1025000083B80000F8B5244E0446042006210425B3
:10251000B047224F0120B84700200321B0471A20BE
:102520000321B047002000F09DF902200021B047B0
:102530000120B84702200121B0470120B8470320FD
:102540000621202200F005FB0120B84702200221CD
:10255000B0470120B847FFF7C2FD0120B84704206B
:102560003621B0470120B84702200321B04701209F
:10257000B84702200421B0470120B847FFF7ECFE1E
:10258000FFF784FE2046FFF7C7FE00F00BF8E8488F
:1025900005700020F8BD00BFB12B0008DF23000844
:1025A000F811002080B50A20FFF7D2FD0020FFF7C8
:1025B000CFFDFFF780FB00200021BDE8804000F048
:1025C000B8BABCB5044650008DF806100DF10502EE
:1025D00003238DF80700080A21468DF80500022024
:1025E00000F0DCFA42F2107500206C2100F00CF8CB
:1025F00040B2002803D4681E29040546F4D1022005
:10260000214600F001F8BCBD10B50C4600F02AF9D7
:102610002046BDE8104000F00AB870B5FFF77CFD19
:10262000304629462246BDE8704000F00FB810B58C
:10263000044605F029FB6000FFF753FB002007F07C
:1026400057F9044605F01CFB204610BD70B5144632
:102650000D46064605F018FB7000FFF742FB34B14B
:10266000002007F045F905F8010B013CF7E7BDE84C
:10267000704005F005BBB0B5FFF7BFFB2846FFF77C
:10268000D6FF20EA0401284600F092FA0020B0BDEF
:1026900010B5044603200D21F023FFF757FC02205C
:1026A0003F210222092C02D1FFF7E5FF01E000F0F3
:1026B000E9F8D048447310BD10B5044603200D213D
:1026C0000E23FFF743FCCB48847310BD10B50446BE
:1026D00003200E210823FFF739FCF148C47310BD15
:1026E00070B500280546114E044618BF0125AA0002
:1026F00001202521F023B047012025212A46082367
:10270000B047B4FA84F012210423450903202A4675
:10271000B047032012212A461023B0470020582139
:102720002A460423B047EA48847570BD652B00082B
:102730002DE9FC4104463848844202D3374884429C
:1027400003D9FF2778B2BDE8FC8135490020B0F5F8
:10275000C07FF6D00A58944203D90D186A68944293
:1027600001D90C30F3E7DFF8BC8005F10802002046
:10277000402102230027C047AD7A3D20294600F0C2
:1027800017FA019401AA032009210423C047C5F3C5
:10279000021025A1085CFDF788FF054620460E467D
:1027A000FDF783FF2A463346FDF78DFE9FED160B9E
:1027B00053EC102BFDF7F9FE05460E46FDF7A1FF81
:1027C000A0F114018DF80110FDF76FFF02460B46D2
:1027D00028463146FDF771FE9FED0D0B53EC102B93
:1027E000FDF771FEFDF76EFF8DF80200C0F30320C8
:1027F0000DF10102152103238DF803000320C047CA
:10280000B34884609EE700BF000000C079847E4129
:10281000000000000000894090BF3E08007E5F403D
:1028200008D600089D2B0008020406080C100404BA
:1028300010B502220446002818BF012201200E21F3
:10284000602300F08FF9A248047410BD6C040020CE
:1028500010B50446032012210823FFF777FB9C489C
:10286000847410BD0146064802788A4206D080B5BD
:102870000170002000F09CF9BDE880400020704706
:1028800038000020B0B5FFF7B8FA2846FFF7CFFEB2
:1028900040EA0401284600F08BF90020B0BD00009A
:1028A0001CB50446ADF806000DF106020320132105
:1028B000022300F073F9864884821CBD10B50446DB
:1028C00001382421B0FA80F04009C200032000F052
:1028D00040F97F48C47510BD10B50446022021465A
:1028E00000F066F96148047010BD00BF0246032085
:1028F0000621032300F036B910B5044603200E214B
:10290000F023FFF723FB7248047310BD10B5044693
:1029100003200F21224600F01CF96D48447410BDBD
:1029200080B500F0EBF851480521017080BD00BF73
:10293000F8110020024603200621042300F012B9FA
:102940002DE9F041054616282849294E28BF1625AD
:10295000002808BF012505EB45000844222110F896
:10296000027C10F8034C10F8018C032007F00102E0
:10297000B04700201E212246B0473A0900204B21D3
:10298000B047002046210422B8F1700F02D1FFF7B2
:1029900072FE01E0FFF776FF4D4C2078012801D14F
:1029A000607814E001203E210822082720700220D0
:1029B000FFF761FE3B2045F6A5212022FFF701FE2F
:1029C0006070FFF728FB607808B90820677008F08E
:1029D0000F01401A08F0F00108434521C2B200205F
:1029E00000F0B7F82571BDE8F08100BF88D7000876
:1029F000532B00086C04002080B5FFF75CF9002021
:102A00000021BDE8804000F094B80000B0B50E4C45
:102A100002200421A04700205821002200F099F84C
:102A20000120FFF787FF01200C21012200F091F81F
:102A300000F03EF8022005210525A0470120FF21D6
:102A4000A0470A480570B0BDB12B000810B50220A0
:102A50000421042400F0ACF800F010F80020582104
:102A60000F2200F076F80148047010BDF811002024
:102A700000204F210822FFF7FEBD000080B5FFF7C0
:102A8000F7FFFFF7B9FF1248C07D012818BF80BDCE
:102A9000032024210822BDE8804000F05AB800BF7E
:102AA0006C04002000204F210822FFF7EBBE00003D
:102AB00080B50748C07D012804D1032024210022CD
:102AC00000F047F8FFF7EEFFBDE8804000F00DB8DA
:102AD0006C04002080B50020002100F02AF80A20B4
:102AE0000121BDE8804000F024B880B5FFF7E3F88D
:102AF00000200121BDE8804000F01BB8B0B50C46B5
:102B000005460220042100F053F80020FFF712FFD1
:102B100001200C21224600F01CF8FFF7C9FF052018
:102B2000FFF7DAFE012029462246BDE8B04000F05A
:102B30004FB880B50A466821082834BF6721083895
:102B4000012303FA00F0C3B2002000F00BF80020CC
:102B500080BDB0B5FFF751F92846214600F028F8AE
:102B60000020B0BD2DE9F041074618461C469046AE
:102B70000E4601F053F805463846FFF773FE08FA93
:102B800005F004EA00053046FFF751FDA04329187F
:102B9000304600F00DF80020BDE8F08170B5FFF779
:102BA000BBFA304629462246BDE8704000F010B816
:102BB000B0B50C46054605F067F868000130FFF730
:102BC00090F8204606F094FE05F05AF80020B0BDBB
:102BD00070B514460D46064605F056F870000130F3
:102BE000FFF77FF82CB115F8010B06F081FE013CD0
:102BF000F8E7BDE8704005F043B80000B0B52E48D6
:102C0000012103F0F7FB012854D1FFF703FC044630
:102C10002AA0214609F03AFAE00709D0FFF72EFF73
:102C200001200125FFF772FB284804F0FE0405701F
:102C3000200714D5FFF7FEFB254D85F81201FFF79D
:102C4000F1FB85F81101681CFFF74BFC2870082088
:102C5000FFF75CFB1F48012104F0F70401706006D8
:102C600011D500206E21FFF7CFFC194991F8002102
:102C7000531C81F80031114481F801014020FFF715
:102C800045FB04F0BF04600707D50420FFF73EFBB7
:102C90001148012104F0FB040170A00704D50220B3
:102CA000FFF734FB04F0FD0424B12046BDE8B0403A
:102CB000FFF72CBBB0BD00BF000C0140466C616744
:102CC000733A3078253032580D0A00000F14002076
:102CD000F91100200E140020F0110020402801D22C
:102CE000062008E001467E2801D2072003E00920E3
:102CF000FB2938BF082010B5FFF7CAFC054C607BE4
:102D0000FFF7FAFD207DFFF7D7FC607DFFF7A0FD00
:102D1000002010BD24160020B0B5054604980C46CE
:102D2000FFF7D4FC2046FFF7BBFD0598002818BF2D
:102D30000120FFF77DFD2846FFF7E8FD0020B0BD2C
:102D400010B5062818D80024DFE800F004200A1681
:102D5000181F10000E4804700120FFF7BDFD15E09C
:102D60000B4802210170FFF74DFB0CE008480621DB
:102D70000170FFF74BFE06E0042407E0044804213D
:102D80000170FFF72EFB002400E07F24204610BDD9
:102D90000D1400200149085CFFF7D2BDB0D4000833
:102DA0007047000080B5054800214FF48062002381
:102DB0004FF0FF301A480121017080BD0000002053
:102DC00010B5174C207808B9FFF7ECFF60680128B0
:102DD0000FDBA068A1680131A1600849085CA16807
:102DE000B1F5007F04BF0021A16061680139616015
:102DF00010BD0020A0604FF0FF3010BDB8160020BD
:102E0000B0B5074D0446287808B9FFF7CBFF6888AE
:102E100004490C5401306FF35F2068802046B0BD38
:102E2000F8030020201C00201048017819B12D2142
:102E3000C172012100E0002142786AB1B0B5831C63
:102E40003AB113F8015B50FA81F4013A0131E572AD
:102E5000F6E7BDE8B04003E0421830230131D372F9
:102E600050FA81F00021C172704700BF2C0400208D
:102E7000B0B59A4C094D4FF480512046A8472046E2
:102E80004FF40051A84720464FF48041A847204600
:102E90004FF400412A46BDE8B0401047F9620008EF
:102EA00080B530B16E484FF48061FF22FDF79CF988
:102EB00004E06B484FF48061FDF79DF9BDE8804068
:102EC00000F00EB80146854811B1402103F014BA54
:102ED000402103F00FBA00BF8048202103F00CBA54
:102EE000F8B55F4D474E0024082C08BFF8BD44F0EC
:102EF000B00000210027C0B2B04700200021B04739
:102F000010200021B047802F05D0E85D012100F09E
:102F1000A9F80137F7E780350134E5E710B5394CFA
:102F20008D200021A04710200021A047AE200021C5
:102F30002246BDE81040104710B5324C8D200021CC
:102F4000A04714200021A047AF2000212246BDE861
:102F50001040104710B500F097F80A2002F0DAFD93
:102F600000F052F8274CAE200021A047002000219D
:102F7000A04710200021A04740200021A047B020FA
:102F80000021A04781200021A047FF200021A04769
:102F9000A1200021A047A6200021A047A8200021B1
:102FA000A0473F200021A047C8200021A047D320F0
:102FB0000021A04700200021A047D5200021A047E4
:102FC00080200021A047D9200021A047F120002126
:102FD000A047DA200021A04712200021A047DB20D3
:102FE0000021A04730200021A0478D200021A047CC
:102FF00014200021A047AF2000212246BDE8104048
:10300000104700BF6530000810B5344C80212046C1
:1030100003F072F9642002F07DFD2046802103F068
:1030200069F9642002F076FD20468021BDE8104059
:1030300003F062B92948202103F05CB910B501F012
:10304000070301F0F801012400EB01100449002AF4
:1030500004FA03F30A5C0CBF9A431A430A5410BDE6
:103060009004002010B50029044618BF012108462D
:10307000FFF728FFFFF7DEFF204606F039FCBDE82A
:103080001040FFF729BF00007CB56C46204603F0D6
:1030900035F90020114D124E21468DF804002020F4
:1030A00000904FF44470ADF806002846B04728461B
:1030B000202103F021F98020214600902846B047C6
:1030C0002846802103F018F9402021460090284628
:1030D000B0472846402103F00DF97CBD000C0140AB
:1030E0004D63000870470000C0480A494FF47F72E2
:1030F0008068B0FBF1F0B0F57F7F28BF10468108F3
:1031000000EB5000B0F57F7F38BF024692080020E8
:1031100006F0BFBC40420F00E0B50DF106010020F3
:1031200006F00AFD002044F2FF3106F0DDFCBDF898
:103130000600C10702D0074901220A70810702D5A3
:10314000054901220A70400602D504480121017098
:103150008CBD00BF0F1400200E140020F0110020C1
:1031600010B5072842D8DFE800F00429151B0C3100
:103170003A222048002400210470002006F046FF77
:1031800035E01C480421FEF753FD6FF07F4106F047
:1031900035FF2CE017480221FEF74AFD012112E01D
:1031A00014480321FEF744FD06F04FFE1FE01148CE
:1031B0000721FEF73DFD06F055FF18E00D480121FF
:1031C000FEF736FD002106F02CFF10E0094805212E
:1031D000FEF72EFD6FF07F4106F058FF07E005482F
:1031E0000621FEF725FD06F034FF00E0042420460A
:1031F00010BD00BF0D140020BFB5002006F0BFFDBC
:1032000080B9002006F071FF60B90A2002F082FC4C
:103210000020002106F005FF20B90020012106F062
:10322000BEFE08B104B0B0BDDE4CA07F90B1E17F1E
:1032300000204FF47A7206F0CDFD0028F2D1002074
:103240007F2106F01BFC0028ECD1002006F03EFC9C
:103250000028E7D10020012106F096FE0028E1D1E8
:10326000A168002006F0A6FE0028DBD10020002186
:10327000002206F099FD0028D4D1617B227D637D78
:10328000208A00F059F80028CCD1207F657F218B5F
:10329000A37EE27ECDE90005002000F087F800283B
:1032A000C0D100206FF07F4106F0A8FE0028B9D100
:1032B000FFF71AFFA07F88B31E48039003A90020E0
:1032C00006F052FE0028ADD10020382106F042FE63
:1032D0000028A7D194F90C100020002206F0CBFEA4
:1032E00000289FD10020012106F0DEFB002899D1A3
:1032F00000200121002406F062FD002892D1002068
:10330000432103220023009406F07CFD00287FF473
:1033100089AF0420FFF724FF002083E794F82010F2
:1033200094F82120002006F087FE00287FF47AAF71
:10333000C2E700BF040700011CB5092801D2002420
:103340001FE00C2801D208241BE0112801D201241F
:1033500017E0162801D2092413E0212801D2022403
:103360000FE02B2801D20A240BE0402801D20324CD
:1033700007E07E2801D2042403E00624FB2838BF9E
:1033800005248DF806208DF805408DF807308DF85E
:10339000041001A9002006F061FD00B11CBD002051
:1033A0000121224606F07DFE1CBD0000E0B5059817
:1033B000ADF802108DF805208DF804300DF10201F2
:1033C000002818BF01208DF807000498002818BFB6
:1033D00001208DF80600002006F061FD00B18CBDD3
:1033E000E248817D002006F08EFD8CBD2416002071
:1033F000092801D2002121E00C2801D210211DE072
:10340000112801D2202119E0162801D2302115E01F
:10341000212801D2402111E02B2801D250210DE0BA
:10342000402801D2602109E07E2801D2702105E008
:103430006FF06F01FB2838BF6FF07F01C8B2704793
:103440008348082102F058BFE0B50DF105010620C0
:10345000032200F0CBF89DF806109DF805009DF8BA
:1034600007209FED081A090241EA0040104400EECF
:10347000100AB8EE400A20EE010ABCEEC00A10EEB7
:10348000100A8CBD00247442B0B50DA4FFF7DCFF18
:103490000F49884288BF083494ED000B1B2055EC7F
:1034A000104B00F09BF8FDF700F902460B46204652
:1034B0002946FCF761FFFDF750F900EE100AB0BD98
:1034C00000000000008064C00000000000A063C095
:1034D000FF07AF2F0000000010B5FFF7B5FF04464F
:1034E0001A2000F07BF80E498C420CD3FDF7DDF872
:1034F0009FED090B53EC102BFCF73EFFFDF72DF968
:1035000000EE100A10BDA43800EE100AB8EEC00A92
:1035100010BD00BF00BF00BF0000000000A063C0DE
:103520000008AF2F132000F059B880B5192000F023
:1035300055F800EE100AB5EE001AB8EE400A20EE7B
:10354000010A80BDBCB500F06BF80020002400F03B
:103550007FF90120802100F09FF90A2002F0DAFAB9
:10356000012000F075F90A2002F0D4FAA54D0121DE
:10357000A86800F0FDF895F90C000F2100F054F94F
:103580002A7D6B7D288A002100F064F8298BA87DB4
:10359000AB7EEA7E6D7FCDE9004500F0A5F8002006
:1035A000BCBD00BF2416002010B5122000F016F894
:1035B00004461220FF2100F06FF9200702D5F548DC
:1035C00001210170A00602D5F448012101706006B6
:1035D00002D5F1480121017010BD00BFE0B50DF129
:1035E0000701012200F002F800208CBD70B5FEF743
:1035F0007BFB46F0800006F07BF92CB115F8010B3F
:1036000006F076F9013CF8E7BDE87040FFF718BF17
:1036100080B50A4601460020FFF7E8FF002080BD84
:1036200010B5084C1021204602F064FE012002F083
:1036300071FA2046102102F05FFE0A20BDE810401A
:1036400002F068BA000C01400148082102F052BEA5
:1036500000080140F8B51D461646FFF7C9FE0446AE
:1036600040EA4600794FC1B21D20B847654E707BD5
:103670000001C1B21E20B847002D18BF0125262029
:10368000FFF7ACFF00F0F70040EAC5012620B8477D
:10369000707B062806D13120052100F0FDF8372087
:1036A0000C2101E03120032100F0F6F8902C13D119
:1036B000B0680A49884201D9642405E008490844F1
:1036C0000849884208D87F243620022100F0E4F817
:1036D0003A20214600F0E0F80020F8BD7F13613366
:1036E00080E58FE7C0C2DA062DE9F041574D0F465D
:1036F0008046090A20201E461446A847F9B2212018
:10370000A84722202146A8472320FF21A8471D20A3
:103710001D24FFF763FF711E00F0FE00B1FA81F176
:10372000490901441D20A84739204146A8471E20C9
:10373000FFF754FFEA4900F0FB00097F0139B1FAB5
:1037400081F1490940EA81011E20A8470798012814
:1037500004D13320412100F09FF819243B20214659
:1037600000F09AF80020BDE8F08100BF2416002088
:1037700070B500EE100A9FED221A22480D46B8EEF1
:10378000400A80EE010A0069BCEEC00A10EE106A21
:10379000FFF72EFE35B304463120902C07D1FFF7FA
:1037A0001DFF40F08001312000F076F81AE0FFF7AD
:1037B00015FF00F07F01312000F06EF8302000216D
:1037C000002500F069F84FEA3410052805D80EA14D
:1037D00051F8205012A1095C00E040212F2000F098
:1037E0005BF82E44194CC6F307410620A047C6F3E8
:1037F00007210720A047F1B20820A047002070BD94
:10380000002474422416002080000000AA0000005A
:10381000000100005501000000020000AA020000A3
:103820004844444444440000B0B57E30074D0C4643
:1038300040F08000C1B20920A8470A202146A847CD
:103840000B200F21A8470020B0BD00BF9938000809
:1038500010B507281ED87F210446DFE800F00C04CD
:1038600004090B0719190120012404E0032402E0D4
:10387000042400E00524704908700120FFF7AEFE23
:1038800000F0F80040EA0401012000F005F80021F2
:10389000084610BD0421FBE7E0B50DF10701012248
:1038A00000F001F88CBD70B5FEF71EFA06F07F003F
:1038B00006F01EF834B1002006F01AF805F8010BE6
:1038C000013CF7E7BDE87040FFF7BABD000000001B
:1038D0002DE9F8432DED048BB0F5704F9FED1C8B57
:1038E00028BF4FF4704090468946041F01260125E9
:1038F000102E21D0EFB20F2F19D8B0EE480A304663
:10390000F0EE680A08F0ECFBB0EE409A3846F0EEB4
:10391000609AFCF7CAFE02460B4651EC190BFCF705
:10392000D2FDFCF7EEFE844202D90135E2E7102514
:10393000A04202D20136DAE7102689F8005088F852
:103940000060BDEC048B01B0BDE8F08300BF00BF98
:10395000000000000000F03FE0B50DF1060100207E
:1039600006F034FC00204FF6FF7106F00BFCBDF8AA
:103970000600C10702D0074901220A70810702D55B
:10398000054901220A70400602D504480121017050
:103990008CBD00BF0F1400200E140020F011002079
:1039A00010B5072844D8DFE800F0042B171D0D33AD
:1039B0003C2421480024002100220470002006F04D
:1039C00062FE36E01C4804214FF6FF72FEF734F920
:1039D000FF2106F04EFE2CE017480221FEF72CF9DD
:1039E000012112E014480321FEF726F906F03AFD02
:1039F0001FE011480721FEF71FF906F073FE18E0DB
:103A00000D480121FEF718F9002106F04DFE10E0E7
:103A1000094805210022FEF70FF9002106F04FFEAC
:103A200007E005480621FEF707F906F052FE00E020
:103A30000424204610BD00BF0D1400207FB50020D7
:103A400006F0D4FC002848D10020012106F0E7FD53
:103A50000020012106F0D8FD00283ED1204C617BDA
:103A6000227D208A00F040F8B8BB218BA07DA37E88
:103A7000E27E257F667FCDE9005600F052F860BBFC
:103A8000A168002006F0D6FD38BB002000210022EE
:103A900006F0B4FC08BB94F90C100020002206F0DC
:103AA0002AFED0B90F48EF210423039003AA002077
:103AB00006F046FE88B900200121002406F0DBFC58
:103AC00058B90020432103220023009406F0A7FCEC
:103AD00018B90420FFF764FF002004B070BD00BFD8
:103AE0002416002000AD089A1CB5CD2801D234233D
:103AF0000AE0B0F5CC7F01D2262305E040F22E3457
:103B00000A23A04238BF182308010DF105018DF8E2
:103B100007208DF806308DF80500002006F0CCFC5B
:103B20001CBDFEB50DF106071646044608460DF10C
:103B300005021D463946FFF7CBFE09988DF809604E
:103B40003946002818BF01208DF80B00089800287E
:103B500018BF01208DF80A00002D18BF0125E801CB
:103B60008DF808009DF805008DF80700002006F08C
:103B7000EDFC00B1FEBD0020214606F01EFDFEBD9D
:103B800000F07EBA1248D0F8801041F47001C0F8FD
:103B9000801010490A6842F001020A600A68920720
:103BA000FCD54A6822F003024A604A6812F00C0F02
:103BB000FBD10A68084B1A400A6000224A600A6377
:103BC0004FF41F028A604FF000610160704700BF30
:103BD00008ED00E000100240FFFFF2FE7047000019
:103BE00080B508F015FA02480121017080BD00BFC0
:103BF00086040020FEE700000648BFF34F8F064A08
:103C0000016801F4E06111430160BFF34F8F00BF11
:103C1000FDE700BF0CED00E00400FA0500210829D3
:103C200005D020FA01F2D20702D10131F7E70021D5
:103C3000C8B270470A78436802F0010223F4807327
:103C400043EA022242604A78836862F34103836058
:103C50008A78836802F0010223F4006343EAC222F7
:103C60008260C978C26A013922F4700201F00F0142
:103C700042EA0151C16270474FF0807101607047A4
:103C8000816841F00801816070478068C0F3C0001E
:103C90007047816841F00401816070478068C0F31B
:103CA00080007047044900F00F000A6822F4702277
:103CB00042EA00400860704704240140826861F3D2
:103CC00000028260704722B1012A06D14268114386
:103CD00002E0426822EA01014160704700000000F2
:103CE00010B5194C04F5E05000F05DF8FCF7DDFC70
:103CF0009FED0F0B53EC102BFCF7E5FB9FED0E0B2C
:103D000053EC102BFCF7DFFB9FED0D0B53EC102B4E
:103D1000FCF74BFCFCF721FD0C49086020464FF4F2
:103D20000041BDE8104002F0E5BA00BF00BF00BF8F
:103D30000000000000C8E93F000000A0999927405A
:103D40000000000000408F40000801409008002063
:103D500070B501EB41040A2928BF1E3CFDF710FF96
:103D600038BF1025465926EA0404234302EB820497
:103D700043516FF00403062A88BF6FF022030C2A18
:103D800088BF6FF04003342523441F249C40062A3B
:103D900088BF30250C2A88BF2C2542599940A24360
:103DA0001143415170BDC06C80B2704710B54B04D7
:103DB0008468082904D344F0007103F4602301E00F
:103DC00024F000718160816821F4602119438160D1
:103DD00002F00101826822F4801242EA01518160FE
:103DE00010BD426801F0010122F4006242EAC121E3
:103DF00041607047826801F0010122F4800242EACA
:103E0000815181607047000010B50A49084C884212
:103E100004D00949884218BF10BD01342046012151
:103E200001F0AEFD20460021BDE8104001F0A8BD24
:103E300009000C000024014000280140BCB5FEF739
:103E400080F901200BA2FDF7D1FEEA4DB5F88A00FA
:103E5000FDF74EFE01ACFEF7A0F9FEF7BAF9FAD174
:103E600001986328DCBF64200190A5F88A0001F066
:103E700081FEBCBD53656E64696E6720696E7465B2
:103E80007276616C00000000BCB5FEF75AF90120A3
:103E90000BA2FDF7ABFED74D6868FDF729FE01AC1C
:103EA000FEF77BF9FEF795F9FAD10198B0F1FF3FE3
:103EB000DCBF00200190686001F05CFEBCBD00BF6B
:103EC0004F776E2049440000BCB5FEF73AF9012057
:103ED0000EA2FDF78BFEC74DD5F88C00FDF708FE4E
:103EE00001ACFEF75AF9FEF774F9FAD10198B0F176
:103EF000FF3FDCBF002001906968884204BF0130A9
:103F00000190C5F88C0001F035FEBCBD50616972AE
:103F100020494400BCB5FEF714F901200BA2FDF7BF
:103F200065FEB44DD5F89000FDF7E2FD01ACFEF75B
:103F300034F9FEF74EF9FAD10198002801DC01208E
:103F40000190C5F8900001F015FEBCBD5061636B97
:103F5000657420636F756E7400000000BCB5FEF7D9
:103F6000F0F8012021A2FDF741FEA24D95F90C00C9
:103F7000FDF7BEFD01ACFEF710F9FEF72AF9FAD104
:103F8000298840F261420198914222D040F2EE42EB
:103F900091421BD040F6D53291420DD0B1F5A06FC1
:103FA00010D040F2E572914209D040F2FC429142B9
:103FB00015D1022111220FE0002114220CE06FF034
:103FC000120108E06FF011010D2205E06FF0080109
:103FD00001E06FF01101162200F00EF90190287334
:103FE00040B205F053F801F0C5FDBCBD5458207037
:103FF0006F7765722C2064426D00000010B501F0EF
:10400000B9FD104CFDF7DAF8FDF74DFF07D8DFE8F2
:1040100001F003120C0F0900FFF736FFF2E7232827
:10402000F0D10BE0FFF79AFFECE7FFF773FFE9E74A
:10403000FFF704FFE6E7FFF747FFE3E7BDE81040BF
:1040400001F022BE0C14002004490A6822F47862B0
:104050000A600A6810430860704700BF2C6C00407B
:104060000248034900680968704700BFE8F7FF1F6E
:10407000ECF7FF1F642001F04DFDFFF7BDFD0000D0
:10408000B0B5394CA078012803D10020A07007F00A
:10409000FFFE3648017801291DD1354A11680131EA
:1040A00011603449096813688B4214D300211160F0
:1040B000314A136801331360304B12681B689A420F
:1040C00006D901702E4801702EA008F01DFD02E0F7
:1040D0002B48012101702E48007801280BD12D4872
:1040E000016801390160016829B92B49096801603B
:1040F0002A48012101702A4D6868013868606868A3
:104100000A2804D127484FF4004102F0F5F8686806
:1041100020B902F067FA4FF47A706860FDF7A2F8F0
:104120006068013060606068B0F57A7F0BD3002072
:10413000012160602170A2680132A260A2683C2A5D
:1041400024BFA06061702878012808D11648007843
:10415000012804D1A8680138A860A86800B1B0BDE2
:10416000BDE8B04001F042BD8404002044040020BA
:104170005C040020E00300204C040020281F0020E5
:104180004504002054583A20444F4E450D0000008D
:104190004704002068040020640400204804002034
:1041A0002C0000200008014049040020BCB5FDF7A8
:1041B000C8FF01200EA2FDF719FD0E4D2869FDF77D
:1041C00097FC01ACFDF7E9FFFEF703F8FAD101987F
:1041D00007214FF4C86200F00FF8697B2A7D6B7DE0
:1041E0002861019080B204F0B5FF01F07DFEBCBDF6
:1041F00042570000241600208842D8BF084690424B
:10420000A8BF104670470000022988BF704702A06F
:1042100050F8210008F078BC09D900083BD9000803
:1042200063D90008002107F0C3BF00210022FCF77A
:1042300032B800210022FCF766B850B149B110B580
:104240000446002004F1080C21602071ACE80D0048
:1042500010BD0120704700002DE9F84F8046002670
:1042600000270446CCB12068B8B1FBF7D9FF05465A
:10427000606810B1FBF7D4FF00E00020AF42C8BF78
:104280003D46A168002918BF2F468642C8BF304668
:10429000002918BF06461034E4E720A008F034FCDB
:1042A000264808F031FC75427E422D4FDFF894B06D
:1042B00028A40FF28C090FF2900AB8F1000F27D052
:1042C000D8F8002022B3D8F80800B8B148463146E3
:1042D00007F0DCFED8F804005A4620B10178002926
:1042E00008BF584602465046294607F0CFFED8F888
:1042F0000C1039B1087828B115A001E0204611460C
:1043000007F0C4FE384608F0FFFB08F11008D4E7B8
:10431000134808F0F9FB0120BDE8F88F3C636F6D8E
:104320006D616E643E203C617267733E203C68653F
:104330006C7020746578743E0D0000006AD8000827
:10434000252A7300B0DD000820252A730000000034
:1043500020257300202D2D2D202573202D2D2D009F
:10436000C6D800082DE9F04F9BB0002800F03D8131
:10437000002900F03A810446D0E902B015465A44BB
:10438000824280F0348120682A465844FBF70CFFB3
:10439000A0684FF0000A002300262844A0600AA964
:1043A00004310691834580F02481216811F80B9037
:1043B000B9F10A0F05D0B9F10D0F02D00BF1010BC5
:1043C000F0E701F80BA05B4500F0FE802068216952
:1043D000C518CDE90831284629460A78082A03D0AD
:1043E0003AB100F8012B02E0A84288BF0138013140
:1043F000F3E7854980F800A028461AAA05F022FBB9
:10440000002800F0E080DDF824A007460796BAF106
:10441000000F12D0DAF80060002EB04618BF4FF03F
:10442000010812D0DAF8080020B138463146FBF70F
:104430001DFFD0B10AF1100AE9E7099880B3079E81
:104440004FF000084FF0000A06E001200999079E8E
:104450004FF0000A29B120B128466CA1FBF706FFF6
:10446000C8B1B8F1000F1ED0ADE067490A96002030
:104470001AAA002605F0E6FA0127E0B10AA90F2FD3
:1044800041F8270036D0604900201AAA05F0DAFA70
:1044900001360137F1E70998FFF7DEFE18B192E027
:1044A000079E4FF0000A002F00F08D803846002153
:1044B000FFF7AAFE87E0DAF80400002870D0017840
:1044C0003F2902D1417800296AD00390FBF7A8FE6A
:1044D000029003982A21FBF799FE68B1DDE9022ECC
:1044E0000EEB02010139884266D1012A64D0901E88
:1044F000009005E0012160E0029ADDF80CE00092F6
:104500000EEB020000234FF02E0C0190002E44D041
:10451000934205DA1EF803002A2818BF844604E0F7
:10452000019810F8010C2A2846D1ACF17300022141
:1045300004280CD8CDE904C3DFE800F0033F2010C5
:104540001D0006980421012250F823001BE0BCF155
:10455000620F1FD0BCF1660F1CD02EE0069800221F
:1045600050F8230007F0D4F90221DDE904C3DDE9A6
:10457000022E78B921E00698042101E00698012175
:1045800050F82300002207F0C3F9DDE904C3DDE998
:10459000022E88B1013E0133B8E7009887420BDD57
:1045A000DAF8082038460AA99047DAF80000002710
:1045B000B0FA80F0400949E702212846FFF724FEBF
:1045C000079E4FF0000A089BB9F10A0F08BF5B4530
:1045D00007D00136A0680BF1010B84F804905B460C
:1045E000E0E620790D28F5D0F3E7FF2608E0FE2667
:1045F00006E02BB1C21A2068A260C118FBF7D4FDF7
:1046000070B21BB0BDE8F08FC8D8000868656C7048
:1046100000000000B0B5064D82210446A8472046A0
:104620008121A84720460121A8470020B0BD00BF36
:10463000DDB30008B0B5044640680021456A204655
:1046400007F054F895F84C00202805D105F14402F4
:104650002046202106F08DFB0020B0BD00207047D1
:104660000020704740680121406A80F85210002005
:1046700070470000F8B504464068144E82210322BA
:104680000823456A2046B047204681210222402364
:10469000B04720460121022240230127B0472A1DAE
:1046A00020460121402306F003FF002085F85270C8
:1046B000286085F85300064801686965817980881B
:1046C000A5F85800002085F85A10F8BD71B400080C
:1046D000EC03002010B54268546A07F007F8012186
:1046E00084F85310A4F85000002010BD70B50446A3
:1046F00008780D46616810F06002496A12D0202ADD
:104700001CD1EA88002A2FD040B26B78B0F1FF3F6D
:1047100018DDA1F84E2081F84C304431204606F0D7
:104720007BFC21E0687801380A2807D8DFE800F030
:104730001C061C060606060606151A00204606F08C
:10474000A3FC11E001F1440620461946324606F06A
:1047500010FBEA882046314601E02046012206F09F
:1047600081FC01E068880860002070BD002070476F
:1047700080B507A007F08AFC03F0DAFE18B1BDE8A7
:10478000804003F0F5BC0548BDE8804008F0BCB9A6
:10479000434C525F53544154533A20001FD90008F0
:1047A000F8B5FDF793FBFDF7DAFA05460AA008F025
:1047B000ABF90C4F6E46AC420DD82046314604F0A2
:1047C000E7FA30B9009A3846214607F05FFC013419
:1047D000F1E703F0CDFCF8BD44554D505F5245471D
:1047E000533A0D00CDD800081CB501A804F076F8A6
:1047F000044608A007F04AFC1CB1204603F0B8FCB0
:104800001CBD0198FBF796FF024605A00B4607F07A
:104810003DFC1CBD4745545F525353493A200000AC
:10482000252E31662064426D0D0A0000E0B50EA011
:1048300007F02CFC0DF107000DF106010DF105024A
:1048400001AB03F0A3FE10B103F092FC8CBD9DF808
:1048500004009DF805309DF806209DF80710009093
:1048600004A007F013FC8CBD4745545F43484950F2
:104870003A20000025642C25642C25642C25640D29
:104880000A0D0A000248416802A007F0FFBB00BF02
:10489000241600204745545F44455649443A202594
:1048A000640D0A0004484FF47A718068B0FBF1F19E
:1048B00002A007F0EBBB00BF241600204745545F61
:1048C000465245513A2025750D0A00001CB5054891
:1048D00000F16004006F1ECCCDE9004002A007F09B
:1048E000D5FB1CBD241600204745545F4A414D505E
:1048F0004152414D533A2053544152543D25642C6A
:1049000053544F503D25642C535445503D25642C41
:1049100054494D453D25642C4D4F443D25640D0AB9
:104920000000000010B50F4C0FA0627B216907F05A
:10493000ADFB154807F0AAFB207D04289ABF144957
:1049400051F82000114808F0DFF8124807F09EFBEC
:10495000617D4448424A012908BF1046BDE8104025
:1049600008F0D2B8241600204745545F4D4F4450FC
:104970004152414D533A200D0A42573D25750D0ACB
:1049800053463D25640D0A008BD9000800D9000864
:10499000B4CB00088FD90008024890F8881002A014
:1049A00007F074BB241600204745545F504B544613
:1049B0004F524D41543A2025640D0A002DE9F04133
:1049C000124DDFF87C8A12A02A8BA97DEB7EC047AE
:1049D000A97E214E1F481E4A012908BF1046B04734
:1049E0001E48C047287F1F4C1D4F0128204608BF86
:1049F0003846B0471C48C047687F3146012808BF89
:104A00003C462046BDE8F041084700BF2416002080
:104A10004745545F5041434B4554504152414D53DB
:104A20003A0D0A53594E433D3078253032582C50B8
:104A300052455F4C454E3D25640D0A5041595F4C2F
:104A4000454E3D25640D0A4845414445523A000013
:104A50004FD9000859D9000809CB00087CD90008B3
:104A600023D900081AD9000881D900080248D0F8D3
:104A70008C1002A007F00ABB241600204745545FA3
:104A80005041495249443A2025640D0A0000000073
:104A9000024890F90C1002A007F0F8BA2416002082
:104AA0004745545F504F5745523A20256420644291
:104AB0006D0D0A00BFB5094DD5F88400FBF73AFE2D
:104AC000D5E91D4241EC100BD5E91F3504A0214664
:104AD0008DED020B009507F0D9FABFBD241600201A
:104AE0004745545F5343414E504152414D533A2044
:104AF00053544152543D25642C53544F503D25642A
:104B00002C535445503D25642C54494D453D256456
:104B10002C525353493D252E31660D0A00000000EA
:104B2000E0B50AA007F0B2FA684603F033FF10B10F
:104B300003F01EFB8CBDBDF80430BDF80220BDF8AB
:104B4000001005A007F0A2FA8CBD00BF4745545FD6
:104B500053544154533A2000504B543D25642C4645
:104B60004552523D25642C484552523D25640D0A5C
:104B700000000000E0B50AA007F088FA0DF1070078
:104B80000DF1060103F052FD10B103F0F1FA8CBDF6
:104B90009DF806209DF8071005A007F077FA8CBD58
:104BA0004745545F5354415455533A200000000088
:104BB0003078253032582C3078253032580D0A00A4
:104BC00080B505480068FBF7B5FD024603A00B461B
:104BD000BDE8804007F05ABA900800204745545F6E
:104BE000564241543A20252E32660D0A000000003C
:104BF00002A001210022012307F048BA4745545F73
:104C000056455253494F4E3A2048573D25642C464D
:104C1000573D25642E25640D0A00000080B509A0CB
:104C200007F034FA0B48007804289ABF0CA151F819
:104C3000200009A007F02AFA7F48BDE8804007F06D
:104C400063BF00BF4745545F574F524B4D4F4445DC
:104C50003A20000049040020554E4B4E4F574E005D
:104C600006DA0008A9DA0008B8DA0008B1DA0008A4
:104C7000B8DB00081CB50DF1070003F0D3FE0446B5
:104C800006A007F003FA1CB1204603F071FA1CBD20
:104C90009DF80710054807F0F9F91CBD4745545F1A
:104CA000584F5452494D3A20000000001CDD0008C6
:104CB00080B5FFF7D5F9024602A00B46BDE880405B
:104CC00007F0E4B94745545F5549443A2030782508
:104CD0006C6C580D0A0000009B480349034B4FF4CD
:104CE0008072FFF7AABA00BFF00800208C000020F5
:104CF000B0B50DA00C4607F0C9F96068FFF799FA46
:104D00000546A068FFF795FAAAB2C1B2104603F0B3
:104D1000EBFE18B1BDE8B04003F02ABA9748BDE8F1
:104D2000B04007F0F1BE00BF494E49545F434F4EBB
:104D30004649473A20000000BCB5FCF750FF044646
:104D400013A007F0A3F9E24D05F160030FCB64B1A6
:104D500095F87040009404F043FB58B905F07EFDCF
:104D6000B64803210170B6480EE00024009404F018
:104D700037FB18B1BDE8BC4003F0FAB905F068FD97
:104D8000AE4801210170B048BDE8BC4007F0BCBE90
:104D90004A414D3A200000002DE9F84348681F4F72
:104DA0000E46B8470546B068B8470446F068B847AD
:104DB00006461BA007F06AF9E0B27E2888BF7E2471
:104DC000E0B2310648BF7F26F1B28142184898BF51
:104DD000661C40F6D53115F0FC0F18BF032500887E
:104DE000884214D1DFF85080EFB2F6B20FF24C09CE
:104DF000E5B2AE420DD338462946FDF705FC034621
:104E0000484639462A4607F041F90134F0E7DFF811
:104E100024804046BDE8F84307F076BE33420008E0
:104E200050414E5F44554D50524547533A20000083
:104E30002416002027D90008C6D800080D0A2564CA
:104E40002C3078253032582C3078253032580000FC
:104E5000B0B5FDF73BF8FCF782FF05460FA007F061
:104E600015F9CB4840F6D5310088884211D114F0AD
:104E7000FC0F18BF0324EDB2E4B229462046FDF72B
:104E8000C3FB0346274821462A46BDE8B04007F049
:104E9000FDB82348BDE8B04007F036BE50414E5F34
:104EA000524541445245473A20000000F8B5486851
:104EB000164F0E46B8470446B068B8470546F06836
:104EC000B847064612A007F0E1F8EB4840F6D531A6
:104ED0000088884214D114F0FC0F18BF0324EDB2EF
:104EE000F6B2E4B2294632462046FDF732FE0D48BE
:104EF00021462A46334601B0BDE8F04007F0C6B867
:104F00000748BDE8F84007F0FFBD00BF3342000886
:104F100050414E5F57524954455245473A20000090
:104F200027D90008D9D80008E0B5FDF749FF8DF86A
:104F30000700C0B238B1FF2805D003480DF10701C2
:104F40000122FFF70FFA8CBDC019002080B507A021
:104F500007F09CF803F094FD18B1BDE8804003F021
:104F600007B90648BDE8804007F0CEBD524144492C
:104F70004F5F494E49543A20000000001FD90008F5
:104F80001CB5FCF72CFE044608A007F07FF801A929
:104F9000204603F0FDFE10B103F0EAF81CBD019AB3
:104FA0000548214607F072F81CBD00BF5245414438
:104FB0005F5245473A200000CDD8000880B503A0D5
:104FC00007F0A2FDBDE88040FFF754B852455345B5
:104FD000543A204F4B0D0000B0B5FCF700FE0446DC
:104FE00013A007F053F8144D05F174030FCB5CB117
:104FF00095ED210A03F040FF58B904F04BFB0F4830
:10500000022101700E480EE09FED0E0A03F034FFFE
:1050100018B1BDE8B04003F0ABB804F035FB074869
:10502000012101700848BDE8B04007F06DBD00BF28
:105030005343414E3A20000024160020490400202A
:1050400075D900080000000035D9000870B548681F
:105050000C46FFF7EEF80F4D2860286808B90120CC
:105060002860A068FFF7E5F80B4E3060E068FFF7B6
:10507000E0F80A49C1F88C00306863289CBF6420BE
:10508000306004F075F93268296805A0BDE8704009
:1050900006F0FCBF281F0020E0030020241600209B
:1050A00053544152545F54583A2025642C25640DC2
:1050B0000A00000010B5FCF792FD054C606006F098
:1050C000BDFF616803A0BDE8104006F0DFBF00BF70
:1050D000241600205345545F44455649443A202540
:1050E000640D0A00B0B548680C46FFF7A2F803F05B
:1050F0007FFF05460BA006F0C9FF25B12846BDE895
:10510000B04003F035B86068FFF793F84FF47A7158
:10511000074A48439060B0FBF1F106A0BDE8B040FB
:1051200006F0B4BF5345545F465245513A20000043
:105130002416002025750D0A000000002DE9FE430D
:105140004868DFF848900E46C8478046B068C847B0
:105150000746F068C84705463069C8470446706985
:10516000C8470B4905EB08022B46974288BF3A46D1
:10517000CDE900400867C1E91882C1E91A5405A0C9
:10518000414606F083FFBDE8FE8300BF33420008BE
:10519000241600205345545F4A414D504152414D21
:1051A000533A2053544152543D25642C53544F508C
:1051B0003D25642C535445503D25642C54494D45A0
:1051C0003D25642C4D4F443D25640D0A0000000030
:1051D0002DE9F8434868234F0C46B8470646A068B7
:1051E000B8478046E068B84705462069B847044696
:1051F0001DA006F04BFFB6B25FFA88F7EAB2E3B241
:105200003046394603F0A6FF18B1BDE8F84302F076
:10521000AFBFDFF8649019A031463A4689F81540CF
:1052200089F8145089F80D80C9F8106006F02EFF37
:10523000174806F02BFF99F8140004289ABF164966
:1052400051F82000134807F05FFC144806F01EFFD9
:1052500099F8150001280CBF7D487E48BDE8F84349
:1052600007F052BC334200085345545F4D4F445041
:105270004152414D533A2000241600200D0A425756
:105280003D25750D0A53463D25640D0A00000000BA
:105290008BD9000800D90008B4CB00088FD90008CA
:1052A00010B5FCF79CFC044608A006F0EFFE0A4887
:1052B000007803F095FF18B1BDE8104002F058BF28
:1052C000E1B206A0BDE8104006F0E0BE5345545FD1
:1052D0004F504D4F444520000D14002025640D0A09
:1052E0000D0A000080B5FCF77AFC80F30201044847
:1052F00080F8881003A0BDE8804006F0C7BE00BF5C
:10530000241600205345545F504B54464F524D4194
:10531000543A2025640D0A002DE9F04F85B0486805
:10532000344E0D46B0470746A868B0470446E868C3
:10533000B04781462869B04783466869B0478246CE
:10534000A869B0478046C0B25FFA8AF1FDB2A6B242
:105350005FFA8BF3CDE9001004975FFA89F72846CE
:10536000314603944C463A4603F06EFF814622A034
:1053700006F08CFEB9F1000F05D0484605B0BDE837
:10538000F04F02F0F5BEDFF88490039829463246CC
:105390003B46A9F81800049889F81B40284C89F866
:1053A0001D8089F81CA089F81AB089F8160018A089
:1053B000A04799F81A102448224A012908BF10462C
:1053C00007F0A2FB2148A04799F81C10D848204AB2
:1053D000012908BF104607F097FB1F48A04799F81E
:1053E0001D0001280CBF1A48D14805B0BDE8F04F98
:1053F00007F08ABB334200085345545F5041434B8A
:105400004554504152414D533A200000241600208B
:105410000D0A53594E433D3078253034582C5052A4
:10542000455F4C454E3D25640D0A5041595F4C4542
:105430004E3D25640D0A4845414445523A0000005E
:105440008DC000084FD9000859D900087CD9000840
:1054500023D900081AD9000881D9000810B5FCF733
:10546000BEFB064CC4F88C0006F0E8FDD4F88C10A6
:1054700003A0BDE8104006F009BE00BF24160020BE
:105480005345545F5041495249443A2025640D0A1E
:105490000000000070B54868FEF7C7FE44B205463C
:1054A000204603F0F3FD064608A006F0EFFD26B106
:1054B0003046BDE8704002F05BBE074821460573E8
:1054C00006A0BDE8704006F0E1BD00BF5345545F43
:1054D000504F5745523A200024160020256420647E
:1054E000426D0D0A000000002DE9FF414868234E7F
:1054F0000F46B0478046B868B0470446F868B047E2
:1055000005463869B04706460A281D48D8BF0A260E
:105510008642A8BF06467869FEF784FE05EB0807B9
:10552000BFEE001A1748BC42B4EE410A88BF2746B6
:10553000C0E91D87C0E91F56F1EE10FAC8BFB0EEF2
:10554000410A9FED111AB4EE410AF1EE10FAB8BF0C
:10555000B0EE410A80ED210A10EE100AFBF7EAF8DE
:1055600041EC100B09A041463A462B4600968DEDC2
:10557000020B06F08BFDBDE8FF8100BF334200083F
:10558000A0860100241600200000FFC25345545F8E
:105590005343414E504152414D533A20535441528E
:1055A000543D25642C53544F503D25642C53544591
:1055B000503D25642C54494D453D25642C52535390
:1055C000493D252E31660D0A00000000B0B5FCF7FC
:1055D00006FBC4B2204603F087FE054607A006F08E
:1055E00055FD25B12846BDE8B04002F0C1BD0748D1
:1055F0002146BDE8B04006F049BD00BF5345545FA9
:10560000584F5452494D3A20000000001CDD00085C
:1056100006480178012911BF05A0094900220A7036
:1056200004BF027007A007F06FBA00BF4404002057
:1056300053544F505F54583A204552524F520D0028
:105640004504002053544F505F54583A204F4B0D9F
:105650000000000080B508A006F018FD06F0EEFC82
:1056600020B140B2BDE8804002F082BD0648BDE8EE
:10567000804007F049BA00BF53544F52455F434F33
:105680004E4649473A2000001FD9000810B51AA01D
:105690000C4606F0FBFC6068FEF7CBFDC0B203F0E1
:1056A0006FFE18B1BDE8104002F062BD15480078E9
:1056B0000138032817D8DFE800F00211070C124860
:1056C0000421017017A012E00F48042101700FA0FF
:1056D0000DE00D480421017013A008E00A480421E0
:1056E00001700DA003E00848012101701048BDE8D9
:1056F000104007F009BA00BF54585F535452454157
:105700004D3A20004A040020490400203031303155
:105710002E2E2E0D00000000505245414D424C45AA
:105720000D00000043570D00504E390D00000000E1
:105730001AD90008B0B5FCF7C9FBFCF710FB054609
:1057400009A006F0A3FC2046294603F0ADFE18B1DF
:10575000BDE8B04002F00CBD064821462A46BDE82F
:10576000B04006F093BC00BF57524954455F5245C4
:10577000473A2000CDD80008BCB5FCF7E2FC012078
:105780000EA2FCF733FA0E4D287DFCF7B1F901ACFF
:10579000FCF703FDFCF71DFDFAD10198002104225E
:1057A000FEF72AFD28750190C2B2697B6B7D288ABD
:1057B00003F0D0FC00F098FBBCBD00BF43520000DA
:1057C00024160020B4490A6860F38F3280080A600A
:1057D0000A6860F31C720A60704700BFAE4900F0AF
:1057E0000F000A6822F0F00242EA001008607047D9
:1057F000A94900F007000A6822F4E06242EA0020AA
:1058000008607047A44900F007000A6822F460525B
:1058100042EAC02008607047042809D8DFE800F099
:10582000031E0F1809007F48026861F3000202603E
:1058300070477C48426A61F300024262704701F09F
:10584000010078490A6822F0807242EA00600DE0A7
:105850007448026A61F300020262704701F00100BD
:1058600070490A6822F4803242EA004008607047BA
:1058700025490A68C2F38103244AB0B5DFE803F082
:10588000021E0A1E0B6D9B0518D5CB6A9B0148BFF3
:10589000204A13E00B680C680D68C5F34175C4F32A
:1058A00083440DB90F2C2DD12D0101352C44DB0380
:1058B00002D50B689B0300D5154A6243026016A40B
:1058C0000B68C3F30313E35C174CDA4042600B68C8
:1058D000C3F30223E35C22FA03F3C3600B68C3F350
:1058E000C223E35C0424DA4082600B68096804EA9E
:1058F0009363C1F3813119440CA3595CB2FBF1F1FC
:105900000161B0BD0225D1E70410024000127A0007
:1059100000093D00006CDC020000000000000000F7
:10592000010203040607080902D50008020406085C
:10593000020C08103B4A010C00F01F00895821FAA4
:1059400000F000F001007047364800210268920321
:1059500004D44A1CB1F5405F1146F7D30068C0F388
:105960004040704700F01F020123000C93402D4A75
:105970000129815814BF994319438150704700BFD2
:1059800000F01F020123000C9340264A0129815890
:1059900014BF994319438150704700BF10B53E4B67
:1059A0001C6858B144F4803401281C601C6814BF82
:1059B00044F4003024F40030186006E024F4803011
:1059C0001860D86A40F00070D862186861F395409A
:1059D00018600809196860F35E711960186820F092
:1059E000004040EAC270186010BD00BF0D48016859
:1059F00041F00101016001688907FCD5416821F08F
:105A000003014160416811F00C0FFBD10168064AA7
:105A1000114001600021416001634FF41F0181606A
:105A2000704700BF00100240FFFFF2FE094900F07E
:105A300001000A6822F4004242EAC0300860704760
:105A4000044900F003000A6822F4407242EA002090
:105A500008607047201002400F490A6860F3010295
:105A60000A607046FCF760F986467046FCF75CF900
:105A70008646704708480068C0F38100704700BF41
:105A800005490A6860F3975280080A600A6860F363
:105A9000DB620A60704700BF041002400949012818
:105AA00007D10A6842F000720A604A6A42F4007242
:105AB0004A624A6A00F0010022F4807242EA002041
:105AC000486270473010024002490A6860F30002E1
:105AD0000A6070475C100240B0B50B480B49026881
