:020000040800F2
:1000000018220020E9000008E30A0008B90A0008E5
:10001000E10A0008B50A0008CF130008000000003C
:10002000000000000000000000000000410C00087B
:10003000FD00000800000000DB0B00089D12000816
:100040000301000803010008030100080301000880
:100050000301000803010008C9130008CD130008BC
:100060000301000803010008030100080301000860
:100070000301000803010008030100080301000850
:10008000490A0008030100080301000803010008F1
:1000900003010008DD0A000803010008A11300089D
:1000A0000301000803010008030100080301000820
:1000B0000301000803010008030100080301000810
:1000C0000301000803010008D90B00080301000820
:1000D00003010008DFF80CD000F062FC0048004784
:1000E000252A0008182200200648804706480047B5
:1000F000FEE7FEE7FEE7FEE7FEE7FEE7FEE7FEE7D8
:10010000FEE7FEE761130008D500000810B5431AAA
:10011000934209D28318881803E010F8011D03F8F0
:10012000011D521EF9D210BD40EA01039B0703D006
:1001300009E008C9121F08C0042AFAD203E011F826
:10014000013B00F8013B521EF9D210BDCAB2401E5D
:1001500010F8011F8A4202D00029F9D1002070470F
:10016000421C10F8011B0029FBD1801A704730B5E2
:1001700003461D783DB10A4612F8014B1CB1AC4252
:10018000FAD15B1CF5E7181A30BD30B505460020E2
:1001900008E00A4602E0A34207D0521C1378002B65
:1001A000F9D1401C2C5C002CF3D130BD2DE9F0417D
:1001B0000E460546002400E0641C285D00F0D6FAD7
:1001C0000746305D00F0D2FA381A02D1295D0029C5
:1001D000F2D1BDE8F0812DE9F04791460F46804607
:1001E0000446002614F8015B2DB100F0BBFA00684C
:1001F000405DC007F6D12B2D02D02D2D18D0641EE6
:100200004A463946204600F0B7FA27B13968A1427C
:1002100001D1C7F8008071054FF002040BD54042B0
:10022000002803DD03F05AFF0460A007BDE8F08753
:1002300046F48066E4E70028F8DA03F04FFF046034
:100240006FF00040F2E72DE9F05F93460F468046DD
:100250000446002603F042FFD0F80090824614F8CE
:10026000015B2DB100F07EFA0068405DC007F6D159
:100270002B2D02D02D2D1AD0641E0021CAF800109B
:100280005A463946204600F077FA014627B13868C9
:10029000A04201D1C7F80080DAF80000022809D096
:1002A000CAF80090700505D54842BDE8F09F46F4B5
:1002B0008066E2E70846F8E72DE9FE4F804681EACE
:1002C0000300C00F0C46009021F0004123F00045D0
:1002D000B8EB0200A94105D24046214690461C4693
:1002E0000B46024623F00040104347D0270DC7F3CA
:1002F0000A00C3F30A510290401A019040286BDAB9
:10030000C3F3130040F4801B0098924620B10023F1
:10031000D2EB030A63EB0B0B01985946C0F1400284
:10032000504600F0EDF906460D4650465946019AF2
:1003300000F005FA10EB08006141002487EA115231
:1003400084EAE7731A4340D0009A62B3019A012A03
:100350004FEA075215DC001B61EB02014FF000422F
:1003600002EA0752CDE90042001C41F580113246F5
:100370002B4600F096FA03B0BDE8F08F40462146C8
:10038000F9E7001B61EB0201001C41F58013001826
:100390005B412018A2F5001747EB030140EAD57036
:1003A000B6196D4111E06D084FEA360645EAC07591
:1003B0004FEA0752001B61EB0201001C41F580115E
:1003C00049084FEA30000019514132462B4603B02C
:1003D000BDE8F04F00F056BA00980122400000231B
:1003E000D0EB020263EBE073009821464FEAE07421
:1003F000B8EB000061EB0401E9E783F000435BE741
:1004000081F0004158E72DE9FE4F81EA030404F032
:10041000004421F0004100944FF0000B23F0004312
:1004200050EA01045ED052EA03045BD0C3F30A54DD
:10043000C1F30A552C44A4F2F3340194A0FB0254F6
:10044000C1F3130141F48011C3F3130343F4801388
:1004500001FB024400FB034E840A970A44EA8154DC
:1004600047EA8357A4FB076802958D0A05FB0785B9
:100470004FEA932C04FB0C542705029D4FEA0658C3
:1004800047EA1637B5EB08056EEB070C870E920EA0
:1004900047EA811742EA8312A7FB0201B6EB0B0180
:1004A00064EB00042B0D43EA0C335E1844EB1C5044
:1004B000DA465146E7FB0201C5F313044FEA0B335A
:1004C00043EA14534FEA0432019C43EA0603A4F1C1
:1004D0000C040294009CCDE900B400F0E2F903B0F2
:1004E000BDE8F08F00200146F9E72DE9F04D81EAE3
:1004F000030404F0004B21F0004514464FF0000ABD
:1005000023F0004150EA050220D054EA01021DD038
:10051000C5F30A570246C5F31303C1F31300C1F331
:100520000A5640F4801543F48013A7EB0608101B0D
:10053000D64608F2FD3873EB050002D308F1010836
:1005400001E092185B41B8F1000F03DA0020014688
:10055000BDE8F08D00204FF48011064684460EE081
:10056000171B73EB050705D3121B63EB050306434B
:100570004CEA010C49084FEA300092185B4150EAFE
:100580000107EDD152EA030012D082EA040083EAA7
:100590000501084305D0101BAB4106D20122002300
:1005A00006E000224FF0004302E06FF0010253101A
:1005B0001AEB06004CEB085110EB0A0041EB0B0163
:1005C000BDE8F04D00F05EB90EB540F23341029146
:1005D0000021CDE900110A460B4600F062F903B094
:1005E00000BDC1F30A5210B5C1F3130140F2FF334D
:1005F00041F480119A4201DA002010BD40F23343E9
:100600009A42A2F2334203DC524200F088F810BD55
:10061000904010BD00F0004230F000400AD0C10D03
:1006200001F56071C0F3160042EA0151C2084007AB
:100630001143704700200146704701F0004330B479
:1006400021F0004150EA010206D00A0DA2F56072C5
:10065000C1F31301002A02DC30BC00207047440FB4
:1006600044EAC104C100E01830BC00EBC25000F005
:10067000D2B830B50B46014600202022012409E003
:1006800021FA02F59D4205D303FA02F5491B04FA4B
:1006900002F52844151EA2F10102F1DC30BD2DE95E
:1006A000F05F0546002092469B46884606468146F6
:1006B00040241BE0284641464746224600F02FF8DA
:1006C00053465A46C01A914110D311461846224645
:1006D00000F016F82D1A67EB01084F46224601205C
:1006E000002100F00DF817EB00094E41201EA4F187
:1006F0000104DFDC484631462A464346BDE8F09F08
:10070000202A04DB203A00FA02F1002070479140D1
:10071000C2F1200320FA03F3194390407047202AC6
:1007200004DB203A21FA02F00021704721FA02F39B
:10073000D040C2F120029140084319467047202A58
:1007400006DBCB17203A41FA02F043EAE07306E0F9
:1007500041FA02F3D040C2F1200291400843194609
:100760007047000000487047604A0008A0F141014E
:10077000192900D8203070472DE9F05F82460078B3
:10078000002715468B460AF10104B946302801D0EE
:100790009DB113E014F8010B0127782803D05828E5
:1007A00001D045B10AE00DB1102D07D10027102569
:1007B00014F8010B02E0082500E00A250026B046E7
:1007C0000EE005FB080005FB06F1012701EB1046D2
:1007D0001FFA80F8B6F5803F00D3B94614F8010B34
:1007E000294600F0F5F80028EBDABBF1000F05D040
:1007F0000FB1641E00E05446CBF80040B9F1000F81
:1008000006D003F06BFC02210160C81EBDE8F09F1A
:1008100048EA0640FAE70029A8BF7047401C490093
:1008200008BF20F00100704710B4B0FA80FC00FA55
:100830000CF050EA010404BF10BC704749B1CCF180
:10084000200421FA04F411FA0CF118BF012121430C
:100850000843A3EB0C01CB1D4FEA00614FEA1020C7
:1008600042BF002010BC704700EBC3501044002969
:10087000A4BF10BC7047401C490008BF20F0010015
:1008800010BC704710B5141E73F1000408DA401C48
:1008900041F1000192185B411A4301D120F001009F
:1008A00010BD2DE9F04D92469B4611B1B1FA81F28F
:1008B00002E0B0FA80F220329046FFF721FF0446B2
:1008C0000F4640EA0A0041EA0B0153465A460843E4
:1008D00013D0114653EA010019D0C8F14002504626
:1008E000FFF71DFF05460E46504659464246FFF7A4
:1008F00007FF084305D0012004E020463946BDE843
:10090000F08D0020054346EAE0762C4337430A98F1
:100910006305E40AA0EB08000022FD0A44EA4754FC
:100920000A3002D500200146E9E7010510196941A6
:10093000DDE9084500196941BDE8F04DA2E7C1F3C2
:100940000A52C1F3130140F2FF3341F480119A427D
:1009500002DA00200146704740F233439A42A2F285
:10096000334202DC5242FFF7DABEFFF7C9BE000095
:1009700030B5041E71F1000404DB4FF00044404226
:1009800064EB0101141E73F1000405DB1C464FF0FB
:100990000043524263EB0403994208BF904230BDCA
:1009A0001CB509480090094801900546009C06E0E6
:1009B000E06840F0010394E8070098471034AC4227
:1009C000F6D3FFF78BFB00009C4E0008BC4E0008DE
:1009D0003A2800D2303820F02002412A01D3A2F177
:1009E0003700884201D34FF0FF30704770B58C1844
:1009F00010F8015B15F0070301D110F8013B2A1133
:100A000006D110F8012B03E010F8016B01F8016B1F
:100A10005B1EF9D12B0705D40023521E0DD401F81B
:100A2000013BFAE710F8013BCB1A921C03E013F8E4
:100A3000015B01F8015B521EF9D5A142D8D3002019
:100A400070BD000000000000F8B5012000F0AAFD14
:100A500038B3012000F0DCFC00F09CFDFFF7B4FD92
:100A60009FED110B53EC102BFFF7CDFC104F0446FC
:100A70000D46D7E90060FFF7CDFD02460B46204644
:100A80002946FFF7BAFC044630460D46FFF7C2FD83
:100A900002460B4620462946FFF727FDFFF7CDFD0E
:100AA000B860F8BD00BF00BF0000000000C0D23F2A
:100AB00040020020FEE7000003A003F07DFF642059
:100AC00001F070FD00F092FC48617264204661758F
:100AD0006C74206F63637572730D000000F0B2BA1E
:100AE000FEE77047486800F0C9BD0A600A68104315
:100AF00008607047012202FA01F102680A430260AD
:100B00008268704710430860704794F8291040F6D7
:100B1000121000F095BB9DF805003870BDF8060076
:100B200000BA000C3080BDF8080000BA000C288024
:100B3000BDF80A0000BA000C2080FEBD0A680860FB
:100B40001A6002F01DBC14460D46064600F06ABA53
:100B5000012202FA01F102688A43026082688A4334
:100B6000826042688A4342608269704794F8281024
:100B700040F6111000F064BB9DF800009DF80110D4
:100B80009DF802209DF80330387031707047A069DD
:100B90009843A061A0689843A06020687047022035
:100BA00000F0D8BA8DF80600200C8DF805007047CB
:100BB0000A438260C2680A43C26002697047012228
:100BC00000F01CBB142004221C4600F077BA102051
:100BD00007221C4600F072BA7047704710B5174CD8
:100BE000207808B900F018F860680128BCBF4FF001
:100BF000FF3010BDA0680749085CA1680131A16001
:100C0000A168B1F5007F04BF0021A16061680139CE
:100C1000616010BDF915002080B5074800214FF430
:100C2000806200234FF0FF304FF4E13001F0A4FF69
:100C300002480121017080BD000000203002002028
:100C40007047E0B561F34100049962F3820063F3F9
:100C5000C30061F3041005990029069918BF2030DC
:100C6000002918BF40F040008DF807000DF1070182
:100C70008920FFF7A4FF8CBDDF480A494FF47F723B
:100C80008068B0FBF1F1B1F57F7F28BF114688087D
:100C900001EB5101B1F57F7F38BF0A46910800F0A2
:100CA00003B800BF40420F00E0B58DF807108DF883
:100CB00006000DF106019820022200F09FFA8CBD7B
:100CC000E0B540BA0DF106010222ADF8060002209F
:100CD00000F094FA8CBDE0B50DF10501122003225D
:100CE00000F0ECF9BDF8060000BA000C8CBDF8B5B8
:100CF00015460E4607466946FFF764FFFFF73CFFBF
:100D00002A802370F8BDE0B50DF1060115200222FE
:100D100000F0D4F99DF807008CBD7CB514460D4653
:100D200006460DF105011320032200F0C7F99DF8D6
:100D300005009DF806109DF807203070297022707C
:100D40007CBD9421002840F6AC0018BF962100F02D
:100D500077BAFEB515460E4607460DF10501FFF7B9
:100D600036FFFFF7D8BEE0B5002069460622ADF891
:100D70000400009000F042FA8CBDE0B58DF8071039
:100D80008DF806000DF106018F20022200F036FAE0
:100D90008CBD80B500F0DCF9D12000210022BDE837
:100DA000804000F02BBAE0B58DF807000DF1070187
:100DB0009D20FFF704FF8CBDE0B58DF804006FF0B7
:100DC0007F40814238BF08468DF80700010A000CB9
:100DD00004228DF805008DF8061001A9972000F077
:100DE0000DFA8CBDE0B58DF80520120A8DF80310C0
:100DF000090A8DF80100000A8DF807301B0A8DF8EA
:100E000004208DF802108DF80000694608200822A1
:100E10008DF8063000F0F2F98CBDC12000210022CF
:100E200000F0ECB91CB58DF807308DF806200529C7
:100E300098BF052104460C2928BF0C218DF8050018
:100E40008DF8041001A98B20042200F0D7F9063C8C
:100E500040F6890018BF012400F04CF900F0FB00B7
:100E600040EA840140F6890000F0EAF91CBD1CB597
:100E70008DF805108DF806308DF80420012898BFF4
:100E800001208DF80300049C0DF10201000A0622E6
:100E90008DF802008C208DF8074000F0AFF940F289
:100EA000367000F027F900F0FB0140F23670002C9C
:100EB00008BF043100F0C4F91CBDE0B501238DF872
:100EC00006208DF804008DF80730072928BF072178
:100ED0008DF8051001A99520042200F08FF98CBD32
:100EE000E0B58DF807000DF107018A20FFF767FED6
:100EF0008CBDE0B5002818BF01208DF807000DF16A
:100F000007019620FFF75BFE8CBDE0B500BA042216
:100F1000019001A9862000F071F98CBD1CB56FF01D
:100F20007F44A04238BF044600F010F9200A0DF1BA
:100F3000050103228DF80740FFF734FE822000F000
:100F40005DF91CBDE0B561F382000DF107010122DE
:100F50008DF80700842000F051F98CBDE0B5002821
:100F600018BF01208DF807000DF107018020FFF761
:100F700026FE8CBD1CB56FF07F44A04238BF0446EE
:100F800000F0E6F8200A0DF1050103228DF8074074
:100F9000FFF708FE832000F031F91CBD80B500F09A
:100FA000D7F8D22000210022BDE8804000F026B909
:100FB0001CB50420072100220024FFF77EFF40F625
:100FC000E700382100F03CF90B480DF10601022240
:100FD0008DF80740007B8DF806008E2000F00EF99A
:100FE00040F6D80000F086F840F01E0140F6D80028
:100FF00000F026F91CBD00BF5802002010B5A54C1A
:1010000000202060142001F0D3FAC02001F0F2FC8F
:10101000002001F0EFFC01202060BDE8104001F04D
:10102000F5BC00BF05480649013002D00A68D20568
:10103000FAD4002818BF0120704700BFBFBDF0FFE1
:101040000891004010B5FFF746FE044647F6FF70D2
:10105000FFF736FEE00702D0064801210170A00725
:1010600002D5054801210170600602D5034801211F
:10107000017010BD4C0200204D0200204E020020E5
:101080002DE9F041FFF75FFD82490020824F0860A3
:101090001E208846B8473046B847FF20B84734B1CD
:1010A000FF2001F0A7FC05F8010B013CF7E7012048
:1010B000C8F80000BDE8F041FFF7B4BF2DE9F041EA
:1010C000FFF741FD7348002780460760304601F076
:1010D00091FCFEB2B44205D9FF2001F08BFCA8556B
:1010E0000137F6E70120C8F80000BDE8F041FFF73E
:1010F00099BF00BFE0B50DF10701012200F004F82F
:101100009DF807008CBD00002DE9F041FFF71BFDA5
:1011100060490020604F08601D208846B847300AAB
:10112000B847F0B2B847FF20B84734B1FF2001F00C
:1011300061FC05F8010B013CF7E70120C8F800004D
:10114000BDE8F041FFF76EBF01F026BC01F046BCE0
:1011500001F04ABC07280BD8DFE800F0041621276D
:101160000A2C111C1748002101700020FFF7EABE6D
:101170001448042101706FF07F40FFF7CFBE114883
:1011800006210170FFF705BE0E4801210170002005
:10119000FFF7E4BE0B4807210170FFF7FFBE0948C7
:1011A000022101700120FFF7D9BE0648032101701A
:1011B000FFF733BE0348052101706FF07F40FFF752
:1011C000D9BE00BFE8130020F8B5FFF7BCFC314FD3
:1011D000002038600E2001F00DFC304601F00AFCC2
:1011E0002CB115F8010B01F005FC013CF8E70120DA
:1011F0003860BDE8F840FFF715BF00BF2DE9F041AA
:1012000015460E460446FFF70DFF2248002780468C
:101210000760204601F0EEFBF8B2854204D9305C4D
:1012200001F0E8FB0137F7E70120842CC8F8000043
:1012300008BFBDE8F081BDE8F041FFF7F3BE00BF95
:10124000E0B58DF807100DF10701012200F002F85A
:101250008CBD00002DE9F843FFF775FC0D48002711
:10126000DFF83480814607600D20C047300AC04750
:10127000F0B2C047F8B2844204D9285C01F0BAFB4E
:101280000137F7E70120C9F80000BDE8F843FFF790
:10129000C9BE00BF0C910040F529000880B5214867
:1012A000016801310A29016004D100210160012097
:1012B00000F08EF91C48017801291DD11B4A1168E4
:1012C000013111601A49096813688B4214D3002157
:1012D0001160184A136801331360174B12681B68BA
:1012E0009A4206D901701548017015A003F064FBFD
:1012F00002E01248012101701448007818B914481E
:101300000078012805D1134801680139016001689E
:1013100001B180BD104909680160104801210170C8
:1013200080BD00BFE0020020B4020020D0020020F7
:1013300028020020BC020020141A0020B502002060
:1013400054583A20444F4E450D000000B60200208C
:10135000B7020020DC020020D8020020B8020020E2
:1013600080B50C480122016841F4700101600A480F
:10137000016841F0800101600848C16862F31341CF
:10138000C16001688907FCD501F028FCBDE88040F8
:1013900001F0E8B888ED00E00C00004008000240D1
:1013A0001CB5084C0DF107020121204602F017FD83
:1013B0009DF80700012803D12046012102F0F4FC2A
:1013C0001CBD00BF00A0004000F01CB97047FEE744
:1013D0000D48BFF34F8F0D4A016801F4E0611143DE
:1013E0000160BFF34F8F00BFFDE700BF0648BFF3AA
:1013F0004F8F064A016801F4E06111430160BFF3B9
:101400004F8F00BFFDE700BF0CED00E00400FA05C0
:1014100068490A680240824202D10A6810430860A3
:10142000704700BF0021B1EB103F08D1074940F6DB
:10143000FF730A689A430A600A681043086070479D
:1014400002490A6822F44012FFF74FBB04700140C2
:10145000044A002911680CBF21EA0000084310600B
:10146000704700BF187001400649012804D038B900
:10147000086820F0400002E0086840F04000086082
:10148000704700BF4880004010B56FF01F02082869
:10149000094C02EB800238BF82000F2304349140D4
:1014A000934008283CBF47F20804C4F201042068B6
:1014B00098430843206010BD087001404D490A68F8
:1014C00008B13AB17047D007FCD008684007F9D49A
:1014D000022000E001200A6810430860704700BF46
:1014E00003490A6822F0007260F359620A6070478B
:1014F000B080004000000000F8B50E4624490546C3
:1015000005201446002D18BF0D20D1E9001721FA3F
:1015100000F0C0B2FFF758F89FED150B53EC102BFD
:10152000FEF771FF9FED140B53EC102BFEF7C4FE7A
:10153000FFF783F830600420002D18BF0D2027FA34
:1015400000F06FF35F20FFF73FF89FED0D0B53ECBA
:10155000102BFEF758FF9FED0C0B53EC102BFEF7F2
:10156000ABFEFFF76AF82060F8BD00BF00BF00BF08
:10157000FCA9F1D24D62603F000000000000F03F86
:10158000FCA9F1D24D62503FFCA9F1D24D62D0BF0F
:1015900030200010024800686FF31F30704700BF12
:1015A0001C700140034909680140081AB0FA80F034
:1015B000400970471470014080B5112006210422B3
:1015C000002302F0B3FB6420BDE8804000F0F0BFD0
:1015D00008490A6830B1D0070AD00868800707D4E4
:1015E000042002E0500703D508200A681043086071
:1015F000704700BF00700140642000F0D3FFFFF788
:10160000E7FE000010B5114C1021204602F029FC25
:1016100000B110BD204602F0C5FC0D490D4BCA6853
:101620009854C8680130C860486801304860C8688C
:10163000B0F5007F04BF0020C8604868B0F5007FA7
:10164000E7DD0020C8604860886010BD00300040C1
:1016500030020020F9150020022988BF704702A03F
:1016600050F8210003F0A8B9D04A0008F44A000855
:101670001C4B000800210022FEF7ADBD0021002216
:10168000FEF7E1BD50B149B110B50446002004F1A8
:10169000080C21602071ACE80D0010BD01207047DE
:1016A0002DE9F84F8046002600270446CCB120687B
:1016B000B8B1FEF755FD0546606810B1FEF750FD64
:1016C00000E00020AF42C8BF3D46A168002918BF16
:1016D0002F468642C8BF3046002918BF0646103440
:1016E000E4E720A003F068F9264803F065F97542A5
:1016F0007E422D4FDFF894B028A40FF28C090FF230
:10170000900AB8F1000F27D0D8F8002022B3D8F8FB
:101710000800B8B14846314602F0D0FCD8F80400C1
:101720005A4620B10178002908BF58460246504663
:10173000294602F0C3FCD8F80C1039B1087828B15A
:1017400015A001E02046114602F0B8FC384603F02F
:1017500033F908F11008D4E7134803F02DF90120FC
:10176000BDE8F88F3C636F6D6D616E643E203C6137
:101770007267733E203C68656C7020746578743EB7
:101780000D000000424E0008252A7300E34D0008BA
:1017900020252A730000000020257300202D2D2D08
:1017A000202573202D2D2D00954E00082DE9F04F9A
:1017B0009BB0002800F03A81002900F037810446F0
:1017C000D0E902B015465A44824280F03181206847
:1017D0002A465844FEF79AFCA0684FF0000A0023FE
:1017E00000262844A0600AA904310691834580F0B0
:1017F0002181216811F80B80B8F10A0F05D0B8F1EA
:101800000D0F02D00BF1010BF0E701F80BA05B45C7
:1018100000F0FB8020682169C518CDE90831284611
:1018200029460A78082A03D03AB100F8012B02E0D1
:10183000A84288BF01380131F3E7844980F800A04D
:1018400028461AAA02F094FA002800F0DD80DDF89C
:1018500024A007460796BAF1000F12D0DAF800600C
:10186000002EB14618BF4FF0010912D0DAF8080077
:1018700020B138463146FEF799FCD0B10AF1100A82
:10188000E9E7099880B3079E4FF000094FF0000A7E
:1018900006E001200999079E4FF0000A29B120B106
:1018A00028466BA1FEF782FCC8B1B9F1000F1ED02B
:1018B000AAE066490A9600201AAA002602F058FA01
:1018C0000127E0B10AA90F2F41F8270036D05F4960
:1018D00000201AAA02F04CFA01360137F1E7099804
:1018E000FFF7DEFE18B18FE0079E4FF0000A002FD1
:1018F00000F08A8038460021FFF7AEFE84E0DAF877
:10190000040000286DD001783F2902D141780029D8
:1019100067D00390FEF724FC029003982A21FEF77B
:1019200015FC68B1DDE9022E0EEB02010139884297
:1019300063D1012A61D0901E009005E001215DE095
:10194000029ADDF80CE000920EEB020000234FF04B
:101950002E0C0190002E41D0934205DA1EF80300B0
:101960002A2818BF844604E0019810F8010C2A28A0
:1019700043D1ACF17300022104280CD8CDE904C393
:10198000DFE800F0033C1D100D0006980421012241
:1019900050F8230018E0BCF1620F1CD02EE006982E
:1019A00004210EE00698002250F8230002F042FBCA
:1019B0000221DDE904C3DDE9022E60B91EE00698CC
:1019C000012150F82300002202F034FBDDE904C3BA
:1019D000DDE9022E88B1013E0133BBE70098874262
:1019E0000BDDDAF8082038460AA99047DAF800003B
:1019F0000027B0FA80F040094CE702212846FFF7A3
:101A00002BFE079E4FF0000A089BB8F10A0F08BF93
:101A10005B4507D00136A0680BF1010B84F8048008
:101A20005B46E3E620790D28F5D0F3E7FF2608E0D2
:101A3000FE2606E02BB1C21A2068A260C118FEF78C
:101A400065FB70B21BB0BDE8F08F00BF974E000879
:101A500068656C700000000080B507A002F02EFBE6
:101A600001F03EFA18B1BDE8804001F0CFB9054859
:101A7000BDE8804002F0A0BF434C525F5354415434
:101A8000533A2000E64A0008F8B548680D46FFF7CB
:101A9000F5FD0446A868FFF7F1FD05460AA002F02F
:101AA0008BFF0C4F6E46AC420DD82046314601F0FC
:101AB000E9FB30B9009A3846214602F0FFFA0134BA
:101AC000F1E701F0A3F9F8BD44554D505F52454789
:101AD000533A0D00964A00081CB501A801F06BFAB4
:101AE000044608A002F0EAFA1CB1204601F08EF983
:101AF0001CBD0198FEF78EFD024605A00B4602F0C4
:101B0000DDFA1CBD4745545F525353493A2000004B
:101B1000252E31662064426D0D0A0000E0B50EA04E
:101B200002F0CCFA0DF107000DF106010DF10502EE
:101B300001AB01F0DAF910B101F068F98CBD9DF844
:101B400004009DF805309DF806209DF807100090D0
:101B500004A002F0B3FA8CBD4745545F4348495096
:101B60003A20000025642C25642C25642C25640D66
:101B70000A0D0A000248416802A002F09FBA00BFA5
:101B8000580200204745545F44455649443A2030A6
:101B900078253038580D0A0004484FF47A7180686F
:101BA000B0FBF1F102A002F089BA00BF5802002098
:101BB0004745545F465245513A2025750D0A0000AD
:101BC0001CB517A002F07AFA0DF106000DF105011F
:101BD00001AA0DF1030301F08DF910B101F016F91E
:101BE0001CBD474CBDF806101148627B02F066FA36
:101BF000104802F063FA9DF8040004289ABF0F49C8
:101C000051F820000C4802F0D7FE0D4802F056FAB9
:101C1000207C01280CBF3448344802F0CDFE1CBDA6
:101C20004745545F4D4F44504152414D533A200077
:101C3000A24A0008444B0008C74A0008644A00084A
:101C4000484B00082DE9F041124DDFF80C8612A038
:101C5000EB7DAA8A698AC047A97D214E1F481E4A8A
:101C6000012908BF1046B0471E48C047287E1F4CB8
:101C70001D4F0128204608BF3846B0471C48C047C2
:101C8000687E3146012808BF3C462046BDE8F04149
:101C9000084700BF580200204745545F5041434B5E
:101CA0004554504152414D533A0D0A53594E433D0C
:101CB0003078253034582C5052455F4C454E3D25E8
:101CC000640D0A5041595F4C454E3D25640D0A484C
:101CD00045414445523A0000084B0008124B0008A9
:101CE000B9490008354B0008EA4A0008E14A0008F3
:101CF0003A4B0008024890F90C1002A002F0DEB93D
:101D0000580200204745545F504F5745523A20250E
:101D1000642064426D0D0A00E0B50AA002F0CEF91D
:101D2000684601F058F910B101F070F88CBDBDF8AB
:101D30000430BDF80220BDF8001005A002F0BEF985
:101D40008CBD00BF4745545F53544154533A200063
:101D5000504B543D25642C464552523D25642C4839
:101D60004552523D25640D0A00000000E0B50AA06E
:101D700002F0A4F90DF107000DF1060101F0B7F82A
:101D800010B101F043F88CBD9DF806209DF80710B6
:101D900005A002F093F98CBD4745545F535441545C
:101DA00055533A20000000003078253032582C304E
:101DB00078253032580D0A0002A0012101220023AB
:101DC00002F07CB94745545F56455253494F4E3A4D
:101DD0002048573D25642C46573D25642E25640D2B
:101DE0000A00000001A002F0E7BD00BF4745545FB4
:101DF00056543A20544F444F0D0000001CB50DF1CD
:101E0000070001F0F4F8044606A002F057F91CB1EF
:101E1000204600F0FBFF1CBD9DF80710054802F0AE
:101E20004DF91CBD4745545F584F5452494D3A2017
:101E300000000000AE4A0008034803680348026837
:101E400003A002F03BB900BF300002402C0002406A
:101E50004745545F5549443A203078256C6C580DFD
:101E60000A0000001F480349034B4FF48072FFF73C
:101E700009BC00BFE402002008000020B0B50DA09E
:101E80000C4602F01BF96068FFF7F8FB0546A068F6
:101E9000FFF7F4FBAAB2C1B2104601F047F918B13E
:101EA000BDE8B04000F0B2BF1B48BDE8B04002F052
:101EB00083BD00BF494E49545F434F4E4649473AA0
:101EC00020000000E0B5FEF789FE8DF80700C0B2E3
:101ED00038B1FF2805D003480DF107010122FFF7B3
:101EE00065FC8CBDFC18002080B507A002F0E6F868
:101EF00001F08EF818B1BDE8804000F087BF0648B9
:101F0000BDE8804002F058BD524144494F5F494E00
:101F100049543A2000000000E64A00081CB5FEF7CC
:101F2000E1FD044608A002F0C9F801A9204601F02D
:101F3000A9F910B100F06AFF1CBD019A05482146BD
:101F400002F0BCF81CBD00BF524541445F524547FA
:101F50003A200000964A000880B503A002F02CFD4C
:101F6000BDE88040FFF748BB52455345543A204FE7
:101F70004B0D000070B548680C46FFF77FFB0F4D16
:101F80002860286808B901202860A068FFF776FB60
:101F90000B4E3060E068FFF771FB0A49086030685B
:101FA00063289CBF6420306001F0F6FA326829682B
:101FB00005A0BDE8704002F081B800BF141A0020EF
:101FC00028020020D402002053544152545F545838
:101FD0003A2025642C25640D0A00000010B5FEF798
:101FE00081FD054C606002F04FF8616803A0BDE818
:101FF000104002F063B800BF580200205345545F00
:1020000044455649443A203078253038580D0A0066
:1020100070B548680C46FFF731FB4FF47A750D4EEA
:102020006843B0606068FFF729FB01F0A9F9044636
:1020300009A002F043F824B12046BDE8704000F04A
:10204000E5BEB068B0FBF5F106A0BDE8704002F057
:1020500035B800BF580200205345545F46524551E1
:102060003A20000025750D0A000000002DE9F0411E
:1020700048681E4D0C46A8478046A068A8470646FB
:10208000E068A84707462069A847044618A002F060
:1020900015F81FFA88F0F1B2FAB2E3B201F0B0F924
:1020A00018B1BDE8F04100F0B1BE824C1449A07BEC
:1020B000627B31F81010134802F000F8124801F06A
:1020C000FDFFE07B04289ABF114951F820000F481A
:1020D00002F072FC0F4801F0F1FF207C01280CBFD8
:1020E00061486248BDE8F04102F066BC7D16000818
:1020F0005345545F4D4F44504152414D533A200097
:10210000824A0008A24A0008444B0008C74A000857
:10211000644A0008484B000810B5FEF7E3FC04468B
:1021200009A001F0CBFF0B48007801F0C3F920B102
:1021300040B2BDE8104000F069BEE1B206A0BDE8C3
:10214000104001F0BBBF00BF5345545F4F504D4F8F
:1021500044452000E813002025640D0A0D0A000004
:102160002DE9FC474868294F0E46B8478046B068BD
:10217000B8478146F068B84782463069B847044698
:102180007069B8470546B069B847C1B22843EAB29A
:102190002043CDE900211FFA89F15FFA8AF210F09D
:1021A000FE0F18BF0124E3B21FFA88F001F088F98E
:1021B000044617A001F082FF24B12046BDE8FC4789
:1021C00000F024BE174C244D17A0E37DA28A618A3B
:1021D000A847A17D2248214A012908BF104602F0E4
:1021E000EBFB2048A847217EBB481F4A012908BFB6
:1021F000104602F0E1FB1E48A847607E01280CBF94
:102200001948B548BDE8FC4702F0D6BB7D1600086A
:102210005345545F5041434B4554504152414D53F7
:102220003A200000580200200D0A53594E433D3019
:1022300078253034582C5052455F4C454E3D25642E
:102240000D0A5041595F4C454E3D25640D0A4845E5
:10225000414445523A000000BD400008084B0008C8
:10226000124B0008354B0008EA4A0008E14A000812
:102270003A4B000810B54868FFF7FCF940B201F08E
:10228000A5F8044608A001F019FF24B12046BDE8D6
:10229000104000F0BBBD074890F90C1006A0BDE847
:1022A000104001F00BBF00BF5345545F504F5745DE
:1022B000523A20005802002025642064426D0D0A25
:1022C00000000000B0B5FEF70DFCC4B2204601F0DE
:1022D00041F9054607A001F0F1FE25B12846BDE809
:1022E000B04000F093BD07482146BDE8B04001F082
:1022F000E5BE00BF5345545F584F5452494D3A20F4
:1023000000000000AE4A000806480178012911BF0C
:1023100005A0094900220A7004BF027007A002F05C
:102320004BBB00BFB402002053544F505F54583A87
:10233000204552524F520D00B502002053544F50C9
:102340005F54583A204F4B0D0000000080B508A0A4
:1023500001F0B4FE01F098FE20B140B2BDE880402B
:1023600000F054BD0648BDE8804002F025BB00BF28
:1023700053544F52455F434F4E4649473A20000061
:10238000E64A00082DE9F0414868184C0D46A04780
:102390008046A868A0470646E868A047074628691F
:1023A000A04704466869FFF765F9054610A001F0EB
:1023B00085FE00EE105A404631463A462346B8EEB6
:1023C000C00A00F08BFF18B1BDE8F04100F01EBD5F
:1023D0000A48007818B100F0A9FA264802E000F097
:1023E0009FFA2548BDE8F04102F0E6BA7D160008E4
:1023F00053574545505F52583A200000B70200201D
:102400002DE9F8434868174D0E46A8478046B06846
:10241000A8478146F068A84707463069A8470446A0
:102420007069A847064610A001F048FEF0B2494680
:102430003A4623460090404601F0D4F818B1BDE872
:10244000F84300F0E3BC1F48007818B100F06EFAC2
:10245000084802E000F064FA0748BDE8F84302F0DB
:10246000ABBA00BF7D16000853574545505F54581E
:102470003A2000002E4B0008EE4A000810B50EA0CE
:102480000C4601F01BFE6068FFF7F8F8C0B201F0DF
:102490008BF818B1BDE8104000F0B8BC09480078CE
:1024A000012804D002280CBF08A00B4800E006A0B9
:1024B000BDE8104002F080BA54585F535452454171
:1024C0004D3A2000101A002043570D00505245414C
:1024D0004D424C450D000000E14A0008B0B5486887
:1024E0000D46FFF7CBF80446A868FFF7C7F8054686
:1024F00009A001F0E3FD2046294601F0B5F818B126
:10250000BDE8B04000F082BC064821462A46BDE83E
:10251000B04001F0D3BD00BF57524954455F52450A
:10252000473A2000964A0008B0B50B480B490268AC
:1025300043688468C56881E83C00094A0023127832
:10254000103ADCB2A242D8BFB0BD0D190444013329
:10255000247C2C74F5E700BFF9130020FC17002041
:10256000F917002080B5012001F040FB0A4988429C
:1025700011D3B0FBF1F1194A11704FF47A71E022D6
:10258000B0FBF1F0054901384860054802700020B1
:1025900088600720086080BD40420F0010E000E026
:1025A00023ED00E04FF47A71484300F001B80000D9
:1025B000B0B50A490B780A490A686BB14C685843B0
:1025C00000234D68A542FCD023445B1BA54228BFD5
:1025D00013442C468342F4D3B0BD00BFE403002073
:1025E00014E000E03B490A68D20444BF4FF4805233
:1025F0000A6010B5384A394B394C936194611468BC
:1026000004F40074223414609361002393614FF04A
:10261000FF3303600868C00406D49068C007FCD08C
:1026200001209060002010BD4FF4805008606FF0D2
:10263000670010BD2DE9FE43264B274C284DEE4682
:1026400099461B68DB0444BF4FF48053C9F800303F
:10265000224BA361A561256805F40075243525602A
:10266000A36100234FF0FF35A361CDE9005522F0AF
:1026700007054F19EE18964204D2FE5C0EF803606F
:102680000133F7E700274FF0FF384FF0010C974276
:1026900014D27646AF4238BFCE193368E360736810
:1026A000236147F80080D9F80030DB0409D4A3681F
:1026B000DB07FCD0C4F808C00837E8E70020BDE815
:1026C000FE834FF48050C9F800006FF06700BDE84A
:1026D000FE8300BF08F0004000000240BFAE9D8CAA
:1026E00016151413B0B5074D0446C1B2284601F0C3
:1026F0005FFC2846802101F0B4FB0028F9D0204679
:10270000B0BD00BF00300040012303FA01F1002AF0
:10271000426A0CBF22EA0101114341627047000086
:1027200010B5062A18D8DFE802F004200D14082797
:102730003C00FEF7DFF90A4311E0FEF709FA22EA4E
:1027400001015AE0FEF7D6F9FEF732FA22EA01015A
:1027500010E0FEF7FDF943E0FEF7CCF98A43826012
:10276000C26822EA0101C16010BDFEF7C3F9FEF79D
:102770001FFA1143016110BD0122524B8A40D4431C
:10278000984223D1082921D39869204098619868FC
:102790002040986018681043186018691043186149
:1027A00010BD0122474C8A40D343A0421AD10829C8
:1027B00018D3A0691840A061A0681840A0602068E4
:1027C0001840206020691043206110BD016821403D
:1027D00001608168214081604168114341608169E5
:1027E00011430AE001681940016081681940816065
:1027F00041681143416081691940816110BD00BF8A
:1028000070B5082913D308392E4D8C0001EB410314
:102810002146A84208BF1946072602FA01F10F22F5
:10282000A240A84208BF06FA03F23C2305E08B0051
:1028300002FA03F10F229A403823C45824EA020214
:102840001143C15070BD00BF10B501231D4C8B401A
:10285000A04217D1082915D3A069184202D1A06857
:10286000184217D0A069184205D1A068184202D1B9
:10287000206818421AD004F12000002A08BF04F191
:102880001C0003E00AB1203000E01C30016819434D
:10289000016010BD20681842E4D020691842E1D0E0
:1028A000002AF6D1FEF773F9984307E02069184231
:1028B000E1D0002AEDD0FEF76AF91843206004F158
:1028C0001000E3E700FC014080B500F02BF900F0B8
:1028D000E1F8FEF7A1F900F02FF8BDE8804001F023
:1028E0006DBB000080B50420012100F0CDFE4FF447
:1028F000A04001F0EDF9002001F0D8F900200021FE
:1029000001F0DCF9054801F0EBF94020012100F06D
:1029100031FFBDE88040FFF725BE00BF0100000287
:10292000934808210122FFF78FBF00BF904808217C
:102930000022FFF789BF00BFB0B5164C4FF40070FE
:102940000225C4F80001072020602561D4F80401A5
:1029500080280BD01420FFF72BFE0020C4F80C01B8
:102960001420FFF725FE0120C4F80C019A48656089
:102970004FF400110322016004F5B6300B21FFF77C
:102980003FFF04F5B0300A210322BDE8B040FFF755
:10299000C7BE00BF0090004010B50F4C206820F06B
:1029A000200020606420FFF703FE206840F0200034
:1029B0002060206820F08000206054F8040C40F073
:1029C000200044F8040C206840F00100206060689A
:1029D000C005FCD410BD00BF0491004064480A212A
:1029E0000122FFF731BF00BF61480A210022FFF733
:1029F0002BBF00BF04490860486800F0110001289F
:102A0000FAD10868C0B270470890004080B50A202B
:102A1000FFF7CEFD02480168C905FCD480BD00BFA8
:102A200008910040FFF75EFFFFF74EFF6420FFF7BD
:102A3000B9FD0DA001F0C0FF11A00121012200236A
:102A400001F03CFBFFF772FF01F08AF900F0E0FAB9
:102A50006420FFF7A7FDFFF763FFFFF703FA00F01D
:102A60008BFBFFF72FFAFAE70D0A4D657368746167
:102A70007374696320736E69666665720D00000089
:102A800048573D25642C46573D25642E25640D0A84
:102A90000000000010B5002001F0F8F8122001211C
:102AA00000F068FE1120012100F064FE1A480B219D
:102AB0000722FFF735FE194C0020221D2146FEF7A4
:102AC0001BFD94ED010A9FED161A20EE010A84ED1C
:102AD000010AFEF771FD0820FEF7A4FC0120FEF7B5
:102AE000C3FC0120FEF7FCFC00200121FEF7CCFC1A
:102AF0000020FEF7A5FC0120FEF7E0FC0120FEF718
:102B000067FD01200121FEF7A3FC33484FF480311B
:102B1000C0F88011016010BD00F0014040020020AB
:102B200000007A44B0B5114C0D200121A0472020AF
:102B30000121A04721200121A04722200121A047F7
:102B40000B4C0C4D0B2101222046A84720460921A1
:102B50000122A847204608210322A8472046082131
:102B60000122BDE8B040FFF7CFBD00BF75370008B8
:102B700000F00140212700087FB5164C05460121D1
:102B8000012204F5E2363046FFF73AFE30460021D6
:102B90000122FFF735FE002001F0B6F81F200121C9
:102BA00000F0E8FD6E46304601F047F92046314618
:102BB000009501F05BF92046012101F038F920462B
:102BC0001021012201F045F903484021C0F880118D
:102BD00001607FBD0030004000E100E00548E021D9
:102BE000C022017004490020252808BF70474254C4
:102BF0000130F9E722ED00E000E400E010B51148F3
:102C00000121114C114BC18123210173A168226A5A
:102C10005B6881600021C0E90023102903D04218BD
:102C200011740131F9E70A48202120220170094876
:102C30000449FDF76BFAA16807A0BDE8104001F058
:102C40003DBA00BF10190020B40200205802002035
:102C50004F020020F914002054583A2025640D0A30
:102C60000000000036480178012911BF35A000217D
:102C7000017036A02DE9F04385B0364FB84736498C
:102C800031C9FDF7C7FC804628468946FDF7C2FCDE
:102C9000054620460E46FDF7BDFC41EC100B46EC08
:102CA000115B2E4842464B468DED001B8DED020B0D
:102CB000B8472B4D2B482968B84769682A48B84758
:102CC000A9682AA0B847287B41092DA0B847287BCE
:102CD00000F007012EA0B847697B31A0B847E97B17
:102CE00035A0B84739A0B847287B3C4C3A4E00077E
:102CF000204658BF304601F05FFE39A0B847287B18
:102D0000C00658BF3446204601F056FE374E307894
:102D1000A0F1100136A0B84700273AA43178F8B2E4
:102D20001039814206DD2844017C204601F0C6F9B5
:102D30000137F3E732A005B0BDE8F04301F03CBE37
:102D40004E0200205250434B3A200000464552525A
:102D50003A200000BD400008EC130020114E00088E
:102D6000FC170020E44D0008FD4D00085061636B26
:102D700065742049443A203078253038580D0A00CF
:102D8000486F702073746172743A2025640D0A00D4
:102D9000486F70206C696D69743A2025640D0A00D3
:102DA0004368616E6E656C20686173683A203078A4
:102DB000253032580D0A000052656C6179206E6F23
:102DC00064653A2025640D0A0000000057616E74A6
:102DD0002061636B3A200000394E00083D4E000828
:102DE000566961204D5154543A200000F9170020D3
:102DF0005061796C6F61643A2025640D0A0000000F
:102E00000D0000003078253032582C00411E052975
:102E100008D80EA0DFE801F012030E140B1720A053
:102E200001F0CABD7F2808D10CA001F0C5BD12A0D9
:102E300001F0C2BD18A001F0BFBD1DA001F0BCBDD6
:102E400011A001F0B9BD07A001F0B6BD494E564131
:102E50004C494420434849500D000000544F444F12
:102E60000D000000494E56414C494420504152410A
:102E70004D455445520D0000494E56414C494420A1
:102E80004D4F44450D0000004E4F542053555050B7
:102E90004F525445440D0000425553590D00000057
:102EA0004E4F5420524553504F4E44494E470D000B
:102EB000554E4B4E4F574E0D0000000080B5064852
:102EC00000F03EF8054800F027F8FFF72DFBBDE8BD
:102ED0008040FFF7C7BE00BFEC130020F9130020AD
:102EE00080B5FDF740FF002080BD7F2070477F2028
:102EF0007047000070B5F84C064E657E0D70A17EDF
:102F0000E57E36F8111001801570207F18700020C2
:102F100070BD00BF824A0008BCB5084D04460DF1E3
:102F200007000DF106022946FDF7F7FE2A789DF805
:102F300006002146FEF7A4F80020BCBDF9170020CA
:102F40001CB504460DF107000DF1060101AA0DF1B3
:102F50000303FDF7CCFE9DF80600BEEE001ABDF996
:102F6000041000EE100A9DF803008029B8EE400A14
:102F700020EE010A84ED000A00EE100A6FF0FF0057
:102F8000B8EE400A10FA81F020EE010A01EE101AA4
:102F900084ED020A00EE100AB8EEC11AB8EEC00ABB
:102FA000B8BFB0EE410AB5EE001A002020EE010ACB
:102FB00084ED010A1CBD10B50446FDF7A4FE00EE29
:102FC000100ABEEE001A0020B8EE400A20EE010AF8
:102FD00084ED000A10BD1CB50446821C031D0DF1D2
:102FE00007002146FDF7B5FE0020E0801CBDB0B50E
:102FF000044640F61110FEF77DF8054640F6121023
:10300000FEF778F8284420700020B0BD00000000D2
:10301000BFB5ED4C4FF47A716069B0FBF1F0C4E9D3
:103020000100FEF791F8FDF7E9FF0A20FFF7BAFA71
:1030300001200125FEF78EF80120FDF75AFF94F8D4
:10304000260070B194F827004FF47A71FDF7B4FEB2
:103050000120012101220123CDE900550295FDF750
:10306000F0FD0120FDF73CFF6069FDF7ADFA9FED33
:103070002C0B53EC102BFDF738FAFDF7B2FAFDF7E5
:1030800044FF00200021FDF778FEA07E264D617EE2
:10309000E27E237F285CFDF7C5FE94F8255094F866
:1030A0002320208C94F8221094F82430002D18BF8F
:1030B00001250095002A18BF0122002B18BF01230B
:1030C000FDF7D5FEE17F4FF4E860FEF7B9F8A17F88
:1030D00040F24170FEF7B4F86FF07F40FDF71EFF3D
:1030E000FDF7CAFD94F8260028B9FDF758FDFDF755
:1030F0003DFDFDF70AFDFDF75BFF0120FDF721FE19
:103100000120FDF750FE4F200F2100220023FDF784
:1031100069FE0420FEF71EF8002004B0B0BD00BF19
:10312000000000008084EE3F784A000810B5DF48B8
:103130004FF480320E4B0F4CC0F822200B4A8361B3
:1031400040F2EE438381C0F81E2000220277C0E9DE
:10315000042419B10221012280F8271080F82620CA
:1031600000F092FFFFF754FF002010BDB4241000C0
:103170000A0B080488F6D019BCB5364C60780128D3
:1031800008D100206070FFF739FDFFF7CFFB324810
:1031900000F0D4F831480178012909D100210170EB
:1031A000FFF7C4FBFFF78AFEFFF7BAFB00F078F8E1
:1031B0002B480178012905D100210170FFF7B0FBF0
:1031C00000F06EF82079012843D100202071A0780A
:1031D000012813D1234DD4E903012A681044286043
:1031E000884224BF60692860032000F063F92868E2
:1031F00000F0C6F81C48007800F0D6F9E078012805
:1032000027D101A8FFF7D7FE94ED061A9DED010A1C
:10321000B4EE410AF1EE10FA0ADD10EE100AFDF7E5
:10322000F9F902460F480B46016810A000F046FF6E
:10323000032000F03FF90B49D4E903020B6818445E
:103240000860904224BF6069086000F099F800F0BF
:1032500027F8BCBDB4020020F91400204D02002064
:103260004C02002050020020101A002046726571A6
:103270003D25642C525353493D252E31662064422E
:103280006D0D0A0010B50C460021B1EB104F1CBFAC
:10329000062010BD80B2FDF72DFF2060002010BD7C
:1032A0001CB5BA4C208C94F8222094F8231094F882
:1032B000243094F82540002C18BF01240094002AE3
:1032C00018BF0122002B18BF0123FDF7D0FD0420F9
:1032D000FDF740FF00201CBD4C020020B0B51C468D
:1032E0001318994206D32AB10A2C03D34EF6602351
:1032F0009C4201D90620B0BDB5EE400AF1EE10FAAD
:103300000EDAD54DD74BC5E90321D54985ED060A1F
:103310006861FDF713FC0120AC626C62E87009E0A3
:10332000CD480021CF4CC170206800F029F82068FA
:10333000CB490860FFF7B4FF0020B0BD7CB5934DCA
:10334000044695F8256095F82220288CE97895F8B0
:103350002430002E18BF01260096002A18BF012233
:10336000002B18BF0123FDF782FDEA7800202146DB
:10337000FDF72AFF0520FDF7EDFE00207CBD00BF14
:10338000B0B5824D4FF47A71824C686048436861F1
:103390007F4800782070FDF702FC6869FDF714F99A
:1033A0009FED070B53EC102BFDF79FF8FDF719F974
:1033B000FDF7ABFD2078FDF7CDFE0020B0BD00BFCE
:1033C000000000008084EE3F4C02002010F1090F45
:1033D000BCBF06207047B0B50446162801DD0620A4
:1033E000B0BD6B486B4D00782870FDF7D8FB67487F
:1033F0000476FDF7DDFD2878FDF7ACFE0020B0BDBA
:10340000072802D3B0F5FA7F01D9062070472DE9CD
:10341000F0410E46052907D30C2E05D81546042A7F
:1034200002D81C46012B02D90620BDE8F0810928EC
:1034300001D200271FE00C2801D201271BE0112830
:1034400001D2022717E0162801D2032713E0212812
:1034500001D204270FE02B2801D205270BE04028DA
:1034600001D2062707E07E2801D2072703E00927BB
:10347000FB2838BF08274548DFF818810477C57650
:10348000467687764248007888F80000FDF787FB8B
:1034900007482A462346C15D3046FDF7C3FC98F82D
:1034A0000000FDF757FE0020BDE8F0814C0200202F
:1034B000784A000880B5FDF74DFE002080BD000071
:1034C000012B84BF062070472DE9FC470A9C012C84
:1034D00002D80B9E012E02D90620BDE8FC8780464B
:1034E0002A48DFF8B0901D4692460F4680F8232008
:1034F0000184A0F81E8080F8256080F8244080F8C0
:1035000022302348007889F80000FDF748FB002EA0
:1035100018BF0126009638465146002D18BF0125D8
:103520002A46002C18BF01242346FDF7A0FC4FEAD1
:1035300018214FF4E860FDF783FE5FFA88F140F24E
:103540004170FDF77DFE99F80000FDF703FE0020B5
:10355000BDE8FC875E2884BF06207047B0B50B4CE1
:10356000A0EB500140080B4D84F82800084884F86F
:10357000291000782870FDF712FBFDF7F7FAFDF728
:10358000C4FA2878FDF7E6FD0020B0BD4C0200200B
:10359000E8130020F81300202F4801210022816049
:1035A000C26101704170704710B518B1022809D985
:1035B000062415E0294800240470FFF7B1F9FFF74D
:1035C0006FFE0DE0012803D1FDF7E3FB012002E0CF
:1035D000FDF7E4FC022021490870FFF7A7F9002459
:1035E000204610BD70B51C461318994208D33AB155
:1035F00034B14EF660239C4202D8049D022D02D9BC
:103600000625284670BDBDB1134E164BC6E90321F1
:10361000124970610D701249FDF790FAFFF786F9B3
:103620002846FFF7C1FF05460028EAD10025012002
:10363000B4627462B070E4E70748002508498570F9
:1036400006480570074800680860FFF799FEFFF715
:1036500067F9FFF725FED4E7B4020020101A002016
:1036600050020020540200200022B2EB104F01D182
:10367000FF2901D90620704780B580B2C9B2FDF795
:10368000DFFD002080BD000005284AD810B50C469B
:10369000DFE800F0033C28310F483448002C016972
:1036A00053D021F020010161D0F800124907FBD569
:1036B00035E00E20012100F05DF82D480168ECB3E3
:1036C000890607D4016841F020010160016821F0FA
:1036D00080010160016841F00401016041688907CF
:1036E000FCD51CE02148002C016821F4C04108BF32
:1036F00001F5C04112E01D491020002C18BF082020
:103700000A6922F018021044086108E01748002CEA
:10371000016821F4004108BF01F500410160BDE8E6
:103720001040704711480169BCB121F040010161AE
:10373000D0F80012B1F1FF3FFADCF0E721F004010C
:10374000016041688907FCD4E9E741F0200101618B
:10375000D0F800124907FBD4E1E741F040010161D4
:10376000D0F800120029FBD4D9E700BF0880004040
:1037700004910040412800F22E82DFE810F0420060
:10378000650177019B014701FF001401D300F6009A
:103790009D00E4006E015301B800B101BA01D501EA
:1037A000CC0194002C025C01EB01AF003E01CA0089
:1037B0008001C1007E00F401ED002C019201350171
:1037C0004B00A6002C022C022C022C022C022C02F4
:1037D0002C022C022C022C022C022C022C02C301E3
:1037E000FD01750089015D002C022C022C022C02C7
:1037F0002C022C022C022C022C022C022C02540033
:10380000DC00E2480029426814BF42F0800122F047
:103810008001E7E1DD48002902680CBF22F40001C5
:1038200042F40001C6E1D948002902680CBF22F425
:10383000001142F40011BDE1D4480029426800F0B3
:10384000A78142F480514160C16901F03F013F29E5
:10385000FAD1816841F020018160C1698906FCD5F7
:10386000416841F40061BDE1DF480029426814BFAE
:1038700042F4807122F48071B4E1DB48026822F4E2
:10388000803261F310420260C26902F03F023F2AB7
:10389000FAD1826822F0040261F382028260C16977
:1038A0004907FCD597E1D048002902680CBF22F4F3
:1038B000807142F480717DE1CB48002902680CBF21
:1038C00022F0010142F0010174E1C74800290268B9
:1038D0000CBF22F4800142F480016BE1C248002950
:1038E00002680CBF22F4805142F4805162E1BE486C
:1038F000002902680CBF22F0007142F0007159E10A
:10390000B948002902680CBF22F4004142F400418A
:1039100050E1B548002902680CBF22F4005142F47E
:10392000005147E1B048002902680CBF22F08061D5
:1039300042F080613EE1AC480029026800F0388125
:1039400042F0004136E1A848002902680CBF22F08D
:10395000020142F002012DE1A348002902680CBFD8
:1039600022F4802142F4802124E19F48002902684A
:103970000CBF22F0006142F000611BE19A484268EE
:1039800022F0080261F3C3024260C26902F03F0202
:103990003F2AFAD1826822F0010211448160C16994
:1039A000C907FCD017E190480029426800F0048163
:1039B00042F400714160C16901F03F013F29FAD131
:1039C000816841F010018160C169C906FCD5416878
:1039D00041F0100106E18448002902680CBF22F47E
:1039E000002142F40021E5E07F48002902680CBF75
:1039F00022F0807142F08071DCE07B48002942684F
:103A000014BF42F0200122F02001EBE076480029AB
:103A1000426800F0E18042F004014160416841F0F9
:103A20004001DFE07048002902680CBF22F0080165
:103A300042F00801BEE06C48002902680CBF22F485
:103A4000806142F48061B5E067480029426814BF94
:103A500042F0010122F00101C4E06348002902683C
:103A60000CBF22F0040142F00401A3E05E480029EB
:103A700002680CBF22F0805142F080519AE05A480F
:103A8000002902680CBF22F4804142F4804191E099
:103A900055480029426814BF42F4806122F48061D5
:103AA000A0E05148002902680CBF22F4801142F4C2
:103AB00080117FE04C48426822F0020261F341022B
:103AC0004260C26902F03F023F2AFAD1826822F0C6
:103AD000020261F341028260C1698907FCD57AE084
:103AE0004148002902680CBF22F0100142F0100189
:103AF00060E03D48002902680CBF22F0200142F03E
:103B0000200157E03848002902680CBF22F000511C
:103B100042F000514EE03448002902680CBF22F008
:103B2000800142F0800145E02F48026822F0400207
:103B300061F386120260C26902F03F023F2AFAD1A5
:103B4000826822F0080261F3C3028260C16909073A
:103B5000FCD540E02448002902680CBF22F4006133
:103B600042F4006126E02048002902680CBF22F4DC
:103B7000003142F400311DE01B48002902680CBFEF
:103B800022F0804142F0804114E000BF0C00004070
:103B900022F400614160C16901F03F013F29FAD17F
:103BA000816821F020018160C1698906FCD512E09D
:103BB00022F000410160704722F010014160C169AC
:103BC00001F03F013F29FAD1816821F010018160A5
:103BD000C169C906FCD5704722F004014160416803
:103BE00021F04001416070470C00004001464FF059
:103BF00080400068C0F30230013806289ABF10A246
:103C000052F820000D4801290ED0022903D00329C3
:103C100013D10F2100E005214FF080421268C2F35A
:103C20000322D040072201E00F2208214FF08043F9
:103C30001B6823FA01F11140C840704700366E013D
:103C4000008000000080000000366E0100366E012A
:103C50000048E80180EE3600006CDC023248006863
:103C600000F4C030704700BF2F48006800F4C04027
:103C7000704700BF2C48006800F4C050704700BF78
:103C80002948006800F4C060704700BF26494A6AAE
:103C9000920406D54A6822F480724A604A6A920405
:103CA000FCD40A6822F06002FCF72CBF4FF0804180
:103CB0000A6822F47062FCF725BF000008434FF049
:103CC0008041024B0A681A40FCF71CBF1F7FFCFFB3
:103CD0004FF080410A6822F4E042FCF713BF000075
:103CE0000749884205D10748016841F00401016095
:103CF00070474FF080410A6822F00072FCF702BF63
:103D00000100000210E000E007494A6A520306D5AC
:103D10004A6822F480124A604A6A5203FCD40A6854
:103D200022F4C032FCF7EEBE0800004070B5012559
:103D3000541805FA01F20131CEB2B44203D905FAA2
:103D400006F63243F7E702EA0301044B43EA800038
:103D5000036823EA02021144016070BD0080004044
:103D600080B5D448D4495C22FCF7D0F980BD00BFAF
:103D700070B514460E46054600B9256828463146FA
:103D8000FCF7F5F9295C61B1054431462846FCF79A
:103D9000FCF92918285C10B1002001F8010B216002
:103DA00000E00025284670BD026922EA0101016198
:103DB0007047026822F00102114401607047012A35
:103DC000C26814BF22EA01011143C1607047012A91
:103DD000426914BF22EA0101114341617047006941
:103DE0000840401AB0FA80F040091070704710B5D2
:103DF0008A884FF6FF740368A24200D02AB923F0E4
:103E00007003002A08BF103302E023F0600313435D
:103E100023F460728B8923F080031A438B7B63F356
:103E2000C71202600A688968C162826210BD026BB3
:103E300022F0010211440163704700214FF4E13286
:103E400002606022817101734FF040718280816055
:103E50007047002A826B14BF114322EA010181637B
:103E600070478069084018BF0120704770B504464C
:103E7000006B464E0D4620F001002063E06A20F002
:103E80001000E0620020B442A0630CD0404884429D
:103E900011D0404884420AD0B4F1402F1CD1FFF722
:103EA000E3FE400B0AE0FFF7D9FEC00B06E0FFF788
:103EB000E1FEC00A02E0FFF7E3FE400A01380328F2
:103EC00003D235A151F8200009E0B44218BFB4F183
:103ED000402F01D1022000E00320FFF787FE296870
:103EE000B0EB011F3CBF4FF0FF3070BD61B10A0164
:103EF000B0FBF2F303FB1200C000B0FBF1F0A0EB4B
:103F00005000C0EA034000E00020010C00F03F0038
:103F10006162A06229796879AA792B7BE66A26F02A
:103F200060063143E162E16A21F008011143E16278
:103F3000002BE16A21F0100118BF1031E16298B145
:103F4000022809D0012813D1E06A40F00200E062A3
:103F5000E06A20F004000AE0E06A40F00200E0625B
:103F6000E06A40F0040002E0E06A20F00200E06253
:103F70006889216B21F44071084320632889216BF3
:103F800021F4404108432063002070BD0030004010
:103F9000001001400000014080EE3600008000006B
:103FA00000366E018169C906FCD40068C0B2704752
:103FB00082699206FCD4016070470000BFB50C20F6
:103FC00001210125FFF7D6FB184C012101222046D3
:103FD000FFF7F5FE002069468DF80E50ADF80C0095
:103FE0004FF47A7002904FF6FF70ADF804001F2076
:103FF00000902046FFF7FBFE204601210122FFF73B
:10400000DEFE204601210122FFF7E1FE20460121CC
:10401000FFF7CAFE06484FF40001C0F880110160A6
:1040200020460021FFF7C5FEBFBD00BF00A0004035
:1040300000E100E0F8B5044652B100F04FF8054643
:1040400000206946002228602046FCF7C4F80DE0F5
:104050000F4600F043F80026054669460022066038
:104060002046FCF7F0F8F900C8400BD1286840B9A9
:104070000098051B2046FCF773F8854201D1012604
:1040800000E000263046F8BDB0B5094C09495C2275
:104090002046FCF73BF8084D2846FEF7A3FA2846D1
:1040A00021464FF48052FEF7C5FA0020B0BD00BF94
:1040B000E80300205802002000F000080FB4054B70
:1040C00010B503A9044A029800F0DEF810BC5DF8B0
:1040D00014FB0000E526000800000020004870479F
:1040E0000400002002E008C8121F08C1002AFAD10B
:1040F00070477047002001E001C1121F002AFBD168
:10410000704700002DE9FF5F82B00021DDE9043037
:10411000020DDDF840B0034318D044F61050A2F26F
:10412000FF3242431514119801281FD0A5EB0B0054
:10413000401C5FEA000A4FF000064E4FDFF838914E
:10414000B046504615D5CAF1000413E01198012479
:104150004AA3012801D16FEA0B010298119AC0E924
:104160000031C0E9024206B0BDE8F09FCBF100008B
:10417000DFE704460021404A491842EB0450CDE9EC
:10418000001012E0E00707D032463B464046494661
:10419000FCF739F98046894632463B4610461946B7
:1041A000FCF731F906460F466410002CEAD1DDE930
:1041B0000401DDE90023BAF1000F06DAFCF723F968
:1041C00042464B46FCF71FF905E0FCF78EF94246E4
:1041D0004B46FCF78AF904460E460022284BFCF7B2
:1041E000C7FB03D84FF0FF30014607E00022254B04
:1041F00020463146FCF760F8FCF7A1FB102409E0EB
:10420000002C0ADB0A220023FCF749FA039B303218
:104210001A55641E50EA0102F2D1641C039AC4F1DB
:1042200011031444119A012A03D0012208430DD12D
:104230000AE0084304D000204FF0110B119072E700
:10424000A3EB0B056D1E0DE05B4504DD4FF0000296
:1042500005F1010504E003DA4FF00002A5F10105C4
:10426000002AECD002981199C0E90231C0E900455A
:1042700079E70000000014400000F03F300000002B
:104280000000F0430000E03F2DE9FF4F95B09B4652
:104290008946064600250FE2252877D100242746C7
:1042A000F84A0121059400E0044316F8013F203B41
:1042B00001FA03F01042F7D130782A2811D06FF0BC
:1042C0002F033078A0F13002092A16D8059A44F05D
:1042D000020402EB820203EB42021044761C0590BA
:1042E000EFE759F8042B0592002A03DA504244F410
:1042F0000054059044F00204761C30782E2816D124
:1043000016F8010F44F004042A280DD06FF02F0294
:104310003078A0F13003092B09D807EB870302EBB3
:104320004303C718761CF3E759F8047B761C3078F2
:104330006C280FD006DC4C2817D068280DD06A28CE
:1043400014D104E0742810D07A280FD10DE044F481
:1043500000140AE044F4801401E044F4401472783C
:10436000824202D104F58014761C761C30786628CF
:104370000BD013DC582877D009DC002875D04528ED
:10438000F6D04628F4D047281AD19DE118E06328DA
:1043900035D0642879D0652812D195E1702873D082
:1043A00008DC6728F1D069286FD06E280DD06F28FF
:1043B00006D1B5E073282CD0752875D0782874D034
:1043C0005A46179990476D1C75E1C4F302500228B4
:1043D00009D003280DD0D9F8001004280DD00D60A5
:1043E00009F1040967E1D9F80010EA17C1E90052A0
:1043F000F6E7D9F800100D80F2E70D70F0E719F834
:10440000041B8DF8001000208DF80100EA46012001
:1044100003E059F804AB4FF0FF3061074FF00001A3
:1044200002D40DE008F101018846B9420FDA804557
:10443000F8DB1AF808100029F4D108E008F10101AE
:1044400088468142FADB1AF808100029F6D105984F
:104450005B46A0EB080721463846179A00F094FA0D
:10446000284400EB080507E04DE029E10DE01AF8CB
:10447000010B5A4617999047B8F10108F7D25B46ED
:1044800021463846179A13E142E00A220092C4F30B
:1044900002524FF0000A022A08D059F804CB032A2E
:1044A0004FEAEC710AD00DE029E02AE009F107019A
:1044B00021F00702F2E802C1914609E00FFA8CFCF4
:1044C0004FEAEC71042A03D14FFA8CFC4FEAEC71ED
:1044D000002907DA0A460021DCF1000C61EB020139
:1044E0002D2202E0220504D52B228DF80420012282
:1044F00003E0E20701D02022F7E7904659E00A21C5
:1045000002E010220DE010214FF0000A00910BE0B4
:1045100010224FF0000A44F004040827009203E040
:1045200008224FF0000A0092C4F30252022A05D07A
:1045300059F804CB0021032A08D009E009F107014A
:1045400021F00702F2E802C1914605E01FFA8CFC57
:10455000042A01D10CF0FF0C4FF00008220728D5E7
:10456000702806D0009B83F0100353EA0A0305D09D
:104570000EE040228DF80420012208E05CEA0102EE
:1045800006D030228DF804208DF8050002229046D6
:10459000009B83F0080353EA0A030AD15CEA010294
:1045A00001D1620705D530228DF804204FF00108B3
:1045B0007F1E582804D034A003900EA802900DE06E
:1045C00036A0F9E753466046009AFCF768F884463F
:1045D0000398825C0298401E029002705CEA01001F
:1045E000F0D1029806A9081A00F1200A600702D546
:1045F00024F4803400E00127574502DDA7EB0A00D0
:1046000000E0002000EB0A01009005984144401AA8
:104610000590E00306D45B462146179A059800F002
:10462000B3F90544002706E001A85A46C05D179972
:1046300090476D1C7F1C4745F6DBE0030CD55B46BD
:104640002146179A059800F09FF9054404E03020B0
:104650005A46179990476D1C0099481E00900029F2
:10466000F5DC08E0029802995A460078491C02914C
:10467000179990476D1CBAF10001AAF1010AF1DC0B
:1046800065E1000009280100303132333435363716
:10469000383961626364656600000000303132338E
:1046A000343536373839414243444546000000002E
:1046B00000F058F90544761C307800287FF4ECAD02
:1046C00019B02846BDE8F08F620700D4062709F12B
:1046D000070222F0070CFCE80223E14603F0004841
:1046E0005FEA080C02D00FF2702C0DE05FEA045C68
:1046F00002D50FF2682C07E05FEAC47C02D00FF20B
:10470000602C01E0AFF2700C4FF0FF3823F0004353
:10471000CDF850C065280CD006DC452809D04628C5
:104720001DD047283DD13DE0662818D067287ED1AE
:1047300038E00021112F01DB112000E0781CCDE9C9
:10474000000106A90EA8FFF7DDFCDDE90F010E9AB6
:1047500003910021009207F1010A04914DE04FF00E
:1047600000400097CDE9011006A90EA8FFF7CAFC8A
:10477000DDE90F0203920E9B11990022DDF80CA0D7
:104780000093049211B9791C00EB010AB7EB0A00FF
:1047900004D4C0F1FF3007F1010A0490AAEB07002E
:1047A000019044E0012F00DA01270021112F01DDE3
:1047B000112000E03846CDE9000106A90EA8FFF758
:1047C000A1FCDDE90F010E9A0391002104910092F2
:1047D000BA4621070CD40399514500DA8A46BAF14A
:1047E000010F05DD009AAAF10101515C302908D0C2
:1047F000B84202DA10F1040F06DA0121CDE9011006
:1048000015E0AAF10101E9E7002805DC049901445B
:104810000491AAEB000102E0411C514500DD8A46EB
:104820000499401A401C01904FF00040029020076C
:1048300004D40198504501DBCDF8048000208DF8A8
:104840004F0002980DF14F07B0F1004F25D02B20FB
:104850000E9002984FF0020800280CDA40420290B5
:104860002D200E9007E00A210298FBF702FF30315D
:10487000029007F8011DB8F10001A8F10108F2DC6F
:1048800002980028EFD1791E0E980870307800F059
:10489000200040F0450007F8020D12A8C01B00F1EF
:1048A00007081498007800B1012000EB0A01019874
:1048B00001EBE07105984144401A401E0590E00369
:1048C00006D45B462146179A059800F05DF805442A
:1048D0001498007818B15A46179990476D1CE00358
:1048E00024D55B462146179A059800F04DF80544FB
:1048F0001CE00498002807DBDDE90301884203DDA2
:104900000098405C179901E0179930205A4690476B
:10491000049805F10105401C04900198401E019087
:1049200004D12E205A46179990476D1CBAF1000108
:10493000AAF1010ADDDC05E017F8010B5A461799C8
:1049400090476D1CB8F10001A8F10108F4DC5B464A
:104950002146179A0598ABE62D0000002B000000B9
:10496000200000002DE9F041044600251E461746B0
:10497000880404D405E039462020B0476D1C641E2D
:10498000F9D52846BDE8F0812DE9F041044600251F
:104990001E469046C80301D5302700E02027880432
:1049A00004D505E041463846B0476D1C641EF9D574
:1049B0002846BDE8F081000010B5044601E0FDF78F
:1049C00091FE14F8010B04490028F8D1BDE810400D
:1049D0000A20FDF787BE0000000000200040404094
:1049E00040404040404041414141414040404040C2
:1049F000404040404040404040404040400502026E
:104A0000020202020202020202020202022020202C
:104A10002020202020202002020202020202909088
:104A20009090909010101010101010101010101086
:104A300010101010101010100202020202028888DA
:104A400088888888080808080808080808080808E6
:104A500008080808080808080202020240000000CE
:104A6000DD490008E14A0008B34A0008B84A0008D6
:104A7000BD4A0008C24A000800080109020A0304EE
:104A8000050607000A000F0014001F0029003E0061
:104A90007D00FA00F401307825582C307825580D27
:104AA0000A000D0A42573D25750D0A53463D2564FF
:104AB0000D0A00345F350D00345F360D00345F376A
:104AC0000D00345F380D00494E56414C49440D00ED
:104AD000494E56414C494420434F4D4D414E440DA3
:104AE000004F46460D004F4B0D004F4E0D005354E6
:104AF0004F500D00544F4F204D414E5920415247C9
:104B0000554D454E54530D00494D504C4943495461
:104B10000D004558504C494349540D00494E5641EB
:104B20004C494420415247554D454E540D00535475
:104B30004152540D004352433A00494E5645525497
:104B400049513A0043523A004C44524F50543A00B3
:104B500047657420435055204944004765742064DC
:104B60006576696365204944004745545F5549446B
:104B7000004745545F4445564944005345545F44FB
:104B800045564944005345545F4F504D4F444500EE
:104B9000524541445F5245470057524954455F5280
:104BA00045470053544F52455F434F4E46494700D7
:104BB000494E49545F434F4E464947004745545F6D
:104BC000525353490054585F53545245414D004786
:104BD00045545F584F5452494D005345545F584F08
:104BE0005452494D004745545F56455253494F4E24
:104BF000004745545F43484950004745545F46527B
:104C00004551005345545F46524551004745545F56
:104C1000504F574552005345545F504F574552002F
:104C200044554D505F52454753004745545F4D4FE3
:104C300044504152414D53005345545F4D4F4450F1
:104C40004152414D53004745545F5041434B4554F9
:104C5000504152414D53005345545F5041434B45E1
:104C600054504152414D5300434C525F53544154B0
:104C700053004745545F5354415453004745545FD4
:104C800053544154555300524553455400524144E6
:104C9000494F5F494E4954004745545F56540053AD
:104CA000574545505F52580053574545505F54583B
:104CB0000053544F505F54580053544152545F5462
:104CC0005800476574204144432064617461005377
:104CD000746172742F73746F7020545820737472DF
:104CE00065616D005258207363616E0047657420E2
:104CF00048572F46572076657273696F6E00545877
:104D000020737765657000476574206672657175FC
:104D1000656E63792073657474696E67730053659B
:104D200074206672657175656E637920736574743D
:104D3000696E677300476574204C6F5261206D6F18
:104D400064756C6174696F6E20706172616D6574F9
:104D500065727300536574204C6F5261206D6F64EF
:104D6000756C6174696F6E20706172616D657465D8
:104D7000727300476574204C6F5261207061636BE1
:104D8000657420706172616D65746572730053653E
:104D900074204C6F5261207061636B657420706188
:104DA00072616D6574657273004465766963652030
:104DB00072657365740053746F70207061636B6506
:104DC0007420627572737400537461727420706120
:104DD000636B657420627572737400760077777701
:104DE0007777770044657374696E6174696F6E20BC
:104DF00049443A203078253038580D0A0053656E02
:104E00006465722049443A203078253038580D0ABC
:104E100000525353495F504B543D252E31662C525E
:104E20005353495F5349474E3D252E31662C534E0F
:104E3000523D252E31660D0A004E6F0D00596573E7
:104E40000D00753D75696E74382C20763D75696E60
:104E50007431362C20773D75696E7433322C207393
:104E60003D696E7433322C20623D737472696E67D3
:104E70002C203F3D416E797468696E672C202A3D75
:104E800030206F72206D6F7265206F6620707265C2
:104E900076696F75730D003A0A0D2000C04E000848
:104EA0000000002030020000EC090008F84F000864
:104EB00030020020E81F0000F4400008000000005D
:104EC0008113874C1408E34D1408591F1B08A908C7
:104ED0004B694B1013391E1B08500C5AE51013B9BF
:104EE0001D1B08EC2C5A711013751B1B085B0C1A48
:104EF0007B041AE2101ADD4029105AFA201A992070
:104F00001A07081A033429201311201B081E085AF7
:104F10000C704BF51C085A16204B7522105ACF40C6
:104F20001AFD7029085ADA605AC5205ABC204BD99C
:104F30001A085A7C505A6D305A2A101AC1801A35F4
:104F4000081A38102ADF2019801A54085A46201AE5
:104F500045801A73081A57101ADD081361212B08AF
:104F60008EE819102AE09019D01AC8085AB13013E7
:104F700009232B08B68819801ADB081B7D24AC197D
:104F80001C5A72205A19805A68105A59A05A9810FF
:104F90001AE5201AC20C5A90D01A1D6029181A99C5
:104FA000101AE1081ADD5029101A202429105A89F4
:104FB000405AB0204B7D1E101AA31029081A4D909C
:104FC00029085AF1101A1DF029085A8D705AE93033
:104FD0005A85701A19E029101AA8201ADE081A0139
:104FE000701AFE0C5A9F101A85501AE40C011072A8
:084FF000640000000000000055
:04000005080000D51A
:00000001FF
