:020000040800F2
:10000000000700204D010008210F00086D0B0008BB
:100010001D0F0008650B0008AD1A00080000000065
:100020000000000000000000000000003B1100087C
:10003000670B000800000000230F0008E519000806
:1000400067010008670100086701000867010008F0
:1000500067010008670100086701000867010008E0
:1000600067010008670100086701000867010008D0
:1000700067010008670100086701000867010008C0
:100080006701000867010008490B000867010008C4
:100090000000000067010008670100086701000810
:1000A000A51A00086701000867010008A71A0008E0
:1000B0006701000867010008670100086701000880
:1000C0006701000867010008670100086701000870
:1000D00067010008A91A0008670100086701000805
:1000E0006701000867010008670100086701000850
:1000F000670100080000000000000000690B000814
:10010000670100086701000837110008610B00084B
:10011000670100086701000867010008670100081F
:10012000670100086701000867010008670100080F
:100130006701000867010008DFF80CD000F092FCAE
:10014000004800471D2F0008000700200648804790
:1001500006480047FEE7FEE7FEE7FEE7FEE7FEE7AC
:10016000FEE7FEE7FEE7FEE7A31A000839010008F4
:1001700010B5431A934209D28318881803E010F887
:10018000011D03F8011D521EF9D210BD40EA010302
:100190009B0703D009E008C9121F08C0042AFAD23D
:1001A00003E011F8013B00F8013B521EF9D210BDEB
:1001B000D2B201E000F8012B491EFBD270470022A9
:1001C000F6E710B513460A4604461946FFF7F0FF56
:1001D000204610BDCAB2401E10F8011F8A4202D04C
:1001E0000029F9D100207047421C10F8011B00299A
:1001F000FBD1801A704730B503461D783DB10A46E1
:1002000012F8014B1CB1AC42FAD15B1CF5E7181A8D
:1002100030BD30B50546002008E00A4602E0A342A2
:1002200007D0521C1378002BF9D1401C2C5C002CF9
:10023000F3D130BD2DE9F0410E460546002400E023
:10024000641C285D00F0DCF90746305D00F0D8F949
:10025000381A02D1295D0029F2D1BDE8F0812DE9DB
:10026000F04791460F4680460446002614F8015B8D
:100270002DB100F0C1F90068405DC007F6D12B2D0B
:1002800002D02D2D18D0641E4A463946204600F073
:10029000BDF927B13968A14201D1C7F800807105C5
:1002A0004FF002040BD54042002803DD03F04CFF61
:1002B0000460A007BDE8F08746F48066E4E7002804
:1002C000F8DA03F041FF04606FF00040F2E72DE937
:1002D000F05F93460F4680460446002603F034FF45
:1002E000D0F80090824614F8015B2DB100F084F93B
:1002F0000068405DC007F6D12B2D02D02D2D1AD0FD
:10030000641E0021CAF800105A463946204600F003
:100310007DF9014627B13868A04201D1C7F80080B5
:10032000DAF80000022809D0CAF80090700505D557
:100330004842BDE8F09F46F48066E2E70846F8E7E9
:1003400080EA010210B502F00043400022D04A00CA
:100350001FD0010E01EB1261C0F35600C2F356022A
:1003600040F4000042F40002A0FB022000047F39A8
:10037000140400D0401C50EA124001D44000491E31
:10038000C2B20C0604EBD010401C4008802A02D0F8
:1003900003E0002010BD20F00100002900DA002059
:1003A000184310BD2DE9F04D81EA030404F0004B21
:1003B00021F0004514464FF0000A23F0004150EAB6
:1003C000050220D054EA01021DD0C5F30A570246A7
:1003D000C5F31303C1F31300C1F30A5640F48015AB
:1003E00043F48013A7EB0608101BD64608F2FD382D
:1003F00073EB050002D308F1010801E092185B419C
:10040000B8F1000F03DA00200146BDE8F08D0020AE
:100410004FF48011064684460EE0171B73EB050768
:1004200005D3121B63EB050306434CEA010C490894
:100430004FEA300092185B4150EA0107EDD152EAD1
:10044000030012D082EA040083EA0501084305D0C4
:10045000101BAB4106D20122002306E000224FF020
:10046000004302E06FF0010253101AEB06004CEB60
:10047000085110EB0A0041EB0B01BDE8F04D00F014
:100480004BB9002801DBC0F10040002901DBC1F1BC
:100490000041814201D801207047002070470028A8
:1004A00001DBC0F10040002901DBC1F100418142C4
:1004B00001D20120704700207047C10F80EAE07030
:1004C0000844CA079623002100F0F8B896230022BA
:1004D000114600F0F3B80EB540F23341029100210D
:1004E000CDE900110A460B4600F025F903B000BD26
:1004F000C1F30A5210B5C1F3130140F2FF3341F4C6
:1005000080119A4201DA002010BD40F233439A4232
:10051000A2F2334203DC524200F05DF810BD90407D
:1005200010BD00F0004230F000400AD0C10D01F5CE
:100530006071C0F3160042EA0151C208400711433E
:10054000704700200146704730B50B460146002039
:100550002022012409E021FA02F59D4205D303FA85
:1005600002F5491B04FA02F52844151EA2F1010206
:10057000F1DC30BD2DE9F05F0546002092469B4638
:1005800088460646814640241BE0284641464746A9
:10059000224600F020F853465A46C01A914110D323
:1005A00011461846224600F075FA2D1A67EB01082D
:1005B0004F4622460120002100F06CFA17EB00099B
:1005C0004E41201EA4F10104DFDC484631462A4694
:1005D0004346BDE8F09F202A04DB203A21FA02F0CE
:1005E0000021704721FA02F3D040C2F1200291406D
:1005F000084319467047000000487047CC4A00087D
:10060000A0F14101192900D8203070472DE9F05F91
:1006100082460078002715468B460AF10104B94648
:10062000302801D09DB113E014F8010B0127782880
:1006300003D0582801D045B10AE00DB1102D07D1E3
:100640000027102514F8010B02E0082500E00A2518
:100650000026B0460EE005FB080005FB06F1012769
:1006600001EB10461FFA80F8B6F5803F00D3B9467B
:1006700014F8010B294600F02EFA0028EBDABBF142
:10068000000F05D00FB1641E00E05446CBF80040C7
:10069000B9F1000F06D003F057FD02210160C81E1A
:1006A000BDE8F09F48EA0640FAE70029A8BF704776
:1006B000401C490008BF20F00100704710B4B0FA98
:1006C00080FC00FA0CF050EA010404BF10BC704733
:1006D00049B1CCF1200421FA04F411FA0CF118BF4D
:1006E000012121430843A3EB0C01CB1D4FEA00611C
:1006F0004FEA102042BF002010BC704700EBC350EF
:1007000010440029A4BF10BC7047401C490008BF1A
:1007100020F0010010BC704710B5141E73F10004E6
:1007200008DA401C41F1000192185B411A4301D1E3
:1007300020F0010010BD2DE9F04D92469B4611B10D
:10074000B1FA81F202E0B0FA80F22032904600F075
:10075000A1F904460F4640EA0A0041EA0B0153465C
:100760005A46084313D0114653EA010019D0C8F184
:1007700040025046FFF72FFF05460E4650465946A9
:10078000424600F087F9084305D0012004E02046E6
:100790003946BDE8F08D0020054346EAE0762C435B
:1007A00037430A986305E40AA0EB08000022FD0A1B
:1007B00044EA47540A3002D500200146E9E7010522
:1007C00010196941DDE9084500196941BDE8F04D9E
:1007D000A2E72DE9FE4F804681EA0300C00F0C46D8
:1007E000009021F0004123F00045B8EB0200A94140
:1007F00005D24046214690461C460B46024623F051
:100800000040104347D0270DC7F30A00C3F30A5135
:100810000290401A019040286BDAC3F3130040F4B1
:10082000801B0098924620B10023D2EB030A63EBB1
:100830000B0B01985946C0F14002504600F02AF9CE
:1008400006460D4650465946019A00F032F910EB23
:1008500008006141002487EA115284EAE7731A43D1
:1008600040D0009A62B3019A012A4FEA075215DC80
:10087000001B61EB02014FF0004202EA0752CDE992
:100880000042001C41F5801132462B46FFF753FF12
:1008900003B0BDE8F08F40462146F9E7001B61EB4D
:1008A0000201001C41F5801300185B412018A2F5DD
:1008B000001747EB030140EAD570B6196D4111E00E
:1008C0006D084FEA360645EAC0754FEA0752001B2D
:1008D00061EB0201001C41F5801149084FEA30002C
:1008E0000019514132462B4603B0BDE8F04FFFF7E7
:1008F00013BF0098012240000023D0EB020263EBFB
:10090000E073009821464FEAE074B8EB000061EB19
:100910000401E9E783F000435BE781F0004158E719
:100920002DE9FE4F81EA030404F0004421F0004168
:1009300000944FF0000B23F0004350EA01045ED016
:1009400052EA03045BD0C3F30A54C1F30A552C44A2
:10095000A4F2F3340194A0FB0254C1F3130141F457
:100960008011C3F3130343F4801301FB024400FB23
:10097000034E840A970A44EA815447EA8357A4FB4A
:10098000076802958D0A05FB07854FEA932C04FB47
:100990000C542705029D4FEA065847EA1637B5EB77
:1009A00008056EEB070C870E920E47EA811742EAA4
:1009B0008312A7FB0201B6EB0B0164EB00042B0DC5
:1009C00043EA0C335E1844EB1C50DA465146E7FB11
:1009D0000201C5F313044FEA0B3343EA14534FEA01
:1009E0000432019C43EA0603A4F10C040294009C27
:1009F000CDE900B4FFF79FFE03B0BDE8F08F002003
:100A00000146F9E7C1F30A52C1F3130140F2FF3383
:100A100041F480119A4202DA00200146704740F208
:100A200033439A42A2F2334202DC5242FFF7D3BD73
:100A300000F030B830B5041E71F1000404DB4FF053
:100A40000044404264EB0101141E73F1000405DB15
:100A50001C464FF00043524263EB0403994208BF27
:100A6000904230BD1CB509480090094801900546E8
:100A7000009C06E0E06840F0010394E80700984716
:100A80001034AC42F6D3FFF75BFB0000A84F000820
:100A9000D84F0008202A04DB203A00FA02F1002097
:100AA00070479140C2F1200320FA03F319439040AC
:100AB0007047202A06DBCB17203A41FA02F043EABE
:100AC000E07306E041FA02F3D040C2F12002914007
:100AD0000843194670473A2800D2303820F02002E7
:100AE000412A01D3A2F13700884201D34FF0FF30F1
:100AF000704770B58C1810F8015B15F0070301D131
:100B000010F8013B2A1106D110F8012B03E010F870
:100B1000016B01F8016B5B1EF9D12B0705D4002393
:100B2000521E0DD401F8013BFAE710F8013BCB1A35
:100B3000921C03E013F8015B01F8015B521EF9D52A
:100B4000A142D8D3002070BD42F20040C4F201009F
:100B50000168490758BF704704210160006C704765
:100B600070470000FEE7704770470000FEE7000096
:100B70002DE9F04F81B00A6892FAA2F2B2FA82F23D
:100B80000E68D2B236FA02F300F0A78000F1240812
:100B900000F120034FF0010A4FF4FF744FF0030BF4
:100BA0004FF47F79009300BF0AFA02F316EA0307B5
:100BB00000F08E804B68066897FAA7F5B5FA85F5C0
:100BC00004EA45050BFA05F5AE4397FAA7F5B5FA21
:100BD00085F504EA4505AB40334303604B68013BB0
:100BE000012B19D88B68866897FAA7F5B5FA85F5B1
:100BF00004EA45050BFA05F5AE4397FAA7F5B5FAF1
:100C000085F504EA4505AB4033438360CB6846680D
:100C10007B43BE43334343600B69C66897FAA7F52D
:100C2000B5FA85F504EA45050BFA05F5AE4397FAE2
:100C3000A7F5B5FA85F504EA4505AB403343C36033
:100C40004B68022B2FD1D1F814C03D0A12D0D8F82E
:100C500000E095FAA5F6B6FA86F609EA86060F23AD
:100C600003FA06F62EEA0603C64695FAA5F6B6FA84
:100C700086F511E0DDF800E00F26DEF8003097FA87
:100C8000A7F5B5FA85F509EA850506FA05F5AB433A
:100C900097FAA7F5B5FA85F509EA85050CFA05F680
:100CA0003343CEF800304B68066897FAA7F5B5FADB
:100CB00085F597FAA7F704EA4505B7FA87F70BFA1F
:100CC00005F504EA4707AE43BB40334303600E68B3
:100CD000013236FA02F37FF467AF012001B0BDE8BC
:100CE000F08F000010B50824C5F60004D4F8801079
:100CF000032816D101F00300DFE800F00220242FC2
:100D000000F010F921683C2202EA910144F6E42245
:100D1000C0F6000251582268B0FBF1F0C2F3C221C4
:100D200032E0014041EA0040A0F540204FEAB00027
:100D3000032812D0022805D0012815D1BDE81040A3
:100D400000F0F0B84FF0B040006842F200414005BA
:100D5000C0F2F40101EAE07010BDD4F888004FF44D
:100D6000004101EA803010BD00F0DCF821683C222F
:100D700002EA910144F6E422C0F6000251582268CA
:100D8000B0FBF1F0C2F3022144F62432C0F60002B7
:100D900052F82110C84010BD0246006840064FF0CE
:100DA000000036D42DE9F04FD2F800C04FF6BF73E3
:100DB000D1E900E82CEA030C4CEA0E0701F1080B1C
:100DC00047EA08079BE8200CD1E9054347EA0A07F0
:100DD000D1E9076947EA0B073B433343234343EA1F
:100DE00009031360536840F60477BB4343EA144396
:100DF0002B43B0EBD52F536003D1506840F48050A3
:100E00005060B9F5005FBDE8F04F04BF888C1061F9
:100E10000120D16921F40061D161704748F20801D5
:100E2000C2F2000108607047B0B504460068C00710
:100E30001CBF0020B0BD0D46206846F6F311CEF66B
:100E4000FF7100EA010ED5E9021CD5E9043241EA3E
:100E50000E01E8691943114308432060606820F4DB
:100E6000405040EA0C006060A869A16821F440711C
:100E7000084343F60001C4F201018C42A06007D090
:100E800044F20040C4F2000084421FD10C2000E074
:100E90000320FFF727FFC8B16968B9B12A680B2A98
:100EA0001CD812A353F82220EB69B0FBF2F0B3F583
:100EB000004F0DD1400000EB5100B0FBF1F04FF6B8
:100EC000F0710140C0F34200084406E0002006E053
:100ED00000EB5100B0FBF1F080B2E0600120298806
:100EE000E26A22F00F021143E162B0BD010000008E
:100EF00002000000040000000600000008000000DE
:100F00000A0000000C00000010000000200000009B
:100F1000400000008000000000010000FEE700002B
:100F2000FEE770470C21C5F6000151F8042CC2F30E
:100F3000810242F20040C0F2F400DFE802F00272E7
:100F40000F194FF0B04002680068120724D4000760
:100F500031D4D1F88800C0F303203BE04FF0B0411A
:100F60000968C9025CBF44F60000C0F2E81070478F
:100F70000A6802F00302DFE802F0020244144FF0B4
:100F8000B0400268006812071AD4000729D4D1F8CB
:100F90008800C0F303202EE0000716D4D1F88800A3
:100FA0000CE04FF0B0421268D2025CBF44F6000081
:100FB000C0F2E81025E04FF0B0400068002009E0E2
:100FC000000713D4D1F888000EE04FF0B04000685D
:100FD000C0F3031044F64431C0F6000151F820007C
:100FE00070474FF0B0400068002004E04FF0B04080
:100FF0000068C0F3031044F64432C0F6000252F811
:1010000020000A680B68C2F306225043C3F30212A1
:1010100001320968B0FBF2F0012202EB5171B0FB22
:10102000F1F0704710B548F23C24C2F20004207879
:1010300078B948F20000C2F2000000214FF480624B
:1010400000234FF0FF304FF4E13001F0F9FF0120B1
:10105000207048F2BC51C2F200010868012816DB7A
:1010600048F2C052C2F20002106848F2BC33C2F229
:101070000003185C1368013313601368B3F5007F35
:1010800004BF002313600A68013A0A6010BD4FF0E4
:10109000FF3010BD80B548F20000C2F20000002110
:1010A0004FF4806200234FF0FF304FF4E13001F045
:1010B000C7FF48F23C20C2F200000121017080BD50
:1010C000B0B58CB001AC20462821FFF778F8642039
:1010D000C5F600000168002541F0010101600068CB
:1010E000C5F6010500F001000B900B982868072158
:1010F00020F0400028600A914FF4E061082003913D
:101100004FF482710790002002914FF40071CDE9F5
:101110000400CDE908000691019028462146FFF71A
:101120003BFE686820F010006860286840F04000CE
:1011300028600CB0B0BD00F04EBA704780B582B0E8
:1011400061F3410062F38200049963F3C30061F329
:101150000410DDE90512002918BF2030002A18BF4D
:1011600040F040008DF807000DF1070189200122B1
:1011700000F0C0FB02B080BD48F25C30C2F200005B
:1011800080684DF68361C4F21B31A0FB0101880C1D
:101190004FF47F734FF47F72B0F57F7F38BF8B0CB5
:1011A00003EB53019808B1F57F7F38BF0A469108D9
:1011B000AFF3008080B582B08DF806008DF807107F
:1011C0000DF106019820022200F094FB02B080BDD0
:1011D00080B582B000208DF807000DF107010720CF
:1011E000012200F087FB02B080BD80B582B040BA1A
:1011F000ADF806000DF106010220022200F07AFB94
:1012000002B080BD80B582B00DF10501122003222D
:1012100000F038FABDF8060000BA000C02B080BD3C
:10122000F0B581B015460E460746694614200422E3
:101230001C4600F027FA9DF800009DF801109DF86B
:1012400002209DF80330387031702A80237001B07D
:10125000F0BD80B582B00DF106011520022200F02C
:1012600011FA9DF8070002B080BD70B582B0144637
:101270000D4606460DF105011320032200F002FA87
:101280009DF805009DF806109DF807203070297024
:10129000227002B070BD9421002840F6AC0018BF47
:1012A000962100F05CBBF0B583B015460E460746AC
:1012B0000DF10501102007221C4600F0E3F99DF80E
:1012C0000500BDF80610387008BABDF80810000C0B
:1012D000308008BABDF80A10000C288008BA000C4B
:1012E000208003B0F0BD80B582B0002069460622A0
:1012F000ADF80400009000F0FDFA02B080BD80B5AA
:1013000082B08DF806008DF807100DF106018F20D0
:10131000022200F0EFFA02B080BD80B500F06CFA56
:10132000D12000210022BDE8804000F0E3BA80B562
:1013300082B08DF804006FF07F40814238BF0846CC
:10134000010C8DF80510010A8DF806108DF80700C4
:1013500001A99720042200F0CDFA02B080BD80B52B
:1013600082B04FEA102C8DF80100080A8DF80200B7
:10137000100A8DF80400180A8DF803108DF8052066
:101380008DF806006946082008228DF800C08DF807
:10139000073000F0AFFA02B080BDC120002100226A
:1013A00000F0A8BA10B582B0841F18BF0124052927
:1013B00098BF05210C2928BF0C218DF804108DF849
:1013C00005008DF8062001A98B2004228DF8073036
:1013D00000F090FA40F6890000F086F900F0FB007A
:1013E00040EA840140F6890000F0B9FA02B010BD6D
:1013F000B0B582B0069D012898BF0120040A8DF87F
:1014000003008DF804208DF805100DF102018C20E9
:1014100006228DF802408DF806308DF8075000F056
:1014200069FA40F2367000F05FF900F0FB0140F21B
:101430003670002D08BF043100F091FA02B0B0BD43
:1014400080B582B08DF807000DF107018A200122D6
:1014500000F050FA02B080BD80B582B0002818BFFD
:1014600001208DF807000DF107019620012200F000
:1014700041FA02B080BD80B582B000BA019001A9E6
:101480008620042200F036FA02B080BD10B582B08A
:10149000044600F0AFF96FF07F40844238BF204629
:1014A000010C8DF80510010A8DF806108DF8070063
:1014B0000DF105018220032200F01CFA02B010BDDC
:1014C00080B582B061F382008DF807000DF107014D
:1014D0008420012200F00EFA02B080BD80B582B0F7
:1014E000002818BF01208DF807000DF107018020AA
:1014F000012200F0FFF902B080BD10B582B00446B1
:1015000000F07AF96FF07F40844238BF2046010C2A
:101510008DF80510010A8DF806108DF807000DF101
:1015200005018320032200F0E5F902B010BD80B56B
:1015300000F062F9D22000210022BDE8804000F0D6
:10154000D9B980B582B040F20470C0F200100190A9
:1015500001A99520042200F0CDF940F6E7003821DA
:1015600000F0FDF948F25C30C2F20000007B0DF1A2
:1015700002018DF8020000208DF803008E20022267
:1015800000F0B8F940F6D80000F0AEF840F01E01C7
:1015900040F6D80000F0E3F902B080BD80B502F05B
:1015A000F1FC012001F03EFBC02002F0F5FC002020
:1015B00002F0F2FC02F064FC4DF6EF0040F2144140
:1015C000CFF6FF70C5F60001013028BF80BD0A6864
:1015D0009207F9D480BD10B5FFF714FE044647F614
:1015E000FF70FFF702FEE00705D048F24020C2F28C
:1015F000000001210170A00705D548F23F20C2F28A
:10160000000001210170600658BF10BD48F235206E
:10161000C2F200000121017010BD00002DE9F0416F
:101620004DF6EF07CFF6FF7740F2144614460D460D
:101630008046C5F600063846013002D23168890777
:10164000FAD402F09FFC1E2002F0A6FC404602F0F5
:10165000A3FCFF2002F0A0FC3CB100BFFF2002F081
:101660009BFC013C05F8010BF8D102F009FC00BF1E
:10167000013728BFBDE8F08130688007F8D4BDE8A5
:10168000F08100002DE9F0474DF6EF07CFF6FF7728
:1016900040F2144914468A468046C5F60009384689
:1016A000013003D2D9F800108907F9D402F06AFC9E
:1016B000404602F071FC5CB1002600BFFF20F5B28D
:1016C00002F06AFC0136F1B28C420AF80500F5D846
:1016D00002F0D6FB013728BFBDE8F087D9F800003B
:1016E0008007F7D4BDE8F08780B582B00DF107011F
:1016F000012200F005F89DF8070002B080BD00004F
:101700002DE9F04381B04DF6EF07CFF6FF7740F2B9
:10171000144614460D468146C5F600064FEA1028C9
:10172000384600BF013002D231688907FAD402F08E
:1017300029FC1D2002F030FC404602F02DFC5FFA2F
:1017400089F002F029FCFF2002F026FC3CB100BF2A
:10175000FF2002F021FC013C05F8010BF8D102F05A
:101760008FFB00BF013702D230688007FAD401B086
:10177000BDE8F08302F0DEBB10B584B0002001218B
:101780000124FFF79DFE0020FFF7A8FE01200121A4
:1017900001220123CDE900440294FFF7CFFC48F277
:1017A0005C30C2F2000080684DF68361C4F21B31E8
:1017B000A0FB0101880C4FF47F734FF47F72B0F5EA
:1017C0007F7F38BF8B0C03EB53019808B1F57F7F07
:1017D00038BF0A469108FFF7EDFC48F23E21C2F2FD
:1017E000000104226FF07F400A7004B0BDE8104091
:1017F000FFF74CBE02F0B6BB02F0BCBB07280FD807
:10180000DFE800F004202F380E40182748F23E226F
:10181000C2F200020023002000211370FFF750BE27
:1018200048F23E21C2F2000104226FF07F400A70AC
:10183000FFF72CBE48F23E20C2F2000006210170E4
:10184000FFF76BBD48F23E21C2F2000101220020E9
:101850000DE048F23E20C2F2000007210170FFF7C0
:1018600066BE48F23E21C2F20001022201200A7047
:10187000FFF734BE48F23E20C2F20000032101709F
:10188000FFF78BBD48F23E21C2F2000105226FF046
:101890007F400A70FFF731BE2DE9F0414DF6EF07AA
:1018A000CFF6FF7740F2144614460D468046C5F643
:1018B00000063846013002D231688907FAD402F0B6
:1018C00061FB0E2002F068FB404602F065FB2CB184
:1018D00015F8010B02F060FB013CF9D102F0D0FADF
:1018E000013728BFBDE8F08130688007F8D4BDE833
:1018F000F08100002DE9F04381B04DF6EF07CFF6FF
:10190000FF7740F2144915460E468046C5F6000999
:10191000384600BF013003D2D9F800108907F9D446
:1019200002F030FB404602F037FB4DB1002400BF0F
:10193000E0B2305C02F030FB0134E0B28542F7D80F
:1019400002F09EFAB8F1840F06D000BF013703D22F
:10195000D9F800008007F9D401B0BDE8F08380B564
:1019600082B08DF807100DF10701012200F002F896
:1019700002B080BD2DE9F0474DF6EF07CFF6FF77B7
:1019800040F2144A14460D468146C5F6000A4FEA55
:1019900010283846013003D2DAF800108907F9D44C
:1019A00002F0F0FA0D2002F0F7FA404602F0F4FAE5
:1019B0005FFA89F002F0F0FA44B10026F0B2285C38
:1019C00002F0EAFA0136F0B28442F7D802F058FA8F
:1019D000013728BFBDE8F087DAF800008007F7D4A8
:1019E000BDE8F08702F0EABA4FF0B0410A6808207B
:1019F000C5F6000012F0080208BF00F18C014FF09C
:101A00000402096808BF0822D14044F6443201F0BC
:101A10000F01C0F6000252F821100268C2F38102E1
:101A2000DFE802F02D02070C42F20041C0F2F4019F
:101A300025E044F60001C0F2E81120E04368426866
:101A400003F00303C2F30212022B02F1010206D0DB
:101A5000032B04BF44F60001C0F2E81103E042F298
:101A60000041C0F2F4014368B1FBF2F1C3F3062276
:101A700051434268012303EB5272B1FBF2F148F289
:101A80000802C2F20002116000683C2303EA9000E1
:101A900044F6E423C0F600031858B1FBF0F01060E0
:101AA000704770477047704700F017B8FEE70000B6
:101AB000642001F0B7F84EF60C50CEF20000BFF3F0
:101AC0004F8F0168042201F4E061C0F2FA52114321
:101AD0000160BFF34F8F00BFFEE744F21C40C4F229
:101AE00000000168890627D5816848F2C450C2F217
:101AF0000000026848F2BC33C2F200039954016846
:101B00000131016048F2BC51C2F200010A680132A1
:101B10000A600268B2F5007F04BF002202600A6812
:101B2000B2F5007FB8BF70470022026048F2C05093
:101B3000C2F200000A60026070470000022988BFFC
:101B4000704702A050F8210002F06CBFDC4B000887
:101B5000004C0008284C000800210022FEF77FBB43
:101B600000210022FEF7B3BB844600284FF001009D
:101B700018BF002900D17047CCF8001000200CF1EC
:101B800008010DC18CF80400704700002DE9F04FEA
:101B900081B0804620B3D8F8000008B308F10804EB
:101BA00000260027FEF720FB54F8041C054629B147
:101BB0000846FEF719FB014601E000BF0021AF42D5
:101BC000C8BF3D468E42C8BF31462268A068002A81
:101BD0001CBF0E462F46002804F11004E2D101E09C
:101BE0000026002728A002F01DFF44F64E70C0F624
:101BF000000002F017FFB8F1000F3AD0D8F800202B
:101C0000BAB37D4244F6A17744F6EF6A764208F112
:101C100008040FF2A408C0F600070FF28C09C0F602
:101C2000000A0FF2880B00BF206858B148462946C9
:101C300002F07AFA54F8042C42B11078002808BF58
:101C4000524604E0404611460AE000BF524658465C
:101C5000314602F069FA616821B1087810B115A027
:101C600002F062FA384602F0DDFEA2681034002A63
:101C7000DAD144F6A170C0F6000002F0D3FE0120D4
:101C800001B0BDE8F08F00BF3C636F6D6D616E64A5
:101C90003E203C617267733E203C68656C70207426
:101CA0006578743E0D000000252A730020252A73F4
:101CB0000000000020257300202D2D2D20257320ED
:101CC0002D2D2D002DE9F04F9BB000284FF0FF087F
:101CD00000F04D81002900F04A810446D0E902A0BD
:101CE00015465244824280F0348120682A4650448E
:101CF000FEF73EFAA0680026284482454FF000080F
:101D0000A06080F034810AA904314FF0000B0591E6
:101D1000216811F80A90B9F10A0F02D0B9F10D0F3C
:101D200048D1DA4501F80A6052D02068216900EBF9
:101D30000B050991284629460A78082A04D04AB199
:101D400000F8012B03E000BFA84288BF0138013131
:101D5000F2E700BF44F6A37106702846C0F6000102
:101D60001AAA02F071F898B30746099828B30668D2
:101D7000A6B1CDF8208000F1080800BFD8F8000017
:101D800020B138463146FEF755FAC0B3D8F808609E
:101D900008F11008002EF1D1DDF820800026284639
:101DA00075A1FEF747FA48B90998FFF7EFFE064616
:101DB00004E000BF0AF1010A1DE00026002E4FF0EA
:101DC000000605D127B138460021FFF7B7FE00BF56
:101DD000B9F10A0F08BFDA4502D008F1010804E0A2
:101DE00020790D2818BF08F101080AF1010AA0683E
:101DF000D34684F804908245FFF48AAFACE044F601
:101E0000A3710020C0F600011AAA0A9602F01CF87D
:101E10000127002670B10F2F0AA941F827002CD006
:101E200044F6A3710020C0F600011AAA013702F09F
:101E30000BF8EFE758F8040C002800F079800178DF
:101E40003F2902D14178002972D00690FEF7CCF9E3
:101E5000039006982A21FEF7BDF9A8B1DDF818C055
:101E6000039A0CEB0201013988424FF0020105D1BF
:101E7000012A03D0901E00900AE001212846FFF7B6
:101E80005DFEDDF82080A3E7039ADDF818C000921C
:101E9000781E029042D00CEB020001902E2300200D
:101EA00000260490964205DA1CF806002A2818BF7E
:101EB000034604E0019810F8010C2A2830D1A3F160
:101EC000730004280BD80793DFE800F0032A120FF1
:101ED0000C000598042150F8260001220DE0622B29
:101EE00011D01DE00598042104E00598022101E0CD
:101EF0000598012150F82600002202F0D5F8039A37
:101F0000DDE906C360B10298013686424FF0000158
:101F100028BF0121B0420491C4D101E00120049006
:101F200004980221C00712D0009800268742A5DD40
:101F3000D8F8002038460AA9904758F8080CDDF870
:101F4000208000287FF444AF0027012627E70026E1
:101F500094E74FF0FE080AE0BBF1000F07D0A0EBBA
:101F60000B022068A26000EB0B01FEF701F94FFAAB
:101F700088F01BB0BDE8F08F68656C700000000051
:101F800080B509A002F0D0F801F075FA18B1BDE8EB
:101F9000804001F001BA44F6F230C0F60000BDE81E
:101FA000804002F03FBD00BF434C525F5354415448
:101FB000533A2000F0B581B048680C46FFF7D0FDD9
:101FC000A16804460846FFF7CBFD05460DA002F0C8
:101FD00029FDAC4214D844F6A2376E46C0F600077D
:101FE0002046314601F070FC40B9009A384621463F
:101FF00002F09AF80134AC42F2D901E001F0CCF9D8
:1020000001B0F0BD44554D505F524547533A0D0065
:1020100010B582B001A801F0A0FA044608A002F0B1
:1020200083F81CB1204601F0B7F907E00198FEF7EC
:1020300078FA024605A00B4602F076F802B010BD11
:102040004745545F525353493A200000252E3166CC
:102050002064426D0D0A000080B582B00FA002F02E
:1020600063F80DF107000DF106010DF1050201AB5A
:1020700001F006FA10B101F08FF90CE09DF807109D
:102080009DF806209DF805309DF804C006A0CDF807
:1020900000C002F049F802B080BD00BF4745545F60
:1020A000434849503A20000025642C25642C2564BF
:1020B0002C25640D0A0D0A0048F25C30C2F20000C3
:1020C000416801A002F030B84745545F4445564985
:1020D000443A203078253034580D0A0048F25C30FC
:1020E000C2F20000806844F6D351C1F26201A0FB45
:1020F0000101890901A002F017B800BF4745545FEC
:10210000465245513A2025750D0A000010B582B09F
:1021100024A002F009F80DF106000DF1050101AA55
:102120000DF1030301F0B0F910B101F035F937E01A
:1021300048F25C34C2F20004BDF80610627B44F63B
:10214000AE30C0F6000001F0EFFF44F65040C0F69C
:10215000000001F0E9FF9DF80400042806D844F6C9
:10216000D021C0F6000151F8200003E044F6D3303E
:10217000C0F6000002F056FC44F65440C0F60000E1
:1021800001F0D2FF207C012804D144F6F630C0F6DD
:10219000000003E044F6ED30C0F6000002F042FC1F
:1021A00002B010BD4745545F4D4F44504152414D20
:1021B000533A200070B548F25C35C2F20005698AD6
:1021C000AA8AEB7D1AA001F0AFFFA97D44F61E405C
:1021D00044F61442C0F60000C0F60002012908BF10
:1021E000104602F01FFC44F64140C0F6000001F02A
:1021F0009BFF287E44F6ED34C0F6000444F6F63624
:1022000001282046C0F6000608BF304602F00AFC4E
:1022100044F64640C0F6000001F086FF687E0128C3
:1022200008BF34462046BDE8704002F0FBBB00BF4B
:102230004745545F5041434B4554504152414D53E3
:102240003A0D0A53594E433D3078253034582C50BE
:1022500052455F4C454E3D25640D0A5041595F4C37
:10226000454E3D25640D0A4845414445523A00001B
:1022700048F25C30C2F2000090F90C1001A001F0AD
:1022800053BF00BF4745545F504F5745523A202532
:10229000642064426D0D0A0080B582B00AA001F08E
:1022A00043FF684601F067F910B101F075F808E0E6
:1022B000BDF80010BDF80220BDF8043005A001F003
:1022C00033FF02B080BD00BF4745545F53544154B3
:1022D000533A2000504B543D25642C464552523D04
:1022E00025642C484552523D25640D0A000000002B
:1022F00080B582B00AA001F017FF0DF107000DF1C3
:10230000060101F0BFF810B101F046F806E09DF8B3
:1023100007109DF8062006A001F006FF02B080BD60
:102320004745545F5354415455533A200000000030
:102330003078253032582C3078253032580D0A004C
:1023400002A001210022012301F0EEBE4745545FA7
:1023500056455253494F4E3A2048573D25642C4626
:10236000573D25642E25640D0A00000001A002F0EF
:1023700059BB00BF4745545F56543A20544F444F11
:102380000D00000010B582B00DF1070001F002F958
:10239000044609A001F0C8FE1CB1204600F0FCFF75
:1023A00007E09DF8071044F6BA30C0F6000001F0CF
:1023B000BBFE02B010BD00BF4745545F584F54529A
:1023C000494D3A20000000003020C4F202000368AA
:1023D0002C20C4F20200026801A001F0A5BE00BFDB
:1023E0004745545F5549443A203078256C6C580D68
:1023F0000A00000048F2D45040F2000148F20C03F9
:10240000C2F20000C2F20001C2F200034FF4807277
:10241000FFF7AABB10B50FA00C4601F085FE60685F
:10242000FFF79EFBA16804460846FFF799FBA2B29E
:10243000C1B2104601F054F918B1BDE8104000F0E7
:10244000ABBF44F6F230C0F60000BDE8104002F029
:10245000E9BA00BF494E49545F434F4E4649473A97
:102460002000000080B582B0FEF7DCFDC1B28DF81F
:10247000070051B1FF2908D048F2D450C2F2000041
:102480000DF107010122FFF71DFC02B080BD000025
:1024900080B509A001F048FE01F08BF818B1BDE845
:1024A000804000F079BF44F6F230C0F60000BDE88D
:1024B000804002F0B7BA00BF524144494F5F494ED5
:1024C00049543A200000000010B582B04868FFF778
:1024D00047FB04460AA001F027FE01A9204601F0AF
:1024E000F3F910B100F058FF07E0019A44F6A2306A
:1024F000C0F60000214601F017FE02B010BD00BF7B
:10250000524541445F5245473A20000080B503A040
:1025100002F088FABDE88040FFF7CABA5245534539
:10252000543A204F4B0D000070B548680C46FFF739
:1025300017FB48F20475C2F200052860286808B944
:1025400001202860A068FFF70BFB48F22C26E16809
:10255000C2F2000630600846FFF702FB316848F21D
:10256000CC52C2F20002632910609CBF642030602C
:1025700001F0A1FB2968326802A0BDE8704001F0BB
:10258000D3BD00BF53544152545F54583A20256480
:102590002C25640D0A00000010B54868FFF7E0FA2A
:1025A00048F25C34C2F20004606001F0A9FD616889
:1025B00002A0BDE8104001F0B7BD00BF5345545F15
:1025C00044455649443A203078253034580D0A00A5
:1025D000B0B548680C46FFF7C3FA4FF47A7141432F
:1025E00048F25C356068C2F20005A960FFF7B8FAEE
:1025F00001F031FA04460BA001F096FD24B120460B
:10260000BDE8B04000F0C8BEA86844F6D351C1F29E
:102610006201A0FB0101890905A0BDE8B04001F0FD
:1026200083BD00BF5345545F465245513A200000D8
:1026300025750D0A00000000F0B581B048680C4611
:10264000FFF78EFAA16805460846FFF789FAE168A8
:1026500006460846FFF784FA216904460846FFF754
:102660007FFA074626A001F05FFDA8B2F1B2E2B200
:10267000FBB201F041FA20B101B0BDE8F04000F03A
:102680008BBE48F25C34C2F20004A07B44F68E316B
:10269000C0F60001627B31F8101044F6AE30C0F68F
:1026A000000001F041FD44F65040C0F6000001F08A
:1026B0003BFDE07B042806D844F6D021C0F600019B
:1026C00051F8200003E044F6D330C0F6000002F0D9
:1026D000A9F944F65440C0F6000001F025FD207C25
:1026E000012807BF44F6F630C0F6000044F6ED308E
:1026F000C0F6000001B0BDE8F04002F093B900BFA1
:102700005345545F4D4F44504152414D533A200080
:1027100010B54868FFF724FA04460BA001F004FD49
:1027200048F23E20C2F20000007801F046FA20B1E3
:1027300040B2BDE8104000F02FBEE1B205A0BDE8F8
:10274000104001F0F1BC00BF5345545F4F504D4F56
:102750004445200025640D0A0D0A00002DE9F047CC
:1027600082B048680E46FFF7FBF9B168804608461C
:10277000FFF7F6F9F16881460846FFF7F1F931698C
:1027800082460846FFF7ECF9044610F0FE0F706928
:102790004FF0010718BF3C46FFF7E2F9054610F07D
:1027A000FE0FB06918BF3D46FFF7DAF910F0FE0FD3
:1027B00008BF0746FFB2EEB2E3B21FFA88F01FFA75
:1027C00089F15FFA8AF2CDE9006701F0FBF904466E
:1027D00025A001F0A9FC2CB1204602B0BDE8F047CD
:1027E00000F0DABD48F25C34C2F20004618AA28AC9
:1027F000E37D22A001F098FCA17D44F61E4044F642
:102800001442C0F60000C0F60002012908BF1046BD
:1028100002F008F944F64140C0F6000001F084FCE3
:10282000217E44F6ED3044F6F632C0F60000C0F6E4
:102830000002012908BF104602F0F4F844F64640B1
:10284000C0F6000001F070FC607E012807BF44F66E
:10285000F630C0F6000044F6ED30C0F6000002B0DD
:10286000BDE8F04702F0DEB85345545F5041434B9A
:102870004554504152414D533A2000005345545F56
:102880005041434B4554504152414D533A0D0A5328
:10289000594E433D3078253034582C5052455F4CCA
:1028A000454E3D25640D0A5041595F4C454E3D252E
:1028B000640D0A4845414445523A000010B5486845
:1028C000FFF74AF940B201F0F4F8044609A001F01C
:1028D0002BFC24B12046BDE8104000F05DBD48F25D
:1028E0005C30C2F2000090F90C1005A0BDE8104069
:1028F00001F01ABC5345545F504F5745523A2000DF
:1029000025642064426D0D0A00000000B0B54868DF
:10291000FFF726F9C4B2204601F09FF9054609A049
:1029200001F002FC25B12846BDE8B04000F034BDFE
:1029300044F6BA30C0F600002146BDE8B04001F0D0
:10294000F3BB00BF5345545F584F5452494D3A2092
:102950000000000048F23D20C2F200000178012989
:1029600009D10021017048F2FD50C2F2000001704F
:1029700006A002F057B801A002F054B853544F50CB
:102980005F54583A204552524F520D0053544F5005
:102990005F54583A204F4B0D0000000080B509A04D
:1029A00001F0C2FB01F0ACFB20B140B2BDE88040B9
:1029B00000F0F2BC44F6F230C0F60000BDE8804002
:1029C00002F030B853544F52455F434F4E4649478B
:1029D0003A2000002DE9F04182B048680E46FFF72A
:1029E000BFF8B16880460846FFF7BAF8F1680546B7
:1029F0000846FFF7B5F8316907460846FFF7B0F813
:102A0000716906460846FFF7A7F8FDF756FD04462C
:102A100013A001F089FB404629463A46334600940C
:102A200000F085FF20B102B0BDE8F04100F0B4BC79
:102A300048F2F150C2F20000007830B100F067FABD
:102A400044F63A40C0F6000005E000F059FA44F6BA
:102A5000FA30C0F6000002B0BDE8F04101F0E2BF7C
:102A600053574545505F52583A2000002DE9F04138
:102A700082B048680E46FFF773F8B1688046084692
:102A8000FFF76EF8F16805460846FFF769F8316907
:102A900007460846FFF764F8716906460846FFF7DF
:102AA0005FF8044614A001F03FFBE4B2404629461B
:102AB0003A463346009401F039F920B102B0BDE83E
:102AC000F04100F069BC48F23E20C2F200000078FC
:102AD000042806D100F014FA44F6FA30C0F60000DB
:102AE00005E000F014FA44F63A40C0F6000002B0E7
:102AF000BDE8F04101F096BF53574545505F54582B
:102B00003A20000010B511A00C4601F00DFB6068E2
:102B1000FFF726F8C0B201F0E5F818B1BDE81040A3
:102B200000F03ABC48F23E20C2F2000000780628CD
:102B300007D007280EBF09A044F6ED30C0F600000C
:102B400000E005A0BDE8104001F06CBF54585F5391
:102B5000545245414D3A200043570D0050524541D3
:102B60004D424C450D000000B0B548680C46FEF7DC
:102B7000F7FFA16804460846FEF7F2FF05460BA0E2
:102B800001F0D2FA2046294601F03EF918B1BDE81D
:102B9000B04000F001BC44F6A230C0F6000021466F
:102BA0002A46BDE8B04001F0BFBA00BF57524954B1
:102BB000455F5245473A200080B540F20011C2F20D
:102BC000000140F200200A684B68C2F20000C0E930
:102BD000002348F2C852C2F200021278D1F808C0AD
:102BE000D1F80CE0112AC0F808C0C0F80CE038BFDA
:102BF00080BD103A10301031BDE88040FDF7B8BA02
:102C00004EF21000CEF2000047F6FF4141604EF652
:102C10002351CEF20001F0220A70002181600721C9
:102C20000160704780B54EF21401CEF200014FF4FE
:102C3000FA42D1F800C000FB02FE4868002300BF42
:102C40004A688242FCD003449B1A824228BF6344F4
:102C50007345104628BF80BDF2E7000080B54EF2F4
:102C60001401CEF20001D1F800C04FEA401E4868BE
:102C7000002300BF4A688242FCD003449B1A824270
:102C800028BF63447345104628BF80BDF2E70000AB
:102C900044F20801C5F60001CA68B2F1FF3F09DC41
:102CA00040F22312C4F267520A6048F6AB12CCF627
:102CB000EF520A608A68D203FCD48A6842F00102AB
:102CC0008A600A6942F080720A610222CA604FF685
:102CD000F872C0F20702CB6802EA10201843C860FD
:102CE000C86840F48030C8608868C003FCD4C868F5
:102CF00020F00200C860C86840F000420020CA60AE
:102D00007047000044F2080CC5F6000CDCF80C30EB
:102D1000B3F1FF3F0BDC40F22313C4F26753CCF84E
:102D2000003048F6AB13CCF6EF53CCF80030F0B5DA
:102D3000DCF80830DB03FBD4DCF8083043F0010397
:102D4000CCF80830DCF8103043F08073CCF8103049
:102D5000DAB300BF00250023002400BF002AC5F11C
:102D60002007964614BF11F8012BFF22B5F120066B
:102D700022FA07F758BF02FA06F702FA05F658BF1B
:102D80000026BEF1010205F1080544EA070438BF38
:102D90000022402D43EA0603E0D1DCF80C5045F058
:102DA0000105CCF80C500360446000BFDCF808302B
:102DB000DB03FBD4DCF80C30BEF1020F23F001037F
:102DC00000F10800CCF80C30C4D2DCF80C0040F064
:102DD00000410020CCF80C10F0BD000044F21C4172
:102DE000C4F20001C2B2CA600A685206FCD570473C
:102DF00080B500F0E9F8BDE88040FEF74BB900006F
:102E000080B582B00820C5F60000816C002341F433
:102E100000218164826C44F2000102F400220192DC
:102E2000019A4EF60C52CEF2000212684EF22F4278
:102E3000CEF2000213704EF20412CEF200024FF4F2
:102E40000043C5F6000113600A68012363F3020220
:102E50000A6000BF0A6802F00702012AFAD1D0F81E
:102E6000F813012262F34A21C0F8F8134FF0B04181
:102E70000A6842F400120A600A6842F480320A606A
:102E80000A689203FCD5D0F88C1041F00101C0F81B
:102E90008C1000BFD0F88C108907FBD50168022286
:102EA00062F30101016000BF016801F00C01082913
:102EB000FAD1016821F0F0010160D0F8001121F091
:102EC0000F01C0F80011016821F4E06101600168A0
:102ED00021F46051016044F60000C0F2E810FDF7F3
:102EE0009DFFFFF78DFE02B0BDE88040FEF77CBD80
:102EF00080B500F0CFFF0A20BDE88040FFF792BE0A
:102F000040F22840C4F6000010210160704740F2F2
:102F10001840C4F60000102101607047FFF770FFF1
:102F2000FFF766FF6420FFF77DFE18A001F07AFD31
:102F30001CA0012100220123002501F0F5F8FFF774
:102F4000D7FFFFF7E4FF00F072FF00F032FB6420D0
:102F5000FFF768FEFFF7D4FFFFF74CFA48F234267C
:102F6000C2F2000614A400BF00F0E6FBFFF77AFAF5
:102F700030780128F8D13570FFF7C9FF00F019FB50
:102F8000204601F04FFDFFF7BBFFEDE70D0A4D6551
:102F9000736874617374696320736E6966666572C1
:102FA0000D00000048573D25642C46573D25642EF2
:102FB00025640D0A0000000052657374617274206C
:102FC000726164696F2E0D00B0B586B04C20C5F6F5
:102FD0000000016840F2004441F001010160016815
:102FE000C4F6000401F00101009100990168102568
:102FF00041F002010160016801F0020100910099B5
:10300000016841F004010160016801F004010091D0
:103010000099016841F0800101600068694600F094
:103020008000009000980120019000200490CDE9DC
:10303000020020460095FDF79BFDA56206B0B0BDDD
:103040002DE9F04190B00DF11C08064644F2004411
:1030500040462021C4F20004FDF7B1F801AF384624
:103060001821FDF7ACF85820C5F60000016B0025CB
:1030700021F00C010163016841F400310160006836
:10308000394600F400300F900F980220029007207C
:103090000690042001904FF09040CDE9035505952E
:1030A000FDF766FD01200590082001904FF090404B
:1030B0003946FDF75DFD0C20CDE90C052046414663
:1030C000CDE90756CDE909550B950E95FDF7ACFEF8
:1030D00044F20840C4F2000050E8001F21F06041B3
:1030E00040E80012002AF7D150E8001F21F060618B
:1030F00040E80012002AF7D1206820F0005020603C
:10310000606820F490406060A06820F02A00A06011
:10311000206840F001002060E0698002FCD5E06991
:103120004002F9D554E8000F40F0200044E80001C7
:103130000029F7D14EF20410CEF200002021C0F891
:103140008011016010B0BDE8F081000010B548F2B8
:10315000CC50C2F20000016848F2006048F25C32D4
:1031600048F20874C2F20000C2F20002C2F2000487
:103170005268236880E80E000121C1812321017378
:10318000002100BF4218117401311029FAD148F210
:10319000FE50C2F200002021017048F2592048F28E
:1031A0000061C2F20000C2F200012022FCF7E0FF41
:1031B000216802A0BDE8104000F0B6BF54583A2084
:1031C00025640D0A0000000048F23520C2F200001C
:1031D0000178012911BF47A00021017047A02DE906
:1031E000F04184B000F0A0FF48F24821C2F2000193
:1031F00091E83100FDF795F9804628460F46FDF726
:1032000090F9054620460E46FDF78BF9029044F6EC
:103210001D70C0F6000042463B46CDE900560391C2
:1032200000F082FF40F20025C2F20005296844F652
:10323000F060C0F6000000F077FF696844F609709E
:10324000C0F6000000F070FFA9682EA000F06CFF2F
:10325000287B410930A000F067FF287B00F00701C0
:1032600031A000F061FF697B33A000F05DFFE97BD6
:1032700037A000F059FF3BA000F056FF287B44F632
:1032800049740007C0F6000444F645762046C0F6AF
:10329000000658BF304601F0C5FB35A000F044FFE2
:1032A000287BC00658BF3446204601F0BBFB48F2DD
:1032B000C856C2F200063078A0F110012FA000F02D
:1032C00033FF307811280ED3103500272FA400BF0C
:1032D00015F8011B204600F027FF30780137F9B2BE
:1032E00010388842F4DC2BA004B0BDE8F04101F0B6
:1032F00099BB00BF5250434B3A2000004645525202
:103300003A2000005061636B65742049443A2030D4
:1033100078253038580D0A00486F70207374617238
:10332000743A2025640D0A00486F70206C696D693D
:10333000743A2025640D0A004368616E6E656C2046
:10334000686173683A203078253032580D0A0000E1
:1033500052656C6179206E6F64653A2025640D0AB0
:103360000000000057616E742061636B3A2000001A
:10337000566961204D5154543A2000005061796CD7
:103380006F61643A2025640D0A0000003078253012
:1033900032582C000D000000411E05290CD80FF2F8
:1033A0000C0000EB81020EA0DFE801F012030E1406
:1033B0000B1720A001F036BB7F2808D10CA001F02C
:1033C00031BB12A001F02EBB18A001F02BBB1DA039
:1033D00001F028BB11A001F025BB07A001F022BB22
:1033E000494E56414C494420434849500D00000085
:1033F000544F444F0D000000494E56414C49442063
:10340000504152414D455445520D0000494E5641E0
:103410004C4944204D4F44450D0000004E4F542070
:10342000535550504F525445440D00004255535986
:103430000D0000004E4F5420524553504F4E44490A
:103440004E470D00554E4B4E4F574E0D000000009D
:1034500080B548F24820C2F2000000F047F840F280
:103460000010C2F2000000F02AF8FFF7A5FBBDE84B
:103470008040FFF7A9BE80B5FDF735FF002080BD75
:103480007F2070477F20704780B548F25C3CC2F2D5
:10349000000C9CF80DE081F800E09CF80EE044F68A
:1034A0008E31C0F6000131F81E109CF80FE001804B
:1034B00082F800E09CF810100020197080BDB0B5B3
:1034C00082B048F2C855C2F2000504460DF107006B
:1034D0000DF106022946FDF7C8FE9DF806002A7880
:1034E0002146FEF79BF8002002B0B0BD70B582B057
:1034F00004460DF107000DF1060101AA0DF10303C9
:10350000FDF78EFE9DF80600FCF7E0FF4FF03F410F
:10351000FCF716FFBDF9045020602846FCF7CDFFEC
:1035200006466FF0FF0010FA85F0FCF7C6FF4FF07B
:103530007A51802DB8BF3046FCF702FF9DF803108A
:1035400060600846FCF7C2FF4FF03F41FCF7F8FE11
:1035500001460020A16002B070BD10B50446FDF721
:1035600078FEFCF7B3FF4FF03F41FCF7E9FE014660
:103570000020216010BD10B582B00446821C031DDE
:103580000DF107002146FDF78EFE00210020E180AD
:1035900002B010BDB0B5044640F61110FEF7A4F815
:1035A000054640F61210FEF79FF8411900202170E1
:1035B000B0BDB0B582B048F25C35C2F20005A86873
:1035C00044F6D351C1F26201A0FB0101880948F21F
:1035D0003821C2F20001086048F25421C2F2000111
:1035E0000860FEF7C7F8FDF7D9FF6420FFF71AFB64
:1035F0000120FEF703F90120FDF72EFF6420FFF7FD
:1036000011FBA87E30B1E87E41F28831FDF78FFED4
:10361000FDF7DEFD0120FDF713FFA868FCF75BFF57
:1036200048F28043C3F6EE730022FCF7BBFEFCF7C2
:103630005FFFFDF720FF00200021FDF760FE44F64C
:10364000843CA87BC0F6000C697BEA7B2B7C1CF8D1
:103650000000FDF7A7FEEA7D2B7EA88AA97D6C7E7F
:10366000002A18BF0122002B18BF0123002C18BF0D
:1036700001240094FDF7BCFEE97C4FF4E860FEF7FE
:103680006EF9A97C40F24170FEF769F90420FEF75B
:10369000B5F8FDF771FD0220FEF7B0F8A87E48B935
:1036A000297F40F61110FEF75AF9697F40F6121093
:1036B000FEF755F96420FFF7B5FAFDF789FDFDF730
:1036C00040FF0120FDF7E7FD4F200F2100220023DE
:1036D000FDF745FE0420FEF791F8002002B0B0BDD2
:1036E00048F25C304FF28863C2F20000C1F6D0139A
:1036F000836042F2B44340F2EE4240F60A3CC0F22C
:10370000100302800022C0F2081CC0F812304FF4EF
:1037100080334260C0F80CC00274C0F8163011B19A
:1037200002210122C17680B5827600F0E9FCFFF724
:1037300040FF002080BD00002DE9F04182B048F23A
:10374000FD50C2F20000017801290BD10021017067
:10375000FFF7FCFCFFF7DBFB48F25920C2F2000048
:1037600000F052F948F23F20C2F20000017801292E
:1037700009D100210170FFF7CAFBFFF769FEFFF7CF
:10378000BFFB00F0AFF848F24020C2F20000017821
:10379000012905D100210170FFF7B2FB00F0A2F86A
:1037A00048F2F050C2F200000178012962D10021F4
:1037B000017048F2FC50C2F20000007848F2F45761
:1037C00048F2382648F2E8580128C2F20007C2F24F
:1037D0000006C2F200081AD138683168D8F8002013
:1037E00008449042306005D348F2D050C2F2000045
:1037F00000683060032000F0E0F9306800F02BF939
:1038000048F20070C2F20000007800F06BFA48F253
:10381000F150C2F20000007801282BD101A8FFF777
:103820009CFE48F2B830019CC2F2000001682046BC
:10383000FCF727FE48B935682046FCF772FE0246C1
:103840000B461BA0294600F06FFC032000F0B5F9E1
:1038500038683168D8F8002008449042306005D3B9
:1038600048F2D050C2F200000068306000F0F3F877
:1038700000F038F848F2C950C2F20000017801297E
:1038800013D10021017048F25C30C2F200000088C0
:1038900040F2EE41884208D148F23E20C2F20000D8
:1038A0000078042801D1FDF767FF02B0BDE8F08180
:1038B000467265713D25642C525353493D252E3186
:1038C000662064426D0D0A000022B2EB104F1CBF4F
:1038D0000620704710B580B20C46FDF705FF20604A
:1038E000002010BD80B582B048F25C3CC2F2000CF2
:1038F0009CF816209CF81830BCF814009CF817109F
:103900009CF819C0002A18BF0122002B18BF012300
:10391000BCF1000F18BF4FF0010CCDF800C0FDF74F
:1039200067FD0420FDF76AFF002002B080BD2DE98D
:10393000F04381B00546002A4FF0060061D00F46E3
:10394000511916468F425CD34EF6612141F2A952BD
:10395000591ACFF6FF721C46914252D3DDF82080EF
:10396000002140464FF00009FCF799FD98B348F25A
:103970003820C2F20000016848F25422C2F200026C
:10398000116048F2D051C2F200010D6048F2E851D6
:10399000C2F200010F6048F2F451C2F200010E6061
:1039A00048F2B831C2F2000105602846C1F8008033
:1039B00000F051F848F2F850C2F20000046048F2FA
:1039C000EC50C2F20000046048F2F150C2F2000074
:1039D0000121017012E048F2F150C2F2000048F2F9
:1039E000542480F80090C2F20004206800F033F8FC
:1039F000206848F23821C2F200010860FFF772FF28
:103A0000002001B0BDE8F08370B582B048F25C34AC
:103A1000C2F2000448F2FE56A27DC2F20006237EE6
:103A20000546A08A3178647E002A18BF0122002B47
:103A300018BF0123002C18BF01240094FDF7D8FC07
:103A4000327800202946FDF727FF0520FDF7D6FE36
:103A5000002002B070BDB0B548F23821C2F20001BA
:103A600008604FF47A7148F25C354843C2F20005B1
:103A7000A86048F23E20C2F20000007848F25824C4
:103A8000C2F2000420700220FDF7B8FEA868FCF71F
:103A900022FD48F28043C3F6EE730022FCF782FC5D
:103AA000FCF726FDFDF7E7FC2078FDF7A7FE0020D8
:103AB000B0BD6FF0160151FA80F1E0293CBF06203D
:103AC0007047B0B5C4B248F23E20C2F200000078A0
:103AD00048F25825C2F2000528700220FDF78EFE3C
:103AE00048F25C30C2F200000473FDF72AFD28782A
:103AF000FDF784FE0020B0BD2DE9F0410E46012BFC
:103B00004FF0060156D81546042A53D8A0F2F512F4
:103B100012F5F77F4ED3A6F10D02D2B2F82A49D39F
:103B20001C46092801D200271FE00C2801D20127DA
:103B30001BE0112801D2022717E0162801D2032723
:103B400013E0212801D204270FE02B2801D20527FA
:103B50000BE0402801D2062707E07E2801D2072784
:103B600003E00927FB2838BF082748F25C30C2F27F
:103B7000000087734673C573047448F23E20C2F296
:103B80000000007848F25828C2F2000888F80000C7
:103B90000220FDF733FE44F68430C0F60000C15D1C
:103BA00030462A462346FDF7FDFB98F80000FDF756
:103BB00025FE00210846BDE8F08180B5FDF71EFE18
:103BC000002080BD2DE9F04782B0DDE90A67894613
:103BD00046EA0301394301293BD8044648F25C30E8
:103BE000C2F200004482A0F81490C2758375067674
:103BF000477648F23E20C2F20000007848F2582A88
:103C0000C2F2000A8AF8000002201D469046FDF725
:103C1000F5FD002D18BF0125002E18BF01264846CE
:103C200041462A463346002F18BF01270097FDF76B
:103C3000DFFB210A4FF4E860FDF791FEE1B240F2AC
:103C40004170FDF78CFE9AF80000FDF7D7FD0020CB
:103C500000E0062002B0BDE8F087B0B548F25C3461
:103C6000C2F20004A17E09B10420B0BD5E2884BF69
:103C70000620B0BD4108A0EB5000607748F23E201E
:103C8000C2F20000007848F25825C2F20005287000
:103C900002202177FDF7B2FD217F40F61110FDF7DC
:103CA0005EFE617F40F61210FDF759FE2878FDF7A1
:103CB000A5FD0020B0BD48F23D20C2F20000012168
:103CC000017048F20870C2F20000016048F244201E
:103CD000C2F200000022026048F2FD50C2F2000071
:103CE0000170704710B520B1044602280CD9062493
:103CF0001AE048F20070C2F2000000240470FFF7DE
:103D0000FFF8FFF7EFFD0FE00720012C18BF02249A
:103D100008BF0620FDF772FD48F20070C2F20000F5
:103D20000470FFF7F4F80024204610BDF0B581B010
:103D3000069E0625022E64D8002A62D01F4613185C
:103D400099425ED34EF6612341F2A054FB1ACFF69E
:103D5000FF74A34255D3CEB348F23823C2F2000316
:103D60001D6848F25424C2F20004256048F2D05580
:103D7000C2F20005286048F2E855C2F20005296049
:103D800048F2F451C2F200010A6048F20071C2F236
:103D900000010E701860FFF75EFEFFF7B8F83046BE
:103DA000FFF7A0FF054660BB48F2F850C2F20000E2
:103DB000076048F2EC50C2F20000076048F2FC5085
:103DC000C2F200000121002501701AE048F20070E3
:103DD000C2F200000025057048F2FC50C2F200005B
:103DE000057048F25420C2F20000006848F2382101
:103DF000C2F200010860FFF72EFEFFF781F8FFF71F
:103E000071FD284601B0F0BD02460020B0EB124F14
:103E10004FF006000AD1FF2988BF704780B590B2E5
:103E2000C9B2FDF79CFD0020BDE88040704780B519
:103E300048F25C304FF60001C2F20000C0F601010A
:103E40005C22FCF795F980BD70B5144605460E4618
:103E500000B9256828463146FCF7CDF9295C61B1E7
:103E6000054428463146FCF7D4F9295C284411B1B1
:103E7000002100F8011B206000E00025284670BDED
:103E800040F29040C5F60000016841F40041016035
:103E900070470000F0B587B0012002900020CDE906
:103EA0000400032001AC40F21845402603904FF077
:103EB00090402146C5F600050196FCF759FE802783
:103EC0004FF0904021460197FCF752FE2820C4F69F
:103ED000000006600760A86F40F40040A8674FF636
:103EE0007C40CFF6FF70295821F40041295000BFD3
:103EF00029584904FCD440F69000C5F6000001683A
:103F000041F4805101604FF400602860FDF7D8F85B
:103F10004EF23240CEF20000002101704EF2041049
:103F2000CEF200004FF48021C0F88011016007B08C
:103F3000F0BD000010B59424C5F60004206840F4DC
:103F4000004020603220FEF789FE206820F4004007
:103F5000206000BF20684004FCD41420BDE810405D
:103F6000FEF77CBE1820C4F60000402101618021CC
:103F7000016070471820C4F60000402101608021D4
:103F80000161704740F29040C5F60000016821F4DD
:103F900000410160704700000821C5F6010100BF23
:103FA0000A689207FCD5087108680006FCD400BFB7
:103FB0000868C007FCD008797047000048F23D202F
:103FC000C2F200000178012932D148F24422C2F243
:103FD0000002116848F22C2301311160C2F2000383
:103FE00011681B68994223D30021116048F20872BE
:103FF000C2F2000213680133136048F20473C2F284
:10400000000312681B689A420CD980B548F2FD5231
:10401000C2F200021170017020A000F003FDBDE8A3
:10402000804005E048F2FD50C2F20000012101701D
:1040300048F2FC50C2F20000007830B948F2F1506A
:10404000C2F200000078012814D148F2EC50C2F20C
:104050000000016801390160016859B948F2F8515E
:10406000C2F200010968016048F2F050C2F200009B
:104070000121017048F23020C2F2000001680139CC
:104080000160016801B1704748F23421C2F20001B9
:1040900001220A704EF660210160704754583A20A0
:1040A000444F4E450D000000F0B581B0044652B1BA
:1040B00000F04AF8054600202860694620460022A4
:1040C000FCF7CDF80CE0CF0000F03EF800260546E6
:1040D0000660694620460022FCF7F9F8F8400CD14A
:1040E000286808B1002608E00098051B2046FCF768
:1040F0007BF8281AB0FA80F04609304601B0F0BDCE
:1041000010B54FF60004C0F601042046FEF7C0FDCE
:1041100048F25C31C2F2000120464FF40062FEF723
:10412000F1FD002010BD00000FB4054B10B503A930
:10413000044A029800F0DEF810BC5DF814FB0000A1
:10414000DD2D00080080002000487047048000201A
:1041500002E008C8121F08C1002AFAD17047704750
:10416000002001E001C1121F002AFBD170470000AE
:104170002DE9FF5F82B00021DDE90430020DDDF89A
:1041800040B0034318D044F61050A2F2FF3242432D
:104190001514119801281FD0A5EB0B00401C5FEAF5
:1041A000000A4FF000064E4FDFF83891B0465046F7
:1041B00015D5CAF1000413E0119801244AA301287F
:1041C00001D16FEA0B010298119AC0E90031C0E9F0
:1041D000024206B0BDE8F09FCBF10000DFE70446E5
:1041E0000021404A491842EB0450CDE9001012E08A
:1041F000E00707D032463B4640464946FCF790FB75
:104200008046894632463B4610461946FCF788FBF5
:1042100006460F466410002CEAD1DDE90401DDE911
:104220000023BAF1000F06DAFCF77AFB42464B4650
:10423000FCF776FB05E0FCF7B5F842464B46FCF789
:10424000B1F804460E460022284BFCF7F3FB03D8D6
:104250004FF0FF30014607E00022254B2046314653
:10426000FCF7B7FAFCF7CEFB102409E0002C0ADBC0
:104270000A220023FCF77EF9039B30321A55641E94
:1042800050EA0102F2D1641C039AC4F111031444F0
:10429000119A012A03D0012208430DD10AE00843F4
:1042A00004D000204FF0110B119072E7A3EB0B0527
:1042B0006D1E0DE05B4504DD4FF0000205F10105C8
:1042C00004E003DA4FF00002A5F10105002AECD06A
:1042D00002981199C0E90231C0E9004579E7000070
:1042E000000014400000F03F300000000000F043E8
:1042F0000000E03F2DE9FF4F95B09B4689460646FA
:1043000000250FE2252877D100242746F84A01210D
:10431000059400E0044316F8013F203B01FA03F046
:104320001042F7D130782A2811D06FF02F0330785F
:10433000A0F13002092A16D8059A44F0020402EBD3
:10434000820203EB42021044761C0590EFE759F815
:10435000042B0592002A03DA504244F400540590DD
:1043600044F00204761C30782E2816D116F8010F7E
:1043700044F004042A280DD06FF02F023078A0F109
:104380003003092B09D807EB870302EB4303C71857
:10439000761CF3E759F8047B761C30786C280FD034
:1043A00006DC4C2817D068280DD06A2814D104E008
:1043B000742810D07A280FD10DE044F400140AE0DC
:1043C00044F4801401E044F440147278824202D133
:1043D00004F58014761C761C307866280BD013DC2C
:1043E000582877D009DC002875D04528F6D0462813
:1043F000F4D047281AD19DE118E0632835D064280D
:1044000079D0652812D195E1702873D008DC67282F
:10441000F1D069286FD06E280DD06F2806D1B5E095
:1044200073282CD0752875D0782874D05A461799DF
:1044300090476D1C75E1C4F30250022809D003288F
:104440000DD0D9F8001004280DD00D6009F1040931
:1044500067E1D9F80010EA17C1E90052F6E7D9F888
:1044600000100D80F2E70D70F0E719F8041B8DF8CD
:10447000001000208DF80100EA46012003E059F801
:1044800004AB4FF0FF3061074FF0000102D40DE0A4
:1044900008F101018846B9420FDA8045F8DB1AF8C5
:1044A00008100029F4D108E008F101018846814292
:1044B000FADB1AF808100029F6D105985B46A0EB44
:1044C000080721463846179A00F094FA284400EB72
:1044D000080507E04DE029E10DE01AF8010B5A4606
:1044E00017999047B8F10108F7D25B462146384644
:1044F000179A13E142E00A220092C4F302524FF0ED
:10450000000A022A08D059F804CB032A4FEAEC71BA
:104510000AD00DE029E02AE009F1070121F00702A5
:10452000F2E802C1914609E00FFA8CFC4FEAEC7107
:10453000042A03D14FFA8CFC4FEAEC71002907DA08
:104540000A460021DCF1000C61EB02012D2202E0A1
:10455000220504D52B228DF80420012203E0E20776
:1045600001D02022F7E7904659E00A2102E010220C
:104570000DE010214FF0000A00910BE010224FF0E7
:10458000000A44F004040827009203E008224FF0D8
:10459000000A0092C4F30252022A05D059F804CB53
:1045A0000021032A08D009E009F1070121F00702E0
:1045B000F2E802C1914605E01FFA8CFC042A01D101
:1045C0000CF0FF0C4FF00008220728D5702806D009
:1045D000009B83F0100353EA0A0305D00EE040224B
:1045E0008DF80420012208E05CEA010206D03022A6
:1045F0008DF804208DF8050002229046009B83F080
:10460000080353EA0A030AD15CEA010201D16207F6
:1046100005D530228DF804204FF001087F1E582860
:1046200004D034A003900EA802900DE036A0F9E764
:1046300053466046009AFBF79DFF84460398825CD0
:104640000298401E029002705CEA0100F0D10298CC
:1046500006A9081A00F1200A600702D524F4803464
:1046600000E00127574502DDA7EB0A0000E000202B
:1046700000EB0A01009005984144401A0590E003C0
:1046800006D45B462146179A059800F0B3F9054415
:10469000002706E001A85A46C05D179990476D1C97
:1046A0007F1C4745F6DBE0030CD55B462146179A95
:1046B000059800F09FF9054404E030205A46179908
:1046C00090476D1C0099481E00900029F5DC08E019
:1046D000029802995A460078491C0291179990470E
:1046E0006D1CBAF10001AAF1010AF1DC65E10000DC
:1046F00009280100303132333435363738396162B8
:10470000636465660000000030313233343536377B
:1047100038394142434445460000000000F058F952
:104720000544761C307800287FF4ECAD19B028469B
:10473000BDE8F08F620700D4062709F1070222F0D6
:10474000070CFCE80223E14603F000485FEA080C8E
:1047500002D00FF2702C0DE05FEA045C02D50FF27C
:10476000682C07E05FEAC47C02D00FF2602C01E005
:10477000AFF2700C4FF0FF3823F00043CDF850C07B
:1047800065280CD006DC452809D046281DD04728CE
:104790003DD13DE0662818D067287ED138E0002161
:1047A000112F01DB112000E0781CCDE9000106A9E2
:1047B0000EA8FFF7DDFCDDE90F010E9A0391002141
:1047C000009207F1010A04914DE04FF0004000977C
:1047D000CDE9011006A90EA8FFF7CAFCDDE90F021A
:1047E00003920E9B11990022DDF80CA00093049215
:1047F00011B9791C00EB010AB7EB0A0004D4C0F12F
:10480000FF3007F1010A0490AAEB0700019044E091
:10481000012F00DA01270021112F01DD112000E016
:104820003846CDE9000106A90EA8FFF7A1FCDDE995
:104830000F010E9A0391002104910092BA462107BC
:104840000CD40399514500DA8A46BAF1010F05DD0F
:10485000009AAAF10101515C302908D0B84202DA6D
:1048600010F1040F06DA0121CDE9011015E0AAF1DB
:104870000101E9E7002805DC049901440491AAEB51
:10488000000102E0411C514500DD8A460499401AAE
:10489000401C01904FF000400290200704D4019882
:1048A000504501DBCDF8048000208DF84F000298C0
:1048B0000DF14F07B0F1004F25D02B200E9002983C
:1048C0004FF0020800280CDA404202902D200E9092
:1048D00007E00A210298FBF737FE3031029007F813
:1048E000011DB8F10001A8F10108F2DC02980028CE
:1048F000EFD1791E0E980870307800F0200040F05B
:10490000450007F8020D12A8C01B00F10708149813
:10491000007800B1012000EB0A01019801EBE07181
:1049200005984144401A401E0590E00306D45B46BA
:104930002146179A059800F05DF805441498007810
:1049400018B15A46179990476D1CE00324D55B4671
:104950002146179A059800F04DF805441CE004988C
:10496000002807DBDDE90301884203DD0098405C95
:10497000179901E0179930205A469047049805F19D
:104980000105401C04900198401E019004D12E2086
:104990005A46179990476D1CBAF10001AAF1010A15
:1049A000DDDC05E017F8010B5A46179990476D1C9E
:1049B000B8F10001A8F10108F4DC5B462146179A22
:1049C0000598ABE62D0000002B0000002000000041
:1049D0002DE9F041044600251E461746880404D4FC
:1049E00005E039462020B0476D1C641EF9D52846E5
:1049F000BDE8F0812DE9F041044600251E469046B1
:104A0000C80301D5302700E02027880404D505E03D
:104A100041463846B0476D1C641EF9D52846BDE8AE
:104A2000F081000010B5044601E0FEF7D7F914F854
:104A3000010B04490028F8D1BDE810400A20FEF718
:104A4000CDB9000000800020004040404040404080
:104A50004040414141414140404040404040404051
:104A600040404040404040404005020202020202F5
:104A70000202020202020202022020202020202044
:104A80002020200202020202020290909090909058
:104A90001010101010101010101010101010101016
:104AA000101010100202020202028888888888888A
:104AB0000808080808080808080808080808080876
:104AC000080808080202020240000000494A0008E3
:104AD000ED4B0008BF4B0008C44B0008C94B000851
:104AE000CE4B00080100000003000000050000009C
:104AF0000100000001000000060000000A000000A4
:104B00002000000002000000040000000800000077
:104B100010000000400000008000000000010000C4
:104B20000002000000000000000000000000000083
:104B3000000000000100000002000000030000006F
:104B400004000000A0860100400D0300801A06004A
:104B500000350C0040420F0080841E0000093D001B
:104B600000127A000024F40000366E010048E801CB
:104B7000006CDC02000000000000000000000000EB
:104B80000000000000080109020A030405060700EE
:104B90000A000F0014001F0029003E007D00FA00EB
:104BA000F401307825582C307825580D0A000D0A6C
:104BB00042573D25750D0A53463D25640D0A0034C4
:104BC0005F350D00345F360D00345F370D00345F04
:104BD000380D00494E56414C49440D00494E56414E
:104BE0004C494420434F4D4D414E440D004F4646E5
:104BF0000D004F4B0D004F4E0D0053544F500D0004
:104C0000544F4F204D414E5920415247554D454E2E
:104C100054530D00494D504C494349540D004558DB
:104C2000504C494349540D00494E56414C4944208B
:104C3000415247554D454E540D0053544152540D69
:104C4000004352433A00494E5645525449513A00A6
:104C500043523A004C44524F50543A004765742036
:104C60004350552049440047657420646576696364
:104C700065204944004745545F5549440047455421
:104C80005F4445564944005345545F4445564944A2
:104C9000005345545F4F504D4F44450052454144E9
:104CA0005F5245470057524954455F5245470053AC
:104CB000544F52455F434F4E46494700494E495471
:104CC0005F434F4E464947004745545F525353494F
:104CD0000054585F53545245414D004745545F5866
:104CE0004F5452494D005345545F584F5452494D0B
:104CF000004745545F56455253494F4E004745546F
:104D00005F43484950004745545F46524551005360
:104D100045545F46524551004745545F504F5745F3
:104D200052005345545F504F5745520044554D5023
:104D30005F52454753004745545F4D4F44504152E1
:104D4000414D53005345545F4D4F44504152414DE6
:104D500053004745545F5041434B455450415241E5
:104D60004D53005345545F5041434B4554504152BD
:104D7000414D5300434C525F5354415453004745F7
:104D8000545F5354415453004745545F5354415466
:104D9000555300524553455400524144494F5F49D1
:104DA0004E4954004745545F5654005357454550AB
:104DB0005F52580053574545505F54580053544F65
:104DC000505F54580053544152545F545800476543
:104DD00074204144432064617461005374617274AF
:104DE0002F73746F702054582073747265616D0056
:104DF0005258207363616E004765742048572F46F0
:104E0000572076657273696F6E005458207377650A
:104E1000657000476574206672657175656E6379AB
:104E20002073657474696E677300536574206672CD
:104E3000657175656E63792073657474696E6773E7
:104E400000476574204C6F5261206D6F64756C6112
:104E500074696F6E20706172616D65746572730044
:104E6000536574204C6F5261206D6F64756C617472
:104E7000696F6E20706172616D6574657273004751
:104E80006574204C6F5261207061636B6574207093
:104E90006172616D657465727300536574204C6F47
:104EA0005261207061636B657420706172616D6521
:104EB0007465727300446576696365207265736515
:104EC000740053746F70207061636B657420627539
:104ED000727374005374617274207061636B6574D3
:104EE0002062757273740076007777777777770032
:104EF00044657374696E6174696F6E2049443A2029
:104F00003078253038580D0A0053656E646572207C
:104F100049443A203078253038580D0A005253530E
:104F2000495F504B543D252E31662C525353495FF7
:104F30005349474E3D252E31662C534E523D252E6A
:104F400031660D0A004E6F0D005965730D00753DF9
:104F500075696E74382C20763D75696E7431362C07
:104F600020773D75696E7433322C20733D696E7401
:104F700033322C20623D737472696E672C203F3D82
:104F8000416E797468696E672C202A3D30206F72FB
:104F9000206D6F7265206F662070726576696F751F
:104FA000730D003A0A0D2000D84F00080080002041
:104FB00034020000F20A0008D84F00080000002068
:104FC00000070000604100081051000834820020F2
:104FD000D8040000604100089113093D13934D145B
:104FE00008EF4E14080D251B08B5084B754C10131F
:104FF000C9231B085C0C5AF1101A41101AF82C5ADC
:105000007D1013B9201B08670C1A87041AEE101ABA
:10501000994029105A06501ADD201A13081A0F1049
:1050200029201AD1201A2A085A18204B7122085A0E
:1050300022204BBD28105ADB601A857029085AE6D9
:10504000604B0D29105AC8201A116029085A88503F
:105050005AF1506A36D01A21B419081A44101AEBC2
:10506000081339261B0860085A52201AB5201A7FE7
:10507000081A63101AE908135D271B089A081AC555
:10508000101AEC081A29B02AD49859301A55802AD7
:10509000C2C819801AE7081B052BAC191C5A7E20C0
:1050A0005A99805A74104B811F085AA4101A6DD057
:1050B0001ACE0C5A9CD04BC924181AA5101AED0808
:1050C0001A695029101A2C2429105AB5405ABC20AC
:1050D0005A15301AAF1029081A9D9029085AFD1048
:1050E0005B59208859705A91305A91701A11E029F1
:1050F000101AB4202AEA90122A1B080A085AAB1088
:105100001AD5501AF00C011032642360EA00000036
:0400000508000139B5
:00000001FF
