:020000040800F2
:1000000050270020E9000008130B0008B90A000877
:10001000110B0008B50A00081919000800000000BB
:10002000000000000000000000000000150D0008A6
:10003000FD00000800000000370C0008CD16000885
:100040000301000803010008030100080301000880
:100050000301000803010008CD170008D1170008AC
:100060000301000803010008030100080301000860
:100070000301000803010008030100080301000850
:10008000490A0008030100080301000803010008F1
:1000900003010008DD0A0008030100089D1700089D
:1000A0000301000803010008030100080301000820
:1000B0000301000803010008030100080301000810
:1000C0000301000803010008350C000803010008C3
:1000D00003010008DFF80CD000F062FC0048004784
:1000E000E1420008502700200648804706480047A4
:1000F000FEE7FEE7FEE7FEE7FEE7FEE7FEE7FEE7D8
:10010000FEE7FEE75D170008D500000810B5431AAA
:10011000934209D28318881803E010F8011D03F8F0
:10012000011D521EF9D210BD40EA01039B0703D006
:1001300009E008C9121F08C0042AFAD203E011F826
:10014000013B00F8013B521EF9D210BDCAB2401E5D
:1001500010F8011F8A4202D00029F9D1002070470F
:10016000421C10F8011B0029FBD1801A704730B5E2
:1001700003461D783DB10A4612F8014B1CB1AC4252
:10018000FAD15B1CF5E7181A30BD30B505460020E2
:1001900008E00A4602E0A34207D0521C1378002B65
:1001A000F9D1401C2C5C002CF3D130BD2DE9F0417D
:1001B0000E460546002400E0641C285D00F0D6FAD7
:1001C0000746305D00F0D2FA381A02D1295D0029C5
:1001D000F2D1BDE8F0812DE9F04791460F46804607
:1001E0000446002614F8015B2DB100F0BBFA00684C
:1001F000405DC007F6D12B2D02D02D2D18D0641EE6
:100200004A463946204600F0B7FA27B13968A1427C
:1002100001D1C7F8008071054FF002040BD54042B0
:10022000002803DD05F0D2F80460A007BDE8F087E0
:1002300046F48066E4E70028F8DA05F0C7F80460C1
:100240006FF00040F2E72DE9F05F93460F468046DD
:100250000446002605F0BAF8D0F80090824614F85B
:10026000015B2DB100F07EFA0068405DC007F6D159
:100270002B2D02D02D2D1AD0641E0021CAF800109B
:100280005A463946204600F077FA014627B13868C9
:10029000A04201D1C7F80080DAF80000022809D096
:1002A000CAF80090700505D54842BDE8F09F46F4B5
:1002B0008066E2E70846F8E72DE9FE4F804681EACE
:1002C0000300C00F0C46009021F0004123F00045D0
:1002D000B8EB0200A94105D24046214690461C4693
:1002E0000B46024623F00040104347D0270DC7F3CA
:1002F0000A00C3F30A510290401A019040286BDAB9
:10030000C3F3130040F4801B0098924620B10023F1
:10031000D2EB030A63EB0B0B01985946C0F1400284
:10032000504600F0EDF906460D4650465946019AF2
:1003300000F005FA10EB08006141002487EA115231
:1003400084EAE7731A4340D0009A62B3019A012A03
:100350004FEA075215DC001B61EB02014FF000422F
:1003600002EA0752CDE90042001C41F580113246F5
:100370002B4600F096FA03B0BDE8F08F40462146C8
:10038000F9E7001B61EB0201001C41F58013001826
:100390005B412018A2F5001747EB030140EAD57036
:1003A000B6196D4111E06D084FEA360645EAC07591
:1003B0004FEA0752001B61EB0201001C41F580115E
:1003C00049084FEA30000019514132462B4603B02C
:1003D000BDE8F04F00F056BA00980122400000231B
:1003E000D0EB020263EBE073009821464FEAE07421
:1003F000B8EB000061EB0401E9E783F000435BE741
:1004000081F0004158E72DE9FE4F81EA030404F032
:10041000004421F0004100944FF0000B23F0004312
:1004200050EA01045ED052EA03045BD0C3F30A54DD
:10043000C1F30A552C44A4F2F3340194A0FB0254F6
:10044000C1F3130141F48011C3F3130343F4801388
:1004500001FB024400FB034E840A970A44EA8154DC
:1004600047EA8357A4FB076802958D0A05FB0785B9
:100470004FEA932C04FB0C542705029D4FEA0658C3
:1004800047EA1637B5EB08056EEB070C870E920EA0
:1004900047EA811742EA8312A7FB0201B6EB0B0180
:1004A00064EB00042B0D43EA0C335E1844EB1C5044
:1004B000DA465146E7FB0201C5F313044FEA0B335A
:1004C00043EA14534FEA0432019C43EA0603A4F1C1
:1004D0000C040294009CCDE900B400F0E2F903B0F2
:1004E000BDE8F08F00200146F9E72DE9F04D81EAE3
:1004F000030404F0004B21F0004514464FF0000ABD
:1005000023F0004150EA050220D054EA01021DD038
:10051000C5F30A570246C5F31303C1F31300C1F331
:100520000A5640F4801543F48013A7EB0608101B0D
:10053000D64608F2FD3873EB050002D308F1010836
:1005400001E092185B41B8F1000F03DA0020014688
:10055000BDE8F08D00204FF48011064684460EE081
:10056000171B73EB050705D3121B63EB050306434B
:100570004CEA010C49084FEA300092185B4150EAFE
:100580000107EDD152EA030012D082EA040083EAA7
:100590000501084305D0101BAB4106D20122002300
:1005A00006E000224FF0004302E06FF0010253101A
:1005B0001AEB06004CEB085110EB0A0041EB0B0163
:1005C000BDE8F04D00F05EB90EB540F23341029146
:1005D0000021CDE900110A460B4600F062F903B094
:1005E00000BDC1F30A5210B5C1F3130140F2FF334D
:1005F00041F480119A4201DA002010BD40F23343E9
:100600009A42A2F2334203DC524200F088F810BD55
:10061000904010BD00F0004230F000400AD0C10D03
:1006200001F56071C0F3160042EA0151C2084007AB
:100630001143704700200146704701F0004330B479
:1006400021F0004150EA010206D00A0DA2F56072C5
:10065000C1F31301002A02DC30BC00207047440FB4
:1006600044EAC104C100E01830BC00EBC25000F005
:10067000D2B830B50B46014600202022012409E003
:1006800021FA02F59D4205D303FA02F5491B04FA4B
:1006900002F52844151EA2F10102F1DC30BD2DE95E
:1006A000F05F0546002092469B46884606468146F6
:1006B00040241BE0284641464746224600F02FF8DA
:1006C00053465A46C01A914110D311461846224645
:1006D00000F016F82D1A67EB01084F46224601205C
:1006E000002100F00DF817EB00094E41201EA4F187
:1006F0000104DFDC484631462A464346BDE8F09F08
:10070000202A04DB203A00FA02F1002070479140D1
:10071000C2F1200320FA03F3194390407047202AC6
:1007200004DB203A21FA02F00021704721FA02F39B
:10073000D040C2F120029140084319467047202A58
:1007400006DBCB17203A41FA02F043EAE07306E0F9
:1007500041FA02F3D040C2F1200291400843194609
:100760007047000000487047505D0008A0F141014B
:10077000192900D8203070472DE9F05F82460078B3
:10078000002715468B460AF10104B946302801D0EE
:100790009DB113E014F8010B0127782803D05828E5
:1007A00001D045B10AE00DB1102D07D10027102569
:1007B00014F8010B02E0082500E00A250026B046E7
:1007C0000EE005FB080005FB06F1012701EB1046D2
:1007D0001FFA80F8B6F5803F00D3B94614F8010B34
:1007E000294600F0F5F80028EBDABBF1000F05D040
:1007F0000FB1641E00E05446CBF80040B9F1000F81
:1008000006D004F0E3FD02210160C81EBDE8F09FA0
:1008100048EA0640FAE70029A8BF7047401C490093
:1008200008BF20F00100704710B4B0FA80FC00FA55
:100830000CF050EA010404BF10BC704749B1CCF180
:10084000200421FA04F411FA0CF118BF012121430C
:100850000843A3EB0C01CB1D4FEA00614FEA1020C7
:1008600042BF002010BC704700EBC3501044002969
:10087000A4BF10BC7047401C490008BF20F0010015
:1008800010BC704710B5141E73F1000408DA401C48
:1008900041F1000192185B411A4301D120F001009F
:1008A00010BD2DE9F04D92469B4611B1B1FA81F28F
:1008B00002E0B0FA80F220329046FFF721FF0446B2
:1008C0000F4640EA0A0041EA0B0153465A460843E4
:1008D00013D0114653EA010019D0C8F14002504626
:1008E000FFF71DFF05460E46504659464246FFF7A4
:1008F00007FF084305D0012004E020463946BDE843
:10090000F08D0020054346EAE0762C4337430A98F1
:100910006305E40AA0EB08000022FD0A44EA4754FC
:100920000A3002D500200146E9E7010510196941A6
:10093000DDE9084500196941BDE8F04DA2E7C1F3C2
:100940000A52C1F3130140F2FF3341F480119A427D
:1009500002DA00200146704740F233439A42A2F285
:10096000334202DC5242FFF7DABEFFF7C9BE000095
:1009700030B5041E71F1000404DB4FF00044404226
:1009800064EB0101141E73F1000405DB1C464FF0FB
:100990000043524263EB0403994208BF904230BDCA
:1009A0001CB509480090094801900546009C06E0E6
:1009B000E06840F0010394E8070098471034AC4227
:1009C000F6D3FFF78BFB00001069000830690008C0
:1009D0003A2800D2303820F02002412A01D3A2F177
:1009E0003700884201D34FF0FF30704770B58C1844
:1009F00010F8015B15F0070301D110F8013B2A1133
:100A000006D110F8012B03E010F8016B01F8016B1F
:100A10005B1EF9D12B0705D40023521E0DD401F81B
:100A2000013BFAE710F8013BCB1A921C03E013F8E4
:100A3000015B01F8015B521EF9D5A142D8D3002019
:100A400070BD000000000000F8B5012001F04EF874
:100A500038B3012000F082FF01F040F8FFF7B4FD49
:100A60009FED110B53EC102BFFF7CDFC104F0446FC
:100A70000D46D7E90060FFF7CDFD02460B46204644
:100A80002946FFF7BAFC044630460D46FFF7C2FD83
:100A900002460B4620462946FFF727FDFFF7CDFD0E
:100AA000B860F8BD00BF00BF0000000000C0D23F2A
:100AB000700A0020FEE7000003A005F0F5F86420AE
:100AC00003F0CEF800F02AFF486172642046617599
:100AD0006C74206F63637572730D000010B500F0C5
:100AE0009BF9044647F6FF7000F03AF9E00702D0A0
:100AF000064801214171A00702D504480121C170B7
:100B0000600602D501480121017110BD7C0A002058
:100B1000FEE7704748680C4601F0F4B80A600A68BE
:100B2000104308607047012202FA01F102680A438B
:100B3000026082687047016821F00101016001686C
:100B400041F008010160704710430860704720467B
:100B5000132103F075BA14460D46064600F0D8BBC3
:100B60004FEA400ACD004FEA021900276FF07E0BD2
:100B70005FFA8AF408EB0213A3F500767047054686
:100B8000A06801F0BFB8012202FA01F102688A43AD
:100B9000026082688A43826042688A434260826956
:100BA00070474068C84000F0010070479DF80000A1
:100BB0009DF801109DF802209DF8033038703170C7
:100BC000704709EB080000276FF07E08A0F5FC765F
:100BD0004AF00100C4B27047486801F093B8A069B8
:100BE0009843A061A0689843A060206870470122E4
:100BF00002FA01F1416070478DF80600200C8DF873
:100C000005007047C1B2204600F0E4BD90F84010E6
:100C1000204604F0CBBB0A438260C2680A43C2602C
:100C200002697047012200F001BD142004221C4615
:100C300000F05CBC7047704780B54FF47A71484350
:100C4000FFF7C2FC9FED060B53EC102BFFF74DFC9A
:100C5000FFF7C7FCBDE8804000F0C9BA00BF00BF85
:100C6000000000008084EE3F70B50F490F4D5E28F4
:100C70000978297028BF5E20B449A0EB50064408CB
:100C80000220CE718C7100F07BFC40F611102146E1
:100C900000F0EEFCF1B240F6121000F0E9FC28780A
:100CA000BDE8704000F06CBC901C0020911C00203E
:100CB00010B5174C207808B900F018F860680128C2
:100CC000BCBF4FF0FF3010BDA0680749085CA168A9
:100CD0000131A160A168B1F5007F04BF0021A160CE
:100CE00061680139616010BD2C1D002080B5074886
:100CF00000214FF4806200234FF0FF304FF4E130C9
:100D000003F0B8FB02480121017080BD0000002003
:100D1000600A0020704700008C480A494FF47F7237
:100D2000C068B0FBF1F1B1F57F7F28BF114688089C
:100D300001EB5101B1F57F7F38BF0A46910800F001
:100D400003B800BF40420F00E0B58DF807108DF8E2
:100D500006000DF106019820022200F067FC8CBD10
:100D6000E0B540BA0DF106010222ADF806000220FE
:100D700000F05CFC8CBD0000F0B587B000200025C1
:100D800000F020FA0020802100F0A2F86F4CA36B45
:100D900094F8352094F83410206B00F03DF9A08FC2
:100DA00094F83E1094F83F2094F8483094F84B6043
:100DB00094F84C7094F84DC094F852E08DE8C0500F
:100DC00000F060F905A8082D05D0611991F84010D0
:100DD00041550135F7E705A800F084F994F849007A
:100DE00094F84A1000F0DFF8B4F85420B4F850102A
:100DF000B4F84E0000F0E6F8002007B0F0BD00BFE8
:100E0000F8B515460E4607466946FFF70EFFFFF791
:100E1000CDFE2A702370F8BDE0B50DF1050112205A
:100E2000032200F063FBBDF8060000BA000C8CBD85
:100E3000F8B515460E4607466946FFF7F6FEFFF77A
:100E4000B5FE2A802370F8BDE0B50DF1060115202E
:100E5000022200F04BFB9DF807008CBDE0B50DF1C0
:100E60000701C020012200F041FB9DF807008CBD66
:100E70009421002840F6AC0018BF962100F0F8BB82
:100E8000BCB5012000F09EF90020802100F020F880
:100E90002E4CA07EE17E227F00F032F994F826509D
:100EA000E08B94F8201094F8242094F825300095D5
:100EB00000F04FF994F823104FF4E86000F0D8FBED
:100EC00094F8221040F2417000F0D2FB0020BCBD2B
:100ED000E0B58DF807108DF806000DF106018F20A2
:100EE000022200F0A3FB8CBD80B500F047FBD120AF
:100EF00000210022BDE8804000F098BB0000000007
:100F000010B51148F749B0F90000D1E9031202FB0E
:100F100000142046FFF758FB9FED090B53EC102BF4
:100F2000FFF7E3FAFFF75DFB00F061F94FF47A7029
:100F30000749B4FBF0F0086010BD00BF00BF00BF60
:100F4000000000008084EE3F3C0B0020941C002039
:100F5000A40A0020E0B58DF807000DF107019D20DF
:100F6000FFF760FE8CBDE0B58DF80520120A8DF804
:100F70000310090A8DF80100000A8DF807301B0ADA
:100F80008DF804208DF802108DF8000069460820C5
:100F900008228DF8063000F049FB8CBDC1200021ED
:100FA000002200F043BB10B50C46014640F2CD6074
:100FB00000F05EFB40F2CE602146BDE8104000F03C
:100FC00057BB0000F8B5134F0D460646010A40F224
:100FD000BC601446B847F1B240F2BD60B847290A78
:100FE00040F2BE60B847E9B240F2BF60B8474FF484
:100FF000D76000F097FAC4F3002100F0FE0001442E
:101000004FF4D760B847E1B240F2B9603A46BDE864
:10101000F8401047711600081CB58DF803101849E8
:101020008DF804206FF07F44B1FBF0F2A24228BF9C
:101030002246884288BF01228DF80220100A8DF8CE
:101040000100100C8DF8000043F60950B3FBF0F1DD
:1010500001FB103241F6846343EA8232B2FBF0F0C6
:1010600000EB81306946A04238BF04468DF8074046
:10107000200A0822FFF7C0FD8B2000F0D7FA1CBD24
:101080000000093D1FB5099C022B8DF80F40089CFC
:101090008DF80E40079C8DF80D40069C8DF80C4095
:1010A00028BF02238DF80B30402A28BF40228DF83C
:1010B0000A204A1E072928BF0721D2B2032A38BFB7
:1010C00004218DF80910012898BF01208DF808002F
:1010D0000DF10701000A09228DF807008C2000F0AD
:1010E000A5FA1FBDB0B504460025082D08BFB0BD48
:1010F00045F4D860615D80B200F0BAFA0135F4E7DA
:101100001CB50C4600218DF806200A2888BF012155
:101110008DF80710052898BF05200C2828BF0C2043
:101120008DF804008DF8054001A98B20042200F001
:101130007DFA063C40F6890018BF012400F0F2F960
:1011400000F0FB0040EA840140F6890000F090FACC
:101150001CBD1CB58DF804108DF806308DF80520E7
:10116000012898BF01208DF80300049C0DF10201B5
:10117000000A06228DF802008C208DF8074000F04E
:1011800055FA40F2367000F0CDF900F0FB0140F264
:101190003670002C08BF043100F06AFA1CBDE0B5BF
:1011A00001238DF806208DF804008DF807300729FB
:1011B00028BF07218DF8051001A99520042200F011
:1011C00035FA8CBDE0B58DF807000DF107018A20D6
:1011D000FFF728FD8CBDE0B5002818BF01208DF871
:1011E00007000DF107019620FFF71CFD8CBDE0B54F
:1011F00000BA0422019001A9862000F017FA8CBDE4
:101200001CB56FF07F44A04238BF044600F0B4F92B
:10121000200A0DF1050103228DF80740FFF7ECFCD1
:10122000822000F003FA1CBDE0B561F382000DF1ED
:10123000070101228DF80700842000F0F7F98CBD2A
:10124000E0B5002818BF01208DF807000DF1070157
:101250008020FFF7E7FC8CBD1CB56FF07F44A042F7
:1012600038BF044600F08AF9200A0DF10501032277
:101270008DF80740FFF7C0FC832000F0D7F91CBDB4
:1012800080B500F07BF9D22000210022BDE880402B
:1012900000F0CCB91CB50420072100220024FFF780
:1012A0007EFF40F6E700382100F0E2F9D148417DA9
:1012B000C08A14388DF806100DF10601142838BFC5
:1012C00001248DF807408E20022200F0AFF940F68D
:1012D000D80000F027F940F01E0140F6D80000F0D9
:1012E000C7F91CBD941C002010B5F64C00202060EE
:1012F000142002F0BBFCC02002F0DAFF002002F054
:10130000D7FF01202060BDE8104002F0DDBF00BF24
:1013100005480649013002D00A68D205FAD40028EF
:1013200018BF0120704700BFBFBDF0FF089100400B
:10133000B0B502F08FFFFFF7D7FF0A2002F090FC54
:10134000012000F01DF90120FFF745FFA94CA07A0C
:1013500020B101282ED1FFF793FD01E0FFF70CFD2E
:10136000E06AFFF74DFFFFF7D7FC022000F008F915
:10137000A17940F6111000F07BF9E17940F61210E6
:1013800000F076F9FFF786FF0120FFF771FD0120DD
:10139000FFF7E0FD43200321002200230025FFF793
:1013A000E2FD207D05490880FFF7AAFD052000F039
:1013B000E7F800E0FF2568B2B0BD00BF3C0B00209D
:1013C00070B52A482C4B2D4C294A2D4D2D4E00210D
:1013D000C0E905434FF4C853C0F82220254AC0E9AC
:1013E0000A1180F8261080F82010C0E9036580F803
:1013F0006410C0E91611816403814FF0FF338380CC
:10140000214BC2610122827280F8522041F22102F6
:1014100003601E4BA0F850202022828746F2A812BB
:1014200003661B4B82634CF250320263C36446F680
:101430002333A0F84630174BC0F84230164BC0F8A3
:101440003E3041F2093383864FF48073A0F8543064
:10145000202904D0421882F865100131F8E703F022
:101460008BFF0EA004F020FC002070BD941C002017
:101470006CC92001010140000000080A000A0A00AE
:10148000A08601000057A6166B236CC98813FFFFC6
:1014900020000F1D236BC96C0410C96C436F6E666E
:1014A000696720696E6974204F4B2E0D00000000A3
:1014B0002DE9F041FFF74FFB82490020824F086081
:1014C0001E208846B8473046B847FF20B84734B199
:1014D000FF2002F0EDFE05F8010B013CF7E70120CB
:1014E000C8F80000BDE8F041FFF712BF2DE9F04158
:1014F000FFF731FB7348002780460760304602F053
:10150000D7FEFEB2B44205D9FF2002F0D1FEA855A5
:101510000137F6E70120C8F80000BDE8F041FFF709
:10152000F7BE00BFE0B50DF10701012200F004F89D
:101530009DF807008CBD00002DE9F041FFF70BFB83
:1015400060490020604F08601D208846B847300A77
:10155000B847F0B2B847FF20B84734B1FF2002F0D7
:10156000A7FE05F8010B013CF7E70120C8F80000D1
:10157000BDE8F041FFF7CCBE02F08EBE02F092BE95
:1015800007280DD8DFE800F0041722282D0C121DC3
:101590001748002101701749087E497EFFF744BEB5
:1015A0001348052101700020FFF72ABE10480621CC
:1015B0000170FFF799BC0E48012101700020FFF770
:1015C0003FBE0B4807210170FFF75ABE08480221B1
:1015D00001700120FFF734BE054803210170FFF7B9
:1015E000DDBC0348042101700248806AFFF734BE65
:1015F000901C0020941C0020F8B5FFF7ACFA314F86
:10160000002038600E2002F053FE304602F050FEFB
:101610002CB115F8010B02F04BFE013CF8E701205C
:101620003860BDE8F840FFF773BE00BF2DE9F04118
:1016300015460E460446FFF76BFE224800278046FB
:101640000760204602F034FEF8B2854204D9305CCF
:1016500002F02EFE0137F7E70120842CC8F80000C5
:1016600008BFBDE8F081BDE8F041FFF751BE00BF03
:10167000E0B58DF807100DF10701012200F002F826
:101680008CBD00002DE9F843FFF765FA0D480027EF
:10169000DFF83480814607600D20C047300AC0471C
:1016A000F0B2C047F8B2844204D9285C02F000FED0
:1016B0000137F7E70120C9F80000BDE8F843FFF75C
:1016C00027BE00BF0C910040B142000880B517480A
:1016D000016801310A29016004D100210160012063
:1016E00000F01AFA1248017801291DD11149124B54
:1016F0000A681B8801329A420A6015D30F4B1A8878
:1017000001321A8000220A6019880D4B1B88994209
:1017100007D902700B4802700BA0BDE8804004F0AE
:10172000C3BA08480121017080BD00BF840B0020AE
:101730007C0A0020900A0020580A0020880A002015
:101740004A1F00207D0A002053454E445F5041430C
:101750004B45543A20444F4E450D000080B50C488F
:101760000122016841F4700101600A48016841F0FA
:10177000800101600848C16862F31341C1600168DB
:101780008907FCD502F0A8FEBDE8804002F048BA07
:1017900088ED00E00C00004008000240BCB5094C98
:1017A0000DF1070201210125204603F082FC9DF87E
:1017B0000700012805D12046012103F05FFC024803
:1017C0000570BCBD00A00040850A002000F05EBA94
:1017D00070470000B0B540F0B0004D4D0C4600F031
:1017E000BF00A84720091030A84704F00F00294681
:1017F000BDE8B040084700BF03281BD870B50E46AF
:101800000F2915D81446054614F8012BE8B2F1B299
:10181000D2B200F037F80136F0B2102804D3013507
:10182000E8B2032804D8002614F8012B002AEDD1D1
:10183000BDE87040704710B500200021FFF7CAFFD7
:101840004FF4846424B1002000F011F8013CF9E762
:101850000F20BDE8104000F00AB8E0B58DF8070091
:101860000DF107013820012202F0C4FB8CBDE0B568
:101870008DF807000DF107013920012202F0BAFBB3
:101880008CBD00002DE9F84FDFF83C80FFF768F9C8
:10189000082F09D0E819ABEB0000FFF7B3F9F05DB2
:1018A000FFF7E5FF0137F3E7FFF78BF9082F08BFD4
:1018B000BDE8F88FE819A8EB0000FFF7A3F9F05D89
:1018C000FFF7D5FF0137F1E708000020E0B58DF8FC
:1018D00007108DF806000DF106013820022202F0F3
:1018E00089FB8CBD10B500F015F8094CE220A0472B
:1018F0000A2002F0B5F9EB20A04781207021FFF704
:10190000E5FFC420A047AF202146BDE810400847AE
:101910005B18000802F036BBFEE700000D48BFF37D
:101920004F8F0D4A016801F4E06111430160BFF37C
:101930004F8F00BFFDE700BF0648BFF34F8F064A39
:10194000016801F4E06111430160BFF34F8F00BFF4
:10195000FDE700BF0CED00E00400FA0567490A68E6
:101960000240824202D10A6810430860704700BFFB
:101970000021B1EB103F08D1074940F6FF730A6818
:101980009A430A600A6810430860704702490A686F
:1019900022F44012FFF7C2B804700140044A002943
:1019A00011680CBF21EA000008431060704700BFB7
:1019B000187001400649012804D038B9086820F0A1
:1019C000400002E0086840F040000860704700BF37
:1019D0004880004010B56FF01F020828094C02EB48
:1019E000800238BF82000F230434914093400828BE
:1019F0003CBF47F20804C4F201042068984308433E
:101A0000206010BD087001404C490A6808B13AB125
:101A10007047D007FCD008684007F9D4022000E0E6
:101A200001200A6810430860704700BF03490A6834
:101A300022F0007260F359620A607047B080004083
:101A4000F8B50E462449054605201446002D18BF5A
:101A50000D20D1E9001721FA00F0C0B2FEF7B4FD65
:101A60009FED150B53EC102BFEF7CDFC9FED140BE7
:101A700053EC102BFEF720FCFEF7DFFD3060042056
:101A8000002D18BF0D2027FA00F06FF35F20FEF73E
:101A90009BFD9FED0D0B53EC102BFEF7B4FC9FED5F
:101AA0000C0B53EC102BFEF707FCFEF7C6FD206075
:101AB000F8BD00BF00BF00BFFCA9F1D24D62603F7E
:101AC000000000000000F03FFCA9F1D24D62503F41
:101AD000FCA9F1D24D62D0BF30200010024800684E
:101AE0006FF31F30704700BF1C7001400349096845
:101AF0000140081AB0FA80F04009704714700140A4
:101B000080B5112006210422002303F079FA642015
:101B1000BDE8804002F0AAB808490A6830B1D00791
:101B20000AD00868800707D4042002E0500703D5D4
:101B300008200A6810430860704700BF0070014029
:101B40002DE9F843154F06461C460D46012A386814
:101B500020F00300386003D1386840F0010038609D
:101B60000F4880460F488146280414D0404631462D
:101B70001022FEF7CBFA386840F0800038603868F1
:101B80000006FCD4204649461022FEF7BFFA103D5D
:101B900010341036E8E70020BDE8F8830C2003403D
:101BA000001003402010034001220346FFF7C8BF86
:101BB00000220346FFF7C4BFF8B514460A461D4687
:101BC00001460620A2F11003102B40D8012606FA88
:101BD00003F3214E33423AD0204F214E386840F073
:101BE000090038603220C6F8000A44F0100078611D
:101BF000A2F12000B0FA80F04009C000102A18BFFE
:101C0000202A25D1B8603868C007FCD11548FEF7F6
:101C10007DFAB86840F08200B860B8680006FCD46D
:101C2000B86820F00300B860601E022884BF00205E
:101C3000F8BD0D4829461022FEF768FA0020032C53
:101C400002BF4FF08071C6E90000C6E90201F8BD8D
:101C5000182AD8D10420D5E701010100042003404F
:101C600000160340401603401016034080B50020C4
:101C7000012102F0E9FE0448202100220023653002
:101C8000BDE88040FFF798BF941C002010B5114CB0
:101C90001021204603F04FFA00B110BD204603F09A
:101CA000EBFA0D490D4BCA689854C8680130C860FA
:101CB000486801304860C868B0F5007F04BF002064
:101CC000C8604868B0F5007FE7DD0020C860486064
:101CD000886010BD00300040600A00202C1D0020EC
:101CE000022988BF704702A050F8210003F0DCBF32
:101CF000C65F0008EA6000081261000800210022A7
:101D0000FEF769BA00210022FEF79DBA50B149B131
:101D100010B50446002004F1080C21602071ACE8E5
:101D20000D0010BD012070472DE9F84F80460026B8
:101D300000270446CCB12068B8B1FEF711FA054679
:101D4000606810B1FEF70CFA00E00020AF42C8BF97
:101D50003D46A168002918BF2F468642C8BF3046BD
:101D6000002918BF06461034E4E720A003F09CFFCA
:101D7000264803F099FF75427E422D4FDFF894B05C
:101D800028A40FF28C090FF2900AB8F1000F27D0A7
:101D9000D8F8002022B3D8F80800B8B14846314638
:101DA00003F004FBD8F804005A4620B1017800295A
:101DB00008BF584602465046294603F0F7FAD8F8BD
:101DC0000C1039B1087828B115A001E02046114661
:101DD00003F0ECFA384603F067FF08F11008D4E787
:101DE000134803F061FF0120BDE8F88F3C636F6D7D
:101DF0006D616E643E203C617267733E203C686595
:101E00006C7020746578743E0D000000B4680008A2
:101E1000252A7300B368000820252A7300000000FB
:101E200020257300202D2D2D202573202D2D2D00F4
:101E3000076900082DE9F04F9BB0002800F03A81B7
:101E4000002900F037810446D0E902B015465A4413
:101E5000824280F0318120682A465844FEF756F9C4
:101E6000A0684FF0000A002300262844A0600AA9B9
:101E700004310691834580F02181216811F80B809F
:101E8000B8F10A0F05D0B8F10D0F02D00BF1010B1C
:101E9000F0E701F80BA05B4500F0FB8020682169AA
:101EA000C518CDE90831284629460A78082A03D002
:101EB0003AB100F8012B02E0A84288BF0138013195
:101EC000F3E7844980F800A028461AAA03F0BAF87C
:101ED000002800F0DD80DDF824A007460796BAF15F
:101EE000000F12D0DAF80060002EB14618BF4FF094
:101EF000010912D0DAF8080020B138463146FEF761
:101F000055F9D0B10AF1100AE9E7099880B3079EA4
:101F10004FF000094FF0000A06E001200999079EE2
:101F20004FF0000A29B120B128466BA1FEF73EF917
:101F3000C8B1B9F1000F1ED0AAE066490A96002088
:101F40001AAA002603F07EF80127E0B10AA90F2F94
:101F500041F8270036D05F4900201AAA03F072F832
:101F600001360137F1E70998FFF7DEFE18B18FE07F
:101F7000079E4FF0000A002F00F08A8038460021AB
:101F8000FFF7AEFE84E0DAF8040000286DD0017897
:101F90003F2902D14178002967D00390FEF7E0F88D
:101FA000029003982A21FEF7D1F868B1DDE9022EEC
:101FB0000EEB02010139884263D1012A61D0901EE3
:101FC000009005E001215DE0029ADDF80CE000924E
:101FD0000EEB020000234FF02E0C0190002E41D09A
:101FE000934205DA1EF803002A2818BF844604E04D
:101FF000019810F8010C2A2843D1ACF1730002219A
:1020000004280CD8CDE904C3DFE800F0033C1D1020
:102010000D0006980421012250F8230018E0BCF1BD
:10202000620F1CD02EE0069804210EE006980022D4
:1020300050F8230003F076F90221DDE904C3DDE95D
:10204000022E60B91EE00698012150F823000022FC
:1020500003F068F9DDE904C3DDE9022E88B1013E31
:102060000133BBE7009887420BDDDAF808203846D9
:102070000AA99047DAF800000027B0FA80F040097A
:102080004CE702212846FFF72BFE079E4FF0000A7F
:10209000089BB8F10A0F08BF5B4507D00136A0685E
:1020A0000BF1010B84F804805B46E3E620790D28F0
:1020B000F5D0F3E7FF2608E0FE2606E02BB1C21AB2
:1020C0002068A260C118FEF721F870B21BB0BDE80D
:1020D000F08F00BF0969000868656C70000000009F
:1020E00080B5FEF779FDC1B2074A0846002918BF3E
:1020F000012082F8640005A2002907A018BF10463D
:10210000BDE8804003F0D0BD941C00204145533A07
:10211000204F4E0D000000004145535F454E3A20D0
:102120004F46460D00000000F8B548680D46FFF721
:10213000E9FD0446A868FFF7E5FD054609A003F0A0
:10214000B3FDAFB20AA5A6B2BE4288BFF8BD304605
:10215000FFF7E8F902462846314603F027F9013433
:10216000F1E700BF44554D505F524547533A0D00CB
:102170003078253034582C3078253032580D0A000C
:10218000034890F8491090F84A2002A003F00EB9D5
:10219000941C002046535F4745545F414444523AE3
:1021A000203078253032582C3078253032580D0ABE
:1021B00000000000A648B0F85430B0F85020B0F845
:1021C0004E10014803F0F2B8A55E000800000000C0
:1021D0000F4890F835100939C9B216298FBF9FED05
:1021E0000A0B0C4A02EBC10191ED000BF8B590F817
:1021F0003420016B806B8DED000B029006A003F084
:10220000D5F88FBD00BF00BF000000000000F0BF88
:10221000941C0020585D000846535F4745544D4FBD
:1022200044504152414D533A0D0A42523D25640DEE
:102230000A53483D25640D0A42573D252E31660D4F
:102240000A4445563D25640D0A000000B0B51D4CFA
:102250001DA094F83E2094F83F30A18F03F0A6F81B
:1022600094F848102748284A012908BF0246274801
:10227000002918BF104603F017FD94F84B102548AD
:10228000234A002918BF104603F00EFD94F84C10A5
:10229000214803F08BF894F84D00224D06289ABF90
:1022A0001F4951F820001D48A84794F852101F48B4
:1022B0001D4A002918BF1046A8471DA02946BDE8A1
:1022C000B0400847941C002046535F4745545F5078
:1022D00041434B4554504152414D533A0D0A5052DF
:1022E000455F4C454E3D25640D0A5052455F4445BF
:1022F000543D25640D0A53594E435F4C454E3D25D0
:10230000640D0A00D75F0008CB6000085D6000081C
:10231000C2600008AE5F0008295F0008B95F0008CE
:10232000105E0008A95C0008926000085260000876
:1023300046535F4745545F5041434B4554504152CB
:10234000414D533A20544F444F0D000070B50AA040
:1023500003F02CF8DE4E0C4C0025072D04D070192C
:10236000FEF754FC0135F8E796F847100748BDE83A
:10237000704003F01BB800BF46535F4745545F539E
:10238000594E433A20000000B86100089C5E0008E6
:1023900070B50D4EB07A20B10CA0BDE8704003F0CE
:1023A00083BCFEF7B7FBFEF7EAFB86F84A0086F827
:1023B0004950FEF7BDFF96F8491096F84A2008A04C
:1023C000BDE8704002F0F2BF941C002046535F53FA
:1023D00045545F414444523A204552524F520D00F9
:1023E00046535F5345545F414444523A2030782568
:1023F0003032582C3078253032580D0A0000000059
:102400002DE9F041124FB87A20B112A0BDE8F04199
:1024100003F04ABC4868B64D0C46A8478046A06801
:10242000A8470646E068A847A7F85400A7F85060F8
:10243000A7F84E80FEF77CFFB7F84E10B7F8502093
:10244000B7F854300948BDE8F04102F0AFBF00BF13
:10245000941C002046535F5345545F4352435748F2
:102460003A204552524F520D00000000E75E00082E
:102470002DE9F0472DED066BDFF854A29AF80A001B
:1024800030B194A0BDEC066BBDE8F04703F00CBC86
:102490004868974F0C46B8470546B0F5167F9548F3
:1024A0004FF4167698BF3546854228BF0546A0688A
:1024B000B8478046E068B847062804D29FED5A8B9B
:1024C0004FF01F098AE0062804D19FED598B4FF089
:1024D000170983E0092804D29FED578B4FF00F09AD
:1024E0007CE00B2804D29FED568B4FF01E0975E05F
:1024F0000D2804D29FED548B4FF016096EE0102882
:1025000004D29FED538B4FF00E0967E0152804D2DB
:102510009FED518B4FF01D0960E0192804D29FED0B
:10252000508B4FF0150959E01F2804D29FED4E8BB8
:102530004FF00D0952E0282804D29FED4D8B4FF04B
:102540001C094BE0302804D29FED4B8B4FF014094F
:1025500044E03C2804D29FED4A8B4FF00C093DE04B
:10256000502804D29FED488B4FF01B0936E05F28BE
:1025700004D29FED478B4FF013092FE0772804D248
:102580009FED458B4FF00B0928E09E2804D29FED6C
:10259000448B4FF01A0921E0BD2804D29FED428BF5
:1025A0004FF012091AE0EC2804D29FED418B4FF056
:1025B0000A0913E0B0F59C7F04D89FED3F8B4FF0E4
:1025C00019090BE03EA1B0F5BB7F4FF0090998BF98
:1025D000083191ED008B98BF4FF011092069FFF78A
:1025E00091FB8AF835908AF83480CAF83050B0F5FB
:1025F000167F88BF06464048864228BF0646CAF86E
:102600003860FEF795FEDAF83800DAF830109AF8FC
:1026100034208DED008B029038A002F0C7FEBDEC97
:10262000066BBDE8F08700BF000000403333134065
:1026300000000040333317400000004033331D409A
:102640000000006066662340000000606666274068
:102650000000004033332D40000000000080334074
:102660000000006066663740000000C0CC4C3D4072
:1026700000000000008043400000004033734740EA
:10268000000000C0CC4C4D40000000C0CC8C53403A
:1026900000000040337357400000004033535D405A
:1026A0000000006066866340000000606666674068
:1026B000000000A099496D400000000000807340B8
:1026C0000000000000307D40000000A099597740D4
:1026D000941C002046535F5345545F4D4F44504176
:1026E00052414D533A204552524F520D00000000C6
:1026F000051D0008E0930400400D030046535F539E
:1027000045544D4F44504152414D533A0D0A4252A7
:102710003D25640D0A53483D25640D0A42573D2569
:102720002E31660D0A4445563D25640D0A00000011
:102730002DE9FE4FDFF8EC8098F80A0008B13AA0C6
:1027400068E04868DFF8FC900D46C8470290A8682A
:10275000C8470190E868C84782462869C847834649
:102760006869C8470646A869C8470746E869C84770
:102770000446286AC84788F84D4088F84C70002EF7
:1027800018BF0126019988F84B6088F848B088F88E
:102790003FA0002888F83E100299A8F83C1018BF06
:1027A000012088F85200FEF7C3FDB8F83C1098F8F5
:1027B0003E2098F83F3024A002F0F8FD98F8481029
:1027C0003048314A012908BF02463048002918BF65
:1027D000104603F069FA98F84B102E482C4A00294D
:1027E00018BF104603F060FA98F84C102A4802F01F
:1027F000DDFD98F84D0006289ABF294951F82000C0
:10280000264803F051FA98F852102748254A002923
:1028100018BF104603F048FA24A0BDE8FE4F03F0AD
:1028200043BA00BF941C002046535F5345545F5089
:1028300041434B4554504152414D533A2045525229
:102840004F520D00051D000846535F5345545F501D
:1028500041434B4554504152414D533A0D0A505259
:10286000455F4C454E3D25640D0A5052455F444539
:10287000543D25640D0A53594E435F4C454E3D254A
:10288000640D0A00D75F0008CB6000085D60000897
:10289000C2600008AE5F0008295F0008B95F000849
:1028A000105E0008926000085260000846535F53B3
:1028B00045545F5041434B4554504152414D533A6A
:1028C00020544F444F0D0000FEB5194DA87A20B199
:1028D00018A0BDE8FE4003F0E7B90E1D002701ACCB
:1028E000082F06D056F82700FFF70CFAE0550137FD
:1028F000F6E70020082805D0225C2918013081F86D
:102900004020F7E7FEF714FD0FA002F04FFD4A4C00
:102910000026072E04D0A819FEF778F90136F8E74B
:1029200095F84710464803B0BDE8F04002F03EBDC0
:10293000941C002046535F5345545F53594E433A0D
:10294000204552524F520D0046535F5345545F533A
:10295000594E433A2000000080B5FEF775FA00EEAC
:10296000100ABEEE001AB8EE400A20EE010A10EE80
:10297000100AFDF74FFE024602A00B46BDE880405C
:1029800002F014BD4745545F525353493A20252E57
:1029900031662064426D0D0A0000000070B51C4CC9
:1029A00017A0A0471B4D1FA01BA295F8641000297B
:1029B00018BF1046A0471EA0A0471F4C0026202E7F
:1029C00007D0A81990F86510204602F0EFFC0136F8
:1029D000F5E71AA002F0EAFC174C00260F2E07D0EC
:1029E000A81990F88510204602F0E0FC0136F5E7C2
:1029F00095F894101248BDE8704002F0D7BC00BFB3
:102A00004745545F4145535354415455533A200070
:102A1000AD530008941C00204145533A4F4E2C20E2
:102A2000000000004145533A4F46462C200000006C
:102A30004B45593D00000000B861000849563D0073
:102A40009C5E00080348B0F86220B0F8601002A055
:102A500002F0ACBC941C00204745545F4155544FD4
:102A600053454E443A2025642C3078253034580D97
:102A70000A0000000248B0F9001002A002F096BC63
:102A80003C0B00204745545F4348414E4E454C3A6D
:102A90002025640D0A00000010B540F61110FEF765
:102AA00041FD044640F61210FEF73CFD011902A05C
:102AB000BDE8104002F07ABC4745545F4354554E80
:102AC000453A2025640D0A000248818802A002F0E0
:102AD0006DBC00BF941C00204745545F44455649D7
:102AE000443A203078253034580D0A0005484FF418
:102AF0007A73D0E90302B0FBF3F1B2FBF3F202A068
:102B000002F054BC941C00204745545F4652455186
:102B10003A2025752C25750D0A00000001A003F050
:102B2000C3B800BF4745545F474E53533A20544FF4
:102B3000444F0D00044805A2817A09A0012908BF6D
:102B4000104603F0B1B800BF941C00204745545F05
:102B50004D4F44454D3A204C4F52410D000000006E
:102B60004745545F4D4F44454D3A2046534B0D0069
:102B70000448007807288EBF034804A151F82000BC
:102B800003F092B8901C0020786100089C60000857
:102B90004A5F00087A5F00086C60000898610008CE
:102BA0007861000852610008FC5F0008024890F953
:102BB000151002A002F0FABB941C00204745545F98
:102BC000504F5745523A2025642064426D0D0A004B
:102BD0000248C18A02A002F0E9BB00BF941C002099
:102BE0004745545F52414D5054494D453A20256464
:102BF0002075730D0A00000001A003F055B800BF56
:102C00004745545F5258434F554E543A20544F4411
:102C10004F0D000001A003F047B800BF4745545FC7
:102C2000534C454550504152414D533A2045525224
:102C30004F520D0080B5FEF711F9014602A0BDE824
:102C4000804002F0B3BB00BF4745545F535441542A
:102C500055533A203078253032580D0A00000000D4
:102C60000848817A00F15C02012908BF00F12C02BA
:102C700000F15801126808BF00F1280102A009689C
:102C800002F094BB941C00204745545F54494D45C5
:102C90004F5554533A2025642C25640D0A0000003A
:102CA00002A001210022012302F080BB4745545FAE
:102CB00056455253494F4E3A2048573D25642C46BD
:102CC000573D25642E25640D0A000000BCB50A4856
:102CD0000068FDF79FFC044608480D460068FDF7B4
:102CE00099FC41EC100B06A022462B468DED000B03
:102CF00002F05CFBBCBD00BF800B0020780A002006
:102D00004745545F56543A20543D252E33662C5681
:102D10003D252E33660D0A00034890F9092090F9ED
:102D2000081002A002F042BB941C00204745545FEB
:102D3000584F504152414D533A2025642C25640D83
:102D40000A000000034803680348026803A002F079
:102D50002DBB00BF300002402C0002404745545FAD
:102D60005549443A203078256C6C580D0A00000013
:102D700003480449044B4FF48072FEF7C7BF00BFFD
:102D80002C1F0020880B0020F805002080B5FEF7DE
:102D900017FB28B1014605A0BDE8804002F006BB44
:102DA00008A0BDE8804002F07FBF00BF494E4954F3
:102DB0005F434F4E4649473A204552524F522025D5
:102DC000640D0A00494E49545F434F4E4649473A05
:102DD000204F4B0D000000001CB5174CE07E0A2868
:102DE0008FBF9FED130B154901EBC00090ED000B59
:102DF00053EC102BA07E009011A002F0D7FAC64829
:102E000002F0D4FA207F04289ABFC54951F8200067
:102E1000C24802F049FFC34802F0C8FA617FC348C4
:102E2000C14A002918BF1046BDE81C4002F03CBF53
:102E3000000000000000F0BF941C0020305E00087D
:102E40004C525F4745545F4D4F44504152414D53A2
:102E50003A0D0A42573D252E31660D0A53463D254F
:102E6000640D0A002DE9F041134DDFF8C48313A06F
:102E700095F82420E98BC04795F820101D4EEE48A8
:102E8000EC4A002918BF1046B047EC48C04795F8F7
:102E90002500EC4CEA4F0028204618BF3846B047C2
:102EA000E948C04795F826003146002818BF3C463F
:102EB0002046BDE8F0410847941C00204C525F4773
:102EC00045545F5041434B4554504152414D533A54
:102ED0000D0A5052455F4C454E3D25640D0A504148
:102EE000595F4C454E3D25640D0A484541444552C5
:102EF0003A000000A95C000801A002F0D5BE00BFA6
:102F00004C525F4745545F53594D544F3A20494EF8
:102F100020444556454C4F504D454E540D00000041
:102F20000248418C02A002F041BA00BF941C00206C
:102F30004C525F4745545F53594E433A20307825F1
:102F40003034580D0A0000002DE9F8432DED047BC4
:102F5000DFF87C9199F80A00012809D1FDF7DAFD24
:102F600080B2092806D29FED468B4FF000083DE065
:102F700058A07EE00C2804D29FED438B4FF0080848
:102F800034E0112804D29FED428B4FF001082DE070
:102F9000162804D29FED408B4FF0090826E0202828
:102FA00004D29FED3F8B4FF002081FE02B2804D284
:102FB0009FED3D8B4FF00A0818E0402804D29FEDAA
:102FC0003C8B4FF0030811E07E2804D29FED3A8B32
:102FD0004FF004080AE03AA1FB284FF0060838BF7A
:102FE000083191ED008B38BF4FF00508A068404FC5
:102FF000B8470546E068B84706462069B847F1B2C9
:1030000089F81B8005F0FE02C0B20429E9B288BF2E
:10301000042689F81C600C2928BF0C21062A38BF19
:10302000062189F81A10002818BF012089F81D0010
:10303000FEF77EF999F81A0053EC182B00902DA09A
:1030400002F0B4F9344802F0B1F999F81C000428F0
:103050009ABF334951F82000304802F025FE31482C
:1030600002F0A4F999F81D107648754A002918BF96
:103070001046BDEC047B01B0BDE8F04302F014BE85
:103080000000004033331F40000000C0CCCC24407F
:103090000000004033332F40000000C0CCCC34404F
:1030A000000000C0CC4C3F40000000A099D9444033
:1030B0000000000000404F400000000000405F4062
:1030C0000000000000407F400000000000406F4012
:1030D000941C00204C525F5345545F4D4F44504167
:1030E00052414D533A204552524F520D00000000BC
:1030F000051D00084C525F5345545F4D4F445041ED
:1031000052414D533A0D0A42573D252E31660D0A64
:1031100053463D25640D0A00CF610008BD5F0008DD
:10312000885E0008D36100089860000867600008A6
:103130002DE9F047274EB07A012844D148682D4F39
:103140000C46B8478046A068B8478146E068B84753
:1031500082462069B84705466069B84705F0010115
:1031600000F0010086F82490A6F81E8086F825104D
:103170000AF0010186F8260086F82010FEF7D8F83C
:10318000F18B96F824202A4D1BA0A84796F8201012
:103190002948284A002918BF104602F085FD274813
:1031A000A84796F82500274C254F0028204618BF31
:1031B000384602F079FD2448A84796F826000028F2
:1031C00018BF3C4600E004A42046BDE8F04702F0EA
:1031D0006BBD00BF941C00204C525F5345545F50A0
:1031E00041434B4554504152414D533A2045525270
:1031F0004F520D00051D00084C525F5345545F505F
:1032000041434B4554504152414D533A0D0A50529F
:10321000455F4C454E3D25640D0A5041595F4C4574
:103220004E3D25640D0A4845414445523A00000090
:10323000AD530008FE60000808610008C061000886
:103240009860000867600008C5610008044805A28E
:10325000817A0CA0012908BF104602F025BD00BFED
:10326000941C00204C525F5345545F53594D544FAA
:103270003A20494E20444556454C4F504D454E54FA
:103280000D0000004C525F5345545F53594D544F4D
:103290003A204552524F520D0000000010B5094C23
:1032A000A07A012808D1FDF797FC608481B20BA0B9
:1032B000BDE8104002F07AB803A0BDE8104002F06B
:1032C000F3BC00BF941C00204C525F5345545F5325
:1032D000594E433A204552524F520D004C525F53C3
:1032E00045545F53594E433A203078253034580DB9
:1032F0000A000000E0B5FDF7DBFC8DF80700C0B266
:1033000038B1FF2805D003480DF107010122FEF76F
:1033100091FD8CBD2C1F002080B5FDF75DFC80B2B7
:10332000FEF700F9014602A0BDE8804002F03EB879
:10333000524541445F5245473A2030782530325853
:103340000D0A000003A002F0AFFC642000F088FC2E
:10335000FEF7F2FA52455345543A204F4B0D000008
:1033600070B5FDF7D7FB0F4D2880288808B90120DC
:103370002880A068FEF7C6FC0B4E3080E068FEF7A0
:10338000C1FC0A490880308863289CBF64203080D3
:1033900001F0D8FA3288298805A0BDE8704002F013
:1033A00005B800BF4A1F0020580A00208C0A0020E0
:1033B00053454E445F5041434B45543A2025642CBD
:1033C00025640D0A000000007FB50D1D00266C4627
:1033D000042E07D055F82600FEF794FC44F826008A
:1033E0000136F5E708490020102806D023580A18AE
:1033F00004301BBAC2F88530F6E704A004B0BDE87B
:10340000704002F051BC00BF941C00205345545F33
:1034100041455349563A204F4B0D000070B588B0D6
:103420000D1D00266C46082E07D055F82600FEF725
:1034300069FC44F826000136F5E7084900202028F9
:1034400006D023580A1804301BBAC2F86530F6E7D4
:1034500003A008B0BDE8704002F026BC941C002018
:103460005345545F4145534B45593A204F4B0D004E
:10347000B0B5FDF74FFBFDF782FB0C4A4FF6FE712E
:10348000ACB205EA01034EF66021A2F862008C425C
:1034900038BF2146322B38BF3221A2F8601082B2E9
:1034A00003A0BDE8B04001F081BF00BF941C002024
:1034B0005345545F4155544F53454E443A2025647B
:1034C0002C3078253034580D0A00000010B54868BB
:1034D000FEF714FC054C2080FDF712FDB4F9001036
:1034E00003A0BDE8104001F061BF00BF3C0B00200D
:1034F0005345545F4348414E4E454C3A2025640D98
:103500000A00000010B5FDF767FBC1B25E2988BF55
:103510005E20C4B22046FDF7A7FB03A02146BDE80C
:10352000104001F043BF00BF5345545F4354554E14
:10353000453A2025640D0A0010B5FDF74DFB054CFA
:10354000A08001F019FFA18803A0BDE8104001F0A0
:103550002DBF00BF941C00205345545F444556497D
:10356000443A203078253034580D0A0001A002F08A
:103570009BBB00BF5345545F454D3A20544F444FC9
:103580000D00000070B5FDF7C5FA4FF47A750A4ECC
:103590006843F060A068FEF7B5FB68433061FDF753
:1035A000AFFCD6E90302B0FBF5F1B2FBF5F203A0E4
:1035B000BDE8704001F0FABE941C00205345545FF2
:1035C000465245513A2025752C25750D0A000000FC
:1035D00010B5FDF701FBC1B2012902D039B911A420
:1035E00000E006A4C5498872FDF7A2FE00E008A429
:1035F0002046BDE8104002F057BB00BF5345545F62
:103600004D4F44454D3A204C4F52410D00000000B3
:103610005345545F4D4F44454D3A204552524F5209
:103620000D0000005345545F4D4F44454D3A204630
:10363000534B0D0010B5FDF7CFFA0B4C0B4AC0B23F
:1036400021781170FDF79CFF2078072899BF09A108
:1036500051F82040064C0520FDF792FF2046BDE8BA
:10366000104002F021BB00BF901C0020911C0020E4
:1036700088610008AF600008625F0008945F00087E
:103680007F600008A8610008886100086561000883
:1036900015600008B0B5FDF73DFA054610F0F80FCB
:1036A00018BF0725A068FEF72DFBECB2C5B20022BB
:1036B00020462946FDF773FD03A021462A46BDE8B2
:1036C000B04001F073BE00BF5345545F5041434FBB
:1036D0004E4649473A2025642C25640D0A00000017
:1036E00010B54868FEF70AFB40B2094C10F1090F0B
:1036F000D8BF6FF008001628A8BF16206075FDF728
:10370000C9FD94F9151003A0BDE8104001F04EBEAC
:10371000941C00205345545F504F5745523A202582
:10372000642064426D0D0A0010B5FDF755FA1428A7
:1037300001D20A211DE0282801D2142119E05028C5
:1037400001D2282115E0C82801D2502111E0B0F59E
:10375000487F01D2C8210CE040F2A461884202D225
:103760004FF4487105E040F64851884238BF40F2B6
:10377000A461054CE182FDF78DFDE18A03A0BDE85F
:10378000104001F013BE00BF941C00205345545F4D
:1037900052414D5054494D453A2025642075730DD2
:1037A0000A00000001A002F07FBA00BF5345545F39
:1037B000534C454550504152414D533A2045525289
:1037C0004F520D00B0B5FDF7A5F9FDF7D8F9044645
:1037D0000A485822817A01294FF05C0108BF28224B
:1037E000855008BF2C214450FDF7A2FD04A02946B6
:1037F0002246BDE8B04001F0D9BD00BF941C0020B6
:103800005345545F54494D454F5554533A20256410
:103810002C25640D0A000000B0B548680C46FEF780
:103820006DFA0546A068FEF769FA054942B248728A
:103830000D7269B203A0BDE8B04001F0B7BD00BF92
:10384000941C00205345545F584F504152414D53F2
:103850003A2025642C25640D0A00000001A002F026
:1038600023BA00BF53544152545F5258434F554EF0
:10387000543A20544F444F0D000000000648017890
:10388000012911BF05A0094900220A7004BF027076
:1038900007A002F009BA00BF7C0A002053544F5021
:1038A0005F54583A204552524F520D007D0A002075
:1038B00053544F505F54583A204F4B0D00000000B6
:1038C00001A002F0F1B900BF53544F505F5258436A
:1038D0004F554E543A20544F444F0D0010B5064CEE
:1038E00006492078087501F047FDB4F9001004A0DE
:1038F000BDE8104001F05ABD3C0B0020941C002094
:1039000053544F52455F4348414E4E454C3A202553
:10391000640D0A0080B501F02FFD02A0BDE88040D3
:1039200002F0C2B953544F52455F434F4E46494788
:103930003A204F4B0D00000070B54868214E0C46F0
:10394000B047214D2860A068B04720490860E06872
:10395000B0471F4908602069B0474FF47A711D4E87
:10396000484330606069FEF7C9F900EE100A1A4951
:10397000B8EEC00A81ED000A316879B170B117A0C4
:1039800002F092F92868FDF757F9308801F0BAFC87
:1039900001F0BEFC16480121017070BD1448017889
:1039A000012909D1002101701248134900680860FB
:1039B000FDF742F901F0B0FC10A0BDE8704002F044
:1039C00073B900BF051D0008AC0A0020A80A00203A
:1039D000A00A0020401F0020B00A00205357454590
:1039E000505F52583A2053544152540D0000000089
:1039F000840A00208C1C0020A40A0020535745454F
:103A0000505F52583A2053544F500D002DE9F04169
:103A10004868384D0C46A847374E3060A068A84724
:103A200036490860E068A847DFF8D480C8F800008D
:103A30002069A847334F38606069A847C1B2324D4A
:103A4000022988BF02202870000604D02F4C20785D
:103A5000F8B12FA019E03D48017819B93C4909781F
:103A6000012911D1002404703948047001F054FC7C
:103A700032480078FDF784FD364831490068086017
:103A8000FDF7DAF82148047033A0BDE8F04102F0F8
:103A90000BB924A002F008F92748284900780870DB
:103AA000306827490860FDF7C7F8388801F02AFC1C
:103AB0002D780720012D08BF0620FDF761FD224863
:103AC000012D18BF022525701E4908BF084602F0C7
:103AD000EBF8D8F800001D4A0028B0FA80F118BFB2
:103AE0000120107048091A490870BDE8F04101F042
:103AF0000FBC00BF051D0008AC0A0020A80A00206A
:103B0000A00A0020401F0020860A0020481F002035
:103B100053574545505F54583A204552524F520D25
:103B20000000000053574545505F54583A20535405
:103B30004152540D00000000901C0020911C0020F8
:103B4000A40A002043610008E75F0008820A002001
:103B5000830A00208C1C002053574545505F545861
:103B60003A2053544F500D00B0B5FDF735F8C1B2AF
:103B7000022988BF0220C0B2012809D002280FD133
:103B80000F481049114C02250078087007200FE0FB
:103B90000B480C490C4C012500780870062007E002
:103BA0000B480C4C807A08B9FDF7E6F80025052093
:103BB000FDF7E6FC204602F077F807480570B0BD37
:103BC000901C0020911C002043610008E75F000862
:103BD000941C002039600008481F0020B0B5FCF795
:103BE00099FFFCF7CCFFC4B26FF31F35284621467E
:103BF000FDF73EFD03A029462246BDE8B04001F096
:103C0000D5BB00BF57524954455F5245473A203013
:103C100078253034582C3078253032580D0A000081
:103C200080B5012001F04CF90A49884211D3B0FB5C
:103C3000F1F1194A11704FF47A71E022B0FBF1F002
:103C40000549013848600548027000208860072057
:103C5000086080BD40420F0010E000E023ED00E06E
:103C60004FF47A71484300F001B80000B0B50A493A
:103C70000B780A490A686BB14C68584300234D68B9
:103C8000A542FCD023445B1BA54228BF13442C460D
:103C90008342F4D3B0BD00BF880C002014E000E0E4
:103CA0003B490A68D20444BF4FF480520A6010B501
:103CB000384A394B394C93619461146804F40074A8
:103CC000223414609361002393614FF0FF3303604B
:103CD0000868C00406D49068C007FCD0012090603A
:103CE000002010BD4FF4805008606FF0670010BDD9
:103CF0002DE9FE43264B274C284DEE4699461B687E
:103D0000DB0444BF4FF48053C9F80030224BA36159
:103D1000A561256805F4007524352560A36100239D
:103D20004FF0FF35A361CDE9005522F007054F198B
:103D3000EE18964204D2FE5C0EF803600133F7E7FA
:103D400000274FF0FF384FF0010C974214D276460F
:103D5000AF4238BFCE193368E3607368236147F818
:103D60000080D9F80030DB0409D4A368DB07FCD05D
:103D7000C4F808C00837E8E70020BDE8FE834FF428
:103D80008050C9F800006FF06700BDE8FE8300BFF7
:103D900008F0004000000240BFAE9D8C16151413C1
:103DA000B0B5074D0446C1B2284601F06BFA28466B
:103DB000802101F0C0F90028F9D02046B0BD00BF35
:103DC00000300040012303FA01F1002A426A0CBFCF
:103DD00022EA0101114341627047000010B5062A32
:103DE00018D8DFE802F004200D1408273C00FCF787
:103DF0009AFE0A4311E0FCF7C6FE22EA01015AE0EE
:103E0000FCF791FEFCF707FF22EA010110E0FCF746
:103E1000BAFE43E0FCF787FE8A438260C26822EA6A
:103E20000101C16010BDFCF77EFEFCF7F4FE1143FA
:103E3000016110BD0122524B8A40D443984223D1E4
:103E4000082921D39869204098619868204098609B
:103E500018681043186018691043186110BD0122DA
:103E6000474C8A40D343A0421AD1082918D3A069ED
:103E70001840A061A0681840A06020681840206029
:103E800020691043206110BD0168214001608168F4
:103E900021408160416811434160816911430AE01A
:103EA00001681940016081681940816041681143CF
:103EB000416081691940816110BD00BF70B508295A
:103EC00013D308392E4D8C0001EB41032146A84243
:103ED00008BF1946072602FA01F10F22A240A842A4
:103EE00008BF06FA03F23C2305E08B0002FA03F157
:103EF0000F229A403823C45824EA02021143C150C9
:103F000070BD00BF10B501231D4C8B40A04217D1DE
:103F1000082915D3A069184202D1A068184217D009
:103F2000A069184205D1A068184202D12068184241
:103F30001AD004F12000002A08BF04F11C0003E09D
:103F40000AB1203000E01C3001681943016010BD47
:103F500020681842E4D020691842E1D0002AF6D146
:103F6000FCF73DFE984307E020691842E1D0002AA3
:103F7000EDD0FCF734FE1843206004F11000E3E7B5
:103F800000FC0140BCB51620012100F05DFD644C31
:103F90000E21032204F5C0352846FFF78FFF28467F
:103FA0000F210322FFF78AFF6D46284600F05BF8D9
:103FB0002046294600F06AF82046012100F042F828
:103FC0000020BCBD70B50A4E554D044642F210703B
:103FD000411E316048B12846214600F049F80128C9
:103FE00004BF002070BD3068F2E74FF0FF3070BDB5
:103FF000441F002070B54A4C15460E46014600226B
:10400000204600F093F8FCF7A2FD1320FFF7DAFF3B
:1040100060B995B116F8011B204600F0ACF8FCF72A
:1040200096FD1320FFF7CEFF013DF1E74FF0FF357E
:10403000204600F097F8284670BD0025F8E700BF3D
:10404000FCF7D5BD026831B142F4804101600168DE
:1040500041F4005105E022F480410160016821F43F
:1040600000510160704700214160018070470000ED
:1040700009B1FCF796BD0448006800F0F000B0FA02
:1040800080F04009704700BF4470004070B504469E
:104090000D4640F2E9306168090402D50138FAD1D1
:1040A00001E001280DD0206800F4806020602068C5
:1040B00040F48060206060686060206820F4806068
:1040C000206068782168032621F0200160F3451103
:1040D0001348216084424FF0030008BF022000F023
:1040E000EFFE1049104AB0FBF1F1B0FBF2F04FF0D7
:1040F000FF320838083902EB50004202B0FBF6F0FC
:1041000042EA510121616061287810B12879A060EC
:1041100070BD2068696820F440700843206070BD5D
:1041200000700040A0860100801A0600036842EA81
:10413000410123F480530360026892060AD4C9B295
:10414000C160016821F002010160016841F00901CC
:1041500001607047026841F4106142F01002026091
:1041600001627047016821F001010160016841F4BA
:104170008051016070470268920642BF01F50061FC
:1041800001627047C160FCF7D6BC80B500F048F909
:1041900000F0FEF8FCF7AAFDBDE8804001F078B819
:1041A00080B50420012100F0D9FB4FF4A04000F0BD
:1041B000F9FE002000F0E4FE0020002100F0E8FEFF
:1041C000054800F0F7FE4020012100F03DFCBDE86D
:1041D0008040FFF725BD00BF01000002A348082171
:1041E0000122FFF78FBE00BFA04808210022FFF781
:1041F00089BE00BFB0B5164C4FF400700225C4F85C
:104200000001072020602561D4F8040180280BD02C
:104210001420FFF72BFD0020C4F80C011420FFF739
:1042200025FD0120C4F80C01AA4865604FF4001177
:104230000322016004F5B6300B21FFF73FFE04F5C1
:10424000B0300A210322BDE8B040FFF7C7BD00BF70
:104250000090004010B50F4C206820F02000206036
:104260006420FFF703FD206840F0200020602068F4
:1042700020F08000206054F8040C40F0200044F846
:10428000040C206840F0010020606068C005FCD488
:1042900010BD00BF0491004074480A210122FFF7BD
:1042A00031BE00BF71480A210022FFF72BBE00BFBC
:1042B00004490860486800F011000128FAD1086834
:1042C000C0B270470890004080B50A20FFF7CEFCCE
:1042D00002480168C905FCD480BD00BF08910040B8
:1042E000FFF75EFFFFF751FF6420FFF7B9FC14A052
:1042F00001F0DAFCFFF778FFFDF7F4FA00F0C4F9FB
:104300006420FFF7ADFCFFF769FFFEF731FDFDF715
:1043100092FA134C0EA200200021A04711A2012006
:104320000021A04713A202200021A04714A20320CD
:104330000021A04700F0F4F9FEF7DCFFFAE700BF28
:104340000D0A5241303820746573740D000000006E
:1043500048656C6C6F2C204C616D6572210000000B
:10436000F91700085452454D4F205445535420200E
:10437000200000004675636B204368696E61210070
:104380002863292047424C2032303234000000009C
:1043900010B5002000F0E4FD1220012100F054FBD4
:1043A0001120012100F050FB1A480B210722FFF7D2
:1043B00015FD194C0020221D2146FDF741FB94ED0F
:1043C000010A9FED161A20EE010A84ED010AFDF79D
:1043D00097FB0820FDF7CCFA0120FDF7EBFA01204E
:1043E000FDF724FB00200121FDF7F4FA0020FDF782
:1043F000CDFA0120FDF708FB0120FDF78DFB012020
:104400000121FDF7CBFA33484FF48031C0F8801119
:10441000016010BD00F00140700A002000007A44E5
:10442000B0B5114C0D200121A04720200121A0474B
:1044300021200121A04722200121A0470B4C0C4D37
:104440000B2101222046A847204609210122A84726
:10445000204608210322A847204608210122BDE862
:10446000B040FFF7AFBC00BF494A000800F0014070
:10447000DD3D00087FB5164C05460121012204F5FB
:10448000E2363046FFF71AFD304600210122FFF7E1
:1044900015FD002000F0A2FD1F20012100F0D4FA3C
:1044A0006E46304600F033FE20463146009500F05F
:1044B00047FE2046012100F024FE20461021012263
:1044C00000F031FE03484021C0F8801101607FBD3B
:1044D0000030004000E100E00548E021C02201700A
:1044E00004490020252808BF704742540130F9E7ED
:1044F00022ED00E000E400E01948522181764D49A8
:10450000C989818000F008B815485421817649494D
:1045100089898180AFF3008010B56D4C104802226C
:10452000A18801804349098A41800021072903D0DD
:1045300043180131DA76F9E70A4809492022FBF7E6
:10454000E5FD94F86400012803D106482021FDF719
:104550002FFB044900202022BDE81040FDF74CB895
:10456000D80A0020400B00202DE9F04F9BB0DFF867
:10457000C4B0DBF84400FCF74DF8CDE91910DBF8C6
:104580004800FCF747F8CDE91710DBF84C00FCF7C2
:1045900041F80BF11807CDE91510C1CFFCF73AF837
:1045A000804630468946FCF735F8064638468A4646
:1045B000FCF730F80F464AEC116B9BF8521049ECAF
:1045C000128BBBF83830BBF83C209BF83E409BF880
:1045D0003F509BF840C09BF841E047EC100BDDE9F1
:1045E000156014919BF850108DED101B9BF951B084
:1045F0008DED0E2B8DE830508DED120B46EC100B2F
:10460000DDE91760049111461A46149BCDF830B0CD
:1046100046EC110BDDE919608DED0A0B46EC120B2F
:1046200005A08DED081B8DED062B00F0BFFE1BB025
:10463000BDE8F08F7C0A002025642C3078253034CA
:10464000582C25632C25643A25643A25642C25646E
:104650002C25642C252E34662C252E34662C252EF4
:1046600031662C25642C252E31662C252E31662CA6
:10467000252E31660D0A000001A001F015BB00BF18
:10468000464552520D00000010B5FFF7B3FD00F093
:10469000D1FC0F4C0F492068884218BFFCF790FEF0
:1046A000FCF746FE11A10CA2002808BF11460846DF
:1046B00001F0FAFA94F86400012803D1FDF7D6FA64
:1046C00013A000E00EA0BDE8104001F0EDBA00BF5D
:1046D000941C00206B236CC9535831323632206948
:1046E0006E6974204F4B2E0D00000000535831327C
:1046F000363220696E6974206572726F722E0D00F9
:104700004145532064697361626C65642E0D00003D
:1047100041455320656E61626C65642E0D0000009A
:104720007FB5814D6878012808D100206870FFF7B7
:10473000EBFEFFF759FD0420FCF722FFA8780128C3
:1047400008D10020A870FFF7D7FEFFF74DFD042029
:10475000FCF716FFE87801287ED10020E870FFF70B
:1047600043FD724EB07A012824D10DF10F000DF1F6
:104770000E010DF10A020DF10D03FCF759FBBDF915
:104780000A106FF0FF0010FA81F001EE101A802974
:1047900000EE100AB8EEC11AB8EEC00AB8BFB0EE0B
:1047A000410AB5EE001A9DF80D109DF80E0020EE9E
:1047B000010A0EE00DF1090002A90DF107020DF149
:1047C0000603FCF71DFB9DF806109DF807009FED02
:1047D000580A03EE100A574801EE101ABEEE002ADE
:1047E000202285ED070AB8EE411AB8EE433A00F1EF
:1047F000240421EE021A23EE022A8020214685EDB0
:10480000062A85ED081AFCF753FE2879012804D101
:1048100000202871FFF730FF19E096F864000128A6
:1048200003D120462021FDF7BFF905F138002146CC
:104830002022FBF76BFCFFF797FEA88FE881287812
:1048400028B9B088698F814204BF0120A870FFF7A2
:10485000C5FC0520FCF794FE6879012806D10020EC
:1048600068710520FCF78CFEFFF7B8FC687A012818
:1048700059D100206872A879012815D105F12402C8
:1048800007CA0844A862904284BF286BA86202202D
:10489000FCF776FEA86AFCF7CFF9A97A0720012970
:1048A00008BF0620FCF76CFEE879012813D105F15A
:1048B000280207CA904218BF1146A9620220FCF7DD
:1048C0005FFEA86AFCF7B8F9A97A0720012908BF9A
:1048D0000620FCF755FE287A012824D1FCF7B4FA0B
:1048E00000EE100ABEEE001AB8EE400A20EE010AF1
:1048F00095ED0D1AB4EE410AF1EE10FA09DD10EE55
:10490000100AFBF787FE0B46A96A02460AA000F0D0
:104910004DFDD5E90912E86A1144814238BF0846C5
:10492000A862FCF789F97FBD7C0A0020941C002056
:1049300000000000D80A00204025642C252E316696
:104940000D0A000004480121818140F2011101801B
:1049500000214161704700BF7C0A002005284AD829
:1049600010B50C46DFE800F0033C28310F4834480E
:10497000002C016953D021F020010161D0F8001210
:104980004907FBD535E00E20012100F05DF82D48E8
:104990000168ECB3890607D4016841F02001016089
:1049A000016821F080010160016841F004010160AB
:1049B00041688907FCD51CE02148002C016821F4DE
:1049C000C04108BF01F5C04112E01D491020002C74
:1049D00018BF08200A6922F018021044086108E094
:1049E0001748002C016821F4004108BF01F500417F
:1049F0000160BDE81040704711480169BCB121F069
:104A000040010161D0F80012B1F1FF3FFADCF0E79C
:104A100021F00401016041688907FCD4E9E741F015
:104A200020010161D0F800124907FBD4E1E741F011
:104A300040010161D0F800120029FBD4D9E700BF82
:104A40000880004004910040412800F22E82DFE8F7
:104A500010F04200650177019B014701FF0014013E
:104A6000D300F6009D00E4006E015301B800B101CF
:104A7000BA01D501CC0194002C025C01EB01AF001E
:104A80003E01CA008001C1007E00F401ED002C014E
:104A9000920135014B00A6002C022C022C022C02A4
:104AA0002C022C022C022C022C022C022C022C0296
:104AB0002C02C301FD01750089015D002C022C024E
:104AC0002C022C022C022C022C022C022C022C0276
:104AD0002C025400DC00E2480029426814BF42F076
:104AE000800122F08001E7E1DD48002902680CBF67
:104AF00022F4000142F40001C6E1D948002902680D
:104B00000CBF22F4001142F40011BDE1D448002989
:104B1000426800F0A78142F480514160C16901F010
:104B20003F013F29FAD1816841F020018160C169CC
:104B30008906FCD5416841F40061BDE1DF480029E8
:104B4000426814BF42F4807122F48071B4E1DB4802
:104B5000026822F4803261F310420260C26902F0FE
:104B60003F023F2AFAD1826822F0040261F38202F6
:104B70008260C1694907FCD597E1D04800290268E5
:104B80000CBF22F4807142F480717DE1CB48002992
:104B900002680CBF22F0010142F0010174E1C74834
:104BA000002902680CBF22F4800142F480016BE10D
:104BB000C248002902680CBF22F4805142F480519F
:104BC00062E1BE48002902680CBF22F0007142F089
:104BD000007159E1B948002902680CBF22F4004174
:104BE00042F4004150E1B548002902680CBF22F4AC
:104BF000005142F4005147E1B048002902680CBF5F
:104C000022F0806142F080613EE1AC4800290268F8
:104C100000F0388142F0004136E1A84800290268DE
:104C20000CBF22F0020142F002012DE1A34800294D
:104C300002680CBF22F4802142F4802124E19F48C5
:104C4000002902680CBF22F0006142F000611BE104
:104C50009A48426822F0080261F3C3024260C269C6
:104C600002F03F023F2AFAD1826822F00102114489
:104C70008160C169C907FCD017E1904800294268EA
:104C800000F0048142F400714160C16901F03F010C
:104C90003F29FAD1816841F010018160C169C906DC
:104CA000FCD5416841F0100106E184480029026802
:104CB0000CBF22F4002142F40021E5E07F480029E6
:104CC00002680CBF22F0807142F08071DCE07B480A
:104CD0000029426814BF42F0200122F02001EBE0DD
:104CE00076480029426800F0E18042F0040141600A
:104CF000416841F04001DFE07048002902680CBFC4
:104D000022F0080142F00801BEE06C480029026868
:104D10000CBF22F4806142F48061B5E0674800294D
:104D2000426814BF42F0010122F00101C4E063486F
:104D3000002902680CBF22F0040142F00401A3E044
:104D40005E48002902680CBF22F0805142F0805179
:104D50009AE05A48002902680CBF22F4804142F4CC
:104D6000804191E055480029426814BF42F48061B7
:104D700022F48061A0E05148002902680CBF22F4AF
:104D8000801142F480117FE04C48426822F0020218
:104D900061F341024260C26902F03F023F2AFAD148
:104DA000826822F0020261F341028260C1698907D0
:104DB000FCD57AE04148002902680CBF22F01001BE
:104DC00042F0100160E03D48002902680CBF22F06B
:104DD000200142F0200157E03848002902680CBF4A
:104DE00022F0005142F000514EE0344800290268A0
:104DF0000CBF22F0800142F0800145E02F4802689C
:104E000022F0400261F386120260C26902F03F02A2
:104E10003F2AFAD1826822F0080261F3C30282605D
:104E2000C1690907FCD540E02448002902680CBF8D
:104E300022F4006142F4006126E020480029026863
:104E40000CBF22F4003142F400311DE01B48002960
:104E500002680CBF22F0804142F0804114E000BFA4
:104E60000C00004022F400614160C16901F03F0183
:104E70003F29FAD1816821F020018160C16989064A
:104E8000FCD512E022F000410160704722F01001D1
:104E90004160C16901F03F013F29FAD1816821F0E9
:104EA00010018160C169C906FCD5704722F0040178
:104EB0004160416821F04001416070470C000040B2
:104EC00001464FF080400068C0F3023001380628E8
:104ED0009ABF10A252F820000D4801290ED00229D5
:104EE00003D0032913D10F2100E005214FF08042A8
:104EF0001268C2F30322D040072201E00F220821EA
:104F00004FF080431B6823FA01F11140C8407047FD
:104F100000366E01008000000080000000366E0147
:104F200000366E010048E80180EE3600006CDC02BD
:104F30003248006800F4C030704700BF2F48006856
:104F400000F4C040704700BF2C48006800F4C05017
:104F5000704700BF2948006800F4C060704700BF78
:104F600026494A6A920406D54A6822F480724A6049
:104F70004A6A9204FCD40A6822F06002FBF7E4BD9E
:104F80004FF080410A6822F47062FBF7DDBD00003B
:104F900008434FF08041024B0A681A40FBF7D4BD2A
:104FA0001F7FFCFF4FF080410A6822F4E042FBF7CC
:104FB000CBBD00000749884205D10748016841F090
:104FC0000401016070474FF080410A6822F00072CE
:104FD000FBF7BABD0100000210E000E007494A6A91
:104FE000520306D54A6822F480124A604A6A520384
:104FF000FCD40A6822F4C032FBF7A6BD08000040CA
:1050000070B50125541805FA01F20131CEB2B4424F
:1050100003D905FA06F63243F7E702EA0301044B27
:1050200043EA8000036823EA02021144016070BD74
:105030000080004080B5DB48DB499822FBF766F82A
:1050400080BD00BF70B514460E46054600B9256800
:1050500028463146FBF78BF8295C61B1054431469F
:105060002846FBF792F82918285C10B1002001F8B7
:10507000010B216000E00025284670BD026922EA8C
:10508000010101617047026822F0010211440160D0
:105090007047012AC26814BF22EA01011143C160AE
:1050A0007047012A426914BF22EA0101114341619C
:1050B000704700690840401AB0FA80F0400910704B
:1050C000704710B58A884FF6FF740368A24200D07B
:1050D0002AB923F07003002A08BF103302E023F03E
:1050E0006003134323F460728B8923F080031A4317
:1050F0008B7B63F3C71202600A688968C1628262AF
:1051000010BD026B22F001021144016370470021BF
:105110004FF4E13202606022817101734FF04071FF
:10512000828081607047002A826B14BF114322EA9B
:105130000101816370478069084018BF01207047F2
:1051400070B50446006B464E0D4620F0010020630A
:10515000E06A20F01000E0620020B442A0630CD0AE
:105160004048844211D0404884420AD0B4F1402FD4
:105170001CD1FFF7E3FE400B0AE0FFF7D9FEC00B9E
:1051800006E0FFF7E1FEC00A02E0FFF7E3FE400A97
:105190000138032803D235A151F8200009E0B442B8
:1051A00018BFB4F1402F01D1022000E00320FFF727
:1051B00087FE2968B0EB011F3CBF4FF0FF3070BD88
:1051C00061B10A01B0FBF2F303FB1200C000B0FBB7
:1051D000F1F0A0EB5000C0EA034000E00020010C19
:1051E00000F03F006162A06229796879AA792B7B7F
:1051F000E66A26F060063143E162E16A21F00801C7
:105200001143E162002BE16A21F0100118BF103157
:10521000E16298B1022809D0012813D1E06A40F078
:105220000200E062E06A20F004000AE0E06A40F078
:105230000200E062E06A40F0040002E0E06A20F070
:105240000200E0626889216B21F440710843206309
:105250002889216B21F4404108432063002070BD60
:1052600000300040001001400000014080EE360098
:105270000080000000366E018169C906FCD4006818
:10528000C0B2704782699206FCD40160704700008A
:10529000BFB50C2001210125FFF7D6FB204C0121D1
:1052A00001222046FFF7F5FE002069468DF80E50DA
:1052B000ADF80C004FF47A7002904FF6FF70ADF825
:1052C00004001F2000902046FFF7FBFE204601212E
:1052D0000122FFF7DEFE204601210122FFF7E1FE59
:1052E00020460121FFF7CAFE05484FF40001C0F82F
:1052F0008011016020460021FFF7C5FEBFBD00BF41
:1053000000E100E001490860704700BF2CA00040A8
:1053100003480121FFF7B7BE01480021FFF7B3BEE4
:1053200000A00040F8B5044652B100F04FF8054621
:1053300000206946002228602046FAF74CFF0DE065
:105340000F4600F043F80026054669460022066035
:105350002046FAF778FFF900C8400BD1286840B919
:105360000098051B2046FAF7FBFE854201D1012675
:1053700000E000263046F8BDB0B5094C0949982236
:105380002046FAF7C3FE084D2846FEF789FC28465A
:1053900021464FF48052BDE8B040FEF7A9BC00BFE3
:1053A0008C0C0020941C002000F000080FB4054B6A
:1053B00010B503A9044A029800F0DEF810BC5DF8AD
:1053C00014FB0000A13D00080000002000487047C9
:1053D0000400002002E008C8121F08C1002AFAD108
:1053E00070477047002001E001C1121F002AFBD165
:1053F000704700002DE9FF5F82B00021DDE9043035
:10540000020DDDF840B0034318D044F61050A2F26C
:10541000FF3242431514119801281FD0A5EB0B0051
:10542000401C5FEA000A4FF000064E4FDFF838914B
:10543000B046504615D5CAF1000413E01198012476
:105440004AA3012801D16FEA0B010298119AC0E921
:105450000031C0E9024206B0BDE8F09FCBF1000088
:10546000DFE704460021404A491842EB0450CDE9E9
:10547000001012E0E00707D032463B46404649465E
:10548000FAF7C1FF8046894632463B461046194628
:10549000FAF7B9FF06460F466410002CEAD1DDE9A1
:1054A0000401DDE90023BAF1000F06DAFAF7ABFFD9
:1054B00042464B46FAF7A7FF05E0FBF716F84246CF
:1054C0004B46FBF712F804460E460022284BFBF72A
:1054D0004FFA03D84FF0FF30014607E00022254B7A
:1054E00020463146FAF7E8FEFBF729FA102409E0D6
:1054F000002C0ADB0A220023FBF7D1F8039B303291
:105500001A55641E50EA0102F2D1641C039AC4F1D8
:1055100011031444119A012A03D0012208430DD12A
:105520000AE0084304D000204FF0110B119072E7FD
:10553000A3EB0B056D1E0DE05B4504DD4FF0000293
:1055400005F1010504E003DA4FF00002A5F10105C1
:10555000002AECD002981199C0E90231C0E9004557
:1055600079E70000000014400000F03F3000000028
:105570000000F0430000E03F2DE9FF4F95B09B464F
:105580008946064600250FE2252877D100242746C4
:10559000F84A0121059400E0044316F8013F203B3E
:1055A00001FA03F01042F7D130782A2811D06FF0B9
:1055B0002F033078A0F13002092A16D8059A44F05A
:1055C000020402EB820203EB42021044761C0590B7
:1055D000EFE759F8042B0592002A03DA504244F40D
:1055E0000054059044F00204761C30782E2816D121
:1055F00016F8010F44F004042A280DD06FF02F0292
:105600003078A0F13003092B09D807EB870302EBB0
:105610004303C718761CF3E759F8047B761C3078EF
:105620006C280FD006DC4C2817D068280DD06A28CB
:1056300014D104E0742810D07A280FD10DE044F47E
:1056400000140AE044F4801401E044F44014727839
:10565000824202D104F58014761C761C30786628CC
:105660000BD013DC582877D009DC002875D04528EA
:10567000F6D04628F4D047281AD19DE118E06328D7
:1056800035D0642879D0652812D195E1702873D07F
:1056900008DC6728F1D069286FD06E280DD06F28FC
:1056A00006D1B5E073282CD0752875D0782874D031
:1056B0005A46179990476D1C75E1C4F302500228B1
:1056C00009D003280DD0D9F8001004280DD00D60A2
:1056D00009F1040967E1D9F80010EA17C1E900529D
:1056E000F6E7D9F800100D80F2E70D70F0E719F831
:1056F000041B8DF8001000208DF80100EA460120FF
:1057000003E059F804AB4FF0FF3061074FF00001A0
:1057100002D40DE008F101018846B9420FDA804554
:10572000F8DB1AF808100029F4D108E008F10101AB
:1057300088468142FADB1AF808100029F6D105984C
:105740005B46A0EB080721463846179A00F094FA0A
:10575000284400EB080507E04DE029E10DE01AF8C8
:10576000010B5A4617999047B8F10108F7D25B46EA
:1057700021463846179A13E142E00A220092C4F308
:1057800002524FF0000A022A08D059F804CB032A2B
:105790004FEAEC710AD00DE029E02AE009F1070197
:1057A00021F00702F2E802C1914609E00FFA8CFCF1
:1057B0004FEAEC71042A03D14FFA8CFC4FEAEC71EA
:1057C000002907DA0A460021DCF1000C61EB020136
:1057D0002D2202E0220504D52B228DF8042001227F
:1057E00003E0E20701D02022F7E7904659E00A21C2
:1057F00002E010220DE010214FF0000A00910BE0B2
:1058000010224FF0000A44F004040827009203E03D
:1058100008224FF0000A0092C4F30252022A05D077
:1058200059F804CB0021032A08D009E009F1070147
:1058300021F00702F2E802C1914605E01FFA8CFC54
:10584000042A01D10CF0FF0C4FF00008220728D5E4
:10585000702806D0009B83F0100353EA0A0305D09A
:105860000EE040228DF80420012208E05CEA0102EB
:1058700006D030228DF804208DF8050002229046D3
:10588000009B83F0080353EA0A030AD15CEA010291
:1058900001D1620705D530228DF804204FF00108B0
:1058A0007F1E582804D034A003900EA802900DE06B
:1058B00036A0F9E753466046009AFAF7F0FE8446B0
:1058C0000398825C0298401E029002705CEA01001C
:1058D000F0D1029806A9081A00F1200A600702D543
:1058E00024F4803400E00127574502DDA7EB0A00CD
:1058F00000E0002000EB0A01009005984144401AA6
:105900000590E00306D45B462146179A059800F0FF
:10591000B3F90544002706E001A85A46C05D17996F
:1059200090476D1C7F1C4745F6DBE0030CD55B46BA
:105930002146179A059800F09FF9054404E03020AD
:105940005A46179990476D1C0099481E00900029EF
:10595000F5DC08E0029802995A460078491C029149
:10596000179990476D1CBAF10001AAF1010AF1DC08
:1059700065E1000009280100303132333435363713
:10598000383961626364656600000000303132338B
:10599000343536373839414243444546000000002B
:1059A00000F058F90544761C307800287FF4ECADFF
:1059B00019B02846BDE8F08F620700D4062709F128
:1059C000070222F0070CFCE80223E14603F000483E
:1059D0005FEA080C02D00FF2702C0DE05FEA045C65
:1059E00002D50FF2682C07E05FEAC47C02D00FF208
:1059F000602C01E0AFF2700C4FF0FF3823F0004351
:105A0000CDF850C065280CD006DC452809D04628C2
:105A10001DD047283DD13DE0662818D067287ED1AB
:105A200038E00021112F01DB112000E0781CCDE9C6
:105A3000000106A90EA8FFF7DDFCDDE90F010E9AB3
:105A400003910021009207F1010A04914DE04FF00B
:105A500000400097CDE9011006A90EA8FFF7CAFC87
:105A6000DDE90F0203920E9B11990022DDF80CA0D4
:105A70000093049211B9791C00EB010AB7EB0A00FC
:105A800004D4C0F1FF3007F1010A0490AAEB07002B
:105A9000019044E0012F00DA01270021112F01DDE0
:105AA000112000E03846CDE9000106A90EA8FFF755
:105AB000A1FCDDE90F010E9A0391002104910092EF
:105AC000BA4621070CD40399514500DA8A46BAF147
:105AD000010F05DD009AAAF10101515C302908D0BF
