:020000040800F2
:10000000000700204D010008C30E0008650B000822
:10001000C10E00085F0B0008671800080000000010
:100020000000000000000000000000007511000842
:10003000610B000800000000950F00085117000830
:1000400067010008670100086701000867010008F0
:1000500067010008670100086701000867010008E0
:1000600067010008670100086701000867010008D0
:1000700067010008670100086701000867010008C0
:100080006701000867010008490B000867010008C4
:100090000000000067010008670100086701000810
:1000A0005F18000867010008670100086118000870
:1000B0006701000867010008670100086701000880
:1000C0006701000867010008670100086701000870
:1000D000631800086701000867010008670100084D
:1000E0006701000867010008670100086701000850
:1000F000670100080000000000000000630B00081A
:100100006701000867010008711100085D0B000815
:10011000670100086701000867010008670100081F
:10012000670100086701000867010008670100080F
:100130006701000867010008DFF80CD000F0A0FCA0
:1001400000480047992A0008000700200648804719
:1001500006480047FEE7FEE7FEE7FEE7FEE7FEE7AC
:10016000FEE7FEE7FEE7FEE75D180008390100083C
:10017000202A04DB203A00FA02F100207047914067
:10018000C2F1200320FA03F319439040704710B5E1
:10019000431A934209D28318881803E010F8011D0E
:1001A00003F8011D521EF9D210BD40EA01039B075E
:1001B00003D009E008C9121F08C0042AFAD203E0DC
:1001C00011F8013B00F8013B521EF9D210BDD2B22A
:1001D00001E000F8012B491EFBD270470022F6E730
:1001E00010B513460A4604461946FFF7F0FF2046AD
:1001F00010BDCAB2401E10F8011F8A4202D0002969
:10020000F9D100207047421C10F8011B0029FBD1D6
:10021000801A704730B503461D783DB10A4612F882
:10022000014B1CB1AC42FAD15B1CF5E7181A30BD8A
:1002300030B50546002008E00A4602E0A34207D098
:10024000521C1378002BF9D1401C2C5C002CF3D1EC
:1002500030BD2DE9F0410E460546002400E0641C47
:10026000285D00F0DBF90746305D00F0D7F9381A59
:1002700002D1295D0029F2D1BDE8F0812DE9F047D6
:1002800091460F4680460446002614F8015B2DB1C6
:1002900000F0C0F90068405DC007F6D12B2D02D0F8
:1002A0002D2D18D0641E4A463946204600F0BCF970
:1002B00027B13968A14201D1C7F8008071054FF01C
:1002C00002040BD54042002803DD03F0CBFA0460A2
:1002D000A007BDE8F08746F48066E4E70028F8DA76
:1002E00003F0C0FA04606FF00040F2E72DE9F05F20
:1002F00093460F4680460446002603F0B3FAD0F832
:100300000090824614F8015B2DB100F083F900687B
:10031000405DC007F6D12B2D02D02D2D1AD0641EC2
:100320000021CAF800105A463946204600F07CF9F0
:10033000014627B13868A04201D1C7F80080DAF839
:100340000000022809D0CAF80090700505D548427F
:10035000BDE8F09F46F48066E2E70846F8E780EAE9
:10036000010210B502F00043400022D04A001FD025
:10037000010E01EB1261C0F35600C2F3560240F4C5
:10038000000042F40002A0FB022000047F391404A4
:1003900000D0401C50EA124001D44000491EC2B2B5
:1003A0000C0604EBD010401C4008802A02D003E069
:1003B000002010BD20F00100002900DA00201843C1
:1003C00010BD2DE9F04D81EA030404F0004B21F04B
:1003D000004514464FF0000A23F0004150EA0502A0
:1003E00020D054EA01021DD0C5F30A570246C5F3D6
:1003F0001303C1F31300C1F30A5640F4801543F40C
:100400008013A7EB0608101BD64608F2FD3873EBE5
:10041000050002D308F1010801E092185B41B8F130
:10042000000F03DA00200146BDE8F08D00204FF4F4
:100430008011064684460EE0171B73EB050705D3B3
:10044000121B63EB050306434CEA010C49084FEA13
:10045000300092185B4150EA0107EDD152EA0300E7
:1004600012D082EA040083EA0501084305D0101B7C
:10047000AB4106D20122002306E000224FF00043E8
:1004800002E06FF0010253101AEB06004CEB08512A
:1004900010EB0A0041EB0B01BDE8F04D00F04AB94A
:1004A000002801DBC0F10040002901DBC1F100415F
:1004B000814201D80120704700207047002801DBED
:1004C000C0F10040002901DBC1F10041814201D2AD
:1004D0000120704700207047C10F80EAE070084497
:1004E000CA079623002100F0F7B896230022114690
:1004F00000F0F2B80EB540F2334102910021CDE98F
:1005000000110A460B4600F024F903B000BDC1F308
:100510000A5210B5C1F3130140F2FF3341F48011C8
:100520009A4201DA002010BD40F233439A42A2F20F
:10053000334203DC524200F05DF810BD904010BD24
:1005400000F0004230F000400AD0C10D01F56071AA
:10055000C0F3160042EA0151C20840071143704738
:1005600000200146704730B50B460146002020228E
:10057000012409E021FA02F59D4205D303FA02F5B0
:10058000491B04FA02F52844151EA2F10102F1DC10
:1005900030BD2DE9F05F0546002092469B46884617
:1005A0000646814640241BE02846414647462246EF
:1005B00000F020F853465A46C01A914110D3114614
:1005C00018462246FFF7D4FD2D1A67EB01084F4667
:1005D000224601200021FFF7CBFD17EB00094E4119
:1005E000201EA4F10104DFDC484631462A4643467A
:1005F000BDE8F09F202A04DB203A21FA02F0002116
:10060000704721FA02F3D040C2F120029140084322
:100610001946704700487047E8410008A0F14101C1
:10062000192900D8203070472DE9F05F8246007804
:10063000002715468B460AF10104B946302801D03F
:100640009DB113E014F8010B0127782803D0582836
:1006500001D045B10AE00DB1102D07D100271025BA
:1006600014F8010B02E0082500E00A250026B04638
:100670000EE005FB080005FB06F1012701EB104623
:100680001FFA80F8B6F5803F00D3B94614F8010B85
:10069000294600F01FFA0028EBDABBF1000F05D065
:1006A0000FB1641E00E05446CBF80040B9F1000FD2
:1006B00006D003F0D7F802210160C81EBDE8F09F04
:1006C00048EA0640FAE70029A8BF7047401C4900E5
:1006D00008BF20F00100704710B4B0FA80FC00FAA7
:1006E0000CF050EA010404BF10BC704749B1CCF1D2
:1006F000200421FA04F411FA0CF118BF012121435E
:100700000843A3EB0C01CB1D4FEA00614FEA102018
:1007100042BF002010BC704700EBC35010440029BA
:10072000A4BF10BC7047401C490008BF20F0010066
:1007300010BC704710B5141E73F1000408DA401C99
:1007400041F1000192185B411A4301D120F00100F0
:1007500010BD2DE9F04D92469B4611B1B1FA81F2E0
:1007600002E0B0FA80F220329046FFF701FD044625
:100770000F4640EA0A0041EA0B0153465A46084335
:1007800013D0114653EA010019D0C8F14002504677
:10079000FFF730FF05460E46504659464246FFF7E2
:1007A000E7FC084305D0012004E020463946BDE8B7
:1007B000F08D0020054346EAE0762C4337430A9843
:1007C0006305E40AA0EB08000022FD0A44EA47544E
:1007D0000A3002D500200146E9E7010510196941F8
:1007E000DDE9084500196941BDE8F04DA2E72DE9B2
:1007F000FE4F804681EA0300C00F0C46009021F0B6
:10080000004123F00045B8EB0200A94105D2404663
:10081000214690461C460B46024623F000401043FA
:1008200047D0270DC7F30A00C3F30A510290401ABC
:10083000019040286BDAC3F3130040F4801B00984A
:10084000924620B10023D2EB030A63EB0B0B019815
:100850005946C0F140025046FFF78AFC06460D4655
:1008600050465946019A00F023F910EB0800614107
:10087000002487EA115284EAE7731A4340D0009AB1
:1008800062B3019A012A4FEA075215DC001B61EBA3
:1008900002014FF0004202EA0752CDE90042001C7B
:1008A00041F5801132462B46FFF753FF03B0BDE8F8
:1008B000F08F40462146F9E7001B61EB0201001C66
:1008C00041F5801300185B412018A2F5001747EB93
:1008D000030140EAD570B6196D4111E06D084FEA89
:1008E000360645EAC0754FEA0752001B61EB02016C
:1008F000001C41F5801149084FEA300000195141B0
:1009000032462B4603B0BDE8F04FFFF713BF009807
:10091000012240000023D0EB020263EBE073009859
:1009200021464FEAE074B8EB000061EB0401E9E70F
:1009300083F000435BE781F0004158E72DE9FE4F6B
:1009400081EA030404F0004421F0004100944FF0D8
:10095000000B23F0004350EA01045ED052EA030486
:100960005BD0C3F30A54C1F30A552C44A4F2F33408
:100970000194A0FB0254C1F3130141F48011C3F3AD
:10098000130343F4801301FB024400FB034E840A6B
:10099000970A44EA815447EA8357A4FB0768029503
:1009A0008D0A05FB07854FEA932C04FB0C542705A1
:1009B000029D4FEA065847EA1637B5EB08056EEB7D
:1009C000070C870E920E47EA811742EA8312A7FBB3
:1009D0000201B6EB0B0164EB00042B0D43EA0C3370
:1009E0005E1844EB1C50DA465146E7FB0201C5F3A2
:1009F00013044FEA0B3343EA14534FEA0432019CC9
:100A000043EA0603A4F10C040294009CCDE900B46F
:100A1000FFF79FFE03B0BDE8F08F00200146F9E725
:100A2000C1F30A52C1F3130140F2FF3341F48011C4
:100A30009A4202DA00200146704740F233439A425C
:100A4000A2F2334202DC5242FFF7D4BDFFF790BB63
:100A500030B5041E71F1000404DB4FF00044404245
:100A600064EB0101141E73F1000405DB1C464FF01A
:100A70000043524263EB0403994208BF904230BDE9
:100A80001CB509480090094801900546009C06E005
:100A9000E06840F0010394E8070098471034AC4246
:100AA000F6D3FFF74DFB0000C4460008F4460008EB
:100AB000202A06DBCB17203A41FA02F043EAE07322
:100AC00006E041FA02F3D040C2F12002914008430F
:100AD000194670473A2800D2303820F02002412AC7
:100AE00001D3A2F13700884201D34FF0FF307047A5
:100AF00070B58C1810F8015B15F0070301D110F8E0
:100B0000013B2A1106D110F8012B03E010F8016B0C
:100B100001F8016B5B1EF9D12B0705D40023521E8F
:100B20000DD401F8013BFAE710F8013BCB1A921CF7
:100B300003E013F8015B01F8015B521EF9D5A142F5
:100B4000D8D3002070BD000003480168490702D5D2
:100B500004210160006C7047002401407047FEE7EB
:100B600070477047FEE7000081B005490A680243FC
:100B70000A60096808400090009801B0704700BF03
:100B80004C0000582DE9F84F054620300C464FF038
:100B9000010A4FF4FF7B4FF003080090086805F14D
:100BA000240990FAA0F0B0FA80F0C7B2206830FAB9
:100BB00007F16ED00AFA07F110EA010667D000F0DB
:100BC00084F960680138012819D8A068A96896FAE4
:100BD000A6F2B2FA82F20BEA420208FA02F291435A
:100BE00096FAA6F2B2FA82F20BEA42029040084369
:100BF000A860E06869687043B14308436860206991
:100C0000E96896FAA6F2B2FA82F20BEA420208FA10
:100C100002F2914396FAA6F2B2FA82F20BEA42028B
:100C200090400843E860606802282ED1D4F814E0B0
:100C3000320A4FF47F7C11D0D9F8001092FAA2F357
:100C40000F20B3FA83F392FAA2F20CEA8303B2FA0A
:100C500082F200FA03F399434B4610E0009B0F2108
:100C6000186896FAA6F2B2FA82F20CEA820201FA47
:100C700002F220EA020196FAA6F2B2FA82F20CEA35
:100C800082020EFA02F00843186000F01EF90137E4
:100C90008CE70120BDE8F88F70B5036891FAA1F4E4
:100CA0004FF4FF750326B4FA84F491FAA1F105EA32
:100CB0004404B1FA81F105EA410106FA04F4A343C0
:100CC00002FA01F11943016070BD000010B51C4C1F
:100CD0000328D4F880100CD101F00300DFE800F005
:100CE00002161A1F00F058F921682268C2F3C222C6
:100CF0001DE0014041EA0040A0F540204FEAB0006D
:100D000003280CD0022805D001280AD1BDE81040E4
:100D100000F042B94FF0B040DC4900F02CB900F0CF
:100D2000FBB800F039F921682268C2F30222054BB2
:100D300053F822203C2303EA9101034B00F004B94D
:100D400008000058404200080042000802685206AD
:100D50004FF0000234D42DE9F04703684FF6BF741A
:100D6000D1E900E8D1E9026A23EA040CD1E904944C
:100D7000D1E906534CEA0E0747EA080747EA0A0793
:100D800047EA09073D4340F604772B4343EA04054D
:100D90000B6A1D4305604568BD4345EA144434436E
:100DA0004460B2EBD62FBDE8F04703D1426842F46D
:100DB00080524260B3F5005F04BF898C016101225B
:100DC000C16921F40061C1611046704701490860A2
:100DD000704700BF0880002070B504460068C00757
:100DE0001CBF002070BD0D462068264905F108068D
:100DF00008404ECE0843E969184330430843206059
:100E0000606820F4405010436060A869A16821F434
:100E100040710843A0601C48844204D01B488442AF
:100E20001FD10C2000E00320FFF750FFC8B1696814
:100E3000B9B12A680B2A1CD815A353F82220B0FB9D
:100E4000F2F0EA69B2F5004F0DD1400000EB51001D
:100E5000B0FBF1F04FF6F0710140C0F342000844DE
:100E600006E0002006E000EB5100B0FBF1F080B29C
:100E7000E06001202988E26A22F00F021143E1625A
:100E800070BD00BFF369FFEF00380140004400402F
:100E90000100000002000000040000000600000045
:100EA000080000000A0000000C0000001000000014
:100EB0002000000040000000800000000001000051
:100EC000FEE7FEE7486800F019BD62682846314633
:100ED000FFF7E2BE4FF03F41FFF741BA9DF8050032
:100EE0003870BDF8060000BA000C3080BDF808006C
:100EF00000BA000C2880BDF80A0000BA000C20805F
:100F0000FEBD4DF808ED14460D46064600F008FB00
:100F10005DF808EB02F042BCD4F888004FF40041C1
:100F200001EA803010BD94F8291040F6121000F04C
:100F3000EABB9DF800009DF801109DF802209DF885
:100F400003303870317070475958B0FBF1F0D04021
:100F500010BD94F8281040F6111000F0D4BB8DF8A5
:100F60000600200C8DF805007047022000F05EBBE3
:100F7000012200F0ABBB0068400501EAE07010BD43
:100F8000142004221C4600F011BB102007221C462E
:100F900000F00CBB704700003B4951F8040CC0F353
:100FA00081023A48DFE802F0026F0F194FF0B040BB
:100FB00002680068120724D4000731D4D1F88800F1
:100FC000C0F303203BE04FF0B0410968C9025CBFA9
:100FD00044F60000C0F2E81070470A6802F003020D
:100FE000DFE802F002023E144FF0B04002680068F1
:100FF00012071AD4000726D4D1F88800C0F30320C2
:101000002BE0000716D4D1F888000CE04FF0B04276
:101010001268D2025CBF44F60000C0F2E8101FE084
:101020004FF0B0400068002009E0000710D4D1F86C
:1010300088000BE04FF0B0400068C0F30310144983
:1010400051F8200070474FF0B0400068002004E0E5
:101050004FF0B0400068C0F303100D4A52F8200072
:1010600010B50A680B6809680124C2F3062204EB74
:1010700051715043C3F302120132B0FBF2F0B0FBE6
:10108000F1F0BDE8104070470C0000580024F40057
:101090006042000810B5174C207808B900F018F825
:1010A00060680128BCBF4FF0FF3010BDA068074941
:1010B000085CA1680131A160A168B1F5007F04BF9F
:1010C0000021A16061680139616010BDE5830020E5
:1010D00080B5074800214FF4806200234FF0FF30B5
:1010E0004FF4E13001F01EFD02480121017080BD86
:1010F0000080002030820020B0B58CB001AC2821E7
:101100002046FFF76BF81848184D016841F00101BF
:1011100001600821006800F001000B900B9828681E
:1011200020F040002860002007910721CDE9090147
:101130004FF4E06108900590049003914FF4007122
:1011400006914FF48271CDE9010128462146FFF74F
:10115000FDFD686820F010006860286840F04000DD
:1011600028600CB0B0BD00BF6400005800000158FA
:1011700000F0E6B970470000DF480A494FF47F727B
:101180008068B0FBF1F1B1F57F7F28BF1146880878
:1011900001EB5101B1F57F7F38BF0A46910800F09D
:1011A00003B800BF40420F00E0B58DF807108DF87E
:1011B00006000DF106019820022200F087FA8CBD8E
:1011C000E0B540BA0DF106010222ADF8060002209A
:1011D00000F07CFA8CBDE0B50DF105011220032270
:1011E00000F0E4F9BDF8060000BA000C8CBDF8B5BB
:1011F00015460E4607466946FFF7C2FEFFF799FE01
:101200002A802370F8BDE0B50DF1060115200222F9
:1012100000F0CCF99DF807008CBD7CB514460D4656
:1012200006460DF105011320032200F0BFF99DF8D9
:1012300005009DF806109DF8072030702970227077
:101240007CBD9421002840F6AC0018BF962100F028
:101250005ABAFEB515460E4607460DF10501FFF7D1
:1012600094FEFFF73BBEE0B5002069460622ADF8CC
:101270000400009000F02AFA8CBDE0B58DF807104C
:101280008DF806000DF106018F20022200F01EFAF3
:101290008CBD80B500F0C8F9D12000210022BDE846
:1012A000804000F013BAE0B58DF807000DF107019A
:1012B0009D20FFF75DFE8CBDE0B58DF804006FF05A
:1012C0007F40814238BF08468DF80700010A000CB4
:1012D00004228DF805008DF8061001A9972000F072
:1012E000F5F98CBDE0B58DF80520120A8DF80310D4
:1012F000090A8DF80100000A8DF807301B0A8DF8E5
:1013000004208DF802108DF800006946082008229C
:101310008DF8063000F0DAF98CBDC12000210022E2
:1013200000F0D4B91CB58DF807308DF806200529DA
:1013300098BF052104460C2928BF0C218DF8050013
:101340008DF8041001A98B20042200F0BFF9063C9F
:1013500040F6890018BF012400F03EF900F0FB00C0
:1013600040EA840140F6890000F0CDF91CBD1CB5AF
:101370008DF805108DF806308DF80420012898BFEF
:1013800001208DF80300049C0DF10201000A0622E1
:101390008DF802008C208DF8074000F097F940F29C
:1013A000367000F019F900F0FB0140F23670002CA5
:1013B00008BF043100F0A7F91CBDE0B501238DF88A
:1013C00006208DF804008DF80730072928BF072173
:1013D0008DF8051001A99520042200F077F98CBD45
:1013E000E0B58DF807000DF107018A20FFF7C0FD79
:1013F0008CBDE0B5002818BF01208DF807000DF165
:1014000007019620FFF7B4FD8CBDE0B500BA0422B9
:10141000019001A9862000F059F98CBD1CB56FF030
:101420007F44A04238BF044600F0FCF8200A0DF1CA
:10143000050103228DF80740FFF791FD822000F09F
:1014400045F91CBDE0B561F382000DF107010122F1
:101450008DF80700842000F039F98CBDE0B5002834
:1014600018BF01208DF807000DF107018020FFF75C
:101470007FFD8CBD1CB56FF07F44A04238BF044691
:1014800000F0D2F8200A0DF1050103228DF8074083
:10149000FFF765FD832000F019F91CBD80B500F051
:1014A000C3F8D22000210022BDE8804000F00EB930
:1014B0001CB50420072100220024FFF77EFF40F620
:1014C000E700382100F01FF90B480DF10601022258
:1014D0008DF80740007B8DF806008E2000F0F6F8AE
:1014E00040F6D80000F078F840F01E0140F6D80031
:1014F00000F009F91CBD00BF4C82002080B502F04D
:101500004DF9012001F07EF9C02002F04FF90020D2
:1015100002F04CF902F0CCF8BDE88040AFF3008057
:1015200005480649013002D00A689207FAD400281B
:1015300018BF0120704700BFEFD8FFFF1404005808
:1015400010B5FFF748FE044647F6FF70FFF738FE78
:10155000E00702D0064801210170A00702D5054826
:1015600001210170600602D503480121017010BD00
:10157000408200204182002042820020F8B5FFF71F
:10158000C0FC724F1E20B8473046B847FF20B8470E
:1015900034B1FF2002F00AF905F8010B013CF7E72E
:1015A00002F086F8BDE8F840FFF7BABFF8B5FFF7DC
:1015B000A8FC304602F0FAF80026F7B2BC4205D982
:1015C000FF2002F0F3F8E8550136F6E702F070F874
:1015D000BDE8F840FFF7A4BFE0B50DF10701012217
:1015E00000F004F89DF807008CBD0000F8B5FFF787
:1015F00088FC564F1D20B847300AB847F0B2B847AC
:10160000FF20B84734B1FF2002F0D0F805F8010BF5
:10161000013CF7E702F04CF8BDE8F840FFF780BF67
:1016200002F096B802F0ACB802F0B0B807280BD8B8
:10163000DFE800F0041621270A2C111C17480021AE
:1016400001700020FFF7FEBE1448042101706FF006
:101650007F40FFF7E3BE114806210170FFF719BE76
:101660000E48012101700020FFF7F8BE0B4807214A
:101670000170FFF713BF0948022101700120FFF735
:10168000EDBE064803210170FFF747BE0348052160
:1016900001706FF07F40FFF7EDBE00BFD4820020E5
:1016A00070B5FFF72EFC0E2002F080F8304602F0F5
:1016B0007DF82CB115F8010B02F078F8013CF8E741
:1016C00001F0F6FFBDE87040FFF72ABFF8B51546F8
:1016D0000E460446FFF724FF02F060F8204602F0B1
:1016E00065F80027F8B2854204D9305C02F05EF854
:1016F0000137F7E701F0DCFF842C08BFF8BDBDE837
:10170000F840FFF70DBFE0B58DF807100DF10701A8
:10171000012200F001F88CBDF8B5FFF7F2FB0B4F8A
:101720000D20B847300AB847F0B2B8470026F0B2EB
:10173000844204D9285C02F039F80136F7E701F059
:10174000B7FFBDE8F840FFF7EBBE00BFAD370008BC
:101750001048017801291CD10F4A1168013111602C
:101760000E49096813688B4213D3002111600C4A9B
:101770001368013313600B4B12681B689A4205D93A
:1017800001700948017009A002F0DABC0648012185
:1017900001707047A8820020C48200202C820020A3
:1017A000B082002000870020A982002054583A20EF
:1017B000444F4E450D0000004FF0B04121480A68EB
:1017C00012F0080208BF00F18C0109684FF0040212
:1017D00008BF0822D1401C4A01F00F0152F8211025
:1017E0000268C2F38102B0B5DFE802F0200204060D
:1017F00016491BE0164919E0426802F003034268EB
:10180000C2F302120132022B03D0032B08BF10498E
:1018100000E00E494368B1FBF2F144680125C3F3CF
:10182000062205EB54745143B1FBF4F1094A3C2301
:101830001160006803EA9000074B1858B1FBF0F004
:101840001060B0BD08000058604200080024F40099
:101850000048E801088000200042000870477047F7
:10186000704700F015B8FEE7642000F0CBFF064893
:10187000BFF34F8F054A016801F4E0611143016035
:10188000BFF34F8FFEE700BF0CED00E00400FA0548
:101890000E480168890618D581680D480D4BC2684D
:1018A0009954C1680131C160416801314160C1682A
:1018B000B1F5007F04BF0021C1604168B1F5007F30
:1018C00003DB0021C1604160816070471C3801402A
:1018D00030820020E5830020022988BF704702A0E3
:1018E00050F8210002F02CBCF84200081C4300080C
:1018F0004443000800210022FEF7C0BC0021002262
:10190000FEF7F4BC50B149B110B50446002004F113
:10191000080C21602071ACE80D0010BD012070475B
:101920002DE9F84F8046002600270446CCB12068F8
:10193000B8B1FEF768FC0546606810B1FEF763FCBD
:1019400000E00020AF42C8BF3D46A168002918BF93
:101950002F468642C8BF3046002918BF06461034BD
:10196000E4E720A002F0ECFB264802F0E9FB754218
:101970007E422D4FDFF894B028A40FF28C090FF2AD
:10198000900AB8F1000F27D0D8F8002022B3D8F879
:101990000800B8B14846314601F054FFD8F80400B9
:1019A0005A4620B10178002908BF584602465046E1
:1019B000294601F047FFD8F80C1039B1087828B152
:1019C00015A001E02046114601F03CFF384602F028
:1019D000B7FB08F11008D4E7134802F0B1FB01206F
:1019E000BDE8F88F3C636F6D6D616E643E203C61B5
:1019F0007267733E203C68656C7020746578743E35
:101A00000D0000006A460008252A73000B460008F6
:101A100020252A730000000020257300202D2D2D85
:101A2000202573202D2D2D00BD4600082DE9F04FF7
:101A30009BB0002800F03A81002900F0378104466D
:101A4000D0E902B015465A44824280F031812068C4
:101A50002A465844FEF79BFBA0684FF0000A00237B
:101A600000262844A0600AA904310691834580F02D
:101A70002181216811F80B80B8F10A0F05D0B8F167
:101A80000D0F02D00BF1010BF0E701F80BA05B4545
:101A900000F0FB8020682169C518CDE9083128468F
:101AA00029460A78082A03D03AB100F8012B02E04F
:101AB000A84288BF01380131F3E7844980F800A0CB
:101AC00028461AAA01F0D8FD002800F0DD80DDF8D4
:101AD00024A007460796BAF1000F12D0DAF800608A
:101AE000002EB14618BF4FF0010912D0DAF80800F5
:101AF00020B138463146FEF7ACFBD0B10AF1100AEE
:101B0000E9E7099880B3079E4FF000094FF0000AFB
:101B100006E001200999079E4FF0000A29B120B183
:101B200028466BA1FEF795FBC8B1B9F1000F1ED096
:101B3000AAE066490A9600201AAA002601F09CFD38
:101B40000127E0B10AA90F2F41F8270036D05F49DD
:101B500000201AAA01F090FD01360137F1E709983B
:101B6000FFF7DEFE18B18FE0079E4FF0000A002F4E
:101B700000F08A8038460021FFF7AEFE84E0DAF8F4
:101B8000040000286DD001783F2902D14178002956
:101B900067D00390FEF737FB029003982A21FEF7E7
:101BA00028FB68B1DDE9022E0EEB02010139884203
:101BB00063D1012A61D0901E009005E001215DE013
:101BC000029ADDF80CE000920EEB020000234FF0C9
:101BD0002E0C0190002E41D0934205DA1EF803002E
:101BE0002A2818BF844604E0019810F8010C2A281E
:101BF00043D1ACF17300022104280CD8CDE904C311
:101C0000DFE800F0033C1D100D00069804210122BE
:101C100050F8230018E0BCF1620F1CD02EE00698AB
:101C200004210EE00698002250F8230001F0CEFDBA
:101C30000221DDE904C3DDE9022E60B91EE0069849
:101C4000012150F82300002201F0C0FDDDE904C3AA
:101C5000DDE9022E88B1013E0133BBE700988742DF
:101C60000BDDDAF8082038460AA99047DAF80000B8
:101C70000027B0FA80F040094CE702212846FFF720
:101C80002BFE079E4FF0000A089BB8F10A0F08BF11
:101C90005B4507D00136A0680BF1010B84F8048086
:101CA0005B46E3E620790D28F5D0F3E7FF2608E050
:101CB000FE2606E02BB1C21A2068A260C118FEF70A
:101CC00066FA70B21BB0BDE8F08F00BFBF460008D7
:101CD00068656C700000000080B507A001F0B2FDDF
:101CE00001F014F918B1BDE8804001F0A5B805482D
:101CF000BDE8804002F024BA434C525F5354415433
:101D0000533A20000E430008F8B548680D46FFF727
:101D1000F5FD0446A868FFF7F1FD05460AA002F0AC
:101D20000FFA0C4F6E46AC420DD82046314601F0FA
:101D30008FFA30B9009A3846214601F083FD01340C
:101D4000F1E701F079F8F8BD44554D505F52454731
:101D5000533A0D00BE4200081CB501A801F035F948
:101D6000044608A001F06EFD1CB1204601F064F8A5
:101D70001CBD0198FEF7E4FB024605A00B4601F0EE
:101D800061FD1CBD4745545F525353493A20000042
:101D9000252E31662064426D0D0A0000E0B50EA0CC
:101DA00001F050FD0DF107000DF106010DF10502E6
:101DB00001AB01F0B0F810B101F03EF88CBD9DF818
:101DC00004009DF805309DF806209DF8071000904E
:101DD00004A001F037FD8CBD4745545F434849508E
:101DE0003A20000025642C25642C25642C25640DE4
:101DF0000A0D0A000248416802A001F023BD00BF9D
:101E00004C8200204745545F44455649443A2030AF
:101E100078253034580D0A0004484FF47A718068F0
:101E2000B0FBF1F102A001F00DBD00BF4C8200201B
:101E30004745545F465245513A2025750D0A00002A
:101E40001CB517A001F0FEFC0DF106000DF1050117
:101E500001AA0DF1030301F063F810B100F0ECFFEB
:101E60001CBD474CBDF806101148627B01F0EAFC2E
:101E7000104801F0E7FC9DF8040004289ABF0F49C0
:101E800051F820000C4802F05BF90D4801F0DAFC33
:101E9000207C01280CBF3448344802F051F91CBDA5
:101EA0004745545F4D4F44504152414D533A2000F5
:101EB000CA4200086C430008EF420008EC410008E9
:101EC000704300082DE9F041124DDFF8B48E12A0E6
:101ED000EB7DAA8A698AC047A97D214E1F481E4A08
:101EE000012908BF1046B0471E48C047287E1F4C36
:101EF0001D4F0128204608BF3846B0471C48C04740
:101F0000687E3146012808BF3C462046BDE8F041C6
:101F1000084700BF4C8200204745545F5041434B67
:101F20004554504152414D533A0D0A53594E433D89
:101F30003078253034582C5052455F4C454E3D2565
:101F4000640D0A5041595F4C454E3D25640D0A48C9
:101F500045414445523A0000304300083A430008E6
:101F6000414100085D43000812430008094300088E
:101F700062430008024890F90C1002A001F062BC14
:101F80004C8200204745545F504F5745523A202518
:101F9000642064426D0D0A00E0B50AA001F052FC15
:101FA000684601F01DF810B100F046FF8CBDBDF889
:101FB0000430BDF80220BDF8001005A001F042FC7D
:101FC0008CBD00BF4745545F53544154533A2000E1
:101FD000504B543D25642C464552523D25642C48B7
:101FE0004552523D25640D0A00000000E0B50AA0EC
:101FF00001F028FC0DF107000DF1060100F08DFF46
:1020000010B100F019FF8CBD9DF806209DF8071057
:1020100005A001F017FC8CBD4745545F5354415453
:1020200055533A20000000003078253032582C30CB
:1020300078253032580D0A0002A001210022012328
:1020400001F000BC4745545F56455253494F4E3A44
:102050002048573D25642C46573D25642E25640DA8
:102060000A00000001A002F06BB800BF4745545FB2
:1020700056543A20544F444F0D0000001CB50DF14A
:10208000070000F0B9FF044606A001F0DBFB1CB11D
:10209000204600F0D1FE1CBD9DF80710054801F058
:1020A000D1FB1CBD4745545F584F5452494D3A200F
:1020B00000000000D6420008034803680348026895
:1020C00003A001F0BFBB00BF300002402C00024063
:1020D0004745545F5549443A203078256C6C580D7B
:1020E0000A0000001F480349034B4FF48072FFF7BA
:1020F00009BC00BF000000200C800020B0B50DA07E
:102100000C4601F09FFB6068FFF7F8FB0546A068EE
:10211000FFF7F4FBAAB2C1B2104600F0F9FF18B104
:10212000BDE8B04000F088BE1B48BDE8B04002F0FA
:1021300007B800BF494E49545F434F4E4649473A9E
:1021400020000000E0B5FEF7A5FF8DF80700C0B243
:1021500038B1FF2805D003480DF107010122FFF730
:1021600065FC8CBDE885002080B507A001F06AFB06
:1021700000F052FF18B1BDE8804000F05DBE064897
:10218000BDE8804001F0DCBF524144494F5F494EF9
:1021900049543A20000000000E4300081CB5FEF729
:1021A00091FE044608A001F04DFB01A9204601F074
:1021B0004FF810B100F040FE1CBD019A05482146C1
:1021C00001F040FB1CBD00BF524541445F524547F2
:1021D0003A200000BE42000880B503A001F0B0FF25
:1021E000BDE88040FFF740BB52455345543A204F6D
:1021F0004B0D000070B548680C46FFF77FFB0F4D94
:102200002860286808B901202860A068FFF776FBDD
:102210000B4E3060E068FFF771FB0A4908603068D8
:1022200063289CBF6420306001F0AAF932682968F5
:1022300005A0BDE8704001F005BB00BF008700208D
:102240002C820020C882002053544152545F5458BD
:102250003A2025642C25640D0A00000010B5FEF715
:1022600031FE054C606001F0DBFA616803A0BDE857
:10227000104001F0E7BA00BF4C8200205345545F84
:1022800044455649443A203078253034580D0A00E8
:1022900070B548680C46FFF731FB4FF47A750D4E68
:1022A0006843B0606068FFF729FB01F061F80446FD
:1022B00009A001F0C7FA24B12046BDE8704000F043
:1022C000BBBDB068B0FBF5F106A0BDE8704001F001
:1022D000B9BA00BF4C8200205345545F4652455165
:1022E0003A20000025750D0A000000002DE9F0419C
:1022F00048681E4D0C46A8478046A068A847064679
:10230000E068A84707462069A847044618A001F0DE
:1023100099FA1FFA88F0F1B2FAB2E3B201F064F868
:1023200018B1BDE8F04100F087BD864C1449A07B90
:10233000627B31F81010134801F084FA124801F062
:1023400081FAE07B04289ABF114951F820000F4818
:1023500001F0F6FE0F4801F075FA207C01280CBF51
:1023600065486648BDE8F04101F0EABEFD18000886
:102370005345545F4D4F44504152414D533A200014
:10238000AA420008CA4200086C430008EF42000855
:10239000EC4100087043000810B5FEF793FD0446B9
:1023A00009A001F04FFA0B48007801F077F820B14E
:1023B00040B2BDE8104000F03FBDE1B206A0BDE86C
:1023C000104001F03FBA00BF5345545F4F504D4F8E
:1023D00044452000D482002025640D0A0D0A000027
:1023E0002DE9FC474868294F0E46B8478046B0683B
:1023F000B8478146F068B84782463069B847044616
:102400007069B8470546B069B847C1B22843EAB217
:102410002043CDE900211FFA89F15FFA8AF210F01A
:10242000FE0F18BF0124E3B21FFA88F001F03CF858
:10243000044617A001F006FA24B12046BDE8FC4787
:1024400000F0FABC174C284D17A0E37DA28A618AE0
:10245000A847A17D2648254A012908BF104601F05A
:102460006FFE2448A847217EBB48234A012908BFA4
:10247000104601F065FE2248A847607E01280CBF87
:102480001D48B548BDE8FC4701F05ABEFD180008DC
:102490005345545F5041434B4554504152414D5375
:1024A0003A2000004C8200205345545F5041434B7A
:1024B0004554504152414D533A0D0A53594E433DF4
:1024C0003078253034582C5052455F4C454E3D25D0
:1024D000640D0A5041595F4C454E3D25640D0A4834
:1024E00045414445523A0000453800083043000851
:1024F0003A4300085D4300081243000809430008FE
:102500006243000810B54868FFF7F4F940B200F0E4
:102510004FFF044608A001F095F924B12046BDE81C
:10252000104000F089BC074890F90C1006A0BDE8E7
:10253000104001F087B900BF5345545F504F5745D5
:10254000523A20004C82002025642064426D0D0A1E
:1025500000000000B0B5FEF7B5FCC4B2204600F0A4
:10256000EDFF054607A001F06DF925B12846BDE84D
:10257000B04000F061BC07482146BDE8B04001F022
:1025800061B900BF5345545F584F5452494D3A20EA
:1025900000000000D642000806480178012911BF5A
:1025A00005A0094900220A7004BF027007A001F0CB
:1025B000C7BD00BFA882002053544F505F54583A03
:1025C000204552524F520D00A982002053544F50C3
:1025D0005F54583A204F4B0D0000000080B508A012
:1025E00001F030F901F01CF920B140B2BDE88040A3
:1025F00000F022BC0648BDE8804001F0A1BD00BF4C
:1026000053544F52455F434F4E4649473A200000CE
:102610000E4300082DE9FC414868164C0E46A047C1
:102620008046B068A0470546F068A0470746306975
:10263000A04704467069FFF75DF906460EA001F059
:1026400001F93046FDF748FF0090404629463A46DA
:10265000234600F029FE18B1BDE8FC4100F0ECBBB8
:102660000848007800280CBF23482248BDE8FC41F8
:1026700001F066BDFD18000853574545505F52589C
:102680003A200000AB8200202DE9F8434868154D40
:102690000E46A8478046B068A8478146F068A8471C
:1026A00007463069A84704467069A84706460EA049
:1026B00001F0C8F8F0B249463A4623460090404639
:1026C00000F080FF18B1BDE8F84300F0B5BB1D482D
:1026D000007800280CBF08480648BDE8F84301F020
:1026E0002FBD00BFFD18000853574545505F545893
:1026F0003A200000564300081643000810B50EA00B
:102700000C4601F09FF86068FFF7F8F8C0B200F0DF
:102710003FFF18B1BDE8104000F08EBB09480078BB
:10272000012804D002280CBF08A00B4800E006A036
:10273000BDE8104001F004BD54585F535452454168
:102740004D3A2000FC86002043570D005052454171
:102750004D424C450D00000009430008B0B54868E3
:102760000D46FFF7CBF80446A868FFF7C7F8054603
:1027700009A001F067F82046294600F065FF18B16E
:10278000BDE8B04000F058BB064821462A46BDE8E7
:10279000B04001F057B800BF57524954455F524509
:1027A000473A2000BE420008B0B50B480B4902680A
:1027B00043688468C56881E83C00094A00231278B0
:1027C000103ADCB2A242D8BFB0BD0D1904440133A7
:1027D000247C2C74F5E700BF0001002000020020DB
:1027E000E5850020054847F6FF41F0224160044995
:1027F0000A700021816007210160704710E000E04D
:1028000023ED00E04FF47A71484300F001B8000076
:10281000B0B50949400100230A684C684D68A542DB
:10282000FCD023445B1BA54228BF13442C468342A3
:1028300028BFB0BDF2E700BF14E000E0B0B53E4DE8
:102840000446E868B0F1FF3F03DC3C4828603C48A0
:10285000286000F077F8A86840F00100A8602869B7
:1028600040F0807028610220E8600B48E96800EAC7
:1028700014200843E860E86840F48030E86000F025
:1028800061F8E86820F00200E860E86840F0004085
:10289000E8600020B0BD00BFF8FF07002DE9F84F49
:1028A000254F804614468A46F868B0F1FF3F03DCA6
:1028B000224838602248386000F044F8B8684FF089
:1028C000000940F00100B860386940F0807038615C
:1028D0005CB3BB46002700260025402F0FD014B163
:1028E0001AF8010B00E0FF2000213A46FDF740FCFA
:1028F000013C38BF4C460D4306430837EDE7DBF893
:102900000C005F4640F00100CBF80C00C8F80060F6
:10291000C8F8045000F016F8DBF80C0008F10808BD
:1029200020F00100CBF80C00D2E7F86840F000403E
:10293000F8600020BDE8F88F084000582301674583
:10294000AB89EFCD02480168C903FCD4704700BFD2
:10295000104000580349C2B2CA600A685206FCD54A
:10296000704700BF1C38014080B500F0CBF8BDE8CF
:102970008040FEF7ADBB0000E0B5304800220123E7
:10298000816C41F400218164816C01F4002101918A
:1029900001992B4909682B490A70A2494FF400425A
:1029A0000A6029490A6863F302020A600A6802F0B1
:1029B0000702012AFAD1D0F8F813012262F34A2162
:1029C000C0F8F8134FF0B0410A6842F400120A60F0
:1029D0000A6842F480320A600A689203FCD5D0F893
:1029E0008C1041F00101C0F88C10D0F88C108907D0
:1029F000FBD50168022262F301010160016801F068
:102A00000C010829FAD1016821F0F0010160D0F829
:102A1000001121F00F01C0F80011016821F4E061FC
:102A20000160016821F4605101600848FEF7CEF9A9
:102A3000FFF7D8FEBDE88C40FEF7BEBE0800005888
:102A40000CED00E02FE400E0004000580048E801F1
:102A500080B500F033FE0A20FFF7D4FE00F004FE3C
:102A600007480088FF2807D140F26140012100F0AB
:102A70004FFB04A001F064FBBDE8804000F0CCBA3D
:102A80004C820020494E495420434F4E4649473A14
:102A9000204F4B0D00000000FFF76EFFFFF764FFB3
:102AA0006420FFF7AFFE0CA001F04AFB10A001214B
:102AB0000022012300F0C6FEFFF7CAFF00F0D4FD9C
:102AC00000F0AAFA6420FFF79DFEFFF70BFB00F071
:102AD00045FBFFF737FBFAE70D0A4D657368746134
:102AE0007374696320736E69666665720D00000019
:102AF00048573D25642C46573D25642E25640D0A14
:102B00000000000010B5064C0120A0470220A0479D
:102B10000420A04780202146BDE81040084700BFA0
:102B2000690B0008F0B58FB006AC054620212046A1
:102B3000FDF754FB6E4618213046FDF74FFB364833
:102B40000027816A21F003018162016841F480411C
:102B500001603146006800F480400E900720049721
:102B6000CDE902770590022001904FF400700090AB
:102B70000E984FF09040FEF705F801203146CDE960
:102B800003004FF4806000904FF09040FDF7FAFF93
:102B9000CDE90675214D0C202146CDE90C77CDE914
:102BA0000877CDE90A702846FEF716F91C4850E868
:102BB000001F21F0604140E80012002AF7D150E8E0
:102BC000001F21F0606140E80012002AF7D1286858
:102BD00020F000502860686820F490406860A86881
:102BE00020F02A00A860286840F001002860E86909
:102BF0008002FCD5E8694002F9D555E8000F40F0A5
:102C0000200045E800010029F7D106481021C0F84E
:102C1000801101600FB0F0BD600000580038014025
:102C20000838014004E100E010B511480121114CC1
:102C3000114BC18123210173A168226A5B68816005
:102C40000021C0E90023102903D04218117401317A
:102C5000F9E70A4820212022017009480449FDF7BC
:102C600096FAA16807A0BDE8104000F0EBBD00BFD8
:102C7000FC850020A88200204C8200204382002096
:102C8000E582002054583A2025640D0A0000000017
:102C900036480178012911BF35A00021017036A006
:102CA0002DE9F04385B0DFF8D890C8473548D0E922
:102CB00000458068FDF744FC804628460F46FDF736
:102CC0003FFC054620460E46FDF73AFC02462E48DC
:102CD0000B46CDE90087CDE90256C8472B4D2C485D
:102CE0002968C84769682B48C847A9682AA0C84707
:102CF000287B41092DA0C847287B00F007012FA0A1
:102D0000C847697B31A0C847E97B36A0C8473AA0CD
:102D1000C847287B3C4C3B4E0007204658BF3046F6
:102D200001F00EFA39A0C847287BC00658BF3446C8
:102D3000204601F005FA384E3078A0F1100137A096
:102D4000C84700273AA43178F8B21039814206DD2D
:102D50002844017C204600F075FD0137F3E733A0DD
:102D600005B0BDE8F04301F0EBB900BF428200209E
:102D70005250434B3A200000464552523A20000040
:102D800045380008D882002039460008000200209B
:102D90000C460008254600085061636B65742049A5
:102DA000443A203078253038580D0A00486F70209A
:102DB00073746172743A2025640D0A00486F7020A4
:102DC0006C696D69743A2025640D0A004368616E70
:102DD0006E656C20686173683A203078253032580F
:102DE0000D0A000052656C6179206E6F64653A20AF
:102DF00025640D0A0000000057616E742061636B4A
:102E00003A200000614600086546000856696120C6
:102E10004D5154543A200000E58500205061796CF2
:102E20006F61643A2025640D0A0000000D00000067
:102E30003078253032582C00411E052908D80EA0C4
:102E4000DFE801F012030E140B1720A001F078B98F
:102E50007F2808D10CA001F073B912A001F070B95D
:102E600018A001F06DB91DA001F06AB911A001F020
:102E700067B907A001F064B9494E56414C49442056
:102E8000434849500D000000544F444F0D000000CE
:102E9000494E56414C494420504152414D455445BC
:102EA000520D0000494E56414C4944204D4F444577
:102EB0000D0000004E4F5420535550504F52544572
:102EC000440D0000425553590D0000004E4F542050
:102ED000524553504F4E44494E470D00554E4B4EB0
:102EE0004F574E0D0000000080B5064800F03EF838
:102EF000054800F027F8FFF757FCBDE88040FFF7D2
:102F0000C7BE00BFD88200200001002080B5FEF7B8
:102F1000AAF9002080BD7F2070477F207047000005
:102F200070B5E04C064E657E0D70A17EE57E36F8EC
:102F3000111001801570207F1870002070BD00BF37
:102F4000AA420008BCB5084D04460DF107000DF17A
:102F500006022946FEF761F92A789DF80600214607
:102F6000FEF70CFB0020BCBDE58500207CB50446C7
:102F70000DF107000DF1060101AA0DF10303FEF7A3
:102F800036F99DF80600FDF7B0FAFDF7A3FF2060C3
:102F90009DF80300FDF7A9FAFDF79CFFBDF9045069
:102FA000A0606FF0FF0010FA85F0FDF795FA064675
:102FB0002846FDF791FA4FF07A51802DA8BF304690
:102FC000FDF7CDF9606000207CBD10B50446FEF72A
:102FD0001AF9FDF78AFAFDF77DFF2060002010BD89
:102FE0001CB50446821C031D0DF107002146FEF7A7
:102FF00030F90020E0801CBDB0B5044640F6111049
:10300000FEF7EAFA054640F61210FEF7E5FA284404
:1030100020700020B0BD0000BCB5F24C4FF47A71B6
:103020006069B0FBF1F0C4E90100FEF7F9FAFEF7C0
:1030300065FA0A20FFF7E6FB0120FEF7F7FA012008
:10304000FEF7D7F994F8260028B194F827004FF43A
:103050007A71FEF731F90120FEF7C2F96069FDF7D8
:1030600049FAD24B0022FDF7ACF9FDF750FAFEF712
:10307000CCF900200021FEF700F9A07E234D617EEF
:10308000E27E237F285CFEF74DF994F8255094F8F2
:103090002320208C94F8221094F82430002D18BF9F
:1030A00001250095002A18BF0122002B18BF01231B
:1030B000FEF75DF9E17F4FF4E860FEF724FBA17FA6
:1030C00040F24170FEF71FFB6FF07F40FEF7A6F95C
:1030D000FEF752F894F8260028B9FDF746FFFDF7F1
:1030E00038FFFDF720FFFEF7E3F90120FEF7A9F80E
:1030F0000120FEF7D8F84F200F2100220023FEF711
:10310000F1F80420FEF792FA0020BCBDA0420008AE
:1031100010B5E0484FF480320E4B0F4CC0F822201F
:103120000B4A836140F2EE438381C0F81E200022E7
:103130000277C0E9042419B10221012280F8271086
:1031400080F8262000F06CFBFFF766FF002010BD22
:10315000B42410000A0B080188F6D019BCB5304D14
:103160006878012806D100206870FFF75DFD2D48C2
:1031700000F0DCF82C480178012905D1002101700C
:10318000FFF7B2FE00F072F828480178012903D158
:103190000021017000F06AF8287901283FD1002051
:1031A0002871A878012813D1214CD5E903012268A0
:1031B00010442060884224BF68692060032000F02A
:1031C0006DF9206800F0D4F81A48007800F0E0F9B2
:1031D000E878012823D101A8FFF7F7FE019CA9692F
:1031E0002046FDF75DF948B92046FDF7A9F90246EA
:1031F0000F480B46016810A000F024FB032000F0EC
:103200004DF90B49D5E903020B6818440860904258
:1032100024BF6869086000F0ABF800F027F8BCBD77
:10322000A8820020E5820020418200204082002008
:1032300044820020FC860020467265713D25642C86
:10324000525353493D252E31662064426D0D0A00CC
:1032500010B50C460021B1EB104F1CBF062010BD6D
:1032600080B2FEF7B9F92060002010BD1CB5C14C3A
:10327000208C94F8222094F8231094F8243094F8A9
:103280002540002C18BF01240094002A18BF0122F9
:10329000002B18BF0123FEF76AF80420FEF7C6F9D9
:1032A00000201CBD408200202DE9F8430546104453
:1032B000814208D3174632B11C460A2B03D34EF67F
:1032C0006020844202D90620BDE8F883DDF8208022
:1032D0000E4600214FF000094046FDF7EFF8A8B177
:1032E000D748DFF85493D74A016805602846C9E9F2
:1032F0000376C9E90558116000F03AF80120C9F8D1
:103300002840C9F8244089F8030009E0CA48CD4C98
:1033100080F80390206800F02BF82068C849086006
:10332000FFF7A4FF0020BDE8F88300BF7CB5914DF6
:10333000044695F8256095F82220288CE97895F8C0
:103340002430002E18BF01260096002A18BF012243
:10335000002B18BF0123FEF70AF8EA780020214667
:10336000FEF79EF90520FEF761F900207CBD00BF45
:10337000B0B5804D4FF47A71804C68604843686105
:103380007D4800782070FDF7F0FD6869FDF7B2F820
:10339000064B0022FDF715F8FDF7B9F8FEF735F8F2
:1033A0002078FEF743F90020B0BD00BF8084EE3FD7
:1033B00010F1090FBCBF06207047B0B504461628AF
:1033C00001DD0620B0BD6C486C4D00782870FDF71B
:1033D000CCFD68480476FEF76BF82878FEF726F9EE
:1033E0000020B0BD40820020072802D3B0F5FA7F4C
:1033F00001D9062070472DE9F0410E46052907D373
:103400000C2E05D81546042A02D81C46012B02D9D9
:103410000620BDE8F081092801D200271FE00C2812
:1034200001D201271BE0112801D2022717E016283C
:1034300001D2032713E0212801D204270FE02B2813
:1034400001D205270BE0402801D2062707E07E289D
:1034500001D2072703E00927FB2838BF0827454882
:10346000DFF818810477C57646768776424800787B
:1034700088F80000FDF779FD07482A462346C15D1C
:103480003046FDF74FFF98F80000FEF7CFF8002018
:10349000BDE8F08140820020A042000880B5FEF720
:1034A000C5F8002080BD0000012B84BF06207047B6
:1034B0002DE9FC470A9C012C02D80B9E012E02D953
:1034C0000620BDE8FC8780462A48DFF8B0901D46FC
:1034D00092460F4680F823200184A0F81E8080F8D1
:1034E000256080F8244080F822302348007889F84D
:1034F0000000FDF73AFD002E18BF01260096384661
:103500005146002D18BF01252A46002C18BF012462
:103510002346FDF72CFF4FEA18214FF4E860FEF731
:10352000F2F85FFA88F140F24170FEF7ECF899F892
:103530000000FEF77BF80020BDE8FC875E2884BF12
:1035400006207047B0B50B4CA0EB500140080B4D66
:1035500084F82800084884F8291000782870FDF7BE
:1035600004FDFDF7F6FCFDF7DEFC2878FEF75EF8BB
:103570000020B0BD40820020D4820020E4820020E0
:103580002D48012100228160C261017041707047A5
:1035900010B518B1022807D9062411E027480024E5
:1035A0000470FFF763FE0BE0012803D1FDF771FE05
:1035B000012002E0FDF772FF02202049002408707C
:1035C000204610BD70B51C461318994208D33AB175
:1035D00034B14EF660239C4202D8049D022D02D9DC
:1035E0000625284670BDC5B1134E164BC6E903210A
:1035F000124970610D7012490A6808601A60FFF77D
:10360000B7FE2846FFF7C4FF05460028E9D100258C
:103610000120B4627462B070E3E7074800250849EE
:10362000857006480570074800680860FFF7A0FE2F
:10363000FFF71CFED5E700BFA8820020FC86002013
:1036400044820020488200200022B2EB104F01D1BA
:10365000FF2901D90620704780B580B2C9B2FEF7B4
:1036600052F8002080BD000080B5754873495C2287
:10367000FCF78DFD80BD00BF70B514460E460546B3
:1036800000B9256828463146FCF7C4FD295C61B1C4
:10369000054431462846FCF7CBFD2918285C10B1BB
:1036A000002001F8010B216000E00025284670BDD4
:1036B0003D48016841F400410160704770B586B033
:1036C00000206C460625CDE9030001202146009527
:1036D0000190032002904FF09040FDF753FA072627
:1036E0004FF0904021460096FDF74CFA12480560D5
:1036F00006601248816F41F40041816710494258C9
:1037000022F40042425042585204FCD40D490A6847
:1037100042F480520A604FF400610160FDF7ECFC56
:1037200009480021017009484FF48021C0F8801138
:10373000016006B070BD00BF2800004818040058A2
:103740007CFCFFFF9008005832E400E004E100E058
:1037500010B50A4C206840F4004020603220FFF78A
:1037600057F8206820F40040206020684004FCD412
:103770001420BDE81040FFF74BB800BF940000587C
:1037800005480621016107210160704702480621B2
:103790000160072101617047180000480248016874
:1037A00021F40041016070479004005806490A68FE
:1037B0009207FCD5087108680006FCD40868C007A9
:1037C000FCD00879704700BF08000158F8B50446DE
:1037D00052B100F047F805460020694600222860F3
:1037E0002046FCF74BFD0DE00F4600F03BF80026AD
:1037F00005466946002206602046FCF777FDF90081
:10380000C8400BD1286840B90098051B2046FCF73A
:10381000FAFC854201D1012600E000263046F8BDC1
:1038200010B5064C2046FFF709F8054920464FF42D
:103830000062FFF733F8002010BD00BF00F8010858
:103840004C8200200FB4054B10B503A9044A02981E
:1038500000F0DEF810BC5DF814FB000055290008EC
:1038600000800020004870470480002002E008C863
:10387000121F08C1002AFAD170477047002001E0EA
:1038800001C1121F002AFBD1704700002DE9FF5F24
:1038900082B00021DDE90430020DDDF840B00343C1
:1038A00018D044F61050A2F2FF324243151411987A
:1038B00001281FD0A5EB0B00401C5FEA000A4FF067
:1038C00000064E4FDFF83891B046504615D5CAF184
:1038D000000413E0119801244AA3012801D16FEAE2
:1038E0000B010298119AC0E90031C0E9024206B00A
:1038F000BDE8F09FCBF10000DFE704460021404A1D
:10390000491842EB0450CDE9001012E0E00707D05F
:1039100032463B4640464946FDF710F88046894608
:1039200032463B4610461946FDF708F806460F4654
:103930006410002CEAD1DDE90401DDE90023BAF1CD
:10394000000F06DAFCF7FAFF42464B46FCF7F6FF9B
:1039500005E0FCF736FD42464B46FCF732FD0446D7
:103960000E460022284BFDF773F803D84FF0FF30C6
:10397000014607E00022254B20463146FCF737FF81
:10398000FDF74EF8102409E0002C0ADB0A22002380
:10399000FCF7FFFD039B30321A55641E50EA01020A
:1039A000F2D1641C039AC4F111031444119A012A40
:1039B00003D0012208430DD10AE0084304D00020BF
:1039C0004FF0110B119072E7A3EB0B056D1E0DE08C
:1039D0005B4504DD4FF0000205F1010504E003DA68
:1039E0004FF00002A5F10105002AECD002981199D0
:1039F000C0E90231C0E9004579E700000000144049
:103A00000000F03F300000000000F0430000E03F05
:103A10002DE9FF4F95B09B468946064600250FE2EB
:103A2000252877D100242746F84A0121059400E093
:103A3000044316F8013F203B01FA03F01042F7D18E
:103A400030782A2811D06FF02F033078A0F130029F
:103A5000092A16D8059A44F0020402EB820203EB0D
:103A600042021044761C0590EFE759F8042B0592AA
:103A7000002A03DA504244F40054059044F0020452
:103A8000761C30782E2816D116F8010F44F0040465
:103A90002A280DD06FF02F023078A0F13003092BC7
:103AA00009D807EB870302EB4303C718761CF3E73B
:103AB00059F8047B761C30786C280FD006DC4C2833
:103AC00017D068280DD06A2814D104E0742810D0CB
:103AD0007A280FD10DE044F400140AE044F4801475
:103AE00001E044F440147278824202D104F580145B
:103AF000761C761C307866280BD013DC582877D0DB
:103B000009DC002875D04528F6D04628F4D047288F
:103B10001AD19DE118E0632835D0642879D0652852
:103B200012D195E1702873D008DC6728F1D069289C
:103B30006FD06E280DD06F2806D1B5E073282CD039
:103B4000752875D0782874D05A46179990476D1CFF
:103B500075E1C4F30250022809D003280DD0D9F82A
:103B6000001004280DD00D6009F1040967E1D9F8AF
:103B70000010EA17C1E90052F6E7D9F800100D80ED
:103B8000F2E70D70F0E719F8041B8DF80010002023
:103B90008DF80100EA46012003E059F804AB4FF02C
:103BA000FF3061074FF0000102D40DE008F1010180
:103BB0008846B9420FDA8045F8DB1AF80810002968
:103BC000F4D108E008F1010188468142FADB1AF8D5
:103BD00008100029F6D105985B46A0EB080721469E
:103BE0003846179A00F094FA284400EB080507E0DD
:103BF0004DE029E10DE01AF8010B5A46179990475C
:103C0000B8F10108F7D25B4621463846179A13E10E
:103C100042E00A220092C4F302524FF0000A022A44
:103C200008D059F804CB032A4FEAEC710AD00DE012
:103C300029E02AE009F1070121F00702F2E802C1B8
:103C4000914609E00FFA8CFC4FEAEC71042A03D18B
:103C50004FFA8CFC4FEAEC71002907DA0A46002182
:103C6000DCF1000C61EB02012D2202E0220504D5FB
:103C70002B228DF80420012203E0E20701D020224C
:103C8000F7E7904659E00A2102E010220DE01021EA
:103C90004FF0000A00910BE010224FF0000A44F0B0
:103CA00004040827009203E008224FF0000A009263
:103CB000C4F30252022A05D059F804CB0021032A8A
:103CC00008D009E009F1070121F00702F2E802C17A
:103CD000914605E01FFA8CFC042A01D10CF0FF0C80
:103CE0004FF00008220728D5702806D0009B83F0EB
:103CF000100353EA0A0305D00EE040228DF8042099
:103D0000012208E05CEA010206D030228DF804208E
:103D10008DF8050002229046009B83F0080353EAC9
:103D20000A030AD15CEA010201D1620705D53022FB
:103D30008DF804204FF001087F1E582804D034A0CD
:103D400003900EA802900DE036A0F9E753466046B6
:103D5000009AFCF71EFC84460398825C0298401E81
:103D6000029002705CEA0100F0D1029806A9081ADC
:103D700000F1200A600702D524F4803400E0012716
:103D8000574502DDA7EB0A0000E0002000EB0A0126
:103D9000009005984144401A0590E00306D45B4624
:103DA0002146179A059800F0B3F90544002706E06C
:103DB00001A85A46C05D179990476D1C7F1C474566
:103DC000F6DBE0030CD55B462146179A059800F018
:103DD0009FF9054404E030205A46179990476D1C1E
:103DE0000099481E00900029F5DC08E0029802992D
:103DF0005A460078491C0291179990476D1CBAF1F8
:103E00000001AAF1010AF1DC65E1000009280100C6
:103E10003031323334353637383961626364656640
:103E20000000000030313233343536373839414202
:103E3000434445460000000000F058F90544761C54
:103E4000307800287FF4ECAD19B02846BDE8F08F3B
:103E5000620700D4062709F1070222F0070CFCE8EC
:103E60000223E14603F000485FEA080C02D00FF29B
:103E7000702C0DE05FEA045C02D50FF2682C07E0BD
:103E80005FEAC47C02D00FF2602C01E0AFF2700C4C
:103E90004FF0FF3823F00043CDF850C065280CD018
:103EA00006DC452809D046281DD047283DD13DE0F5
:103EB000662818D067287ED138E00021112F01DB59
:103EC000112000E0781CCDE9000106A90EA8FFF73B
:103ED000DDFCDDE90F010E9A03910021009207F14C
:103EE000010A04914DE04FF000400097CDE9011028
:103EF00006A90EA8FFF7CAFCDDE90F0203920E9B8C
:103F000011990022DDF80CA00093049211B9791CDC
:103F100000EB010AB7EB0A0004D4C0F1FF3007F14F
:103F2000010A0490AAEB0700019044E0012F00DA97
:103F300001270021112F01DD112000E03846CDE9D5
:103F4000000106A90EA8FFF7A1FCDDE90F010E9AFA
:103F50000391002104910092BA4621070CD40399E1
:103F6000514500DA8A46BAF1010F05DD009AAAF13F
:103F70000101515C302908D0B84202DA10F1040F77
:103F800006DA0121CDE9011015E0AAF10101E9E706
:103F9000002805DC049901440491AAEB000102E029
:103FA000411C514500DD8A460499401A401C01908D
:103FB0004FF000400290200704D40198504501DBE7
:103FC000CDF8048000208DF84F0002980DF14F07C6
:103FD000B0F1004F25D02B200E9002984FF0020830
:103FE00000280CDA404202902D200E9007E00A21B2
:103FF0000298FCF7B8FA3031029007F8011DB8F1C9
:104000000001A8F10108F2DC02980028EFD1791E26
:104010000E980870307800F0200040F0450007F856
:10402000020D12A8C01B00F107081498007800B117
:10403000012000EB0A01019801EBE0710598414471
:10404000401A401E0590E00306D45B462146179AAD
:10405000059800F05DF805441498007818B15A46A8
:10406000179990476D1CE00324D55B462146179AAB
:10407000059800F04DF805441CE00498002807DB83
:10408000DDE90301884203DD0098405C179901E0F7
:10409000179930205A469047049805F10105401CB5
:1040A00004900198401E019004D12E205A46179981
:1040B00090476D1CBAF10001AAF1010ADDDC05E0B0
:1040C00017F8010B5A46179990476D1CB8F100017B
:1040D000A8F10108F4DC5B462146179A0598ABE687
:1040E0002D0000002B000000200000002DE9F04111
:1040F000044600251E461746880404D405E03946C8
:104100002020B0476D1C641EF9D52846BDE8F0811B
:104110002DE9F041044600251E469046C80301D50E
:10412000302700E02027880404D505E041463846C2
:10413000B0476D1C641EF9D52846BDE8F08100002B
:1041400010B5044601E0FEF705FC14F8010B044924
:104150000028F8D1BDE810400A20FEF7FBBB0000A4
:1041600000800020004040404040404040404141ED
:10417000414141404040404040404040404040403C
:1041800040404040400502020202020202020202D6
:1041900002020202022020202020202020202002D3
:1041A0000202020202029090909090901010101063
:1041B00010101010101010101010101010101010FF
:1041C0000202020202028888888888880808080893
:1041D000080808080808080808080808080808085F
:1041E0000202020240000000654100080943000885
:1041F000DB420008E0420008E5420008EA4200080D
:1042000001000000030000000500000001000000A4
:1042100001000000060000000A000000200000006D
:104220000200000004000000080000001000000070
:1042300040000000800000000001000000020000BB
:10424000000000000000000000000000000000006E
:104250000100000002000000030000000400000054
:10426000A0860100400D0300801A060000350C00F6
:1042700040420F0080841E0000093D0000127A00B9
:104280000024F40000366E010048E801006CDC02F6
:10429000000000000000000000000000000000001E
:1042A00000080109020A0304050607000A000F00BE
:1042B00014001F0029003E007D00FA00F401307850
:1042C00025582C307825580D0A000D0A42573D25F7
:1042D000750D0A53463D25640D0A00345F350D0007
:1042E000345F360D00345F370D00345F380D004900
:1042F0004E56414C49440D00494E56414C494420CC
:10430000434F4D4D414E440D004F46460D004F4B1F
:104310000D004F4E0D0053544F500D00544F4F2081
:104320004D414E5920415247554D454E54530D0075
:10433000494D504C494349540D004558504C494350
:1043400049540D00494E56414C494420415247556D
:104350004D454E540D0053544152540D00435243A9
:104360003A00494E5645525449513A0043523A0098
:104370004C44524F50543A004765742043505520E6
:104380004944004765742064657669636520494443
:10439000004745545F554944004745545F444556DE
:1043A0004944005345545F444556494400534554DD
:1043B0005F4F504D4F444500524541445F52454781
:1043C0000057524954455F5245470053544F524598
:1043D0005F434F4E46494700494E49545F434F4E55
:1043E000464947004745545F525353490054585F6C
:1043F00053545245414D004745545F584F5452491C
:104400004D005345545F584F5452494D0047455451
:104410005F56455253494F4E004745545F43484904
:1044200050004745545F46524551005345545F463E
:10443000524551004745545F504F57455200534530
:10444000545F504F5745520044554D505F524547B9
:1044500053004745545F4D4F44504152414D530026
:104460005345545F4D4F44504152414D53004745D1
:10447000545F5041434B4554504152414D530053BA
:1044800045545F5041434B4554504152414D5300B8
:10449000434C525F5354415453004745545F535467
:1044A000415453004745545F5354415455530052AF
:1044B0004553455400524144494F5F494E495400C9
:1044C0004745545F56540053574545505F52580076
:1044D00053574545505F54580053544F505F5458FC
:1044E0000053544152545F5458004765742041446E
:1044F0004320646174610053746172742F73746F2C
:10450000702054582073747265616D005258207386
:1045100063616E004765742048572F4657207665C3
:104520007273696F6E005458207377656570004729
:104530006574206672657175656E63792073657444
:1045400074696E6773005365742066726571756572
:104550006E63792073657474696E67730047657460
:10456000204C6F5261206D6F64756C6174696F6E61
:1045700020706172616D657465727300536574209B
:104580004C6F5261206D6F64756C6174696F6E2041
:10459000706172616D657465727300476574204C5B
:1045A0006F5261207061636B657420706172616D20
:1045B000657465727300536574204C6F526120708E
:1045C00061636B657420706172616D65746572738F
:1045D0000044657669636520726573657400537481
:1045E0006F70207061636B65742062757273740004
:1045F0005374617274207061636B657420627572AC
:1046000073740076007777777777770044657374F3
:10461000696E6174696F6E2049443A2030782530A4
:1046200038580D0A0053656E6465722049443A207B
:104630003078253038580D0A00525353495F504B9B
:10464000543D252E31662C525353495F5349474EF2
:104650003D252E31662C534E523D252E31660D0AD6
:10466000004E6F0D005965730D00753D75696E74D0
:10467000382C20763D75696E7431362C20773D7567
:10468000696E7433322C20733D696E7433322C2082
:10469000623D737472696E672C203F3D416E797480
:1046A00068696E672C202A3D30206F72206D6F7212
:1046B00065206F662070726576696F75730D003ABC
:1046C0000A0D2000F446000800800020300200009F
:1046D000F00A0008F446000800000020000700006F
:1046E0007C3800082C48000830820020D4040000E8
:1046F0007C3800089113093D13AF4414080B46148D
:1047000008D9211408D1454C0891431013B9201B36
:1047100008780C5A0D201A39101A14205A992013AF
:10472000F51D1B08830C1AA3041A0A104B5D2210F6
:104730005A223013191E1B082F301A2B1029201A49
:1047400091201A46105A34204B751F085A3E204BB0
:104750000525105AF7601A7D7029085A02205A550B
:10476000205AE4201A598029085AA4505AED505A68
:1047700052101A41801A5D701A60102A07201980A1
:104780001A7C105A6E201AC5201A9B101A7F101A14
:10479000051013E1231B08B6101AE1102A08E012D5
:1047A000211B08F0105AD9301A99801ADE101AED20
:1047B000801A03101BFD26AC191C6A9A2059805AD6
:1047C00090104BD91C085AC0101A65D01AEA0C1A5E
:1047D000B84029D01A9D6029181AC1101A09084B2F
:1047E0005D27101A482429105A09E05AD8201AFDCA
:1047F0004029101ACB1029081ADD9029085A19608F
:104800005A9D305AB5105A69605AAD701A99E0290C
:10481000101AD0201A06081A89C01A26D05AC710B2
:0C4820001A15101A0C1001103264000070
:0400000508000139B5
:00000001FF
