:020000040800F2
:10000000E8230020E90000083D0D0008A50C0008C9
:10001000D50C0008310B00089320000800000000F8
:100020000000000000000000000000007D1100083A
:10003000FD00000800000000BF0E0008991F000826
:1000400003010008250F0008030100080301000850
:1000500003010008030100088D200008912000081A
:100060000301000803010008030100080301000860
:100070000301000803010008030100080301000850
:10008000710A0008030100080301000803010008C9
:1000900003010008C90C0008350B00081D200008EA
:1000A0004120000865200008030100080D0B00082E
:1000B0000301000803010008030100080301000810
:1000C0000301000803010008BD0E00080301000839
:1000D00003010008DFF80CD000F074FC0048004772
:1000E000D9500008E823002006488047064800470A
:1000F000FEE7FEE7FEE7FEE7FEE7FEE7FEE7FEE7D8
:10010000FEE7FEE7DD1F0008D500000810B5431A22
:10011000934209D28318881803E010F8011D03F8F0
:10012000011D521EF9D210BD40EA01039B0703D006
:1001300009E008C9121F08C0042AFAD203E011F826
:10014000013B00F8013B521EF9D210BDD2B201E0D2
:1001500000F8012B491EFBD270470022F6E710B5CC
:1001600013460A4604461946FFF7F0FF204610BD25
:10017000CAB2401E10F8011F8A4202D00029F9D1EC
:1001800000207047421C10F8011B0029FBD1801A87
:10019000704730B503461D783DB10A4612F8014B51
:1001A0001CB1AC42FAD15B1CF5E7181A30BD30B572
:1001B0000546002008E00A4602E0A34207D0521C90
:1001C0001378002BF9D1401C2C5C002CF3D130BDEE
:1001D0002DE9F0410E460546002400E0641C285D30
:1001E00000F0D6FA0746305D00F0D2FA381A02D194
:1001F000295D0029F2D1BDE8F0812DE9F047914653
:100200000F4680460446002614F8015B2DB100F02D
:10021000BBFA0068405DC007F6D12B2D02D02D2D12
:1002200018D0641E4A463946204600F0B7FA27B176
:100230003968A14201D1C7F8008071054FF002046E
:100240000BD54042002803DD06F0D2FD0460A00774
:10025000BDE8F08746F48066E4E70028F8DA06F0A7
:10026000C7FD04606FF00040F2E72DE9F05F9346B0
:100270000F4680460446002606F0BAFDD0F80090EE
:10028000824614F8015B2DB100F07EFA0068405DF3
:10029000C007F6D12B2D02D02D2D1AD0641E0021BF
:1002A000CAF800105A463946204600F077FA01464F
:1002B00027B13868A04201D1C7F80080DAF8000001
:1002C000022809D0CAF80090700505D54842BDE85B
:1002D000F09F46F48066E2E70846F8E72DE9FE4F16
:1002E000804681EA0300C00F0C46009021F00041D7
:1002F00023F00045B8EB0200A94105D24046214653
:1003000090461C460B46024623F00040104347D05F
:10031000270DC7F30A00C3F30A510290401A019057
:1003200040286BDAC3F3130040F4801B0098924618
:1003300020B10023D2EB030A63EB0B0B0198594663
:10034000C0F14002504600F0EDF906460D46504619
:100350005946019A00F005FA10EB080061410024AB
:1003600087EA115284EAE7731A4340D0009A62B3D5
:10037000019A012A4FEA075215DC001B61EB0201CA
:100380004FF0004202EA0752CDE90042001C41F55D
:10039000801132462B4600F096FA03B0BDE8F08F8C
:1003A00040462146F9E7001B61EB0201001C41F5C4
:1003B000801300185B412018A2F5001747EB0301DA
:1003C00040EAD570B6196D4111E06D084FEA360666
:1003D00045EAC0754FEA0752001B61EB0201001CA1
:1003E00041F5801149084FEA300000195141324669
:1003F0002B4603B0BDE8F04F00F056BA009801223A
:1004000040000023D0EB020263EBE073009821462A
:100410004FEAE074B8EB000061EB0401E9E783F018
:1004200000435BE781F0004158E72DE9FE4F81EA88
:10043000030404F0004421F0004100944FF0000B4D
:1004400023F0004350EA01045ED052EA03045BD07B
:10045000C3F30A54C1F30A552C44A4F2F3340194B3
:10046000A0FB0254C1F3130141F48011C3F3130341
:1004700043F4801301FB024400FB034E840A970AF5
:1004800044EA815447EA8357A4FB076802958D0A22
:1004900005FB07854FEA932C04FB0C542705029DAE
:1004A0004FEA065847EA1637B5EB08056EEB070C1E
:1004B000870E920E47EA811742EA8312A7FB0201D8
:1004C000B6EB0B0164EB00042B0D43EA0C335E1812
:1004D00044EB1C50DA465146E7FB0201C5F3130416
:1004E0004FEA0B3343EA14534FEA0432019C43EAC8
:1004F0000603A4F10C040294009CCDE900B400F0C2
:10050000E2F903B0BDE8F08F00200146F9E72DE9DC
:10051000F04D81EA030404F0004B21F0004514463D
:100520004FF0000A23F0004150EA050220D054EABF
:1005300001021DD0C5F30A570246C5F31303C1F3E8
:100540001300C1F30A5640F4801543F48013A7EB5F
:100550000608101BD64608F2FD3873EB050002D3DF
:1005600008F1010801E092185B41B8F1000F03DACD
:1005700000200146BDE8F08D00204FF480110646B2
:1005800084460EE0171B73EB050705D3121B63EBC4
:10059000050306434CEA010C49084FEA3000921863
:1005A0005B4150EA0107EDD152EA030012D082EA22
:1005B000040083EA0501084305D0101BAB4106D2B5
:1005C0000122002306E000224FF0004302E06FF01A
:1005D000010253101AEB06004CEB085110EB0A0015
:1005E00041EB0B01BDE8F04D00F05EB90EB540F2F5
:1005F000334102910021CDE900110A460B4600F07B
:1006000062F903B000BDC1F30A5210B5C1F3130182
:1006100040F2FF3341F480119A4201DA002010BD0C
:1006200040F233439A42A2F2334203DC524200F0DA
:1006300088F810BD904010BD00F0004230F000403E
:100640000AD0C10D01F56071C0F3160042EA0151F4
:10065000C20840071143704700200146704701F06F
:10066000004330B421F0004150EA010206D00A0DE7
:10067000A2F56072C1F31301002A02DC30BC002035
:100680007047440F44EAC104C100E01830BC00EBDD
:10069000C25000F0D2B830B50B46014600202022EF
:1006A000012409E021FA02F59D4205D303FA02F57F
:1006B000491B04FA02F52844151EA2F10102F1DCDF
:1006C00030BD2DE9F05F0546002092469B468846E6
:1006D0000646814640241BE02846414647462246BE
:1006E00000F02FF853465A46C01A914110D31146D4
:1006F0001846224600F016F82D1A67EB01084F46FF
:1007000022460120002100F00DF817EB00094E41B0
:10071000201EA4F10104DFDC484631462A46434648
:10072000BDE8F09F202A04DB203A00FA02F1002005
:1007300070479140C2F1200320FA03F3194390401F
:100740007047202A04DB203A21FA02F0002170478A
:1007500021FA02F3D040C2F1200291400843194629
:100760007047202A06DBCB17203A41FA02F043EA11
:10077000E07306E041FA02F3D040C2F1200291405A
:100780000843194670470000004870477C7700080E
:10079000A0F14101192900D8203070472DE9F05F00
:1007A00082460078002715468B460AF10104B946B7
:1007B000302801D09DB113E014F8010B01277828EF
:1007C00003D0582801D045B10AE00DB1102D07D152
:1007D0000027102514F8010B02E0082500E00A2587
:1007E0000026B0460EE005FB080005FB06F10127D8
:1007F00001EB10461FFA80F8B6F5803F00D3B946EA
:1008000014F8010B294600F0F5F80028EBDABBF1EB
:10081000000F05D00FB1641E00E05446CBF8004035
:10082000B9F1000F06D006F0E3FA02210160C81EFC
:10083000BDE8F09F48EA0640FAE70029A8BF7047E4
:10084000401C490008BF20F00100704710B4B0FA06
:1008500080FC00FA0CF050EA010404BF10BC7047A1
:1008600049B1CCF1200421FA04F411FA0CF118BFBB
:10087000012121430843A3EB0C01CB1D4FEA00618A
:100880004FEA102042BF002010BC704700EBC3505D
:1008900010440029A4BF10BC7047401C490008BF89
:1008A00020F0010010BC704710B5141E73F1000455
:1008B00008DA401C41F1000192185B411A4301D152
:1008C00020F0010010BD2DE9F04D92469B4611B17C
:1008D000B1FA81F202E0B0FA80F220329046FFF7DE
:1008E00021FF04460F4640EA0A0041EA0B01534645
:1008F0005A46084313D0114653EA010019D0C8F1F3
:1009000040025046FFF71DFF05460E465046594629
:100910004246FFF707FF084305D0012004E02046C8
:100920003946BDE8F08D0020054346EAE0762C43C9
:1009300037430A986305E40AA0EB08000022FD0A89
:1009400044EA47540A3002D500200146E9E7010590
:1009500010196941DDE9084500196941BDE8F04D0C
:10096000A2E7C1F30A52C1F3130140F2FF3341F48D
:1009700080119A4202DA00200146704740F2334368
:100980009A42A2F2334202DC5242FFF7DABEFFF78C
:10099000C9BE000030B5041E71F1000404DB4FF045
:1009A0000044404264EB0101141E73F1000405DBB6
:1009B0001C464FF00043524263EB0403994208BFC8
:1009C000904230BD1CB50948009009480190054689
:1009D000009C06E0E06840F0010394E807009847B7
:1009E0001034AC42F6D3FFF779FB000020900008EA
:1009F000409000083A2800D2303820F02002412AE6
:100A000001D3A2F13700884201D34FF0FF30704785
:100A100070B58D1810F8014B14F0030201D110F8D5
:100A2000012B231106D110F8013B03E010F8016BF4
:100A300001F8016B521EF9D1ABB110F8012B04F093
:100A40000C048A1A0C2C03D0A2EB84129B1C08E025
:100A500010F8014BA2EB0422F8E712F8014B01F861
:100A6000014B5B1EF9D5A942D4D3002070BD000014
:100A7000F8B5022001F0EEFBC0B3022001F02AFB22
:100A8000002001F0FDFB01F0DDFBFFF7AFFD9FED66
:100A9000180B53EC102BFFF7C8FC1B4F04460D46F8
:100AA000D7E90060FFF7C8FD22462B46FFF716FC8A
:100AB000044630460D46FFF7BFFD02460B46204672
:100AC0002946FFF724FDFFF7CAFDFFF7B5FD9FEDAF
:100AD0000A0B53EC102BFFF7A8FC9FED090B53EC0E
:100AE000102BFFF714FDFFF7BAFDB860F8BD00BF8B
:100AF0000000000000C0D2BF6666666666E626405B
:100B00000000000000408FC02003002010B5074CFB
:100B10000121204601F0C2FD30B104F59A300F21C9
:100B2000BDE8104004F086B910BD00BF00C0004011
:100B3000FEE7000010B50E4C0421204604F0D7F863
:100B4000012806D12046042104F0B0F8094801210B
:100B5000417020460A2104F0CAF8012806D1204637
:100B60000A2104F0A3F803480121817010BD00BFE1
:100B700000F801403C0300202DE9F84FC0F3C014F9
:100B800040B2102B20EAE0760A9801EB4409A2F16A
:100B9000200126D0082B4BD1264A00284FF0000018
:100BA000C9B24FF0000B08BF4FF0FF305FFA80FA78
:100BB00002EBC108BBF1080F3AD018F80B1009EB93
:100BC0000B000027C4B281EA0A05082F06D005FAF7
:100BD00007F1F01900F019F90137F6E70BF1010BF5
:100BE000E8E70027C9B200284FF000004FEA0118DB
:100BF00008BF4FF0FF305FFA80FB102F18D00E4A6D
:100C000048EA070109EB07004FF0000AC4B2515C43
:100C100081EA0B05BAF1080F08D005FA0AF106EBD4
:100C20000A0000F0F2F80AF1010AF3E70137E4E7FD
:100C3000BDE8F88F8C790008847C00082DE9FC471A
:100C4000DDF828801C4691460E460746102B06D03C
:100C5000082C18BFBDE8FC874FF0060A01E04FF0F2
:100C6000080A0025E8B219F8002072B1F8B2F1B212
:100C70002346CDF80080FFF77FFF5744F8B278286D
:100C800084BF264400270135ECE7BDE8FC4700F0AF
:100C900073B9000020B128480021006804F070BA40
:100CA000704700BF03A006F015FD642003F010FF9D
:100CB00001F0FEF948617264204661756C74206F22
:100CC00063637572730D0000014801210170704764
:100CD0003C030020FEE700001748124900688842E4
:100CE00018BF002800D1704740690028FBD000479A
:100CF00011480068704700BF0A49884218BF0028A1
:100D000000D1704710B50B490B4C0968206011B138
:100D100018308847206800690028BDE81040F0D0EE
:100D2000004700BF78820008024908600248006856
:100D3000FFF7E2BFB80300201800002070474868A2
:100D40000C4601F001BD4FF4FA60C82101F034BC3B
:100D50002246102300900020FFF770BF0A600A6847
:100D6000104308607047012202FA01F102680A4349
:100D700002608268704710430860704701210125B6
:100D8000204605F0E6BD002000211023CDF80080AC
:100D9000FFF754BF1D4616460F46044600F048BCF8
:100DA0001D4616460F46044600F028BF00220023C9
:100DB00001F09EB80546A06801F0C6BC102300965D
:100DC000FFF73CBF012202FA01F102688A43026088
:100DD00082688A43826042688A43426082697047BF
:100DE000044605F089BB2046012105F097BD286E19
:100DF0006862204604F0D8BD204600F05DBD204664
:100E000001F03AB8012301F073B8C9B2C0B2CA09FF
:100E1000214600F04DB9486801F096BC4FF4FA60E5
:100E2000322101F0C9BBA0699843A061A068984332
:100E3000A06020687047DBF81800DBF82410DBF8AE
:100E400030207047204600F0BBBC8DF80700010A37
:100E5000000C03238DF806108DF805002846704716
:100E60008DF803308DF80220704790F86810204606
:100E700005F09ABF8068FFF73FBF0A438260C268EF
:100E80000A43C26002697047012300F059BD90F81F
:100E90002C10204605F088BF4FF47A700021604383
:100EA00070478DF807208DF806107047ECB2C5B278
:100EB000204629467047C068FFF71EBF704770473D
:100EC00010B5174C207808B900F018F860680128B0
:100ED000BCBF4FF0FF3010BDA0680749085CA16897
:100EE0000131A160A168B1F5007F04BF0021A160BC
:100EF00061680139616010BD8919002080B507481B
:100F000000214FF4806200234FF0FF304FF4E130B6
:100F100004F03EFA02480121017080BD000000206B
:100F20001003002010B505F0EFFA034C201D05F06A
:100F30000FFB0120207010BD2C03002080B530B1C4
:100F400064484FF48061FF22FFF700F904E0614834
:100F50004FF48061FFF701F9BDE8804000F00CB864
:100F600002464D48072103F06DBF00BF4F480F21D7
:100F7000012203F067BF00BFF8B5564D394E00247B
:100F8000082C08BFF8BD44F0B00000210027C0B213
:100F9000B04700200021B04710200021B047802F2B
:100FA00005D0E85D012100F097F80137F7E78035BB
:100FB0000134E5E710B500F0A1F80A2003F088FD40
:100FC00000F052F8274CAE200021A047002000215D
:100FD000A04710200021A04740200021A047B020BA
:100FE0000021A04781200021A047FF200021A04729
:100FF000A1200021A047A6200021A047A820002171
:10100000A0473F200021A047C8200021A047D320AF
:101010000021A04700200021A047D5200021A047A3
:1010200080200021A047D9200021A047F1200021E5
:10103000A047DA200021A04712200021A047DB2092
:101040000021A04730200021A0478D200021A0478B
:1010500014200021A047AF2000212246BDE8104007
:10106000104700BFD9100008B0B50B4C0B4D09213B
:1010700001222046A847642003F02AFD20460921CA
:101080000022A847642003F023FD20460921012205
:101090002B46BDE8B040184700F40140454E00081B
:1010A00002480F21002203F0CDBE00BF00F0014036
:1010B00010B501F0070301F0F801012400EB011065
:1010C0000449002A04FA03F30A5C0CBF9A431A434A
:1010D0000A5410BDBC03002010B50029044618BFF7
:1010E00001210846FFF73CFFFFF7DAFF204600F03A
:1010F0003FF8BDE81040FFF739BF0000FEB51E4CB9
:10110000184E0F21032204F54040B04704F5444532
:10111000092103222846B047284607210422072731
:10112000B04728460C21042203F060FE28460E2119
:10113000042203F05BFE1820012104F0CDFE0A48D2
:1011400069468DF8087000900020ADF80900074846
:101150000190204605F05EFB2046012105F051FB81
:10116000FEBD00BF014D000880841E0000004080CD
:101170000146014805F03CBB003001407047E0B536
:1011800000210DF106020223ADF80610072100F040
:10119000D7FB8CBDE0B549BA0DF106020223ADF8CC
:1011A0000610022100F0CCFB8CBDBCB514460D46E8
:1011B0000DF105021721032300F00EFB9DF8050039
:1011C0002870BDF8060000BA000C2080BCBDE0B558
:1011D0000DF105021221032300F0FEFABDF806000E
:1011E00000BA000C8CBDE0B50DF1060215210223FA
:1011F00000F0F2FA9DF807008CBDE0B50DF1070292
:10120000C021012300F0E8FA9DF807008CBD94226C
:10121000002940F6AC0118BF962200F0B5BBE0B53E
:10122000FFF73FFE0DF106028F21022300F088FB3D
:101230008CBD10B5044600F03BFB2046D1210022B6
:101240000023BDE8104000F07BBBE0B58DF807102F
:101250000DF107029D21FFF717FE8CBDE0B58DF85B
:1012600004106FF07F418A4238BF11468DF8071095
:101270000A0A090C04238DF805108DF8062001AA2E
:10128000972100F05DFB8CBD1CB5049C8DF80530EA
:101290001B0A8DF80320120A8DF80110090A8DF837
:1012A00004308DF802208DF800106A4608210823CA
:1012B0008DF80740240A8DF8064000F041FB1CBD64
:1012C000C1210022002300F03BBBB0B514460A4602
:1012D00040F2CD61054600F057FB284640F2CE6152
:1012E0002246BDE8B04000F04FBB00002DE9F041C0
:1012F000174C16460F460A0A40F2BC61984605464E
:10130000A047FAB2284640F2BD61A047320A2846FB
:1013100040F2BE61A047F2B2284640F2BF61A0474A
:1013200028464FF4D76100F078FA00F0FE00C8F3C9
:101330000021421828464FF4D761A0475FFA88F28F
:10134000284640F2B9612346BDE8F041184700BF86
:1013500089190008BCB58DF803201A4A8DF80430AD
:101360006FF07F4441F68465B2FBF1F3A34228BFDE
:101370002346914288BF0123069A8DF80230190A4C
:101380008DF80110190C8DF8001043F60951B2FBCD
:10139000F1F303FB112245EA8232B2FBF1F16A4616
:1013A00001EB8331A14238BF0C468DF80740210A7A
:1013B00008238DF80610210C8DF805108B2100F004
:1013C000BFFABCBD0000093D1FB50A9C8DF80F4057
:1013D000099C8DF80E40089C8DF80D40079C8DF8F7
:1013E0000C40069C022C28BF02248DF80B40402B99
:1013F00028BF40238DF80A30531E072A28BF072232
:10140000DBB2032B38BF04228DF80920012998BFD5
:1014100001218DF808100DF10702090A09238DF842
:1014200007108C2100F08CFA1FBD70B50C460546E4
:101430000026082E08BF70BD46F4D860A25D81B2B8
:10144000284600F0A1FA0136F3E7BCB504460020B7
:101450008DF8063015460A2988BF01208DF807004F
:10146000052998BF052120460C2928BF0C218DF89D
:1014700004108DF8052001AA8B21042300F060FAE6
:10148000063D204640F6890118BF012500F0C5F948
:1014900000F0FB0040F6890140EA8502204600F09A
:1014A00073FABCBDBCB50446069801298DF804202A
:1014B0008DF80530079D0DF102028DF8060098BFEA
:1014C0000121080A8DF8031006238DF807508DF8C6
:1014D000020020468C2100F033FA204640F236719B
:1014E00000F09BF900F0FB02204640F23671002D1F
:1014F00008BF043200F048FABCBD1CB501248DF8C9
:1015000006308DF804108DF80740072A28BF0722FF
:101510008DF8052001AA9521042300F011FA1CBDC5
:10152000E0B58DF807100DF107028A21FFF7ACFC3A
:101530008CBDE0B509BA0423019101AA862100F00F
:10154000FFF98CBDBCB50C46054600F0ADF96FF057
:101550007F400DF10502844238BF2046FFF775FC3D
:10156000822100F0EDF9BCBDE0B562F382010DF11E
:10157000070201238DF80710842100F0E1F98CBDEA
:10158000E0B5002918BF01218DF807100DF1070201
:101590008021FFF779FC8CBDBCB50C46054600F0F8
:1015A00087F96FF07F400DF10502844238BF204675
:1015B000FFF74BFC832100F0C3F9BCBD10B5044616
:1015C00000F076F92046D22100220023BDE8104029
:1015D00000F0B6B91CB5FFF764FC0DF106028E21D0
:1015E0000223044600F0ACF9204640F6D80100F092
:1015F00014F940F01E02204640F6D80100F0C4F96C
:101600001CBD10B5044600F057F9142003F066FA2B
:101610002046C02100F080F92046002100F07CF92E
:10162000FFF710FC2046BDE8104000F001B80000B4
:1016300070B578B1012818D10D4EA54D013634464C
:1016400018BF012412D02846052103F0C9FB002849
:10165000F4D10BE0064807490130044618BF0124C5
:1016600004D00A68D205F7D400E00024204670BDFB
:10167000BFBDF0FF08910040F0B585B00C46097879
:101680000546FFF74DFF207800B301281CBF05B0C9
:10169000F0BDA17AE27A237B2846FFF7D6FE607D73
:1016A000A67DE189227C237DCDE900062846FFF74F
:1016B000F9FEE27C28464FF4E86100F065F9A27C6F
:1016C000284640F2417100F05FF932E028460021DF
:1016D000FFF726FF206A237F627FA16900902846DA
:1016E000FFF738FE94F83000A18C94F8262094F887
:1016F000273094F8336094F8347094F835C094F837
:101700003AE08DE8C1502846FFF75EFE04F128015B
:101710002846FFF78AFE94F8311094F832202846C4
:10172000FFF7D3FD94F83B30228FE18E2846FFF778
:10173000DDFD2846214605B0BDE8F040AFF300804E
:101740007CB5044648680D46FEF750FF9FED1A0B26
:1017500053EC102BFEF7DBFEFEF755FF014620464B
:10176000FFF7E7FE2046002180220026FFF757FD05
:101770002046042107220023FFF7BFFE204640F643
:10178000E701382200F000F9297A6A7A2046FFF74B
:1017900021FF20460121FFF73AFD20460121FFF7F6
:1017A00054FD20464321032200230096FFF76CFDE1
:1017B0007CBD00BF00BF00BF000000008084EE3F82
:1017C000012804D010B94348012101607047404806
:1017D0000321012203F036BB2DE9F0411D4690465E
:1017E0000F460446FFF724FFFFF706FB2046394665
:1017F00000F092F80027FEB22046B54206D9FF213C
:1018000000F08AF808F806000137F4E7FFF7D8FF80
:101810002046BDE8F041FFF70BBFE0B50DF1070230
:10182000012300F003F89DF807008CBD2DE9F0417D
:10183000FFF7B0FAFFF7E0FADFF8A48120461D2198
:10184000C047390A2046C047F9B22046C047204663
:10185000FF21C047204635B1FF2100F05DF806F8B2
:10186000010B013DF6E7FFF7ABFF2046BDE8F04175
:10187000FFF7DEBE012802D0A8B903F0F3BB10B514
:10188000E94C02210022204603F0DCFA322003F06A
:1018900025F920460221012203F0D4FA3220BDE8C6
:1018A000104003F01BB9704700B1704703F0FCBB58
:1018B00000B1704703F0FEBB012804D010B9054801
:1018C000002101607047D8480321002203F0BABA12
:1018D00000F801400C91004008290AD8DFE801F027
:1018E00005090E131609180C110000210022FFF73C
:1018F0003BBE0021FFF726BEFFF79BBC0021FFF790
:101900003FBEFFF75BBE0121FFF73ABEFFF7D8BC31
:101910006FF07F41FFF740BE012803D058B9084659
:1019200003F0CEBB05480160416801F011010129B7
:10193000FAD1006800E00020C0B2704708200140E2
:101940002DE9F0411E46174688460446FFF770FE13
:10195000FFF752FA20464146FFF7DEFF0025E8B2C6
:10196000864205D9395C2046FFF7D6FF0135F6E7F8
:10197000FFF768FAB8F1840F08BFBDE8F081204690
:10198000BDE8F041FFF754BEE0B58DF807200DF13A
:101990000702012300F002F88CBD00002DE9F041A0
:1019A000FFF7F8F9FFF728FADFF8348020460D2119
:1019B000C047390A2046C047F9B22046C047002731
:1019C000F8B2854205D9315C2046FFF7A5FF013703
:1019D000F6E7FFF737FA2046BDE8F041FFF728BEEB
:1019E00019190008E0B549BA0DF106020223ADF855
:1019F0000610972100F07CFA8CBD1CB5079C8DF871
:101A000001100DF10101FFF72BFA8DF80740069C3C
:101A10008DF80640059C8DF80540049C8DF8044027
:101A200000F077F81CBD00F063B8E0B50DF10502D9
:101A30001521032300F0B8F9BDF8060000BA000C28
:101A40008CBDE0B50DF106021F21022300F0ACF9B8
:101A50009DF807008CBDE0B50DF10702C021012300
:101A600000F0A2F99DF807008CBD00F041B81CB54C
:101A7000059C8DF801100021FFF7F2F9ADF8061072
:101A80000DF101018DF80540049C8DF8044000F033
:101A900040F81CBDE0B58DF807208DF806100DF15B
:101AA00006028F21022300F023FA8CBDD121FFF71B
:101AB0007DB91CB5049C8DF805301B0A8DF80320F8
:101AC000120A8DF80110090A8DF804308DF80220F1
:101AD0008DF800106A468D2108238DF80740240AEE
:101AE0008DF8064000F004FA1CBDC121FFF75EB975
:101AF000E0B58DF807308DF806208DF805100DF152
:101B000005028B21032300F0F3F98CBDD221FFF7EE
:101B10004DB90A468C21072300F0EAB9E0B5042943
:101B200028BF04218DF807100DF107028A21FFF765
:101B300069F98CBDE0B501F001010DF10702012347
:101B40008DF80710962100F0D3F98CBDE0B50A0A94
:101B50008DF80710090C03238DF806208DF8051069
:101B60000DF10502862100F0C3F98CBDE0B58DF8BA
:101B70000510110A8DF807200DF1050203238DF8D9
:101B80000610822100F0B4F98CBDE0B58DF8071085
:101B90000DF107028421FFF735F98CBDE0B500296E
:101BA00018BF01218DF807100DF107028021FFF702
:101BB00029F98CBDE0B58DF80510110A8DF80720C4
:101BC0000DF1050203238DF80610832100F090F932
:101BD0008CBDE0B58DF807200D29A8BF0D210DF1B2
:101BE000060211F1120FD8BF6FF01101123102235A
:101BF0008DF806108E2100F07BF98CBD70B508B110
:101C000000240CE0074EA04D0136344618BF0124D5
:101C100005D02846092103F0E3F80028F4D1204636
:101C200070BD00BFBFBDF0FF00F801402DE9F041DD
:101C300088B00C4601210546FFF77CFF2178284635
:101C4000FFF76CFF207830B3012876D1A07AE27AD2
:101C5000237B0001C1B22846FFF707FF207D402209
:101C6000002818BF0022E67CE07BA17BA37C002E2D
:101C700018BF2026CDE90062C2012846FFF7F7FE13
:101C8000208A0DF1110240F64411022300BA000C23
:101C9000ADF811004AE0A769D4F820802846002159
:101CA0000026FFF73BFF7800217E637FB0FBF8F052
:101CB000C2B22846FFF7B7FE94F83C0094F824100F
:101CC00094F8272094F8393094F83D7094F83EC089
:101CD00094F844E08DE881502846FFF78EFE0DF120
:101CE00011000F2E05D0A11991F828108155013649
:101CF000F7E70DF11106284640F6CE110F233246C4
:101D000000F024F994F8450040F6C5113246052349
:101D10008DF81100B4F8420000BA000CADF81200C2
:101D2000B4F8400000BA000CADF81400284600F0EA
:101D30000DF92846214600F003F808B0BDE8F0810F
:101D40007CB5044648680D46FEF750FC9FED100B2D
:101D500053EC102BFEF7DBFBFEF755FC014620464B
:101D6000FFF7F4FE2046002180220026FFF792FEB6
:101D70006A7A95F908100020FFF72BFF20464321CF
:101D8000032200230096FFF794FE7CBD00BF00BF36
:101D900000000000A8CB684000B170473A4800211D
:101DA000012203F04FB800BF2DE9F0411D469046D7
:101DB0000F460446FFF722FFFFF721F82046394679
:101DC00000F086F80027FEB22046B54206D9FF2172
:101DD00000F07EF808F806000137F4E7FFF7DCFFB3
:101DE0002046BDE8F041FFF709BFE0B50DF107025D
:101DF000012300F003F89DF807008CBD2DE9F041A8
:101E0000FEF7CEFFFEF7FBFFDFF8888120461921A1
:101E1000C047390A2046C047F9B22046C04720468D
:101E2000FF21C047204635B1FF2100F051F806F8E8
:101E3000010B013DF6E7FFF7AFFF2046BDE8F0419B
:101E4000FFF7DCBE00B17047B0B50A4D1420A847BB
:101E50000D4C01210422204602F052FF3220A847F7
:101E600020460121032202F04BFF14202946BDE841
:101E7000B0400847D14A000800B17047024800212D
:101E8000002202F0DFBF00BF00F80140082909D896
:101E9000DFE801F005080F141708190D12000021E2
:101EA000FFF773BEFF214FF6FF72FFF75FBEFFF72C
:101EB000FDBD0021FFF772BEFFF728BE0121FFF72D
:101EC0006DBEFFF712BE00210022FFF773BE0000B7
:101ED00008B1002007E005480160416801F01101E8
:101EE0000129FAD10068C0B2704700BF0820014044
:101EF0002DE9F0411E46174688460446FFF77EFE50
:101F0000FEF77DFF20464146FFF7E2FF0025E8B2DD
:101F1000864205D9395C2046FFF7DAFF0135F6E73E
:101F20002046FFF739FFB8F1840F08BFBDE8F08104
:101F30002046BDE8F041FFF761BEE0B58DF807200F
:101F40000DF10702012300F001F88CBD2DE9F041ED
:101F5000FEF726FFFEF753FFDFF8388020461821F2
:101F6000C047390A2046C047F9B22046C04700277B
:101F7000F8B2854205D9315C2046FFF7A9FF013749
:101F8000F6E72046FFF708FF2046BDE8F041FFF7DF
:101F900035BE00BFD11E000880B50D480168013173
:101FA0000A29016003D10021016003F025F80948E6
:101FB0000078012807D10848018801390180080408
:101FC00008BF00F037FBBDE8804004F0D9BB00BF7C
:101FD000BC070020C2070020C007002080B50C48C5
:101FE0000122016841F4700101600A48016841F072
:101FF000800101600848C16862F31341C160016853
:102000008907FCD503F0F6F9BDE8804002F040BD39
:1020100088ED00E00C00004008000240BCB5074C11
:102020000DF10702FEF7AAFE9DF80700012803D173
:10203000FEF7D9FE14480570BCBD00BF00A00040EB
:10204000BCB5074C0DF10702FEF798FE9DF807009E
:10205000012803D1FEF7C7FE0B484570BCBD00BF89
:1020600000A00140BCB5074C0DF10702FEF786FE4B
:102070009DF80700012803D1FEF7B5FE02488570E0
:10208000BCBD00BF00B00040E01B002000F020BB42
:102090007047FEE70D48BFF34F8F0D4A016801F40A
:1020A000E06111430160BFF34F8F00BFFDE700BF48
:1020B0000648BFF34F8F064A016801F4E0611143FF
:1020C0000160BFF34F8F00BFFDE700BF0CED00E0E4
:1020D0000400FA0563490A680240824202D10A6894
:1020E00010430860704700BF0021B1EB103F08D1DA
:1020F000074940F6FF730A689A430A600A6810436A
:102100000860704702490A6822F44012FEF726BEB2
:1021100004700140044A002911680CBF21EA000044
:1021200008431060704700BF18700140064901283D
:1021300004D038B9086820F0400002E0086840F098
:1021400040000860704700BF4880004010B56FF045
:102150001F020828094C02EB800238BF82000F23BF
:1021600004349140934008283CBF47F20804C4F26D
:102170000104206898430843206010BD08700140A6
:1021800048490A6808B13AB17047D007FCD00868DE
:102190004007F9D4022000E001200A6810430860DB
:1021A000704700BF00000000F8B50E462449054600
:1021B00005201446002D18BF0D20D1E9001721FA83
:1021C00000F0C0B2FEF712FA9FED150B53EC102B86
:1021D000FEF72BF99FED140B53EC102BFEF77EF856
:1021E000FEF73DFA30600420002D18BF0D2027FABD
:1021F00000F06FF35F20FEF7F9F99FED0D0B53EC44
:10220000102BFEF712F99FED0C0B53EC102BFEF781
:1022100065F8FEF724FA2060F8BD00BF00BF00BFDC
:10222000FCA9F1D24D62603F000000000000F03FC9
:10223000FCA9F1D24D62503FFCA9F1D24D62D0BF52
:1022400030200010024800686FF31F30704700BF55
:102250001C700140034909680140081AB0FA80F077
:10226000400970471470014080B5112006210422F6
:10227000002304F00DF96420BDE8804002F02EBC7C
:1022800008490A6830B1D0070AD00868800707D427
:10229000042002E0500703D508200A6810430860B4
:1022A000704700BF0070014010B5FEF721FDFEF73A
:1022B00002FE3548BB4C0021A04734480121A0470D
:1022C00033480121A047334801212246BDE8104090
:1022D000104700BF10B5FEF70BFDFEF7CBFD87489A
:1022E000B04C0021A04786480121A0478548012124
:1022F000A047854801212246BDE81040104700BF95
:1023000070477047F8B51D4DAC6802F0BDFB012663
:102310001BA200201021FEF751FD9F4A0020302112
:10232000FEF74CFD4FF47A709C4EFF27B4FBF0F49F
:102330003078377002280BD0002808BF04F57A7473
:10234000012808BFA4F57A74204602F009FCEFE7E3
:10235000FEF7A2FD0C4CA860924D2046A8470B4802
:102360000121A8470A480121A8470A480121A84796
:102370002046BDE8F840FEF7BFBC00BFC4180020EF
:1023800042414E4420310000F0820008488300089A
:102390001C830008C48200087047000010B5FEF7D7
:1023A000A7FCFEF788FD37487E4C0021A047364841
:1023B0000121A04735480121A04735480121224687
:1023C000BDE81040104700BF10B54B48754C0121C7
:1023D0000068A047FEF78CFCFEF74CFD4748012142
:1023E000A04747480021A04746480121A04746484A
:1023F00001212246BDE81040104700BF70477047DA
:10240000F8B51D4D6C6C02F03FFB01261BA20020AD
:102410001021FEF7D3FC604A00203021FEF7CEFCED
:102420004FF47A705D4EFF27B4FBF0F430783770CC
:1024300002280BD0002808BF04F57A74012808BFD1
:10244000A4F57A74204602F08BFBEFE7FEF724FD3B
:102450000C4C6864534D2046A8470B480121A847FF
:102460000A480121A8470A480121A8472046BDE89B
:10247000F840FEF741BC00BFC418002042414E4462
:1024800020320000CC83000824840008F883000870
:10249000A08300087047000010B5FEF729FCFEF786
:1024A0000AFD3F483F4C0021A0473F480121A0477B
:1024B0003E480121A0473E4801212246BDE8104088
:1024C000104700BF10B50C48364C01210068A047EA
:1024D000FEF70EFCFEF7CEFC08480121A047084895
:1024E0000121A04707480021A047074801212246B3
:1024F000BDE81040104700BF1800002058850008B4
:1025000084850008B0850008088600087047704779
:10251000F8B51E4DD5F8804002F0B6FA01261CA28F
:1025200000201021FEF74AFC1B4A00203021FEF754
:1025300045FC4FF47A70194EFF27B4FBF0F4307865
:10254000377002280BD0002808BF04F57A740128E0
:1025500008BFA4F57A74204602F002FBEFE7FEF70D
:102560009BFC0F4CC5F880000E4D2046A8470E4836
:102570000121A8470D480121A8470D480121A8477E
:102580002046BDE8F840FEF7B7BB00BFC4180020E6
:1025900042414E4420330000B58F0008080000205F
:1025A000A88400088151000800850008D484000830
:1025B0007C84000870470000B0B5044607482A4DE7
:1025C00001802846002100F053F805496000B1FB66
:1025D000F0F0E862BDE8B04000F03CB8C007002071
:1025E00040420F001FB508200121012403F074FCB4
:1025F0008DF809401F201C4C6946009040F2F310F2
:102600000190204600F051F82046012100F03EF8EC
:102610002046012100F032F805484FF00061C0F873
:10262000801101602046002100F022F81FBD00BF8C
:1026300000E100E0B0B50C4C00210025204600F080
:1026400017F804F59A300F21002202F0FBFB07482F
:102650000570B0BD10B504480121012400F008F850
:102660000248047010BD00BF00C00040C207002037
:10267000026822F00102114401607047C26801291A
:1026800022F0010208BF0132C260704702680129CE
:1026900022F0040208BF043202607047006908405B
:1026A000401AB0FA80F0400970474A7A036823F074
:1026B000800362F3C713426803600B7A22F0700252
:1026C0001A434260D1E90012C26281627047000081
:1026D00010B5114C1021204604F07DF900B110BD59
:1026E000204604F019FA0D490D4BCA689854C86881
:1026F0000130C860486801304860C868B0F5007FA4
:1027000004BF0020C8604868B0F5007FE7DD002006
:10271000C8604860886010BD003000401003002091
:1027200089190020022988BF704702A050F82100B3
:1027300004F0D0BF508800086A8900089289000818
:1027400000210022FDF759BD00210022FDF78DBDBB
:1027500050B149B110B50446002004F1080C2160C5
:102760002071ACE80D0010BD012070472DE9F84F35
:102770008046002600270446CCB12068B8B1FDF79A
:1027800001FD0546606810B1FDF7FCFC00E000208B
:10279000AF42C8BF3D46A168002918BF2F468642F8
:1027A000C8BF3046002918BF06461034E4E720A011
:1027B00004F090FF264804F08DFF75427E422D4FB5
:1027C000DFF894B028A40FF28C090FF2900AB8F148
:1027D000000F27D0D8F8002022B3D8F80800B8B1ED
:1027E0004846314604F0E0FAD8F804005A4620B1D1
:1027F0000178002908BF584602465046294604F091
:10280000D3FAD8F80C1039B1087828B115A001E036
:102810002046114604F0C8FA384604F05BFF08F180
:102820001008D4E7134804F055FF0120BDE8F88FE5
:102830003C636F6D6D616E643E203C617267733EF8
:10284000203C68656C7020746578743E0D00000053
:10285000C38F0008252A7300B48F000820252A732F
:102860000000000020257300202D2D2D2025732031
:102870002D2D2D00169000082DE9F04F9BB000285B
:1028800000F03D81002900F03A810446D0E902B011
:1028900015465A44824280F0348120682A465844C2
:1028A000FDF734FCA0684FF0000A002300262844FE
:1028B000A0600AA904310691834580F02481216833
:1028C00011F80B90B9F10A0F05D0B9F10D0F02D034
:1028D0000BF1010BF0E701F80BA05B4500F0FE8067
:1028E00020682169C518CDE90831284629460A78AB
:1028F000082A03D03AB100F8012B02E0A84288BFB1
:1029000001380131F3E7854980F800A028461AAA6A
:1029100003F0E8FF002800F0E080DDF824A007467F
:102920000796BAF1000F12D0DAF80060002EB04618
:1029300018BF4FF0010812D0DAF8080020B138466D
:102940003146FDF745FCD0B10AF1100AE9E70998D4
:1029500080B3079E4FF000084FF0000A06E0012008
:102960000999079E4FF0000A29B120B128466CA1B1
:10297000FDF72EFCC8B1B8F1000F1ED0ADE06749DD
:102980000A9600201AAA002603F0ACFF0127E0B146
:102990000AA90F2F41F8270036D0604900201AAA53
:1029A00003F0A0FF01360137F1E70998FFF7DEFEDB
:1029B00018B192E0079E4FF0000A002F00F08D80C2
:1029C00038460021FFF7AEFE87E0DAF80400002861
:1029D00070D001783F2902D1417800296AD0039054
:1029E000FDF7D0FB029003982A21FDF7C1FB68B1E7
:1029F000DDE9022E0EEB02010139884266D1012A7F
:102A000064D0901E009005E0012160E0029ADDF89C
:102A10000CE000920EEB020000234FF02E0C019010
:102A2000002E44D0934205DA1EF803002A2818BF6E
:102A3000844604E0019810F8010C2A2846D1ACF134
:102A40007300022104280CD8CDE904C3DFE800F0AC
:102A5000033F20101D0006980421012250F8230096
:102A60001BE0BCF1620F1FD0BCF1660F1CD02EE042
:102A70000698002250F8230004F04AF90221DDE90B
:102A800004C3DDE9022E78B921E00698042101E0B3
:102A90000698012150F82300002204F039F9DDE9FD
:102AA00004C3DDE9022E88B1013E0133B8E7009886
:102AB00087420BDDDAF8082038460AA99047DAF891
:102AC00000000027B0FA80F0400949E702212846BB
:102AD000FFF728FE079E4FF0000A089BB9F10A0F86
:102AE00008BF5B4507D00136A0680BF1010B84F8E5
:102AF00004905B46E0E620790D28F5D0F3E7FF2649
:102B000008E0FE2606E02BB1C21A2068A260C118B8
:102B1000FDF7FCFA70B21BB0BDE8F08F189000080A
:102B200068656C700000000080B5FEF774F9C0B2F3
:102B300002F070FC09A104A2002818BF1146084643
:102B4000BDE8804004F0C6BD434C4541525F45524C
:102B5000524F52533A204F4B0D000000434C454119
:102B6000525F4552524F52533A204552524F520DE6
:102B7000000000002DE9F0414868104E0D46B047B6
:102B80000746A868B0470446E868B04705460CA069
:102B900004F0A0FDAEB2FDB20FF23008A7B2B7420A
:102BA00088BFBDE8F0812846394602F0F3FE0246B0
:102BB0004046394604F0F8F80134EFE749270008A9
:102BC00044554D505F524547533A0D0030782530FB
:102BD00034582C3078253032580D0A0080B5FEF775
:102BE0001AF9C0B2032801D31F4814E0012807D006
:102BF00080B90B4890F8351090F8362011A005E008
:102C0000074890F8711090F8722006A0BDE8804047
:102C100004F0CAB81348BDE8804004F05BBD00BFB3
:102C2000C418002046535F4745545F414444523A1C
:102C300020312C3078253032582C307825303258DD
:102C40000D0A000046535F4745545F414444523AE1
:102C500020302C3078253032582C307825303258BE
:102C60000D0A0000BF880008D488000880B5FEF770
:102C7000D2F8C0B2032801D312A016E0012807D071
:102C800090B90C4890F83F30828F418F0B4807E095
:102C9000084890F87B30B0F87820B0F876100648F5
:102CA000BDE8804004F080B80548BDE8804004F0ED
:102CB00011BD00BFC4180020128700088A860008D2
:102CC000A988000846535F4745545F43524357481D
:102CD0003A20494E56414C494420524144494F0DF7
:102CE0000000000000000000F8B5FEF794F8C0B244
:102CF000032801D3484822E0012817D0F0B9224820
:102D000090F820100939C9B216298FBF9FED1C0B0E
:102D10002C4A02EBC10191ED000B90F82120C16912
:102D2000406A8DED000B029027A022E0164890F833
:102D300020101F2908D19FED100B12E02FA004B026
:102D4000BDE8804004F0C6BC90F85C100939C9B2F7
:102D500014298FBF9FED0A0B0C4A02EBC10191EDC4
:102D6000000B90F85D20816D006E8DED000B0290E0
:102D700007A004F019F88FBD000000403333134062
:102D8000000000000000F0BFC418002038780008E0
:102D900046535F4745544D4F44504152414D533A7D
:102DA00020310D0A42523D25640D0A53483D2564E9
:102DB0000D0A42573D252E31660D0A4445563D25E4
:102DC000640D0A008077000846535F4745544D4F15
:102DD00044504152414D533A20300D0A42523D2554
:102DE000640D0A53483D25640D0A42573D252E3196
:102DF000660D0A4445563D25640D0A0046535F475B
:102E000045544D4F44504152414D533A20323A546B
:102E10004F444F0D00000000F08800082DE9FC41F0
:102E2000FDF7F9FFC1B2022901D92FA057E03748B9
:102E300089B1012952D100F1640C00F1660300F15F
:102E4000670E00F1740400F1700200F1730700F1E5
:102E500075057A300EE000F1280C00F12A0300F12C
:102E60002B0E00F1380400F1340200F1370700F1B5
:102E700039053E3090F800809EF800001678BCF8C6
:102E800000201B782D7824783F78009028A003F04C
:102E90008BFF37483749012E08BF01463648002EC0
:102EA00018BF084604F016FC35483449002F18BFF7
:102EB000084604F00FFC3348214603F075FF062D49
:102EC0009ABF324850F825002F4804F003FC3148DF
:102ED0002F49B8F1000F18BF084600E00CA0BDE86C
:102EE000FC4104F0F7BB00BF46535F4745545F50B9
:102EF00041434B4554504152414D533A20494E565F
:102F0000414C494420524144494F0D00C41800200F
:102F100046535F4745545F5041434B4554504152DF
:102F2000414D533A20322C544F444F0D00000000C5
:102F300046535F4745545F5041434B4554504152BF
:102F4000414D533A25640D0A5052455F4C454E3D64
:102F500025640D0A5052455F4445543D25640D0AD1
:102F600053594E435F4C454E3D25640D0A00000009
:102F7000618800084B890008908800084289000891
:102F8000388800089A87000843880008E07800081D
:102F90009F8800088588000870B5FDF73CFFC0B227
:102FA000032801D327A027E0012810D018BB1BA0BD
:102FB00003F0FAFE164E174C0025072D04D07019A9
:102FC000FDF765FF0135F8E796F833100EE00CA029
:102FD00003F0EAFE0E4E0F4C0025072D04D07019A9
:102FE000FDF743FF0135F8E796F86F100A48BDE892
:102FF000704003F0D9BE0DA0BDE8704004F06ABB7C
:1030000046535F4745545F53594E433A20312C0095
:10301000C4180020D18900089187000846535F47F3
:1030200045545F53594E433A20302C0046535F4776
:1030300045545F53594E433A20322C544F444F0D60
:103040000000000046535F4745545F53594E433AD2
:1030500020494E56414C494420524144494F0D00AD
:1030600070B548680E46FFF76FFBC4B2032C01D35E
:103070001C4813E00CB1012C0FD1B068FFF764FBC2
:103080000546F068FFF760FB06460D4880F835609E
:1030900044B100F14001012006E00848BDE870405D
:1030A00004F018BB011D0020FEF7E6FAEAB2F3B205
:1030B00004A02146BDE8704003F076BEBF8800083A
:1030C000C418002046535F5345545F414444523A6C
:1030D0002025642C3078253032582C307825303239
:1030E000580D0A00D48800082DE9F0414868204CAA
:1030F0000E46A0470746B068A0478046F068A04744
:1031000005463069A047F9B2032901D31DA02AE082
:10311000012910D031BB174C84F83F00211D00203D
:10312000A587A4F83A80FEF7A7FA94F83F30A28F5B
:10313000618F124812E00F4C84F87B0004F14001CB
:103140000120A4F87850A4F87680FEF795FA94F858
:103150007B30B4F87820B4F876100748BDE8F04129
:1031600003F022BE0648BDE8F04104F0B3BA00BF48
:1031700049270008C418002056870008CE8600089A
:10318000A988000846535F5345545F43524357484C
:103190003A20494E56414C494420524144494F0D32
:1031A00000000000000000002DE9F8432DED066B43
:1031B0004868A14D0F46A8470446B868A847064688
:1031C000F868A84780463869A84781467869A847C3
:1031D000E1B2032901D3A4A023E009B101291FD141
:1031E0009D4B4FF41672B0F5167F98BF104698426B
:1031F00028BF1846994BB6F5167F88BF32469A42CB
:1032000028BF1A46B9F1060F03D29FED618B1F2329
:1032100090E0B9F1060F0BD19FED5F8B172389E08A
:1032200086A0BDEC066B01B0BDE8F04304F052BAD5
:10323000B9F1090F03D29FED5A8B0F237AE0B9F150
:103240000B0F03D29FED588B1E2373E0B9F10D0FC6
:1032500003D29FED578B16236CE0B9F1100F03D208
:103260009FED558B0E2365E0B9F1150F03D29FED4D
:10327000548B1D235EE0B9F1190F03D29FED528BE1
:10328000152357E0B9F11F0F03D29FED518B0D238A
:1032900050E0B9F1280F03D29FED4F8B1C2349E07A
:1032A000B9F1300F03D29FED4E8B142342E0B9F1F8
:1032B0003C0F03D29FED4C8B0C233BE0B9F1500F38
:1032C00003D29FED4B8B1B2334E0B9F15F0F03D288
:1032D0009FED498B13232DE0B9F1770F03D29FEDBA
:1032E000488B0B2326E0B9F19E0F03D29FED468B4E
:1032F0001A231FE0B9F1BD0F03D29FED458B1223B6
:1033000018E0B9F1EC0F03D29FED438B0A2311E0D3
:10331000B9F59C7F03D89FED428B19230AE042A3A5
:10332000B9F5BB7F98BF083393ED008B4FF00903CD
:1033300098BF11234A4C79B1206604F14001012065
:1033400084F85D80A26584F85C30FEF795F994F806
:103350005D20A16D206E0DE06062211D002084F8CB
:103360002180E26184F82030FEF786F994F821206C
:10337000E169606A02903B488DED008B03F014FD1B
:10338000BDEC066B01B0BDE8F08300BF00BF00BF1D
:103390000000004033331340000000403333174037
:1033A0000000004033331D4000000060666623408B
:1033B00000000060666627400000004033332D4067
:1033C0000000000000803340000000606666374067
:1033D000000000C0CC4C3D40000000000080434095
:1033E0000000004033734740000000C0CC4C4D400B
:1033F000000000C0CC8C53400000004033735740A5
:103400000000004033535D4000000060668663406A
:103410000000006066666740000000A099496D40AA
:1034200000000000008073400000000000307D407C
:10343000000000A0995977404927000846535F5380
:1034400045544D4F44504152414D533A20322C5433
:103450004F444F0D00000000400D0300E0930400B6
:10346000C4180020A787000846535F5345544D4FAA
:1034700044504152414D533A20494E56414C4944E3
:1034800020524144494F0D002DE9FE4FFDF757FCF6
:103490005FFA80F8B8F1020F01D949A08BE0B8F1CA
:1034A000000F18BFB8F1010F40F08480A068DFF86A
:1034B0005491C8470290E068C84701902069C84706
:1034C00000906069C847C6B2A069C847074600288F
:1034D000824618BF0127E069C8478346206AC8476B
:1034E0000546606AC84700284749814618BF012041
:1034F000B8F1000F16D081F87370009C029FA846A7
:1035000081F87550019D81F87A0081F874B081F8D6
:103510007060012081F8674081F86650A1F86470FE
:10352000403114E081F83770009C029FA84681F872
:103530003950019D81F83E0081F838B081F834603F
:10354000002081F82B4081F82A500F850431FEF7C6
:1035500093F8B9B2EAB2E3B22CA003F025FC3A48E2
:103560003A49012E08BF01463948002E18BF0846C7
:1035700004F0B0F838483749BAF1000F18BF0846D0
:1035800004F0A8F835485FFA8BF103F00DFC5FFA00
:1035900088F006288FBF324808F00700314951F8FB
:1035A000200004F097F831482F49B9F1000F18BFF7
:1035B000084600E00BA0BDE8FE4F04F08BB800BF4A
:1035C00046535F5345545F5041434B45545041521D
:1035D000414D533A20494E56414C494420524144B2
:1035E000494F0D0046535F5345545F5041434B458F
:1035F00054504152414D533A20322C544F444F0DB8
:103600000000000049270008C418002046535F53FB
:1036100045545F5041434B4554504152414D533AFC
:103620000D0A5052455F4C454E3D25640D0A5052DF
:10363000455F4445543D25640D0A53594E435F4C44
:10364000454E3D25640D0A00618800084B8900083D
:103650009088000842890008388800089A87000886
:1036600043880008E07800089F88000885880008E3
:1036700070B5FDF764FBC0B2032801D332A04AE065
:1036800018B3012846D1264D08340026082E08D04C
:1036900054F82600FFF758F8A919013681F8680098
:1036A000F4E705F1400100200026FDF7E5FF1D4885
:1036B00003F07AFB1C4C072E04D0A819FDF7D5FBAC
:1036C0000136F8E795F86F101FE0154D0834002615
:1036D000082E08D054F82600FFF736F8A91901364D
:1036E00081F82C00F4E7291D00200026FDF7C4FF17
:1036F0000C4803F059FB0C4C072E04D0A819FDF719
:10370000C6FB0136F8E795F833100848BDE870406D
:1037100003F04ABB06A0BDE8704003F0DBBF00BF6A
:10372000C4180020C3890008D189000891870008C7
:1037300046535F5345545F53594E433A20322C54FD
:103740004F444F0D0000000046535F5345545F53F4
:10375000594E433A20494E56414C49442052414427
:10376000494F0D0010B5FDF756FBC4B2032C04D32E
:103770000EA0BDE8104003F0ADBF204601F064FE8E
:1037800010EE100AFCF758FF02460B4602A0214635
:10379000BDE8104003F008BB4745545F52535349FE
:1037A0003A2025642C252E31660000004745545FE1
:1037B000525353493A20494E56414C4944205241B4
:1037C00044494F0D0000000001A003F083BF00BF7B
:1037D0004745545F4354554E453A204E4F5420536D
:1037E0005550504F525445440D00000001A003F0C5
:1037F00071BF00BF4745545F44455649443A205481
:103800004F444F0D000000001CB50020ADF806002D
:103810008DF80500FDF7FFFAC4B20DF105010DF1B9
:103820000602204601F028FE30B1BDF8062009A0AE
:10383000214603F0B9FA1CBD01A003F04BFF1CBDEB
:103840004745545F4552524F52533A204552524FCA
:10385000520D00004745545F4552524F52533A2093
:1038600025642C3078253034580D0A0080B5FDF7DA
:10387000D2FAC0B2032804D315A0BDE8804003F0FB
:1038800029BF012814D000280F481FBFD0F880009E
:103890004FF47A71B0FBF1F20C4811BF022180683D
:1038A0004FF47A71B0FBF1F204BF0848002107E041
:1038B00005484FF47A71406CB0FBF1F203480121E6
:1038C000BDE8804003F070BAC418002009880008E1
:1038D0004745545F465245513A20494E56414C495E
:1038E0004420524144494F0D000000001CB5FDF733
:1038F00092FAC4B20DF10701204601F0E9FD30B1A2
:103900009DF8072009A0214603F04EFA1CBD02A035
:1039100003F0E0FE1CBD00BF4745545F4D4F4445DA
:103920004D3A204552524F520D0000004745545F1A
:103930004D4F44454D3A2025752C25750D0A000044
:1039400080B5FDF768FAC0B2032804D310A0BDE823
:10395000804003F0BFBE01280CD000280A481DBFDC
:1039600090F984200948022190F90C2004BF0748EF
:10397000002104E00448012190F948200348BDE8F3
:10398000804003F011BA00BFC4180020DB87000894
:103990004745545F504F5745523A20494E56414C87
:1039A000494420524144494F0D0000001CB50020FD
:1039B0008DF807008DF80600FDF72DFAC4B20DF161
:1039C00006010DF10702204601F09AFD40B19DF875
:1039D00007309DF8062009A0214603F0E5F91CBD3B
:1039E00001A003F077FE1CBD4745545F535441547A
:1039F00055533A204552524F520D00004745545FEF
:103A00005354415455533A2025642C307825303294
:103A1000582C3078253032580D0A0000BFB50748C1
:103A20000388C278017944798579C079029004A02D
:103A3000CDE9004503F0B8F9BFBD00BF3003002059
:103A40004745545F54494D453A2025642E25303270
:103A5000642E253032642C253032643A25303264AD
:103A60003A253032640D0A000348036803480268AF
:103A700003A003F099B900BF300002402C000240BF
:103A80004745545F5549443A203078256C6C580DB1
:103A90000A00000002A001210022012303F084B9E2
:103AA0004745545F56455253494F4E3A2048573D7B
:103AB00025642C46573D25642E25640D0A00000020
:103AC00080B505480068FCF7B7FD024603A00B4629
:103AD000BDE8804003F068B9280300204745545FE3
:103AE000564241543A20252E33660D0A000000004C
:103AF00003480449044B4FF48072FEF729BE00BF0F
:103B00008C1B0020C30700201C00002080B501F0A2
:103B10006DFD02A0BDE8804003F0DCBD494E495474
:103B20005F434F4E4649473A204F4B0D000000007F
:103B3000BCB5FDF770F9C1B2022901D942A06AE013
:103B40004A4C02290AD001290FD194F84D5004F1B2
:103B50004C0204F14A0004F14B030DE004F1880229
:103B600004F1860004F1870306E0657C04F110028D
:103B700004F10E0004F10F031B7800781478022979
:103B80000CD10A2B33D0182B2BD0342B2CD0262B36
:103B900014BF9FED230B9FED2A0B2AE00A2B8FBF4A
:103BA0009FED1F0B324A02EBC30292ED000B009017
:103BB00030A053EC102B03F0F7F8384803F0F4F87A
:103BC000042C9ABF374850F82400354803F082FD92
:103BD000354803F0E9F8E8073449354818BF084686
:103BE00019E09FED150B04E09FED0F0B01E09FED39
:103BF000100B009053EC102B2EA003F0D5F82748A3
:103C000003F0D2F8072C9ABF344850F82400244817
:103C100003F060FD32A0BDE8BC4003F05BBD00BF17
:103C2000000000000000F0BF0000000000606940DC
:103C3000000000000064994000000000006089401E
:103C400000000000006079404C525F4745545F4DD2
:103C50004F44504152414D533A20494E56414C49F0
:103C60004420524144494F0D00000000C418002078
:103C7000007900084C525F4745545F4D4F44504116
:103C800052414D533A2025640D0A42573D252E31AD
:103C9000660D0A53463D25640D0A0000E8890008B8
:103CA0004788000858790008CC8A0008A5880008D1
:103CB0009A8800084C525F4745545F4D4F4450412D
:103CC00052414D533A20320D0A42573D252E31665E
:103CD0000D0A53463D25640D0A0000006C7900086A
:103CE0004C524F50543A4E4F5420535550504F520F
:103CF0005445440D00000000F8B5FDF78CF8C0B243
:103D0000022801D935A463E03D4D01281CD0E0BB59
:103D10002A7E698A5048494EB047297D4948484A19
:103D2000002918BF104603F0D5FC4748B047687E0D
:103D3000474C464F0028204618BF384603F0CAFCBF
:103D40004448B047A87E40E095F85420B5F84E109E
:103D50003A4E2CA0B04795F850103A48384A0029FE
:103D600018BF104603F0B6FC3748B04795F8550029
:103D7000374C364F0028204618BF384603F0AAFCBF
:103D80003448B04795F856001FE095F88A1095F82A
:103D90008E203248294EB04795F88B102948284A82
:103DA000002918BF104603F095FC2748B04795F846
:103DB0008F00274C254F0028204618BF384603F0B7
:103DC00089FC2448B04795F89000002818BF3C466D
:103DD0002046BDE8F84003F07DBC00BF4C525F4771
:103DE00045545F5041434B4554504152414D533A25
:103DF00020494E56414C494420524144494F0D0000
:103E0000C41800204C525F4745545F5041434B4516
:103E100054504152414D533A20310D0A5052455FA2
:103E20004C454E3D25640D0A5041595F4C454E3D71
:103E300025640D0A4845414445523A00A96D0008E1
:103E40007E89000888890008D9890008A5880008AB
:103E50009A880008DE890008EC8900085C8A00085E
:103E600080B5FCF7D8FFC0B2032804D31EA0BDE87C
:103E7000804003F02FBC012808D00028074819BF54
:103E8000B0F88C1012A0C18A0BA003E00348B0F870
:103E9000521003A0BDE8804002F086BFC418002085
:103EA0004C525F4745545F53594E433A20312C30B2
:103EB00078253034580D0A004C525F4745545F5303
:103EC000594E433A20302C3078253034580D0A00B2
:103ED0004C525F4745545F53594E433A20322C3081
:103EE00078253034580D0A004C525F4745545F53D3
:103EF000594E433A204552524F520D0000000000E7
:103F00002DE9F0472DED047B48688D4C0E46A04707
:103F10000746B068A0470546F068A047814630696B
:103F2000A04782467069A047FEB2032E01D3A6A027
:103F3000C7E080460EB1012E0CD1A8B2092803D2E9
:103F40009FED6B8B002074E00C2809D29FED6A8BEB
:103F500008206EE0A8B2CC2808D29FED5D8B18E057
:103F6000112809D29FED668B012062E0B0F5CB7F6E
:103F700008D89FED598B0CE0162838D29FED628B44
:103F8000092056E056A1B0F54B7F98BF083191ED5E
:103F9000008B6C4800F17C010020FDF747FE5FFAC2
:103FA00089F053EC182B0C28014628BF0C2105285A
:103FB00065A038BF0521009102F0F6FE6C4802F0C2
:103FC000F3FE1AF0F80F18BF4FF0070A5FFA8AF0F5
:103FD00007289ABF684951F82000664803F07AFB29
:103FE00066A0BDEC047BBDE8F04702F0DDBE2028F2
:103FF00003D29FED478B02201BE02B2803D29FEDBD
:10400000468B0A2015E0402803D29FED458B032004
:104010000FE07E2803D29FED448B042009E044A1E9
:10402000FB284FF0060038BF083191ED008B38BFF8
:1040300005205FFA8AF15FFA89F5424A042988BFB0
:104040004FF0040A09F0FE010C2D28BF0C250629AB
:104050005FFA88F138BF0625002918BF01215EB13B
:1040600082F84D1082F84B0002F14001012082F8E5
:104070004CA082F84A5006E05174D07382F810A028
:104080009573111D0020FDF7F7FA53EC182B40A093
:104090003146009502F088FE354802F085FE5FFA51
:1040A0008AF004289ABF444951F82000314803F0AF
:1040B00011FB424802F078FE5FEA08600CBF4048FE
:1040C0004048BDEC047BBDE8F04703F003BB00BFF4
:1040D00000000000006069400000000000607940BE
:1040E000000000000064994000000000006089406A
:1040F0000000004033331F40000000C0CCCC2440FF
:104100000000004033332F40000000C0CCCC3440CE
:10411000000000C0CC4C3F40000000A099D94440B2
:104120000000000000404F400000000000405F40E1
:104130000000000000407F400000000000406F4091
:1041400049270008C41800204C525F5345545F4D66
:104150004F44504152414D533A20320D0A42573D8F
:10416000252E31660D0A53463D25640D0A000000D8
:10417000E8890008478800086C7900084C524F50C5
:10418000543A4E4F5420535550504F5254454400CA
:104190004C525F5345545F4D4F44504152414D5333
:1041A0003A2025640D0A42573D252E31660D0A53EB
:1041B000463D25640D0A000058790008CC8A0008A5
:1041C0009A880008A58800084C525F5345545F4DFB
:1041D0004F44504152414D533A20494E56414C496B
:1041E0004420524144494F0D000000002DE9F047A2
:1041F0004868584D0E46A8470446B068A847804610
:10420000B068A84781463069A84782467069E7B21E
:10421000A8470446B069A847022F01D94EA493E0ED
:10422000564E0AF0010104F0010200F00100012FD6
:1042300028D0002F56D1B0763175311D002086F878
:104240001890A6F812807276FDF716FA327E718AFF
:104250006048594DA847317D5948584A002918BF30
:10426000104603F037FA5748A847707E574C564F10
:104270000028204618BF384603F02CFA5448A847B7
:10428000B07E5EE086F8560086F8501006F14001D8
:10429000012086F85490A6F84E8086F85520FDF748
:1042A000EBF996F85420B6F84E10434D34A0A847C9
:1042B00096F850104248414A002918BF104603F0B2
:1042C00009FA4048A84796F85500404C3E4F002850
:1042D000204618BF384603F0FDF93D48A84796F838
:1042E00056002EE086F8900086F88B1006F17C01CF
:1042F000002086F88E9086F88A8086F88F20FDF759
:1043000095FC96F88A1096F88E2033482A4DA847D7
:1043100096F88B102A48294A002918BF104603F046
:10432000D9F92848A84796F88F00284C264F00282E
:10433000204618BF384603F0CDF92548A84796F81F
:104340009000002818BF3C462046BDE8F04703F027
:10435000C1B900BF492700084C525F5345545F5014
:1043600041434B4554504152414D533A20494E56DA
:10437000414C494420524144494F0D00C41800208B
:104380004C525F5345545F5041434B45545041524A
:10439000414D533A20310D0A5052455F4C454E3D38
:1043A00025640D0A5041595F4C454E3D25640D0A68
:1043B0004845414445523A00A96D00087E890008ED
:1043C00088890008D9890008A58800089A8800080B
:1043D000DE890008248A0008948A0008B0B5FCF73A
:1043E000AEFCFCF7E7FCE9B2032904D327A0BDE843
:1043F000B04003F06FB9124C012908D091B9E082A6
:10440000211D0020FDF738F9E18A14A014E0A4F87A
:10441000520004F140010120FDF72EF9B4F85210CA
:1044200008A009E0A4F88C0004F17C010020FDF74D
:10443000FDFBB4F88C100FA0BDE8B04002F0B4BC96
:10444000C41800204C525F5345545F53594E433AB1
:1044500020312C3078253034580D0A004C525F53EF
:1044600045545F53594E433A20302C307825303430
:10447000580D0A004C525F5345545F53594E433A0E
:1044800020322C3078253034580D0A004C525F53BE
:1044900045545F53594E433A20494E56414C494486
:1044A00020524144494F0D00E0B5FCF709FD8DF85D
:1044B0000700C0B238B1FF2805D003480DF107014D
:1044C0000122FEF7D9F98CBD8C1B0020B0B5FCF79A
:1044D00036FCFCF76FFCEAB281B2104601F05AFAE2
:1044E000014602A0BDE8B04002F05EBC5245414426
:1044F0005F5245473A203078253032580D0A000087
:1045000003A003F0E7F8642000F0E2FAFDF7C2FD33
:1045100052455345543A204F4B0D00007047000060
:1045200001A003F0D7B800BF5345545F4354554E24
:10453000453A204E4F5420535550504F5254454405
:104540000D00000001A003F0C5B800BF5345545F43
:1045500044455649443A20544F444F0D0000000052
:1045600070B5FCF7ECFB0646A068FEF7EDF8F4B278
:10457000032C04D31DA0BDE8704003F0ABB8054682
:104580004FF47A700D4A05FB00F18020012C08BF22
:104590004420002C08BF08201150204601F098FA52
:1045A00030B10DA021462A46BDE8704002F0FCBBA8
:1045B00003A02146BDE8704002F0F6BBC4180020FD
:1045C0005345545F465245513A2025752C45525269
:1045D0004F520D0A000000005345545F46524551AA
:1045E0003A2025752C25750D0A0000005345545FAF
:1045F000465245513A20494E56414C494420524179
:1046000044494F0D00000000B0B5FCF798FBFCF7E3
:10461000D1FBFCF74BFC01F093FA30B10AA0214624
:104620002A46BDE8B04002F0BFBB02A0BDE8B040E2
:1046300003F050B85345545F4D4F44454D3A204523
:1046400052524F520D0000005345545F4D4F4445A8
:104650004D3A2025752C25750D0A0000B0B5FCF7E4
:104660006EFBFCF7A7FBFCF721FC01F093FA30B1DD
:104670000AA021462A46BDE8B04002F095BB02A040
:10468000BDE8B04003F026B85345545F4F504D4F3E
:1046900044453A204552524F520D00005345545F55
:1046A0004F504D4F44453A2025642C25640D0A0097
:1046B000B0B5FCF744FB0546A068FEF741F8ECB244
:1046C000032C01D318A014E041B2204601F074FA83
:1046D00070B11348012C10D0002C1DBF90F984201C
:1046E0001048022190F90C2004BF0E48002108E078
:1046F00006A0BDE8B04002F0EDBF90F9482009489F
:104700000121BDE8B04002F04FBB00BF5345545FEC
:10471000504F5745523A204552524F520D0000001B
:10472000C4180020F28700085345545F504F574586
:10473000523A20494E56414C494420524144494F37
:104740000D0000007047000080B502F013FB02A0CE
:10475000BDE8804002F0BEBF53544F52455F434F07
:104760004E4649473A204F4B0D0000002DE9F84FC7
:104770004868274D0E46A8470746B068A8478246B6
:10478000F068A84783463069A84704467069A8477F
:104790008046B0695FFA87F9FDF7D2FFB9F1030FE0
:1047A00004D34048BDE8F84F02F094BF4FF47A7349
:1047B0000AFB03F10BFB03F263435C18A24201D234
:1047C00037480BE0DC087C2C01D82DA006E0B8F1BE
:1047D000000F02D0B8F13D0F05D320A04946BDE837
:1047E000F84F02F0E1BA00EE100A4846CDF800801A
:1047F000B8EEC00A01F0F0F838B10C4810F8090022
:10480000002814BF0AA010A0E8E702A0E6E700BF56
:104810004927000853574545505F52583A202564B0
:104820002C4552524F520D0A000000004503002053
:1048300053574545505F52583A2025642C535441F4
:1048400052540D0A0000000053574545505F52581E
:104850003A2025642C53544F500D0A0053574545B8
:10486000505F52583A2025642C54494D4520494EFA
:1048700054455256414C204552524F5200000000C0
:1048800053574545505F52583A2025642C465245AF
:10489000512053544550204552524F5200000000C1
:1048A000348C0008108900082DE9FC474868264D23
:1048B0000C46A8470646A068A8478146E068A84776
:1048C00082462069A84707466069A8478046A069D4
:1048D000A847F4B2032C04D34048BDE8FC4702F0DB
:1048E000F9BE4FF47A7309FB03F10AFB03F27B4331
:1048F0005D18AA4201D238480CE0DD087C2D01D8B1
:10490000344807E0B8F10A0F03D34EF66125A845F5
:1049100005D327A02146BDE8FC4702F045BAC0B246
:10492000032801D31BA0F5E7CDE90080204601F064
:10493000FDF930B10B48005D002814BF0AA010A09B
:10494000E8E702A0E6E700BF4927000853574545BE
:10495000505F54583A2025642C4552524F520D0A4C
:10496000000000004203002053574545505F545853
:104970003A2025642C53544152540D0A0000000083
:1049800053574545505F54583A2025642C53544F93
:10499000500D0A0053574545505F54583A2025643E
:1049A0002C53545245414D204552524F5200000065
:1049B00053574545505F54583A2025642C54494D6F
:1049C0004520494E54455256414C204552524F5273
:1049D00000000000178C00084C8C00082989000892
:1049E000B0B5FCF7ACF9FCF7E5F9FCF75FFA01F0BC
:1049F0005FF930B10AA021462A46BDE8B04002F076
:104A0000D3B902A0BDE8B04002F064BE54585F5371
:104A1000545245414D3A204552524F520D0000002C
:104A200054585F53545245414D3A2025752C2575F5
:104A30000D0A0000F8B548680B4F0C46B84705460C
:104A4000A068B8470646E068B847E9B2C5B2B4B254
:104A5000084621462A4601F0BBF904A021462A4611
:104A6000BDE8F84002F0A0B9492700085752495460
:104A7000455F5245473A203078253034582C3078FD
:104A8000253032580D0A00000020FCF757BA00000C
:104A900080B5012001F05CFC0A49884211D3B0FBCB
:104AA000F1F1194A11704FF47A71E022B0FBF1F084
:104AB00005490138486005480270002088600720D9
:104AC000086080BD40420F0010E000E023ED00E0F0
:104AD0004FF47A71484300F001B80000B0B50A49BC
:104AE0000B780A490A686BB14C68584300234D683B
:104AF000A542FCD023445B1BA54228BF13442C468F
:104B00008342F4D3B0BD00BFC308002014E000E02E
:104B100070B592B0054610EE100A0C46FBF78CFDFE
:104B200041EC100B0AA12A4623468DED000B02AE84
:104B3000304602F049F9012032461023009010203F
:104B400000EB0510C1B20020FCF778F812B070BD80
:104B500025643A25642C252E3166202000000000B3
:104B60001CB5054C024605A1204602F02DF9012096
:104B70002021FCF7EDF81CBDA01B0020535441522E
:104B8000543A25646B487A003B490A68D20444BF12
:104B90004FF480520A6010B5384A394B394C936152
:104BA0009461146804F40074223414609361002347
:104BB00093614FF0FF3303600868C00406D4906827
:104BC000C007FCD001209060002010BD4FF4805041
:104BD00008606FF0670010BD2DE9FE43264B274C9F
:104BE000284DEE4699461B68DB0444BF4FF48053C2
:104BF000C9F80030224BA361A561256805F4007552
:104C000024352560A36100234FF0FF35A361CDE972
:104C1000005522F007054F19EE18964204D2FE5CAB
:104C20000EF803600133F7E700274FF0FF384FF02D
:104C3000010C974214D27646AF4238BFCE19336882
:104C4000E3607368236147F80080D9F80030DB0423
:104C500009D4A368DB07FCD0C4F808C00837E8E72C
:104C60000020BDE8FE834FF48050C9F800006FF0CB
:104C70006700BDE8FE8300BF08F00040000002406E
:104C8000BFAE9D8C16151413B0B5074D0446C1B2C6
:104C9000284601F047FF2846802101F09CFE0028AD
:104CA000F9D02046B0BD00BF0030004049000322CB
:104CB00002FA01F1C26A1140C1627047012303FA8E
:104CC00001F1002A426A0CBF22EA0101114341624C
:104CD000704710B549000323C46A8B4002FA01F102
:104CE0001C40C462826A9A431143816210BDC06A4B
:104CF0004900C84010F0030018BF012070470000B1
:104D000010B5062A18D8DFE802F004200D14082791
:104D10003C00FCF728F80A4311E0FCF753F822EABC
:104D200001015AE0FCF71FF8FCF7A7F822EA01019D
:104D300010E0FCF747F843E0FCF715F88A4382607F
:104D4000C26822EA0101C16010BDFCF70CF8FCF753
:104D500094F81143016110BD0122594B8A40D4439C
:104D6000984223D1082921D39869204098619868F6
:104D70002040986018681043186018691043186143
:104D800010BD01224E4C8A40D343A0421AD10829BB
:104D900018D3A0691840A061A0681840A0602068DE
:104DA0001840206020691043206110BD0168214037
:104DB00001608168214081604168114341608169DF
:104DC00011430AE00168194001608168194081605F
:104DD00041681143416081691940816110BD00BF84
:104DE0004069C84000F001007047000070B5082914
:104DF00013D30839324D8C0001EB41032146A84200
:104E000008BF1946072602FA01F10F22A240A84264
:104E100008BF06FA03F23C2305E08B0002FA03F117
:104E20000F229A403823C45824EA02021143C15089
:104E300070BD00BF012202FA01F182695140816117
:104E40007047000010B501231D4C8B40A04217D1C4
:104E5000082915D3A069184202D1A068184217D0BA
:104E6000A069184205D1A068184202D120681842F2
:104E70001AD004F12000002A08BF04F11C0003E04E
:104E80000AB1203000E01C3001681943016010BDF8
:104E900020681842E4D020691842E1D0002AF6D1F7
:104EA000FBF7C1FF984307E020691842E1D0002AD0
:104EB000EDD0FBF7B8FF1843206004F11000E3E7E2
:104EC00000FC014080B500F039FA00F0E7F9FCF78A
:104ED00015F801F05DFEBDE88040FDF783BB0000E2
:104EE00080B50420012100F07DFF4FF4A04001F0C7
:104EF000A1FA002001F08CFA0020002101F090FAC4
:104F0000064801F09FFA4020012100F0E5FF01F082
:104F100081FBBDE88040FFF7BBBD00BF0100000280
:104F2000B0B500F019FC01F0CDFA15480068B0F1F9
:104F3000573F04D000F05AFB12A002F0CBFB164CF6
:104F40000020A04719A11D4D14A2002818BF11462A
:104F50000846A8470120A0471CA119A2002818BF95
:104F600011460846A8470220A0471FA11BA20028FF
:104F700018BF114608462946BDE8B040084700BFA3
:104F8000C4180020494E495420434F4E4749473AE0
:104F9000204F4B0D000000003155000841535236A0
:104FA0003630313A204F4B0D00000000415352364D
:104FB0003630313A204552524F520D00D576000816
:104FC0005358313236323A204F4B0D00535831325C
:104FD00036323A204552524F520D0000535831326A
:104FE00038303A204F4B0D005358313238303A2088
:104FF0004552524F520D00000120FDF741B900000B
:10500000B0B5174C4FF400700225C4F8000107201A
:1050100020602561D4F8040180280BD01420FFF70C
:105020005DFD0020C4F80C011420FFF757FD01209E
:10503000C4F80C01EE484FF4001165600322C0F87B
:105040008011016004F5B6300B21FFF7CFFE04F5A7
:10505000B0300A210322BDE8B040FFF751BE00BFC7
:105060000090004010B50F4C206820F02000206018
:105070006420FFF733FD206840F0200020602068A6
:1050800020F08000206054F8040C40F0200044F828
:10509000040C206840F0010020606068C005FCD46A
:1050A00010BD00BF04910040B7480A210122FFF75C
:1050B000C9BE00BFB4480A210022FFF7C3BE00BF2B
:1050C00004490860486800F011000128FAD1086816
:1050D000C0B2704708900040FFF702FFFFF7F2FEF2
:1050E0006420FFF7F5FCFBF765FF00200024FBF7C9
:1050F00025FF15A002F0EEFA1AA0012100220123DB
:1051000001F052FEFFF70CFF6420FFF7E1FCFEF711
:10511000EFFC01F00DFDFBF716FE174D174FFF26B4
:1051200000F09AFBFFF7C0F92878022804D1FBF7BA
:105130000AFE2E7000F068F838780128F0D13C7033
:1051400001F0F6FCECE700BF0D0A4D554C54494206
:10515000414E4420524144494F20504C4154464F07
:10516000524D0D0048573D25642C46573D25642C73
:1051700025640D0A00000000080000202C03002018
:10518000E0B5027E0091911E1022CBB2032B4FF0AE
:10519000000338BF02EB0113D9B200F1190200205D
:1051A0001023FBF74BFD8CBD80B5FFF76DFC374836
:1051B0000021017080BD00BF70B5FFF765FC0C4891
:1051C000FBF7B2FD0B4C0C4D00212046A8470B48C5
:1051D00001210126A8470A480121A84709480121C1
:1051E000A8472046FBF788FD2848067070BD00BF21
:1051F000950C00083486000881510008608600087C
:105200002C850008DC8500082DE9F041FFF7D4FF6C
:105210001E4C1F4D1F4FDFF88080FF26207801288D
:1052200018BFBDE8F0812878FF28F7D002282E703B
:1052300023D0012811D00028F0D1386840684045BB
:10524000ECD0FBF7EBFD38680121FFF799FFFBF786
:105250004FFD4068FBF750FDE0E7386800684045C7
:10526000DCD0FBF7DBFD38680121FFF789FFFBF796
:105270003FFD0068FBF740FDD0E74FF4FA60642182
:10528000FDF79AF9FBF728FDC8E700BF8819002051
:1052900008000020180000207882000810B50020C7
:1052A00001F0A6F81220012100F016FE11200121C4
:1052B00000F012FE1E4C082104222046FFF720FDBC
:1052C00020460B210722FFF71BFD1A4C0020221D50
:1052D0002146FCF769FF94ED010A9FED171A20EEB5
:1052E000010A84ED010AFCF7BFFF0820FCF7FCFE71
:1052F0000120FCF71BFF00200121FCF727FF4FF4E2
:105300008010FCF7FFFE0120FCF73AFF022001218C
:10531000FCF700FF36484FF48031C0F8801101607F
:1053200001F020FD0120BDE81040FCF7A9BF00BF3F
:1053300000F001402003002000007A44B0B5114C79
:105340000D200121A04720200121A047212001217B
:10535000A04722200121A0470B4C0C4D092101221E
:105360002046A847204604210122A84720460521BF
:105370000122A84704F580600F2104222B46BDE8D6
:10538000B0401847D95E000800F00140014D000808
:105390007FB5164C05460121012204F5E236304660
:1053A000FFF724FD304600210122FFF71FFD0020FA
:1053B00001F05CF81F20012100F08EFD6E463046A2
:1053C00001F0F5FA20463146009501F009FB204630
:1053D000012101F0E6FA20461021012201F0F3FA42
:1053E00003484021C0F8801101607FBD00300040BB
:1053F00000E100E00548E021C022017004490020DE
:10540000252808BF704742540130F9E722ED00E03B
:1054100000E400E010B50446012802D82046FBF75E
:10542000AEFE0020022C38BF012010BD80B502283E
:1054300002D2FBF745FF04E04FF0000002D1FCF779
:1054400054FB012080BD000080B5022802D2FBF78A
:10545000CAFE06E01CBF9FED070A80BD0020FCF7D6
:10546000F0FA00EE100ABEEE001AB8EE400A20EE86
:10547000010A80BD00002EC310B50446012802D8E1
:105480002046FBF792FE0020022C38BF012010BD01
:10549000B0B502280ED20446534800EB440520461E
:1054A000FBF795FE6882204647F6FF71BDE8B040E5
:1054B000FBF770BE18BFB0BD0020FCF7B6FA4A4932
:1054C000C88200204FF6FF71BDE8B040FCF78ABAF1
:1054D00002280DD0012803D078B99048007902E065
:1054E0008E4890F84000022807D2087001207047CB
:1054F0008A4890F87C000128F7D90020704700BF47
:10550000B0B514460D46022805D2FBF776FEC0F36F
:105510000211400806E04FF0000008D1FCF79BFAAA
:1055200041098008297000F0070020700120B0BDFB
:10553000B0B5022842D0012817D0002851D1002050
:10554000FCF798F9754D0020291DFCF795F800200F
:1055500001210124FCF714F80020FBF710FEA868D5
:10556000214908664862002022E001200124FCF75E
:1055700081F90120FCF745F80A20FFF7A9FA01207C
:105580000021FBF7FDFF012002214FF47A72FBF7A7
:1055900065FE624D012005F14001FCF76DF8012028
:1055A0000121FBF7EDFF686CF24948668862012033
:1055B00000F0FAF90120FBF7E2FD13E00020FCF710
:1055C00041FC564C002004F17C01FCF72FFBD4F881
:1055D0008000E8498866C862022000F0E5F90124ED
:1055E00000E000242046B0BD3C030020F0B54B484D
:1055F0004B4C46F2A8114E4B4B4A00254CF66C1C06
:10560000C0E9091440F6131185760575026101841D
:105610004CF25031C1614349C0F816104349C0E90A
:105620000231012101714349082D05D04F5D461912
:10563000013586F82C70F7E746F2A8154FF47F077E
:105640000026A0F852C0C264C0E9185440F61314F2
:105650003A4D80F8566080F85060A0F85C404CF2FB
:10566000503484654FF49074A0F85440324CC0E933
:1056700011540124334D80F84040314CC0E90D7580
:105680004FF6FF75C463082E05D08B5D8719013670
:1056900087F86830F7E72C4E46F2A817C0F8882044
:1056A00001222A4BA0F88CC08467A0F8765080F8BD
:1056B0007C204FF40872C0E9277640F613164FF4A9
:1056C0009077A0F874204FF47F02A0F898604CF215
:1056D0005036A0F88E701E4F0267C0F89460002606
:1056E00080F89060C0E92073082E05D08B5D821988
:1056F000013682F8A430F7E74FF40871C0F8BE40D5
:10570000A0F8BC50A0F8B9101249C0F8B5104FF07D
:1057100057310160BDE8F04001F02CBBC4180020F7
:10572000200004106CC92001010008000A00080ACA
:105730000057A616908200080A00080300A1BC3397
:10574000211001AA2002FFFF700004100D20083470
:10575000003717891000FF002DE9FF41FFF750FCCB
:10576000384C394F0D21032204F554463046B847D2
:1057700004F55845032103222846B847284602214C
:105780000322B847284605210222B84728460421AB
:105790000222B8472846002103224FF00008B847EC
:1057A000284601210322B847284608210322B8478A
:1057B000284608210122FFF781FA28460821012204
:1057C000FFF740FB284609210222B84728460A2154
:1057D0000222B8471D4F304608210422B847304600
:1057E0000A210422B84730460B210422B847192069
:1057F000012100F071FB0720ADF80D80CDF8088085
:105800008DF80C001248019001A9204601F002F821
:105810002046012100F0F5FF284604210122FFF770
:1058200058FA28460A210122FFF753FA09484FF493
:105830008001C0F8801101606420FFF749F9BDE8DC
:10584000FF8100BF00200140014D0008ED4D000820
:1058500000127A0000E100E02DE9F84F454C0025E8
:105860000026032E0BD0A05D012806D1F0B2A5556D
:10587000FFF70EFE04EB460045820136F1E7DFF844
:10588000F8A04FF000094FF000080025032D08BFD5
:10589000BDE8F88F1AF80500012867D1671904EBF5
:1058A000850B0AF80590F878012817D1FBF7C3FAA1
:1058B000EEB20844CBF82400904224BFDBF83C0051
:1058C000CBF824003046FFF7B1FDDBF8241030465A
:1058D00000F0FEF8B979304600F0EAF9787A01284C
:1058E00044D1EEB204EB08093046FFF7ADFD99ED67
:1058F000121AB4EE410AF1EE10FA21DDDBF82400B1
:105900004FF47A7189ED150AB0FBF1F710EE100A29
:10591000FAF792FE02460B4618A0394601F044FA07
:10592000DBF824004FF47A7199ED150AB0FBF1F120
:105930002846FFF7EDF84FF4FA606421FCF73CFECF
:105940003046FFF773FDFBF776FA01443046CBF89B
:105950002410914224BFDBF83C10CBF8241000F057
:10596000B7F8304600F020F84FF0000908F10408BD
:1059700001358BE73C030020E01B00204672657177
:105980003D25642C525353493D252E3166206442F7
:105990006D0D0A00022838BFFBF73FBF4FF0000033
:1059A00008BFFCF722BA704710B5022807D20021C1
:1059B0000446FBF7C7FDDC4820440C3008E04FF0FC
:1059C000000008D100210022FCF7D0F8D6480E30A4
:1059D00005210170012010BD2DE9F84F2DED047B4C
:1059E000022809D8044658181F4615460E4682421A
:1059F00028BFB7F57A7F07D24FF000084046BDECCC
:105A0000047B01B0BDE8F08FDDF83890B9F1000FEC
:105A1000F2D0B9F13C0FEFD80020B0EE408A4FF041
:105A2000000AFBF78BFAB5EE408A4FF00108F1EE61
:105A300010FA29DA22A2FBF7A6F9DFF880A02046A7
:105A400031460AEB840BCBF83050CBF83C60CBF8F6
:105A500018708BED128A00F03BF8DBF83C00CBF8B5
:105A600024002046FFF7A0FF4FF47A7009FB00F0F6
:105A700081B2204601F00EF9204601F01BF90AEB35
:105A8000040080F80980B9E709A2FBF77CF92046F9
:105A900001F020F90948011900EB8405204681F83E
:105AA00009A0296E00F014F8FBF7A1F9A6E700BFE2
:105AB00049444C4520202020202020003C03002089
:105AC0005343414E202020202020200000000000D1
:105AD00010B5022814D20446BC4800EB8400416291
