:020000040800F2
:1000000088250020E9000008E50E0008890E000898
:10001000E10E0008E90A000885230008000000003E
:100020000000000000000000000000005114000863
:10003000FD00000800000000ED0E0008B9210008D6
:100040000301000803010008030100080301000880
:1000500003010008030100087D2300088123000834
:100060000301000803010008030100080301000860
:100070000301000803010008030100080301000850
:10008000710A0008030100080301000803010008C9
:1000900003010008AD0E0008030100084523000815
:1000A0000301000803010008030100080301000820
:1000B0000301000803010008030100080301000810
:1000C0000301000803010008E90E0008030100080D
:1000D00003010008DFF80CD000F074FC0048004772
:1000E000795A0008882500200648804706480047BE
:1000F000FEE7FEE7FEE7FEE7FEE7FEE7FEE7FEE7D8
:10010000FEE7FEE795220008D500000810B5431A67
:10011000934209D28318881803E010F8011D03F8F0
:10012000011D521EF9D210BD40EA01039B0703D006
:1001300009E008C9121F08C0042AFAD203E011F826
:10014000013B00F8013B521EF9D210BDD2B201E0D2
:1001500000F8012B491EFBD270470022F6E710B5CC
:1001600013460A4604461946FFF7F0FF204610BD25
:10017000CAB2401E10F8011F8A4202D00029F9D1EC
:1001800000207047421C10F8011B0029FBD1801A87
:10019000704730B503461D783DB10A4612F8014B51
:1001A0001CB1AC42FAD15B1CF5E7181A30BD30B572
:1001B0000546002008E00A4602E0A34207D0521C90
:1001C0001378002BF9D1401C2C5C002CF3D130BDEE
:1001D0002DE9F0410E460546002400E0641C285D30
:1001E00000F0D6FA0746305D00F0D2FA381A02D194
:1001F000295D0029F2D1BDE8F0812DE9F047914653
:100200000F4680460446002614F8015B2DB100F02D
:10021000BBFA0068405DC007F6D12B2D02D02D2D12
:1002200018D0641E4A463946204600F0B7FA27B176
:100230003968A14201D1C7F8008071054FF002046E
:100240000BD54042002803DD06F01EFF0460A00726
:10025000BDE8F08746F48066E4E70028F8DA06F0A7
:1002600013FF04606FF00040F2E72DE9F05F934662
:100270000F4680460446002606F006FFD0F80090A0
:10028000824614F8015B2DB100F07EFA0068405DF3
:10029000C007F6D12B2D02D02D2D1AD0641E0021BF
:1002A000CAF800105A463946204600F077FA01464F
:1002B00027B13868A04201D1C7F80080DAF8000001
:1002C000022809D0CAF80090700505D54842BDE85B
:1002D000F09F46F48066E2E70846F8E72DE9FE4F16
:1002E000804681EA0300C00F0C46009021F00041D7
:1002F00023F00045B8EB0200A94105D24046214653
:1003000090461C460B46024623F00040104347D05F
:10031000270DC7F30A00C3F30A510290401A019057
:1003200040286BDAC3F3130040F4801B0098924618
:1003300020B10023D2EB030A63EB0B0B0198594663
:10034000C0F14002504600F0EDF906460D46504619
:100350005946019A00F005FA10EB080061410024AB
:1003600087EA115284EAE7731A4340D0009A62B3D5
:10037000019A012A4FEA075215DC001B61EB0201CA
:100380004FF0004202EA0752CDE90042001C41F55D
:10039000801132462B4600F096FA03B0BDE8F08F8C
:1003A00040462146F9E7001B61EB0201001C41F5C4
:1003B000801300185B412018A2F5001747EB0301DA
:1003C00040EAD570B6196D4111E06D084FEA360666
:1003D00045EAC0754FEA0752001B61EB0201001CA1
:1003E00041F5801149084FEA300000195141324669
:1003F0002B4603B0BDE8F04F00F056BA009801223A
:1004000040000023D0EB020263EBE073009821462A
:100410004FEAE074B8EB000061EB0401E9E783F018
:1004200000435BE781F0004158E72DE9FE4F81EA88
:10043000030404F0004421F0004100944FF0000B4D
:1004400023F0004350EA01045ED052EA03045BD07B
:10045000C3F30A54C1F30A552C44A4F2F3340194B3
:10046000A0FB0254C1F3130141F48011C3F3130341
:1004700043F4801301FB024400FB034E840A970AF5
:1004800044EA815447EA8357A4FB076802958D0A22
:1004900005FB07854FEA932C04FB0C542705029DAE
:1004A0004FEA065847EA1637B5EB08056EEB070C1E
:1004B000870E920E47EA811742EA8312A7FB0201D8
:1004C000B6EB0B0164EB00042B0D43EA0C335E1812
:1004D00044EB1C50DA465146E7FB0201C5F3130416
:1004E0004FEA0B3343EA14534FEA0432019C43EAC8
:1004F0000603A4F10C040294009CCDE900B400F0C2
:10050000E2F903B0BDE8F08F00200146F9E72DE9DC
:10051000F04D81EA030404F0004B21F0004514463D
:100520004FF0000A23F0004150EA050220D054EABF
:1005300001021DD0C5F30A570246C5F31303C1F3E8
:100540001300C1F30A5640F4801543F48013A7EB5F
:100550000608101BD64608F2FD3873EB050002D3DF
:1005600008F1010801E092185B41B8F1000F03DACD
:1005700000200146BDE8F08D00204FF480110646B2
:1005800084460EE0171B73EB050705D3121B63EBC4
:10059000050306434CEA010C49084FEA3000921863
:1005A0005B4150EA0107EDD152EA030012D082EA22
:1005B000040083EA0501084305D0101BAB4106D2B5
:1005C0000122002306E000224FF0004302E06FF01A
:1005D000010253101AEB06004CEB085110EB0A0015
:1005E00041EB0B01BDE8F04D00F05EB90EB540F2F5
:1005F000334102910021CDE900110A460B4600F07B
:1006000062F903B000BDC1F30A5210B5C1F3130182
:1006100040F2FF3341F480119A4201DA002010BD0C
:1006200040F233439A42A2F2334203DC524200F0DA
:1006300088F810BD904010BD00F0004230F000403E
:100640000AD0C10D01F56071C0F3160042EA0151F4
:10065000C20840071143704700200146704701F06F
:10066000004330B421F0004150EA010206D00A0DE7
:10067000A2F56072C1F31301002A02DC30BC002035
:100680007047440F44EAC104C100E01830BC00EBDD
:10069000C25000F0D2B830B50B46014600202022EF
:1006A000012409E021FA02F59D4205D303FA02F57F
:1006B000491B04FA02F52844151EA2F10102F1DCDF
:1006C00030BD2DE9F05F0546002092469B468846E6
:1006D0000646814640241BE02846414647462246BE
:1006E00000F02FF853465A46C01A914110D31146D4
:1006F0001846224600F016F82D1A67EB01084F46FF
:1007000022460120002100F00DF817EB00094E41B0
:10071000201EA4F10104DFDC484631462A46434648
:10072000BDE8F09F202A04DB203A00FA02F1002005
:1007300070479140C2F1200320FA03F3194390401F
:100740007047202A04DB203A21FA02F0002170478A
:1007500021FA02F3D040C2F1200291400843194629
:100760007047202A06DBCB17203A41FA02F043EA11
:10077000E07306E041FA02F3D040C2F1200291405A
:10078000084319467047000000487047147A000873
:10079000A0F14101192900D8203070472DE9F05F00
:1007A00082460078002715468B460AF10104B946B7
:1007B000302801D09DB113E014F8010B01277828EF
:1007C00003D0582801D045B10AE00DB1102D07D152
:1007D0000027102514F8010B02E0082500E00A2587
:1007E0000026B0460EE005FB080005FB06F10127D8
:1007F00001EB10461FFA80F8B6F5803F00D3B946EA
:1008000014F8010B294600F0F5F80028EBDABBF1EB
:10081000000F05D00FB1641E00E05446CBF8004035
:10082000B9F1000F06D006F02FFC02210160C81EAE
:10083000BDE8F09F48EA0640FAE70029A8BF7047E4
:10084000401C490008BF20F00100704710B4B0FA06
:1008500080FC00FA0CF050EA010404BF10BC7047A1
:1008600049B1CCF1200421FA04F411FA0CF118BFBB
:10087000012121430843A3EB0C01CB1D4FEA00618A
:100880004FEA102042BF002010BC704700EBC3505D
:1008900010440029A4BF10BC7047401C490008BF89
:1008A00020F0010010BC704710B5141E73F1000455
:1008B00008DA401C41F1000192185B411A4301D152
:1008C00020F0010010BD2DE9F04D92469B4611B17C
:1008D000B1FA81F202E0B0FA80F220329046FFF7DE
:1008E00021FF04460F4640EA0A0041EA0B01534645
:1008F0005A46084313D0114653EA010019D0C8F1F3
:1009000040025046FFF71DFF05460E465046594629
:100910004246FFF707FF084305D0012004E02046C8
:100920003946BDE8F08D0020054346EAE0762C43C9
:1009300037430A986305E40AA0EB08000022FD0A89
:1009400044EA47540A3002D500200146E9E7010590
:1009500010196941DDE9084500196941BDE8F04D0C
:10096000A2E7C1F30A52C1F3130140F2FF3341F48D
:1009700080119A4202DA00200146704740F2334368
:100980009A42A2F2334202DC5242FFF7DABEFFF78C
:10099000C9BE000030B5041E71F1000404DB4FF045
:1009A0000044404264EB0101141E73F1000405DBB6
:1009B0001C464FF00043524263EB0403994208BFC8
:1009C000904230BD1CB50948009009480190054689
:1009D000009C06E0E06840F0010394E807009847B7
:1009E0001034AC42F6D3FFF779FB00000C8F0008FF
:1009F0002C8F00083A2800D2303820F02002412AFB
:100A000001D3A2F13700884201D34FF0FF30704785
:100A100070B58D1810F8014B14F0030201D110F8D5
:100A2000012B231106D110F8013B03E010F8016BF4
:100A300001F8016B521EF9D1ABB110F8012B04F093
:100A40000C048A1A0C2C03D0A2EB84129B1C08E025
:100A500010F8014BA2EB0422F8E712F8014B01F861
:100A6000014B5B1EF9D5A942D4D3002070BD000014
:100A70002DE9F04381B0012001F0A6FD68B301200B
:100A800001F0AEFC01F098FDFFF7B0FD40F28049A7
:100A9000C2F200090546D9E900800E46FFF7CCFDF9
:100AA0009FED0F0B07460C4653EC102B28463146A2
:100AB000FFF7BBFC3A462346FFF7B1FC044640462D
:100AC0000D46FFF7B9FD02460B4620462946FFF7C3
:100AD0001EFDFFF7C4FDC9F8080001B0BDE8F083B2
:100AE0000000000000C0D23FFEE700002DE9F04FFB
:100AF00085B046B20E9FC0F3C010203A01EB400B08
:100B0000102B26EAE67669D0082B40F08281711C12
:100B10000491B11C0391F11C0291311D0191711DD1
:100B2000009147F65C31D0B206F10608002F06F1BD
:100B30000709C0F6000100F0B98001EBC00A0025EA
:100B40001AF805700BEB0500C4B2FA09F0B22146A1
:100B500000F09EFB780604982146C0B254BF0022E4
:100B6000012200F095FBB80603982146C0B254BF9D
:100B70000022012200F08CFBF80602982146C0B248
:100B800054BF0022012200F083FB38070198214660
:100B9000C0B254BF0022012200F07AFB780700980F
:100BA0002146C0B254BF0022012200F071FBB807F9
:100BB0005FFA88F0214654BF0022012200F068FB52
:100BC000F8075FFA89F021460CBF0022012200F0ED
:100BD0005FFB0135082DB3D11BE100BF711C0491EF
:100BE000B11C0391F11C0291311D0191711DD0B214
:100BF000009147F65461000106F10608002F06F146
:100C00000709C0F6000100F0AB8001EB000A0025E7
:100C10001AF805700BEB0500C4B2FA09F0B22146D0
:100C200000F036FB780604982146C0B254BF00227B
:100C3000012200F02DFBB80603982146C0B254BF34
:100C40000022012200F024FBF80602982146C0B2DF
:100C500054BF0022012200F01BFB380701982146F7
:100C6000C0B254BF0022012200F012FB78070098A6
:100C70002146C0B254BF0022012200F009FBB80790
:100C80005FFA88F0214654BF0022012200F000FBE9
:100C9000F8075FFA89F021460CBF0022012200F01C
:100CA000F7FA0135102DB3D1B3E000BF01EBC00757
:100CB0004FF0000A17F90A000BEB0A01CCB2C5434A
:100CC000B0F1FF3F4FF00002F0B22146C8BF012251
:100CD00000F0DEFA680604982146C0B254BF002234
:100CE000012200F0D5FAEDB2A80603982146C0B261
:100CF00054BF0022012200F0CBFAE80602982146F8
:100D0000C0B254BF0022012200F0C2FA28070198A5
:100D10002146C0B254BF0022012200F0B9FA680790
:100D200000982146C0B254BF0022012200F0B0FA60
:100D3000A8075FFA88F0214654BF0022012200F084
:100D4000A7FAE8075FFA89F021460CBF00220122CA
:100D500000F09EFA0AF1010ABAF1080FAAD158E090
:100D60000F184FF0000A00BF17F90A000BEB0A0139
:100D7000CCB2C543B0F1FF3F4FF00002F0B22146C4
:100D8000C8BF012200F084FA680604982146C0B268
:100D900054BF0022012200F07BFAEDB2A8060398AE
:100DA0002146C0B254BF0022012200F071FAE806C9
:100DB00002982146C0B254BF0022012200F068FA16
:100DC000280701982146C0B254BF0022012200F03A
:100DD0005FFA680700982146C0B254BF0022012282
:100DE00000F056FAA8075FFA88F0214654BF0022A7
:100DF000012200F04DFAE8075FFA89F021460CBFA6
:100E00000022012200F044FA0AF1010ABAF1100F9F
:100E1000AAD105B0BDE8F08F2DE9F04782B0DDF82A
:100E200028801C4691460E46102B074608D0082CF9
:100E300026D14FF0060A99F8002032B91BE000BF16
:100E40004FF0080A99F80020AAB10025F8B2F1B2D3
:100E5000D2B22346CDF80080FFF748FE5744F8B2DF
:100E600001357828E8B288BF264419F8002088BFE9
:100E70000027002AEAD102B0BDE8F04700F0C6B86A
:100E800002B0BDE8F087000003A006F06FFD64200B
:100E900004F086FA01F078FA4861726420466175C0
:100EA0006C74206F63637572730D000010B500F0F1
:100EB00065FB044647F6FF7000F0DAFAE00740F2FF
:100EC0008C40C2F200001CBF01214171A10744BF48
:100ED0000121C170610644BF0121017110BD0000F4
:100EE000FEE70000704700007047000070470000F8
:100EF00070B55E2828BF5E204408A0EB500541F67F
:100F00009020C2F200008471C57141F68C20C2F2BB
:100F10000000007841F68D26C2F2000630700220F3
:100F200001F01CF840F61110214601F005F9E9B274
:100F300040F6121001F000F93078BDE8704001F081
:100F40000DB8000010B540F27044C2F200042078E1
:100F500078B940F20000C2F2000000214FF4806234
:100F600000234FF0FF304FF4E13004F029FE012060
:100F700020706068012813DBA06841F62831C2F2B6
:100F80000001085CA1680131A160A168B1F5007F92
:100F900004BF0021A16061680139616010BD00BF1C
:100FA0004FF0FF3010BD000080B540F20000C2F2EB
:100FB000000000214FF4806200234FF0FF304FF417
:100FC000E13004F0FDFD40F27040C2F2000001216A
:100FD000017080BD80B568B140F28050C2F200005F
:100FE0004FF48061FF22FFF7B1F8BDE8804000F0C8
:100FF0000DB800BF40F28050C2F200004FF4806193
:10100000FFF7ABF8BDE88040AFF3008070B5B020CB
:10101000002100F053F90020002100F04FF91020CA
:10102000002100F04BF940F280544FF0FF35C2F23E
:10103000000400BF60194078012100F03FF901353C
:101040007F2DF7D1B120002100F038F900200021D8
:1010500000F034F91020002100F030F904F17F0590
:10106000802600BF15F8010F012100F027F9013E8D
:10107000F8D1B220002100F021F90020002100F079
:101080001DF91020002100F019F904F1FF05802658
:1010900015F8010F012100F011F9013EF8D1B3203C
:1010A000002100F00BF90020002100F007F91020CA
:1010B000002100F003F904F27F15802615F8010FD6
:1010C000012100F0FBF8013EF8D1B420002100F02E
:1010D000F5F80020002100F0F1F81020002100F0C8
:1010E000EDF804F2FF15802615F8010F012100F03C
:1010F000E5F8013EF8D1B520002100F0DFF800202E
:10110000002100F0DBF81020002100F0D7F804F2F5
:101110007F25802615F8010F012100F0CFF8013E50
:10112000F8D1B620002100F0C9F80020002100F01D
:10113000C5F81020002100F0C1F804F2FF25802638
:1011400015F8010F012100F0B9F8013EF8D1B720E0
:10115000002100F0B3F80020002100F0AFF81020CB
:10116000002100F0ABF804F27F34802514F8010F61
:10117000012100F0A3F8013DF8D170BD80B500F069
:1011800045F90A2004F00CF900F066F8AE200021C1
:1011900000F094F80020002100F090F810200021C9
:1011A00000F08CF84020002100F088F8B0200021E9
:1011B00000F084F88120002100F080F8FF20002159
:1011C00000F07CF8A120002100F078F8A620002192
:1011D00000F074F8A820002100F070F83F200021F2
:1011E00000F06CF8C820002100F068F8D32000213E
:1011F00000F064F80020002100F060F8D520002104
:1012000000F05CF88020002100F058F8D92000217F
:1012100000F054F8F120002100F050F8DA2000210D
:1012200000F04CF81220002100F048F8DB200021EB
:1012300000F044F83020002100F040F88D2000211B
:1012400000F03CF81420002100F038F8AF20002115
:10125000BDE8804000F032B810B54FF20004C4F28F
:10126000010420460E21012204F0B6FA642004F0A5
:1012700097F820460E21002204F0AEFA642004F014
:101280008FF820460E210122BDE8104004F0A4BAD8
:1012900001F0070301F0F8014FF0010C00EB011021
:1012A00040F28051002A0CFA03F2C2F200010B5CFA
:1012B0000CBF23EA02021A430A547047B0B54FF636
:1012C0000045C4F201050A4604460029A5F5406020
:1012D0004FF00F0118BF012204F07EFA28460C21BE
:1012E000002204F079FA204600F008F828460C2184
:1012F0000122BDE8B04004F06FBA0000B0B54FF273
:101300000004C4F201040546C2092046042104F089
:1013100063FA20460521002204F05EFA20460521EA
:10132000012204F059FAC5F380122046042104F08A
:1013300053FA20460521002204F04EFA20460521EA
:10134000012204F049FAC5F340122046042104F0BA
:1013500043FA20460521002204F03EFA20460521EA
:10136000012204F039FAC5F300122046042104F0EA
:1013700033FA20460521002204F02EFA20460521EA
:10138000012204F029FAC5F3C0022046042104F02A
:1013900023FA20460521002204F01EFA20460521EA
:1013A000012204F019FAC5F380022046042104F05A
:1013B00013FA20460521002204F00EFA20460521EA
:1013C000012204F009FAC5F340022046042104F08A
:1013D00003FA20460521002204F0FEF920460521EB
:1013E000012204F0F9F905F001022046042104F07D
:1013F000F3F920460521002204F0EEF920460521EC
:101400000122BDE8B04004F0E7B9000010B54FF28A
:101410000004C4F2010404F540600C21032204F02E
:10142000F3F820460521042204F0EEF820460421BA
:10143000042204F0E9F820460E21032204F0E4F827
:1014400020460F210422BDE8104004F0DDB8000062
:101450007047000080B582B08DF806008DF8071047
:101460000DF106019820022200F016FE02B080BDA8
:1014700080B582B040BAADF806000DF10601022039
:10148000022200F009FE02B080BD00000000000052
:1014900070B586B0002000F0ADFA41F69024C2F29B
:1014A0000004217DD4E9030240F29A4302FB0100CB
:1014B000C2F200031980FFF799F89FED210B53EC5E
:1014C000102BFFF724F8FFF79EF800F0AFFA00208A
:1014D000802100F0DDF8206B94F8341094F835206A
:1014E000A36B00F07BF9A08F94F83E1094F83F2096
:1014F00094F8483094F84BC094F84CE094F84D5070
:1015000094F85260CDE900CECDE9025600F0AAF978
:10151000D4E91001CDE9040104A800F0D5F994F84C
:10152000490094F84A1000F01FF9B4F84E00B4F8DE
:101530005010B4F8542000F025F9002006B070BD1A
:10154000000000008084EE3FF0B581B015460E46E5
:1015500007466946142004221C4600F06FFC9DF8E3
:1015600000009DF801109DF802209DF803303870AE
:1015700031702A70237001B0F0BD000080B582B0D8
:101580000DF105011220032200F058FCBDF8060001
:1015900000BA000C02B080BDF0B581B015460E4611
:1015A00007466946142004221C4600F047FC9DF8BB
:1015B00000009DF801109DF802209DF8033038705E
:1015C00031702A80237001B0F0BD000080B582B078
:1015D0000DF106011520022200F030FC9DF80700F5
:1015E00002B080BD80B582B00DF10701C02001229C
:1015F00000F024FC9DF8070002B080BD0000000050
:1016000010B582B0012000F0F5F941F69024C2F245
:101610000004217DD4E9030240F29A4302FB010059
:10162000C2F200031980FEF7E1FF9FED170B53ECA8
:10163000102BFEF76CFFFEF7E6FF00F0F7F9002035
:10164000802100F025F8A07EE17E227F00F068F97D
:10165000E08B94F8201094F8242094F8253094F826
:1016600026C0CDF800C000F087F994F823104FF49D
:10167000E86000F061FD94F8221040F2417000F043
:101680005BFD002002B010BD000000008084EE3F32
:1016900080B582B08DF806008DF807100DF10601B7
:1016A0008F20022200F0F8FC02B080BD80B500F06F
:1016B00053FCD12000210022BDE8804000F0ECBCAA
:1016C00080B541F6902040F29A41C2F20000C2F289
:1016D0000001B1F90010D0E9030202FB0100FEF79E
:1016E00085FF9FED070B53EC102BFEF710FFFEF765
:1016F0008AFFBDE8804000F099B900BF00BF00BF7D
:10170000000000008084EE3F80B582B08DF80700B5
:101710000DF107019D20012200F0BEFC02B080BD4A
:1017200080B582B04FEA102C8DF80100080A8DF8C0
:101730000200100A8DF80400180A8DF803108DF8C5
:1017400005208DF806006946082008228DF800C0A3
:101750008DF8073000F0A0FC02B080BDC120002150
:10176000002200F099BC000010B50C46014640F282
:10177000CD6000F0E1FC40F2CE602146BDE81040B3
:1017800000F0DABC70B50D460646010A40F2BC60B6
:10179000144600F0D1FCF1B240F2BD6000F0CCFC88
:1017A000290A40F2BE6000F0C7FCE9B240F2BF6017
:1017B00000F0C2FC4FF4D76000F08CFB00F0FE009C
:1017C000C4F3002101444FF4D76000F0B5FCE1B24E
:1017D00040F2B960BDE8704000F0AEBCB0B582B078
:1017E0004DF6836CC4F21B3CA3FB0CE44FEA143EA1
:1017F00043F609540EFB143341F6846444EA833300
:10180000A3FB0C3440F2000CC3F6095CBCFBF0F304
:101810006FF07F45AB4228BF2B4660454FEA14303E
:1018200000EB8E3088BF0123A84238BF0546180C54
:101830008DF80000180A8DF80100280C8DF80500BD
:10184000280A8DF803108DF804208DF806006946EB
:101850008B2008228DF802308DF8075000F01CFC18
:1018600002B0B0BD70B584B0012898BF0120060A4F
:101870008DF80800481EC0B207298DF8076028BF00
:1018800007210328DDE90AECDDE9085438BF04210B
:101890008DF80910402A28BF40228DF80A200DF14A
:1018A00007018C200922022B28BF02238DF80B3060
:1018B0008DF80C508DF80D408DF80EE08DF80FC0AE
:1018C00000F0EAFB04B070BD10B5017804464FF497
:1018D000D86000F031FC617840F2C16000F02CFC6F
:1018E000A17840F2C26000F027FCE17840F2C360CA
:1018F00000F022FC217940F2C46000F01DFC617907
:1019000040F2C56000F018FCA17940F2C66000F01A
:1019100013FCE17940F2C760BDE8104000F00CBC58
:1019200010B582B08C1F034618BF0124052898BF4C
:1019300005230C2B28BF0C238DF8051000218DF8F2
:1019400004308DF806200A2888BF01218DF8071081
:1019500001A98B20042200F09FFB40F6890000F0D3
:10196000B9FA00F0FB0040EA840140F6890000F07B
:10197000E3FB02B010BD0000B0B582B0069D0128A7
:1019800098BF0120040A8DF803008DF804108DF82B
:1019900005200DF102018C2006228DF802408DF801
:1019A00006308DF8075000F077FB40F2367000F0FB
:1019B00091FA00F0FB0140F23670002D08BF0431AF
:1019C00000F0BAFB02B0B0BD80B582B08DF8040063
:1019D000072928BF072101208DF805108DF8062062
:1019E0008DF8070001A99520042200F055FB02B0F4
:1019F00080BD000080B582B08DF807000DF10701B1
:101A00008A20012200F048FB02B080BD80B582B080
:101A1000002818BF01208DF807000DF1070196205E
:101A2000012200F039FB02B080BD000080B582B019
:101A300000BA019001A98620042200F02DFB02B01B
:101A400080BD000010B582B0044600F083FA6FF04C
:101A50007F40844238BF2046010C8DF80510010AF2
:101A60008DF806108DF807000DF105018220032284
:101A700000F012FB02B010BD80B582B061F38200AD
:101A80008DF807000DF107018420012200F004FB0E
:101A900002B080BD80B582B0002818BF01208DF84B
:101AA00007000DF107018020012200F0F5FA02B0D5
:101AB00080BD000010B582B0044600F04DFA6FF012
:101AC0007F40844238BF2046010C8DF80510010A82
:101AD0008DF806108DF807000DF105018320032213
:101AE00000F0DAFA02B010BD80B500F035FAD2206D
:101AF00000210022BDE8804000F0CEBA80B582B05F
:101B000040F20470C0F20010019001A99520042257
:101B100000F0C2FA40F6E700382100F00DFB41F674
:101B20009020C2F20000417DC08A8DF80210143866
:101B30000021142838BF01218DF803100DF1020196
:101B40008E20022200F0A8FA40F6D80000F0C2F978
:101B500040F01E0140F6D80000F0EEFA02B080BD61
:101B600010B549F20C14C4F20004002020601420C7
:101B700003F046FCC02003F047FF002003F044FFC1
:101B800001202060BDE8104003F05CBFB0B503F059
:101B9000FBFEFFF7E5FF0A2003F002FC41F68C2470
:101BA000C2F20004012020700020FFF773FF012023
:101BB000FFF72CFF41F69025C2F20005A87A28B164
:101BC000012849D1FFF71CFD02E000BFFFF760FCD0
:101BD000E86AFFF737FFE8684DF68361C4F21B310E
:101BE000A0FB0101880C4FF47F734FF47F72B0F5B6
:101BF0007F7F38BF8B0C03EB53019808B1F57F7FD3
:101C000038BF0A469108FFF725FC0220207001200A
:101C1000FFF740FFA97940F6111000F08DFAE9793D
:101C200040F6121000F088FAFFF768FF40F6AC00AB
:101C3000962100F081FA0120FFF766FD4F200F2169
:101C4000002200230025FFF76BFD052020700020F7
:101C5000FFF7F8FE68B2B0BDFF2568B2B0BD000066
:101C6000B0B541F6902042F26B31C2F20000CCF6E2
:101C70006C1101604FF0FF3181804FF4C851018138
:101C800040F6002140F2000EC0F20A01C0F6082E14
:101C9000C0E9051E4CF66C11C0F22011C0F82210EC
:101CA0004CF25031016341F20931818646F2A811AC
:101CB00081632021818741F20401C6F6C941C0F841
:101CC0003E1046F62331C6F6C94145F2007248F28D
:101CD000A063C0F8421046F62331C1F2A662C0F2FA
:101CE0000103A0F846102021C0E903230022C1F619
:101CF0000F51C0E9122141F2210140F20114A0F874
:101D000050104FF480714FF0010CC0F24004A0F865
:101D1000541041F2883180F80AC0C46180F8202054
:101D200080F82620C0E90A2280F852C0CFF6FF7161
:101D3000002340F2034440F6070C40F60B4EC0E986
:101D4000162200F16002C0F20123C0F20564C0F661
:101D5000092CC0F60D6E82E81A5041F2134141F28F
:101D60000F05C1F2156141F6170241F61B4300F160
:101D7000780CC1F21125C1F61922C1F61D638CE859
:101D80000E001F21456780F8841005F03DF902A080
:101D900005F0ECFD0020B0BD436F6E6669672069F9
:101DA0006E6974204F4B2E0D000000002DE9F041AC
:101DB0004BF6BC57CFF6F07749F208151446884623
:101DC0000646C4F20005384604300CD02968C9051F
:101DD00009D52968C90544BF29685FEAC15102D500
:101DE0002968C905F0D4002068601E2003F00CFEAD
:101DF000304603F009FEFF2003F006FE4CB1A8F1C7
:101E0000010600BFFF2003F0FFFD013C06F8010FB3
:101E1000F8D101206860043708BFBDE8F081286868
:101E2000C00509D52868C00544BF28685FEAC050CE
:101E300002D52868C005EED4BDE8F0812DE9F04355
:101E400081B04BF6BC56CFF6F07649F2081814462E
:101E50008946C4F200083146043110D0D8F8002079
:101E6000D2050CD5D8F80020D20544BFD8F8002000
:101E70005FEAC25203D5D8F80020D205ECD4002185
:101E8000C8F8041003F0C0FD54B10027FF20FDB2D4
:101E900003F0BAFD0137F9B28C4209F80500F5D814
:101EA0000120C8F80400043610D0D8F80000C0059E
:101EB0000CD5D8F80000C00544BFD8F800005FEA90
:101EC000C05003D5D8F80000C005ECD401B0BDE87F
:101ED000F0830000F0B581B04BF6BC56CFF6F0763B
:101EE00049F208170446C4F20007050A30460430D8
:101EF0000CD03968C90509D53968C90544BF3968A6
:101F00005FEAC15102D53968C905F0D40020786074
:101F10001D2003F079FD284603F076FDE0B203F0C2
:101F200073FDFF2003F070FDFF2003F06DFD012124
:101F3000796004360CD03968C90509D53968C905F6
:101F400044BF39685FEAC15102D53968C905F0D488
:101F500001B0F0BD03F048BD03F04EBD072813D813
:101F6000DFE800F00424364048121C2E41F6902190
:101F7000C2F2000141F68C22087E497EC2F20002C4
:101F800000231370FFF778BD41F68C21C2F20001E7
:101F9000052200200A70FFF755BD00BF41F68C20D6
:101FA000C2F2000006210170FFF780BB41F68C21D0
:101FB000C2F20001012200200A70FFF76BBD00BFD2
:101FC00041F68C20C2F2000007210170FFF78CBDA2
:101FD00041F68C21C2F20001022201200A70FFF7B3
:101FE00059BD00BF41F68C20C2F2000003210170F0
:101FF000FFF7B4BB41F69020C2F2000041F68C21FD
:10200000806AC2F2000104220A70FFF753BD00008B
:102010002DE9F0414BF6BC57CFF6F07749F20815A1
:10202000144688460646C4F20005384604300CD0F3
:102030002968C90509D52968C90544BF29685FEA27
:10204000C15102D52968C905F0D4002068600E206E
:1020500003F0DAFC304603F0D7FC3CB1A8F10106EE
:1020600016F8010F03F0D0FC013CF9D101206860A3
:10207000043708BFBDE8F0812868C00509D5286885
:10208000C00544BF28685FEAC05002D52868C00573
:10209000EED4BDE8F08100002DE9F04381B04BF6AD
:1020A000BC57CFF6F07749F2081915460E46804620
:1020B000C4F200093846043010D0D9F80010C90520
:1020C0000CD5D9F80010C90544BFD9F800105FEA53
:1020D000C15103D5D9F80010C905ECD40020C9F8C6
:1020E0000400404603F090FC45B10024E0B2305CAF
:1020F00003F08AFC0134E0B28542F7D80120B8F140
:10210000840FC9F8040003D101B0BDE8F08300BF1B
:102110000437F9D0D9F80000C005F5D5D9F800008A
:10212000C00544BFD9F800005FEAC050ECD5D9F82B
:102130000000C005ECD4E7E72DE9F0414BF6BC57B1
:10214000CFF6F07749F2081488460546C4F2000439
:10215000060A384604300CD02168C90509D5216823
:10216000C90544BF21685FEAC15102D52168C9058C
:10217000F0D4002060600D2003F046FC304603F0F0
:1021800043FCE8B203F040FC404603F03DFC012074
:102190006060043708BFBDE8F0812068C00509D53C
:1021A0002068C00544BF20685FEAC05002D520689F
:1021B000C005EED4BDE8F08180B540F68410C2F2CF
:1021C0000000016801310A29016004D10021016089
:1021D000012000F011FA40F28C40C2F200000178B8
:1021E00001292FD140F2A442C2F2000240F268431A
:1021F0001168C2F200031B8801319942116021D39A
:102200000021116040F29642C2F2000213880133AD
:10221000138041F68653C2F2000312881B889A424B
:102220000AD940F28D42C2F20002017014A011706E
:1022300005F09CFB06E000BF40F28D40C2F20000BA
:102240000121017040F29340C2F2000000780128A1
:1022500014D141F67C50C2F20000016801390160DE
:1022600018BF80BD41F68051C2F2000109680160CB
:1022700040F29440C2F200000121017080BD00BF15
:1022800053454E445F5041434B45543A20444F4ED2
:10229000450D00004EF68850CEF2000001680C2279
:1022A00041F470010160C4F200021368082143F098
:1022B0008003C4F202011360CA68012363F313426E
:1022C000CA600A68920709D40A6892075CBF0A6864
:1022D0005FEA827202D40A689207F2D5E02100F820
:1022E000661C4EF20040CEF20000C0210170417029
:1022F0008170C170017141718171C171017241724E
:102300008172C172017341738173C173017441742D
:102310008174C174017541758175C175017641760D
:102320008176C176017741778177C17780F8201077
:1023300080F8211080F8221080F8231080F82410F3
:1023400002F0FCBFB0B582B04AF20004C4F200044F
:102350000DF1070220460121012504F033FC9DF810
:102360000700012808D12046012104F00FFC40F2AB
:102370009440C2F20000057002B0B0BD00F068BA2F
:1023800070470000FEE700004EF60C50BFF34F8F81
:10239000CEF200000168042201F4E061C0F2FA52BA
:1023A00011430160BFF34F8F00BF00BF00BF00BFEC
:1023B000FAE700004EF60C50BFF34F8FCEF200004C
:1023C0000168042201F4E061C0F2FA521143016095
:1023D000BFF34F8F00BF00BF00BF00BFFAE7000090
:1023E00047F21401C4F201010A680240824218BF98
:1023F00070470A6810430860704700000021B1EB85
:10240000103F18BF704747F20401C4F201010A6887
:1024100040F6FF739A430A600A68104308607047E9
:1024200047F20401C4F201010A6822F440120A6072
:102430000A68104308607047002947F21801C4F287
:1024400001010A680CBF22EA0000104308607047CF
:1024500048F248010128C4F2000107D0002818BF43
:102460007047086820F0400008607047086840F036
:10247000400008607047000080B547F20802C4F2CF
:1024800001026FF01F03043203EB800308283CBFF6
:1024900047F20802C4F2010238BF83004FF00F0C6C
:1024A000D2F800E00CFA03F02EEA0000994008434D
:1024B000106080BD47F20001C4F201010A6808B152
:1024C00062B17047D007FCD00868400748BF70472A
:1024D00002200A6810430860704700BF01200A68A4
:1024E000104308607047000048F2B001C4F20001D8
:1024F0000A6822F0007260F359620A6070470000B7
:102500002DE9F04381B0894642F23001C1F2000169
:10251000D1E9001490460522002818BF0D2221FAA7
:1025200002F04FF00405C0B218BF0D25FEF75EF8AB
:102530009FED190B53EC102BFDF777FF9FED180B58
:1025400053EC102BFDF7CAFE064624FA05F06FF394
:102550005F200F46FEF74AF89FED130B53EC102B4C
:10256000FDF763FF9FED120B53EC102BFDF7B6FE4A
:1025700004460D4630463946FEF771F8C9F80000AA
:1025800020462946FEF76BF8C8F8000001B0BDE808
:10259000F08300BF00BF00BFFCA9F1D24D62603FD5
:1025A000000000000000F03FFCA9F1D24D62503F56
:1025B000FCA9F1D24D62D0BF47F21C00C4F2010069
:1025C00000686FF31F30704747F21401C4F2010135
:1025D00009680140081AB0FA80F04009704700000D
:1025E00048F24401C4F20001086820F470726420CB
:1025F0000A6002F005BF000047F20001C4F20101C9
:102600000A6838B1D0070CD00868800709D40420C4
:1026100004E000BF500758BF704708200A68104305
:10262000086070472DE9F04F42F20C0CC4F2030C25
:10263000DCF80070012A27F00307CCF8007005D100
:10264000DCF8002042F00102CCF80020002955D02F
:1026500041F22C0B41F2280A41F2240241F22004FB
:1026600041F20C09C4F2030BC4F2030AC4F20302E0
:10267000C4F20304C4F2030910E000BFDBF80060F9
:102680001039DE60DAF8006010309E6016685E6017
:1026900026681E600E0403F110032FD0D0F80880C6
:1026A00041F20807C4F2030705684668D0F80CE059
:1026B000C7F8008041F20407C4F203073E6041F20C
:1026C0000007C4F20307C9F800E03D60DCF80060D1
:1026D00046F08006CCF80060DCF800603606CDD508
:1026E000DCF80060360644BFDCF800605FEA06668E
:1026F000C4D5DCF800603606EED4BFE70020BDE8A4
:10270000F08F000001220346FFF78CBF0022034632
:10271000FFF788BFF0B581B014460A461D46A2F106
:1027200010030146102B4FF0060079D8012707FA55
:1027300003F340F20117C0F201073B4270D042F2AE
:102740000C07C4F2030757F8080C41F2006640F08A
:102750000900C4F2030647F8080C3220C6F8000A44
:1027600044F01000202AF86008D0182A04D0102A5B
:1027700006D1002003E000BF042000E008203860FC
:1027800057F8080CC0070CD057F8080CC0071CBF3E
:1027900057F8080C5FEAC07003D057F8080CC00760
:1027A000EED141F24060C4F20300FDF7AFFC38689F
:1027B00040F0820038603868000609D538680006A5
:1027C00044BF38685FEA006002D538680006F2D47A
:1027D0003868611E20F003000229386022D8EB68B7
:1027E00041F21C67C4F2030728686968AA683B6065
:1027F00041F21863C4F203031A6041F21462C4F296
:102800000302116041F21061C4F20301086000206C
:10281000032C02BF4FF08071C6E90000C6E9020137
:1028200001B0F0BD002001B0F0BD000080B5002077
:10283000012103F045FD41F69020C2F20000653011
:10284000202100220023BDE88040FFF763BF000085
:1028500010B543F20004C4F200042046102104F035
:10286000F5F908B110BD00BF204604F0A1FA40F20E
:102870007041C2F20001CA6841F62833C2F2000377
:102880009854C8680130C860486801304860C8681A
:10289000B0F5007F04BF0020C8604868B0F5007F35
:1028A000D8BF10BD0020C8604860886010BD00001F
:1028B000022988BF704702A050F8210005F056B8E1
:1028C0006E850008A3860008CB8600080021002240
:1028D000FDF793BC00210022FDF7C7BC8446002809
:1028E0004FF0010018BF002900D17047CCF800104C
:1028F00000200CF108010DC18CF8040070470000A5
:102900002DE9F04F81B0804620B3D8F8000008B31D
:1029100008F108040026002713E000BF0846FDF771
:1029200031FC0146AF42C8BF3D468E42C8BF31466A
:102930002268A068002A1CBF0E462F4604F110042E
:1029400050B1FDF71FFC54F8041C05460029E5D1E1
:102950000021E7E70026002729A005F007F848F640
:10296000B260C0F6000005F001F8B8F1000F3DD0EC
:10297000D8F80020D2B37D4248F6057748F66C6A55
:10298000764208F108040FF2A808C0F600070FF21B
:102990009009C0F6000A0FF28C0B09E04046114680
:1029A00004F04EFB384604F0E1FFA2681034EAB1AF
:1029B00020680028F2D04846294604F041FB54F82C
:1029C000042C2AB11078002808BF524601E000BF4D
:1029D00052465846314604F033FB61680029E1D085
:1029E00008780028DED011A0DAE700BF48F60570AD
:1029F000C0F6000004F0BAFF012001B0BDE8F08F7E
:102A00003C636F6D6D616E643E203C617267733E26
:102A1000203C68656C7020746578743E0D00000081
:102A2000252A730020252A7300000000202573004A
:102A3000202D2D2D202573202D2D2D002DE9F04F3B
:102A40009DB000284FF0FF0B18BF002904D14FFAAA
:102A50008BF01DB0BDE8F08F8246D0E9028008EB14
:102A60000203834280F07283DAF800001446404487
:102A7000FDF74CFBDAF808004FF0000B204400246F
:102A80008045CAF80800E2D20CA948F60773043161
:102A9000C0F600030027079105E000BF08F1010818
:102AA000804580F05B83DAF8001011F80890B9F1E6
:102AB0000A0F02D0B9F10D0FF0D1B84501F8084066
:102AC00000F00C82DAF80000DAF81010C5190B914A
:102AD000284629460A78082A2DD000BF92B300F86C
:102AE000012B4A78082A13D1A84288BF01388A7876
:102AF000082A13D032B300F8012BCA78082A13D160
:102B0000A84288BF013804310A78082AE6D112E0C9
:102B1000C2B100F8012B8A78082AEBD1A84288BFFD
:102B20000138CA78082AEBD062B100F8012B0431D1
:102B30000A78082AD2D1A84288BF01384A78082AE0
:102B4000E6D1D1E70470284619461E46FDF721FB61
:102B5000295C3346002900F0C1812E183046194601
:102B60000A97FDF724FB315C3718002918BF07F8D6
:102B7000014B0B98002800F093810468002C00F0B2
:102B80009381CDF824B000F1080B06E0DBF8084093
:102B90000BF1100B002C00F08581DBF80000002801
:102BA000F4D030462146FDF713FB0028EED148F65D
:102BB0000776C0F60006384631460C94FDF7E9FA70
:102BC000395C002900F0A4813C1820463146FDF70D
:102BD000EEFA215C271800291CBF002007F8010B22
:102BE000384631460D94FDF7D4FA395C002900F0DF
:102BF00091813C1820463146FDF7D9FA215C261810
:102C000000291CBF002006F8010B0E9448F607743B
:102C1000C0F6000430462146FDF7BBFA315C0A9F3E
:102C2000002900F07F81214634182046FDF7BFFAC5
:102C3000215C261800291CBF002006F8010B0F9408
:102C400048F60774C0F6000430462146FDF7A1FAA5
:102C5000315C002900F06881214634182046FDF7D8
:102C6000A6FA215C261800291CBF002006F8010BDB
:102C7000109448F60774C0F6000430462146FDF76C
:102C800088FA315C002900F0518121463418204631
:102C9000FDF78DFA215C261800291CBF002006F8DC
:102CA000010B119448F60774C0F600043046214623
:102CB000FDF76FFA315C002900F03A8121463418A3
:102CC0002046FDF774FA215C261800291CBF00205D
:102CD00006F8010B129448F60774C0F6000430465B
:102CE0002146FDF756FA315C002900F02381214688
:102CF00034182046FDF75BFA215C261800291CBF1A
:102D0000002006F8010B139448F60774C0F600047F
:102D100030462146FDF73DFA315C002900F00C8178
:102D2000214634182046FDF742FA215C2618002976
:102D30001CBF002006F8010B149448F60774C0F677
:102D4000000430462146FDF724FA315C002900F0EA
:102D5000F580214634182046FDF729FA215C261813
:102D600000291CBF002006F8010B159448F60774D3
:102D7000C0F6000430462146FDF70BFA315C00290D
:102D800000F0DE80214634182046FDF710FA215C61
:102D9000261800291CBF002006F8010B169448F6DF
:102DA0000774C0F6000430462146FDF7F2F9315CA5
:102DB000002900F0C780214634182046FDF7F7F9B6
:102DC000215C261800291CBF002006F8010B17946F
:102DD00048F60774C0F6000430462146FDF7D9F9DD
:102DE000315C002900F0B080214634182046FDF700
:102DF000DEF9215C261800291CBF002006F8010B13
:102E0000189448F60774C0F6000430462146FDF7D2
:102E1000C0F9315C002900F0998021463418204621
:102E2000FDF7C5F9215C261800291CBF002006F813
:102E3000010B48F607713046C0F600011994FDF702
:102E4000A8F9315C002900F08380341848F6077136
:102E50002046C0F60001FDF7AAF9215C26180029DA
:102E60001CBF002006F8010B48F607713046C0F67B
:102E700000011A94FDF78DF9315C00296AD03418ED
:102E800048F607712046C0F60001FDF790F9215C75
:102E9000002900F05981002121540024012149E139
:102EA00000270CE0DDF824B0002700242846B3A159
:102EB000FDF78EF918B90B98FFF722FD0746002F92
:102EC00048F607730A9FC0F6000307D136B13046B3
:102ED00000211D46FFF7ECFC2B4600BFB9F10A0F9D
:102EE00008BFB84502D00BF1010B05E09AF80400C9
:102EF0000D2818BF0BF1010B08F10108DAF80800E2
:102F000047468AF804908045FFF4CDAD26E100BF26
:102F1000012300E002230A9F00245BF8046C06BB37
:102F2000F2E000BF032316E0042314E0052312E0BF
:102F3000062310E007230EE008230CE009230AE033
:102F40000A2308E00B2306E00C2304E00D2302E033
:102F50000E2300E00F2300245BF8046C002E00F029
:102F6000D38030783F2803D17078002800F0CC80DF
:102F700030460293FDF706F9069030462A21FDF708
:102F8000F7F878B1069BF118013988424FF0020139
:102F900040F0D0803246029E012B00F0CB80981E7C
:102FA000009003E0069B3246029E0093701E05903F
:102FB00000F09E80D0182E24002600270390049253
:102FC00022E000BF0798089450F8274004F05CF80E
:102FD000014601900020086020461CA90022FDF750
:102FE0000CF901980068002840F083801C98001BB1
:102FF00001902046FDF7C6F801998142049A069B8C
:10300000089C54D075E000BF9F4205DAD05D2A28A5
:1030100018BF044606E000BF039810F8010C2A28E8
:1030200040F06780A4F16200152800F26280DFE8BA
:1030300000F03E6060606060606060606060606082
:103040006060600B600D1F49BCE700BF07980894E3
:1030500050F82700019004F017F804460020206083
:1030600001981CA90022FDF700F9FF2813D940E0C0
:103070000798089450F82700019004F005F80446DA
:103080000020206001981CA90022FDF7EEF8002125
:10309000B1EB104F2DD1206858BB1C9901980C1A28
:1030A000FDF770F88442049A069B089C21D105988C
:1030B000013787424FF0000628BF0126B8427FF44F
:1030C000A3AF16E00798089450F8274003F0DCFF00
:1030D000014601900020086020461CA90022FDF74F
:1030E000C4F80198006800283FF480AF01E000BFF9
:1030F0000126F0074FF002011AD0029B00980A9FA8
:1031000083424FF0000415DDDBF8002018460CA9BF
:1031100090475BF8080CDDF824B048F607730028E8
:10312000C0F600037FF4DAAE00260127BEE600BF3A
:103130000A9F00242846FFF7BBFBDDF824B048F6C1
:103140000773C0F60003C9E60121F2E74FF0FE0B5A
:103150004FFA8BF01DB0BDE8F08F00BF002F3FF499
:1031600076ACC21BDAF80000CAF80820C119FCF7D7
:10317000CDFF4FFA8BF01DB0BDE8F08F68656C7025
:103180000000000080B54868FFF7A4FBC0B200282B
:10319000014618BF012107A2002809A018BF104648
:1031A00041F69022C2F2000282F86410BDE880402D
:1031B00004F0DCBB4145533A204F4E0D00000000A7
:1031C0004145535F454E3A204F46460D00000000F2
:1031D000F0B581B048680C46FFF77CFBA168044657
:1031E0000846FFF777FB05460AA004F0BFFBAFB225
:1031F000A5B2AF420CD30AA6A0B2FEF76BFE024600
:103200003046294603F01CFF0134A5B2BD42F3D974
:1032100001B0F0BD44554D505F524547533A0D0043
:103220003078253034582C3078253032580D0A004B
:1032300041F69020C2F2000090F8491090F84A2020
:1032400001A003F0FDBE00BF46535F4745545F41F8
:103250004444523A203078253032582C307825308A
:1032600032580D0A0000000041F69020C2F2000022
:10327000B0F84E10B0F85020B0F8543048F24D403D
:10328000C0F6000003F0DCBE41F69020C2F2000060
:1032900090F835100939C9B2162909D847F618220D
:1032A000C0F6000202EBC10191ED000B02E000BF8D
:1032B0009FED070B80B584B0016B90F83420806BD4
:1032C0008DED000B029004A003F0BAFE04B080BDA7
:1032D000000000000000F0BF46535F4745544D4FCB
:1032E00044504152414D533A0D0A42523D25640D1E
:1032F0000A53483D25640D0A42573D252E31660D7F
:103300000A4445563D25640D0A00000010B541F6FB
:103310009024C2F20004A18F94F83E2094F83F302C
:103320002AA003F08DFE94F8481048F27F5048F22E
:103330007362C0F60000C0F60002012908BF024611
:1033400048F20560C0F60000002918BF104604F0DE
:103350000DFB94F84B1048F2565048F26A62C0F6E2
:103360000000C0F60002002918BF104604F0FEFA63
:1033700094F84C1048F2D140C0F6000003F060FE13
:1033800094F84D00062807D847F6D021C0F6000172
:1033900051F8200004E000BF48F26150C0F6000080
:1033A00004F0E4FA94F8521048F2FA5048F23A6203
:1033B000C0F60000C0F60002002918BF104604F055
:1033C000D5FA11A0BDE8104004F0D0BA46535F47CB
:1033D00045545F5041434B4554504152414D533A3F
:1033E0000D0A5052455F4C454E3D25640D0A505222
:1033F000455F4445543D25640D0A53594E435F4C87
:10340000454E3D25640D0A0046535F4745545F50C5
:1034100041434B4554504152414D533A20544F443F
:103420004F0D0000B0B51CA003F00AFE41F6902538
:10343000C2F2000548F2717495F84010C0F600041D
:10344000204603F0FDFD95F84110204603F0F8FDFD
:1034500095F84210204603F0F3FD95F843102046FE
:1034600003F0EEFD95F84410204603F0E9FD95F8D1
:103470004510204603F0E4FD95F84610204603F081
:10348000DFFD95F8471048F24440C0F60000BDE863
:10349000B04003F0D5BD00BF46535F4745545F536E
:1034A000594E433A20000000B0B541F69025C2F2D3
:1034B0000005A87A20B10EA0BDE8B04004F056BACD
:1034C00048680C46FFF706FAA16804460846FFF76D
:1034D00001FA85F8494085F84A00FEF757FB95F850
:1034E000491095F84A2007A0BDE8B04003F0A8BDF8
:1034F00046535F5345545F414444523A204552522B
:103500004F520D0046535F5345545F414444523A75
:10351000203078253032582C3078253032580D0A3A
:103520000000000070B541F69026C2F20006B07AA5
:1035300020B114A0BDE8704004F018BA48680D46E8
:10354000FFF7C8F9A96804460846FFF7C3F9E96818
:1035500005460846FFF7BEF9A6F84E40A6F85050BB
:10356000A6F85400FEF712FBB6F84E10B6F850203D
:10357000B6F8543048F28F40C0F60000BDE8704005
:1035800003F05EBD46535F5345545F435243574873
:103590003A204552524F520D00000000000000003A
:1035A0002DE9F04381B02DED028B84B041F69027D8
:1035B000C2F20007B87A18B19FA004F0D7F9DDE095
:1035C00048680D46FFF786F904464FF41676B0F5C5
:1035D000167F98BF344649F2E031A868C0F2040172
:1035E0008C4228BF0C46FFF775F9E968804608460B
:1035F000FFF770F9062805D29FED658B4FF01F0984
:103600009CE000BF062805D19FED638B4FF01709A2
:1036100094E000BF092805D29FED618B4FF00F09A0
:103620008CE000BF0B2805D29FED5F8B4FF01E0989
:1036300084E000BF0D2805D29FED5D8B4FF0160989
:103640007CE000BF102805D29FED5B8B4FF00E0988
:1036500074E000BF152805D29FED598B4FF01D096E
:103660006CE000BF192805D29FED578B4FF015096C
:1036700064E000BF1F2805D29FED558B4FF00D0968
:103680005CE000BF282805D29FED538B4FF01C094A
:1036900054E000BF302805D29FED518B4FF0140944
:1036A0004CE000BF3C2805D29FED4F8B4FF00C093A
:1036B00044E000BF502805D29FED4D8B4FF01B0911
:1036C0003CE000BF5F2805D29FED4B8B4FF0130904
:1036D00034E000BF772805D29FED498B4FF00B09EE
:1036E0002CE000BF9E2805D29FED478B4FF01A09B2
:1036F00024E000BFBD2805D29FED458B4FF0120995
:103700001CE000BFEC2805D29FED438B4FF00A0967
:1037100014E000BFB0F59C7F04D89FED418B4FF0C3
:1037200019090BE040A1B0F5BB7F98BF083191EDBE
:10373000008B4FF0090998BF4FF011092869FFF776
:10374000C9F8B0F5167F88BF064640F64050C0F273
:103750000300864228BF06463C6387F8348087F81A
:103760003590BE63FEF712FAB86B396B97F83420C8
:10377000029038A08DED008B03F062FC42A004B0F3
:10378000BDEC028B01B0BDE8F04304F0EFB800BF20
:103790000000004033331340000000403333174033
:1037A0000000004033331D40000000606666234087
:1037B00000000060666627400000004033332D4063
:1037C0000000000000803340000000606666374063
:1037D000000000C0CC4C3D40000000000080434091
:1037E0000000004033734740000000C0CC4C4D4007
:1037F000000000C0CC8C53400000004033735740A1
:103800000000004033535D40000000606686634066
:103810000000006066666740000000A099496D40A6
:1038200000000000008073400000000000307D4078
:10383000000000A09959774046535F5345545F4DAF
:103840004F44504152414D533A204552524F520D30
:103850000000000046535F5345544D4F44504152C1
:10386000414D533A0D0A42523D25640D0A53483DDD
:1038700025640D0A42573D252E31660D0A444556F2
:103880003D25640D0A00000046535F5345545F4DCB
:103890004F44504152414D533A20544F444F0D0034
:1038A0002DE9F04F81B041F69027C2F20007B87AB7
:1038B00010B14EA091E000BF48680E46FFF70AF82D
:1038C000B16880460846FFF705F8F168814608466A
:1038D000FFF700F8316982460846FEF7FBFF716981
:1038E00083460846FEF7F6FF04460028B06918BF75
:1038F0000124FEF7EFFFF16905460846FEF7EAFFEF
:10390000316A06460846FEF7E5FF002818BF012089
:10391000A7F83C8087F83E9087F83FA087F848B02A
:1039200087F84B4087F84C5087F84D6087F8520075
:10393000FEF72CF9B98F97F83E2097F83F3032A068
:1039400003F07EFB97F8481048F27F5048F273620C
:10395000C0F60000C0F60002012908BF024648F286
:103960000560C0F60000002918BF104603F0FEFFF6
:1039700097F84B1048F2565048F26A62C0F60000C1
:10398000C0F60002002918BF104603F0EFFF97F8B9
:103990004C1048F2D140C0F6000003F051FB97F8FC
:1039A0004D00062806D847F6D021C0F6000151F890
:1039B000200003E048F26150C0F6000003F0D6FF9B
:1039C00097F8521048F2FA5048F23A62C0F60000F6
:1039D000C0F60002002918BF104603F0C7FF19A067
:1039E00001B0BDE8F04F03F0C1BF00BF46535F53C5
:1039F00045545F5041434B4554504152414D533A19
:103A0000204552524F520D0046535F5345545F506C
:103A100041434B4554504152414D533A0D0A505287
:103A2000455F4C454E3D25640D0A5052455F444567
:103A3000543D25640D0A53594E435F4C454E3D2578
:103A4000640D0A0046535F5345545F5041434B4554
:103A500054504152414D533A20544F444F0D0000B1
:103A60002DE9F04F81B041F69027C2F20007B87AF5
:103A700030B13AA001B0BDE8F04F03F077BF00BF0E
:103A800048680E46FEF726FFB16880460846FEF7F6
:103A900021FFF16881460846FEF71CFF3169824626
:103AA0000846FEF717FF716983460846FEF712FFC6
:103AB000B16904460846FEF70DFFF1690546084660
:103AC000FEF708FF316A06460846FEF703FF87F84F
:103AD000408087F8419087F842A087F843B087F884
:103AE000444087F8455087F8466087F84700FEF75E
:103AF0004DF81FA003F0A4FA48F2717497F8401033
:103B0000C0F60004204603F09BFA97F841102046C7
:103B100003F096FA97F84210204603F091FA97F8CE
:103B20004310204603F08CFA97F84410204603F027
:103B300087FA97F84510204603F082FA97F8461066
:103B4000204603F07DFA97F8471048F24440C0F64B
:103B5000000001B0BDE8F04F03F072BA46535F5366
:103B600045545F53594E433A204552524F520D002F
:103B700046535F5345545F53594E433A200000006B
:103B800080B5FDF723FD00EE100AB8EE400ABEEE48
:103B9000001A20EE010A10EE100AFCF74DFD024655
:103BA00002A00B46BDE8804003F04ABA4745545F87
:103BB000525353493A20252E31662064426D0D0A36
:103BC00000000000B0B587A003F03AFA41F6902556
:103BD000C2F2000595F8641089A086A2002918BFDA
:103BE000104603F02DFA89A003F02AFA48F2717406
:103BF00095F86510C0F60004204603F021FA95F808
:103C00006610204603F01CFA95F86710204603F072
:103C100017FA95F86810204603F012FA95F8691023
:103C2000204603F00DFA95F86A10204603F008FAD2
:103C300095F86B10204603F003FA95F86C102046B7
:103C400003F0FEF995F86D10204603F0F9F995F8A8
:103C50006E10204603F0F4F995F86F10204603F03B
:103C6000EFF995F87010204603F0EAF995F8711015
:103C7000204603F0E5F995F87210204603F0E0F9CC
:103C800095F87310204603F0DBF995F87410204680
:103C900003F0D6F995F87510204603F0D1F995F8A0
:103CA0007610204603F0CCF995F87710204603F003
:103CB000C7F995F87810204603F0C2F995F8791005
:103CC000204603F0BDF995F87A10204603F0B8F9C4
:103CD00095F87B10204603F0B3F995F87C10204648
:103CE00003F0AEF995F87D10204603F0A9F995F898
:103CF0007E10204603F0A4F995F87F10204603F0CB
:103D00009FF995F88010204603F09AF995F88110F4
:103D1000204603F095F995F88210204603F090F9BB
:103D200095F88310204603F08BF995F8841020460F
:103D300003F086F937A003F083F995F88510204643
:103D400003F07EF995F88610204603F079F995F88E
:103D50008710204603F074F995F88810204603F088
:103D60006FF995F88910204603F06AF995F88A10E2
:103D7000204603F065F995F88B10204603F060F9B2
:103D800095F88C10204603F05BF995F88D102046CD
:103D900003F056F995F88E10204603F051F995F886
:103DA0008F10204603F04CF995F89010204603F050
:103DB00047F995F89110204603F042F995F89210D2
:103DC000204603F03DF995F89310204603F038F9AA
:103DD00095F8941048F24440C0F60000BDE8B040A9
:103DE00003F02EB94745545F414553535441545550
:103DF000533A20004145533A4F4E2C20000000001A
:103E00004145533A4F46462C200000004B45593D52
:103E10000000000049563D0041F69020C2F200002B
:103E2000B0F86010B0F8622001A003F009B900BF3B
:103E30004745545F4155544F53454E443A202564FD
:103E40002C3078253034580D0A00000040F29A409A
:103E5000C2F20000B0F9001001A003F0F1B800BFF9
:103E60004745545F4348414E4E454C3A2025640D2A
:103E70000A00000010B540F61110FEF72BF80446BA
:103E800040F61210FEF726F8011902A0BDE8104016
:103E900003F0D6B84745545F4354554E453A202564
:103EA000640D0A0041F69020C2F20000818801A052
:103EB00003F0C6B84745545F44455649443A20305C
:103EC00078253034580D0A0041F69020C2F20000E7
:103ED000D0E9030144F6D352C1F26202A0FB02030F
:103EE000A1FB02029909920901A003F0A9B800BF41
:103EF0004745545F465245513A2025752C25750D8E
:103F00000A00000001A003F031BD00BF4745545F27
:103F1000474E53533A20544F444F0D0041F69020E2
:103F2000C2F20000817A08A002A2012908BF10464F
:103F300003F01CBD4745545F4D4F44454D3A204C5E
:103F40004F52410D000000004745545F4D4F44451E
:103F50004D3A2046534B0D0041F68C20C2F2000032
:103F60000078072899BF04A151F8200048F2317069
:103F7000C0F6000003F0FABC44860008F284000892
:103F80002285000814860008518700083187000840
:103F90000B870008A485000841F69020C2F20000BB
:103FA00090F9151001A003F04BB800BF4745545FCE
:103FB000504F5745523A2025642064426D0D0A0047
:103FC00041F69020C2F20000C18A01A003F038B887
:103FD0004745545F52414D5054494D453A20256460
:103FE0002075730D0A00000001A003F0BFBC00BFE4
:103FF0004745545F5258434F554E543A20544F440E
:104000004F0D000001A003F0B1BC00BF4745545F55
:10401000534C454550504152414D533A2045525220
:104020004F520D0080B5FDF7DDFA014602A0BDE854
:10403000804003F005B800BF4745545F53544154D6
:1040400055533A203078253032580D0A00000000D0
:1040500041F69020C2F20000817A00F15802012955
:1040600008BF00F12802116800F15C0208BF00F1EE
:104070002C02126801A002F0E3BF00BF4745545F65
:1040800054494D454F5554533A2025642C25640D11
:104090000A00000002A001210022012302F0D0BF8B
:1040A0004745545F56455253494F4E3A2048573D75
:1040B00025642C46573D25642E25640D0A0000001A
:1040C000B0B582B040F68010C2F200000068FCF784
:1040D000B3FA044640F28840C2F2000000680D4680
:1040E000FCF7AAFA41EC100B04A022462B468DEDFA
:1040F000000B02F0A5FF02B0B0BD00BF4745545F02
:1041000056543A20543D252E33662C563D252E33E9
:10411000660D0A0041F69020C2F2000090F90810E6
:1041200090F9092001A002F08BBF00BF4745545F02
:10413000584F504152414D533A2025642C25640D6F
:104140000A0000003020C4F2020003682C20C4F2F0
:104150000200026801A002F073BF00BF4745545F30
:104160005549443A203078256C6C580D0A000000FF
:1041700041F6285040F6881140F20803C2F20000D0
:10418000C2F20001C2F200034FF48072FEF7A6BB38
:1041900080B5FDF765FD28B1014605A0BDE880406A
:1041A00002F04EBF08A0BDE8804003F0DFBB00BFB7
:1041B000494E49545F434F4E4649473A2045525273
:1041C0004F522025640D0A00494E49545F434F4E1B
:1041D0004649473A204F4B0D000000000000000008
:1041E00010B582B041F69024C2F20004E07E0A28A5
:1041F00008D847F6F021C0F6000101EBC00090EDB1
:10420000000B01E09FED1C0BA17E53EC102B1CA0BA
:10421000009102F015FF48F28870C0F6000002F02D
:104220000FFF207F042807D847F64831C0F6000169
:1042300051F8200004E000BF48F26550C0F60000CD
:1042400003F094FB48F28C70C0F6000002F0F8FE18
:10425000617F48F20F6048F24062C0F60000C0F68D
:104260000002002918BF104602B0BDE8104003F05C
:104270007DBB00BF00BF00BF000000000000F0BF1A
:104280004C525F4745545F4D4F44504152414D534E
:104290003A0D0A42573D252E31660D0A53463D25FB
:1042A000640D0A0070B541F69025C2F20005E98B55
:1042B00095F824201BA002F0C3FE95F8201048F2C8
:1042C000C16048F2B762C0F60000C0F600020029E3
:1042D00018BF104603F04AFB48F27970C0F60000A0
:1042E00002F0AEFE95F8250048F20F64C0F6000417
:1042F00048F2406600282046C0F6000618BF304647
:1043000003F034FB48F27E70C0F6000002F098FE25
:1043100095F82600002818BF34462046BDE87040B6
:1043200003F024BB4C525F4745545F5041434B451B
:1043300054504152414D533A0D0A5052455F4C453D
:104340004E3D25640D0A5041595F4C454E3D256454
:104350000D0A4845414445523A00000001A003F0CF
:1043600005BB00BF4C525F4745545F53594D544FF6
:104370003A20494E20444556454C4F504D454E54E9
:104380000D00000041F69020C2F20000418C01A017
:1043900002F056BE4C525F4745545F53594E433A64
:1043A000203078253034580D0A000000000000004D
:1043B0002DE9F0412DED028B82B041F69026C2F23C
:1043C0000006B07A01280BD148680C46FEF782FA45
:1043D00080B209280CD29FED548B4FF000084AE0C0
:1043E00065A002B0BDEC028BBDE8F04103F0BEBA9F
:1043F0000C2805D29FED4E8B4FF008083BE000BF24
:10440000112805D29FED4C8B4FF0010833E000BF1F
:10441000162805D29FED4A8B4FF009082BE000BF0C
:10442000202805D29FED488B4FF0020823E000BF03
:104430002B2805D29FED468B4FF00A081BE000BFEA
:10444000402805D29FED448B4FF0030813E000BFD6
:104450007E2805D29FED428B4FF004080BE000BF91
:10446000FB2841A038BF083090ED008B4FF00608C4
:1044700038BF4FF00508A068FEF72CFAC7B200F06D
:10448000FE000C2F28BF0C270628E06838BF06273F
:10449000FEF720FA0546C0B20428206988BF04252B
:1044A000FEF718FAC0B286F81B80B7763577002879
:1044B00018BF01207077FDF769FBB17E53EC182B14
:1044C00034A0009102F0BCFD48F28870C0F60000F4
:1044D00002F0B6FD307F042806D847F64831C0F612
:1044E000000151F8200003E048F26550C0F60000DA
:1044F00003F03CFA48F28C70C0F6000002F0A0FD18
:10450000717F48F20F6048F24062C0F60000C0F6CA
:104510000002002918BF104602B0BDEC028BBDE8B6
:10452000F04103F023BA00BF0000004033331F40C6
:10453000000000C0CCCC24400000004033332F40AA
:10454000000000C0CCCC3440000000C0CC4C3F4048
:10455000000000A099D944400000000000404F40F6
:104560000000000000405F400000000000407F406D
:104570000000000000406F404C525F5345545F4DB7
:104580004F44504152414D533A204552524F520DE3
:10459000000000004C525F5345545F4D4F44504162
:1045A00052414D533A0D0A42573D252E31660D0AB0
:1045B00053463D25640D0A002DE9F04141F6902453
:1045C000C2F20004A07A012864D148680F46FEF7C1
:1045D00081F9B96880460846FEF77CF9F968054616
:1045E0000846FEF777F9396906460846FEF772F97C
:1045F000796907460846FEF76DF906F0010184F86F
:10460000201007F0010100F00100A4F81E8084F8DA
:10461000245084F8251084F82600FDF7B7FAE18BC2
:1046200094F8242025A002F00BFD94F8201048F205
:10463000C16048F2B762C0F60000C0F6000200296F
:1046400018BF104603F092F948F27970C0F60000E6
:1046500002F0F6FC94F8250048F20F66C0F600065A
:1046600048F2406500283046C0F6000518BF2846CD
:1046700003F07CF948F27E70C0F6000002F0E0FC26
:1046800094F826103046002918BF2846BDE8F041AE
:1046900003F06CB902A0BDE8F04103F067B900BFB8
:1046A0004C525F5345545F5041434B455450415227
:1046B000414D533A204552524F520D004C525F53D8
:1046C00045545F5041434B4554504152414D533A3C
:1046D0000D0A5052455F4C454E3D25640D0A504130
:1046E000595F4C454E3D25640D0A484541444552AD
:1046F0003A00000041F69020C2F20000817A0BA03F
:1047000002A2012908BF104603F030B94C525F5392
:1047100045545F53594D544F3A20494E2044455615
:10472000454C4F504D454E540D0000004C525F53C8
:1047300045545F53594D544F3A204552524F520DF4
:104740000000000010B541F69024C2F20004A07AE7
:1047500001280BD14868FEF7BDF8024681B20BA0D4
:104760006284BDE8104002F06BBC00BF02A0BDE84F
:10477000104003F0FBB800BF4C525F5345545F53E9
:10478000594E433A204552524F520D004C525F53FE
:1047900045545F53594E433A203078253034580DF4
:1047A0000A00000080B582B0FCF7CCFBC1B28DF8E6
:1047B000070051B1FF2908D041F62850C2F200008D
:1047C0000DF107010122FEF739F902B080BD0000AA
:1047D00080B54868FEF77EF880B2FDF77BFB0146A6
:1047E00002A0BDE8804002F02BBC00BF524541440E
:1047F0005F5245473A203078253032580D0A000084
:1048000003A003F0B3F8642000F0CAFDFDF7D2FD69
:1048100052455345543A204F4B0D000070B548683F
:104820000C46FEF757F841F68655C2F2000528807F
:104830002888002804BF01202880A068FEF74AF8D5
:1048400040F26846E168C2F2000630800846FEF792
:1048500041F8318840F2A042C2F200026329108080
:104860009CBF6420308001F043FC2988328803A07B
:1048700002F0E6FBBDE8704002F0BABA53454E4480
:104880005F5041434B45543A2025642C25640D0A62
:104890000000000070B548680C46FEF71BF8A168E0
:1048A00005460846FEF716F8E16806460846FEF794
:1048B00011F8216904460846FEF70CF841F69022EB
:1048C0000146280EC2F2000282F88500280C82F808
:1048D0008600280A82F88700300E82F88900300CA2
:1048E00082F88A00300A82F88B00200E82F88D0050
:1048F000200C82F88E00200A82F88F00080E82F8C1
:104900009100080C82F89200080A82F8885082F818
:104910008C6082F8904082F8930003A082F8941093
:10492000BDE8704003F022B85345545F41455349F8
:10493000563A204F4B0D00002DE9F04F81B04868EA
:104940000C46FDF7C7FFA16883460846FDF7C2FF86
:10495000E16805460846FDF7BDFF216906460846A1
:10496000FDF7B8FF616907460846FDF7B3FFA16987
:1049700080460846FDF7AEFFE16981460846FDF72F
:10498000A9FF216A82460846FDF7A4FF41F690225E
:1049900001464FEA1B60C2F2000282F865004FEA4E
:1049A0001B4082F866004FEA1B2082F86700280E41
:1049B00082F86900280C82F86A00280A82F86B00E5
:1049C000300E82F86D00300C82F86E00300A82F8EA
:1049D0006F00380E82F87100380C82F87200380AC5
:1049E00082F873004FEA186082F875004FEA1840A9
:1049F00082F876004FEA182082F877004FEA1960B3
:104A000082F879004FEA194082F87A004FEA1920BB
:104A100082F87B004FEA1A6082F87D004FEA1A4064
:104A200082F87E004FEA1A2082F87F00080E82F892
:104A30008100080C82F88200080A82F868B082F8C7
:104A40006C5082F8706082F8747082F8788082F816
:104A50007C9082F880A082F8830004A082F8841001
:104A600001B0BDE8F04F02F081BF00BF5345545F75
:104A70004145534B45593A204F4B0D00B0B548685E
:104A80000C46FDF727FF0546A068ACB2FDF722FFF4
:104A900003464FF6FE7028404EF6602141F6902501
:104AA0008C4238BF2146C2F20005322838BF32217D
:104AB000A5F860109AB203A0A5F86230BDE8B04036
:104AC00002F0BEBA5345545F4155544F53454E44CE
:104AD0003A2025642C3078253034580D0A00000027
:104AE00010B54868FDF7F2FE40F29A44C2F20004A5
:104AF0002080FCF7E5FDB4F9001003A002F0A0FA55
:104B0000BDE8104002F074B95345545F4348414E2C
:104B10004E454C3A2025640D0A00000010B5486847
:104B2000FDF7D8FEC1B25E2988BF5E20C4B2204620
:104B3000FCF7DEF902A02146BDE8104002F080BA81
:104B40005345545F4354554E453A2025640D0A00A1
:104B500010B54868FDF7BEFE41F69024C2F200048D
:104B6000A08002F051FAA18802A0BDE8104002F036
:104B700067BA00BF5345545F44455649443A203014
:104B800078253034580D0A0001A002F0EFBE00BFB6
:104B90005345545F454D3A20544F444F0D0000009B
:104BA00070B548680C46FDF795FE4FF47A7500FB2A
:104BB00005F141F69026A068C2F20006F160FDF70B
:104BC00089FE68433061FCF77BFDD6E9030144F6BA
:104BD000D352C1F26202A0FB0203A1FB02029909B7
:104BE000920903A002F02CFABDE8704002F000B96F
:104BF0005345545F465245513A2025752C25750D75
:104C00000A00000010B54868FDF764FEC4B2012C2C
:104C100010D841F69021C2F200018872FCF7B6FF6D
:104C200010A00CA1002C08BF0846BDE8104002F0FF
:104C30009DBE00BF02A0BDE8104002F097BE00BFBD
:104C40005345545F4D4F44454D3A204552524F52C3
:104C50000D0000005345545F4D4F44454D3A2046EA
:104C6000534B0D005345545F4D4F44454D3A204C36
:104C70004F52410D0000000010B54868FDF72AFEB4
:104C800041F68C24C2F20004217841F68D22C2F252
:104C90000002C0B21170FDF761F92078072809D829
:104CA0000AA151F82040FDF759F92046BDE810400F
:104CB00002F05CBE48F24174C0F600040520FDF726
:104CC0004DF92046BDE8104002F050BE578600085E
:104CD0000A8500083C8500082786000861870008CF
:104CE000418700081E870008BD850008B0B54868E8
:104CF0000C46FDF7EFFD054610F0F80FA06818BF51
:104D00000725FDF7E7FDECB2C5B220462946002293
:104D1000FCF75AFE03A021462A46BDE8B04002F047
:104D20008FB900BF5345545F5041434F4E464947EA
:104D30003A2025642C25640D0A00000010B548684F
:104D4000FDF7C4FD40B241F6902410F1090FD8BF21
:104D50006FF00800C2F200041628A8BF1620607584
:104D6000FCF7CCFE94F9151003A002F069F9BDE838
:104D7000104002F03DB800BF5345545F504F5745B7
:104D8000523A2025642064426D0D0A0010B548682F
:104D9000FDF7A0FD142801D20A211FE0282801D226
:104DA00014211BE0502801D2282117E0C82801D285
:104DB000502113E0B0F5487F02D2C8210EE000BFB9
:104DC00040F2A461884203D24FF4487106E000BF6C
:104DD00040F64851884238BF40F2A46141F6902421
:104DE000C2F20004E182FCF789FEE18A02A0BDE87C
:104DF000104002F025B900BF5345545F52414D5059
:104E000054494D453A2025642075730D0A00000071
:104E100001A002F0ABBD00BF5345545F534C454564
:104E200050504152414D533A204552524F520D007D
:104E3000B0B548680C46FDF74DFDA168044608462C
:104E4000FDF748FD054641F69020C2F20000817A48
:104E5000582201294FF05C0108BF282208BF2C21ED
:104E600084504550FCF792FE03A021462A46BDE837
:104E7000B04002F0E5B800BF5345545F54494D457A
:104E80004F5554533A2025642C25640D0A00000028
:104E900010B548680C46FDF719FDA16804460846A0
:104EA000FDF714FD41F6902C0346C2F2000C8CF87D
:104EB000084061B242B203A08CF80930BDE810404E
:104EC00002F0BEB85345545F584F504152414D53C4
:104ED0003A2025642C25640D0A00000001A002F090
:104EE00045BD00BF53544152545F5258434F554E35
:104EF000543A20544F444F0D0000000040F28C40C3
:104F0000C2F20000017801290ED10021017040F2A7
:104F10008D40C2F2000001700BA080B502F026FDAA
:104F2000BDE8804001F064BF03A080B502F01EFD23
:104F3000BDE8804001F05CBF53544F505F54583A75
:104F4000204552524F520D0053544F505F54583A1F
:104F5000204F4B0D0000000001A002F007BD00BF74
:104F600053544F505F5258434F554E543A20544F6C
:104F7000444F0D0010B540F29A44C2F2000420786C
:104F800041F69021C2F20001087502F03DF8B4F933
:104F9000001002A0BDE8104002F052B853544F5226
:104FA000455F4348414E4E454C3A2025640D0A006A
:104FB00080B502F029F802A0BDE8804002F0D6BC1E
:104FC00053544F52455F434F4E4649473A204F4B4B
:104FD0000D0000002DE9F04148680C46FDF77AFC11
:104FE000A1684FF47A7500FB05F70846FDF772FCDF
:104FF000216900FB05F60846FDF768FC41F690289C
:10500000C2F20008D8E9031205468F4298BF0F4646
:10501000781ABE4298BFBE18B0FBF2F040F29E472D
:10502000C2F200073880701AB0FBF2F140F29C42E5
:10503000E068C2F200021180FDF74CFC41F680549A
:10504000C2F20004206028B3A8B218B31BA02DB28E
:1050500002F08CFC00EE105A40F2B440B8EEC00AE8
:10506000C2F2000080ED000A388840F29A41C2F294
:1050700000010880FCF724FB206841F67C51C2F255
:105080000001086040F29340C2F20000012101706B
:10509000BDE8F08140F29340C2F2000000210170AF
:1050A00098F8140040F29A41C2F200010880FCF71F
:1050B00007FB07A0BDE8F04102F058BC5357454537
:1050C000505F52583A2053544152540D0000000092
:1050D00053574545505F52583A2053544F500D0096
:1050E0002DE9F04148680C46FDF7F4FBA1684FF448
:1050F0007A7600FB06F50846FDF7ECFBE16800FB5D
:1051000006F70846FDF7E6FB41F680562169C2F234
:10511000000630600846FDF7DDFB41F69024C2F240
:105120000004D4E9031241F684588D4298BF0D461D
:10513000AF4298BFAF186B1A791AC2F20008B3FBDE
:10514000F2F340F29E45B1FBF2F140F29C42C7B24D
:1051500098F80000C2F20005C2F20002002F2B8076
:1051600011803FD03168E9B300285BD131A002F053
:10517000FDFB41F68C20C2F20000007841F68D2143
:10518000C2F200010870288840F29A41C2F2000180
:105190000880FCF795FA308801F020FF48F2FC60A7
:1051A00048F28F543D46C0F60000C0F60004012FBF
:1051B00018BF022508BF04460720012F08BF06209C
:1051C000FCF7CCFE204688F8005002F0CFFB40F2FE
:1051D0009240C2F2000001210170BDE8F04101F0EF
:1051E00003BF00BFF0B140F29240C2F200000025C0
:1051F000057001F001FF41F68D20C2F20000007839
:10520000FCF7ACFE207D40F29A41C2F2000108801A
:10521000FCF756FA0CA088F80050BDE8F04102F007
:10522000A5BB00BF48F28660C0F60000BDE8F041B3
:1052300002F09CBB53574545505F54583A20535495
:105240004152540D0000000053574545505F5458DB
:105250003A204F46460D0000B0B54868FDF73AFBCE
:10526000C1B2022988BF0220C0B2012812D0022890
:1052700022D141F68C20C2F20000007841F68D2147
:10528000C2F2000148F28F5408700225C0F60004F3
:1052900007201FE041F68C20C2F20000007841F6A2
:1052A0008D21C2F2000148F2FC6408700125C0F6AD
:1052B000000406200EE000BF41F69020C2F200007C
:1052C000807A08B9FCF7E4F848F2E1540025C0F60A
:1052D00000040520FCF742FE204602F047FB41F6A1
:1052E0008450C2F200000570BDE8B04001F080BDFE
:1052F000B0B548680C46FDF7EDFAA16804460846CB
:10530000FDF7E8FA6FF31F34C5B220462946FCF7D3
:1053100013FF03A021462A46BDE8B04001F090BE2D
:1053200057524954455F5245473A2030782530342A
:10533000582C3078253032580D0A000080B50120F5
:1053400001F040FB44F24021C0F20F01884238BF17
:1053500080BD4DF68361C4F21B31A0FB011244F6FF
:10536000D351C1F26201A0FB0101900C40F68822EA
:10537000C2F2000210704FF0FF3000EB91104EF2BD
:105380001001CEF2000148604EF62350CEF200002C
:10539000E0220270002088600720086080BD0000C5
:1053A00080B54EF2180140F68822CEF20001C2F21A
:1053B000000251F804CC1278002A08BF80BD504387
:1053C0004FF47A7200FB02FE0868002308E000BF79
:1053D00003449B1A824228BF6344734510460DD292
:1053E0000A688242F4D10A688242F1D10A68824294
:1053F000EED10A688242F3D0EAE700BF80BD000028
:1054000080B54EF2180140F68822CEF20001C2F2B9
:10541000000251F804CC1278002A08BF80BD00FBBE
:1054200002FE0868002307E003449B1A824228BF5B
:105430006344734510460DD20A688242F4D10A686B
:105440008242F1D10A688242EED10A688242F3D0E8
:10545000EAE700BF80BD00004FF2080CC4F2000C68
:10546000DCF800104AF6BF63C90444BF4FF4805112
:10547000CCF80010082141F21652C4F20201C8F61D
:105480009D43C1F214320B610A6151F8082C02F4F9
:105490000072223241F8082C00220B610A614FF0A1
:1054A000FF320260DCF80000C00411D40868C007B5
:1054B00009D10868C00704BF08685FEAC07002D15C
:1054C0000868C007F2D0012008600020704700BFC4
:1054D0004FF48050CCF800006FF067007047000078
:1054E0002DE9F04782B04FF20808C4F200081446D4
:1054F000D8F800200D46D104814644BF4FF48050B7
:10550000C8F8000008274AF6BF6041F21651C4F2FD
:105510000207C8F69D40C1F214313861396157F86D
:10552000081C24F0070601F40071243147F8081C18
:105530003861002038614FF0FF30A64201900090A2
:1055400009D046F00100844288BF2046A919821B79
:105550006846FAF7DBFD5CB3DDE900A300224FF0FB
:10556000FF3E4FF0010C04E00832A242C7F800C031
:105570001ED2B24204D2A958A8187960416802E04C
:105580001946C7F804A0B96042F809E0D8F800004D
:10559000C00411D43868C007E6D13868C00704BF1A
:1055A00038685FEAC070DFD13868C007F2D0DBE747
:1055B000002002B0BDE8F0874FF48050C8F800002A
:1055C0006FF0670002B0BDE8F0870000B0B543F2AD
:1055D0000005C4F200050446C1B2284601F0F8FBFC
:1055E0002846802101F032FB0028F9D02046B0BDCA
:1055F000012303FA01F1002A426A0CBF22EA0101E9
:105600001143416270470000062A45D8DFE802F0E6
:10561000045420320E6688000122036802FA01F168
:1056200043EA0102026082680A433EE00122036805
:1056300002FA01F123EA0102026082688A43826071
:1056400042688A434260826922EA010181617047AF
:105650000122036802FA01F143EA01020260826852
:105660000A438260C2680A43C260026922EA0101F9
:10567000016170470122036802FA01F123EA010285
:10568000026082688A43826042688A43426082691B
:1056900011438161704700BF0122036802FA01F1E2
:1056A00043EA0102026082688A438260C26822EA99
:1056B0000101C160704700BF0122036802FA01F1D5
:1056C00043EA0102026082680A438260C2680A43B8
:1056D000C260026911430161704700BF4FF6004C80
:1056E0000122C4F2010C8A4060456FEA020333D103
:1056F000082931D3DCF818001840CCF81800DCF881
:1057000008001840CCF80800DCF800001043CCF882
:105710000000DCF810001043CCF81000704700BF08
:105720004FF600420123C4F2010203FA01FC904249
:105730006FEA0C031ED108291CD3906918409061B0
:10574000906818409060106818401060106940EA36
:105750000C001061704700BF01681940016081684A
:105760001940816041681143416081691143816141
:10577000704700BF0168194001608168194081606D
:10578000416841EA0C0141608169194081617047BB
:1057900010B5082914D3083901EB410E8B000F21F5
:1057A0004FF600449940C4F201044FF0070CA042A8
:1057B00004BF0CFA0EF173469A403C2305E000BF8B
:1057C0008B000F2199409A403823C45824EA0101E4
:1057D0001143C15010BD00004FF6004CC4F2010C43
:1057E0000123604503FA01F31CD108291AD3DCF820
:1057F0001800184203D1DCF8080018421AD0DCF86F
:105800001800184207D1DCF80800184203D1DCF870
:105810000000184226D00CF12000002A08BF0CF12D
:105820001C0003E0002A0CBF1C3020300168194323
:1058300001607047DCF800001842E0D0DCF810008E
:105840001842DCD0002AF4D1DCF818009843CCF8D8
:105850001800DCF808009843CCF80800DCF80000D9
:10586000984313E0DCF810001842D4D0002A08BF97
:105870007047DCF818009843CCF81800DCF80800F2
:105880009843CCF80800DCF800001843CCF800007E
:105890000CF11000CAE7000080B500F065F900F0D7
:1058A00015F9FBF781FBBDE8804001F057BB000014
:1058B00080B50420012100F027FC4FF4A04001F046
:1058C00017F9002001F0FEF80020002101F002F994
:1058D0000120C0F2002001F013F94020012100F066
:1058E000EFFCBDE88040FFF729BD00004FF200004B
:1058F000C4F2010008210122FFF76EBF4FF2000041
:10590000C4F2010008210022FFF766BFB0B549F2DA
:105910000C14C4F200044FF4007044F80C0C4FF661
:10592000F460CFF6FF7007210225215044F8FC5C9B
:1059300054F8080C802809D01420FFF761FD0020DE
:1059400020601420FFF75CFD012020604FF6F86016
:10595000CFF6FF7025504EF20010CEF200004FF44B
:105960000011016004F5B43000F53D700B210322F5
:10597000FFF70EFF04F5AE3000F53D700A2103225B
:10598000BDE8B040FFF740BE10B549F20414C4F2C0
:105990000004206820F0200020606420FFF730FD24
:1059A000206840F020002060206820F08000206007
:1059B00054F8040C40F0200044F8040C206840F037
:1059C0000100206004E000BF6068C00558BF10BD42
:1059D0006068C00506D56068C00544BF60685FEABE
:1059E000C050F1D410BD00004FF20000C4F201001D
:1059F0000A210122FFF7F0BE4FF20000C4F20100BD
:105A00000A210022FFF7E8BE49F20C01C4F20001AE
:105A100041F8040C086800F0110001280ED0086855
:105A200000F01100012809D0086800F011000128D9
:105A300004D0086800F011000128EBD151F8040CE3
:105A4000C0B2704710B549F208140A20C4F200042D
:105A5000FFF7D6FC04E000BF2068C00558BF10BDAA
:105A60002068C00506D52068C00544BF20685FEAED
:105A7000C050F1D410BD0000FFF71AFFFFF70CFF74
:105A80006420FFF78DFC0DA001F070FFFFF736FFDB
:105A9000FBF774FB0020FBF79DFA00F0C7F86420C9
:105AA000FFF77EFCFFF722FFFEF762FB01F0A0F993
:105AB00000F00EF9FEF776FEFAE700BF0D0A52413C
:105AC000303820746573740D0000000010B500209C
:105AD00000F0D6FF1220012100F0F2FB112001217D
