:020000040800F2
:10000000E8230020E900000859170008AD0C00089B
:10001000F1160008510B00084325000800000000FD
:10002000000000000000000000000000A51C000807
:10003000FD00000800000000EF1900086D24000812
:1000400003010008551A0008030100080301000815
:1000500003010008030100083D25000841250008B0
:100060000301000803010008030100080301000860
:100070000301000803010008030100080301000850
:10008000910A0008030100080301000803010008A9
:100090000301000803010008550B0008F1240008C3
:1000A0001525000803010008030100082D0B0008B6
:1000B0000301000803010008030100080301000810
:1000C0000301000803010008ED19000803010008FE
:1000D00003010008DFF80CD000F084FC0048004762
:1000E00099580008E8230020064880470648004742
:1000F000FEE7FEE7FEE7FEE7FEE7FEE7FEE7FEE7D8
:10010000FEE7FEE7B1240008D500000810B5431A49
:10011000934209D28318881803E010F8011D03F8F0
:10012000011D521EF9D210BD40EA01039B0703D006
:1001300009E008C9121F08C0042AFAD203E011F826
:10014000013B00F8013B521EF9D210BDD2B201E0D2
:1001500000F8012B491EFBD270470022F6E710B5CC
:1001600013460A4604461946FFF7F0FF204610BD25
:10017000CAB2401E10F8011F8A4202D00029F9D1EC
:1001800000207047421C10F8011B0029FBD1801A87
:10019000704730B503461D783DB10A4612F8014B51
:1001A0001CB1AC42FAD15B1CF5E7181A30BD30B572
:1001B0000546002008E00A4602E0A34207D0521C90
:1001C0001378002BF9D1401C2C5C002CF3D130BDEE
:1001D0002DE9F0410E460546002400E0641C285D30
:1001E00000F0E6FA0746305D00F0E2FA381A02D174
:1001F000295D0029F2D1BDE8F0812DE9F047914653
:100200000F4680460446002614F8015B2DB100F02D
:10021000CBFA0068405DC007F6D12B2D02D02D2D02
:1002200018D0641E4A463946204600F0C7FA27B166
:100230003968A14201D1C7F8008071054FF002046E
:100240000BD54042002803DD07F01AF90460A0072F
:10025000BDE8F08746F48066E4E70028F8DA07F0A6
:100260000FF904606FF00040F2E72DE9F05F93466C
:100270000F4680460446002607F002F9D0F80090A9
:10028000824614F8015B2DB100F08EFA0068405DE3
:10029000C007F6D12B2D02D02D2D1AD0641E0021BF
:1002A000CAF800105A463946204600F087FA01463F
:1002B00027B13868A04201D1C7F80080DAF8000001
:1002C000022809D0CAF80090700505D54842BDE85B
:1002D000F09F46F48066E2E70846F8E72DE9FE4F16
:1002E000804681EA0300C00F0C46009021F00041D7
:1002F00023F00045B8EB0200A94105D24046214653
:1003000090461C460B46024623F00040104347D05F
:10031000270DC7F30A00C3F30A510290401A019057
:1003200040286BDAC3F3130040F4801B0098924618
:1003300020B10023D2EB030A63EB0B0B0198594663
:10034000C0F14002504600F0FEF906460D46504608
:100350005946019A00F016FA10EB0800614100249A
:1003600087EA115284EAE7731A4340D0009A62B3D5
:10037000019A012A4FEA075215DC001B61EB0201CA
:100380004FF0004202EA0752CDE90042001C41F55D
:10039000801132462B4600F0A6FA03B0BDE8F08F7C
:1003A00040462146F9E7001B61EB0201001C41F5C4
:1003B000801300185B412018A2F5001747EB0301DA
:1003C00040EAD570B6196D4111E06D084FEA360666
:1003D00045EAC0754FEA0752001B61EB0201001CA1
:1003E00041F5801149084FEA300000195141324669
:1003F0002B4603B0BDE8F04F00F066BA009801222A
:1004000040000023D0EB020263EBE073009821462A
:100410004FEAE074B8EB000061EB0401E9E783F018
:1004200000435BE781F0004158E72DE9FE4F81EA88
:10043000030404F0004421F0004100944FF0000B4D
:1004400023F0004350EA01045ED052EA03045BD07B
:10045000C3F30A54C1F30A552C44A4F2F3340194B3
:10046000A0FB0254C1F3130141F48011C3F3130341
:1004700043F4801301FB024400FB034E840A970AF5
:1004800044EA815447EA8357A4FB076802958D0A22
:1004900005FB07854FEA932C04FB0C542705029DAE
:1004A0004FEA065847EA1637B5EB08056EEB070C1E
:1004B000870E920E47EA811742EA8312A7FB0201D8
:1004C000B6EB0B0164EB00042B0D43EA0C335E1812
:1004D00044EB1C50DA465146E7FB0201C5F3130416
:1004E0004FEA0B3343EA14534FEA0432019C43EAC8
:1004F0000603A4F10C040294009CCDE900B400F0C2
:10050000F2F903B0BDE8F08F00200146F9E72DE9CC
:10051000F04D81EA030404F0004B21F0004514463D
:100520004FF0000A23F0004150EA050220D054EABF
:1005300001021DD0C5F30A570246C5F31303C1F3E8
:100540001300C1F30A5640F4801543F48013A7EB5F
:100550000608101BD64608F2FD3873EB050002D3DF
:1005600008F1010801E092185B41B8F1000F03DACD
:1005700000200146BDE8F08D00204FF480110646B2
:1005800084460EE0171B73EB050705D3121B63EBC4
:10059000050306434CEA010C49084FEA3000921863
:1005A0005B4150EA0107EDD152EA030012D082EA22
:1005B000040083EA0501084305D0101BAB4106D2B5
:1005C0000122002306E000224FF0004302E06FF01A
:1005D000010253101AEB06004CEB085110EB0A0015
:1005E00041EB0B01BDE8F04D00F06EB90EB5C10F47
:1005F00080EAE0700844CA07002140F233438DE8E6
:100600000E000A460B4600F06EF903B000BD0EB5B1
:1006100040F2334102910021CDE900110A460B4618
:1006200000F061F903B000BDC1F30A5210B5C1F387
:10063000130140F2FF3341F480119A4201DA0020A5
:1006400010BD40F233439A42A2F2334203DC5242DD
:1006500000F088F810BD904010BD00F0004230F06E
:1006600000400AD0C10D01F56071C0F3160042EAE6
:100670000151C208400711437047002001467047EE
:1006800001F0004330B421F0004150EA010206D0ED
:100690000A0DA2F56072C1F31301002A02DC30BC1E
:1006A00000207047440F44EAC104C100E01830BC88
:1006B00000EBC25000F0D1B830B50B460146002027
:1006C0002022012409E021FA02F59D4205D303FA14
:1006D00002F5491B04FA02F52844151EA2F1010295
:1006E000F1DC30BD2DE9F05F0546002092469B46C7
:1006F00088460646814640241BE028464146474638
:10070000224600F02FF853465A46C01A914110D3A2
:1007100011461846224600F016F82D1A67EB01081C
:100720004F4622460120002100F00DF817EB00098A
:100730004E41201EA4F10104DFDC484631462A4622
:100740004346BDE8F09F202A04DB203A00FA02F17C
:10075000002070479140C2F1200320FA03F31943AF
:1007600090407047202A04DB203A21FA02F0002151
:10077000704721FA02F3D040C2F1200291400843B1
:1007800019467047202A06DBCB17203A41FA02F0BF
:1007900043EAE07306E041FA02F3D040C2F12002DE
:1007A0009140084319467047004870470C7E000886
:1007B000A0F14101192900D8203070472DE9F05FE0
:1007C00082460078002715468B460AF10104B94697
:1007D000302801D09DB113E014F8010B01277828CF
:1007E00003D0582801D045B10AE00DB1102D07D132
:1007F0000027102514F8010B02E0082500E00A2567
:100800000026B0460EE005FB080005FB06F10127B7
:1008100001EB10461FFA80F8B6F5803F00D3B946C9
:1008200014F8010B294600F0F5F80028EBDABBF1CB
:10083000000F05D00FB1641E00E05446CBF8004015
:10084000B9F1000F06D006F01BFE02210160C81EA0
:10085000BDE8F09F48EA0640FAE70029A8BF7047C4
:10086000401C490008BF20F00100704710B4B0FAE6
:1008700080FC00FA0CF050EA010404BF10BC704781
:1008800049B1CCF1200421FA04F411FA0CF118BF9B
:10089000012121430843A3EB0C01CB1D4FEA00616A
:1008A0004FEA102042BF002010BC704700EBC3503D
:1008B00010440029A4BF10BC7047401C490008BF69
:1008C00020F0010010BC704710B5141E73F1000435
:1008D00008DA401C41F1000192185B411A4301D132
:1008E00020F0010010BD2DE9F04D92469B4611B15C
:1008F000B1FA81F202E0B0FA80F220329046FFF7BE
:1009000022FF04460F4640EA0A0041EA0B01534623
:100910005A46084313D0114653EA010019D0C8F1D2
:1009200040025046FFF71EFF05460E465046594608
:100930004246FFF708FF084305D0012004E02046A7
:100940003946BDE8F08D0020054346EAE0762C43A9
:1009500037430A986305E40AA0EB08000022FD0A69
:1009600044EA47540A3002D500200146E9E7010570
:1009700010196941DDE9084500196941BDE8F04DEC
:10098000A2E7C1F30A52C1F3130140F2FF3341F46D
:1009900080119A4202DA00200146704740F2334348
:1009A0009A42A2F2334202DC5242FFF7DBBEFFF76B
:1009B000CABE000030B5041E71F1000404DB4FF024
:1009C0000044404264EB0101141E73F1000405DB96
:1009D0001C464FF00043524263EB0403994208BFA8
:1009E000904230BD1CB50948009009480190054669
:1009F000009C06E0E06840F0010394E80700984797
:100A00001034AC42F6D3FFF769FB00004C950008A8
:100A10006C9500083A2800D2303820F02002412A94
:100A200001D3A2F13700884201D34FF0FF30704765
:100A300070B58D1810F8014B14F0030201D110F8B5
:100A4000012B231106D110F8013B03E010F8016BD4
:100A500001F8016B521EF9D1ABB110F8012B04F073
:100A60000C048A1A0C2C03D0A2EB84129B1C08E005
:100A700010F8014BA2EB0422F8E712F8014B01F841
:100A8000014B5B1EF9D5A942D4D3002070BD0000F4
:100A9000F8B5022001F036FEC0B3022001F072FD6D
:100AA000002001F045FE01F025FEFFF7B0FD9FEDAF
:100AB000180B53EC102BFFF7B8FC1B4F04460D46E8
:100AC000D7E90060FFF7C9FD22462B46FFF706FC79
:100AD000044630460D46FFF7C0FD02460B46204651
:100AE0002946FFF714FDFFF7CBFDFFF7B6FD9FED9D
:100AF0000A0B53EC102BFFF798FC9FED090B53ECFE
:100B0000102BFFF704FDFFF7BBFDB860F8BD00BF79
:100B10000000000000C0D2BF6666666666E626403A
:100B20000000000000408FC07003002010B5074C8B
:100B30000121204602F0F2F930B104F59A300F217C
:100B4000BDE8104004F072BD10BD00BF00C0004001
:100B5000FEE7000010B5074C0E21204604F0C4FC4F
:100B6000012806D120460E2104F0A8FC02480121EC
:100B7000417010BD00F001408C0300202DE9F84FBA
:100B8000C0F3C01440B2102B20EAE0760A9801EBC3
:100B90004409A2F1200126D0082B4BD1264A002877
:100BA0004FF00000C9B24FF0000B08BF4FF0FF300C
:100BB0005FFA80FA02EBC108BBF1080F3AD018F8CF
:100BC0000B1009EB0B000027C4B281EA0A05082FBD
:100BD00006D005FA07F1F01900F041FE0137F6E7FB
:100BE0000BF1010BE8E70027C9B200284FF0000025
:100BF0004FEA011808BF4FF0FF305FFA80FB102F5B
:100C000018D00E4A48EA070109EB07004FF0000A26
:100C1000C4B2515C81EA0B05BAF1080F08D005FA9D
:100C20000AF106EB0A0000F01AFE0AF1010AF3E7E6
:100C30000137E4E7BDE8F88FD07F0008C8820008DC
:100C40002DE9FC47DDF828801C4691460E460746F4
:100C5000102B06D0082C18BFBDE8FC874FF0060A01
:100C600001E04FF0080A0025E8B219F8002072B13F
:100C7000F8B2F1B22346CDF80080FFF77FFF57446A
:100C8000F8B2782884BF264400270135ECE7BDE898
:100C9000FC4700F009BF000020B1034800210068B4
:100CA00004F058BE704700BF1800002003A007F0F2
:100CB00059F8642004F0BAFA01F052FC48617264F9
:100CC000204661756C74206F63637572730D00004C
:100CD000E0B58DF807100DF1070240F2111100F098
:100CE0002CFE8CBD4FF4877100F0B5BDE0B509BA9C
:100CF0000423019101AA4FF48A7100F0A9FC8CBD74
:100D0000E0B5022928BF0221002A18BF41F00401E2
:100D10008DF807100DF107024FF48B7100F00DFEF6
:100D20008CBDF8B502210DF10E0200F049FE40F233
:100D3000052100F038FE9DF80F0004B080BD70B5AD
:100D400015460E46044600F0E9FA00F0A3FD00F057
:100D500090FD307020460021002600F069FC2870CC
:100D60002046032E04D8002100F062FC0136F7E78C
:100D700000F0E8FB2046BDE8704000F0CFBA00006C
:100D8000F8B503210DF10D0200F01AFE4FF48D713C
:100D900000F009FE9DF80E009DF80F109FED181A47
:100DA00060F30A2100EE101A00F0EDFD10EE100ABB
:100DB000FFF753FC9FED0A0B00F0D0FD9FED0A0BEF
:100DC00000F053FD9FED0A0B00F0C8FD9FED0A0BEC
:100DD00000F04BFDFFF754FC00EE100A8FBD00BF82
:100DE0009A9999999999F53FF2D24D621058E7BFB7
:100DF0007B14AE47E16182C0000000000000394072
:100E00000000003A00000000F8B502210DF10E02CA
:100E100000F0D6FD40F2191100F0C5FD9DF80F005D
:100E2000FFF7F5FB9FED080B00F098FD9FED080B19
:100E300000F01BFD9FED080B00F090FDFFF720FC7C
:100E400000EE100A8FBD00BF6EA301BC0512943FD7
:100E5000000000000000F0BF0000000000189540F6
:100E60007CB5044601208DF806108DF80700080AAD
:100E70008DF80500080C8DF80400080E8DF80300AD
:100E800000F051FD00F089FC062100F0D1FB0026A6
:100E90000DF10305052E04D0A95D00F0CEFC01364E
:100EA000F8E700F058FD00F03EFD00F00FFD204691
:100EB0000021002600F0BCFB2046042E04D000F0E8
:100EC0006FFDA8550136F7E700F03CFB00F02BFD65
:100ED0009DF804109DF803009DF805209DF806304C
:100EE000090441EA006000EB024018447CBD0000A8
:100EF000B0B5094A094B0B4D094CD2F849209A422A
:100F0000094B0A4A38BF2546994228BF2A4611464E
:100F1000BDE8B04000F025B9F418002001C2EB0B89
:100F2000FC880008E888000801879303D48800083B
:100F30001CB5089C8DF802308DF801208DF800104A
:100F40006A464FF4897108238DF80740079C8DF895
:100F50000640069C8DF80540059C8DF80440049CD5
:100F60008DF8034000F074FB1CBDE0B500F02BFCD5
:100F70006A4640F2131100F06BFB8CBD40F21D116C
:100F800000F069BCF8B58DF80A20069A8DF80B3090
:100F90008DF80910130A8DF80F208DF80E30130C00
:100FA000120E8DF80C200A0A8DF80D300A238DF8E8
:100FB00008200A0C090E00F011FD0DF1060240F2A6
:100FC0000F2100F045FB8FBD1FB50A9C8DF808105E
:100FD000090A8DF80A308DF809200DF1070209235E
:100FE0008DF807104FF404718DF80F40099C8DF8AF
:100FF0000E40089C8DF80D40079C8DF80C40069C17
:101000008DF80B4000F024FB1FBDE0B500F0DBFBCA
:101010006A464FF4097100F01BFB8CBD0A4640F292
:101020000621082300F014BBE0B549BA0DF1060211
:101030000223ADF8061040F2252100F009FB8CBD1B
:101040001CB5049C05298DF8074098BF0521012B8C
:101050008DF8041098BF0123072BA2F1070128BFC8
:1010600007238DF806300F2A28BF0F22C9B20629A0
:1010700038BF06228DF8052040F20F2101AA042373
:1010800000F0E6FA1CBDE0B549BA0023ADF8031044
:1010900004998DF80730ADF8053012B101228DF8B2
:1010A0000520059A11B101218DF8061012B1012118
:1010B0008DF807100DF103024FF40471052300F0C1
:1010C000C7FA8CBDE0B58DF807100DF1070240F2AC
:1010D0002B2100F032FC8CBD1CB5049C072B8DF835
:1010E000074028BF0723002A8DF8063018BF0122C9
:1010F0008DF80520022928BF02218DF8041001AACD
:1011000040F21521042300F0A3FA1CBDE0B500F065
:1011100065FC0DF1060240F2122100F0BEFB8CBD11
:10112000E0B5042928BF04218DF807100DF107024E
:1011300040F20E2100F001FC8CBDE0B58DF80710E7
:101140000DF107024FF4887100F0F7FB8CBDE0B59C
:1011500009BA0423019101AA40F20B2100F078FAA8
:101160008CBDBFB50A784B788C78CD7802F00F0231
:1011700042EA03120B798DF8052004F00F028C7BF4
:1011800042EA051203F00F03CD7B8DF806204A7961
:1011900043EA02128B798DF80720CA7900F075FBBB
:1011A0000B7A8DF808204A7A00F06FFB8B7A8DF865
:1011B0000920CA7A00F069FB4B7B8DF80A200A7C73
:1011C00002F00F028DF80D200A7B498A02F00F020F
:1011D00009BA42EA0312090C0B238DF80B2004F024
:1011E0000F02ADF80E1040F2292142EA05128DF8E7
:1011F0000C200DF1050200F02BFABFBDE0B56FF039
:101200007F42914238BF0A4600F037FB0DF10502DC
:101210008DF8051040F2092100F01AFA8CBDE0B5F6
:101220008DF807100DF1070240F2272100F085FB31
:101230008CBDE0B5032928BF03218DF807100DF1FF
:10124000070240F2132100F078FB8CBDE0B50329C2
:1012500028BF03218DF803108DF80720110A0523FC
:101260008DF80610110C8DF80510110E0DF103020A
:101270008DF8041040F21B1100F0EAF98CBDE0B5C6
:10128000002918BF01218DF807100DF107024FF456
:101290008E7100F052FB8CBDE0B56FF07F42914241
:1012A00038BF0A4600F0E9FA0DF105028DF8051085
:1012B00040F20A2100F0CCF98CBD40F2192100F077
:1012C000CABA40F21A2100F0C6BAE0B500F086FBB7
:1012D0000DF1060240F2112100F0DFFA8CBDE0B5FD
:1012E000130A8DF807208DF803108DF80630130CC3
:1012F000120E8DF804200A0A8DF8053008238DF8A7
:1013000002200A0C090E8DF801208DF800106A46A3
:1013100040F2051100F09CF98CBD000070B508B1D9
:1013200000240CE0074EB14D0136344618BF0124AD
:1013300005D02846002104F04FF90028F4D12046BA
:1013400070BD00BFEFD8FFFFF0B587B005464FF482
:1013500096700C4603F06AFF28460121FFF7EDFE68
:10136000284600210026FFF78AFF0A2003F05EFFCF
:101370000220032100220123CDE902660496CDE973
:10138000001028461F21FFF7D3FD28460021012227
:10139000FFF7B6FC2846FFF7A5FC28463F21FFF7DC
:1013A00097FC2846FFF79EFC28466FF07741FFF731
:1013B0009DFC00200121FFF762FF21782846FFF7FE
:1013C000AFFE2078012821D0022869D1E07E217E5D
:1013D000627EA37E00902846FFF732FE94F821003B
:1013E00094F82260A18BA27F94F82030CDE900060A
:1013F0002846FFF748FEE17F2846FFF763FE2846B0
:10140000214607B0BDE8F04000F04CB82846012165
:10141000FFF786FED4F8290094F8273094F82820A6
:10142000D4F8231000902846FFF7ACFD94F839005B
:10143000B4F82D1094F82F2094F8303094F83C60D4
:1014400094F83D7094F83EC094F843E08DE8C150A4
:101450002846FFF7B9FD002005A9082805D0221865
:1014600092F831200A540130F7E705A92846FFF722
:10147000D5FD94F83A1094F83B202846FFF746FE35
:10148000B4F84120B4F83F102846FFF7BEFD94F8A9
:1014900044102846FFF7C8FD2846214600F002F810
:1014A00007B0F0BD7CB5254E04460D46D6F88D003C
:1014B00000EE100AD1F8010001EE100A2046B8EE45
:1014C000411A20EE010ABCEEC00A10EE101AFFF716
:1014D0003EFED6F849001A49884209D3002002216D
:1014E0000022002300902046FFF7F6FD162008E0BA
:1014F000072001210122042300902046FFF7ECFD84
:1015000015202956EA7D2046FFF7DFFE20463F21C1
:10151000FFF7DEFBD6F849102046FFF7E9FC20462E
:101520008C210022FFF721FD20460221FFF781FEDA
:1015300020460121BDE87C40FFF771BEF418002071
:1015400081D99F3800B1704728480321012204F057
:1015500075B800BF2DE9F0411D4616460F4600F054
:101560000FFA00F0B3F9390A00F067F9F9B200F0A8
:1015700064F9DDE906872DB116F8011B00F05DF96D
:10158000013DF8E700F0E7F900F0CDF900F09EF931
:101590000025EEB22046B74205D900F001FA08F85E
:1015A00006000135F5E7FFF7CDFF2046BDE8F04125
:1015B000FFF7B4BE00B1704710B50C4C01210022FA
:1015C000204604F03BF8022003F030FE20460121C3
:1015D0000122BDE8104004F031B800BF00B17047EF
:1015E00002480321002204F029B800BF00F00140A6
:1015F00008290AD8DFE801F005090E131609180CAE
:10160000110000210022FFF721BE0021FFF7F6BDE7
:10161000FFF753BE0021FFF732BEFFF752BE012194
:10162000FFF72DBEFFF7AABC6FF07F41FFF734BE76
:1016300008B1002007E005480160416801F0110190
:101640000129FAD10068C0B2704700BF08200140EC
:101650002DE9F0411E461746884600F091F900F04A
:1016600035F94FEA182100F0E8F85FFA88F100F048
:10167000E4F80025E8B2864204D9395C00F0DDF8D0
:101680000135F7E700F067F940F21B10804508BF0D
:10169000BDE8F0812046BDE8F041FFF73FBE1FB531
:1016A0001C0A8DF80F308DF80B208DF807108DF87F
:1016B0000E401C0C1B0E8DF80C30130A8DF80D40DB
:1016C0008DF80A30130C120E8DF808200A0A8DF8D6
:1016D00009300C238DF806200A0C090E8DF8041031
:1016E0008DF8052001AA4FF48671FFF7B1FF1FBDE9
:1016F000FEE70000174812490068884218BF00281A
:1017000000D1704740690028FBD0004711480068AD
:10171000704700BF0A49884218BF002800D17047AF
:1017200010B50B490B4C0968206011B1183088477F
:10173000206800690028BDE81040F0D0004700BFD5
:10174000BC8800080249086002480068FFF7E2BF51
:10175000E803002018000020704748680C4601F09C
:1017600033BC01250020102110230095FFF768BA33
:101770000A600A68104308607047012202FA01F10A
:1017800002680A430260826870471043086070472D
:1017900028460121012205F06EBC4DF808ED2046D7
:1017A000FFF71CFF20460121FFF742FF20465DF8AE
:1017B00008EB704728460E21012203F087BE204621
:1017C000FF2100F0E1BD130A8DF807208DF803100A
:1017D0008DF80630130C120E8DF804200A0A8DF8CD
:1017E000053008238DF802200A0C090E8DF801201F
:1017F0008DF8001070470546A06801F0E5BB012098
:1018000020212246102300900020FFF719BA012260
:1018100002FA01F102688A43026082688A438260A8
:1018200042688A43426082697047044605F0FCB909
:1018300028460121012205F016BC2046FFF7F8BE1C
:10184000E86BE861204604F03DBC1D4616460F4695
:10185000044600F055BC00220023FFF7F9BEC9B2D0
:10186000C0B2CA09214600F0BBB953EC102BFEF7F9
:1018700035BD20460121FFF7DBBE8DF80720110A98
:1018800003238DF80610110C704703F00F0343EA91
:10189000021270472046FFF7A1BE0223FFF7D8BE11
:1018A000486801F091BB0020302110230095FFF71C
:1018B000C7B9A0699843A061A0689843A060206858
:1018C000704701210125204605F0DDBB2046FFF7CA
:1018D00085BED4F84D10D4F85120D4F85530704757
:1018E000044600F00DBC8DF80700010A000C03232C
:1018F0008DF806108DF805002846704710EE100A86
:10190000FEF7ABBE01260020102110230096FFF742
:1019100097B90A438260C2680A43C260026970478D
:10192000012105F095BB2046FFF7F8BCD4F805105F
:10193000D4F80920D4F80D3070470123FFF788BE92
:10194000012300F035BD002000F0ECBB1023009017
:101950000020FFF775B92046FFF7F4BD53EC102BBC
:10196000FEF763BD8DF807208DF806107047002044
:10197000FFF7EABC0020302110230096FFF760B982
:101980000446FFF7CBBCB8EE400A20EE010A7047D0
:1019900090F83110204605F04FBD00212046284721
:1019A0000021FFF745BE0022FFF7D4BD90F8791063
:1019B000204605F041BDB1FBF6F1B0FBF6F27047F1
:1019C0000023CDE900217047ECB2C5B2204629467C
:1019D000704740F6B830322101F02EBA8DF807205A
:1019E0008DF806107047204605F036BD70477047E9
:1019F00010B5174C207808B900F018F86068012875
:101A0000BCBF4FF0FF3010BDA0680749085CA1685B
:101A10000131A160A168B1F5007F04BF0021A16080
:101A200061680139616010BD8919002080B50748DF
:101A300000214FF4806200234FF0FF304FF4E1307B
:101A400004F08EF802480121017080BD00000020E2
:101A50006003002010B505F0EFF8034C201D05F0E1
:101A60000FF90120207010BD7C03002080B530B13B
:101A700064484FF48061FF22FEF768FB04E0614890
:101A80004FF48061FEF769FBBDE8804000F00CB8C0
:101A900002464D48072103F0D1BD00BF4F480F213A
:101AA000012203F0CBBD00BFF8B5564D394E0024DE
:101AB000082C08BFF8BD44F0B00000210027C0B2D8
:101AC000B04700200021B04710200021B047802FF0
:101AD00005D0E85D012100F097F80137F7E7803580
:101AE0000134E5E710B500F0A1F80A2003F09EFBF1
:101AF00000F052F8274CAE200021A0470020002122
:101B0000A04710200021A04740200021A047B0207E
:101B10000021A04781200021A047FF200021A047ED
:101B2000A1200021A047A6200021A047A820002135
:101B3000A0473F200021A047C8200021A047D32074
:101B40000021A04700200021A047D5200021A04768
:101B500080200021A047D9200021A047F1200021AA
:101B6000A047DA200021A04712200021A047DB2057
:101B70000021A04730200021A0478D200021A04750
:101B800014200021A047AF2000212246BDE81040CC
:101B9000104700BF091C0008B0B50B4C0B4D0921C4
:101BA00001222046A847642003F040FB204609217B
:101BB0000022A847642003F039FB204609210122B6
:101BC0002B46BDE8B040184700F401403D560008E0
:101BD00002480F21002203F031BD00BF00F0014098
:101BE00010B501F0070301F0F801012400EB01102A
:101BF0000449002A04FA03F30A5C0CBF9A431A430F
:101C00000A5410BDEC03002010B50029044618BF8B
:101C100001210846FFF73CFFFFF7DAFF204600F0FE
:101C20003BF8BDE81040FFF739BF0000FEB51C4C83
:101C3000174E0F21032204F54040B04704F54445F8
:101C4000092103222846B0472846072104220727F6
:101C5000B04728460C21042203F0C4FC28460E217C
:101C6000042203F0BFFC1820012104F0CDFC094838
:101C700069468DF8087000900020ADF809000190C9
:101C8000204605F061F92046012105F054F9FEBD1A
:101C9000F954000880841E000146014805F042B94D
:101CA000003001407047E0B500210DF1060202232B
:101CB000ADF80610072100F07BFB8CBDE0B549BAFA
:101CC0000DF106020223ADF80610022100F070FBB0
:101CD0008CBDBCB514460D460DF10502172103233A
:101CE00000F0CEFA9DF805002870BDF8060000BA95
:101CF000000C2080BCBDE0B50DF1050212210323CC
:101D000000F0BEFABDF8060000BA000C8CBDE0B5CC
:101D10000DF106021521022300F0B2FA9DF807002A
:101D20008CBDE0B50DF10702C021012300F0A8FA37
:101D30009DF807008CBD9422002940F6AC0118BF25
:101D4000962200F05DBBE0B5FFF70CFE0DF1060238
:101D50008F21022300F02CFB8CBD10B5044600F04F
:101D6000EFFA2046D12100220023BDE8104000F008
:101D70001FBBE0B58DF807100DF107029D21FFF79D
:101D8000DFFD8CBD1CB5049C8DF805301B0A8DF859
:101D90000320120A8DF80110090A8DF804308DF81D
:101DA00002208DF800106A46082108238DF80740AC
:101DB000240A8DF8064000F0FBFA1CBDC121002268
:101DC000002300F0F5BAB0B514460A4640F2CD61E2
:101DD000054600F015FB284640F2CE612246BDE8DC
:101DE000B04000F00DBB00002DE9F041174C164645
:101DF0000F460A0A40F2BC6198460546A047FAB26F
:101E0000284640F2BD61A047320A284640F2BE6132
:101E1000A047F2B2284640F2BF61A04728464FF4DF
:101E2000D76100F04FFA00F0FE00C8F3002142181D
:101E300028464FF4D761A0475FFA88F2284640F25F
:101E4000B9612346BDE8F041184700BF01240008EE
:101E5000BCB58DF803201A4A8DF804306FF07F442A
:101E600041F68465B2FBF1F3A34228BF23469142B9
:101E700088BF0123069A8DF80230190A8DF80110E7
:101E8000190C8DF8001043F60951B2FBF1F303FB76
:101E9000112245EA8232B2FBF1F16A4601EB83314D
:101EA000A14238BF0C468DF80740210A08238DF85F
:101EB0000610210C8DF805108B2100F079FABCBDBD
:101EC0000000093D1FB50A9C8DF80F40099C8DF854
:101ED0000E40089C8DF80D40079C8DF80C40069C28
:101EE000022C28BF02248DF80B40402B28BF402332
:101EF0008DF80A30531E072A28BF0722DBB2032BB6
:101F000038BF04228DF80920012998BF01218DF8DE
:101F100008100DF10702090A09238DF807108C211A
:101F200000F046FA1FBD70B50C4605460026082E87
:101F300008BF70BD46F4D860A25D81B2284600F0AB
:101F40005FFA0136F3E7BCB5044600208DF8063091
:101F500015460A2988BF01208DF80700052998BF7A
:101F6000052120460C2928BF0C218DF804108DF87E
:101F7000052001AA8B21042300F01AFA063D204611
:101F800040F6890118BF012500F09CF900F0FB0024
:101F900040F6890140EA8502204600F031FABCBDD6
:101FA000BCB50446069801298DF804208DF805304B
:101FB000079D0DF102028DF8060098BF0121080A65
:101FC0008DF8031006238DF807508DF80200204687
:101FD0008C2100F0EDF9204640F2367100F072F9E4
:101FE00000F0FB02204640F23671002D08BF04329B
:101FF00000F006FABCBD1CB501248DF806308DF842
:1020000004108DF80740072A28BF07228DF8052005
:1020100001AA9521042300F0CBF91CBDE0B58DF891
:1020200007100DF107028A21FFF78AFC8CBDE0B58D
:1020300009BA0423019101AA862100F0B9F98CBDE7
:10204000BCB50C46054600F077F96FF07F400DF106
:102050000502844238BF2046FFF745FC822100F08C
:10206000A7F9BCBDE0B562F382010DF107020123BF
:102070008DF80710842100F09BF98CBDE0B5002994
:1020800018BF01218DF807100DF107028021FFF71D
:1020900057FC8CBDBCB50C46054600F051F96FF0FD
:1020A0007F400DF10502844238BF2046FFF71BFC3C
:1020B000832100F07DF9BCBD10B5044600F040F965
:1020C0002046D22100220023BDE8104000F070B964
:1020D0001CB5FFF747FC0DF106028E2102230446D2
:1020E00000F066F9204640F6D80100F0EBF840F029
:1020F0001E02204640F6D80100F082F91CBD000007
:1021000008B1002070470549054A0131084618BF4B
:10211000012002D01368DB05F7D47047BFBDF0FF84
:1021200008910040F0B585B00C4609780546FFF7E8
:1021300075FF207808B301281CBF05B0F0BDE17C15
:10214000227D637D2846FFF7FEFE607FA67FB4F800
:102150001710627E237FCDE900062846FFF720FF97
:10216000E27E28464FF4E86100F04AF9A27E284654
:1021700040F2417100F044F939E028460021FFF7B0
:102180004DFFD4F8250094F8233094F82420D4F897
:102190001F1000902846FFF75BFE94F83500B4F856
:1021A000291094F82B2094F82C3094F8386094F887
:1021B000397094F83AC094F83FE08DE8C150284651
:1021C000FFF780FE04F12D012846FFF7ACFE94F8DE
:1021D000361094F837202846FFF7F5FD94F8403084
:1021E000B4F83D20B4F83B102846FFF7FDFD284623
:1021F000214605B0BDE8F04000F002B80000000044
:102200007CB50446D1F801000D46FEF700FA9FEDBB
:102210001A0B53EC102BFEF77AF9FEF705FA01467C
:102220002046FFF704FF2046002180220026FFF70A
:102230008AFD2046042107220023FFF7DCFE20460A
:1022400040F6E701382200F0DBF8697CAA7C2046E2
:10225000FFF73EFF20460121FFF76DFD20460121DB
:10226000FFF787FD20464321032200230096FFF756
:1022700089FD7CBD00BF00BF000000008084EE3FF0
:102280002DE9F0411D4690460F46FFF729FB14B992
:102290007448002101602046394600F075F8002797
:1022A000FEB2B54205D9FFF78AFA08F806000137F1
:1022B000F6E714B96B48012101602046BDE8F04102
:1022C000FFF71EBFE0B50DF10702012300F004F88F
:1022D0009DF807008CBD00002DE9F8431D46164609
:1022E0008946FFF7FDFA4FEA192814B95D48002125
:1022F00001605D4F20461D21B84720464146B84742
:102300005FFA89F12046B8472046FF21B8472DB132
:10231000FFF755FA06F8010B013DF8E714B95148EB
:10232000012101602046BDE8F843FFF7E9BE00BF88
:1023300000B1704703F076BA00B1704703F094BA69
:1023400000B1704703F096BA08290AD8DFE801F017
:1023500005090E131609180C110000210022FFF7C1
:1023600081BE0021FFF76CBEFFF7F7BC0021FFF72D
:1023700085BEFFF7A1BE0121FFF780BEFFF71EBD9E
:102380006FF07F41FFF786BE012803D058B9084699
:1023900003F076BA05480160416801F01101012996
:1023A000FAD1006800E00020C0B270470820014068
:1023B0002DE9F0411E4617468846FFF791FA14B9F9
:1023C00028480021016020464146FFF7DDFF002537
:1023D000E8B2864205D9395C2046FFF7D5FF0135C2
:1023E000F6E714B91F4801210160B8F1840F08BF56
:1023F000BDE8F0812046BDE8F041FFF781BE00BF97
:10240000E0B58DF807200DF10702012300F002F876
:102410008CBD00002DE9F843FFF717FA4FEA1728A3
:1024200014B9104800210160DFF83C9020460D21CE
:10243000C84720464146C847F9B22046C84700274A
:10244000F8B2854205D9315C2046FFF79DFF013780
:10245000F6E714B90348012101602046BDE8F843BE
:10246000FFF74EBE0C9100408923000880B50D484F
:10247000016801310A29016003D10021016003F0E4
:102480009DF909480078012807D1084801880139D9
:102490000180080408BF00F00DFDBDE8804004F095
:1024A00009BD00BFEC070020F2070020F007002064
:1024B00080B50C480122016841F4700101600A48AE
:1024C000016841F0800101600848C16862F313416E
:1024D000C16001688907FCD503F074FBBDE880404A
:1024E00002F084BE88ED00E00C00004008000240CD
:1024F000BCB5074C0DF10702FFF7E3F99DF80700A3
:10250000012804D12046FFF70BFA0B480570BCBD2B
:1025100000A00040BCB5074C0DF10702FFF7D1F950
:102520009DF80700012804D12046FFF7F9F9024879
:102530004570BCBD00A00140E01B002000F008BDBC
:102540007047FEE70D48BFF34F8F0D4A016801F455
:10255000E06111430160BFF34F8F00BFFDE700BF93
:102560000648BFF34F8F064A016801F4E06111434A
:102570000160BFF34F8F00BFFDE700BF0CED00E02F
:102580000400FA0563490A680240824202D10A68DF
:1025900010430860704700BF0021B1EB103F08D125
:1025A000074940F6FF730A689A430A600A681043B5
:1025B0000860704702490A6822F44012FFF7D8B851
:1025C00004700140044A002911680CBF21EA000090
:1025D00008431060704700BF187001400649012889
:1025E00004D038B9086820F0400002E0086840F0E4
:1025F00040000860704700BF4880004010B56FF091
:102600001F020828094C02EB800238BF82000F230A
:1026100004349140934008283CBF47F20804C4F2B8
:102620000104206898430843206010BD08700140F1
:1026300048490A6808B13AB17047D007FCD0086829
:102640004007F9D4022000E001200A681043086026
:10265000704700BF00000000F8B50E46244905464B
:1026600005201446002D18BF0D20D1E9001721FACE
:1026700000F0C0B2FDF7CBFF9FED150B53EC102B14
:10268000FDF7D3FE9FED140B53EC102BFDF726FE48
:10269000FDF7F6FF30600420002D18BF0D2027FA4B
:1026A00000F06FF35F20FDF7B2FF9FED0D0B53ECD1
:1026B000102BFDF7BAFE9FED0C0B53EC102BFDF722
:1026C0000DFEFDF7DDFF2060F8BD00BF00BF00BFBD
:1026D000FCA9F1D24D62603F000000000000F03F15
:1026E000FCA9F1D24D62503FFCA9F1D24D62D0BF9E
:1026F00030200010024800686FF31F30704700BFA1
:102700001C700140034909680140081AB0FA80F0C2
:10271000400970471470014080B511200621042241
:10272000002304F04DFA6420BDE8804002F084BD2F
:1027300008490A6830B1D0070AD00868800707D472
:10274000042002E0500703D508200A6810430860FF
:10275000704700BF00700140F8B5C84C257D02F0FD
:1027600041FDC74AFFF7CEF8C64AFFF703F9C64E48
:10277000FF273078377002280BD001280FBF0025C3
:10278000B0FA80F04009054305F0010002F06EFD4B
:10279000EFE705F0010001212075BD48BD4CA047C1
:1027A000BD480121A047BD480121A047BC480021E8
:1027B000A0470248BDE8F840FEF7ACBF1889000802
:1027C00010B5FEF7A3FFC068FEF7A4FFB048D14CD8
:1027D0000021A047B0480121A047B0480121A047EF
:1027E000AF4801212246BDE81040104710B502F065
:1027F000F9FCFEF78BFF8068FEF78CFF0648D24C91
:102800000021A04705480121A04705480121224693
:10281000BDE81040104700BF548B0008808B0008B3
:10282000D88B00082DE9FC41DFF8F48ED8F80D4074
:1028300002F0D8FC924AFEF794FFB44AFFF733F84F
:102840004FF47A76B24FFF25B4FBF6F438783D703A
:10285000022814D004F10A01B1F57A7F28BF31466D
:10286000002818BF2146A1F10A040B2C38BF0A2406
:10287000012818BF0C46204602F01AFDE6E74FF487
:102880007A70BE4D01216043C8F80D008048A8470A
:1028900081480121A847814CFFF77FF8804801213A
:1028A000A8472046BDE8FC41FEF734BFF8B5D84D37
:1028B0006C7C02F097FC724AFFF724F8D54AFFF7C8
:1028C00059F8D54EFF2730783770022818D0611C90
:1028D00049B211F1280FA8BF6FF02701002818BFD7
:1028E00021464A1E52B212F17E0FD8BF6FF07D0210
:1028F000012818BF0A4654B2204602F015FDE2E74F
:102900006C746348C54D0121A84763480121A8475D
:1029100062480121A847624CFFF73FF82046BDE816
:10292000F840FEF7F7BE00BF2DE9FC47DFF8288F1F
:10293000D8F8054002F056FC514AFEF712FFD84A7B
:10294000FEF7B1FF4FF47A765048D64FFF254CF290
:102950005039B4FBF6F4824638783D7068B10128EE
:1029600002D0022817D11AE0D8F80D00B0FBF6F01B
:10297000241A4C4598BF4C460DE0D8F80D10D8F8F5
:102980000900FFF718F80C44944228BFA0EB41045B
:10299000544528BF5446204602F0D8FCDCE74FF4EB
:1029A0007A70C14D00216043394CC8F805002046BB
:1029B000A84739480121A84738480121A847384885
:1029C0000121A8472046BDE8FC47FEF7A3BE00BF93
:1029D0002DE9F84FDFF8548FD8F8094002F002FCD7
:1029E000274AFEF7BEFEDB4AFEF75DFF4FF47A761C
:1029F0002648D94FFF254CF250394CF2513AB4FBDE
:102A0000F6F4834638783D70A0B1012802D0022840
:102A100018D11BE0D8F80D10D8F80500FEF7CBFF51
:102A2000641A944298BF00EB4104544538BF01EB4F
:102A3000090407E0D8F80D00B0FBF6F004445C454B
:102A400028BF5C46204602F093FCDBE74FF47A7027
:102A5000C24D01216043C8F809000D48A8470E4C3B
:102A6000FEF79BFF0D480121A8470D480121A8470B
:102A70002046BDE8F84FFEF74DBE00BFF418002019
:102A8000D6940008E494000808000020808D5B00C4
:102A90009C89000855590008F4890008C889000875
:102AA00070890008F8B5D94C94F85C5002F09AFB94
:102AB000D74AFEF727FFD74AFEF75CFFD74EFF271E
:102AC0003078377002280BD001280FBF0025B0FAEC
:102AD00080F04009054305F0010002F0C7FBEFE775
:102AE00005F00100012184F85C00CE48CE4CA047DF
:102AF000CE480121A047CE480121A047CD48002162
:102B0000A0470548BDE8F840FEF704BEE49400087D
:102B10000800002055590008208A000810B5FEF76B
:102B2000F5FDC068FEF7F6FDBE48BF4C0021A0478A
:102B3000BE480121A047BE480121A047BD48012150
:102B40002246BDE8104010475559000810B502F064
:102B500049FBFEF7DBFD8068FEF7DCFD0648B24C62
:102B60000121A04706480021A0470648012122462E
:102B7000BDE81040104700BF548B000855590008AD
:102B8000808B0008D88B00082DE9FC41DFF8A88E67
:102B9000D8F8554002F026FB9D4AFEF7E2FD9D4A1B
:102BA000FEF781FE4FF47A769C4FFF25B4FBF6F4D6
:102BB00038783D70022814D004F10A01B1F57A7F0B
:102BC00028BF3146002818BF2146A1F10A040B2C6A
:102BD00038BF0A24012818BF0C46204602F068FBC3
:102BE000E6E74FF47A70904D01216043C8F8550034
:102BF0008C48A8478D480121A8478D4CFEF7CDFE93
:102C00008C480121A8472046BDE8FC41FEF782BD63
:102C1000F4180020E494000808000020555900082A
:102C2000F8B57A4D95F8594002F0DCFA784AFEF78B
:102C300069FE784AFEF79EFE784EFF27307837709F
:102C4000022818D0611C49B211F1280FA8BF6FF0FB
:102C50002701002818BF21464A1E52B212F17E0FEA
:102C6000D8BF6FF07D02012818BF0A4654B2204633
:102C700002F05AFBE2E785F859406A486A4D0121A3
:102C8000A8476A480121A84769480121A847694C1B
:102C9000FEF783FE2046BDE8F840FEF73BBD00BFCF
:102CA000E494000808000020555900082DE9FC476D
:102CB000DFF8848DD8F84D4002F094FA544AFEF7BC
:102CC00050FD544AFEF7EFFD55484FF47A76534FC6
:102CD000FF25B4FBF6F481464F48824638783D70B4
:102CE00068B1012802D0022817D11AE0D8F855009F
:102CF000B0FBF6F0241A544598BF54460DE0D8F8BE
:102D00005510D8F85100FEF756FE0C44944228BFE7
:102D1000A0EB41044C4528BF4C46204602F016FB70
:102D2000DCE74FF47A70404D002160433D4CC8F819
:102D30004D002046A8473D480121A8473C480121B5
:102D4000A8473C480121A8472046BDE8FC47FEF7BC
:102D5000E1BC00BFE49400080800002055590008B9
:102D60002DE9F84FDFF88C8FD8F8514002F03AFA8D
:102D7000274AFEF7F6FC274AFEF795FD26484FF452
:102D80007A762749254FFF25B4FBF6F48B46824619
:102D900000F1010938783D70A0B1012802D0022865
:102DA00018D11BE0D8F85510D8F84D00FEF703FEF7
:102DB000641A944298BF00EB41044C4538BF01EBC4
:102DC0000A0407E0D8F85500B0FBF6F004445C456F
:102DD00028BF5C46204602F0CBFADBE74FF47A705E
:102DE000114D01216043C8F851000E48A8470F4C0F
:102DF000FEF7D3FD0E480121A8470E480121A84740
:102E00002046BDE8F84FFEF785BC00BFF41800204F
:102E1000DD940008E4940008C027090008000020A1
:102E2000E0322900A48A000855590008FC8A0008ED
:102E3000D08A0008788A0008B0B5044607482A4DB1
:102E400001802846002100F053F805496000B1FBDD
:102E5000F0F0E862BDE8B04000F03CB8F0070020B8
:102E600040420F001FB508200121012403F0CCFBD4
:102E70008DF809401F201C4C6946009040F2F31069
:102E80000190204600F051F82046012100F03EF864
:102E90002046012100F032F805484FF00061C0F8EB
:102EA000801101602046002100F022F81FBD00BF04
:102EB00000E100E0B0B50C4C00210025204600F0F8
:102EC00017F804F59A300F21002202F0B7FB0748EB
:102ED0000570B0BD10B504480121012400F008F8C8
:102EE0000248047010BD00BF00C00040F20700207F
:102EF000026822F00102114401607047C268012992
:102F000022F0010208BF0132C26070470268012945
:102F100022F0040208BF04320260704700690840D2
:102F2000401AB0FA80F0400970474A7A036823F0EB
:102F3000800362F3C713426803600B7A22F07002C9
:102F40001A434260D1E90012C262816270470000F8
:102F500010B5114C1021204604F0D7F800B110BD77
:102F6000204604F073F90D490D4BCA689854C8689F
:102F70000130C860486801304860C868B0F5007F1B
:102F800004BF0020C8604868B0F5007FE7DD00207E
:102F9000C8604860886010BD0030004060030020B9
:102FA00089190020022988BF704702A050F821002B
:102FB00004F0D8BEF08D0008BF8E0008E78E000830
:102FC00000210022FDF719B900210022FDF74DB9BB
:102FD00050B149B110B50446002004F1080C21603D
:102FE0002071ACE80D0010BD012070472DE9F84FAD
:102FF0008046002600270446CCB12068B8B1FDF712
:10300000C1F80546606810B1FDF7BCF800E000208B
:10301000AF42C8BF3D46A168002918BF2F4686426F
:10302000C8BF3046002918BF06461034E4E720A088
:1030300004F098FE264804F095FE75427E422D4F1E
:10304000DFF894B028A40FF28C090FF2900AB8F1BF
:10305000000F27D0D8F8002022B3D8F80800B8B164
:103060004846314604F0E8F9D8F804005A4620B141
:103070000178002908BF584602465046294604F008
:10308000DBF9D8F80C1039B1087828B115A001E0A7
:103090002046114604F0D0F9384604F063FE08F1EA
:1030A0001008D4E7134804F05DFE0120BDE8F88F56
:1030B0003C636F6D6D616E643E203C617267733E70
:1030C000203C68656C7020746578743E0D000000CB
:1030D000F2940008252A7300D594000820252A734D
:1030E0000000000020257300202D2D2D20257320A9
:1030F0002D2D2D00459500082DE9F04F9BB000289F
:1031000000F03D81002900F03A810446D0E902B088
:1031100015465A44824280F0348120682A46584439
:10312000FCF7F4FFA0684FF0000A002300262844B3
:10313000A0600AA904310691834580F024812168AA
:1031400011F80B90B9F10A0F05D0B9F10D0F02D0AB
:103150000BF1010BF0E701F80BA05B4500F0FE80DE
:1031600020682169C518CDE90831284629460A7822
:10317000082A03D03AB100F8012B02E0A84288BF28
:1031800001380131F3E7854980F800A028461AAAE2
:1031900003F042FF002800F0E080DDF824A007469D
:1031A0000796BAF1000F12D0DAF80060002EB04690
:1031B00018BF4FF0010812D0DAF8080020B13846E5
:1031C0003146FDF705F8D0B10AF1100AE9E7099890
:1031D00080B3079E4FF000084FF0000A06E0012080
:1031E0000999079E4FF0000A29B120B128466CA129
:1031F000FCF7EEFFC8B1B8F1000F1ED0ADE0674993
:103200000A9600201AAA002603F006FF0127E0B163
:103210000AA90F2F41F8270036D0604900201AAACA
:1032200003F0FAFE01360137F1E70998FFF7DEFEF9
:1032300018B192E0079E4FF0000A002F00F08D8039
:1032400038460021FFF7AEFE87E0DAF804000028D8
:1032500070D001783F2902D1417800296AD00390CB
:10326000FCF790FF029003982A21FCF781FF68B1D8
:10327000DDE9022E0EEB02010139884266D1012AF6
:1032800064D0901E009005E0012160E0029ADDF814
:103290000CE000920EEB020000234FF02E0C019088
:1032A000002E44D0934205DA1EF803002A2818BFE6
:1032B000844604E0019810F8010C2A2846D1ACF1AC
:1032C0007300022104280CD8CDE904C3DFE800F024
:1032D000033F20101D0006980421012250F823000E
:1032E0001BE0BCF1620F1FD0BCF1660F1CD02EE0BA
:1032F0000698002250F8230004F052F80221DDE97C
:1033000004C3DDE9022E78B921E00698042101E02A
:103310000698012150F82300002204F041F8DDE96D
:1033200004C3DDE9022E88B1013E0133B8E70098FD
:1033300087420BDDDAF8082038460AA99047DAF808
:1033400000000027B0FA80F0400949E70221284632
:10335000FFF728FE079E4FF0000A089BB9F10A0FFD
:1033600008BF5B4507D00136A0680BF1010B84F85C
:1033700004905B46E0E620790D28F5D0F3E7FF26C0
:1033800008E0FE2606E02BB1C21A2068A260C11830
:10339000FCF7BCFE70B21BB0BDE8F08F479500088B
:1033A00068656C70000000002DE9F0472DED0C3BC6
:1033B00048680D46FFF708FE8146A868FFF704FE3F
:1033C000054602F0E7FF0DF1140814214046FCF712
:1033D000C4FE002000210026FDF751FF00203F2100
:1033E000FDF776FC002001210127FDF771FC4FF469
:1033F0007A7009FB00F10020FDF7A9FE4CF2503075
:10340000344900220A2300900020FDF7BBFD202054
:10341000202107220823CDE900660496CDE90207A2
:103420000020FDF7D1FD2C4FDFF8B0A000204FF4B5
:1034300000224FF400233946D047294B07F11C01E5
:10344000002003F58032D04700204146FDF789FE79
:1034500000206FF07F41FDF7D1FEEDB221A039468B
:103460004FF47002102D28BF1025465DA5F10A0407
:103470003305072C38BF4FF450030020D047A6F186
:103480000D00072C4FF000031B494FF4E022C0B29F
:1034900038BF03040020D047642001F0C7FE17485E
:1034A00050F82500FDF7D9F841EC180B012002F087
:1034B000C7FBFEF723FA41EC100B11A049462A4640
:1034C0008DED008B8DED020B03F0B6FFBDEC0C3BD8
:1034D000BDE8F087A08601001402F2009F160008E4
:1034E000000010710405060708090A0B0C0D0E0FE9
:1034F00010111213140000008C00F300107E00085D
:10350000525353495F43414C3A2025642C25642C87
:10351000252E31662C252E31660D0A0080B5FEF76A
:10352000BFF9C0B202F05EFB09A104A2002818BFD7
:1035300011460846BDE8804004F014BC434C4541A8
:10354000525F4552524F52533A204F4B0D000000EC
:10355000434C4541525F4552524F52533A204552D7
:10356000524F520D000000002DE9F0414868104E06
:103570000D46B0470746A868B0470446E868B0471C
:1035800005460CA004F0EEFBAEB2FDB20FF230081F
:10359000A7B2B74288BFBDE8F0812846394602F09D
:1035A00083FD02464046394603F046FF0134EFE70B
:1035B000C92F000844554D505F524547533A0D00FE
:1035C0003078253034582C3078253032580D0A00A8
:1035D00080B5FEF765F9C0B2022801D3F44801E0D6
:1035E00020B107A0BDE8804004F0BCBB0A4890F8B9
:1035F0003A1090F83B2009A0BDE8804003F01CBFC2
:1036000046535F4745545F414444523A20322C545C
:103610004F444F0D00000000F418002046535F4750
:1036200045545F414444523A20302C3078253032A2
:10363000582C3078253032580D0A000080B5FEF73E
:103640002FF9C0B2022804D310A0BDE8804004F0D6
:1036500089BB00280A4801BF90F84430B0F84120E7
:10366000B0F83F1008481FBF90F88C30B0F88920A0
:10367000B0F887100348BDE8804003F0DDBE00BF0E
:10368000F4180020028D00087A8C000846535F472A
:1036900045545F43524357483A20494E56414C499E
:1036A0004420524144494F0D00000000000000003A
:1036B000F8B5FEF7F5F8C1B2022905D328A004B089
:1036C000BDE8804004F04EBB154861B190F86F0032
:1036D0000938C2B2162A0CD8124AC0B202EBC00096
:1036E00090ED000B07E090F827000938C2B2172AC6
:1036F000F2D39FED090B0A4890F82830D0F8232028
:10370000D0F829008DED000B029007A003F094FE85
:103710008FBD00BF00BF00BF000000000000F0BF71
:10372000F4180020587E000846535F4745544D4F1B
:1037300044504152414D533A2025640D0A42523DB6
:1037400025640D0A53483D25640D0A42573D252E38
:1037500031660D0A4445563D25640D0A00000000FF
:1037600046535F4745544D4F44504152414D533AA3
:1037700020494E56414C494420524144494F0D0086
:103780002DE9FC41FEF78CF8C0B2012801D921A037
:103790003CE008B128A039E02F4890F83010B0F88C
:1037A0002D2090F82F3090F8438090F83E6090F8EC
:1037B0003D4090F8397090F83C5028A000910021CD
:1037C00003F03AFE35483649012F08BF0146354817
:1037D000002F18BF084604F0C5FA34483249002DBE
:1037E00018BF084604F0BEFA3148214603F024FE13
:1037F000062E9ABF304850F826002E4804F0B2FA40
:103800002F482E49B8F1000F18BF0846BDE8FC410B
:1038100004F0A8BA46535F4745545F5041434B45B7
:1038200054504152414D533A20494E56414C49441F
:1038300020524144494F0D0046535F4745545F5065
:1038400041434B4554504152414D533A20322C5440
:103850004F444F0D00000000F418002046535F470E
:1038600045545F5041434B4554504152414D533AAA
:1038700025640D0A5052455F4C454E3D25640D0AA6
:103880005052455F4445543D25640D0A53594E43FB
:103890005F4C454E3D25640D0A000000018E000876
:1038A000A08E0008308E0008978E0008D88D000882
:1038B000AE8D0008E38D0008107F00083F8E0008E1
:1038C000258E000870B5FDF7EBFFC4B2022C04D3BF
:1038D00019A0BDE8704004F045BA10A003F0ACFD9B
:1038E0000025124E54B1124C072D04D07019FEF76A
:1038F0005DF80135F8E796F8801009E00C4C072DCB
:1039000004D07019FEF744F80135F8E796F838103E
:103910000848BDE8704003F08FBD00BF46535F47C5
:1039200045545F53594E433A20302C00F418002080
:10393000268F0008818D000846535F4745545F532A
:10394000594E433A20494E56414C49442052414435
:10395000494F0D0070B5FDF700FFC6B2022E04D32B
:103960001348BDE8704004F0FDB9A068FFF72CFBD8
:103970000546E068FFF728FBDE49EDB2C4B23EB170
:1039800081F882004831FDF7F2FF0848012106E086
:1039900081F83A000431FDF7D6FF044800212A4699
:1039A0002346BDE8704003F047BD00BF5A8C0008B5
:1039B000498E00082DE9F04148681E4C0E46A0478C
:1039C0000746B068A0478046F068A04705463069C2
:1039D000A047F9B2022904D31AA0BDE8F04104F0CF
:1039E000C1B9154C89B184F88C00211D0020A4F8C0
:1039F0008950A4F88780FEF795FB94F88C30B4F8D2
:103A00008920B4F887100D4810E084F84400211D87
:103A10000020A4F84150A4F83F80FEF783FB94F8FF
:103A20004430B4F84120B4F83F100548BDE8F041F7
:103A300003F002BDC92F0008F4180020468D0008CD
:103A4000BE8C000846535F5345545F43524357486A
:103A50003A20494E56414C494420524144494F0D69
:103A600000000000000000002DE9F8432DED066B7A
:103A700048689F4D0F46A8470446B868A8470646C1
:103A8000F868A84780463869A84781467869A847FA
:103A9000E1B2022907D3A8A0BDEC066B01B0BDE8D6
:103AA000F04304F05FB9002940F0C180924A4FF41E
:103AB0001671B0F5167F98BF0846904228BF104691
:103AC0008E4AB6F5167F88BF3146914228BF11460F
:103AD000B9F1060F03D29FED5C8B1F2288E0B9F18C
:103AE000060F03D19FED5A8B172281E0B9F1090F20
:103AF00003D29FED598B0F227AE0B9F10B0F03D25D
:103B00009FED578B1E2273E0B9F10D0F03D29FED8D
:103B1000568B16226CE0B9F1100F03D29FED548B37
:103B20000E2265E0B9F1150F03D29FED538B1D22D4
:103B30005EE0B9F1190F03D29FED518B152257E0CA
:103B4000B9F11F0F03D29FED508B0D2250E0B9F158
:103B5000280F03D29FED4E8B1C2249E0B9F1300FA4
:103B600003D29FED4D8B142242E0B9F13C0F03D2FA
:103B70009FED4B8B0C223BE0B9F1500F03D29FED30
:103B80004A8B1B2234E0B9F15F0F03D29FED488BC3
:103B900013222DE0B9F1770F03D29FED478B0B2253
:103BA00026E0B9F19E0F03D29FED458B1A221FE04C
:103BB000B9F1BD0F03D29FED448B122218E0B9F189
:103BC000EC0F03D29FED428B0A2211E0B9F59C7FE6
:103BD00003D89FED418B19220AE041A2B9F5BB7FC2
:103BE00098BF083292ED008B4FF0090298BF112266
:103BF000404CC4F82310C4F82900211D002084F88B
:103C0000288084F82720FEF78DFAD4F8290094F84C
:103C10002830D4F8232000218DED008B029038A0AD
:103C200003F00AFCBDEC066B01B0BDE8F08331493E
:103C3000C1F8710081F87080C1F86B604831FDF700
:103C400096FE00BF00BF00BF0000004033331340AA
:103C500000000040333317400000004033331D4064
:103C60000000006066662340000000606666274032
:103C70000000004033332D4000000000008033403E
:103C80000000006066663740000000C0CC4C3D403C
:103C900000000000008043400000004033734740B4
:103CA000000000C0CC4C4D40000000C0CC8C534004
:103CB00000000040337357400000004033535D4024
:103CC0000000006066866340000000606666674032
:103CD000000000A099496D40000000000080734082
:103CE0000000000000307D40000000A0995977409E
:103CF000C92F0008F4180020400D0300E0930400D1
:103D000046535F5345544D4F44504152414D533AF1
:103D10002025640D0A42523D25640D0A53483D2575
:103D2000640D0A42573D252E31660D0A4445563D25
:103D300025640D0A0000000046535F5345544D4F63
:103D400044504152414D533A20494E56414C49440A
:103D500020524144494F0D002DE9F84FFDF7FDFC7D
:103D6000C0B2012801D939A06CE008B140A069E0D7
:103D7000A068DFF81C81C0470090E068C047064695
:103D80002069C04705466069C0478246A069C047B0
:103D90000746E069C0478146206AC0478346606A9B
:103DA000C04780463B483946002F344680F83EB035
:103DB00080F83D9018BF012180F82F60009E80F8A8
:103DC0003C1080F839A080F83050B8F1000F41461F
:103DD000A0F82D6018BF012180F84310011DFDF7E8
:103DE000B2FDB1B2E2B2EBB22BA003F025FB5FFA59
:103DF0008AF13848384A012908BF02463748002965
:103E000018BF104603F0AEFF36483549002F18BFE3
:103E1000084603F0A7FF34485FFA89F103F00CFB72
:103E20005FFA8BF006288FBF30480BF0070030494F
:103E300051F8200003F096FF2F482E49B8F1000FEB
:103E400018BF0846BDE8F84F03F08CBF46535F53D8
:103E500045545F5041434B4554504152414D533AB4
:103E600020494E56414C494420524144494F0D008F
:103E700046535F5345545F5041434B455450415264
:103E8000414D533A20322C544F444F0D0000000056
:103E9000C92F0008F418002046535F5345545F5063
:103EA00041434B4554504152414D533A0D0A5052F3
:103EB000455F4C454E3D25640D0A5052455F4445D3
:103EC000543D25640D0A53594E435F4C454E3D25E4
:103ED000640D0A00018E0008A08E0008308E0008D4
:103EE000978E0008D88D0008AE8D0008E38D00087D
:103EF000107F00083F8E0008258E000870B5FDF782
:103F00002CFCC0B2022804D328A0BDE8704003F006
:103F100029BF08340026214D90B1082E22D054F834
:103F20002600FFF751F8A919013681F83100F4E7AE
:103F300054F82600FFF748F8A919013681F8310036
:103F4000082EF5D1291D00200026FEF7EBF81448B5
:103F500003F072FA134C072E18D0A819FDF718FDBC
:103F60000136F8E705F1480100200026FDF7ECF9DD
:103F70000B4803F061FA0B4C072E04D0A819FDF78B
:103F800015FD0136F8E795F8801001E095F8381036
:103F90000548BDE8704003F04FBA00BFF418002098
:103FA000188F0008268F0008818D000846535F5344
:103FB00045545F53594E433A20494E56414C49446B
:103FC00020524144494F0D0010B5FDF769FCC4B2C1
:103FD000022C04D30DA0BDE8104003F0C3BE204660
:103FE00001F02EFEFDF78AFC02460B4602A0214698
:103FF000BDE8104003F020BA4745545F525353497F
:104000003A2025642C252E31660D0A004745545F61
:10401000525353493A20494E56414C49442052414B
:1040200044494F0D000000000348017D90F85C20DA
:1040300002A003F001BA00BFF41800204745545F06
:104040005343414E533A2025642C25640D0A000049
:1040500001A003F087BE00BF4745545F4354554E4F
:10406000453A204E4F5420535550504F52544544DA
:104070000D00000001A003F075BE00BF4745545F6E
:1040800044455649443A20544F444F0D0000000027
:104090001CB50020ADF806008DF80500FDF700FC0A
:1040A000C4B20DF105010DF10602204601F0E8FD54
:1040B00030B1BDF8062009A0214603F0BDF91CBDB2
:1040C00001A003F04FFE1CBD4745545F4552524FBF
:1040D00052533A204552524F520D00004745545F0B
:1040E0004552524F52533A2025642C3078253034B3
:1040F000580D0A0080B5FDF7D3FBC0B201280BD1E3
:104100000D48D0F88D00FCF7A8FA02460BA00B462C
:10411000BDE8804003F090B902A0BDE8804003F004
:1041200021BE00BF4745545F4B465245513A20459A
:1041300052524F520D000000F41800204745545FC2
:104140004B465245513A20312C252E37660D0A0038
:104150001CB5FDF7A5FBC4B20DF10701204601F027
:10416000AFFD30B19DF8072009A0214603F064F9A6
:104170001CBD02A003F0F6FD1CBD00BF4745545F07
:104180004D4F44454D3A204552524F520D000000CC
:104190004745545F4D4F44454D3A2025752C2575B4
:1041A0000D0A0000BFB5FDF77BFBC0B2022805D3A6
:1041B0001FA004B0BDE8B04003F0D4BDC0B11A48A0
:1041C0004FF47A75D0F85520D0F85130D0F84D1012
:1041D000B0F95A4090F95900B2FBF5F20290B3FBE6
:1041E000F5F31248CDE90024B1FBF5F2012117E007
:1041F0000D484FF47A75D0F80D20D0F80930D0F87A
:104200000510B0F9124090F91100B2FBF5F20290DE
:10421000B3FBF5F30548CDE90024B1FBF5F200212D
:1042200003F00AF9BFBD00BFF41800208A8D000812
:104230004745545F5343414E504152414D533A20FC
:10424000494E56414C494420524144494F0D0000CB
:104250001CB500208DF807008DF80600FDF720FB47
:10426000C4B20DF106010DF10702204601F03EFD3A
:1042700040B19DF807309DF8062009A0214603F0C3
:10428000DBF81CBD01A003F06DFD1CBD4745545F6C
:104290005354415455533A204552524F520D000049
:1042A0004745545F5354415455533A2025642C30AC
:1042B00078253032582C3078253032580D0A0000DD
:1042C00080B5FDF7EDFAC0B201280BD10020FCF754
:1042D00057FDFDF713FB02460AA00B46BDE88040E0
:1042E00003F0AAB802A0BDE8804003F03BBD00BFC8
:1042F0004745545F54454D503A204552524F520D58
:10430000000000004745545F54454D503A20312C81
:10431000252E31660D0A0000BFB507480388C27814
:10432000017944798579C079029004A0CDE90045EE
:1043300003F082F8BFBD00BF800300204745545FF3
:1043400054494D453A2025642E253032642E2530BF
:1043500032642C253032643A253032643A253032CA
:10436000640D0A00034803680348026803A003F0D1
:1043700063B800BF300002402C0002404745545F44
:104380005549443A203078256C6C580D0A000000DD
:1043900080B5FDF785FAC0B201280BD10020FCF7EB
:1043A00033FDFDF7ABFA024609A00B46BDE880409D
:1043B00003F042B802A0BDE8804003F0D3BC00BFC8
:1043C0004745545F5643433A204552524F520D00E1
:1043D0004745545F5643433A20312C252E31660D14
:1043E0000A00000002A002210022012303F024B8E9
:1043F0004745545F56455253494F4E3A2048573D22
:1044000025642C46573D25642E25640D0A000000C6
:1044100080B505480068FCF720F9024603A00B466A
:10442000BDE8804003F008B8780300204745545F9A
:10443000564241543A20252E33660D0A00000000F2
:1044400003480449044B4FF48072FEF7C1BD00BF1E
:104450008C1B0020F30700201C00002080B501F019
:1044600095FC02A0BDE8804003F07CBC494E495455
:104470005F434F4E4649473A204F4B0D0000000026
:10448000BCB5FDF70DFAC1B2012901D924A03FE066
:104490002C4C10F0010304F1180004F1190518BFA9
:1044A00004F16100027804F1170018BF04F1600004
:1044B000002B04F11A03007818BF04F162052D786F
:1044C00018BF04F163030F2A8FBF9FED130B1E4C1F
:1044D00004EBC20292ED000BC0B21C7853EC102B1F
:1044E00000901AA002F0A8FF224802F0A5FFE8B24F
:1044F00007289ABF214951F820001F4803F032FCD9
:104500001F4802F099FFE0075C495D4818BF084664
:10451000BDE8BC4003F026BC000000000000F0BF76
:104520004C525F4745545F4D4F44504152414D53AB
:104530003A20494E56414C494420524144494F0D7E
:1045400000000000F4180020307F00084C525F4744
:1045500045545F4D4F44504152414D533A202564DC
:104560000D0A42573D252E31660D0A53463D2564FE
:104570000D0A00003D8F0008E78D0008B07F00089D
:10458000B18F000870B5FDF78BF9C0B2012801D9D1
:104590001EA435E0264E68B196F86820B6F864107F
:1045A00024A002F049FF96F8661006F16A0506F1AC
:1045B00069040BE096F82020B6F81B102B4802F097
:1045C0003BFF717F06F1220506F121042948284AA4
:1045D000002918BF104603F0C5FB274802F02CFF46
:1045E0002078E24CE04E0028204618BF304603F009
:1045F000B9FB244802F020FF2878002818BF344671
:104600002046BDE8704003F0ADBB00BF4C525F4791
:1046100045545F5041434B4554504152414D533AEC
:1046200020494E56414C494420524144494F0D00C7
:10463000F41800204C525F4745545F5041434B45AE
:1046400054504152414D533A20320D0A5052455F69
:104650004C454E3D25640D0A5041595F4C454E3D39
:1046600025640D0A4845414445523A00418F0008EF
:10467000D38E0008DD8E00082E8F0008458E0008BE
:104680003A8E0008338F000880B5FDF709F9C0B2F3
:10469000022804D315A0BDE8804003F063BB0028C6
:1046A000054807BFC18B0BA090F8671003A0BDE8B9
:1046B000804002F0C1BE00BFF41800204C525F479A
:1046C00045545F53594E433A20322C3078253034CC
:1046D000580D0A004C525F4745545F53594E433AB8
:1046E00020302C3078253034580D0A004C525F476A
:1046F00045545F53594E433A204552524F520D0094
:104700002DE9F8432DED047B48686F4C0D46A0471A
:104710000646A868A0470746E868A047804628697B
:10472000A04781466869A047F5B2012D01D967A06D
:10473000C2E0B9B22DB1402909D29FED6D8A0321A3
:1047400041E0092909D29FED728A002177E07E2994
:1047500009D29FED688A042135E00C2909D29FED2A
:104760006D8A08216BE0CC2909D29FED638A0D2167
:1047700029E0112909D29FED688A01215FE0FB2918
:1047800009D29FED5E8A05211DE016290AD29FED10
:10479000638A092153E0B1F5CB7F09D89FED588A90
:1047A0000E2110E020292ED29FED5D8A022146E0E5
:1047B00054A2B1F5FA7F4FF00F0198BF043292ED89
:1047C000008A98BF0621514AC6B219F0F80F5FFA65
:1047D00088F0074682F8611018BF4FF00709002ED5
:1047E00082F8629018BF012682F8636002F14801E6
:1047F0000C2828BF0C27052838BF052782F86070D1
:10480000FDF7B5F838E02B2903D29FED468A0A213F
:1048100015E0402903D29FED368A03210FE07E295F
:1048200003D29FED348A042109E03FA2FB294FF017
:10483000060138BF043292ED008A38BF0521C6B2A6
:10484000324A5FFA89F05FFA88F7002E117618BFB6
:1048500001260428967688BF4FF0040908F0FE0070
:1048600082F819900C2F28BF0C27062838BF06277E
:10487000D775111DFDF767F818EE100AFBF7EDFE6E
:1048800002460B462AA02946009702F0D5FD324881
:1048900002F0D2FD5FFA89F007289ABF304951F83B
:1048A00020002E4803F05EFA2E4802F0C5FD87482E
:1048B0008549002E18BF0846BDEC047B01B0BDE859
:1048C000F04303F04FBA00BFC92F00084C525F53AA
:1048D00045545F4D4F44504152414D533A20494E4B
:1048E00056414C494420524144494F0D00000000BC
:1048F00000007A420000FA4200004B4300007A4375
:104900000000CB4300004B440000FA43F4180020A1
:104910009A99F940666626419A9979416666A64158
:104920006666FA41CDCC26420000FA4300007A4385
:104930004C525F5345545F4D4F44504152414D538B
:104940003A2025640D0A42573D252E31660D0A5343
:10495000463D25640D0A00003D8F0008E78D0008E4
:10496000B07F0008B18F0008458E00083A8E00081D
:104970002DE9F0474868374C0E46A0470746B06817
:10498000A0478046B068A04781463069A04782466C
:104990007069A0470546B069A047FBB2012B01D959
:1049A0002DA452E000F0010205F00100334D0AF0A1
:1049B0000101C3B105F86A2F2C4605F8041CA5F1C6
:1049C000220105F8029C25F8068C04F8010DFCF77D
:1049D000CEFF15F8022C35F8061C29A002F02CFD9C
:1049E00015F8041C17E005F8222F2C4605F8051CC5
:1049F000A5F11E0105F8029C25F8078C04F8010DAD
:104A0000FCF7A1FF15F8022C35F8071C2A4802F024
:104A100013FD15F8051C2A48284A002918BF10461E
:104A200003F0A0F9274802F007FD2078274C264E16
:104A30000028204618BF304603F094F9244802F0BD
:104A4000FBFC2878002818BF34462046BDE8F04714
:104A500003F088B9C92F00084C525F5345545F508A
:104A600041434B4554504152414D533A20494E56D3
:104A7000414C494420524144494F0D00F418002054
:104A80004C525F5345545F5041434B455450415243
:104A9000414D533A20320D0A5052455F4C454E3D30
:104AA00025640D0A5041595F4C454E3D25640D0A61
:104AB0004845414445523A00798F0008D38E00089A
:104AC000DD8E00082E8F0008458E00083A8E000803
:104AD000338F0008B0B5FCF740FEFCF78CFEE9B25E
:104AE000022904D31AA0BDE8B04003F03BB90B4C37
:104AF00049B184F8670004F14801FCF738FF94F8E5
:104B0000671007A005E0E083211DFCF71CFFE18B87
:104B100009A0BDE8B04002F08FBC00BFF41800202F
:104B20004C525F5345545F53594E433A20322C3018
:104B300078253034580D0A004C525F5345545F536A
:104B4000594E433A20302C3078253034580D0A0025
:104B50004C525F5345545F53594E433A20494E5689
:104B6000414C494420524144494F0D00E0B5FCF707
:104B70003FFF8DF80700C0B238B1FF2805D00348C9
:104B80000DF107010122FEF7B7FA8CBD8C1B002046
:104B9000B0B5FCF7E2FDFCF72EFEEAB281B210469A
:104BA00001F082FA014602A0BDE8B04002F044BC28
:104BB000524541445F5245473A20307825303258BB
:104BC0000D0A000003A003F0CDF8642000F02EFBD6
:104BD000FDF7B8FC52455345543A204F4B0D0000A9
:104BE00070470000B0B5FCF7B8FDFCF704FEE9B271
:104BF000074BC2B207A0002918BF01211975002A6E
:104C000018BF012283F85C20BDE8B04002F014BC5C
:104C1000F41800205345545F5343414E533A202526
:104C2000642C25640D0A000001A003F09BB800BFAE
:104C30005345545F4354554E453A204E4F542053EC
:104C40005550504F525445440D00000001A003F050
:104C500089B800BF5345545F44455649443A2054EF
:104C60004F444F0D0000000010B5FCF776FDC0B2B8
:104C7000012824D1A068FEF7A3F900B2FBF7B6FC27
:104C80009FED110B53EC102BFBF741FC9FED100B2C
:104C900053EC102BFBF722FBFBF7F2FC134CC4F890
:104CA0008D00012000F0A8FFD4F88D00FBF7D5FCA3
:104CB00002460FA00B46BDE8104002F0BDBB06A0A7
:104CC000BDE8104003F04EB800000000D012634170
:104CD000000000000000F03F5345545F4B46524532
:104CE000513A204552524F520D000000F418002056
:104CF0005345545F4B465245513A20312C252E37AF
:104D0000660D0A00B0B5FCF728FDFCF774FDFCF752
:104D10005BFE01F0A3FA30B10AA021462A46BDE8A5
:104D2000B04002F089BB02A0BDE8B04003F01AB861
:104D30005345545F4D4F44454D3A204552524F52D2
:104D40000D0000005345545F4D4F44454D3A20251A
:104D5000752C25750D0A0000B0B5FCF7FEFCFCF7BC
:104D60004AFDFCF731FE01F097FA30B10AA0214666
:104D70002A46BDE8B04002F05FBB02A0BDE8B040EB
:104D800002F0F0BF5345545F4F504D4F44453A2019
:104D90004552524F520D00005345545F4F504D4FF6
:104DA00044453A2025642C25640D0A002DE9F8437A
:104DB0004868244E0D46B0470446A868B0470746E9
:104DC000E868B04781462869B04780466869B047BF
:104DD0000646A869E4B2FEF7F3F8022C04D328A033
:104DE000BDE8F84302F0BEBF4D224FF47A73164D72
:104DF000002C07FB03F108BF052209FB03F708FBA2
:104E000003F3A9505122002C08BF0922AF504FF0E4
:104E10005A0208BF1222AE525522002C08BF0D22A2
:104E2000AB504FF0590208BF1122A854204601F0A0
:104E3000C7F908B10CA000E004A02146BDE8F84382
:104E400002F0FABAC92F0008F41800205345545F45
:104E50005343414E504152414D533A2025752C4504
:104E600052524F520D0A00005345545F5343414E76
:104E7000504152414D533A2025752C4F4B0D0A009D
:104E80005345545F5343414E504152414D533A2094
:104E9000494E56414C494420524144494F0D00006F
:104EA0007047000080B502F0ADFA02A0BDE8804076
:104EB00002F058BF53544F52455F434F4E46494747
:104EC0003A204F4B0D0000002DE9F84F4868274D60
:104ED0000E46A8470746B068A8478246F068A8472C
:104EE00083463069A84704467069A8478046B06980
:104EF0005FFA87F9FEF764F8B9F1020F04D340486E
:104F0000BDE8F84F02F02EBF4FF47A730AFB03F1AD
:104F10000BFB03F263435C18A24201D237480BE05B
:104F2000DC087C2C01D82DA006E0B8F1000F02D0DF
:104F3000B8F13D0F05D320A04946BDE8F84F02F077
:104F40007BBA00EE100A4846CDF80080B8EEC00AE1
:104F500001F0D2F838B10C4810F80900002814BF4D
:104F60000AA010A0E8E702A0E6E700BFC92F0008EA
:104F700053574545505F52583A2025642C455252AC
:104F80004F520D0A0000000096030020535745457C
:104F9000505F52583A2025642C53544152540D0A04
:104FA0000000000053574545505F52583A20256491
:104FB0002C53544F500D0A0053574545505F5258DB
:104FC0003A2025642C54494D4520494E54455256AB
:104FD000414C204552524F52000000005357454566
:104FE000505F52583A2025642C4652455120535464
:104FF0004550204552524F520000000021910008B8
:10500000658E00082DE9FC474868264D0C46A847E8
:105010000646A068A8478146E068A84782462069FE
:10502000A84707466069A8478046A069A847F4B228
:10503000022C04D34048BDE8FC4702F093BE4FF475
:105040007A7309FB03F10AFB03F27B435D18AA4262
:1050500001D238480CE0DD087C2D01D8344807E047
:10506000B8F10A0F03D34EF66125A84505D327A052
:105070002146BDE8FC4702F0DFB9C0B2032801D3E6
:105080001BA0F5E7CDE90080204601F0E5F930B13D
:105090000B48005D002814BF0AA010A0E8E702A09A
:1050A000E6E700BFC92F000853574545505F5458E5
:1050B0003A2025642C4552524F520D0A0000000040
:1050C0009203002053574545505F54583A202564B9
:1050D0002C53544152540D0A0000000053574545CB
:1050E000505F54583A2025642C53544F500D0A00F9
:1050F00053574545505F54583A2025642C53545219
:1051000045414D204552524F5200000053574545EE
:10511000505F54583A2025642C54494D4520494E3F
:1051200054455256414C204552524F520000000007
:1051300004910008399100087E8E0008B0B5FCF794
:105140000CFBFCF758FBFCF73FFC01F049F930B1D0
:105150000AA021462A46BDE8B04002F06DB902A07F
:10516000BDE8B04002F0FEBD54585F535452454173
:105170004D3A204552524F520D00000054585F5393
:10518000545245414D3A2025752C25750D0A0000D5
:10519000F8B548680B4F0C46B8470546A068B847B5
:1051A0000646E068B847E9B2C5B2B4B2084621463F
:1051B0002A4601F0A3F904A021462A46BDE8F8409A
:1051C00002F03AB9C92F000857524954455F524579
:1051D000473A203078253034582C307825303258F2
:1051E0000D0A00000020FCF741BC000080B5012042
:1051F00001F046FC0A49884211D3B0FBF1F1194A8B
:1052000011704FF47A71E022B0FBF1F005490138DA
:10521000486005480270002088600720086080BD53
:1052200040420F0010E000E023ED00E04FF47A71FF
:10523000484300F001B80000B0B50A490B780A49AC
:105240000A686BB14C68584300234D68A542FCD0F6
:1052500023445B1BA54228BF13442C468342F4D34E
:10526000B0BD00BFF308002014E000E0E0B5002866
:1052700006480CBF06A10AA10D22FAF747FF01203C
:10528000024A2021FCF762FB8CBD00BFA01B00205E
:1052900044454143544956415445442000000000D0
:1052A0004143544956415445442020200000000009
:1052B0001CB5044C024604A1FCF795FBFCF79FFAD1
:1052C0001CBD00BFA01B0020535445503A2025644C
:1052D000206B487A0000000070B592B0054610EED1
:1052E000100A0C46FBF7B9F941EC100B0AA12A464B
:1052F00023468DED000B02AE304602F0ADF80120E2
:10530000324610230090102000EB0510C1B200209F
:10531000FBF796FC12B070BD25643A25642C252E4F
:1053200031662020000000001CB5044C024604A198
:10533000FCF759FBFCF763FA1CBD00BFA01B002063
:105340005448523A2025642064426D001CB5044C38
:10535000024604A1FCF747FBFCF751FA1CBD00BF55
:10536000A01B002053544152543A25646B487A00E4
:105370001CB5044C024604A1FCF735FBFCF73FFAD0
:105380001CBD00BFA01B002053544F503A20256481
:10539000206B487A000000003B490A68D20444BFF1
:1053A0004FF480520A6010B5384A394B394C93613A
:1053B0009461146804F4007422341460936100232F
:1053C00093614FF0FF3303600868C00406D490680F
:1053D000C007FCD001209060002010BD4FF4805029
:1053E00008606FF0670010BD2DE9FE43264B274C87
:1053F000284DEE4699461B68DB0444BF4FF48053AA
:10540000C9F80030224BA361A561256805F4007539
:1054100024352560A36100234FF0FF35A361CDE95A
:10542000005522F007054F19EE18964204D2FE5C93
:105430000EF803600133F7E700274FF0FF384FF015
:10544000010C974214D27646AF4238BFCE1933686A
:10545000E3607368236147F80080D9F80030DB040B
:1054600009D4A368DB07FCD0C4F808C00837E8E714
:105470000020BDE8FE834FF48050C9F800006FF0B3
:105480006700BDE8FE8300BF08F000400000024056
:10549000BFAE9D8C16151413B0B5074D0446C1B2AE
:1054A000284601F0D9FE2846802101F02EFE002872
:1054B000F9D02046B0BD00BF0030004049000322B3
:1054C00002FA01F1C26A1140C162704710B5490089
:1054D0000323C46A8B4002FA01F11C40C462826A51
:1054E0009A431143816210BDC06A4900C84010F060
:1054F000030018BF0120704710B5062A18D8DFE84E
:1055000002F004200D1408273C00FCF736F90A438A
:1055100011E0FCF77CF922EA01015AE0FCF72DF9D1
:10552000FCF7F7F922EA010110E0FCF770F943E01B
:10553000FCF723F98A438260C26822EA0101C16054
:1055400010BDFCF71AF9FCF7E4F91143016110BD35
:105550000122594B8A40D443984223D1082921D3B0
:1055600098692040986198682040986018681043B6
:10557000186018691043186110BD01224E4C8A4012
:10558000D343A0421AD1082918D3A0691840A061BA
:10559000A0681840A060206818402060206910436F
:1055A000206110BD01682140016081682140816057
:1055B000416811434160816911430AE00168194063
:1055C00001608168194081604168114341608169CF
:1055D0001940816110BD00BF4069C84000F0010062
:1055E0007047000070B5082913D30839324D8C007C
:1055F00001EB41032146A84208BF1946072602FADB
:1056000001F10F22A240A84208BF06FA03F23C2390
:1056100005E08B0002FA03F10F229A403823C458A8
:1056200024EA02021143C15070BD00BF012202FAF8
:1056300001F18269514081617047000010B501237A
:105640001D4C8B40A04217D1082915D3A0691842E0
:1056500002D1A068184217D0A069184205D1A068ED
:10566000184202D1206818421AD004F12000002A02
:1056700008BF04F11C0003E00AB1203000E01C3038
:1056800001681943016010BD20681842E4D0206908
:105690001842E1D0002AF6D1FCF70BF9984307E055
:1056A00020691842E1D0002AEDD0FCF702F9184336
:1056B000206004F11000E3E700FC014080B500F039
:1056C00025FA00F0D3F9FCF7B1F901F0FDFDBDE8D2
:1056D0008040FDF7C7BB000080B50420012100F029
:1056E00019FF4FF4A04001F03DFA002001F028FA24
:1056F0000020002101F02CFA064801F03BFA40207E
:10570000012100F081FF01F01DFBBDE88040FFF7A3
:105710006DBD00BF0100000280B500F0E1FB01F0AB
:1057200069FA11480068B0F1573F04D000F02EFB31
:105730000EA002F017FB002000F0FAFA14A110A24C
:10574000002818BF1146084602F00CFB012000F0AB
:10575000EFFA16A112A2002818BF11460846BDE8AC
:10576000804002F0FFBA00BFF4180020494E4954AF
:1057700020434F4E4749473A204F4B0D0000000051
:10578000415352363630313A204F4B0D0000000065
:10579000415352363630313A204552524F520D0065
:1057A0004C52313132313A204F4B0D004C52313195
:1057B00032313A204552524F520D00000120FCF781
:1057C000B7BF0000B0B5164C4FF400700225C4F806
:1057D0000001072020602561D4F8040180280BD047
:1057E0001420FFF729FD0020C4F80C011420FFF756
:1057F00023FD0120C4F80C01F14865604FF400114D
:105800000322016004F5B6300B21FFF7EBFE04F52F
:10581000B0300A210322BDE8B040FFF76DBE00BFE3
:105820000090004010B50F4C206820F02000206050
:105830006420FFF701FD206840F020002060206810
:1058400020F08000206054F8040C40F0200044F860
:10585000040C206840F0010020606068C005FCD4A2
:1058600010BD00BF04910040BB480A210122FFF790
:10587000E5BE00BFB8480A210022FFF7DFBE00BF27
:1058800004490860486800F011000128FAD108684E
:10589000C0B2704708900040FFF71EFFFFF70EFFF1
:1058A0006420FFF7C3FCFEF7CBFDFCF71BF90020DB
:1058B0000024FCF7DBF819A002F054FA1EA0022124
:1058C0000022012301F0B8FDFFF726FF6420FFF757
:1058D000ADFC01F0C7FC4FF4FA60C821FDF7ACFA4B
:1058E00000F032FD194D1A4FFF2600F063FBFFF761
:1058F0003DF92878022809D140F6B830C821FDF7D3
:105900009BFA2E7000F046FD00F068F83878012808
:10591000EBD13C7001F0A6FCE7E700BF0D0A4D5546
:105920004C544942414E4420524144494F20504C2E
:105930004154464F524D0D0048573D25642C465763
:105940003D25642C25640D0A00000000080000209D
:105950007C030020E0B5027E0091911E1022CBB2A4
:10596000032B4FF0000338BF02EB0113D9B200F153
:10597000190200201023FBF763F98CBD80B5FFF7F7
:1059800031FC364800210170BDE8804000F0DCBCED
:1059900070B5FFF727FC0B48FBF7D4FE0A4C0B4D04
:1059A000FBF7FBFF0A4801210126A847094801210E
:1059B000A84709480121A8472046FBF7ABFE274826
:1059C000067070BD990C0008048C00085559000839
:1059D000308C0008288B0008AC8B00082DE9F041C2
:1059E000FFF7D6FF1D4C1E4D1E4FDFF87C80FF26B3
:1059F0002078012818BFBDE8F0812878FF282AD038
:105A000002282E7020D001280ED020BB38684068B4
:105A1000404520D0FBF7DDFF38680121FFF79AFFF2
:105A2000FBF774FE40680CE038680068404512D00F
:105A3000FBF7CFFF38680121FFF78CFFFBF766FE0D
:105A40000068FBF767FE06E040F6B8306421FDF71A
:105A5000F3F9FBF74FFEFFF789F8C9E78819002033
:105A60000800002018000020BC88000810B50020A5
:105A700001F056F81220012100F0C6FD112001218D
:105A800000F0C2FD1E4C082104222046FFF734FD21
:105A900020460B210722FFF72FFD1A4C0020221D64
:105AA0002146FCF7D9FD94ED010A9FED171A20EE6F
:105AB000010A84ED010AFCF72FFE0820FCF76CFDBB
:105AC0000120FCF78BFD00200121FCF797FD4FF42E
:105AD0008010FCF76FFD0120FCF7AAFD02200121D8
