:020000040800F2
:10000000A00A00204D010008591600081B12000824
:10001000F115000827100008191F00080000000053
:10002000000000000000000000000000211B00088C
:10003000291000080000000067180008651E00086D
:1000400067010008670100086701000867010008F0
:1000500067010008670100086701000867010008E0
:1000600067010008670100086701000867010008D0
:1000700067010008670100086701000867010008C0
:1000800067010008670100081110000867010008F7
:100090000000000067010008670100086701000810
:1000A0000F1F00086701000867010008111F000802
:1000B0006701000867010008670100086701000880
:1000C0006701000867010008670100086701000870
:1000D00067010008151F0008670100086701000894
:1000E0006701000867010008670100086701000850
:1000F000670100080000000000000000191200085D
:1001000067010008670100081D1B00082510000892
:10011000670100086701000867010008670100081F
:10012000670100086701000867010008670100080F
:100130006701000867010008DFF80CD000F04AFCF6
:1001400000480047713D0008A00A0020064880478B
:1001500006480047FEE7FEE7FEE7FEE7FEE7FEE7AC
:10016000FEE7FEE7FEE7FEE70D1F00083901000885
:10017000202A04DB203A00FA02F100207047914067
:10018000C2F1200320FA03F319439040704710B5E1
:10019000431A934209D28318881803E010F8011D0E
:1001A00003F8011D521EF9D210BD40EA01039B075E
:1001B00003D009E008C9121F08C0042AFAD203E0DC
:1001C00011F8013B00F8013B521EF9D210BDD2B22A
:1001D00001E000F8012B491EFBD270470022F6E730
:1001E00010B513460A4604461946FFF7F0FF2046AD
:1001F00010BDCAB2401E10F8011F8A4202D0002969
:10020000F9D100207047421C10F8011B0029FBD1D6
:10021000801A704730B503461D783DB10A4612F882
:10022000014B1CB1AC42FAD15B1CF5E7181A30BD8A
:1002300030B50546002008E00A4602E0A34207D098
:10024000521C1378002BF9D1401C2C5C002CF3D1EC
:1002500030BD2DE9F0410E460546002400E0641C47
:10026000285D00F06EF90746305D00F06AF9381A33
:1002700002D1295D0029F2D1BDE8F0812DE9F047D6
:1002800091460F4680460446002614F8015B2DB1C6
:1002900000F04AF90068405DC007F6D12B2D02D06E
:1002A0002D2D18D0641E4A463946204600F04FF9DD
:1002B00027B13968A14201D1C7F8008071054FF01C
:1002C00002040BD54042002803DD05F07BFF0460EB
:1002D000A007BDE8F08746F48066E4E70028F8DA76
:1002E00005F070FF04606FF00040F2E72DE9F05F69
:1002F00093460F4680460446002605F063FFD0F87B
:100300000090824614F8015B2DB100F00DF90068F1
:10031000405DC007F6D12B2D02D02D2D1AD0641EC2
:100320000021CAF800105A463946204600F00FF95D
:10033000014627B13868A04201D1C7F80080DAF839
:100340000000022809D0CAF80090700505D548427F
:10035000BDE8F09F46F48066E2E70846F8E7F0B4AF
:1003600080EA0102D40F4200B2EB410F02D20246F2
:10037000084611464A0042D0C30DDDB2C1F3C75250
:10038000AD1A202D35DAC1F3160141F4000204B193
:100390005242C5F1200602FA06F12A411044B3EB9D
:1003A000D05F23D0C4B1012DA0EBC35009DCF0BC59
:1003B0004FF0004202EAC352DBB200F5000000F049
:1003C00022B9400000F1807000EBC350A0F18070B2
:1003D00040EAD170490009E0490841EAC071A0EB48
:1003E000C35000F50000400800EBC350F0BC00F023
:1003F00001B96142012202EB4101001BF6E7F0BCAA
:10040000704781F00041AAE780F00040A7E700288C
:1004100001DBC0F10040002901DBC1F10041814254
:1004200001D80120704700207047002801DBC0F18F
:100430000040002901DBC1F10041814201D20120CD
:10044000704700207047002801DBC0F10040002900
:1004500001DBC1F10041814201D901207047002038
:100460007047C10F80EAE0700844CA079623002154
:1004700000F0C9B800F0004230F000400AD0C10DD1
:1004800001F56071C0F3160042EA0151C20840074D
:100490001143704700200146704730B50B460146B6
:1004A00000202022012409E021FA02F59D4205D313
:1004B00003FA02F5491B04FA02F52844151EA2F1BD
:1004C0000102F1DC30BD2DE9F05F054600209246C7
:1004D0009B4688460646814640241BE02846414606
:1004E0004746224600F08EFA53465A46C01A9141BA
:1004F00010D3114618462246FFF73AFE2D1A67EB35
:1005000001084F46224601200021FFF731FE17EB7C
:1005100000094E41201EA4F10104DFDC48463146AB
:100520002A464346BDE8F09F00487047746B0008B8
:1005300010B50446FFF7F8FF0068005D00F0010009
:1005400010BDA0F14101192900D8203070472DE9D4
:10055000F05F82460078002715468B460AF10104B9
:10056000B946302801D09DB113E014F8010B0127E2
:10057000782803D0582801D045B10AE00DB1102DDC
:1005800007D10027102514F8010B02E0082500E030
:100590000A250026B0460EE005FB080005FB06F123
:1005A000012701EB10461FFA80F8B6F5803F00D313
:1005B000B94614F8010B294600F046FA0028EBDA98
:1005C000BBF1000F05D00FB1641E00E05446CBF81C
:1005D0000040B9F1000F06D005F0F4FD02210160E2
:1005E000C81EBDE8F09F48EA0640FAE70023036012
:1005F00000F057BA0029A8BF7047401C490008BF47
:1006000020F00100704710B4B0FA80FC00FA0CF042
:1006100050EA010404BF10BC704749B1CCF120047A
:1006200021FA04F411FA0CF118BF01212143084307
:10063000A3EB0C01CB1D4FEA00614FEA102042BF33
:10064000002010BC704700EBC35010440029A4BF29
:1006500010BC7047401C490008BF20F0010010BCCE
:1006600070472DE9FE4F804681EA0300C00F0C461B
:10067000009021F0004123F00045B8EB0200A941B1
:1006800005D24046214690461C460B46024623F0C2
:100690000040104347D0270DC7F30A00C3F30A51A7
:1006A0000290401A019040286BDAC3F3130040F423
:1006B000801B0098924620B10023D2EB030A63EB23
:1006C0000B0B01985946C0F140025046FFF750FD10
:1006D00006460D4650465946019A00F0A3F910EB24
:1006E00008006141002487EA115284EAE7731A4343
:1006F00040D0009A62B3019A012A4FEA075215DCF2
:10070000001B61EB02014FF0004202EA0752CDE903
:100710000042001C41F5801132462B4600F005FADC
:1007200003B0BDE8F08F40462146F9E7001B61EBBE
:100730000201001C41F5801300185B412018A2F54E
:10074000001747EB030140EAD570B6196D4111E07F
:100750006D084FEA360645EAC0754FEA0752001B9E
:1007600061EB0201001C41F5801149084FEA30009D
:100770000019514132462B4603B0BDE8F04F00F05E
:10078000C5B90098012240000023D0EB020263EBC0
:10079000E073009821464FEAE074B8EB000061EB8B
:1007A0000401E9E783F000435BE781F0004158E78B
:1007B0002DE9FE4F81EA030404F0004421F00041DA
:1007C00000944FF0000B23F0004350EA01045ED088
:1007D00052EA03045BD0C3F30A54C1F30A552C4414
:1007E000A4F2F3340194A0FB0254C1F3130141F4C9
:1007F0008011C3F3130343F4801301FB024400FB95
:10080000034E840A970A44EA815447EA8357A4FBBB
:10081000076802958D0A05FB07854FEA932C04FBB8
:100820000C542705029D4FEA065847EA1637B5EBE8
:1008300008056EEB070C870E920E47EA811742EA15
:100840008312A7FB0201B6EB0B0164EB00042B0D36
:1008500043EA0C335E1844EB1C50DA465146E7FB82
:100860000201C5F313044FEA0B3343EA14534FEA72
:100870000432019C43EA0603A4F10C040294009C98
:10088000CDE900B400F051F903B0BDE8F08F0020CD
:100890000146F9E72DE9F04D81EA030404F0004B2D
:1008A00021F0004514464FF0000A23F0004150EAC1
:1008B000050220D054EA01021DD0C5F30A570246B2
:1008C000C5F31303C1F31300C1F30A5640F48015B6
:1008D00043F48013A7EB0608101BD64608F2FD3838
:1008E00073EB050002D308F1010801E092185B41A7
:1008F000B8F1000F03DA00200146BDE8F08D0020BA
:100900004FF48011064684460EE0171B73EB050773
:1009100005D3121B63EB050306434CEA010C49089F
:100920004FEA300092185B4150EA0107EDD152EADC
:10093000030012D082EA040083EA0501084305D0CF
:10094000101BAB4106D20122002306E000224FF02B
:10095000004302E06FF0010253101AEB06004CEB6B
:10096000085110EB0A0041EB0B01BDE8F04D00F01F
:10097000CDB8C1F30A52C1F3130140F2FF3341F481
:1009800080119A4202DA00200146704740F2334358
:100990009A42A2F2334202DC524200F033B8FFF72F
:1009A000E7BB000030B5041E71F1000404DB4FF01A
:1009B0000044404264EB0101141E73F1000405DBA6
:1009C0001C464FF00043524263EB0403994208BFB8
:1009D000904230BD1CB50948009009480190054679
:1009E000009C06E0E06840F0010394E807009847A7
:1009F0001034AC42F6D3FFF7A3FB00004C81000893
:100A00008C810008202A04DB203A21FA02F0002120
:100A1000704721FA02F3D040C2F12002914008430E
:100A200019467047202A06DBCB17203A41FA02F01C
:100A300043EAE07306E041FA02F3D040C2F120023B
:100A400091400843194670473A2800D2303820F0C8
:100A50002002412A01D3A2F13700884201D34FF08E
:100A6000FF3070470FB40B0010B58AB00FA900918A
:100A70000E994FF00004234ACC60214CCDE9064288
:100A800000D004236FF00042CDE901321E4A0892E3
:100A900002466B46002000F02BF90AB010BC5DF84E
:100AA00014FBF0B585B007464FF0FF300091CDE95B
:100AB00001011E46002015460C4604903B466A463E
:100AC000314604A8FFF7CEFF04990346601825B10C
:100AD00009B1024600E022462A6000290ED0002B10
:100AE00002DD0099814209D00094001BCDE9010488
:100AF0003B466A46314604A8FFF7B4FF05B0F0BD97
:100B0000290F0008470F00083105000810B5141E12
:100B100073F1000408DA401C41F1000192185B41B6
:100B20001A4301D120F0010010BD2DE9F04D92468D
:100B30009B4611B1B1FA81F202E0B0FA80F22032A4
:100B40009046FFF715FB04460F4640EA0A0041EACB
:100B50000B0153465A46084313D0114653EA01008D
:100B600019D0C8F140025046FFF74CFF05460E462B
:100B7000504659464246FFF7FBFA084305D001208C
:100B800004E020463946BDE8F08D0020054346EAE2
:100B9000E0762C4337430A986305E40AA0EB08008B
:100BA0000022FD0A44EA47540A3002D500200146DB
:100BB000E9E7010510196941DDE9084500196941B6
:100BC000BDE8F04DA2E700002DE9FF4F087883B0A3
:100BD0009946FF2805D0491C2D2804D00024002068
:100BE00008E000200BE00124F9E700EB800003EBB4
:100BF0004000491C0B78FF2BF7D104B14042002381
:100C00000293147819461D462D2C01D02B2C04D1AB
:100C1000521C2D2C13D000240294AA461478FF2CC9
:100C20000FD00A25A3FB057801FB05814FF0000CCE
:100C300003FB0C11521CE3194AEB0101EEE70124FE
:100C4000EAE7814453EA010002D019F5C87F06DAC9
:100C500003980021C0E9001107B0BDE8F08F00251E
:100C6000AE4E2F46DFF8B882184600F07DF9CDE988
:100C70000001B9F1000002DAC9F1000400E0044605
:100C80000023A74A1AEB030B42EB045A12E0E007D9
:100C900007D02A46334638464146FFF789FD0746C6
:100CA00088462A46334610461946FFF781FD054619
:100CB0000E466410002CEAD1DDE90001B9F1000F05
:100CC0005A46534606DAFFF7E5FD3A464346FFF734
:100CD000E1FD05E0FFF76CFD3A464346FFF768FD8E
:100CE000029A0AB181F00041039AC2E90001B3E718
:100CF0002DE9FF4F1F468DB0D7E901464FF0FF3871
:100D00002E2045464FF000090B90B9696D1C0E98D6
:100D10008847396A824688470028F6D1BAF1FF3FF2
:100D20000AD024F4D064002E11DDBAF12B0F08D0C4
:100D3000BAF12D0F0BD102E0404611B08DE744F41B
:100D40008064B9696D1C0E9888478246761E694694
:100D5000600501D52D2000E02B208DF8000001F169
:100D6000010B0DF1200809E0B9696D1C0E98884748
:100D700082460F9844F40074761E0560002E02DD52
:100D8000BAF1300FF0D00B998A453ED144F080047F
:100D900006E00F99681CA9F1010944F40074086089
:100DA000B9696D1C761E0E98884782463028F0D0AF
:100DB0002BE00B998A4505D1200603D444F080042A
:100DC000761E18E0504605F0D3FA08B30DF1130271
:100DD000761EAAF1300044F40074934506D20BF855
:100DE000010B200607D5A9F1010003E0200602D47B
:100DF00009F101008146A00502D50F99681C086021
:100E0000B9696D1C0E9888478246002ED1DC53E0EC
:100E1000002E51DDBAF1650F02D0BAF1450F4BD16A
:100E2000A00549D5B9696D1C24F44074761E0E984E
:100E300088478246002E0CDD2B2804D0BAF12D0FF6
:100E400007D144F48074B9696D1C0E9888478246B6
:100E5000761EE00501D52D2100E02B2108F8011BAD
:100E6000CDF82C8021E00DF12901761E44F40074A8
:100E700088450CD2AAF1300010F0FF0088F800007D
:100E800002D10B99884509D908F1010806E0E0056F
:100E900001D5244801E042F20F708146B9696D1C0A
:100EA0000E98884782460F980560002E04DD504654
:100EB00005F05EFA0028D6D1F9690E988847FF2020
:100EC0008BF8000088F800000020069007904B4641
:100ED0006A4608A906A8FFF777FEA00502D46FF0BE
:100EE00001002AE714F0240F0AD0E00714D1DDE94D
:100EF00006123868031D3B600068C0E900120BE071
:100F0000DDE9060100F03CF80146E00704D138684D
:100F1000021D3A600068016028460EE70000144098
:100F20000000F03FF1D8FFFF426842B1016811F8BC
:100F3000013B23B1521EC0E900121846704701213F
:100F4000C160881E704742685AB1C368016843B9DE
:100F500083688B4205D0491E521CC0E90012002054
:100F600070474FF0FF3070470EB540F233420292A7
:100F70000022CDE900221346FFF7D7FD03B000BDE4
:100F800001F0004330B421F0004150EA010206D0E4
:100F90000A0DA2F56072C1F31301002A02DC30BC15
:100FA00000207047440F44EAC104C100E01830BC7F
:100FB00000EBC250FFF71EBB70B58C1810F8015B38
:100FC00015F0070301D110F8013B2A1106D110F8E2
:100FD000012B03E010F8016B01F8016B5B1EF9D1E6
:100FE0002B0705D40023521E0DD401F8013BFAE76C
:100FF00010F8013BCB1A921C03E013F8015B01F8D7
:10100000015B521EF9D5A142D8D3002070BD00006B
:1010100003480168490702D504210160006C70474C
:10102000002401407047FEE7704700002C482D4A1D
:101030000168D2E90003081A0344C2E900137047AB
:101040002DE9F0418AB07B4C00254FF00308206861
:1010500040F001002060206800F00100019001983C
:10106000CDE90355CDF804800120CDE9050002202B
:10107000029001A94FF0904000F0DEF8E0684FF0D8
:101080008047174E40F00100E060E06800F001008A
:1010900001900198386820F0010038604FF0FF306F
:1010A0007560B060386820F07000386001AC204690
:1010B00000F01CFA4FF4700021460695CDE9018539
:1010C000099005904FF0804000F0E2F90548356046
:1010D0000560386840F0010038600AB0BDE8F08172
:1010E00024000040188000202DE9F84FC0F3C01400
:1010F00040B2102B20EAE0760A9801EB4409A2F1F5
:10110000200126D0082B4BD1264A00284FF00000A2
:10111000C9B24FF0000B08BF4FF0FF305FFA80FA02
:1011200002EBC108BBF1080F3AD018F80B1009EB1D
:101130000B000027C4B281EA0A05082F06D005FA81
:1011400007F1F01900F0E4FA0137F6E70BF1010BB3
:10115000E8E70027C9B200284FF000004FEA011865
:1011600008BF4FF0FF305FFA80FB102F18D00E4AF7
:1011700048EA070109EB07004FF0000AC4B2515CCE
:1011800081EA0B05BAF1080F08D005FA0AF106EB5F
:101190000A0000F0BDFA0AF1010AF3E70137E4E7BB
:1011A000BDE8F88F006C0008F86E00082DE9FC47D8
:1011B000DDF828801C4691460E460746102B06D0C7
:1011C000082C18BFBDE8FC874FF0060A01E04FF07D
:1011D000080A0025E8B219F8002072B1F8B2F1B29D
:1011E0002346CDF80080FFF77FFF5744F8B27828F8
:1011F00084BF264400270135ECE7BDE8FC4700F03A
:10120000F5BB000020B103480021006802F018BEC1
:10121000704700BF040000207047FEE781B0054919
:101220000A6802430A60096808400090009801B00B
:10123000704700BF4C0000582DE9F84F054620309C
:101240000C464FF0010A4FF4FF7B4FF0030800906B
:10125000086805F1240990FAA0F0B0FA80F0C7B24E
:10126000206830FA07F16ED00AFA07F110EA010699
:1012700067D000F01EFA60680138012819D8A0680C
:10128000A96896FAA6F2B2FA82F20BEA420208FACA
:1012900002F2914396FAA6F2B2FA82F20BEA420205
:1012A00090400843A860E06869687043B143084310
:1012B00068602069E96896FAA6F2B2FA82F20BEA4F
:1012C000420208FA02F2914396FAA6F2B2FA82F2C8
:1012D0000BEA420290400843E860606802282ED181
:1012E000D4F814E0320A4FF47F7C11D0D9F8001002
:1012F00092FAA2F30F20B3FA83F392FAA2F20CEA65
:101300008303B2FA82F200FA03F399434B4610E0EA
:10131000009B0F21186896FAA6F2B2FA82F20CEA44
:10132000820201FA02F220EA020196FAA6F2B2FA69
:1013300082F20CEA82020EFA02F00843186000F012
:10134000B8F901378CE70120BDE8F88F70B5036864
:1013500091FAA1F44FF4FF750326B4FA84F491FADC
:10136000A1F105EA4404B1FA81F105EA410106FA66
:1013700004F4A34302FA01F11943016070BD0000B7
:1013800010B51C4C0328D4F880100CD101F00300D8
:10139000DFE800F002161A1F00F066FA21682268E2
:1013A000C2F3C2221DE0014041EA0040A0F5402006
:1013B0004FEAB00003280CD0022805D001280AD13A
:1013C000BDE8104000F050BA4FF0B0400A4900F0BC
:1013D000F4B900F096B900F047FA21682268C2F328
:1013E0000222064B53F822203C2303EA9101044BCE
:1013F00000F0BBB9080000580024F400E06B0008BE
:10140000A06B0008026852064FF0000234D42DE9A8
:10141000F04703684FF6BF74D1E900E8D1E9026AEA
:1014200023EA040CD1E90494D1E906534CEA0E07EF
:1014300047EA080747EA0A0747EA09073D4340F633
:1014400004772B4343EA04050B6A1D430560456896
:10145000BD4345EA144434434460B2EBD62FBDE8A3
:10146000F04703D1426842F480524260B3F5005F16
:1014700004BF898C01610122C16921F40061C1614D
:101480001046704701490860704700BF1080002077
:10149000F0B5026A144D22F0110202628269D0F89E
:1014A00020C08468CB682C4091E8E0002C43846025
:1014B0004FF6FF74A2430C693C432343C3F3074335
:1014C0001A44D1E9073423438C69234342EA1322A7
:1014D00082612CF0AA024969324342EA011141F0CB
:1014E000110101620120F0BDF8FFFEFF00214FF461
:1014F000803201230162C0E90031C0E90221C0E964
:101500000411C0E90621704770B504460068C007A1
:101510001CBF002070BD0D462068264905F1080655
:1015200008404ECE0843E969184330430843206021
:10153000606820F4405010436060A869A16821F4FD
:1015400040710843A0601C48844204D01B48844278
:101550001FD10C2000E00320FFF712FFC8B169681B
:10156000B9B12A680B2A1CD815A353F82220B0FB66
:10157000F2F0EA69B2F5004F0DD1400000EB5100E6
:10158000B0FBF1F04FF6F0710140C0F342000844A7
:1015900006E0002006E000EB5100B0FBF1F080B265
:1015A000E06001202988E26A22F00F021143E16223
:1015B00070BD00BFF369FFEF0038014000440040F8
:1015C000010000000200000004000000060000000E
:1015D000080000000A0000000C00000010000000DD
:1015E000200000004000000080000000000100001A
:1015F000FEE70000174812490068884218BF00281B
:1016000000D1704740690028FBD0004711480068AE
:10161000704700BF0A49884218BF002800D17047B0
:1016200010B50B490B4C0968206011B11830884780
:10163000206800690028BDE81040F0D0004700BFD6
:10164000287500080249086002480068FFF7E2BFF9
:101650004880002004000020FEE7486800F0ABBC92
:101660002A460823CDF800B03047012020212A4621
:10167000102300900020FFF799BD1C4615460E462A
:10168000007888F80000022003F00EBE0020302110
:101690002A46102300972047022200238DF80610C7
:1016A000002100917047984616460F46054604F003
:1016B0008BBA626828463146FFF748BE22460823A7
:1016C000CDF800B03047D8E90340D8F81450FEF701
:1016D000D1BE102300900020FFF768BD044698F8A3
:1016E000000003F0E1BD0021017002F03BBB8DF86A
:1016F0000700204604F089BC17F8011B284604F0B7
:101700004CBCD4F888004FF4004101EA803010BD91
:10171000C9B2C0B2CA09214600F09EB90090204665
:1017200004F071BABDF8041009BA090C21801CBD7F
:10173000012304F06ABC012304F09BBA054620464D
:101740000E46FEF797BE0446202000F025BE007826
:101750002870022003F0A8BD8DF807200322002383
:101760008DF805100021009170475958B0FBF1F039
:10177000D04010BD814628460F46FEF77BBE22466C
:10178000284604F00BBD012200238DF8071000212C
:10179000009170470823CDF800B0FFF707BD3078FF
:1017A00000283870357070470222ADF8061000210D
:1017B000ADF804100221009170470068400501EA6D
:1017C000E07010BD8068FFF725BFBDF8081009BAAA
:1017D000090C2180BDF80A1009BA090C6180BDF816
:1017E0000C1009BA090CA1807047307800283870B5
:1017F0003470704701238DF80700204604F039BA91
:10180000C068FFF707BF8DF8071000238DF804208C
:101810000A0A090C8DF8051000218DF80620042213
:1018200000917047002020211023FFF7BFBC0C4619
:1018300010210222ADF80E100021ADF80C1002911B
:10184000062100917047681E40B220EAE07570479B
:101850000222ADF80E1000218DF80C10ADF80A1020
:1018600003210091704770473B4951F8040CC0F3C5
:1018700081023A48DFE802F0026F0F194FF0B040E2
:1018800002680068120724D4000731D4D1F8880018
:10189000C0F303203BE04FF0B0410968C9025CBFD0
:1018A00044F60000C0F2E81070470A6802F0030234
:1018B000DFE802F002023E144FF0B0400268006818
:1018C00012071AD4000726D4D1F88800C0F30320E9
:1018D0002BE0000716D4D1F888000CE04FF0B0429E
:1018E0001268D2025CBF44F60000C0F2E8101FE0AC
:1018F0004FF0B0400068002009E0000710D4D1F894
:1019000088000BE04FF0B0400068C0F303101449AA
:1019100051F8200070474FF0B0400068002004E00C
:101920004FF0B0400068C0F303100D4A52F8200099
:1019300010B50A680B6809680124C2F3062204EB9B
:1019400051715043C3F302120132B0FBF2F0B0FB0D
:10195000F1F0BDE8104070470C0000580024F4007E
:10196000E874000810B5174C207808B900F018F892
:1019700060680128BCBF4FF0FF3010BDA068074968
:10198000085CA1680131A160A168B1F5007F04BFC6
:101990000021A16061680139616010BD5986002095
:1019A00080B5074800214FF4806200234FF0FF30DC
:1019B0004FF4E13002F0F4FA02480121017080BDD9
:1019C00000000020C002002080B530B12B484FF449
:1019D0008061FF22FEF7FBFB04E028484FF48061A2
:1019E000FEF7FCFBBDE88040AFF3008070B5234CF0
:1019F000094E0025082D08BF70BD45F0B000C0B2EB
:101A0000B0470020B0471020B0472046802100F0AA
:101A100041F880340135EDE7811A0008B0B500F0D7
:101A20003EF80A2001F026FC002404A51A2C08BF69
:101A3000B0BD285D00F024F80134F7E7AED580A8EA
:101A40003FD300408D142000A1C8DA1281CFD9F114
:101A5000DB40A4A62EAF000010B501F0070301F093
:101A6000F801012400EB01100449002A04FA03F3F1
:101A70000A5C0CBF9A431A430A5410BD50800020E0
:101A8000E0B58DF807000DF107010020012201F0FB
:101A9000A9FF8CBD0A460146402001F0A3BF01F01A
:101AA0005FBF0000B0B58CB001AC28212046FEF726
:101AB00095FB1848184D016841F0010101600821AB
:101AC000006800F001000B900B98286820F040009F
:101AD0002860002007910721CDE909014FF4E0615A
:101AE00008900590049003914FF4007106914FF413
:101AF0008271CDE9010128462146FFF783FC686821
:101B000020F010006860286840F0400028600CB0A9
:101B1000B0BD00BF640000580000015803F01ABABD
:101B200070470000CE480A494FF47F728068B0FBCE
:101B3000F1F0B0F57F7F28BF1046810800EB500020
:101B4000B0F57F7F38BF02469208002003F043BF04
:101B500040420F00E0B50DF10601002003F08CFFBC
:101B6000002044F2FF3103F061FFBDF80600C10719
:101B700002D0094901220A70810702D507490122D2
:101B80000A70410602D5064901220A70800602D574
:101B90000448012101708CBDDE0200205185002027
:101BA000D60200205085002003F0DCBE03F0E2BE28
:101BB00003F0E6BE10B5072858D8DFE800F0043679
:101BC0001A220E414D2C2B4800240470FFF7ECFF25
:101BD0000020002104F099F949E026480421017011
:101BE000FFF7E4FF00206FF07F41002404F085F947
:101BF0003DE0204802210170FFF7D6FF00200121BF
:101C00001AE01C4803210170FFF7CEFF00200024DA
:101C100004F09AF82BE0FFF7CBFF164807210024C9
:101C20000170002004F09DF921E0124801210170AB
:101C3000FFF7BAFF00200021002404F071F916E03C
:101C4000FFF7B6FF0B4805210024017000206FF05C
:101C50007F4104F09AF90AE0FFF7AAFF0548062140
:101C600000240170002004F073F900E004242046F1
:101C700010BD00BFDD020020BFB5002004F00DF84C
:101C800080B9002004F0B0F960B90A2001F0F2FA3E
:101C90000020002104F044F920B90020012104F0C3
:101CA000FDF808B104B0B0BD6D4CA07F90B1E17FEC
:101CB00000204FF47A7204F00CF80028F2D10020D2
:101CC0007F2103F07DFE0028ECD1002003F0A0FE70
:101CD0000028E7D10020012104F0D5F80028E1D147
:101CE000A168002004F0E5F80028DBD100200021E5
:101CF000002203F0E3FF0028D4D1617B227D637DC5
:101D0000208A00F053F80028CCD1207F657F218BFA
:101D1000A37EE27ECDE90005002000F081F80028D6
:101D2000C0D100206FF07F4104F0E7F80028B9D15E
:101D3000FFF7F8FEA07F58B31B48039003A90020CB
:101D400004F091F80028ADD10020382104F081F88A
:101D50000028A7D194F90C100020002204F00AF901
:101D600000289FD100200121002403F03FFE00281D
:101D700098D10020632123220023009403F0C1FFA7
:101D800000287FF48FAF0420FFF714FF002089E7BD
:101D900094F8201094F82120002004F0CCF80028BA
:101DA0007FF480AFC8E700BF040700011CB5092815
:101DB00001D200241FE00C2801D208241BE01128C6
:101DC00001D2012417E0162801D2092413E02128AA
:101DD00001D202240FE02B2801D20A240BE0402874
:101DE00001D2032407E07E2801D2042403E0062464
:101DF000FB2838BF05248DF806208DF805408DF8A6
:101E000007308DF8041001A9002003F0A6FF00B1EF
:101E10001CBD00200121224604F0C2F81CBD0000B8
:101E2000E0B50598ADF802108DF805208DF8043066
:101E30000DF10201002818BF01208DF80700049859
:101E4000002818BF01208DF80600002003F0A6FF2F
:101E500000B18CBD0248817D002003F0D3FF8CBD12
:101E6000EC03002004F0E4B84FF0B04121480A68C8
:101E700012F0080208BF00F18C0109684FF004025B
:101E800008BF0822D1401C4A01F00F0152F821106E
:101E90000268C2F38102B0B5DFE802F02002040656
:101EA00016491BE0164919E0426802F00303426834
:101EB000C2F302120132022B03D0032B08BF1049D8
:101EC00000E00E494368B1FBF2F144680125C3F319
:101ED000062205EB54745143B1FBF4F1094A3C234B
:101EE0001160006803EA9000074B1858B1FBF0F04E
:101EF0001060B0BD08000058E87400080024F40029
:101F00000048E80110800020A06B0008704770476F
:101F100004F08DB800F016B8FEE70000642001F070
:101F2000A9F90648BFF34F8F054A016801F4E06143
:101F300011430160BFF34F8FFEE700BF0CED00E0DF
:101F40000400FA050E480168890618D581680D4815
:101F50000D4BC2689954C1680131C16041680131BB
:101F60004160C168B1F5007F04BF0021C1604168D4
:101F7000B1F5007F03DB0021C160416081607047E3
:101F80001C440040C002002059860020022988BF5E
:101F9000704702A050F8210004F08EBD1C7C0008A0
:101FA000407C0008687C0008002104F097BD0021F7
:101FB0000022FEF763B900210022FEF797B950B165
:101FC00049B110B50446002004F1080C21602071CD
:101FD000ACE80D0010BD0120704700002DE9F84F5E
:101FE0008046002600270446CCB12068B8B1FEF731
:101FF0000AF90546606810B1FEF705F900E0002017
:10200000AF42C8BF3D46A168002918BF2F4686428F
:10201000C8BF3046002918BF06461034E4E720A0A8
:1020200004F04AFD264804F047FD75427E422D4FDC
:10203000DFF894B028A40FF28C090FF2900AB8F1DF
:10204000000F27D0D8F8002022B3D8F80800B8B184
:102050004846314604F092F8D8F804005A4620B1B8
:102060000178002908BF584602465046294604F028
:1020700085F8D8F80C1039B1087828B115A001E01E
:102080002046114604F07AF8384604F015FD08F1B0
:102090001008D4E7134804F00FFD0120BDE8F88FC5
:1020A0003C636F6D6D616E643E203C617267733E90
:1020B000203C68656C7020746578743E0D000000EB
:1020C0008B7B0008252A73006E80000820252A7368
:1020D0000000000020257300202D2D2D20257320C9
:1020E0002D2D2D00E77B00082DE9F04F9BB0002837
:1020F00000F03D81002900F03A810446D0E902B0A9
:1021000015465A44824280F0348120682A46584459
:10211000FEF73DF8A0684FF0000A0023002628448F
:10212000A0600AA904310691834580F024812168CA
:1021300011F80B90B9F10A0F05D0B9F10D0F02D0CB
:102140000BF1010BF0E701F80BA05B4500F0FE80FE
:1021500020682169C518CDE90831284629460A7842
:10216000082A03D03AB100F8012B02E0A84288BF48
:1021700001380131F3E7854980F800A028461AAA02
:1021800003F06DFB002800F0E080DDF824A0074696
:102190000796BAF1000F12D0DAF80060002EB046B0
:1021A00018BF4FF0010812D0DAF8080020B1384605
:1021B0003146FEF74EF8D0B10AF1100AE9E7099866
:1021C00080B3079E4FF000084FF0000A06E00120A0
:1021D0000999079E4FF0000A29B120B128466CA149
:1021E000FEF737F8C8B1B8F1000F1ED0ADE067496F
:1021F0000A9600201AAA002603F031FB0127E0B15D
:102200000AA90F2F41F8270036D0604900201AAAEA
:1022100003F025FB01360137F1E70998FFF7DEFEF1
:1022200018B192E0079E4FF0000A002F00F08D8059
:1022300038460021FFF7AAFE87E0DAF804000028FC
:1022400070D001783F2902D1417800296AD00390EB
:10225000FDF7D9FF029003982A21FDF7CAFF68B164
:10226000DDE9022E0EEB02010139884266D1012A16
:1022700064D0901E009005E0012160E0029ADDF834
:102280000CE000920EEB020000234FF02E0C0190A8
:10229000002E44D0934205DA1EF803002A2818BF06
:1022A000844604E0019810F8010C2A2846D1ACF1CC
:1022B0007300022104280CD8CDE904C3DFE800F044
:1022C000033F20101D0006980421012250F823002E
:1022D0001BE0BCF1620F1FD0BCF1660F1CD02EE0DA
:1022E0000698002250F8230003F00CFF0221DDE9DC
:1022F00004C3DDE9022E78B921E00698042101E04B
:102300000698012150F82300002203F0FBFEDDE9CE
:1023100004C3DDE9022E88B1013E0133B8E700981D
:1023200087420BDDDAF8082038460AA99047DAF828
:1023300000000027B0FA80F0400949E70221284652
:10234000FFF724FE079E4FF0000A089BB9F10A0F21
:1023500008BF5B4507D00136A0680BF1010B84F87C
:1023600004905B46E0E620790D28F5D0F3E7FF26E0
:1023700008E0FE2606E02BB1C21A2068A260C11850
:10238000FDF705FF70B21BB0BDE8F08FE97B0008D8
:1023900068656C7000000000E0B50146012002A2F3
:1023A000FFF797F98CBD00BF20202020202020209F
:1023B00020202020202020200000000080B507A041
:1023C00003F0DCFE02F0F8FC18B1BDE8804002F03A
:1023D00015BB0548BDE8804004F06EBB434C525F1E
:1023E00053544154533A2000327C0008F8B54868F1
:1023F0000D46FFF7E0FD0446A868FFF7DCFD054643
:102400000AA004F059FB0C4F6E46AC420DD8204692
:10241000314602F073FE30B9009A3846214603F087
:10242000ADFE0134F1E702F0E9FAF8BD44554D5034
:102430005F524547533A0D00EE7B00081CB501A8DA
:1024400002F002FD044608A003F098FE1CB12046ED
:1024500002F0D4FA1CBD0198FEF70CF8024605A064
:102460000B4603F08BFE1CBD4745545F5253534946
:102470003A200000252E31662064426D0D0A0000CE
:10248000E0B50EA003F07AFE0DF107000DF1060194
:102490000DF1050201AB02F095FC10B102F0AEFAAD
:1024A0008CBD9DF804009DF805309DF806209DF830
:1024B0000710009004A003F061FE8CBD4745545FF7
:1024C000434849503A20000025642C25642C25649B
:1024D0002C25640D0A0D0A000248416802A003F091
:1024E0004DBE00BFEC0300204745545F44455649AC
:1024F000443A2025640D0A0004484FF47A7180683C
:10250000B0FBF1F102A003F039BE00BFEC030020E4
:102510004745545F465245513A2025750D0A000043
:102520001CB5054800F16004006F1ECCCDE90040E9
:1025300002A003F023FE1CBDEC0300204745545FBE
:102540004A414D504152414D533A20535441525407
:102550003D25642C53544F503D25642C5354455015
:102560003D25642C54494D453D25642C4D4F443D3B
:1025700025640D0A0000000010B50F4C0FA0627B0F
:10258000216903F0FBFD154803F0F8FD207D0428C8
:102590009ABF144951F82000114804F08DFA1248EE
:1025A00003F0ECFD617D4448424A012908BF104612
:1025B000BDE8104004F080BAEC0300204745545FAA
:1025C0004D4F44504152414D533A200D0A42573D20
:1025D00025750D0A53463D25640D0A00907C0008C0
:1025E000137C00088C6B0008947C0008024890F86B
:1025F000881002A003F0C2BDEC0300204745545FE1
:10260000504B54464F524D41543A2025640D0A0018
:102610002DE9F041124DDFF8BC8812A02A8BA97D6C
:10262000EB7EC047A97E214E1F481E4A012908BFE4
:102630001046B0471E48C047287F1F4C1D4F012839
:10264000204608BF3846B0471C48C047687F31461F
:10265000012808BF3C462046BDE8F041084700BFBE
:10266000EC0300204745545F5041434B45545041D3
:1026700052414D533A0D0A53594E433D307825305F
:1026800032582C5052455F4C454E3D25640D0A5042
:1026900041595F4C454E3D25640D0A48454144452E
:1026A000523A0000547C00085E7C0008B96A0008B9
:1026B000817C0008367C00082D7C0008867C0008A0
:1026C0000248D0F88C1002A003F058BDEC030020A3
:1026D0004745545F5041495249443A2025640D0A08
:1026E00000000000024890F90C1002A003F046BD63
:1026F000EC0300204745545F504F5745523A202580
:10270000642064426D0D0A00BFB5084DD5F8840001
:10271000FDF7B0FED5E91D42D5E91F35CDE902012F
:1027200003A02146009503F029FDBFBDEC03002066
:102730004745545F5343414E504152414D533A2017
:1027400053544152543D25642C53544F503D2564FD
:102750002C535445503D25642C54494D453D25642A
:102760002C525353493D252E31660D0A00000000BE
:10277000E0B50AA003F002FD684602F075FB10B157
:1027800002F03CF98CBDBDF80430BDF80220BDF864
:10279000001005A003F0F2FC8CBD00BF4745545F5C
:1027A00053544154533A2000504B543D25642C4619
:1027B0004552523D25642C484552523D25640D0A30
:1027C00000000000E0B50AA003F0D8FC0DF10700FE
:1027D0000DF1060102F0F8FA10B102F00FF98CBD0C
:1027E0009DF806209DF8071005A003F0C7FC8CBDDE
:1027F0004745545F5354415455533A20000000005C
:102800003078253032582C3078253032580D0A0077
:1028100001A004F051B900BF4745545F56424154EE
:102820003A20544F444F0D0002A001210022012301
:1028300003F0A4BC4745545F56455253494F4E3AA6
:102840002048573D25642C46573D25642E25640DB0
:102850000A00000080B509A003F090FC0B48007846
:1028600004289ABF0CA151F8200009A003F086FCAF
:102870000EA0BDE8804004F01FB900BF4745545F7B
:10288000574F524B4D4F44453A20000025800020C1
:10289000554E4B4E4F574E000B7D0008957D00085E
:1028A000A47D00089D7D0008977E00080D000000B3
:1028B0001CB50DF1070002F0E9FA044606A003F08A
:1028C0005DFC1CB1204602F099F81CBD9DF8071074
:1028D000054803F053FC1CBD4745545F584F545204
:1028E000494D3A2000000000FA7B000801A004F0E6
:1028F000E3B800BF4745545F5549443A20544F441C
:102900004F0D000037480349034B4FF48072FFF727
:1029100056BB00BF5084002008000020B0B50DA0B9
:102920000C4603F02BFC6068FFF745FB0546A068EA
:10293000FFF741FBAAB2C1B2104602F0C7FA18B1C4
:10294000BDE8B04002F05AB83348BDE8B04004F0EA
:10295000B3B800BF494E49545F434F4E4649473ACA
:1029600020000000BCB5FEF778FE044613A003F07B
:1029700005FCE64D05F160030FCB64B195F870409E
:10298000009402F009FD58B901F0ECF95148032117
:10299000017051480EE00024009402F0FDFC18B1D3
:1029A000BDE8BC4002F02AB801F0D6F9494801213F
:1029B00001704A48BDE8BC4004F07EB84A414D3A37
:1029C00020000000E0B5FEF7CDFF8DF80700C0B293
:1029D00038B1FF2805D003480DF107010122FFF7A8
:1029E00083FB8CBD8405002080B507A003F0C6FBE7
:1029F00002F05EFA18B1BDE8804001F0FFBF064862
:102A0000BDE8804004F058B8524144494F5F494EF8
:102A100049543A2000000000327C00081CB5FEF743
:102A20001CFE044608A003F0A9FB01A9204602F001
:102A300065FB10B101F0E2FF1CBD019A054821467B
:102A400003F09CFB1CBD00BF524541445F5245470B
:102A50003A200000EE7B000880B503A004F02CF8BB
:102A6000BDE88040FFF75ABA52455345543A204FCB
:102A70004B0D0000BCB5FEF7F0FD044613A003F0BB
:102A80007DFBC44D05F174030FCB64B1D5F88440D0
:102A9000009402F05FFB58B901F064F90D4802217F
:102AA00001700D480EE00024009402F053FB18B1B1
:102AB000BDE8BC4001F0A2BF01F04EF9054801217C
:102AC00001700648BDE8BC4003F0F6BF5343414ED9
:102AD0003A200000258000207A7C00083A7C00081B
:102AE00070B548680C46FFF766FA0F4D28602868F5
:102AF00008B901202860A068FFF75DFA0B4E30602E
:102B0000E068FFF758FA0A49C1F88C00306863287A
:102B10009CBF6420306002F011FC3268296805A077
:102B2000BDE8704003F02ABBA08A0020B802002054
:102B3000EC03002053544152545F54583A2025640A
:102B40002C25640D0A00000010B5FEF786FD054C2B
:102B5000606003F001FB616803A0BDE8104003F072
:102B60000DBB00BFEC0300205345545F444556495C
:102B7000443A2025640D0A00B0B548680C46FFF7BA
:102B80001AFA02F04FFB05460BA003F0F7FA25B145
:102B90002846BDE8B04001F031BF6068FFF70BFA8E
:102BA0004FF47A71074A48439060B0FBF1F106A0F8
:102BB000BDE8B04003F0E2BA5345545F4652455178
:102BC0003A200000EC03002025750D0A00000000EB
:102BD0002DE9FE434868DFF848900E46C847804616
:102BE000B068C8470746F068C84705463069C84717
:102BF00004467069C8470B4905EB08022B4697420B
:102C000088BF3A46CDE900400867C1E91882C1E9AA
:102C10001A5405A0414603F0B1FABDE8FE8300BF97
:102C2000B71F0008EC0300205345545F4A414D5044
:102C30004152414D533A2053544152543D25642C46
:102C400053544F503D25642C535445503D25642C1E
:102C500054494D453D25642C4D4F443D25640D0A96
:102C6000000000002DE9F8434868234F0C46B847A0
:102C70000646A068B8478046E068B8470546206920
:102C8000B84704461DA003F079FAB6B25FFA88F798
:102C9000EAB2E3B23046394602F0F2FA18B1BDE8C2
:102CA000F84301F0ABBEDFF8649019A031463A4614
:102CB00089F8154089F8145089F80D80C9F810601A
:102CC00003F05CFA174803F059FA99F81400042845
:102CD0009ABF164951F82000134803F0EDFE14483E
:102CE00003F04CFA99F8150001280CBF7D487E4886
:102CF000BDE8F84303F0E0BEB71F00085345545F3A
:102D00004D4F44504152414D533A2000EC030020B6
:102D10000D0A42573D25750D0A53463D25640D0A9F
:102D200000000000907C0008137C00088C6B0008F9
:102D3000947C000810B5FEF790FC044608A003F050
:102D40001DFA0A48007802F0AFFA18B1BDE8104049
:102D500001F054BEE1B206A0BDE8104003F00EBA87
:102D60005345545F4F504D4F44452000DD02002035
:102D700025640D0A0D0A000080B5FEF76EFC80F395
:102D80000201044880F8881003A0BDE8804003F0E9
:102D9000F5B900BFEC0300205345545F504B544637
:102DA0004F524D41543A2025640D0A002DE9F04F51
:102DB00085B04868344E0D46B0470746A868B0470E
:102DC0000446E868B04781462869B0478346686989
:102DD000B0478246A869B0478046C0B25FFA8AF120
:102DE000FDB2A6B25FFA8BF3CDE9001004975FFA4B
:102DF00089F72846314603944C463A4602F05EFA7B
:102E0000814622A003F0BAF9B9F1000F05D0484677
:102E100005B0BDE8F04F01F0F1BDDFF884900398F4
:102E2000294632463B46A9F81800049889F81B4009
:102E3000284C89F81D8089F81CA089F81AB089F8F7
:102E4000160018A0A04799F81A102448224A012910
:102E500008BF104603F030FE2148A04799F81C1027
:102E6000D748204A012908BF104603F025FE1F4815
:102E7000A04799F81D0001280CBF1A48D04805B09A
:102E8000BDE8F04F03F018BEB71F00085345545F6C
:102E90005041434B4554504152414D533A2000005C
:102EA000EC0300200D0A53594E433D307825303451
:102EB000582C5052455F4C454E3D25640D0A5041FB
:102EC000595F4C454E3D25640D0A484541444552E5
:102ED0003A0000007D610008547C00085E7C000818
:102EE000817C0008367C00082D7C0008867C000868
:102EF00010B5FEF7B2FB064CC4F88C0003F02CF9B9
:102F0000D4F88C1003A0BDE8104003F037B900BF1F
:102F1000EC0300205345545F5041495249443A2044
:102F200025640D0A0000000070B54868FFF73FF8FF
:102F300044B20546204602F08BF9064608A003F08D
:102F40001DF926B13046BDE8704001F057BD074875
:102F50002146057306A0BDE8704003F00FB900BF1D
:102F60005345545F504F5745523A2000EC03002020
:102F700025642064426D0D0A000000002DE9FF4722
:102F80004868214C0F46A0478046B868A047824653
:102F9000F868A04781463869A04706460A281B48BA
:102FA000D8BF0A268642A8BF06467869FEF7FCFF0E
:102FB0001849174D09EB08070446BA4588BF57461C
:102FC000C5E91D87C5E91F96FDF73DFA124900289E
:102FD0001CBF0024CBF680742046FDF726FA00289B
:102FE0001CBF0024CCF2FF242046C5F88440FDF726
:102FF00041FACDE9020109A041463A464B46009606
:1030000003F0BCF8BDE8FF87B71F0008A0860100E9
:10301000EC030020000080BF0000FFC25345545F56
:103020005343414E504152414D533A205354415223
:10303000543D25642C53544F503D25642C53544526
:10304000503D25642C54494D453D25642C52535325
:10305000493D252E31660D0A00000000B0B5FEF78F
:10306000FCFAC4B2204602F041F9054607A003F07D
:1030700085F825B12846BDE8B04001F0BFBC07483F
:103080002146BDE8B04003F079B800BF5345545F16
:10309000584F5452494D3A2000000000FA7B000876
:1030A00006480178012911BF05A0094900220A70CC
:1030B00004BF027007A003F0FFBC00BF2080002007
:1030C00053544F505F54583A204552524F520D00BE
:1030D0002180002053544F505F54583A204F4B0DDD
:1030E0000000000080B508A003F048F803F034F8B1
:1030F00020B140B2BDE8804001F080BC0648BDE888
:10310000804003F0D9BC00BF53544F52455F434F3A
:103110004E4649473A200000327C000810B51AA0FC
:103120000C4603F02BF86068FEF745FFC0B202F0D2
:103130000DF918B1BDE8104001F060BC15480078E9
:103140000138032817D8DFE800F00211070C1248F5
:103150000421017017A012E00F48042101700FA094
:103160000DE00D480421017013A008E00A48042175
:1031700001700DA003E00848012101701048BDE86E
:10318000104003F099BC00BF54585F53545245415E
:103190004D3A20002680002025800020303130313B
:1031A0002E2E2E0D00000000505245414D424C4540
:1031B0000D00000043570D00504E390D0000000077
:1031C0002D7C0008B0B548680D46FEF7F4FE0446B5
:1031D000A868FEF7F0FE054609A002F0CFFF2046E2
:1031E000294602F01BF918B1BDE8B04001F006BC59
:1031F000064821462A46BDE8B04002F0BFBF00BFE6
:1032000057524954455F5245473A2000EE7B00082B
:103210000020FEF7D9BB0000B0B50B480B4902688F
:1032200043688468C56881E83C00094A0023127835
:10323000103ADCB2A242D8BFB0BD0D19044401332C
:10324000247C2C74F5E700BF598500208004002001
:1032500059880020054847F6FF41F02241600449A3
:103260000A700021816007210160704710E000E0D2
:1032700023ED00E04FF47A71484300F001B80000FC
:10328000B0B50949400100230A684C684D68A54261
:10329000FCD023445B1BA54228BF13442C46834229
:1032A00028BFB0BDF2E700BF14E000E0BCB5FEF7F8
:1032B0004AFA034D03A1FEF762FAFEF7D6F9BCBD48
:1032C0005A880020535445503A25646B487A0000D0
:1032D000BCB5FEF738FA034D03A1FEF750FAFEF72E
:1032E000C4F9BCBD5A88002054494D453A25646D47
:1032F000730000001CB5FEF726FA01200AA10EA2F9
:10330000022C009004A008BF0146012C18BF0A46F9
:10331000FEF788FA1CBD00BF4D4F443A205052457D
:10332000414D424C450000004D4F443A20494E5615
:10333000414C4944000000004D4F443A204357009F
:1033400010B5FFF765FF0B48F84C0021A0470A486D
:103350000121A04709480121A04709480121A047B0
:1033600008480121A047084801212246BDE8104035
:10337000104700BF48760008A07600087476000861
:10338000CC760008F4750008C875000810B5FFF782
:103390003FFF0B48FA4C0021A0470A480121A047F3
:1033A00009480121A04709480121A04708480121F7
:1033B000A047084801212246BDE81040104700BF41
:1033C000107B0008E87A0008907900089C750008D6
:1033D0003C7B00084075000810B5FFF719FF0B484B
:1033E000E74C0021A0470A480121A04709480121D4
:1033F000A04709480121A04708480121A0470848E3
:1034000001212246BDE81040104700BF4877000860
:103410006C77000890770008B8770008687B000890
:10342000F0760008BCB5FEF78EF9034D03A1FEF758
:10343000A6F9FEF71AF9BCBD5A8800204F574E2056
:1034400049443A2564000000BCB5FEF77CF9034D01
:1034500003A1FEF794F9FEF708F9BCBD5A880020D5
:10346000504149522049443A25640000BCB5FEF75A
:103470006AF9034D03A1FEF782F9FEF7F6F8BCBD29
:103480005A88002042573A25646B487A00000000B1
:10349000BCB5FEF758F9034D03A1FEF770F9FEF72E
:1034A000E4F8BCBD5A880020434F554E543A256479
:1034B000000000001CB5FEF746F9042C9ABF07A0D7
:1034C00050F8242002A201202021FEF702F91CBDA1
:1034D00043523A20494E56414C4944003880000836
:1034E000048000080C800008148000081C8000087C
:1034F0001CB5FEF728F9032C9ABF06A050F824202B
:1035000002A201202021FEF7E4F81CBD494E5641DD
:103510004C494400248000082F80000847800008A0
:1035200040800008BCB5FEF70EF9034D03A1FEF77D
:1035300026F9FEF79AF8BCBD5A880020465245513C
:103540003A25646B487A0000BCB5FEF7FCF8034DE1
:1035500003A1FEF714F9FEF788F8BCBD5A880020D5
:10356000494E54455256414C3A2564001CB5FEF76D
:10357000EAF8012007A2009003A0002C08BF024631
:10358000FEF750F91CBD00BF4C44524F50543A2036
:103590004F4646004C44524F50543A204F4E000084
:1035A00010B5FFF735FE0E48754C0021A0470D48B9
:1035B0000121A0470C480121A0470C480121A04748
:1035C0000B480121A0470B480121A0470A480121CF
:1035D000A0470A4801212246BDE81040104700BF1D
:1035E0007C780008E4770008EC780008047800088C
:1035F000A0780008507800080C79000824780008AA
:10360000BCB5FEF7A0F8034D03A1FEF7B8F8FEF72E
:103610002CF8BCBD5A88002053463A2564000000AF
:103620001CB5064C024606A1204602F0B7FD01205B
:1036300020212246FEF74DF81CBD00BF5A8800200D
:1036400053594E433A2564001CB5FEF77CF82046DA
:10365000FCF710FF064C02460B4606A1204602F07E
:103660009DFD012020212246FEF733F81CBD00BF3E
:103670005A880020525353493A252E316664426DD0
:10368000000000002DE9F04192B0134D134C884624
:103690000646012700202021102300972A46A04734
:1036A000FDF7F4FF02AD0E493246284602F076FDE2
:1036B000002020212A4610230097A0474046FCF70F
:1036C000D9FE02460B4607A1284602F067FDFDF72A
:1036D000DDFF12B0BDE8F08151800008AD11000897
:1036E00062800008525353493A20252E31662064E7
:1036F000426D000010B5FFF78BFD0B48204C0021F8
:10370000A0470B480121A0470A480121A0470A48C9
:103710000121A04709480121A0470948012122466B
:10372000BDE81040104700BF407A0008413E000845
:10373000987A00086C7A0008C47A0008E8790008D2
:10374000BC79000810B5FFF763FD0C480C4C002154
:10375000A0470C480121A0470B480121A0470B4876
:103760000121A0470A480121A0470A480121A0479A
:10377000094801212246BDE810401047C0780008E2
:10378000413E0008147A00081C7600081C770008E7
:10379000647900083879000870750008BCB5FDF739
:1037A000D2FF034D03A1FDF7EAFFFDF75EFFBCBDAD
:1037B0005A88002053544152543A25646B487A0089
:1037C000BCB5FDF7C0FF034D03A1FDF7D8FFFDF722
:1037D0004CFFBCBD5A88002053544F503A25646BAF
:1037E000487A0000BCB5FDF7AEFF034D03A1FDF71D
:1037F000C6FFFDF73AFFBCBD5A880020504F574521
:10380000523A25640000000080B5FDF70FFC08491E
:103810000A8810440022088003B20020032B03DC36
:1038200013F1040F03DC0122E24B1A70088080BD03
:10383000D4020020B0B53E4D0446E868B0F1FF3F29
:1038400003DC3C4828603C48286000F077F8A86812
:1038500040F00100A860286940F0807028610220D3
:10386000E8600B48E96800EA14200843E860E8686B
:1038700040F48030E86000F061F8E86820F0020071
:10388000E860E86840F00040E8600020B0BD00BF9C
:10389000F8FF07002DE9F84F254F804614468A4669
:1038A000F868B0F1FF3F03DC2248386022483860F6
:1038B00000F044F8B8684FF0000940F00100B8602B
:1038C000386940F0807038615CB3BB460027002641
:1038D0000025402F0FD014B11AF8010B00E0FF2093
:1038E00000213A46FCF744FC013C38BF4C460D43EE
:1038F00006430837EDE7DBF80C005F4640F00100B7
:10390000CBF80C00C8F80060C8F8045000F016F8B6
:10391000DBF80C0008F1080820F00100CBF80C00DF
:10392000D2E7F86840F00040F8600020BDE8F88F6A
:103930000840005823016745AB89EFCD0248016874
:10394000C903FCD4704700BF104000580349C2B2FD
:10395000CA600A685206FCD5704700BF1C4400408C
:10396000B0B588B001AC18212046FCF737FC194DE2
:103970002146E86B20F44050E863286840F00200DC
:103980002860286800F002000790042006900120BB
:10399000CDE904000020039002200290C020019095
:1039A00007980D48FDF748FCE8680D4940F4001001
:1039B000E860E86800F40010079007980748016184
:1039C000416841F000714160016841F0010101600E
:1039D00008B0B0BD4C00005800040048005400403E
:1039E000380F300070B5124B5C692404FCD4114CC4
:1039F0001D68114E04EB024435402C430F4D2C43FF
:103A00001C605C69A407FCD558620020904206D077
:103A10005C69A407FCD50C5C01305C62F6E7586970
:103A20008006FCD5986940F02000986170BD00BF09
:103A300004540040780001000080007C00200082D7
:103A400080B500F07FFAFDF7ABFFBDE88040FDF7E1
:103A5000F7BA0000E0B5304800220123816C41F440
:103A600000218164816C01F40021019101992B49AD
:103A700009682B490A702B494FF400420A602A4911
:103A80000A6863F302020A600A6802F00702012A68
:103A9000FAD1D0F8F813012262F34A21C0F8F813E2
:103AA0004FF0B0410A6842F400120A600A6842F41A
:103AB00080320A600A689203FCD5D0F88C1041F07D
:103AC0000101C0F88C10D0F88C108907FBD5016873
:103AD000022262F301010160016801F00C01082972
:103AE000FAD1016821F0F0010160D0F8001121F055
:103AF0000F01C0F80011016821F4E0610160016864
:103B000021F4605101600948FDF7BCFCFFF7A2FBFE
:103B1000BDE88C40FEF7A8B9080000580CED00E0A5
:103B20002FE400E004E100E0004000580048E80114
:103B300080B501F0B7FE0A20BDE88040FFF79ABBD0
:103B400080B5FDF763FDFDF73DFEBDE88040FFF762
:103B5000F9BD00002DE9F843DFF8988BD8F87060C4
:103B6000FFF756FBB54F7B4DFF245FFA86F94846B9
:103B7000FFF7C0FB01F0B2FD387828703C7048B107
:103B800002280DD00128F5D1701CC6B2022E28BF24
:103B90000226EAE7701EC6B2012E98BF0126E4E7AE
:103BA000C8F87090FDF732FDFDF70CFEBDE8F84354
:103BB000FFF7C6BB0C8000201CB50D4C04F1600360
:103BC00094F870400FCB009401F0E6FB58B900F078
:103BD000C9F8084803210170FFF71AFB012006A26B
:103BE0000021FDF776FDD348002101701CBD00BF08
:103BF000EC030020258000204A414D4D4552204DC8
:103C00004F44452020202020000000002DE9F041F5
:103C1000DFF8D88ED8F86040FFF7FAFAC64E4D4F5D
:103C2000FF252046FFF7BAFD01F058FDFDF7B7FD6F
:103C300007D0022809D00128F6D1D8F8680004443A
:103C4000EFE7D8F86800241AEBE7C8F86040FDF702
:103C5000DDFCFDF7B7FDBDE8F041FFF771BB00BF2C
:103C60002DE9F041DFF8848ED8F86840FFF7D0FAEC
:103C7000B14E384FFF252046FFF718FB01F02EFD0F
:103C8000FDF78DFD05D0022807D00128F6D11920B7
:103C900001E06FF018000444EDE7C8F86840FDF754
:103CA000B5FCFDF78FFDBDE8F041FFF749BB00BF54
:103CB0002DE9F041DFF8348ED8F86440FFF7A8FA18
:103CC0009D4E244FFF252046FFF77AFD01F006FDAB
:103CD000FDF765FD07D0022809D00128F6D1D8F8F4
:103CE00068000444EFE7D8F86800241AEBE7C8F846
:103CF0006440FDF78BFCFDF765FDBDE8F041FFF783
:103D00001FBB00BF2DE9F041DFF8E08DD8F86C4013
:103D1000FFF77EFA884E0F4FFF252046FFF7D8FAAF
:103D200001F0DCFCFDF73BFD05D0022808D001289E
:103D3000F6D10134F1E7013C012C98BF0124ECE7F6
:103D4000C8F86C40FDF762FCFDF73CFDBDE8F041B2
:103D5000FFF7F6BA14800020014810210160704777
:103D600028040048014810210160704718040048E9
:103D700082B0FFF76FFEFFF763FE6420FFF77AFA69
:103D80001CA002F099FE21A00121002201230124A0
:103D900002F0F4F9FFF7CCFEFFF7E4FF01F052FB6D
:103DA00001F086F86420FFF765FAFFF7D5FFFEF70C
:103DB000A9FDFDF733FE0020FDF706FE18A2002046
:103DC000102110230094FDF7F1F918A20020202102
:103DD00010230094FDF7EAF9F24CFF2501F0BCF83E
:103DE000FEF7F0FD20780228F8D1257000F06AF87F
:103DF000F4E700BF0D0A4D657368746173746963FD
:103E000020736E69666665720D00000048573D2597
:103E1000642C46573D25642E25640D0A00000000E1
:103E20004537372054455354200000004558542E40
:103E3000524144494F3A4E4F4E4500000C800020FD
:103E4000E0B5027E00916FF00701082301EBC2018B
:103E500000F119020020C9B2FDF7A8F98CBD0000DD
:103E600080B50648FDF7EEFBFFF790FA0448FDF732
:103E7000D1FB30480121017080BD00BF0512000850
:103E8000107B00081CB5FFF767FF08480124047089
:103E9000FFF7BEF906A200200021102300940024A1
:103EA000FDF784F9234804701CBD00BF2580002065
:103EB0005041434B4554204D4F4445202020202065
:103EC000000000002DE9F041FFF7CAFF194CE24D58
:103ED000DFF868801A4FFF262078012818BFBDE858
:103EE000F0812878FF2822D028782E7002281CD054
:103EF00001280CD0D8B9D8F800004168B94216D0D2
:103F00000121FFF79DFFFDF781FB40680AE0D8F82B
:103F100000000168B9420AD00121FFF791FFFDF7C7
:103F200075FB0068FDF776FB01E0FDF763FBFEF72C
:103F300049FDD1E7DC0200200C80002004000020B5
:103F4000287500082DE9F04186B0134C01204FF090
:103F50000108A0470220A0470420A0478020A047D6
:103F60000E4C6D46002710262946CDE90377CDE992
:103F7000018700962046FDF75FF94FF48070A66236
:103F80002946CDE90388CDE9017700902046FDF769
:103F900053F906B0BDE8F0811D1200080004004886
:103FA000F0B58FB006AC054620212046FCF716F987
:103FB0006E4618213046FCF711F935480027016B91
:103FC00021F00C010163016841F4003101603146C8
:103FD000006800F400300E9007200497CDE90277C6
:103FE000059002200190042000900E984FF0904020
:103FF000FDF722F9012031460490082000904FF08F
:104000009040FDF719F9CDE90675224D0C202146A7
:10401000CDE90C77CDE90877CDE90A702846FDF7A0
:1040200073FA1D4850E8001F21F0604140E800127B
:10403000002AF7D150E8001F21F0606140E800122B
:10404000002AF7D1286820F000502860686820F422
:1040500090406860A86820F02A00A860286840F0B6
:1040600001002860E8698002FCD5E8694002F9D5C2
:1040700055E8000F40F0200045E800010029F7D185
:1040800006482021C0F8801101600FB0F0BD00BFCC
:1040900058000058004400400844004004E100E09B
:1040A00080B5FDF7B3FAFDF78DFBBDE88040FFF763
:1040B00049BB00002DE9F041DFF8848ED8F80440B8
:1040C000FFF7A6F8DD4EDE4FFF252046FFF7AAF9E1
:1040D00001F004FBFDF763FB05D0022808D001289E
:1040E000F6D10134F1E7012CD8BF0124013CECE703
:1040F000C8F80440FDF78AFAFDF764FBBDE8F0411B
:10410000FFF76AB92DE9F041DFF8348ED8F88C401A
:10411000FFF77EF8E04EE14FFF252046FFF794F9C8
:1041200001F0DCFAFDF73BFB05D0022808D001289E
:10413000F6D10134F1E7012CD8BF0124013CECE7B2
:10414000C8F88C40FDF762FAFDF73CFBBDE8F04192
:10415000FFF742B92DE9F041DFF84C8FD8F89040D5
:10416000FFF756F8E54EE64FFF252046FFF790F99A
:1041700001F0B4FAFDF713FB05D0022808D001289E
:10418000F6D10134F1E7012CD8BF0124013CECE762
:10419000C8F89040FDF73AFAFDF714FBBDE8F0418E
:1041A000FFF71AB90C8000202DE9F041DFF8F88EF6
:1041B000B8F88A40FFF72CF8E54EE64FFF25204679
:1041C000FFF7C2F901F08AFAFDF7E9FA05D00228F3
:1041D00008D00128F6D16434F1E7642CD8BF6424F8
:1041E000643CECE7A8F88A40FDF710FAFDF7EAFA1C
:1041F000BDE8F041FFF7F0B82DE9F041DFF8508F4E
:1042000098F80C50FFF704F8D14ED24FFF2468B253
:10421000FFF7E8FA01F062FAFDF7E7FA09D00228A1
:104220000FD00128F6D1681C45B2162DA8BF16255F
:10423000EDE7681E45B215F1090FD8BF6FF008050C
:10424000E5E788F80C50FDF7E1F9FDF7BBFABDE8AA
:10425000F041FFF7C1B800BF0C8000202DE9F04706
:10426000DFF8EC8ED8F810A0BAF1090F01D20026C1
:1042700027E0BAF10C0F01D2012622E0BAF1110FAA
:1042800001D202261DE0BAF1160F01D2032618E072
:10429000BAF1210F01D2042613E0BAF12B0F01D29B
:1042A00005260EE0BAF1400F01D2062609E0BAF168
:1042B0007E0F01D2072604E00926BAF1FB0F38BFB2
:1042C0000826FEF7A5FFA24FA24DDFF85490FF2469
:1042D0005046FFF7CBF801F001FA397870B2297037
:1042E0003C7041B102290ED00129F4D10828A8BFA1
:1042F0000820461C03E00128D8BF0120461EF0B26A
:1043000039F810A0E4E7F0B239F81000C8F810004E
:10431000FDF77CF9FDF756FABDE8F047FFF740B925
:10432000786B00082DE9F041DFF8F48E98F814500E
:10433000FEF76EFF864E874FFF24E8B2FFF7BAF80C
:1043400001F0CCF9FDF751FA09D002280AD0012872
:10435000F6D1681C45B2042DA8BF0425EDE7FDF792
:1043600072FAEAE788F81450FDF750F9FDF72AFAD7
:10437000BDE8F041FFF714B980B5FDF747F9FDF747
:1043800021FABDE88040FFF7DDB900002DE9F041DA
:10439000DFF88C8E98F88850FEF73AFF6C4E6D4F20
:1043A000FF24E8B2FFF7A4F801F098F9FDF71DFA31
:1043B00009D002280AD00128F6D1681C45B2032D85
:1043C000A8BF0325EDE7FDF73EFAEAE788F8885035
:1043D000FDF71CF9FDF7F6F9BDE8F041FFF7E0B88D
:1043E0002DE9F041DFF8488F4FF47A71D8F80800D2
:1043F000B0FBF1F4FEF70CFF554E564FFF2520465B
:10440000FFF790F801F06AF9FDF7C9F905D0022825
:1044100007D00128F6D1192001E06FF018000444FC
:10442000EDE74FF47A706043C8F80800FDF7EEF846
:10443000FDF7C8F9BDE8F041FFF7B2B80C800020E5
:10444000148000202DE9F041DFF8E48E98F8155033
:10445000FEF7DEFE3E4E3F4FFF24E8B2FFF786F840
:1044600001F03CF9FDF7C1F909D002280AD0012872
:10447000F6D1681C45B2012DA8BF0125EDE7FDF777
:10448000E2F9EAE788F81550FDF7C0F8FDF79AF968
:10449000BDE8F041FFF784B80C80002014800020B4
:1044A0002DE9F041DFF8888E98F80D50FEF7B0FE48
:1044B000274E284FFF24E8B2FFF7A2F801F00EF9CB
:1044C000FDF793F909D002280DD00128F6D1681C18
:1044D000C5B20C2D28BF0C25EDE7681EC5B2062D10
:1044E00098BF0625E7E788F80D50FDF78FF8FDF730
:1044F00069F9BDE8F041FFF753B800BF0C80002018
:10450000148000202DE9F041DFF8488F98F816500C
:10451000FEF77EFE0E4E0F4FFF24E8B2FFF780F845
:1045200001F0DCF8FDF761F904D0022805D001287C
:10453000F6D100E0FF200544EFE788F81650FDF7BC
:1045400065F8FDF73FF9BDE8F041FFF729B800BF76
:104550000C8000201480002010B5184991F88800C4
:1045600003281BD048BB1B4C184849684FF0FF324A
:10457000174BA468C0E900210021C0E902431029BB
:1045800005D0421841F0100301311374F7E70C48CD
:104590002021202201700B480C4905E000F06AF848
:1045A0000748094902780748FBF7F1FD0A48016806
:1045B0000AA0BDE8104001F0E1BD10BDEC030020F1
:1045C0009C060020EC0200209C880020A08900208E
:1045D000246201FF800400208005002041434B3A03
:1045E0002025640D0A000000B0B5184991F8880034
:1045F00003281FD040BB4B681848D1F88C10194CC9
:10460000174AA56880E82A000021C260102903D05B
:10461000421811740131F9E70D4820212022017060
:104620000C480E49FBF7B3FDA1680FA0BDE8B040F0
:1046300001F0A4BD00F03CF80548074902780548A0
:10464000BDE8B040FBF7A3BDB0BD00BFEC03002048
:104650009C060020EC0200209C880020A0890020FD
:10466000236201002080002054583A2025640D0A5E
:104670000000000070B51B491B4824220B4BA34CC3
:1046800008621B4802701B484268D0F88C001B6807
:10469000D4E90056A46881E82D001848C1E9044611
:1046A0002422BDE87040FBF772BD00BF80050020EA
:1046B00010B50C490C480E4A24230F4C08620B48D5
:1046C00013700C4A48615368D2F88C204FF0434075
:1046D0002468C860094881E81C002422BDE8104015
:1046E000FBF755BD9C8800200000A0400000F0C1F1
:1046F0009C060020EC03002028800020EC02002013
:104700002DE9F04F89B07B48DFF8F891DFF8F8A188
:10471000794A017879A0002918BF104699F80CB0A1
:10472000D0477A48D0E900458068FBF7A3FE804671
:1047300028460F46FBF79EFE054620460E46FBF731
:1047400099FE024672480B46CDE90087CDE9025634
:10475000D047D9F800106F48D047D9F804106EA0A0
:10476000D047D9F8081071A0D0474FEA5B1174A068
:104770000791D0470BF0070175A00691D04799F833
:104780000D1077A0D04799F80F107BA0D0477FA0DD
:10479000D047824CCBF3C0007F4D089000282046C4
:1047A00008BF284602F088F97DA0D047CBF3001659
:1047B000002E08BF2C46204602F07EF9DFF8EC817F
:1047C00098F80000A0F1100179A0D0478A4C00258C
:1047D00098F80010E8B21039814206DD4844017CA7
:1047E000204601F0CBFC0135F2E775A002F064F938
:1047F00074480078002877D10020FDF7E5F83D489F
:10480000DFF808A1714D70490078002818BF0D46E7
:10481000DAF80400FBF72EFE6D4C6E4F02460B4695
:1048200029462046B8476C4D4FF0010B002000216F
:10483000224608230596CDF800B0A847DAF808000C
:10484000DAF80050FBF716FE064628460F46FBF73F
:1048500011FE0B4661495F4D02462046CDE90067D7
:10486000A8475D4E00200821FCF728FFD9F8042056
:104870005B492046A84700201021FCF71FFFD9F80C
:10488000002058492046A84700201821FCF716FFB1
:10489000D9F8082054492046A84700202021FCF7D9
:1048A0000DFF99F80D0099F80F10DDE90632CDE9FA
:1048B00000014E492046A84700202821FCF7FEFEB3
:1048C0004B49089A059B2046A84700203021FCF759
:1048D000F5FE98F800004749A0F110022046A847CD
:1048E00000203821FCF7EAFE02490020087009B0D8
:1048F000BDE8F08FD6020020B98000085250434B2B
:104900003A200000800400207D610008E0020020C1
:10491000888000086F80000853656E6465722049C6
:10492000443A203078253038580D0A005061636BC6
:1049300065742049443A203078253038580D0A00F3
:10494000486F702073746172743A2025640D0A00F8
:10495000486F70206C696D69743A2025640D0A00F7
:104960004368616E6E656C20686173683A203078C8
:10497000253032580D0A000052656C6179206E6F47
:1049800064653A2025640D0A0000000057616E74CA
:104990002061636B3A200000B0800008B4800008FA
:1049A000566961204D5154543A2000005988002026
:1049B0005061796C6F61643A2025640D0A00000033
:1049C0000D000000DC0200203F8100083581000856
:1049D0005A8800209D610008AD110008268100085A
:1049E000E4800008FB800008F0800008C880000810
:1049F0001381000807810008C0800008411E0529B6
:104A000008D80EA0DFE801F012030E140B1720A047
:104A100002F052B87F2808D10CA002F04DB812A0C5
:104A200002F04AB818A002F047B81DA002F044B83E
:104A300011A002F041B807A002F03EB8494E56411D
:104A40004C494420434849500D000000544F444F06
:104A50000D000000494E56414C49442050415241FE
:104A60004D455445520D0000494E56414C49442095
:104A70004D4F44450D0000004E4F542053555050AB
:104A80004F525445440D0000425553590D0000004B
:104A90004E4F5420524553504F4E44494E470D00FF
:104AA000554E4B4E4F574E0D0000000010B590482C
:104AB00000F0B0F9884800F097F9BD4C94F88800F0
:104AC00003280FD068B9FEF7A7FBFFF719FE0848C7
:104AD000017831B9074A616812688A4204BF01212E
:104AE000817010BDBDE8104000F006B8EC03002056
:104AF00020800020800400202DE9F04F85B074480C
:104B0000DFF8D081744902784046FBF740FBDFF8BC
:104B1000CCB175A072A29BF80010002918BF1046F6
:104B200001F02CFBDFF8C8A1DAF80800DAE900563A
:104B3000FBF7A0FC074630468946FBF79BFC064680
:104B400028460C46FBF796FC0B46D8F808100246A0
:104B500068A0CDE90079CDE9026401F00FFB9BF874
:104B6000000018B173A001F0A7FF1BE0FCF7ABFD3C
:104B7000FCF700FEFCF7E2FD024663A00B46CDE920
:104B80000097CDE9025601F0F9FAD8F82000FBF7BA
:104B900071FC024662A00B4601F0F0FAD8F808005A
:104BA000634908606648007800287BD10020FCF744
:104BB0000BFF9BF80000012804D162483A21818054
:104BC000624903E05F483A2181805F49DFF87491D0
:104BD00001604FF0010B002000210823CDF800B048
:104BE0004A46FCF7E3FADAF80800DAE90046FBF790
:104BF00041FC074630468A46FBF73CFC0646204609
:104C00000D46FBF737FC02460B4651A14846CDE95D
:104C1000007ACDE9026501F0C1FA002008214A4678
:104C2000FCF7B8FD2D48007828B15F4A002010211C
:104C3000FCF7B0FD34E0FCF746FDFCF79BFDFCF70C
:104C40007DFDCDE902563F4D4B4C02460B4645A13A
:104C5000CDE900972846A047484E00201021FCF7D8
:104C6000FFFCD8F8042046A12846A04700201821C0
:104C7000FCF7F6FCD8F8082044A12846A0470020FD
:104C80002021FCF7EDFCD8F82000FBF7F3FB0246EF
:104C90000B4641A12846A04700202821FCF7E0FC54
:104CA000DFF838B04148007858B9FF48D8F800100C
:104CB0004068814205D19BF8000010B93D480121B0
:104CC000017000208BF8000005B0BDE8F08F00BF38
:104CD000598800209805002059850020D602002020
:104CE000464552523A2000005250434B3A200000B1
:104CF000E002002025642C252E31662C252E3166FD
:104D00002C252E31660D0A004241434B3A20252EB8
:104D100031662C252E31662C252E31660D0A0000B9
:104D200056626174743A252E32660D0A0000000046
:104D30008005002042616420646174610D00000000
:104D4000DC0200205A8800205250434B4645525204
:104D50005245433A252E31662C252E31662C252EC0
:104D60003166000042434B3A252E31662C252E3108
:104D7000662C252E316600009D610008AD110008EB
:104D800053656E6465723A20256400005061636B60
:104D900065743A2025640000566F6C746167653A4B
:104DA00020252E3266000000FB7F000820800020B6
:104DB000EC0300202280002080B5002000F06FFF6F
:104DC00040B280BD7F207047BCB50C4605460DF152
:104DD0000601002000F0B2FE9DF807109DF80600C5
:104DE000297020700020BCBD1CB504460DF10601E1
:104DF000002000F093FE48B905489DF806309DF864
:104E0000071022460370002000F021FF40B21CBDB5
:104E100059880020BCB504460DF10501002000F0C2
:104E200039FE054670B99DF90500FBF71AFB2060B5
:104E30009DF90600FBF715FB60609DF90700FBF785
:104E400010FBA06068B2BCBDBCB504460DF1060104
:104E5000002000F049FE054620B9BDF90600FBF729
:104E600000FB206068B2BCBDBCB504460DF1020178
:104E70000020002500F02BFE30B9BDF80210E580BF
:104E800021800199C4F8021040B2BCBD1CB5044693
:104E90000DF10602002040F61111022300F0E9FE98
:104EA0009DF806009DF807100844207000201CBDE6
:104EB00010B5FCF7E1FE044620B90348012101705A
:104EC00000F032F960B210BD25800020F8B5D4485A
:104ED0001E4F012341F2883510246426002283836B
:104EE0008382C0E91C3740F60A33A0F88A50154D7A
:104EF00004832B248276426080F88820C2768381E6
:104F0000FA2384750A240361114BC0E920650E4D14
:104F1000C0E92324C0E91A64836040F2EE43C0E98B
:104F20001875C0E91E56038011B102210122C17714
:104F3000827701F011F9FFF7BBFF0020F8BD00BF39
:104F4000EC0300200000C8C240420F00801A060097
:104F500088F6D019FCF7FEBDBCB5514D6879032821
:104F600000F0818002284CD0012840F097806878BA
:104F7000012808D100206870FFF736FBFEF7F2FE2B
:104F8000514800F02DF9A878012808D10020A87018
:104F9000FFF7E2FAFEF7E6FE4B4800F021F94B4836
:104FA0000178012907D1FCF79EFBFFF77FFDFEF793
:104FB000D3FE00F0B9F846480178012905D1002157
:104FC0000170FEF7C9FE00F0AFF8424801780129F0
:104FD00008D1FCF788FB00F0A7F83FA001F06CFDBA
:104FE000FEF7BAFE40480178012957D1FCF77BFB58
:104FF00000F09AF83DA001F05FFDBDE8BC40FEF76F
:10500000ABBE2879012849D10020287101A8FFF7FB
:105010001BFF019CE9682046FBF7F9F980B920469F
:10502000FBF728FA1F4C0B46024620A0216801F02E
:10503000A5F82448007818B920680199FEF722FBEA
:10504000032000F031F91749D5E904020B68184430
:105050009042086002D91448406F086000F0E2F8FE
:1050600000F062F81AE02879012817D100200D4CD1
:105070002871D5E90401226810448842206002D9D1
:105080000948006E2060032000F00EF9206800F04F
:10509000C9F8A879BDE8BC4000F058B9BCBD00BF54
:1050A00020800020D8020020EC03002046726571A9
:1050B0003D25642C525353493D252E3166206442D0
:1050C0006D0D0A00DC020020EC020020518500205A
:1050D000DE0200205085002048656164657220650D
:1050E00072726F722E0D00004C8000205265737436
:1050F0006172742052582E0D00000000BCB50D46A0
:105100000021B1EB104F01D006240AE081B20DF16D
:10511000070200200123002400F0ABFD9DF80700EA
:1051200028602046BCBD0000BCB5EC4C218BA07DA6
:10513000A37EE27E257F647FCDE9005400F0BEF8B7
:1051400000B1BCBD0420BDE8BC4000F0ADB800BF5C
:10515000EC0300202DE9F84305461044814208D3B2
:10516000174632B11C460A2B03D34EF66020844208
:1051700002D90620BDE8F883DDF820800E46002124
:105180004FF000094046FBF750F9B8B1A148DFF8ED
:105190008092A14A016805602846C9F81C50C9E9F7
:1051A0000387C9F81460116000F03CF80120C9F8C9
:1051B0002440C9F8204089F803000BE09448964C3D
:1051C00080F80390206800F02DF82068914908606D
:1051D000FFF76EFEFFF7A8FF0020BDE8F88300BFD1
:1051E000FEB5E74E0D4D04462A78318BB07DB37E77
:1051F000377F767FCDE9007600F060F830B92B7804
:1052000000200021224600F0F1FE08B140B2FEBDB0
:105210000520BDE8FE4000F047B800BF9C06002016
:10522000EC030020B0B504467A48434D0460414881
:10523000FCF78DFA4FF47A7004FB00F1002000F0C7
:1052400038FE0446287800F02FF860B2B0BD00BFE9
:10525000B0B504463748384DFCF779FA14F1090F18
:1052600001DB162C01DD062405E00020214600228A
:1052700000F080FE0446287800F016F860B2B0BD59
:105280002DE9F04107462B48DFF8AC80FCF7F5F933
:10529000384631462A462346FCF788FDFCF71EFABD
:1052A00060B2BDE8F08100BF10B50446FCF782FC97
:1052B00000B110BD1F490C7010BD00BF2DE9FC41AD
:1052C00007461C48DFF87080FCF7D7F9099831468B
:1052D0002A462346019008980090F8B2FCF7A0FDFA
:1052E000FCF7FCF960B2BDE8FC8100BFB0B55E28F8
:1052F00001D9062419E0E34CA0EB500140080E4D03
:1053000084F820000B4884F82110007828700220CF
:10531000FCF750FC94F8201094F821200020002481
:1053200000F009FE2878FCF745FC2046B0BD00BF20
:10533000EC030020DD0200205885002034480121C4
:1053400000228160826101704170704780B5012840
:1053500006D002280ED10720FFF7A6FF98B180BD26
:105360000620FFF7A1FF0028F9D1FEF7FBFC094852
:1053700001210CE0074800210170FEF7EDFCBDE8BB
:105380008040FFF7D1BEFEF7EDFC0248022101701C
:10539000002080BD2680002070B51C46131899425D
:1053A00008D33AB134B14EF660239C4202D8049D32
:1053B000022D02D90625284670BDCDB1144E164BDC
:1053C000C6E904211349F061B5710A6808601A60E2
:1053D000FFF728FFFEF7C6FC2846FFF7B7FF054694
:1053E0000028E8D10025012074623462F070E2E701
:1053F000074800250749C57085710748006808609F
:10540000FFF710FFFEF7A8FCFFF752FDD3E700BF40
:1054100020800020D8020020548500201CB58DF883
:1054200007100021B1EB104F01D0062407E081B234
:105430000DF1070200200123002400F0E6FD2046C4
:105440001CBD000080B5C64803499422FAF79FFEB0
:1054500080BD00BFEC03002000F80108E0B500F0BB
:105460007BFEFDF7D5FE012007A210210823009046
:105470000020FBF79BFE4FF4FA70FDF7FBFEBDE842
:105480008C40FCF74BBD00BF52455345542044456A
:10549000564943450000000080B5FCF7B7F8FCF71B
:1054A00091F9BDE88040FEF74DB900001CB50B4CEA
:1054B00074341FCC0094FFF74DFE58B9FEF752FC30
:1054C000074802210170FDF7A3FE012005A200217B
:1054D000FCF7FFF8B848002101701CBDEC03002068
:1054E000258000205343414E4E4552204D4F4445A8
:1054F00020202020000000002DE9F047DFF8788C04
:10550000D8F88440FDF784FE1E48874D724EFF2771
:1055100081461D4882462046FEF796F800F0DEF8E8
:10552000287830702F7090B102281FD00128F5D153
:1055300020464FF07C51FAF712FF51460446FAF725
:1055400082FF00281CBF0024CCF2A014E3E7204611
:105550004FF03F41FAF703FF49460446FAF765FF6B
:1055600000281CBF0024CCF2FF24D4E7C8F88440F4
:10557000FCF74CF8FCF726F9BDE8F047FEF7BAB89F
:10558000EC0300200000FFC20000A0C12DE9F041A3
:10559000DFF8E48BD8F87440FDF73AFE624E4E4FC8
:1055A000FF252046FEF7FAF800F098F8FCF7F7F828
:1055B00007D0022809D00128F6D1D8F87C0004448D
:1055C000EFE7D8F87C00241AEBE7C8F87440FCF742
:1055D0001DF8FCF7F7F8BDE8F041FEF78BB800BF07
:1055E0002DE9F041DFF8908BD8F87C40FDF710FEF4
:1055F0004D4E394FFF252046FDF758FE00F06EF85E
:10560000FCF7CDF805D0022807D00128F6D11920E3
:1056100001E06FF018000444EDE7C8F87C40FBF7A8
:10562000F5FFFCF7CFF8BDE8F041FEF763B800BF27
:105630002DE9F041DFF8408BD8F87840FDF7E8FD20
:10564000394E254FFF252046FEF7BAF800F046F800
:10565000FCF7A5F807D0022809D00128F6D1D8F820
:105660007C000444EFE7D8F87C00241AEBE7C8F884
:105670007840FBF7CBFFFCF7A5F8BDE8F041FEF75B
:1056800039B800BFEC0300202DE9F041DFF8E88ACB
:10569000D8F88040FDF7BCFD234E0F4FFF25204674
:1056A000FDF716FE00F01AF8FCF779F805D002288D
:1056B00008D00128F6D10A34F1E70A3C0A2C98BF39
:1056C0000A24ECE7C8F88040FBF7A0FFFCF77AF863
:1056D000BDE8F041FEF70EB81480002010480268C3
:1056E00010484188D20509D401314180B0F9021037
:1056F00014290ADB1421418001210FE00139418086
:10570000B0F90210B1F1FF3F00DD70470021418088
:105710000278012AF9D10170034802210170704713
:1057200010040048D00200200C8000201CB50C485A
:105730000C4AD0F8901011600B49B0F88A0008604C
:10574000FDF766FD012009A200211023002400902E
:105750000020FBF72BFDFFF7F1FD174804701CBD7F
:10576000EC030020A08A0020B802002053454E44DC
:1057700020425552535420202020202000000000B9
:10578000BCB5FDF745FD012406A200200021102331
:1057900000250094FBF70AFD0748057007480470D0
:1057A000BCBD00BF53454E442031205041434B45C2
:1057B0005420202000000000DC0200202180002076
:1057C00080B5FBF723FFFCF71BF8BDE88040FDF731
:1057D000B9BF000080B51C4801210068FEF730FB0E
:1057E000FBF714FFFBF7EEFFBDE88040FDF7CEBDF1
:1057F00080B5FBF70BFFFCF703F8BDE88040FDF731
:105800009FBD80B5FBF702FFFBF7FAFFBDE88040C4
:10581000FDF7E2BD80B5FBF7F9FEFBF7F1FFBDE850
:105820008040FDF7BDBE000080B500F095FC064845
:1058300001210068FEF704FBFBF7E8FEFBF7C2FF5F
:10584000BDE88040FDF7A2BD0400002080B5FBF755
:10585000DDFEFBF7D5FFBDE88040FDF74BBF70B51F
:1058600014460E46054600B9256828463146FAF723
:10587000D1FC295C61B1054431462846FAF7D8FCD1
:105880002918285C10B1002001F8010B216000E00C
:105890000025284670BD00004048016841F40041E1
:1058A0000160704770B586B000206C464025CDE998
:1058B00003000120214600950190032002904FF043
:1058C0009040FBF7B9FC80264FF0904021460096AF
:1058D000FBF7B2FC2648056006601148816F41F471
:1058E000004181670F49425822F400424250425819
:1058F0005204FCD40C490A6842F480520A604FF406
:1059000000610160FCF7CEF80848002101700848EA
:105910004FF48021C0F88011016006B070BD00BF57
:10592000180400587CFCFFFF9008005832E400E0A7
:1059300004E100E010B50A4C206840F4004020600B
:105940003220FDF79DFC206820F400402060206894
:105950004004FCD41420BDE81040FDF791BC00BF0A
:105960009400005802484021016080210160704786
:1059700028000048054840210161802101607047EE
:1059800002484021016080210161704718000048F1
:105990000248016821F400410160704790040058FA
:1059A00006490A689207FCD5087108680006FCD40D
:1059B0000868C007FCD00879704700BF080001588C
:1059C000E0B58DF807108921FBF766FE0DF10601A1
:1059D00000F019F98CBDE0B58DF806109821FBF7A1
:1059E000BBFE0DF1050100F00EF98CBDE0B529B14B
:1059F00096210DF107028DF8071004E094210DF1B6
:105A000006028DF8061040F6AC01FBF791FE8CBD46
:105A1000E0B5002107220023ADF804208DF8061020
:105A2000009101A9032200F0EEF88CBDE0B58DF8DD
:105A30000710090A022200238DF8061000218DF8B4
:105A40000520032200910DF1050100F0DCF88CBD6A
:105A500043F60951064BB0FBF1F202FB030041F69D
:105A6000846343EA8030B0FBF1F000EB8230704792
:105A7000F7C20300FFF710BF1CB50C461221FBF75D
:105A800093FE0DF1060101AB00F074F800B11CBDEE
:105A9000FBF748BE1FB50C4614210DF10A03FBF7B6
:105AA000D7FE0DF10E0100F065F870B99DF80A10EF
:105AB0009DF80C204942490821709DF90B100231D4
:105AC0008908617051424908A17004B010BD1FB52A
:105AD000FBF7ADFE0DF10E0102AB00F04BF808B97B
