:020000040800F2
:1000000090230020E9000008D5230008410F0008D4
:10001000D1230008710B0008093900080000000016
:10002000000000000000000000000000312800086F
:10003000FD00000800000000DD23000899370008DB
:1000400003010008712400080301000803010008EF
:100050000301000803010008013900080539000800
:100060000301000803010008030100080301000860
:100070000301000803010008030100080301000850
:10008000910A0008030100080301000803010008A9
:100090000301000803010008750B000891380008EF
:1000A000C93800080301000803010008490B0008D3
:1000B0000301000803010008030100080301000810
:1000C0000301000803010008D92300080301000808
:1000D00003010008DFF80CD000F084FC0048004762
:1000E000216F0008902300200648804706480047FB
:1000F000FEE7FEE7FEE7FEE7FEE7FEE7FEE7FEE7D8
:10010000FEE7FEE7E1370008D500000810B5431A06
:10011000934209D28318881803E010F8011D03F8F0
:10012000011D521EF9D210BD40EA01039B0703D006
:1001300009E008C9121F08C0042AFAD203E011F826
:10014000013B00F8013B521EF9D210BDD2B201E0D2
:1001500000F8012B491EFBD270470022F6E710B5CC
:1001600013460A4604461946FFF7F0FF204610BD25
:10017000CAB2401E10F8011F8A4202D00029F9D1EC
:1001800000207047421C10F8011B0029FBD1801A87
:10019000704730B503461D783DB10A4612F8014B51
:1001A0001CB1AC42FAD15B1CF5E7181A30BD30B572
:1001B0000546002008E00A4602E0A34207D0521C90
:1001C0001378002BF9D1401C2C5C002CF3D130BDEE
:1001D0002DE9F0410E460546002400E0641C285D30
:1001E00000F0E6FA0746305D00F0E2FA381A02D174
:1001F000295D0029F2D1BDE8F0812DE9F047914653
:100200000F4680460446002614F8015B2DB100F02D
:10021000CBFA0068405DC007F6D12B2D02D02D2D02
:1002200018D0641E4A463946204600F0C7FA27B166
:100230003968A14201D1C7F8008071054FF002046E
:100240000BD54042002803DD08F0E0FE0460A00763
:10025000BDE8F08746F48066E4E70028F8DA08F0A5
:10026000D5FE04606FF00040F2E72DE9F05F9346A1
:100270000F4680460446002608F0C8FED0F80090DD
:10028000824614F8015B2DB100F08EFA0068405DE3
:10029000C007F6D12B2D02D02D2D1AD0641E0021BF
:1002A000CAF800105A463946204600F087FA01463F
:1002B00027B13868A04201D1C7F80080DAF8000001
:1002C000022809D0CAF80090700505D54842BDE85B
:1002D000F09F46F48066E2E70846F8E72DE9FE4F16
:1002E000804681EA0300C00F0C46009021F00041D7
:1002F00023F00045B8EB0200A94105D24046214653
:1003000090461C460B46024623F00040104347D05F
:10031000270DC7F30A00C3F30A510290401A019057
:1003200040286BDAC3F3130040F4801B0098924618
:1003300020B10023D2EB030A63EB0B0B0198594663
:10034000C0F14002504600F0FEF906460D46504608
:100350005946019A00F016FA10EB0800614100249A
:1003600087EA115284EAE7731A4340D0009A62B3D5
:10037000019A012A4FEA075215DC001B61EB0201CA
:100380004FF0004202EA0752CDE90042001C41F55D
:10039000801132462B4600F0A6FA03B0BDE8F08F7C
:1003A00040462146F9E7001B61EB0201001C41F5C4
:1003B000801300185B412018A2F5001747EB0301DA
:1003C00040EAD570B6196D4111E06D084FEA360666
:1003D00045EAC0754FEA0752001B61EB0201001CA1
:1003E00041F5801149084FEA300000195141324669
:1003F0002B4603B0BDE8F04F00F066BA009801222A
:1004000040000023D0EB020263EBE073009821462A
:100410004FEAE074B8EB000061EB0401E9E783F018
:1004200000435BE781F0004158E72DE9FE4F81EA88
:10043000030404F0004421F0004100944FF0000B4D
:1004400023F0004350EA01045ED052EA03045BD07B
:10045000C3F30A54C1F30A552C44A4F2F3340194B3
:10046000A0FB0254C1F3130141F48011C3F3130341
:1004700043F4801301FB024400FB034E840A970AF5
:1004800044EA815447EA8357A4FB076802958D0A22
:1004900005FB07854FEA932C04FB0C542705029DAE
:1004A0004FEA065847EA1637B5EB08056EEB070C1E
:1004B000870E920E47EA811742EA8312A7FB0201D8
:1004C000B6EB0B0164EB00042B0D43EA0C335E1812
:1004D00044EB1C50DA465146E7FB0201C5F3130416
:1004E0004FEA0B3343EA14534FEA0432019C43EAC8
:1004F0000603A4F10C040294009CCDE900B400F0C2
:10050000F2F903B0BDE8F08F00200146F9E72DE9CC
:10051000F04D81EA030404F0004B21F0004514463D
:100520004FF0000A23F0004150EA050220D054EABF
:1005300001021DD0C5F30A570246C5F31303C1F3E8
:100540001300C1F30A5640F4801543F48013A7EB5F
:100550000608101BD64608F2FD3873EB050002D3DF
:1005600008F1010801E092185B41B8F1000F03DACD
:1005700000200146BDE8F08D00204FF480110646B2
:1005800084460EE0171B73EB050705D3121B63EBC4
:10059000050306434CEA010C49084FEA3000921863
:1005A0005B4150EA0107EDD152EA030012D082EA22
:1005B000040083EA0501084305D0101BAB4106D2B5
:1005C0000122002306E000224FF0004302E06FF01A
:1005D000010253101AEB06004CEB085110EB0A0015
:1005E00041EB0B01BDE8F04D00F06EB90EB5C10F47
:1005F00080EAE0700844CA07002140F233438DE8E6
:100600000E000A460B4600F06EF903B000BD0EB5B1
:1006100040F2334102910021CDE900110A460B4618
:1006200000F061F903B000BDC1F30A5210B5C1F387
:10063000130140F2FF3341F480119A4201DA0020A5
:1006400010BD40F233439A42A2F2334203DC5242DD
:1006500000F088F810BD904010BD00F0004230F06E
:1006600000400AD0C10D01F56071C0F3160042EAE6
:100670000151C208400711437047002001467047EE
:1006800001F0004330B421F0004150EA010206D0ED
:100690000A0DA2F56072C1F31301002A02DC30BC1E
:1006A00000207047440F44EAC104C100E01830BC88
:1006B00000EBC25000F0D1B830B50B460146002027
:1006C0002022012409E021FA02F59D4205D303FA14
:1006D00002F5491B04FA02F52844151EA2F1010295
:1006E000F1DC30BD2DE9F05F0546002092469B46C7
:1006F00088460646814640241BE028464146474638
:10070000224600F02FF853465A46C01A914110D3A2
:1007100011461846224600F016F82D1A67EB01081C
:100720004F4622460120002100F00DF817EB00098A
:100730004E41201EA4F10104DFDC484631462A4622
:100740004346BDE8F09F202A04DB203A00FA02F17C
:10075000002070479140C2F1200320FA03F31943AF
:1007600090407047202A04DB203A21FA02F0002151
:10077000704721FA02F3D040C2F1200291400843B1
:1007800019467047202A06DBCB17203A41FA02F0BF
:1007900043EAE07306E041FA02F3D040C2F12002DE
:1007A00091400843194670470048704798990008DF
:1007B000A0F14101192900D8203070472DE9F05FE0
:1007C00082460078002715468B460AF10104B94697
:1007D000302801D09DB113E014F8010B01277828CF
:1007E00003D0582801D045B10AE00DB1102D07D132
:1007F0000027102514F8010B02E0082500E00A2567
:100800000026B0460EE005FB080005FB06F10127B7
:1008100001EB10461FFA80F8B6F5803F00D3B946C9
:1008200014F8010B294600F0F5F80028EBDABBF1CB
:10083000000F05D00FB1641E00E05446CBF8004015
:10084000B9F1000F06D008F0E1FB02210160C81EDB
:10085000BDE8F09F48EA0640FAE70029A8BF7047C4
:10086000401C490008BF20F00100704710B4B0FAE6
:1008700080FC00FA0CF050EA010404BF10BC704781
:1008800049B1CCF1200421FA04F411FA0CF118BF9B
:10089000012121430843A3EB0C01CB1D4FEA00616A
:1008A0004FEA102042BF002010BC704700EBC3503D
:1008B00010440029A4BF10BC7047401C490008BF69
:1008C00020F0010010BC704710B5141E73F1000435
:1008D00008DA401C41F1000192185B411A4301D132
:1008E00020F0010010BD2DE9F04D92469B4611B15C
:1008F000B1FA81F202E0B0FA80F220329046FFF7BE
:1009000022FF04460F4640EA0A0041EA0B01534623
:100910005A46084313D0114653EA010019D0C8F1D2
:1009200040025046FFF71EFF05460E465046594608
:100930004246FFF708FF084305D0012004E02046A7
:100940003946BDE8F08D0020054346EAE0762C43A9
:1009500037430A986305E40AA0EB08000022FD0A69
:1009600044EA47540A3002D500200146E9E7010570
:1009700010196941DDE9084500196941BDE8F04DEC
:10098000A2E7C1F30A52C1F3130140F2FF3341F46D
:1009900080119A4202DA00200146704740F2334348
:1009A0009A42A2F2334202DC5242FFF7DBBEFFF76B
:1009B000CABE000030B5041E71F1000404DB4FF024
:1009C0000044404264EB0101141E73F1000405DB96
:1009D0001C464FF00043524263EB0403994208BFA8
:1009E000904230BD1CB50948009009480190054669
:1009F000009C06E0E06840F0010394E80700984797
:100A00001034AC42F6D3FFF769FB000028AD0008B4
:100A100048AD00083A2800D2303820F02002412AA0
:100A200001D3A2F13700884201D34FF0FF30704765
:100A300070B58D1810F8014B14F0030201D110F8B5
:100A4000012B231106D110F8013B03E010F8016BD4
:100A500001F8016B521EF9D1ABB110F8012B04F073
:100A60000C048A1A0C2C03D0A2EB84129B1C08E005
:100A700010F8014BA2EB0422F8E712F8014B01F841
:100A8000014B5B1EF9D5A942D4D3002070BD0000F4
:100A90002DE9F04381B0022003F04EF8002842D047
:100AA000022002F05FFF002003F05EF803F03CF844
:100AB000FFF7ADFD40F24839C2F200090546D9E919
:100AC00000800E46FFF7C9FD9FED190B07460C4647
:100AD00053EC102B28463146FFF7A7FC02460B4685
:100AE00038462146FFF7FAFB044640460D46FFF71D
:100AF000B4FD02460B4620462946FFF708FDFFF7E6
:100B0000BFFDFFF7AAFD9FED0C0B53EC102BFFF779
:100B10008CFC9FED0B0B53EC102BFFF7F8FCFFF751
:100B2000AFFDC9F8080001B0BDE8F08300BF00BF09
:100B30000000000000C0D2BF6666666666E626401A
:100B40000000000000408FC010B54CF20004C4F259
:100B500000042046012103F095F8002808BF10BDCD
:100B600004F59A300F21BDE8104006F051B800009E
:100B7000FEE7000010B54FF20004C4F20104204665
:100B80000E2105F04FFF012818BF10BD20460E2191
:100B900005F02EFF40F26830C2F2000001214170E2
:100BA00010BD00002DE9F04F85B046B20E9FC0F396
:100BB000C010203A01EB400B102B26EAE67669D0F4
:100BC000082B40F08281711C0491B11C0391F11C2F
:100BD0000291311D0191711D009149F61831D0B279
:100BE00006F10608002F06F10709C0F6000100F023
:100BF000B98001EBC00A00251AF805700BEB05005F
:100C0000C4B2FA09F0B2214601F09EFD78060498BC
:100C10002146C0B254BF0022012201F095FDB80662
:100C200003982146C0B254BF0022012201F08CFD7E
:100C3000F80602982146C0B254BF0022012201F0FA
:100C400083FD380701982146C0B254BF002201221B
:100C500001F07AFD780700982146C0B254BF002207
:100C6000012201F071FDB8075FFA88F0214654BFF8
:100C70000022012201F068FDF8075FFA89F02146A1
:100C80000CBF0022012201F05FFD0135082DB3D118
:100C90001BE100BF711C0491B11C0391F11C029176
:100CA000311D0191711DD0B2009149F61061000112
:100CB00006F10608002F06F10709C0F6000100F052
:100CC000AB8001EB000A00251AF805700BEB05005C
:100CD000C4B2FA09F0B2214601F036FD7806049854
:100CE0002146C0B254BF0022012201F02DFDB806FA
:100CF00003982146C0B254BF0022012201F024FD16
:100D0000F80602982146C0B254BF0022012201F029
:100D10001BFD380701982146C0B254BF00220122B2
:100D200001F012FD780700982146C0B254BF00229E
:100D3000012201F009FDB8075FFA88F0214654BF8F
:100D40000022012201F000FDF8075FFA89F0214638
:100D50000CBF0022012201F0F7FC0135102DB3D1A8
:100D6000B3E000BF01EBC0074FF0000A17F90A001B
:100D70000BEB0A01CCB2C543B0F1FF3F4FF00002CC
:100D8000F0B22146C8BF012201F0DEFC68060498DB
:100D90002146C0B254BF0022012201F0D5FCEDB2C1
:100DA000A80603982146C0B254BF0022012201F0D8
:100DB000CBFCE80602982146C0B254BF00220122B3
:100DC00001F0C2FC280701982146C0B254BF00229E
:100DD000012201F0B9FC680700982146C0B254BF57
:100DE0000022012201F0B0FCA8075FFA88F021463A
:100DF00054BF0022012201F0A7FCE8075FFA89F046
:100E000021460CBF0022012201F09EFC0AF1010ADA
:100E1000BAF1080FAAD158E00F184FF0000A00BF2E
:100E200017F90A000BEB0A01CCB2C543B0F1FF3F42
:100E30004FF00002F0B22146C8BF012201F084FC4D
:100E4000680604982146C0B254BF0022012201F076
:100E50007BFCEDB2A80603982146C0B254BF002225
:100E6000012201F071FCE80602982146C0B254BF8D
:100E70000022012201F068FC280701982146C0B237
:100E800054BF0022012201F05FFC68070098214650
:100E9000C0B254BF0022012201F056FCA8075FFA3D
:100EA00088F0214654BF0022012201F04DFCE807E2
:100EB0005FFA89F021460CBF0022012201F044FCB8
:100EC0000AF1010ABAF1100FAAD105B0BDE8F08FFE
:100ED0002DE9F04782B0DDF828801C4691460E4689
:100EE000102B074608D0082C26D14FF0060A99F897
:100EF000002032B91BE000BF4FF0080A99F800202B
:100F0000AAB10025F8B2F1B2D2B22346CDF80080E2
:100F1000FFF748FE5744F8B201357828E8B288BF99
:100F2000264419F8002088BF0027002AEAD102B021
:100F3000BDE8F04701F0C6BA02B0BDE8F087000096
:100F400003A008F0D5FC642005F02AFC02F0F4FCB4
:100F500048617264204661756C74206F63637572BA
:100F6000730D000080B582B08DF807100DF10702F7
:100F700040F21111012301F075F902B080BD0000AB
:100F80004FF487710022002301F06CB980B582B064
:100F900009BA019101AA4FF48A71042301F062F9A0
:100FA00002B080BD80B582B0022928BF0221002A8C
:100FB00018BF41F004018DF807100DF107024FF43E
:100FC0008B71012301F04EF902B080BD80B584B071
:100FD0004FF0020C0DF10E0E40F20521002200230D
:100FE000CDE900EC00F02CFF9DF80F0004B080BDAF
:100FF00070B515460E46044600F0E2FD204601F0AD
:10100000DDF82046012101F009F930702046002169
:1010100001F004F928702046002101F0FFF8204675
:10102000002101F0FBF82046002101F0F7F82046EE
:10103000002101F0F3F8204600F0F6FE2046BDE85E
:10104000704000F0BDBD000080B584B04FF0030CCF
:101050000DF10D0E4FF48D7100220023CDE900EC4F
:1010600000F0EEFE9DF80E009DF80F109FED1E1A89
:1010700060F30A2100EE101AB8EE400A20EE010AD1
:1010800010EE100AFFF7E9FA9FED0F0B53EC102B4F
:10109000FFF7CBF99FED0E0B53EC102BFFF71EF96A
:1010A0009FED0D0B53EC102BFFF7BFF99FED0C0BD1
:1010B00053EC102BFFF712F9FFF7E2FA00EE100ADB
:1010C00004B080BD00BF00BF9A9999999999F53FE6
:1010D000F2D24D621058E7BF7B14AE47E16182C087
:1010E00000000000000039400000003A000000004D
:1010F00080B584B04FF0020C0DF10E0E40F21911C4
:1011000000220023CDE900EC00F09AFE9DF80F00CC
:10111000FFF77DFA9FED0C0B53EC102BFFF785F9D1
:101120009FED0B0B53EC102BFFF7D8F89FED0A0B3C
:1011300053EC102BFFF779F9FFF7A2FA00EE100A33
:1011400004B080BD00BF00BF6EA301BC0512943F78
:10115000000000000000F0BF0000000000189540F3
:101160002DE9F04F83B0984614468146002840F0A0
:1011700003814DF6EF06080CCFF6FF764FF200071D
:101180008A464FEA116B0190080AC4F201073546FE
:10119000029000BF013505D23846002105F00EFD52
:1011A0000028F7D142F20C05384603210022C4F290
:1011B000010505F035FD012045F8040C286800F014
:1011C000110001280ED0286800F01100012809D074
:1011D000286800F01100012804D0286800F01100F0
:1011E0000128EBD155F8040C062045F8040C00BF8B
:1011F000286800F0110001280ED0286800F01100C6
:10120000012809D0286800F01100012804D02868BE
:1012100000F011000128EBD155F8040C45F804BC8E
:10122000286800F0110001280ED0286800F0110095
:10123000012809D0286800F01100012804D028688E
:1012400000F011000128EBD155F8040C0198C0B250
:1012500045F8040C286800F0110001280ED0286819
:1012600000F01100012809D0286800F011000128C1
:1012700004D0286800F011000128EBD155F8040CC7
:101280000298C0B245F8040C286800F0110001284B
:101290000ED0286800F01100012809D0286800F05D
:1012A0001100012804D0286800F011000128EBD1BA
:1012B00055F8040C5FFA8AF045F8040C286800F031
:1012C000110001280ED0286800F01100012809D073
:1012D000286800F01100012804D0286800F01100EF
:1012E0000128EBD155F8040C5FFA88F045F8040C9E
:1012F000286800F0110001280ED0286800F01100C5
:10130000012809D0286800F01100012804D02868BD
:1013100000F011000128EBD155F8040CB9F1000FD1
:101320002AD138460321012205F07AFC013605D284
:101330003846002105F042FC0028F7D13846032149
:101340000022002605F06CFC45F8046C286800F0CB
:10135000110001280ED0286800F01100012809D0E2
:10136000286800F01100012804D0286800F011005E
:101370000128EBD155F8040CB8F1000F1FD0B9F1DA
:10138000000F4FEA88004FF0000135D00023002203
:1013900042F00107BFB2B842E15410D942F0020353
:1013A0009BB29842E1550AD942F00307BFB2B84256
:1013B000E15404D9043293B29842E155E8D8B9F126
:1013C000000F15D14FF20004C4F201044DF6EF05F1
:1013D000204603210122CFF6FF7505F021FC00BF56
:1013E000013505D22046002105F0E8FB0028F7D1A1
:1013F00003B0BDE8F08F00BF42F20C02C4F201025C
:101400000027002307E000BF52F8046C0133E655C3
:101410009FB2B842D3D942F8041C00BF166806F048
:101420001106012EF0D0166806F01106012EEBD041
:10143000166806F01106012EE6D0166806F01106B1
:10144000012EEBD1E0E7000010B541F6BC02C2F27C
:101450000002D2F83DE04CF20122C0F6EB324AF233
:10146000144496454AF2004248F201734AF2284C6D
:10147000C0F60004C0F60002C0F29333C0F6000CC0
:1014800038BF6446994228BF22461146BDE8104045
:1014900000F080B970B582B0DDF828C0DDE9084EF3
:1014A000DDE906658DF800108DF801208DF8023019
:1014B0006A464FF4897108238DF803608DF8045053
:1014C0008DF805408DF806E08DF807C000F0CAFEE3
:1014D00002B070BD80B582B00B0E8DF800300B0CE1
:1014E0008DF801300B0A8DF80310110E8DF80410E1
:1014F000110C8DF80510110A8DF802308DF80610C8
:101500008DF807206A4640F21311082300F0AAFE66
:1015100002B080BD40F21D110022002300F0A2BEE7
:1015200080B584B0DDF818C04FEA116E8DF806E082
:101530004FEA114E8DF807E04FEA112E8DF8091091
:101540004FEA1C618DF80C104FEA1C418DF80D100C
:101550004FEA1C218DF80A208DF80B308DF80E1003
:101560000DF1060240F20F210A238DF808E08DF8F4
:101570000FC000F077FE04B080BD0000F0B583B06E
:10158000DDF830C0DDE90A4EDDE908650F0A8DF8A7
:1015900004108DF805208DF806300DF103024FF48C
:1015A000047109238DF803708DF807608DF80850D9
:1015B0008DF809408DF80AE08DF80BC000F052FE5E
:1015C00003B0F0BD80B582B00B0E8DF800300B0C6F
:1015D0008DF801300B0A8DF80310110E8DF80410F0
:1015E000110C8DF80510110A8DF802308DF80610D7
:1015F0008DF807206A464FF40971082300F032FE87
:1016000002B080BD0A4640F20621082300F02ABE3F
:1016100080B582B049BAADF806100DF1060240F26D
:101620002521022300F01EFE02B080BD80B582B0ED
:101630000529A2F1070E98BF05215FFA8EFE0F2A39
:1016400028BF0F22BEF1060F38BF0622012B98BF1C
:101650000123DDF810C0072B28BF07238DF80410E5
:101660008DF805208DF8063001AA40F20F210423E1
:101670008DF807C000F0F6FD02B080BD80B582B0E5
:10168000002349BADDF810C08DF80730ADF80530F9
:10169000002AADF803101CBF01218DF80510059933
:1016A000BCF1000F1CBF01228DF8062000291CBFD1
:1016B00001218DF807100DF103024FF40471052389
:1016C00000F0D0FD02B080BD80B582B08DF807106B
:1016D0000DF1070240F22B21012300F0C3FD02B0FF
:1016E00080BD000080B582B0022928BF0221002AF7
:1016F000DDF810C018BF0122072B28BF07238DF883
:1017000004108DF805208DF8063001AA40F215214D
:1017100004238DF807C000F0A5FD02B080BD0000D5
:1017200080B582B08DF806108DF807200DF1060205
:1017300040F21221022300F095FD02B080BD0000AE
:1017400080B582B0042928BF04218DF807100DF15F
:10175000070240F20E21012300F084FD02B080BD9B
:1017600080B582B08DF807100DF107024FF4887133
:10177000012300F077FD02B080BD000080B582B08B
:1017800009BA019101AA40F20B21042300F06AFD7D
:1017900002B080BD80B584B00A784B7891F802C061
:1017A00002F00F0291F803E042EA03128DF80520DF
:1017B0000CF00F0242EA0E128DF806200A794B79DE
:1017C00002F00F0242EA03128DF807208A79CB79E2
:1017D00002F00F0242EA03128DF808200A7A4B7ACF
:1017E00002F00F0242EA03128DF809208A7ACB7ABE
:1017F00002F00F0242EA03128DF80A200A7B4B7BAB
:1018000091F80EC002F00F0291F80FE042EA0312C5
:101810000B7C498A8DF80B200CF00F0242EA0E1265
:1018200009BA8DF80C2003F00F02090C8DF80D2079
:10183000ADF80E100DF1050240F229210B2300F046
:1018400011FD04B080BD000080B582B06FF07F4212
:10185000914238BF0A46110C8DF80510110A8DF817
:1018600006108DF807200DF1050240F2092103232F
:1018700000F0F8FC02B080BD80B582B08DF8071092
:101880000DF1070240F22721012300F0EBFC02B02A
:1018900080BD000080B582B0032928BF03218DF8E8
:1018A00007100DF1070240F21321012300F0DAFCCA
:1018B00002B080BD80B582B0032928BF03218DF816
:1018C0000310110E8DF80410110C8DF80510110A7B
:1018D0008DF806108DF807200DF1030240F21B1160
:1018E000052300F0BFFC02B080BD000080B582B0CF
:1018F000002918BF01218DF807100DF107024FF4E0
:101900008E71012300F0AEFC02B080BD80B582B0C4
:101910006FF07F42914238BF0A46110C8DF80510D6
:10192000110A8DF806108DF807200DF1050240F21E
:101930000A21032300F096FC02B080BD40F2192179
:101940000022002300F08EBC40F21A210022002366
:1019500000F088BC80B582B08DF806108DF80720A5
:101960000DF1060240F21121022300F07BFC02B0CF
:1019700080BD00002DE9F04F81B09946804638B116
:10198000B9F1000F00F0F4804FEA8900C2E000BF17
:101990004DF6EF064FF2000415460F464FEA116A66
:1019A0004FEA114B080ACFF6FF76C4F2010400900B
:1019B000013605D22046002105F000F90028F7D1B4
:1019C00042F20C06204603210022C4F2010605F073
:1019D00027F9012046F8040C306800F011000128B6
:1019E0000ED0306800F01100012809D0306800F0F6
:1019F0001100012804D0306800F011000128EBD15B
:101A000056F8040C052046F8040C00BF306800F0BE
:101A1000110001280ED0306800F01100012809D013
:101A2000306800F01100012804D0306800F0110087
:101A30000128EBD156F8040C46F804AC306800F0ED
:101A4000110001280ED0306800F01100012809D0E3
:101A5000306800F01100012804D0306800F0110057
:101A60000128EBD156F8040C5FFA8BF046F8040C11
:101A7000306800F0110001280ED0306800F011002D
:101A8000012809D0306800F01100012804D0306826
:101A900000F011000128EBD156F8040C0098C0B2F8
:101AA00046F8040C306800F0110001280ED03068B0
:101AB00000F01100012809D0306800F01100012861
:101AC00004D0306800F011000128EBD156F8040C66
:101AD000F8B246F8040C00BF306800F0110001288D
:101AE0000ED0306800F01100012809D0306800F0F5
:101AF0001100012804D0306800F011000128EBD15A
:101B000056F8040CB9F1000F19D0B8F1000F4FEAE4
:101B1000890031D0002100BF41F0010292B2904211
:101B20000DD941F0020292B2904208D941F003026D
:101B300092B2904203D904318AB29042ECD8B8F103
:101B4000000F15D14FF20004C4F201044DF6EF0569
:101B5000204603210122CFF6FF7505F061F800BF92
:101B6000013505D22046002105F028F80028F7D1DC
:101B700001B0BDE8F08F00BF0022002106E000BFE9
:101B800056F8042C01318AB29042D8D9AA5C46F8A2
:101B9000042C00BF326802F01102012AF0D0326832
:101BA00002F01102012AEBD0326802F01102012A80
:101BB000E6D0326802F01102012AEBD1E0E7000022
:101BC00000281CBF00207047B0B54DF6EF054FF25E
:101BD0000004CFF6FF75C4F2010400BF013507D041
:101BE0002046002104F0EAFF0028F7D10120B0BD13
:101BF0000020B0BDF0B589B005464FF496700C4694
:101C000004F0CEFD28460121FFF7AAFD00200021A7
:101C10000026FFF76BFE0A2004F0C2FD022003211C
:101C2000CDE9001028461F2100220123CDE90266DC
:101C30000496FFF72FFC284600210122FFF7B2F996
:101C40002846FFF79DF928463F21FFF78BF92846E4
:101C5000FFF796F928466FF07741FFF797F90020D4
:101C60000121FFF743FE21782846FFF769FD207820
:101C700001281FD0022861D1217A627AA37AE67AFC
:101C800028460096FFF7D2FCA189A27B237C94F81A
:101C900011C0A67C2846CDE900C6FFF7EFFCE17B2A
:101CA0002846FFF711FD2846214609B0BDE8F0405F
:101CB00000F046B828460121FFF742FDD4F8131082
:101CC000227EE37DD4F8196028460096FFF728FCB1
:101CD00094F82900B4F81D10E27F94F8203094F8AD
:101CE000337094F82C6094F82DC094F82EE08DE8B1
:101CF000415028460497FFF741FCD4F82500D4F85A
:101D00002110CDE9061006A92846FFF77BFC94F8C0
:101D10002A1094F82B202846FFF702FDB4F82F1064
:101D2000B4F831202846FFF74DFC94F834102846CB
:101D3000FFF76EFC2846214600F002F809B0F0BD1E
:101D400070B582B041F6BC060D46D1F80110C2F262
:101D500000060446D6F8710000EE101AB8EE400AEC
:101D600001EE100A21EE000ABCEEC00A10EE101AB5
:101D70002046FFF703FDD6F83D004DF68111C3F66E
:101D80009F0188420CD34FF0000C20460221002214
:101D90000023CDF800C0FFF7A5FC06200BE000BF34
:101DA0004FF0070C2046012101220423CDF800C08A
:101DB000FFF798FC05202956EA792046FFF7CAFD6F
:101DC00020463F21FFF7CEF8D6F83D004CF2012324
:101DD0004AF228414AF21442C0F6EB33C0F6000141
:101DE000C0F60002984248F2017338BF0A464AF230
:101DF0000041C0F29333C0F600019842204628BF4C
:101E00001146FFF7C7FC20468C210022FFF762FB3A
:101E100020460221FFF73EFD2046012102B0BDE829
:101E20007040FFF729BD0000002818BF70474FF22F
:101E30000000C4F201000321012204F0F1BE000001
:101E40002DE9F04F81B00B9D8046D8B3F5B10A98CB
:101E50000021B8F1000F00F0FD80002242F00103E4
:101E6000DBB2D7B29D42C15510D942F00207FFB292
:101E7000BD42C1540AD942F00303DBB29D42C155B1
:101E800004D90432D7B2BD42C154E7D8B8F1000F2B
:101E900014D14FF20004C4F201044DF6EF052046C0
:101EA00003210122CFF6FF7504F0BAFE013505D2F9
:101EB0002046002104F082FE0028F7D101B0BDE8E1
:101EC000F08F00BF4DF6EF07CFF6FF774FF2000916
:101ED0009A4693460C46C4F201093E46013605D2A5
:101EE0004846002104F06AFE0028F7D142F20C06B1
:101EF000484603210022C4F2010604F091FE200AA4
:101F000046F8040C306800F0110001280ED030684B
:101F100000F01100012809D0306800F011000128FC
:101F200004D0306800F011000128EBD156F8040C01
:101F3000E0B246F8040C00BF306800F01100012840
:101F40000ED0306800F01100012809D0306800F090
:101F50001100012804D0306800F011000128EBD1F5
:101F600056F8040CBAF1000F5DD0B8F1000F7FF401
:101F70006DAFBAF1040F0AF0030080F093800021E6
:101F8000002850D01BF8012046F8042C326802F0DB
:101F90001102012A0ED0326802F01102012A09D082
:101FA000326802F01102012A04D0326802F01102F4
:101FB000012AEBD156F8042C012834D059444A7830
:101FC00046F8042C326802F01102012A0ED0326861
:101FD00002F01102012A09D0326802F01102012A2E
:101FE00004D0326802F01102012AEBD156F8042C19
:101FF000022818D0887846F8040C306800F01100E8
:1020000001280ED0306800F01100012809D0306896
:1020100000F01100012804D0306800F01100012800
:10202000EBD156F8040CB8F1000F7FF40FAF48461F
:102030000321012204F0F4FD013705D248460021B6
:1020400004F0BCFD0028F7D148460321002204F02B
:10205000E7FDFBE642F20C02C4F20102002308E0B5
:10206000DFB2013352F8046CDCB2A542C6557FF6EC
:102070000DAF42F8041C00BF176807F01107012FCD
:10208000EED0176807F01107012FE9D0176807F0A5
:102090001107012FE4D0176807F01107012FEBD1CA
:1020A000DEE700BF0AF0FC02002105E0043156F82B
:1020B000043C91423FF464AF1BF8013046F8043C05
:1020C000336803F01103012B0ED0336803F01103C2
:1020D000012B09D0336803F01103012B04D03368BE
:1020E00003F01103012BEBD156F8043C0BEB010379
:1020F0005C7846F8044C00BF346804F01104012CED
:102100000ED0346804F01104012C09D0346804F0B6
:102110001104012C04D0346804F01104012CEBD11B
:1021200056F8044C9C7846F8044C00BF346804F020
:102130001104012C0ED0346804F01104012C09D0D4
:10214000346804F01104012C04D0346804F0110444
:10215000012CEBD156F8044CDB7846F8043C00BF68
:10216000336803F01103012BA0D0336803F011038F
:10217000012B9BD0336803F01103012B96D03368F9
:1021800003F01103012BEBD190E70000002818BFEA
:10219000704710B54FF20004C4F20104204601213B
:1021A000002204F03DFD022004F0FAFA204601214D
:1021B0000122BDE8104004F033BD0000002818BF24
:1021C00070474FF20000C4F201000321002204F026
:1021D00027BD000008290BD8DFE801F0060A101619
:1021E0001A0A1C0E140000BF00210022FFF762BB78
:1021F0000021FFF729BB00BFFFF7A0BB0021FFF7BD
:1022000075BB00BFFFF7A0BB0121FFF76FBB00BF8D
:10221000FFF780B96FF07F41FFF778BB00281EBF42
:102220000020C0B2704742F20C00C4F2010040F836
:10223000041C00BF016801F0110101290ED00168E2
:1022400001F01101012909D0016801F011010129F2
:1022500004D0016801F011010129EBD150F8040C00
:10226000C0B270472DE9F04381B01D4681468846D3
:1022700010B1002D54D185E04DF6EF064FF2000469
:102280001746CFF6FF76C4F2010400BF013605D22F
:102290002046002104F092FC0028F7D142F20C06FF
:1022A000204603210022C4F2010604F0B9FC4FEAE3
:1022B000182046F8040C00BF306800F01100012817
:1022C0000ED0306800F01100012809D0306800F00D
:1022D0001100012804D0306800F011000128EBD172
:1022E00056F8040C5FFA88F046F8040C306800F0E9
:1022F000110001280ED0306800F01100012809D02B
:10230000306800F01100012804D0306800F011009E
:102310000128EBD156F8040CBDB1B9F1000F35D04E
:10232000002000BF40F00101C9B28D420DD940F03C
:102330000201C9B28D4208D940F00301C9B28D42F1
:1023400003D90430C1B28D42ECD8B9F1000F19D1D4
:102350004FF20005C4F2010528460321012204F0D2
:102360005FFC40F21B1080450CD04DF6EF04CFF619
:10237000FF7400BF013405D22846002104F01EFC82
:102380000028F7D101B0BDE8F08300BF002005E0D0
:1023900056F8041C0130C1B28D42D6D9C1B2795C65
:1023A00046F8041C316801F011010129F0D03168B0
:1023B00001F011010129EBD0316801F0110101296F
:1023C000E6D0316801F011010129EBD1E0E700000E
:1023D000FEE70000704700007047000070470000F3
:1023E00010B540F23834C2F20004207878B940F2D7
:1023F0000000C2F2000000214FF4806200234FF081
:10240000FF304FF4E13004F05BFE01202070606883
:10241000012813DBA06841F63411C2F20001085C08
:10242000A1680131A160A168B1F5007F04BF00215E
:10243000A16061680139616010BD00BF4FF0FF30DD
:1024400010BD000080B540F20000C2F20000002183
:102450004FF4806200234FF0FF304FF4E13004F07E
:102460002FFE40F23830C2F200000121017080BD21
:1024700010B506F06DF940F25834C2F20004201D88
:1024800006F0A8F90120207010BD000080B568B1E9
:1024900040F2B430C2F200004FF48061FF22FDF739
:1024A00055FEBDE8804000F00DB800BF40F2B430EA
:1024B000C2F200004FF48061FDF74FFEBDE880409E
:1024C000AFF3008070B5B020002100F053F9002078
:1024D000002100F04FF91020002100F04BF940F2EC
:1024E000B4344FF0FF35C2F2000400BF60194078E9
:1024F000012100F03FF901357F2DF7D1B1200021F6
:1025000000F038F90020002100F034F910200021FB
:1025100000F030F904F17F05802600BF15F8010FA7
:10252000012100F027F9013EF8D1B220002100F08E
:1025300021F90020002100F01DF91020002100F0F9
:1025400019F904F1FF05802615F8010F012100F0AB
:1025500011F9013EF8D1B320002100F00BF9002061
:10256000002100F007F91020002100F003F904F227
:102570007F15802615F8010F012100F0FBF8013EC0
:10258000F8D1B420002100F0F5F80020002100F07F
:10259000F1F81020002100F0EDF804F2FF1580267C
:1025A00015F8010F012100F0E5F8013EF8D1B52042
:1025B000002100F0DFF80020002100F0DBF81020FF
:1025C000002100F0D7F804F27F25802615F8010FCE
:1025D000012100F0CFF8013EF8D1B620002100F033
:1025E000C9F80020002100F0C5F81020002100F0FB
:1025F000C1F804F2FF25802615F8010F012100F033
:10260000B9F8013EF8D1B720002100F0B3F800205E
:10261000002100F0AFF81020002100F0ABF804F228
:102620007F34802514F8010F012100F0A3F8013D4B
:10263000F8D170BD80B500F0BFF80A2004F0B0F802
:1026400000F066F8AE20002100F094F80020002190
:1026500000F090F81020002100F08CF840200021BC
:1026600000F088F8B020002100F084F881200021DB
:1026700000F080F8FF20002100F07CF8A12000216C
:1026800000F078F8A620002100F074F8A8200021BE
:1026900000F070F83F20002100F06CF8C820002105
:1026A00000F068F8D320002100F064F80020002139
:1026B00000F060F8D520002100F05CF880200021B7
:1026C00000F058F8D920002100F054F8F120002142
:1026D00000F050F8DA20002100F04CF81220002120
:1026E00000F048F8DB20002100F044F83020002101
:1026F00000F040F88D20002100F03CF8142000216B
:1027000000F038F8AF200021BDE8804000F032B87A
:1027100010B54FF20044C4F2010420460921012201
:1027200004F07EFA642004F03BF8204609210022E0
:1027300004F076FA642004F033F8204609210122DF
:10274000BDE8104004F06CBA01F0070301F0F80195
:102750004FF0010C00EB011040F2B431002A0CFAEA
:1027600003F2C2F200010B5C0CBF23EA02021A431F
:102770000A547047B0B54FF20005C4F201050A468D
:102780000446002905F580604FF0070118BF0122BB
:1027900004F046FA28460F21002204F041FAA5F57C
:1027A0004040214606F076F928460F210122BDE877
:1027B000B04004F035BA0000B0B584B04FF2004428
:1027C000C4F20104A4F580600F21032204F032F961
:1027D00020460921032204F02DF920460721042276
:1027E000072504F027F920460C21042204F0ECF917
:1027F00020460E21042204F0E7F91820012105F0FB
:1028000021FB48F28040C0F21E0001900020A4F598
:1028100044440290ADF80D0001A920468DF80C50FB
:1028200006F05AF92046012106F04EF904B0B0BD79
:102830007047000080B582B00021ADF806100DF1A0
:1028400006020721022300F001FE02B080BD000055
:1028500080B582B049BAADF806100DF1060202212A
:10286000022300F0F3FD02B080BD0000B0B582B0DD
:1028700014460D460DF105021721032300F038FB25
:102880009DF80500BDF80610287008BA000C2080DD
:1028900002B0B0BD80B582B00DF105021221032354
:1028A00000F026FBBDF8060000BA000C02B080BDA7
:1028B00080B582B00DF106021521022300F018FB4D
:1028C0009DF8070002B080BD80B582B00DF107020F
:1028D000C021012300F00CFB9DF8070002B080BD71
:1028E0009422002940F6AC0118BF962200F05EBE8B
:1028F00080B582B08DF806108DF807200DF1060224
:102900008F21022300F0A2FD02B080BD10B5044665
:1029100000F072FD2046D12100220023BDE81040C6
:1029200000F094BD80B582B08DF807100DF107025C
:102930009D21012300F08AFD02B080BD80B582B0E8
:10294000DDF810C04FEA112E8DF80110110A8DF834
:102950000210190A8DF804104FEA1C218DF803208B
:102960008DF805308DF806106A46082108238DF889
:1029700000E08DF807C000F069FD02B080BD0000E6
:10298000C1210022002300F061BD0000B0B5144653
:102990000A4640F2CD61054600F008FE284640F2A6
:1029A000CE612246BDE8B04000F000BEF0B581B077
:1029B00016460F460A0A40F2BC611C46054600F066
:1029C000F5FDFAB2284640F2BD6100F0EFFD320A93
:1029D000284640F2BE6100F0E9FDF2B2284640F21E
:1029E000BF6100F0E3FD28464FF4D76100F03AFBE9
:1029F00000F0FE00C4F30021421828464FF4D761CE
:102A000000F0D4FDE2B2284640F2B96101B0BDE861
:102A1000F04000F0CBBD000070B582B0DDF818C00A
:102A20004DF6836EC4F21B3EACFB0E452E0B43F6F7
:102A3000095506FB15C541F6846444EA853540F224
:102A4000000CA5FB0E5EC3F6095CBCFBF1F56FF054
:102A50007F44A54228BF254661454FEA1E3101EB60
:102A6000863188BF0125A14238BF0C46290C8DF85C
:102A70000010290A8DF80110210C8DF80510210A8B
:102A80008DF803208DF804308DF806106A468B21EE
:102A900008238DF802508DF8074000F0D7FC02B0F3
:102AA00070BD0000F0B583B0012998BF01210F0A65
:102AB0008DF80410511EC9B2072A8DF8037028BF83
:102AC00007220329DDF830C0DDE90A4EDDE908659B
:102AD00038BF04228DF80520402B28BF40238DF8F5
:102AE00006300DF103028C210923022E28BF022695
:102AF0008DF807608DF808508DF809408DF80AE0D0
:102B00008DF80BC000F0A2FC03B0F0BDB0B50A78A0
:102B10000C464FF4D861054600F048FD627828461F
:102B200040F2C16100F042FDA278284640F2C26145
:102B300000F03CFDE278284640F2C36100F036FD2B
:102B40002279284640F2C46100F030FD62792846BF
:102B500040F2C56100F02AFDA279284640F2C66124
:102B600000F024FDE279284640F2C761BDE8B0409C
:102B700000F01CBDB0B582B00446951F084618BFD2
:102B80000125052998BF05200C2828BF0C208DF8A9
:102B9000040000208DF805208DF806300A2988BF32
:102BA00001208DF8070001AA20468B21042300F0A4
:102BB0004DFC204640F6890100F054FA00F0FB007D
:102BC00040EA8502204640F6890100F0EFFC02B0A1
:102BD000B0BD000070B582B00446DDE906060129EB
:102BE00098BF01210D0A8DF803108DF804208DF88F
:102BF00005308DF806000DF1020220468C210623D7
:102C00008DF802508DF8076000F020FC204640F25D
:102C1000367100F027FA00F0FB02204640F23671D0
:102C2000002E08BF043200F0C1FC02B070BD0000ED
:102C300080B582B08DF80410072A28BF0722012131
:102C40008DF805208DF806308DF8071001AA952122
:102C5000042300F0FBFB02B080BD000080B582B011
:102C60008DF807100DF107028A21012300F0EEFB19
:102C700002B080BD80B582B009BA019101AA862157
:102C8000042300F0E3FB02B080BD0000B0B582B0C9
:102C90000C46054600F0AAFB6FF07F40844238BF27
:102CA0002046010C8DF80510010A8DF806108DF8EC
:102CB00007000DF1050228468221032300F0C6FB20
:102CC00002B0B0BD80B582B062F382018DF807100A
:102CD0000DF107028421012300F0B8FB02B080BD92
:102CE00080B582B0002918BF01218DF807100DF1C1
:102CF00007028021012300F0A9FB02B080BD000083
:102D0000B0B582B00C46054600F076FB6FF07F4010
:102D1000844238BF2046010C8DF80510010A8DF859
:102D200006108DF807000DF10502284683210323C4
:102D300000F08CFB02B0B0BD10B5044600F05CFBA7
:102D40002046D22100220023BDE8104000F07EBBC7
:102D500010B582B08DF806108DF807200DF106022F
:102D60008E210223044600F071FB204640F6D80174
:102D700000F078F940F01E02204640F6D80100F03D
:102D800015FC02B010BD0000F0B585B00C46097806
:102D90000546FFF763FF207810B3012862D1E1797F
:102DA000227A637A2846FFF7E5FEB4F80B10627BBF
:102DB000237C94F811C094F812E02846CDE900CEA7
:102DC000FFF708FFE27B28464FF4E86100F0EEFBD6
:102DD000A27B284640F2417100F0E8FB3AE000BFD8
:102DE00028460021FFF73AFFD4F81310227EE37D36
:102DF000D4F819C02846CDF800C0FFF70DFE94F8AE
:102E00002900B4F81D10E27F94F8203094F82E6069
:102E100094F8337094F82CC094F82DE08DE80150AC
:102E2000284603960497FFF73DFE04F1210128464A
:102E3000FFF76CFE94F82A1094F82B202846FFF731
:102E4000A5FDB4F82F10B4F8312094F8343028469A
:102E5000FFF7ACFD2846214605B0BDE8F04000F084
:102E600003B800BF05B0F0BD70B582B00D46D1F813
:102E7000011004460846FDF7CAFB9FED1B0B53ECFF
:102E8000102BFDF744FBFDF7CFFB01462046FFF773
:102E9000F1FE2046002180220026FFF729FD204672
:102EA000042107220023FFF7C3FE204640F6E70176
:102EB000382200F07BFB6979AA792046FFF748FFAA
:102EC00020460121FFF70CFD20460121FFF72AFDD6
:102ED00020464321032200230096FFF72FFD02B076
:102EE00070BD00BF00BF00BF000000008084EE3F47
:102EF0002DE9F0411C461546804608B3B8F1010F94
:102F00001CD142F20C00C4F2010040F8041C00BFC6
:102F1000016801F0110101290ED0016801F01101D1
:102F2000012909D0016801F01101012904D00168CB
:102F300001F011010129EBD150F8040CECB954E077
:102F40004BF6BC5249F20810CFF6F072C4F2000002
:102F500004320CD00368DB0509D50368DB0544BFE8
:102F600003685FEAC35302D50368DB05F0D400228F
:102F70004260084603F0B6FFBCB3B8F1000F29D099
:102F80000020B8F1010F51D142F20C01C4F201014D
:102F9000FF2207E0C3B2013051F8047CC6B2B4424C
:102FA000EF5422D941F8042C0B6803F01103012BD4
:102FB000F0D00B6803F01103012BEBD00B6803F08A
:102FC0001103012BE6D00B6803F01103012BEBD1A9
:102FD000E0E700BF002700BFFF20FEB203F082FF42
:102FE0000137F9B28C42A855F6D8B8F1000F01D0DC
:102FF000BDE8F0814BF6BC5049F20811CFF6F070F5
:10300000C4F2000101224A60043008BFBDE8F0812B
:103010000A68D205ECD50A68D20544BF0A685FEA9F
:10302000C252E5D50A68D205EED4E1E7002100BF1F
:1030300041F00102D2B2CBB29442E854D5D941F06A
:103040000203DBB29C42A854CFD941F00302D2B2B2
:103050009442E854C9D90431CBB29C42A854E7D871
:10306000C3E7000080B582B00DF10702012300F034
:1030700005F89DF8070002B080BD00002DE9F04181
:103080001D46804600284FEA11266DD0B8F1010F89
:1030900068D142F20C00C4F201001D2340F8043C48
:1030A000036803F01103012B0ED0036803F0110332
:1030B000012B09D0036803F01103012B04D003682E
:1030C00003F01103012BEBD150F8043C40F8046CE1
:1030D000036803F01103012B0ED0036803F0110302
:1030E000012B09D0036803F01103012B04D00368FE
:1030F00003F01103012BEBD150F8043CC9B240F8A6
:10310000041C00BF016801F0110101290ED0016803
:1031100001F01101012909D0016801F01101012913
:1031200004D0016801F011010129EBD150F8041C11
:10313000FF2140F8041C00BF016801F011010129C2
:103140000ED0016801F01101012909D0016801F0D8
:103150001101012904D0016801F011010129EBD10D
:1031600050F8040C55BB9AE00C464BF6BC5149F2A2
:1031700008101746CFF6F071C4F2000004310CD0ED
:103180000268D20509D50268D20544BF02685FEA29
:10319000C25202D50268D205F0D4002141601D2040
:1031A00003F0A0FE304603F09DFEE0B203F09AFE6D
:1031B000FF2003F097FE3A46002D70D0B8F1010FC2
:1031C0000CD0B8F1000F40F08B80541EFF2003F0AC
:1031D00089FE013D04F8010FF8D160E042F20C00D5
:1031E000C4F20100042D05F0030180F07F8000236C
:1031F000002954D0FF2740F8047C00BF076807F07F
:103200001107012F0ED0076807F01107012F09D011
:10321000076807F01107012F04D0076807F01107AE
:10322000012FEBD150F8047C0129D75437D0FF2768
:1032300040F8047C076807F01107012F0ED00768DB
:1032400007F01107012F09D0076807F01107012FB8
:1032500004D0076807F01107012FEBD150F8047C68
:103260001A44022957701AD0FF2140F8041C00BFED
:10327000016801F0110101290ED0016801F011016E
:10328000012909D0016801F01101012904D0016868
:1032900001F011010129EBD150F8040C9070B8F144
:1032A000000F01D0BDE8F0814BF6BC5049F2081187
:1032B000CFF6F070C4F2000101224A60043008BF6A
:1032C000BDE8F0810A68D205ECD50A68D20544BF92
:1032D0000A685FEAC252E5D50A68D205EED4E1E792
:1032E00010462946FCF739FFBDE8F08125F00306BA
:1032F0000023FF2507E000BF50F8044C0433B3421D
:10330000D4553FF475AF40F8045C00BF076807F080
:103310001107012F0ED0076807F01107012F09D000
:10332000076807F01107012F04D0076807F011079D
:10333000012FEBD150F8047CD75443F0010740F83B
:10334000045C00BF046804F01104012C0ED0046872
:1033500004F01104012C09D0046804F01104012CBC
:1033600004D0046804F01104012CEBD150F8044C93
:10337000D45543F0020740F8045C00BF046804F031
:103380001104012C0ED0046804F01104012C09D0A2
:10339000046804F01104012C04D0046804F0110442
:1033A000012CEBD150F8044CD45543F0030740F8FE
:1033B000045C00BF046804F01104012C9CD0046874
:1033C00004F01104012C97D0046804F01104012CBE
:1033D00092D0046804F01104012CEBD18CE70000BA
:1033E000002818BF704703F03DBD0000002818BF3B
:1033F000704703F067BD0000002818BF704703F056
:1034000069BD000008290BD8DFE801F0060A101694
:103410001A0A1C0E140000BF00210022FFF752BC44
:103420000021FFF733BC00BFFFF770BA0021FFF7A0
:1034300057BC00BFFFF780BC0121FFF751BC00BFA4
:10344000FFF79EBA6FF07F41FFF75ABC2DE9F041BC
:103450001D4617460646884600B3012E1CD142F28F
:103460000C00C4F2010040F8048C00BF016801F0B8
:10347000110101290ED0016801F01101012909D0C3
:10348000016801F01101012904D0016801F0110166
:103490000129EBD150F8040CF5B965E04BF6BC51AD
:1034A00049F20810CFF6F071C4F2000004310CD0DC
:1034B0000268D20509D50268D20544BF02685FEAF6
:1034C000C25202D50268D205F0D4002141604046C4
:1034D00003F008FD002D47D0002E3BD00020012E28
:1034E00032D142F20C01C4F2010105E051F8042C82
:1034F0000130C2B2954237D9C2B2BA5C41F8042C4D
:103500000A6802F01102012AF0D00A6802F01102E2
:10351000012AEBD00A6802F01102012AE6D00A68FB
:1035200002F01102012AEBD1E0E700BF40F00201F6
:10353000C9B28D4218D940F00301C9B28D4213D9E6
:103540000430C1B28D420FD940F00101C9B28D42A1
:10355000ECD809E0002400BFE0B2385C03F0C2FC04
:103560000134E0B28542F7D846B949F20810C4F2F6
:1035700000000121B8F1840F416001D1BDE8F08164
:103580004BF6BC51CFF6F071043108BFBDE8F081B5
:103590000268D205F2D50268D20544BF02685FEA2C
:1035A000C252EBD50268D205EED4E7E780B582B00F
:1035B0008DF807200DF10702012300F003F802B097
:1035C00080BD00002DE9F0411C4616460546002846
:1035D0004FEA112752D0012D4ED142F20C00C4F215
:1035E00001000D2240F8042C026802F01102012AA9
:1035F0000ED0026802F01102012A09D0026802F01E
:103600001102012A04D0026802F01102012AEBD152
:1036100050F8042C40F8047C026802F01102012AE0
:103620000ED0026802F01102012A09D0026802F0ED
:103630001102012A04D0026802F01102012AEBD122
:1036400050F8042CC9B240F8041C00BF016801F016
:10365000110101290ED0016801F01101012909D0E1
:10366000016801F01101012904D0016801F0110184
:103670000129EBD150F8040C34BB6DE088464BF6C1
:10368000BC5149F20810CFF6F071C4F200000431C9
:103690000CD00268D20509D50268D20544BF026881
:1036A0005FEAC25202D50268D205F0D4002141601F
:1036B0000D2003F017FC384603F014FC5FFA88F085
:1036C00003F010FC002C47D0002D3BD00020012D32
:1036D00032D142F20C01C4F2010105E051F8042C90
:1036E0000130C2B2944237D9C2B2B25C41F8042C64
:1036F0000A6802F01102012AF0D00A6802F01102F1
:10370000012AEBD00A6802F01102012AE6D00A6809
:1037100002F01102012AEBD1E0E700BF40F0020104
:10372000C9B28C4218D940F00301C9B28C4213D9F6
:103730000430C1B28C420FD940F00101C9B28C42B1
:10374000ECD809E0002700BFF8B2305C03F0CAFBF8
:103750000137F8B28442F7D815B1BDE8F08100BF57
:103760004BF6BC5049F20811CFF6F070C4F20001DC
:1037700001224A60043008BFBDE8F0810A68D20522
:10378000EBD50A68D20544BF0A685FEAC252E4D5A5
:103790000A68D205EED4E0E740F2B470C2F200004D
:1037A000016801310A29016006D180B5002101605C
:1037B00003F016FBBDE8804040F25430C2F2000036
:1037C0000078012818BF704740F25630C2F200005E
:1037D000018801390A04018008BF00F027BA704748
:1037E0004EF68850CEF2000001680C2241F47001C0
:1037F0000160C4F200021368082143F08003C4F2A0
:1038000002011360CA68012363F31342CA600A68A5
:10381000920709D40A6892075CBF0A685FEA82725D
:1038200002D40A689207F2D5E02100F8661C4EF235
:103830000040CEF20000C021017041708170C17063
:10384000017141718171C171017241728172C172E4
:10385000017341738173C173017441748174C174C4
:10386000017541758175C175017641768176C176A4
:10387000017741778177C17780F8201080F8211097
:1038800080F8221080F8231080F8241002F056BF30
:10389000B0B582B04AF20004C4F200040DF1070290
:1038A00020460121012505F09DF99DF8070001281A
:1038B00008D12046012105F079F941F68830C2F29D
:1038C0000000057002B0B0BDB0B582B04AF200048D
:1038D000C4F201040DF1070220460121012505F083
:1038E00081F99DF80700012808D12046012105F043
:1038F0005DF941F68830C2F20000457002B0B0BDFB
:1039000000F0DEB970470000FEE700004EF60C50F4
:10391000BFF34F8FCEF200000168042201F4E06192
:10392000C0F2FA5211430160BFF34F8F00BF00BFD6
:1039300000BF00BFFAE700004EF60C50BFF34F8FF8
:10394000CEF200000168042201F4E061C0F2FA52F4
:1039500011430160BFF34F8F00BF00BF00BF00BF26
:10396000FAE7000047F21401C4F201010A680240BC
:10397000824218BF70470A68104308607047000011
:103980000021B1EB103F18BF704747F20401C4F2A9
:1039900001010A6840F6FF739A430A600A681043FF
:1039A0000860704747F20401C4F201010A6822F47A
:1039B00040120A600A68104308607047002947F205
:1039C0001801C4F201010A680CBF22EA000010438A
:1039D0000860704748F248010128C4F2000107D08E
:1039E000002818BF7047086820F040000860704742
:1039F000086840F0400008607047000080B547F25A
:103A00000802C4F201026FF01F03043203EB8003CB
:103A100008283CBF47F20802C4F2010238BF830005
:103A20004FF00F0CD2F800E00CFA03F02EEA000081
:103A300099400843106080BD47F20001C4F20101C3
:103A40000A6808B162B17047D007FCD00868400727
:103A500048BF704702200A6810430860704700BFE3
:103A600001200A6810430860704700000000000051
:103A70002DE9F04381B0894642F23001C1F20001E4
:103A8000D1E9001490460522002818BF0D2221FA22
:103A900002F04FF00405C0B218BF0D25FCF7B7FDCA
:103AA0009FED190B53EC102BFCF7BFFC9FED180B8F
:103AB00053EC102BFCF712FC064624FA05F06FF3CA
:103AC0005F200F46FCF7A3FD9FED130B53EC102B6B
:103AD000FCF7ABFC9FED120B53EC102BFCF7FEFB3D
:103AE00004460D4630463946FCF7CAFDC9F80000C9
:103AF00020462946FCF7C4FDC8F8000001B0BDE827
:103B0000F08300BF00BF00BFFCA9F1D24D62603F4F
:103B1000000000000000F03FFCA9F1D24D62503FD0
:103B2000FCA9F1D24D62D0BF47F21C00C4F20100E3
:103B300000686FF31F30704747F21401C4F20101AF
:103B400009680140081AB0FA80F040097047000087
:103B500048F24401C4F20001086820F47072642045
:103B60000A6002F04DBE000047F20001C4F20101FC
:103B70000A6838B1D0070CD00868800709D404203F
:103B800004E000BF500758BF704708200A68104380
:103B90000860704770B540F2543544F240224CF250
:103BA0000004C2F200054000C0F20F02C4F200049B
:103BB000B2FBF0F669802046002100F04DF8204667
:103BC0000121E662012400F047F82C7070BD00006E
:103BD00010B584B008200121012404F033F940F22B
:103BE000F3108DF809404CF2000401901F20C4F23C
:103BF000000400906946204600F04CF82046012160
:103C000000F038F82046012100F02CF84EF20010A8
:103C1000CEF200004FF00061C0F880110160204634
:103C2000002100F019F804B010BD0000B0B54CF24E
:103C30000004C4F2000420460021002500F00CF826
:103C400004F59A300F21002202F0EAFF40F25430CE
:103C5000C2F200000570B0BD026822F001021144FA
:103C600001607047C268012922F0010208BF0132D9
:103C7000C26070470268012922F0040208BF0432C2
:103C80000260704700690840401AB0FA80F04009AD
:103C90007047000080B50268D0F804E04B7A91F8D4
:103CA00008C022F0800263F3C7122EF0700343EACB
:103CB0000C0302604360D1E90012C262816280BDE0
:103CC00010B543F20004C4F200042046102104F0B1
:103CD000CDFF08B110BD00BF204605F079F840F2D5
:103CE0003831C2F20001CA6841F63413C2F200034F
:103CF0009854C8680130C860486801304860C86896
:103D0000B0F5007F04BF0020C8604868B0F5007FB0
:103D1000D8BF10BD0020C8604860886010BD00009A
:103D2000022988BF704702A050F8210005F0E0BDCD
:103D3000D7A50008A6A60008CEA6000800210022EC
:103D4000FCF75BBA00210022FCF78FBA84460028FA
:103D50004FF0010018BF002900D17047CCF80010C7
:103D600000200CF108010DC18CF804007047000020
:103D70002DE9F04F81B0804620B3D8F8000008B399
:103D800008F108040026002713E000BF0846FCF7EE
:103D9000F9F90146AF42C8BF3D468E42C8BF314621
:103DA0002268A068002A1CBF0E462F4604F11004AA
:103DB00050B1FCF7E7F954F8041C05460029E5D199
:103DC0000021E7E70026002729A005F091FD4AF62B
:103DD000CB40C0F6000005F08BFDB8F1000F3DD0E0
:103DE000D8F80020D2B37D424AF61E574AF6A54ABB
:103DF000764208F108040FF2A808C0F600070FF297
:103E00009009C0F6000A0FF28C0B09E040461146FB
:103E100005F0D8F8384605F06BFDA2681034EAB119
:103E200020680028F2D04846294605F0CBF854F81F
:103E3000042C2AB11078002808BF524601E000BFC8
:103E400052465846314605F0BDF861680029E1D078
:103E500008780028DED011A0DAE700BF4AF61E502D
:103E6000C0F6000005F044FD012001B0BDE8F08F70
:103E70003C636F6D6D616E643E203C617267733EA2
:103E8000203C68656C7020746578743E0D000000FD
:103E9000252A730020252A730000000020257300C6
:103EA000202D2D2D202573202D2D2D002DE9F04FB7
:103EB0009DB000284FF0FF0B18BF002904D14FFA26
:103EC0008BF01DB0BDE8F08F8246D0E9028008EB90
:103ED0000203834280F07283DAF800001446404403
:103EE000FCF714F9DAF808004FF0000B2044002426
:103EF0008045CAF80800E2D20CA94AF620530431E2
:103F0000C0F600030027079105E000BF08F1010893
:103F1000804580F05B83DAF8001011F80890B9F161
:103F20000A0F02D0B9F10D0FF0D1B84501F80840E1
:103F300000F00C82DAF80000DAF81010C5190B91C5
:103F4000284629460A78082A2DD000BF92B300F8E7
:103F5000012B4A78082A13D1A84288BF01388A78F1
:103F6000082A13D032B300F8012BCA78082A13D1DB
:103F7000A84288BF013804310A78082AE6D112E045
:103F8000C2B100F8012B8A78082AEBD1A84288BF79
:103F90000138CA78082AEBD062B100F8012B04314D
:103FA0000A78082AD2D1A84288BF01384A78082A5C
:103FB000E6D1D1E70470284619461E46FCF7E9F819
:103FC000295C3346002900F0C1812E18304619467D
:103FD0000A97FCF7ECF8315C3718002918BF07F88E
:103FE000014B0B98002800F093810468002C00F02E
:103FF0009381CDF824B000F1080B06E0DBF808400F
:104000000BF1100B002C00F08581DBF8000000287C
:10401000F4D030462146FCF7DBF80028EED14AF612
:104020002056C0F60006384631460C94FCF7B1F82D
:10403000395C002900F0A4813C1820463146FCF789
:10404000B6F8215C271800291CBF002007F8010BD7
:10405000384631460D94FCF79CF8395C002900F095
:1040600091813C1820463146FCF7A1F8215C2618C6
:1040700000291CBF002006F8010B0E944AF62054BC
:10408000C0F6000430462146FCF783F8315C0A9FF5
:10409000002900F07F81214634182046FCF787F87C
:1040A000215C261800291CBF002006F8010B0F9484
:1040B0004AF62054C0F6000430462146FCF769F861
:1040C000315C002900F06881214634182046FCF755
:1040D0006EF8215C261800291CBF002006F8010B91
:1040E00010944AF62054C0F6000430462146FCF7EE
:1040F00050F8315C002900F05181214634182046E7
:10410000FCF755F8215C261800291CBF002006F892
:10411000010B11944AF62054C0F6000430462146A3
:10412000FCF737F8315C002900F03A812146341859
:104130002046FCF73CF8215C261800291CBF002013
:1041400006F8010B12944AF62054C0F600043046DB
:104150002146FCF71EF8315C002900F0238121463E
:1041600034182046FCF723F8215C261800291CBFD0
:10417000002006F8010B13944AF62054C0F6000400
:1041800030462146FCF705F8315C002900F00C812F
:10419000214634182046FCF70AF8215C261800292D
:1041A0001CBF002006F8010B14944AF62054C0F6F8
:1041B000000430462146FBF7ECFF315C002900F09B
:1041C000F580214634182046FBF7F1FF215C2618C4
:1041D00000291CBF002006F8010B15944AF6205454
:1041E000C0F6000430462146FBF7D3FF315C0029BE
:1041F00000F0DE80214634182046FBF7D8FF215C12
:10420000261800291CBF002006F8010B16944AF658
:104210002054C0F6000430462146FBF7BAFF315C5B
:10422000002900F0C780214634182046FBF7BFFF65
:10423000215C261800291CBF002006F8010B1794EA
:104240004AF62054C0F6000430462146FBF7A1FF91
:10425000315C002900F0B080214634182046FBF77D
:10426000A6FF215C261800291CBF002006F8010BC0
:1042700018944AF62054C0F6000430462146FBF755
:1042800088FF315C002900F09980214634182046CF
:10429000FBF78DFF215C261800291CBF002006F8C3
:1042A000010B4AF620513046C0F600011994FBF785
:1042B00070FF315C002900F0838034184AF62051E9
:1042C0002046C0F60001FBF772FF215C261800298A
:1042D0001CBF002006F8010B4AF620513046C0F6FC
:1042E00000011A94FBF755FF315C00296AD034189D
:1042F0004AF620512046C0F60001FBF758FF215C2A
:10430000002900F05981002121540024012149E1B4
:1043100000270CE0DDF824B0002700242846B3A1D4
:10432000FBF756FF18B90B98FFF722FD0746002F41
:104330004AF620530A9FC0F6000307D136B1304633
:1043400000211D46FFF7ECFC2B4600BFB9F10A0F18
:1043500008BFB84502D00BF1010B05E09AF8040044
:104360000D2818BF0BF1010B08F10108DAF808005D
:1043700047468AF804908045FFF4CDAD26E100BFA2
:10438000012300E002230A9F00245BF8046C06BBB3
:10439000F2E000BF032316E0042314E0052312E03B
:1043A000062310E007230EE008230CE009230AE0AF
:1043B0000A2308E00B2306E00C2304E00D2302E0AF
:1043C0000E2300E00F2300245BF8046C002E00F0A5
:1043D000D38030783F2803D17078002800F0CC805B
:1043E00030460293FBF7CEFE059030462A21FBF7BC
:1043F000BFFE78B1059BF118013988424FF00201E8
:1044000040F0D0803246029E012B00F0CB80981EF7
:10441000009003E0059B3246029E0093701E0690BA
:1044200000F09E80D0182E240026002703900492CE
:104430002BE000BF0798089450F8274004F0E6FDF1
:10444000014601900020086020461CA90022FBF7CD
:104450000CFF01980068002840F083801C98001B26
:1044600001902046FBF78EFE01998142DDE904238D
:10447000089C40F076800698013787424FF000068E
:1044800028BF0126B84200F06C809F4204DAD05D5C
:104490002A2818BF044605E0039810F8010C2A28C2
:1044A00040F05F80A4F16200152800F25A80DFE836
:1044B00000F00D5858580D585858585858585858D2
:1044C0005858580F5823350BB4E700BFD3E700BF47
:1044D0000798089450F8274004F098FD0146019091
:1044E0000020086020461CA90022FBF786FE0198E8
:1044F00000680028B2D034E00798089450F82700EC
:10450000019004F083FD04460020206001981CA95E
:104510000022FBF7AAFEFF2813D922E0079808948F
:1045200050F82700019004F071FD0446002020603F
:1045300001981CA90022FBF798FE0021B1EB104F57
:104540000FD1206868B91C9901980C1AFBF71AFE64
:104550008442DDE90423089C3FF48DAF01E000BFF5
:104560000126F0074FF002011AD0029B00980A9F23
:1045700083424FF0000415DDDBF8002018460CA93B
:1045800090475BF8080CDDF824B04AF62053002869
:10459000C0F600037FF4DAAE00260127BEE600BFB6
:1045A0000A9F00242846FFF7BBFBDDF824B04AF63B
:1045B0002053C0F60003C9E60121F2E74FF0FE0BDD
:1045C0004FFA8BF01DB0BDE8F08F00BF002F3FF415
:1045D00076ACC21BDAF80000CAF80820C119FBF754
:1045E00095FD4FFA8BF01DB0BDE8F08F68656C70DB
:1045F0000000000080B54868FFF7A4FBC0B202F0DD
:1046000095FD0AA104A2002818BF11460846BDE87E
:10461000804005F06DB900BF434C4541525F4552A3
:10462000524F52533A204F4B0D000000434C45412E
:10463000525F4552524F52533A204552524F520DFB
:10464000000000002DE9F04148680C46FFF77AFBB6
:10465000A16806460846FFF775FBE1680446084670
:10466000FFF770FB05460EA005F042F9AFB2A5B208
:10467000AF4238BFBDE8F081F6B20FF2300800BF9C
:104680003046294603F062F802464046294604F0C7
:1046900099FC0134A5B2BD42F2D9BDE8F08100BF5A
:1046A00044554D505F524547533A0D003078253000
:1046B00034582C3078253032580D0A0080B54868BF
:1046C000FFF740FBC0B2022808D34AF23060C0F6C0
:1046D0000000BDE8804005F00BB900BF20B109A083
:1046E000BDE8804005F004B941F6BC00C2F200000C
:1046F00090F82E1090F82F2008A0BDE8804004F01C
:1047000061BC00BF46535F4745545F414444523A41
:1047100020322C544F444F0D0000000046535F4799
:1047200045545F414444523A20302C307825303291
:10473000582C3078253032580D0A000080B5486872
:10474000FFF700FBC0B2022804D315A0BDE88040EB
:1047500005F0CEB890B141F6BC00C2F20000B0F84E
:104760006B10B0F86D2090F870304AF2E440C0F65B
:104770000000BDE8804004F025BC00BF41F6BC004D
:10478000C2F20000B0F83310B0F8352090F838309D
:104790004AF25C40C0F60000BDE8804004F012BC64
:1047A00046535F4745545F43524357483A20494E6A
:1047B00056414C494420524144494F0D00000000ED
:1047C00080B584B04868FFF7BDFAC1B2022905D3AD
:1047D00027A004B0BDE8804005F08AB841F6BC00CF
:1047E000C2F2000081B190F85320093AD3B2162BDF
:1047F0000FD849F6A013D2B2C0F6000303EBC202F1
:1048000092ED000B07E000BFC27E093AD3B2172B2E
:10481000EFD39FED070BD0F81720037FD0F81D00D2
:104820008DED000B029004A004F0CCFB04B080BD21
:10483000000000000000F0BF46535F4745544D4F55
:1048400044504152414D533A2025640D0A42523D95
:1048500025640D0A53483D25640D0A42573D252E17
:1048600031660D0A4445563D25640D0A00000000DE
:1048700046535F4745544D4F44504152414D533A82
:1048800020494E56414C494420524144494F0D0065
:104890002DE9F04381B04868FFF754FAC0B201280F
:1048A00006D938A001B0BDE8F04305F021B800BF3B
:1048B00030B13DA001B0BDE8F04305F019B800BF2C
:1048C00041F6BC00C2F20000B0F8212090F823307D
:1048D00090F8245090F8319090F82D4090F8307076
:1048E00090F8326090F8378037A00021009504F0EE
:1048F00069FB4AF2E8504AF28761C0F60000C0F650
:104900000001012C08BF01464AF21760C0F6000002
:10491000002C18BF084604F0EBFF4AF2BF504AF2E1
:104920007E61C0F60000C0F60001002F18BF0846E7
:1049300004F0DEFF4AF26C50C0F60000494604F075
:1049400041FB062E06D849F65820C0F6000050F864
:10495000260003E04AF2CA50C0F6000004F0C8FF87
:104960004AF20C604AF22661C0F60000C0F600016F
:10497000B8F1000F18BF084601B0BDE8F04304F0DD
:10498000B7BF00BF46535F4745545F5041434B4557
:1049900054504152414D533A20494E56414C49449E
:1049A00020524144494F0D0046535F4745545F50E4
:1049B00041434B4554504152414D533A20322C54BF
:1049C0004F444F0D0000000046535F4745545F5071
:1049D00041434B4554504152414D533A25640D0AD1
:1049E0005052455F4C454E3D25640D0A5052455F7F
:1049F0004445543D25640D0A53594E435F4C454E82
:104A00003D25640D0A000000B0B54868FFF79AF92B
:104A1000C4B2022C04D33CA0BDE8B04004F068BF8F
:104A200035A004F0CFFA41F6BC05C2F200058CB304
:104A30004AF20D7495F85D10C0F60004204604F0AB
:104A4000C1FA95F85E10204604F0BCFA95F85F10A4
:104A5000204604F0B7FA95F86010204604F0B2FA48
:104A600095F86110204604F0ADFA95F862102046E2
:104A700004F0A8FA95F86310204604F0A3FA95F81C
:104A800064104AF26350C0F60000BDE8B04004F084
:104A900099BA00BF4AF20D7495F82510C0F60004CB
:104AA000204604F08FFA95F82610204604F08AFA82
:104AB00095F82710204604F085FA95F8281020462E
:104AC00004F080FA95F82910204604F07BFA95F856
:104AD0002A10204604F076FA95F82B10204604F0B0
:104AE00071FA95F82C104AF26350C0F60000BDE848
:104AF000B04004F067BA00BF46535F4745545F5368
:104B0000594E433A20302C0046535F4745545F537B
:104B1000594E433A20494E56414C49442052414453
:104B2000494F0D00B0B548680C46FFF70BF9C5B208
:104B3000022D07D34AF23060C0F60000BDE8B04055
:104B400004F0D6BEA068FFF7FDF8E1680446084609
:104B5000FFF7F8F841F6BC01E4B2002DC5B2C2F28D
:104B6000000111D081F866003C310020FDF742F8C9
:104B70004AF23C40C0F60000012122462B46BDE827
:104B8000B04004F01FBA00BF81F82E0004310020AD
:104B9000FEF7FAF84AF23C40C0F600000021224637
:104BA0002B46BDE8B04004F00DBA000070B548686F
:104BB0000D46FFF7C7F8A96806460846FFF7C2F892
:104BC000E96804460846FFF7BDF829690546084626
:104BD000FFF7B8F8F1B2022904D31DA0BDE8704078
:104BE00004F086BE41F6BC06C2F20006C1B186F8EA
:104BF0007000311D0020A6F86B40A6F86D50FEF73E
:104C0000C3F8B6F86B10B6F86D2096F870304AF21B
:104C10002850C0F60000BDE8704004F0D3B900BFD2
:104C200086F83800311D0020A6F83340A6F835502C
:104C3000FEF7AAF8B6F83310B6F8352096F83830F3
:104C40004AF2A040C0F60000BDE8704004F0BAB9D6
:104C500046535F5345545F43524357483A20494EA9
:104C600056414C494420524144494F0D0000000038
:104C7000F0B581B02DED028B84B048680E46FFF789
:104C800061F8B16807460846FFF75CF8F16804462A
:104C90000846FFF757F8316905460846FFF752F80E
:104CA000716906460846FFF74DF8F9B2022909D3A3
:104CB000A1A004B0BDEC028B01B0BDE8F04004F04F
:104CC00017BE00BF002940F0B78049F2E032B4F5CA
:104CD000167FC0F204024FF4167198BF0C4694423E
:104CE00028BF1446B0F5167F88BF014640F64050F5
:104CF000C0F20300814228BF0146062E04D29FED78
:104D0000568B1F2079E000BF062E03D19FED548BF8
:104D1000172072E0092E03D29FED538B0F206CE019
:104D20000B2E03D29FED528B1E2066E00D2E03D278
:104D30009FED518B162060E0102E03D29FED508B1B
:104D40000E205AE0152E03D29FED4F8B1D2054E00C
:104D5000192E03D29FED4E8B15204EE01F2E03D24D
:104D60009FED4D8B0D2048E0282E03D29FED4C8BFC
:104D70001C2042E0302E03D29FED4B8B14203CE0F0
:104D80003C2E03D29FED4A8B0C2036E0502E03D2EE
:104D90009FED498B1B2030E05F2E03D29FED488BA7
:104DA00013202AE0772E03D29FED478B0B2024E0BF
:104DB0009E2E03D29FED468B1A201EE0BD2E03D2FD
:104DC0009FED458B122018E0EC2E03D29FED448B13
:104DD0000A2012E0B6F59C7F04D89FED438B192082
:104DE0000BE000BF42A0B6F5BB7F98BF083090ED46
:104DF000008B4FF0090098BF112041F6BC06C2F2AB
:104E00000006F076C6F81D10311D0020C6F81740C8
:104E10003577FDF7B9FFD6F81D00D6F81720337F98
:104E2000029037A000218DED008B04F0CBF804B088
:104E3000BDEC028B01B0F0BD41F6BC01C2F2000135
:104E4000C1F84F4081F85450C1F855003C31002062
:104E5000FCF7D0FE00BF00BF00000040333313401A
:104E600000000040333317400000004033331D4042
:104E70000000006066662340000000606666274010
:104E80000000004033332D4000000000008033401C
:104E90000000006066663740000000C0CC4C3D401A
:104EA0000000000000804340000000403373474092
:104EB000000000C0CC4C4D40000000C0CC8C5340E2
:104EC00000000040337357400000004033535D4002
:104ED0000000006066866340000000606666674010
:104EE000000000A099496D40000000000080734060
:104EF0000000000000307D40000000A0995977407C
:104F000046535F5345544D4F44504152414D533ADF
:104F10002025640D0A42523D25640D0A53483D2563
:104F2000640D0A42573D252E31660D0A4445563D13
:104F300025640D0A0000000046535F5345544D4F51
:104F400044504152414D533A20494E56414C4944F8
:104F500020524144494F0D002DE9F04F83B048687D
:104F60000C46FEF7EFFEC0B2012805D955A003B0EC
:104F7000BDE8F04F04F0BCBC30B15BA003B0BDE8AD
:104F8000F04F04F0B5BC00BFA068FEF7DBFEE1689F
:104F900081460846FEF7D6FE216983460846FEF79D
:104FA000D1FE616907460846FEF7CCFE0546A069BA
:104FB000E9B20191FEF7C6FE064600900028E069BE
:104FC00018BF0126FEF7BEFE216A82460846FEF79C
:104FD000B9FE8046606A5FFA88F10291FEF7B2FE80
:104FE00041F6BC010446002818BF0120C2F20001AE
:104FF000A1F8219081F823B081F8247081F82D5018
:1050000081F8306081F831A081F8328081F8370072
:1050100004310020FDF7B8FE1FFA89F15FFA8BF228
:10502000FBB239A003F0CEFF4AF2E8504AF28761A2
:10503000019AC0F60000C0F60001012A08BF01462F
:105040004AF21760C0F60000002A18BF084604F0B4
:105050004FFC4AF2BF50009A4AF27E61C0F600004F
:10506000C0F60001002A18BF084604F041FC4AF2CD
:105070006C505FFA8AF1C0F6000003F0A3FF0298BB
:10508000062809D849F6582108F00700C0F60001A3
:1050900051F8200004E000BF4AF2CA50C0F60000F8
:1050A00004F026FC4AF20C604AF22661C0F60000C9
:1050B000C0F60001002C18BF084603B0BDE8F04F51
:1050C00004F016BC46535F5345545F5041434B4573
:1050D00054504152414D533A20494E56414C494457
:1050E00020524144494F0D0046535F5345545F5091
:1050F00041434B4554504152414D533A20322C5478
:105100004F444F0D0000000046535F5345545F501D
:1051100041434B4554504152414D533A0D0A505270
:10512000455F4C454E3D25640D0A5052455F444550
:10513000543D25640D0A53594E435F4C454E3D2561
:10514000640D0A0070B548680C46FEF7FBFDC6B258
:10515000022E05D355A0BDE8704004F0C9BB00BFC6
:10516000A068FEF7EFFD41F6BC05C2F2000585F828
:105170002500E068FEF7E6FD85F826002069FEF7C9
:10518000E1FD85F827006069FEF7DCFD85F8280061
:10519000A069FEF7D7FD85F82900E069FEF7D2FD8A
:1051A00085F82A00206AFEF7CDFD85F82B00606A9D
:1051B000FEF7C8FD85F82C00E6B305F13C010020A0
:1051C000FCF718FD4AF2FF60C0F6000003F0FAFE9B
:1051D0004AF20D7495F85D10C0F60004204603F005
:1051E000F1FE95F85E10204603F0ECFE95F85F1096
:1051F000204603F0E7FE95F86010204603F0E2FE3B
:1052000095F86110204603F0DDFE95F86210204607
:1052100003F0D8FE95F86310204603F0D3FE95F80E
:1052200064104AF26350C0F60000BDE8704003F01D
:10523000C9BE00BF291D0020FDF7A6FD4AF2FF6090
:10524000C0F6000003F0BEFE4AF20D7495F825107A
:10525000C0F60004204603F0B5FE95F8261020465F
:1052600003F0B0FE95F82710204603F0ABFE95F84A
:105270002810204603F0A6FE95F82910204603F0DA
:10528000A1FE95F82A10204603F09CFE95F82B10FD
:10529000204603F097FE95F82C104AF26350C0F6B2
:1052A0000000BDE8704003F08DBE00BF46535F5361
:1052B00045545F53594E433A20494E56414C494458
:1052C00020524144494F0D0010B54868FEF73AFDA1
:1052D000C4B2022C04D30FA0BDE8104004F008BBF8
:1052E000204601F04FFF10EE100AFBF7B6F9024618
:1052F0000B4603A02146BDE8104003F063BE00BF8B
:105300004745545F525353493A2025642C252E318A
:10531000660D0A004745545F525353493A20494E9F
:1053200056414C494420524144494F0D0000000071
:1053300001A004F0DDBA00BF4745545F4354554E09
:10534000453A204E4F5420535550504F52544544E7
:105350000D00000001A004F0CBBA00BF4745545F28
:1053600044455649443A20544F444F0D0000000034
:1053700010B582B048680022ADF806208DF80520EF
:10538000FEF7E0FCC4B20DF105010DF10602204666
:1053900001F01AFF40B1BDF806200BA0214603F032
:1053A00011FE02B010BD00BF02A004F0A1FA02B0CD
:1053B00010BD00BF4745545F4552524F52533A20EB
:1053C0004552524F520D00004745545F4552524FCF
:1053D00052533A2025642C3078253034580D0A0079
:1053E00080B54868FEF7AEFCC0B2022804D319A00D
:1053F000BDE8804004F07CBAB0B141F6BC00C2F216
:105400000000D0F83D0044F6D351C1F26201A0FB88
:1054100001014AF290508A09C0F600000121BDE85E
:10542000804003F0CFBD00BF41F6BC00C2F20000D7
:10543000D0F8050044F6D351C1F26201A0FB01018E
:105440004AF290508A09C0F600000021BDE8804071
:1054500003F0B8BD4745545F465245513A20494E86
:1054600056414C494420524144494F0D0000000030
:1054700080B54868FEF766FCC0B201280ED141F63F
:10548000BC00C2F20000D0F87100FBF7E6F802465B
:105490000AA00B46BDE8804003F094BD02A0BDE821
:1054A000804004F025BA00BF4745545F4B46524543
:1054B000513A204552524F520D0000004745545F6B
:1054C0004B465245513A20312C252E37660D0A00A5
:1054D00010B582B04868FEF735FCC4B20DF1070183
:1054E000204601F081FE38B19DF807200AA0214630
:1054F00003F068FD02B010BD02A004F0F9F902B09B
:1055000010BD00BF4745545F4D4F44454D3A2045BF
:1055100052524F520D0000004745545F4D4F4445D5
:105520004D3A2025752C25750D0A000080B5486878
:10553000FEF708FCC0B2022804D317A0BDE88040E3
:1055400004F0D6B9C0B141F6BC00C2F20000D0F8F8
:105550003D104DF68112C3F69F0291422CBF90F987
:10556000422090F941204AF27950C0F60000012112
:10557000BDE8804003F026BD41F6BC00C2F2000049
:1055800090F909204AF27950C0F600000021BDE8E8
:10559000804003F017BD00BF4745545F504F57454B
:1055A000523A20494E56414C494420524144494FB9
:1055B0000D00000010B582B0486800228DF8072069
:1055C0008DF80620FEF7BEFBC4B20DF106010DF109
:1055D0000702204601F02AFE50B19DF806209DF8F2
:1055E00007300BA0214603F0EDFC02B010BD00BF58
:1055F00002A004F07DF902B010BD00BF4745545F22
:105600005354415455533A204552524F520D0000C5
:105610004745545F5354415455533A2025642C3028
:1056200078253032582C3078253032580D0A000059
:1056300080B54868FEF786FBC0B201280ED1002075
:10564000FBF702FD10EE100AFBF707F802460BA06D
:105650000B46BDE8804003F0B5BC00BF02A0BDE82A
:10566000804004F045B900BF4745545F54454D5054
:105670003A204552524F520D000000004745545FFA
:1056800054454D503A20312C252E31660D0A00002C
:1056900010B584B040F25C30C2F200000388C278DA
:1056A000017990F805C090F806E0C47903A0CDE92F
:1056B00000CE029403F086FC04B010BD4745545F51
:1056C00054494D453A2025642E253032642E25302C
:1056D00032642C253032643A253032643A25303237
:1056E000640D0A003020C4F2020003682C20C4F2CA
:1056F0000200026801A003F065BC00BF4745545F8B
:105700005549443A203078256C6C580D0A00000049
:1057100080B54868FEF716FBC0B201280ED1002004
:10572000FBF7E6FC10EE100AFAF797FF02460AA014
:105730000B46BDE8804003F045BC00BF02A0BDE8B9
:10574000804004F0D5B800BF4745545F5643433A04
:10575000204552524F520D004745545F5643433A3D
:1057600020312C252E31660D0A00000002A00221F6
:105770000022012303F026BC4745545F564552538F
:10578000494F4E3A2048573D25642C46573D2564E5
:105790002E25640D0A00000080B540F25030C2F2A0
:1057A00000000068FAF759FF024603A00B46BDE867
:1057B000804003F007BC00BF4745545F5642415448
:1057C0003A20252E33660D0A0000000041F63430E1
:1057D00040F2B87140F20803C2F20000C2F20001C8
:1057E000C2F200034FF48072FEF7B0BA80B501F048
:1057F00089FD02A0BDE8804004F07AB8494E4954C2
:105800005F434F4E4649473A204F4B0D0000000082
:1058100070B582B04868FEF795FAC1B2012905D982
:1058200035A002B0BDE8704004F062B841F6BC0398
:10583000C2F2000310F0010203F10E0003F10D05A6
:1058400018BF03F14700002A18BF03F146052E7860
:1058500003F10B05002A03F10C0418BF03F1440502
:10586000002A18BF03F1450423782A780F2B09D8A2
:1058700049F67825C0F6000505EBC30393ED000B50
:1058800002E000BF9FED1A0B0578D4B253EC102B49
:1058900022A0009403F096FB4AF22470C0F60000A8
:1058A00003F090FBF0B2072806D849F6F821C0F6BD
:1058B000000151F8200003E04AF2CE50C0F600008B
:1058C00004F016F84AF29870C0F6000003F07AFB74
:1058D000E8074AF221604AF22C61C0F60000C0F6E7
:1058E000000118BF084602B0BDE8704004F000B8DF
:1058F000000000000000F0BF4C525F4745545F4D70
:105900004F44504152414D533A20494E56414C4923
:105910004420524144494F0D000000004C525F4763
:1059200045545F4D4F44504152414D533A202564F8
:105930000D0A42573D252E31660D0A53463D25641A
:105940000D0A000070B54868FEF7FCF9C0B20128E6
:1059500004D92AA0BDE8704003F0CABF41F6BC05D7
:10596000C2F2000560B1B5F8481095F84C202CA0A3
:1059700003F028FB95F84A1005F14E044D350CE074
:10598000B5F80F102A7D4AF22870C0F6000003F027
:1059900019FB697C05F1160415354AF2C4604AF218
:1059A000BA62C0F60000C0F60002002918BF104617
:1059B00003F09EFF4AF21570C0F6000003F002FBF0
:1059C00028784AF22166C0F600064AF22C650028C3
:1059D0003046C0F6000518BF284603F089FF4AF29A
:1059E0001A70C0F6000003F0EDFA21783046002965
:1059F00018BF2846BDE8704003F07ABF4C525F479D
:105A000045545F5041434B4554504152414D533AE8
:105A100020494E56414C494420524144494F0D00C3
:105A20004C525F4745545F5041434B45545041529F
:105A3000414D533A20320D0A5052455F4C454E3D80
:105A400025640D0A5041595F4C454E3D25640D0AB1
:105A50004845414445523A0080B54868FEF772F91E
:105A6000C0B2022804D319A0BDE8804003F040BFB3
:105A700050B141F6BC00C2F2000090F84B1007A0F4
:105A8000BDE8804003F09EBA41F6BC00C2F20000BF
:105A9000418A08A0BDE8804003F094BA4C525F47A9
:105AA00045545F53594E433A20322C3078253034D8
:105AB000580D0A004C525F4745545F53594E433AC4
:105AC00020302C3078253034580D0A004C525F4776
:105AD00045545F53594E433A204552524F520D00A0
