:020000040800F2
:10000000C8230020E9000008350D00089D0C0008F9
:10001000CD0C0008290B0008632100080000000037
:100020000000000000000000000000002512000891
:10003000FD00000800000000650F000869200008AE
:1000400003010008CD0F00080301000803010008A8
:1000500003010008030100085D2100086121000878
:100060000301000803010008030100080301000860
:100070000301000803010008030100080301000850
:10008000690A0008030100080301000803010008D1
:1000900003010008C10C00082D0B0008ED2000082A
:1000A000112100083521000803010008050B000894
:1000B0000301000803010008030100080301000810
:1000C0000301000803010008630F00080301000892
:1000D00003010008DFF80CD000F074FC0048004772
:1000E0006D570008C823002006488047064800478F
:1000F000FEE7FEE7FEE7FEE7FEE7FEE7FEE7FEE7D8
:10010000FEE7FEE7AD200008D500000810B5431A51
:10011000934209D28318881803E010F8011D03F8F0
:10012000011D521EF9D210BD40EA01039B0703D006
:1001300009E008C9121F08C0042AFAD203E011F826
:10014000013B00F8013B521EF9D210BDD2B201E0D2
:1001500000F8012B491EFBD270470022F6E710B5CC
:1001600013460A4604461946FFF7F0FF204610BD25
:10017000CAB2401E10F8011F8A4202D00029F9D1EC
:1001800000207047421C10F8011B0029FBD1801A87
:10019000704730B503461D783DB10A4612F8014B51
:1001A0001CB1AC42FAD15B1CF5E7181A30BD30B572
:1001B0000546002008E00A4602E0A34207D0521C90
:1001C0001378002BF9D1401C2C5C002CF3D130BDEE
:1001D0002DE9F0410E460546002400E0641C285D30
:1001E00000F0D6FA0746305D00F0D2FA381A02D194
:1001F000295D0029F2D1BDE8F0812DE9F047914653
:100200000F4680460446002614F8015B2DB100F02D
:10021000BBFA0068405DC007F6D12B2D02D02D2D12
:1002200018D0641E4A463946204600F0B7FA27B176
:100230003968A14201D1C7F8008071054FF002046E
:100240000BD54042002803DD07F0CCF90460A0077D
:10025000BDE8F08746F48066E4E70028F8DA07F0A6
:10026000C1F904606FF00040F2E72DE9F05F9346BA
:100270000F4680460446002607F0B4F9D0F80090F7
:10028000824614F8015B2DB100F07EFA0068405DF3
:10029000C007F6D12B2D02D02D2D1AD0641E0021BF
:1002A000CAF800105A463946204600F077FA01464F
:1002B00027B13868A04201D1C7F80080DAF8000001
:1002C000022809D0CAF80090700505D54842BDE85B
:1002D000F09F46F48066E2E70846F8E72DE9FE4F16
:1002E000804681EA0300C00F0C46009021F00041D7
:1002F00023F00045B8EB0200A94105D24046214653
:1003000090461C460B46024623F00040104347D05F
:10031000270DC7F30A00C3F30A510290401A019057
:1003200040286BDAC3F3130040F4801B0098924618
:1003300020B10023D2EB030A63EB0B0B0198594663
:10034000C0F14002504600F0EDF906460D46504619
:100350005946019A00F005FA10EB080061410024AB
:1003600087EA115284EAE7731A4340D0009A62B3D5
:10037000019A012A4FEA075215DC001B61EB0201CA
:100380004FF0004202EA0752CDE90042001C41F55D
:10039000801132462B4600F096FA03B0BDE8F08F8C
:1003A00040462146F9E7001B61EB0201001C41F5C4
:1003B000801300185B412018A2F5001747EB0301DA
:1003C00040EAD570B6196D4111E06D084FEA360666
:1003D00045EAC0754FEA0752001B61EB0201001CA1
:1003E00041F5801149084FEA300000195141324669
:1003F0002B4603B0BDE8F04F00F056BA009801223A
:1004000040000023D0EB020263EBE073009821462A
:100410004FEAE074B8EB000061EB0401E9E783F018
:1004200000435BE781F0004158E72DE9FE4F81EA88
:10043000030404F0004421F0004100944FF0000B4D
:1004400023F0004350EA01045ED052EA03045BD07B
:10045000C3F30A54C1F30A552C44A4F2F3340194B3
:10046000A0FB0254C1F3130141F48011C3F3130341
:1004700043F4801301FB024400FB034E840A970AF5
:1004800044EA815447EA8357A4FB076802958D0A22
:1004900005FB07854FEA932C04FB0C542705029DAE
:1004A0004FEA065847EA1637B5EB08056EEB070C1E
:1004B000870E920E47EA811742EA8312A7FB0201D8
:1004C000B6EB0B0164EB00042B0D43EA0C335E1812
:1004D00044EB1C50DA465146E7FB0201C5F3130416
:1004E0004FEA0B3343EA14534FEA0432019C43EAC8
:1004F0000603A4F10C040294009CCDE900B400F0C2
:10050000E2F903B0BDE8F08F00200146F9E72DE9DC
:10051000F04D81EA030404F0004B21F0004514463D
:100520004FF0000A23F0004150EA050220D054EABF
:1005300001021DD0C5F30A570246C5F31303C1F3E8
:100540001300C1F30A5640F4801543F48013A7EB5F
:100550000608101BD64608F2FD3873EB050002D3DF
:1005600008F1010801E092185B41B8F1000F03DACD
:1005700000200146BDE8F08D00204FF480110646B2
:1005800084460EE0171B73EB050705D3121B63EBC4
:10059000050306434CEA010C49084FEA3000921863
:1005A0005B4150EA0107EDD152EA030012D082EA22
:1005B000040083EA0501084305D0101BAB4106D2B5
:1005C0000122002306E000224FF0004302E06FF01A
:1005D000010253101AEB06004CEB085110EB0A0015
:1005E00041EB0B01BDE8F04D00F05EB90EB540F2F5
:1005F000334102910021CDE900110A460B4600F07B
:1006000062F903B000BDC1F30A5210B5C1F3130182
:1006100040F2FF3341F480119A4201DA002010BD0C
:1006200040F233439A42A2F2334203DC524200F0DA
:1006300088F810BD904010BD00F0004230F000403E
:100640000AD0C10D01F56071C0F3160042EA0151F4
:10065000C20840071143704700200146704701F06F
:10066000004330B421F0004150EA010206D00A0DE7
:10067000A2F56072C1F31301002A02DC30BC002035
:100680007047440F44EAC104C100E01830BC00EBDD
:10069000C25000F0D2B830B50B46014600202022EF
:1006A000012409E021FA02F59D4205D303FA02F57F
:1006B000491B04FA02F52844151EA2F10102F1DCDF
:1006C00030BD2DE9F05F0546002092469B468846E6
:1006D0000646814640241BE02846414647462246BE
:1006E00000F02FF853465A46C01A914110D31146D4
:1006F0001846224600F016F82D1A67EB01084F46FF
:1007000022460120002100F00DF817EB00094E41B0
:10071000201EA4F10104DFDC484631462A46434648
:10072000BDE8F09F202A04DB203A00FA02F1002005
:1007300070479140C2F1200320FA03F3194390401F
:100740007047202A04DB203A21FA02F0002170478A
:1007500021FA02F3D040C2F1200291400843194629
:100760007047202A06DBCB17203A41FA02F043EA11
:10077000E07306E041FA02F3D040C2F1200291405A
:10078000084319467047000000487047707F000812
:10079000A0F14101192900D8203070472DE9F05F00
:1007A00082460078002715468B460AF10104B946B7
:1007B000302801D09DB113E014F8010B01277828EF
:1007C00003D0582801D045B10AE00DB1102D07D152
:1007D0000027102514F8010B02E0082500E00A2587
:1007E0000026B0460EE005FB080005FB06F10127D8
:1007F00001EB10461FFA80F8B6F5803F00D3B946EA
:1008000014F8010B294600F0F5F80028EBDABBF1EB
:10081000000F05D00FB1641E00E05446CBF8004035
:10082000B9F1000F06D006F0DDFE02210160C81EFE
:10083000BDE8F09F48EA0640FAE70029A8BF7047E4
:10084000401C490008BF20F00100704710B4B0FA06
:1008500080FC00FA0CF050EA010404BF10BC7047A1
:1008600049B1CCF1200421FA04F411FA0CF118BFBB
:10087000012121430843A3EB0C01CB1D4FEA00618A
:100880004FEA102042BF002010BC704700EBC3505D
:1008900010440029A4BF10BC7047401C490008BF89
:1008A00020F0010010BC704710B5141E73F1000455
:1008B00008DA401C41F1000192185B411A4301D152
:1008C00020F0010010BD2DE9F04D92469B4611B17C
:1008D000B1FA81F202E0B0FA80F220329046FFF7DE
:1008E00021FF04460F4640EA0A0041EA0B01534645
:1008F0005A46084313D0114653EA010019D0C8F1F3
:1009000040025046FFF71DFF05460E465046594629
:100910004246FFF707FF084305D0012004E02046C8
:100920003946BDE8F08D0020054346EAE0762C43C9
:1009300037430A986305E40AA0EB08000022FD0A89
:1009400044EA47540A3002D500200146E9E7010590
:1009500010196941DDE9084500196941BDE8F04D0C
:10096000A2E7C1F30A52C1F3130140F2FF3341F48D
:1009700080119A4202DA00200146704740F2334368
:100980009A42A2F2334202DC5242FFF7DABEFFF78C
:10099000C9BE000030B5041E71F1000404DB4FF045
:1009A0000044404264EB0101141E73F1000405DBB6
:1009B0001C464FF00043524263EB0403994208BFC8
:1009C000904230BD1CB50948009009480190054689
:1009D000009C06E0E06840F0010394E807009847B7
:1009E0001034AC42F6D3FFF779FB000020990008E1
:1009F000409900083A2800D2303820F02002412ADD
:100A000001D3A2F13700884201D34FF0FF30704785
:100A100070B58C1810F8015B15F0070301D110F8C0
:100A2000013B2A1106D110F8012B03E010F8016BED
:100A300001F8016B5B1EF9D12B0705D40023521E70
:100A40000DD401F8013BFAE710F8013BCB1A921CD8
:100A500003E013F8015B01F8015B521EF9D5A142D6
:100A6000D8D3002070BD0000F8B5022001F05AFC78
:100A7000C0B3022001F096FB002001F069FC01F0F8
:100A800049FCFFF7B3FD9FED180B53EC102BFFF75C
:100A9000CCFC1B4F04460D46D7E90060FFF7CCFDA8
:100AA00022462B46FFF71AFC044630460D46FFF758
:100AB000C3FD02460B4620462946FFF728FDFFF7F7
:100AC000CEFDFFF7B9FD9FED0A0B53EC102BFFF79E
:100AD000ACFC9FED090B53EC102BFFF718FDFFF753
:100AE000BEFDB860F8BD00BF0000000000C0D2BF6E
:100AF0006666666666E626400000000000408FC01D
:100B0000E002002010B5074C0121204602F0BCF99C
:100B100030B104F59A300F21BDE8104004F0D4BC88
:100B200010BD00BF00C00040FEE7000010B50E4C35
:100B30000421204604F025FC012806D1204604218A
:100B400004F0FEFB09480121417020460A2104F00F
:100B500018FC012806D120460A2104F0F1FB0348C5
:100B60000121817010BD00BF00F80140FC0200208F
:100B70002DE9F84FC0F3C01440B2102B20EAE07604
:100B80000A9801EB4409A2F1200126D0082B4BD191
:100B9000264A00284FF00000C9B24FF0000B08BFF2
:100BA0004FF0FF305FFA80FA02EBC108BBF1080F8B
:100BB0003AD018F80B1009EB0B000027C4B281EAF9
:100BC0000A05082F06D005FA07F1F01900F015F90B
:100BD0000137F6E70BF1010BE8E70027C9B200285F
:100BE0004FF000004FEA011808BF4FF0FF305FFAE6
:100BF00080FB102F18D00E4A48EA070109EB0700C6
:100C00004FF0000AC4B2515C81EA0B05BAF1080F3B
:100C100008D005FA0AF106EB0A0000F0EEF80AF136
:100C2000010AF3E70137E4E7BDE8F88F84810008A3
:100C30007C8400082DE9FC47DDF828801C4691469D
:100C40000E460746102B06D0082C18BFBDE8FC87BF
:100C50004FF0060A01E04FF0080A0025E8B219F843
:100C6000002072B1F8B2F1B22346CDF80080FFF750
:100C70007FFF5744F8B2782884BF26440027013507
:100C8000ECE7BDE8FC4700F0CBB9000020B12848F4
:100C90000021006804F0C8BD704700BF03A007F042
:100CA00013F9642004F004FA01F06AFA48617264EE
:100CB000204661756C74206F63637572730D00005C
:100CC0000148012101707047FC020020FEE700008E
:100CD000174812490068884218BF002800D17047A1
:100CE00040690028FBD0004711480068704700BFEA
:100CF0000A49884218BF002800D1704710B50B4937
:100D00000B4C0968206011B11830884720680069D1
:100D10000028BDE81040F0D0004700BFC88B000895
:100D20000249086002480068FFF7E2BF6C03002038
:100D300018000020704748680C4602F0FBB80125F7
:100D40000020102110230095FFF774BF0A600A6885
:100D5000104308607047012202FA01F102680A4359
:100D600002608268704710430860704701210125C6
:100D7000204606F0E6B90022002301F021B902EB7B
:100D8000810403EB8105043470471D4616460F4667
:100D9000044600F0A1BC1D4616460F46044600F06E
:100DA0008DBF0546A06802F0C5B800203021102391
:100DB0000095FFF73FBF012202FA01F102688A4362
:100DC000026082688A43826042688A434260826924
:100DD0007047044605F088BF2046012106F096B909
:100DE000012301F0EDB8B8EEC00A05F027BA20469D
:100DF00000F0C2BD204601F0A7B8C9B2C0B2CA090E
:100E0000214600F0A9B9FF25B4FBF6F47047387805
:100E10003D7000287047307837700228704740F6E0
:100E2000B830322101F0BEBF4A1E52B212F17E0F1D
:100E30007047611C49B211F1280F7047204606F037
:100E4000BDBB8068FFF754BFB0FBF6F004445C45BF
:100E5000704704F10A01B1F57A7F7047486802F0E3
:100E600069B801260020102110230096FFF7E2BE8A
:100E7000A0699843A061A0689843A060206870476B
:100E80008DF80700010A000C03238DF806108DF879
:100E90000500284670478DF803308DF80220704712
:100EA000BEEE001AB8EE400A7047204600F0E8BCDB
:100EB000C068FFF71DBFB2FBF5F20290B3FBF5F37C
:100EC00070470020302110230096FFF7B3BE0A437D
:100ED0008260C2680A43C26002697047012300F061
:100EE0008FBD95ED001A30EE410A704790F83C1026
:100EF000204606F053BB01202021224610230090FB
:100F00000020FFF797BE8DF807208DF80610704778
:100F1000B0EE480A0ECB0090704790F8881020463B
:100F200006F03CBB102300900020FFF783BECDE904
:100F30000024B1FBF5F27047B1FBF6F1B0FBF6F21D
:100F40007047ECB2C5B220462946704700212046C2
:100F5000284705F0010004F0CBB854B2204604F055
:100F600025B970477047000010B5174C207808B9B4
:100F700000F018F860680128BCBF4FF0FF3010BDCA
:100F8000A0680749085CA1680131A160A168B1F5BA
:100F9000007F04BF0021A16061680139616010BD5C
:100FA0007019002080B5074800214FF480620023AB
:100FB0004FF0FF304FF4E12004F03CFD02480121E6
:100FC000017080BD00000020D002002010B505F0A7
:100FD00093FE034C201D05F0B3FE0120207010BDD0
:100FE000EC02002080B530B164484FF48061FF22EC
:100FF000FFF7ACF804E061484FF48061FFF7ADF80B
:10100000BDE8804000F00CB802464D48072104F0CE
:1010100063BA00BF4F480F21012204F05DBA00BF40
:10102000F8B5564D394E0024082C08BFF8BD44F0E1
:10103000B00000210027C0B2B04700200021B04717
:1010400010200021B047802F05D0E85D012100F07D
:1010500097F80137F7E780350134E5E710B500F080
:10106000A1F80A2004F024F800F052F8274CAE2032
:101070000021A04700200021A04710200021A04708
:1010800040200021A047B0200021A047812000215E
:10109000A047FF200021A047A1200021A047A620B3
:1010A0000021A047A8200021A0473F200021A04701
:1010B000C8200021A047D3200021A0470020002104
:1010C000A047D5200021A04780200021A047D9209B
:1010D0000021A047F1200021A047DA200021A047ED
:1010E00012200021A047DB200021A0473020002152
:1010F000A0478D200021A04714200021A047AF2049
:1011000000212246BDE81040104700BF81110008B1
:10111000B0B50B4C0B4D092101222046A847642095
:1011200003F0C6FF204609210022A847642003F0EF
:10113000BFFF2046092101222B46BDE8B0401847D9
:1011400000F40140D954000802480F21002204F0A5
:10115000C3B900BF00F0014010B501F0070301F072
:10116000F801012400EB01100449002A04FA03F3FA
:101170000A5C0CBF9A431A430A5410BD7003002046
:1011800010B50029044618BF01210846FFF73CFFAF
:10119000FFF7DAFF204600F03FF8BDE81040FFF708
:1011A00039BF0000FEB51E4C184E0F21032204F576
:1011B0004040B04704F54445092103222846B04782
:1011C0002846072104220727B04728460C2104227D
:1011D00004F056F928460E21042204F051F9182093
:1011E000012105F071FA0A4869468DF808700090EF
:1011F0000020ADF8090007480190204605F002FFE5
:101200002046012105F0F5FEFEBD00BF9553000804
:1012100080841E00000040800146014805F0E0BEC9
:10122000003001407047E0B500210DF106020223B5
:10123000ADF80610072100F0E3FB8CBDE0B549BA1C
:101240000DF106020223ADF80610022100F0D8FBD2
:101250008CBDBCB514460D460DF1050217210323C4
:1012600000F01AFB9DF805002870BDF8060000BAD2
:10127000000C2080BCBDE0B50DF105021221032356
:1012800000F00AFBBDF8060000BA000C8CBDE0B50A
:101290000DF106021521022300F0FEFA9DF8070069
:1012A0008CBDE0B50DF10702C021012300F0F4FA76
:1012B0009DF807008CBD9422002940F6AC0118BFB0
:1012C000962200F0C1BBE0B5FFF71DFE0DF106024E
:1012D0008F21022300F094FB8CBD10B5044600F072
:1012E00047FB2046D12100220023BDE8104000F03A
:1012F00087BBE0B58DF807100DF107029D21FFF7C0
:10130000EDFD8CBDE0B58DF804106FF07F418A4291
:1013100038BF11468DF807100A0A090C04238DF80E
:1013200005108DF8062001AA972100F069FB8CBDFD
:101330001CB5049C8DF805301B0A8DF80320120A99
:101340008DF80110090A8DF804308DF802208DF80F
:1013500000106A46082108238DF80740240A8DF8FA
:10136000064000F04DFB1CBDC1210022002300F00F
:1013700047BBB0B514460A4640F2CD61054600F0C1
:1013800063FB284640F2CE612246BDE8B04000F043
:101390005BBB00002DE9F041174C16460F460A0AC8
:1013A00040F2BC6198460546A047FAB2284640F292
:1013B000BD61A047320A284640F2BE61A047F2B2A2
:1013C000284640F2BF61A04728464FF4D76100F09D
:1013D00084FA00F0FE00C8F30021421828464FF4BA
:1013E000D761A0475FFA88F2284640F2B9612346E8
:1013F000BDE8F041184700BF491A0008BCB58DF898
:1014000003201A4A8DF804306FF07F4441F684655A
:10141000B2FBF1F3A34228BF2346914288BF0123C8
:10142000069A8DF80230190A8DF80110190C8DF802
:10143000001043F60951B2FBF1F303FB112245EA18
:101440008232B2FBF1F16A4601EB8331A14238BF2F
:101450000C468DF80740210A08238DF80610210C50
:101460008DF805108B2100F0CBFABCBD0000093DC2
:101470001FB50A9C8DF80F40099C8DF80E40089C02
:101480008DF80D40079C8DF80C40069C022C28BF5F
:1014900002248DF80B40402B28BF40238DF80A30E2
:1014A000531E072A28BF0722DBB2032B38BF0422B2
:1014B0008DF80920012998BF01218DF808100DF140
:1014C0000702090A09238DF807108C2100F098FA09
:1014D0001FBD70B50C4605460026082E08BF70BD1E
:1014E00046F4D860A25D81B2284600F0ADFA01361C
:1014F000F3E7BCB5044600208DF8063015460A29EE
:1015000088BF01208DF80700052998BF05212046D6
:101510000C2928BF0C218DF804108DF8052001AA94
:101520008B21042300F06CFA063D204640F6890129
:1015300018BF012500F0D1F900F0FB0040F6890149
:1015400040EA8502204600F07FFABCBDBCB50446E7
:10155000069801298DF804208DF80530079D0DF1BE
:1015600002028DF8060098BF0121080A8DF80310C9
:1015700006238DF807508DF8020020468C2100F0DC
:101580003FFA204640F2367100F0A7F900F0FB0266
:10159000204640F23671002D08BF043200F054FAA4
:1015A000BCBD1CB501248DF806308DF804108DF8F3
:1015B0000740072A28BF07228DF8052001AA952198
:1015C000042300F01DFA1CBDE0B58DF807100DF1E5
:1015D00007028A21FFF782FC8CBDE0B509BA04231B
:1015E000019101AA862100F00BFA8CBDBCB50C4616
:1015F000054600F0B9F96FF07F400DF10502844215
:1016000038BF2046FFF73CFC822100F0F9F9BCBD51
:10161000E0B562F382010DF1070201238DF8071096
:10162000842100F0EDF98CBDE0B5002918BF01213F
:101630008DF807100DF107028021FFF74FFC8CBDDC
:10164000BCB50C46054600F093F96FF07F400DF1F4
:101650000502844238BF2046FFF712FC832100F0C8
:10166000CFF9BCBD10B5044600F082F92046D22166
:1016700000220023BDE8104000F0C2B91CB5FFF7FE
:1016800042FC0DF106028E210223044600F0B8F957
:10169000204640F6D80100F020F940F01E02204616
:1016A00040F6D80100F0D0F91CBD10B5044600F09A
:1016B00063F9142003F002FD2046C02100F08CF9EC
:1016C0002046002100F088F9FFF7EFFB2046BDE837
:1016D000104000F001B8000070B578B1012818D1B1
:1016E0000D4EAB4D0136344618BF012412D02846AA
:1016F000052103F0BFFE0028F4D10BE0064807499E
:101700000130044618BF012404D00A68D205F7D47A
:1017100000E00024204670BDBFBDF0FF08910040EE
:10172000F0B585B00C4609780546FFF74DFF2078E7
:1017300028B301281CBF05B0F0BDE17D227E637E89
:101740002846FFF7D6FE94F8230094F82460A18B76
:10175000A27F94F82230CDE900062846FFF7F6FE76
:1017600094F8212028464FF4E86100F06DF994F8D0
:101770002020284640F2417100F066F936E0284604
:101780000021FFF721FF206B94F82C3094F82D20D6
:10179000A16A00902846FFF731FE94F84000A18E20
:1017A00094F8362094F8373094F8436094F84470F5
:1017B00094F845C094F84AE08DE8C1502846FFF7F8
:1017C00057FE04F138012846FFF783FE94F84110D4
:1017D00094F842202846FFF7CCFD94F84B30B4F83B
:1017E0004820B4F846102846FFF7D4FD2846214685
:1017F00005B0BDE8F04000F003B8000000000000B4
:101800007CB5044648680D46FEF7F0FE9FED1A0BC6
:1018100053EC102BFEF77BFEFEF7F5FE014620464B
:10182000FFF7DBFE2046002180220026FFF74BFD5C
:101830002046042107220023FFF7B3FE204640F68E
:10184000E701382200F000F9697DAA7D2046FFF704
:1018500015FF20460121FFF72EFD20460121FFF74D
:1018600048FD20464321032200230096FFF760FD38
:101870007CBD00BF00BF00BF000000008084EE3FC1
:10188000012804D010B94348012101607047404845
:101890000321012203F020BE2DE9F0411D469046B0
:1018A0000F460446FFF718FFFFF7A1FA2046394616
:1018B00000F092F80027FEB22046B54206D9FF217B
:1018C00000F08AF808F806000137F4E7FFF7D8FFC0
:1018D0002046BDE8F041FFF7FFBEE0B50DF107027D
:1018E000012300F003F89DF807008CBD2DE9F041BD
:1018F000FFF74BFAFFF77BFADFF8A48120461D21A2
:10190000C047390A2046C047F9B22046C0472046A2
:10191000FF21C047204635B1FF2100F05DF806F8F1
:10192000010B013DF6E7FFF7ABFF2046BDE8F041B4
:10193000FFF7D2BE012802D0A8B903F0DDBE10B572
:10194000E94C02210022204603F0C6FD322003F0BC
:10195000B5FB20460221012203F0BEFD3220BDE886
:10196000104003F0ABBB704700B1704703F0E6BE18
:1019700000B1704703F0E8BE012804D010B9054853
:10198000002101607047D8480321002203F0A4BD64
:1019900000F801400C91004008290AD8DFE801F066
:1019A00005090E131609180C110000210022FFF77B
:1019B0002FBE0021FFF71ABEFFF78FBC0021FFF7F3
:1019C00033BEFFF74FBE0121FFF72EBEFFF7CCBCA1
:1019D0006FF07F41FFF734BE012803D058B90846A5
:1019E00003F0B8BE05480160416801F0110101290A
:1019F000FAD1006800E00020C0B270470820014022
:101A00002DE9F0411E46174688460446FFF764FE5E
:101A1000FFF7EDF920464146FFF7DEFF0025E8B26B
:101A2000864205D9395C2046FFF7D6FF0135F6E737
:101A3000FFF73BFAB8F1840F08BFBDE8F0812046FC
:101A4000BDE8F041FFF748BEE0B58DF807200DF185
:101A50000702012300F002F88CBD00002DE9F041DF
:101A6000FFF793F9FFF7C3F9DFF8348020460D2123
:101A7000C047390A2046C047F9B22046C047002770
:101A8000F8B2854205D9315C2046FFF7A5FF013742
:101A9000F6E7FFF70AFA2046BDE8F041FFF71CBE63
:101AA000D9190008E0B549BA0DF106020223ADF8D4
:101AB0000610972100F084FA8CBD1CB5079C8DF8A8
:101AC00001100DF10101FFF7E6F98DF80740069CC2
:101AD0008DF80640059C8DF80540049C8DF8044067
:101AE00000F077F81CBD00F063B8E0B50DF1050219
:101AF0001521032300F0C0F9BDF8060000BA000C60
:101B00008CBDE0B50DF106021F21022300F0B4F9EF
:101B10009DF807008CBDE0B50DF10702C02101233F
:101B200000F0AAF99DF807008CBD00F041B81CB583
:101B3000059C8DF801100021FFF7ADF9ADF80610F6
:101B40000DF101018DF80540049C8DF8044000F072
:101B500040F81CBDE0B58DF807208DF806100DF19A
:101B600006028F21022300F02BFA8CBDD121FFF752
:101B700002B91CB5049C8DF805301B0A8DF80320B2
:101B8000120A8DF80110090A8DF804308DF8022030
:101B90008DF800106A468D2108238DF80740240A2D
:101BA0008DF8064000F00CFA1CBDC121FFF7E3B828
:101BB000E0B58DF807308DF806208DF805100DF191
:101BC00005028B21032300F0FBF98CBDD221FFF726
:101BD000D2B80A468C21072300F0F2B9E0B50429F7
:101BE00028BF04218DF807100DF107028A21FFF7A5
:101BF000F7F88CBDE0B501F001010DF107020123FA
:101C00008DF80710962100F0DBF98CBDE0B50A0ACB
:101C10008DF80710090C03238DF806208DF80510A8
:101C20000DF10502862100F0CBF98CBDE0B58DF8F1
:101C30000510110A8DF807200DF1050203238DF818
:101C40000610822100F0BCF98CBDE0B58DF80710BC
:101C50000DF107028421FFF7C3F88CBDE0B5002920
:101C600018BF01218DF807100DF107028021FFF741
:101C7000B7F88CBDE0B58DF80510110A8DF8072076
:101C80000DF1050203238DF80610832100F098F969
:101C90008CBDE0B58DF807200D29A8BF0D210DF1F1
:101CA000060211F1120FD8BF6FF011011231022399
:101CB0008DF806108E2100F083F98CBD70B508B147
:101CC00000240CE0074EA44D0136344618BF012411
:101CD00005D02846092103F0CDFB0028F4D1204689
:101CE00070BD00BFBFBDF0FF00F801402DE9F0411D
:101CF00088B00C4601210546FFF77CFF2178284675
:101D0000FFF76CFF207848B301287BD1E07D227E6D
:101D1000637E0001C1B22846FFF707FF94F8220056
:101D20004022002818BF002294F82160207FE17E25
:101D300094F82030002E18BF2026CDE90062C201A1
:101D40002846FFF7F4FEE08B0DF1110240F6441136
:101D5000022300BA000CADF811004CE0676AD4F819
:101D60002C80284600210026FFF738FF780094F8E1
:101D7000241094F82930B0FBF8F0C2B22846FFF7DF
:101D8000B2FE94F8480094F8301094F8332094F898
:101D9000453094F8497094F84AC094F850E08DE8C2
:101DA00081502846FFF789FE0DF111000F2E05D056
:101DB000A11991F8341081550136F7E70DF111069C
:101DC000284640F6CE110F23324600F027F994F84A
:101DD000510040F6C511324605238DF81100B4F8C4
:101DE0004E0000BA000CADF81200B4F84C0000BA76
:101DF000000CADF81400284600F010F928462146E2
:101E000000F006F808B0BDE8F08100000000000016
:101E10007CB5044648680D46FEF7E8FB9FED100BC5
:101E200053EC102BFEF773FBFEF7EDFB014620464B
:101E3000FFF7ECFE2046002180220026FFF78AFEF5
:101E4000AA7D95F915100020FFF723FF20464321B6
:101E5000032200230096FFF78CFE7CBD00BF00BF6D
:101E600000000000A8CB684000B170473A4800214C
:101E7000012203F031BB00BF2DE9F0411D46904621
:101E80000F460446FFF71AFFFEF7B4FF2046394617
:101E900000F086F80027FEB22046B54206D9FF21A1
:101EA00000F07EF808F806000137F4E7FFF7DCFFE2
:101EB0002046BDE8F041FFF701BFE0B50DF1070294
:101EC000012300F003F89DF807008CBD2DE9F041D7
:101ED000FEF761FFFEF78EFFDFF8888120461921AB
:101EE000C047390A2046C047F9B22046C0472046BD
:101EF000FF21C047204635B1FF2100F051F806F818
:101F0000010B013DF6E7FFF7AFFF2046BDE8F041CA
:101F1000FFF7D4BE00B17047B0B50A4D1420A847F2
:101F20000D4C01210422204603F034FA3220A84748
:101F300020460121032203F02DFA14202946BDE892
:101F4000B0400847B150000800B170470248002176
:101F5000002203F0C1BA00BF00F80140082909D8E7
:101F6000DFE801F005080F141708190D1200002111
:101F7000FFF76BBEFF214FF6FF72FFF757BEFFF76B
:101F8000F5BD0021FFF76ABEFFF720BE0121FFF774
:101F900065BEFFF70ABE00210022FFF76BBE0000FE
:101FA00008B1002007E005480160416801F0110117
:101FB0000129FAD10068C0B2704700BF0820014073
:101FC0002DE9F0411E46174688460446FFF776FE87
:101FD000FEF710FF20464146FFF7E2FF0025E8B27A
:101FE000864205D9395C2046FFF7DAFF0135F6E76E
:101FF0002046FFF739FFB8F1840F08BFBDE8F08134
:102000002046BDE8F041FFF759BEE0B58DF8072046
:102010000DF10702012300F001F88CBD2DE9F0411C
:10202000FEF7B9FEFEF7E6FEDFF8388020461821FD
:10203000C047390A2046C047F9B22046C0470027AA
:10204000F8B2854205D9315C2046FFF7A9FF013778
:10205000F6E72046FFF708FF2046BDE8F041FFF70E
:102060002DBE00BFA11F000880B50D4801680131D9
:102070000A29016003D10021016003F007FB094830
:102080000078012807D10848018801390180080437
:1020900008BF00F0C5FEBDE8804004F069BF00BF86
:1020A00070070020760700207407002080B50C48D8
:1020B0000122016841F4700101600A48016841F0A1
:1020C000800101600848C16862F31341C160016882
:1020D0008907FCD503F0E0FCBDE8804002F0C8BFF2
:1020E00088ED00E00C00004008000240BCB5074C41
:1020F0000DF10702FEF73AFE9DF80700012803D113
:10210000FEF76AFE14480570BCBD00BF00A0004089
:10211000BCB5074C0DF10702FEF728FE9DF807003D
:10212000012803D1FEF758FE0B484570BCBD00BF27
:1021300000A00140BCB5074C0DF10702FEF716FEEA
:102140009DF80700012803D1FEF746FE024885707E
:10215000BCBD00BF00B00040C41B002000F0AEBEFC
:102160007047FEE70D48BFF34F8F0D4A016801F439
:10217000E06111430160BFF34F8F00BFFDE700BF77
:102180000648BFF34F8F064A016801F4E06111432E
:102190000160BFF34F8F00BFFDE700BF0CED00E013
:1021A0000400FA0563490A680240824202D10A68C3
:1021B00010430860704700BF0021B1EB103F08D109
:1021C000074940F6FF730A689A430A600A68104399
:1021D0000860704702490A6822F44012FEF7B6BD53
:1021E00004700140044A002911680CBF21EA000074
:1021F00008431060704700BF18700140064901286D
:1022000004D038B9086820F0400002E0086840F0C7
:1022100040000860704700BF4880004010B56FF074
:102220001F020828094C02EB800238BF82000F23EE
:1022300004349140934008283CBF47F20804C4F29C
:102240000104206898430843206010BD08700140D5
:1022500048490A6808B13AB17047D007FCD008680D
:102260004007F9D4022000E001200A68104308600A
:10227000704700BF00000000F8B50E46244905462F
:1022800005201446002D18BF0D20D1E9001721FAB2
:1022900000F0C0B2FEF7AAF99FED150B53EC102B1E
:1022A000FEF7C3F89FED140B53EC102BFEF716F856
:1022B000FEF7D5F930600420002D18BF0D2027FA55
:1022C00000F06FF35F20FEF791F99FED0D0B53ECDB
:1022D000102BFEF7AAF89FED0C0B53EC102BFDF71B
:1022E000FDFFFEF7BCF92060F8BD00BF00BF00BFD6
:1022F000FCA9F1D24D62603F000000000000F03FF9
:10230000FCA9F1D24D62503FFCA9F1D24D62D0BF81
:1023100030200010024800686FF31F30704700BF84
:102320001C700140034909680140081AB0FA80F0A6
:10233000400970471470014080B511200621042225
:10234000002304F09DFC6420BDE8804002F0B6BE8E
:1023500008490A6830B1D0070AD00868800707D456
:10236000042002E0500703D508200A6810430860E3
:10237000704700BF00700140F8B5C14C257E02F0E7
:1023800073FEC04AFEF76DFDBF4AFEF79AFDBF4ED1
:10239000FF27FEF740FD09D001280FBF0025B0FA46
:1023A00080F040090543FEF7D4FDF2E705F0010097
:1023B00001212076B748B84CA047B8480121A04772
:1023C000B7480121A047B7480021A0470248BDE80F
:1023D000F840FEF78DBC00BFE88B000810B5FEF793
:1023E00083FCFEF765FDAB48CA4C0021A047AB4813
:1023F0000121A047AA480121A047AA48012122465D
:10240000BDE81040104700BF10B5FEF76DFCFEF7A9
:1024100018FD0848CC4C0021A04707480121A047DF
:1024200006480121A047064801212246BDE8104088
:10243000104700BF2C8F0008588F0008848F0008B9
:10244000DC8F00082DE9FC41DFF82C89D8F810401A
:1024500002F00AFE8B4AFEF772FCAC4AFEF7A5FCBE
:102460004FF47A76AA4FFEF7CEFC38783D700228FA
:1024700012D0FEF7EEFC28BF3146002818BF2146D7
:10248000A1F10A040B2C38BF0A24012818BF0C46FE
:10249000204602F04FFEE8E74FF47A70B94D012173
:1024A0006043C8F810007B48A8477C480121A84732
:1024B0007B4CFEF74BFD7B480121A8472046BDE839
:1024C000FC41FEF715BC00BFF8B5D44D2C7D02F0E1
:1024D000CBFD6C4AFEF7C5FCD14AFEF7F2FCD14EAB
:1024E000FF27FEF798FC12D0FEF7A3FCA8BF6FF001
:1024F0002701002818BF2146FEF796FCD8BF6FF0D1
:102500007D02012818BF0A46FEF727FDE9E72C7572
:102510006048C54D0121A84760480121A84760488F
:102520000121A8475F4CFEF711FD2046BDE8F840A9
:10253000FEF7DEBB2DE9FC47DFF8D08ED8F8084067
:1025400002F092FD4F4AFEF7FAFBD44AFEF72DFC4B
:102550004FF47A764E48D24FFF254CF25039B4FBF7
:10256000F6F48246FEF753FC0DD0012802D0022873
:1025700015D118E0D8F81000B0FBF6F0241A4C453D
:1025800098BF4C460BE0D8E90301FEF7D5FC0C449C
:10259000944228BFA0EB4104544528BF544620462E
:1025A00002F016FEDEE74FF47A70BE4D0021604364
:1025B000384CC8F808002046A84738480121A847E9
:1025C00037480121A84737480121A8472046BDE8E0
:1025D000FC47FEF78DBB00BF2DE9F84FDFF8C48E36
:1025E000D8F80C4002F040FD264AFEF7A8FBD64A78
:1025F000FEF7DBFB4FF47A76D548D44FFF254CF23B
:1026000050394CF2513AB4FBF6F48346FEF7FFFB27
:1026100014D0012802D0022816D119E0D8F81010E1
:10262000D8F80800FEF788FC641A944298BF00EBC3
:102630004104544538BF01EB090405E0D8F8100007
:10264000FEF702FC28BF5C46204602F0D3FDDDE722
:102650004FF47A70BF4D01216043C8F80C000D485B
:10266000A8470E4CFEF772FC0D480121A8470D4803
:102670000121A8472046BDE8F84FFEF739BB00BF4F
:1026800078180020A0980008B598000808000020DD
:10269000C02709006C8C000829580008C48C000869
:1026A000988C0008408C0008F8B5D44C94F864501D
:1026B00002F0DAFCD24AFEF7D4FBD24AFEF701FC64
:1026C000D24EFF27FEF7A7FB09D001280FBF002538
:1026D000B0FA80F040090543FEF73BFCF2E705F055
:1026E0000100012184F86400CA48CB4CA047CB48C4
:1026F0000121A047CA480121A047CA480021A0479C
:102700000548BDE8F840FEF7F3BA00BFB5980008E9
:102710000800002029580008F08C000810B5FEF7CA
:10272000E3FAFEF7C5FBBB48DA4C0021A047BB48E3
:102730000121A047BA480121A047BA4801212246F9
:10274000BDE81040104700BF2958000810B50C48DC
:10275000DD4C01210068A047FEF7C6FAFEF771FBC9
:1027600009480121A04709480021A0470848012144
:10277000A047084801212246BDE81040104700BF8D
:1027800018000020295800082C8F0008588F0008D6
:10279000848F0008DC8F00082DE9FC41DFF8E08D14
:1027A000D8F85C4002F060FC954AFEF7C8FAB74AD8
:1027B000FEF7FBFA4FF47A76B54FFEF724FB387834
:1027C0003D70022812D0FEF744FB28BF3146002896
:1027D00018BF2146A1F10A040B2C38BF0A24012896
:1027E00018BF0C46204602F0A5FCE8E74FF47A70CB
:1027F000C44D01216043C8F85C008648A84787485B
:102800000121A847864CFEF7A1FB86480121A84775
:102810002046BDE8FC41FEF76BBA00BF78180020E7
:10282000B59800080800002029580008F8B5DB4DCD
:1028300095F8604002F018FC714AFEF712FBD84A86
:10284000FEF73FFBD74EFF27FEF7E5FA12D0FEF763
:10285000F0FAA8BF6FF02701002818BF2146FEF745
:10286000E3FAD8BF6FF07D02012818BF0A46FEF7D1
:1028700074FBE9E785F860406648CB4D0121A84725
:1028800066480121A84766480121A847654CFEF724
:102890005DFB2046BDE8F840FEF72ABAB59800086F
:1028A00008000020295800082DE9FC47DFF8588F60
:1028B000D8F8544002F0D8FB514AFEF740FAD74A04
:1028C000FEF773FA52484FF47A76D54FFEF79BFA2B
:1028D00081464D488246FEF79AFA0DD0012802D073
:1028E000022815D118E0D8F85C00B0FBF6F0241AE5
:1028F000544598BF54460BE0D8E91601FEF71CFB7F
:102900000C44944228BFA0EB41044C4528BF4C46E0
:10291000204602F05DFCDEE74FF47A70C14D0021E5
:1029200060433C4CC8F854002046A8473B4801216E
:10293000A8473B480121A8473A480121A84720461B
:10294000BDE8FC47FEF7D4B9B598000808000020A0
:10295000C0270900295800082DE9F84FDFF8588FE3
:10296000D8F8584002F080FB254AFEF7E8F9D64A2D
:10297000FEF71BFA24484FF47A762549D34FFEF729
:1029800042FA8B46824600F10109FEF740FA14D064
:10299000012802D0022816D119E0D8F85C10D8F826
:1029A0005400FEF7C9FA641A944298BF00EB410440
:1029B0004C4538BF01EB0A0405E0D8F85C00FEF78F
:1029C00043FA28BF5C46204602F014FCDDE74FF4D2
:1029D0007A70BF4D01216043C8F858000D48A847E0
:1029E0000E4CFEF7B3FA0E480121A8470D4801210D
:1029F000A8472046BDE8F84FFEF77AB978180020BE
:102A0000A7980008B5980008C02709000800002012
:102A100070991400748D000829580008CC8D0008A6
:102A2000A08D0008488D0008F8B5D34C94F8B0503C
:102A300002F01AFBD14AFEF714FAD14AFEF741FA26
:102A4000D14EFF27FEF7E7F909D001280FBF002577
:102A5000B0FA80F040090543FEF77BFAF2E705F093
:102A60000100012184F8B000C948CA4CA047CA48F7
:102A70000121A047C9480121A047C9480021A0471A
:102A80000548BDE8F840FEF733B900BFB598000827
:102A90000800002029580008F88D000810B5FEF73E
:102AA00023F9FEF705FABA48BA4C0021A047BA4804
:102AB0000121A047B9480121A047B9480121224678
:102AC000BDE81040104700BF2958000810B50C4859
:102AD000B04C01210068A047FEF706F9FEF7B1F9F6
:102AE00009480121A04709480121A04708480021C1
:102AF000A047084801212246BDE81040104700BF0A
:102B000018000020295800082C8F0008588F000852
:102B1000848F0008DC8F00082DE9FC41DFF8508E1F
:102B2000D8F8A84002F0A0FA944AFEF708F9944AAF
:102B3000FEF73BF94FF47A76934FFEF764F9387855
:102B40003D70022812D0FEF784F928BF31460028D4
:102B500018BF2146A1F10A040B2C38BF0A24012812
:102B600018BF0C46204602F0E5FAE8E74FF47A7009
:102B7000884D01216043C8F8A8008548A8478648C9
:102B80000121A847854CFEF7E1F985480121A847B6
:102B90002046BDE8FC41FEF7ABB800BF7818002026
:102BA000B59800080800002029580008F8B5724DB3
:102BB00095F8AC4002F058FA704AFEF752F9704AA4
:102BC000FEF77FF9704EFF27FEF725F912D0FEF7CA
:102BD00030F9A8BF6FF02701002818BF2146FEF783
:102BE00023F9D8BF6FF07D02012818BF0A46FEF70F
:102BF000B4F9E9E785F8AC406548664D0121A8477E
:102C000065480121A84765480121A847644CFEF7A3
:102C10009DF92046BDE8F840FEF76AB8B59800086F
:102C200008000020295800082DE9FC47DFF8408DF6
:102C3000D8F8A04002F018FA504AFEF780F8504A3F
:102C4000FEF7B3F851484FF47A764F4FFEF7DBF8B2
:102C500081464C488246FEF7DAF80DD0012802D0B2
:102C6000022815D118E0D8F8A800B0FBF6F0241A15
:102C7000544598BF54460BE0D8E92901FEF75CF9AA
:102C80000C44944228BFA0EB41044C4528BF4C465D
:102C9000204602F09DFADEE74FF47A703D4D0021A8
:102CA00060433B4CC8F8A0002046A8473A480121A1
:102CB000A8473A480121A84739480121A84720469A
:102CC000BDE8FC47FEF714B8B598000808000020DE
:102CD000295800082DE9F84FDFF87C8FD8F8A44078
:102CE00002F0C2F9254AFEF72AF8254AFEF75DF8F8
:102CF00024484FF47A762549234FFEF784F88B4613
:102D0000824600F10109FEF782F814D0012802D0B2
:102D1000022816D119E0D8F8A810D8F8A000FEF7BC
:102D20000BF9641A944298BF00EB41044C4538BF3C
:102D300001EB0A0405E0D8F8A800FEF785F828BFE3
:102D40005C46204602F056FADDE74FF47A70114DEA
:102D500001216043C8F8A4000D48A8470E4CFEF7B7
:102D6000F5F80E480121A8470D480121A847204643
:102D7000BDE8F84FFDF7BCBF78180020AE980008FA
:102D8000B5980008200B200008000020E032290040
:102D90007C8E000829580008D48E0008A88E0008F0
:102DA000508E0008B0B5044607482A4D01802846D9
:102DB000002100F053F805496000B1FBF0F0E86233
:102DC000BDE8B04000F03CB87407002040420F005E
:102DD0001FB508200121012403F076FC8DF809407D
:102DE0001F201C4C6946009040F2F31001902046D1
:102DF00000F051F82046012100F03EF82046012164
:102E000000F032F805484FF00061C0F88011016011
:102E10002046002100F022F81FBD00BF00E100E0C5
:102E2000B0B50C4C00210025204600F017F804F541
:102E30009A300F21002202F04FFB07480570B0BD09
:102E400010B504480121012400F008F8024804707C
:102E500010BD00BF00C0004076070020026822F0CD
:102E60000102114401607047C268012922F0010289
:102E700008BF0132C26070470268012922F00402D3
:102E800008BF04320260704700690840401AB0FA77
:102E900080F0400970474A7A036823F0800362F3A8
:102EA000C713426803600B7A22F070021A43426033
:102EB000D1E90012C26281627047000010B5114C66
:102EC0001021204604F07FF900B110BD204604F027
:102ED0001BFA0D490D4BCA689854C8680130C86088
:102EE000486801304860C868B0F5007F04BF002022
:102EF000C8604868B0F5007FE7DD0020C860486022
:102F0000886010BD00300040D00200207019002001
:102F1000022988BF704702A050F8210004F0D4BFF6
:102F200008920008F092000818930008002100227F
:102F3000FDF763B900210022FDF797B950B149B1FF
:102F400010B50446002004F1080C21602071ACE8A3
:102F50000D0010BD012070472DE9F84F8046002676
:102F600000270446CCB12068B8B1FDF70BF905463F
:102F7000606810B1FDF706F900E00020AF42C8BF5D
:102F80003D46A168002918BF2F468642C8BF30467B
:102F9000002918BF06461034E4E720A004F094FF8F
:102FA000264804F091FF75427E422D4FDFF894B021
:102FB00028A40FF28C090FF2900AB8F1000F27D065
:102FC000D8F8002022B3D8F80800B8B148463146F6
:102FD00004F0E4FAD8F804005A4620B10178002938
:102FE00008BF584602465046294604F0D7FAD8F89A
:102FF0000C1039B1087828B115A001E0204611461F
:1030000004F0CCFA384604F05FFF08F11008D4E76A
:10301000134804F059FF0120BDE8F88F3C636F6D41
:103020006D616E643E203C617267733E203C686552
:103030006C7020746578743E0D000000C398000821
:10304000252A73009F98000820252A73000000009D
:1030500020257300202D2D2D202573202D2D2D00B2
:10306000169900082DE9F04F9BB0002800F03D8133
:10307000002900F03A810446D0E902B015465A44CE
:10308000824280F0348120682A465844FDF73EF899
:10309000A0684FF0000A002300262844A0600AA977
:1030A00004310691834580F02481216811F80B904A
:1030B000B9F10A0F05D0B9F10D0F02D00BF1010BD8
:1030C000F0E701F80BA05B4500F0FE802068216965
:1030D000C518CDE90831284629460A78082A03D0C0
:1030E0003AB100F8012B02E0A84288BF0138013153
:1030F000F3E7854980F800A028461AAA03F0EAFF02
:10310000002800F0E080DDF824A007460796BAF119
:10311000000F12D0DAF80060002EB04618BF4FF052
:10312000010812D0DAF8080020B138463146FDF720
:103130004FF8D0B10AF1100AE9E7099880B3079E69
:103140004FF000084FF0000A06E001200999079EA1
:103150004FF0000A29B120B128466CA1FDF738F8DC
:10316000C8B1B8F1000F1ED0ADE067490A96002043
:103170001AAA002603F0AEFF0127E0B10AA90F2F1B
:1031800041F8270036D0604900201AAA03F0A2FFB8
:1031900001360137F1E70998FFF7DEFE18B192E03A
:1031A000079E4FF0000A002F00F08D803846002166
:1031B000FFF7AEFE87E0DAF80400002870D001784F
:1031C0003F2902D1417800296AD00390FCF7DAFF49
:1031D000029003982A21FCF7CBFF68B1DDE9022EAB
:1031E0000EEB02010139884266D1012A64D0901E9B
:1031F000009005E0012160E0029ADDF80CE0009209
:103200000EEB020000234FF02E0C0190002E44D054
:10321000934205DA1EF803002A2818BF844604E00A
:10322000019810F8010C2A2846D1ACF17300022154
:1032300004280CD8CDE904C3DFE800F0033F2010D8
:103240001D0006980421012250F823001BE0BCF168
:10325000620F1FD0BCF1660F1CD02EE00698002232
:1032600050F8230004F04EF90221DDE904C3DDE942
:10327000022E78B921E00698042101E00698012188
:1032800050F82300002204F03DF9DDE904C3DDE934
:10329000022E88B1013E0133B8E7009887420BDD6A
:1032A000DAF8082038460AA99047DAF80000002723
:1032B000B0FA80F0400949E702212846FFF728FECE
:1032C000079E4FF0000A089BB9F10A0F08BF5B4543
:1032D00007D00136A0680BF1010B84F804905B461F
:1032E000E0E620790D28F5D0F3E7FF2608E0FE267A
:1032F00006E02BB1C21A2068A260C118FCF706FFD5
:1033000070B21BB0BDE8F08F1899000868656C704A
:103310000000000080B5FDF7A1FDC0B202F0CCFBBB
:1033200009A104A2002818BF11460846BDE8804044
:1033300004F0CABD434C4541525F4552524F52536F
:103340003A204F4B0D000000434C4541525F45521F
:10335000524F52533A204552524F520D0000000036
:103360002DE9F0414868104E0D46B0470746A86861
:10337000B0470446E868B04705460CA004F0A4FD39
:10338000AEB2FDB20FF23008A7B2B74288BFBDE8B7
:10339000F0812846394602F02FFF02464046394662
:1033A00004F0FCF80134EFE7352F000844554D5088
:1033B0005F524547533A0D003078253034582C3051
:1033C00078253032580D0A0080B5FDF747FDC0B2B0
:1033D000032801D31F4814E0012807D080B90B4807
:1033E00090F8451090F8462011A005E0074890F8A5
:1033F000911090F8922006A0BDE8804004F0CEB86D
:103400001348BDE8804004F05FBD00BF781800207D
:1034100046535F4745545F414444523A20312C3073
:1034200078253032582C3078253032580D0A00007B
:1034300046535F4745545F414444523A20302C3054
:1034400078253032582C3078253032580D0A00005B
:10345000779200088C92000880B5FDF7FFFCC0B29F
:10346000032801D313A018E0012809D0A0B90D4802
:1034700090F84F30B0F84C20B0F84A100B4807E0F5
:10348000084890F89B30B0F89820B0F8961006489D
:10349000BDE8804004F082B80548BDE8804004F0F3
:1034A00013BD00BF78180020E69000085E90000869
:1034B0006192000846535F4745545F435243574863
:1034C0003A20494E56414C494420524144494F0DFF
:1034D0000000000000000000F8B5FDF7BFFCC0B21E
:1034E000032801D34A4822E0012817D0F0B9244824
:1034F00090F830100939C9B216298FBF9FED1E0B05
:103500002E4A02EBC10191ED000B90F83120C16A07
:10351000406B8DED000B029029A023E0184890F835
:1035200030101F2908D19FED120B12E031A004B01A
:10353000BDE8804004F0C8BC90F87C100939C9B2DD
:1035400014298FBF9FED0C0B0E4A02EBC10191EDC8
:10355000000B90F87D20816FD0F880008DED000B7E
:10356000029009A004F01AF88FBD00BF00BF00BF91
:103570000000004033331340000000000000F0BFA3
:10358000781800203080000846535F4745544D4F5F
:1035900044504152414D533A20310D0A42523D258B
:1035A000640D0A53483D25640D0A42573D252E31CE
:1035B000660D0A4445563D25640D0A00787F0008D3
:1035C00046535F4745544D4F44504152414D533A45
:1035D00020300D0A42523D25640D0A53483D2564B2
:1035E0000D0A42573D252E31660D0A4445563D25AC
:1035F000640D0A0046535F4745544D4F44504152B5
:10360000414D533A20323A544F444F0D00000000D0
:10361000A89200082DE9FC41FDF720FCC1B2022967
:1036200001D92FA057E0374889B1012952D100F1C3
:10363000840C00F1860300F1870E00F1940400F180
:10364000900200F1930700F195059A300EE000F129
:10365000380C00F13A0300F13B0E00F1480400F190
:10366000440200F1470700F149054E3090F8008010
:103670009EF800001678BCF800201B782D7824787E
:103680003F78009028A003F089FF37483749012E82
:1036900008BF01463648002E18BF084604F014FC47
:1036A00035483449002F18BF084604F00DFC334854
:1036B000214603F073FF062D9ABF324850F82500CB
:1036C0002F4804F001FC31482F49B8F1000F18BF12
:1036D000084600E00CA0BDE8FC4104F0F5BB00BFCB
:1036E00046535F4745545F5041434B455450415208
:1036F000414D533A20494E56414C49442052414491
:10370000494F0D007818002046535F4745545F50DD
:1037100041434B4554504152414D533A20322C5471
:103720004F444F0D0000000046535F4745545F5023
:1037300041434B4554504152414D533A25640D0A83
:103740005052455F4C454E3D25640D0A5052455F31
:103750004445543D25640D0A53594E435F4C454E34
:103760003D25640D0A00000019920008D19200085E
:1037700048920008C8920008F09100089291000851
:10378000FB910008D8800008579200083D9200087D
:1037900070B5FDF763FBC0B2032801D327A027E073
:1037A000012810D018BB1BA003F0F8FE164E174CD2
:1037B0000025072D04D07019FDF798FB0135F8E7B7
:1037C00096F843100EE00CA003F0E8FE0E4E0F4CEE
:1037D0000025072D04D07019FDF79FFB0135F8E790
:1037E00096F88F100A48BDE8704003F0D7BE0DA0D0
:1037F000BDE8704004F068BB46535F4745545F53D3
:10380000594E433A20312C00781800205793000875
:103810006591000846535F4745545F53594E433AFC
:1038200020302C0046535F4745545F53594E433A6E
:1038300020322C544F444F0D0000000046535F4788
:1038400045545F53594E433A20494E56414C4944E2
:1038500020524144494F0D0070B548680E46FFF7AD
:1038600069FBC4B2032C01D31C4813E00CB1012C3A
:103870000FD1B068FFF75EFB0546F068FFF75AFB13
:1038800006460D4880F8456044B100F15001012022
:1038900006E00848BDE8704004F016BB011D00209A
:1038A000FDF73EFFEAB2F3B204A02146BDE8704046
:1038B00003F074BE779200087818002046535F53D7
:1038C00045545F414444523A2025642C30782530D9
:1038D00032582C3078253032580D0A008C9200086E
:1038E0002DE9F0414868214C0E46A0470746B068D4
:1038F000A0478046F068A04705463069A047F9B266
:10390000032901D31EA02DE0012913D049BB184C77
:1039100084F84F00211D0020A4F84C50A4F84A80E0
:10392000FDF7FEFE94F84F30B4F84C20B4F84A107E
:10393000114812E00E4C84F89B0004F15001012064
:10394000A4F89850A4F89680FDF7EAFE94F89B300E
:10395000B4F89820B4F896100648BDE8F04103F09A
:103960001DBE0648BDE8F04104F0AEBA352F000890
:10397000781800202A910008A2900008619200089F
:1039800046535F5345545F43524357483A20494E8C
:1039900056414C494420524144494F0D000000001B
:1039A0002DE9F8432DED066B4868A14D0F46A84759
:1039B0000446B868A8470646F868A84780463869AC
:1039C000A84781467869A847E1B2032901D3A4A09A
:1039D00023E009B101291FD19D4B4FF41672B0F5B8
:1039E000167F98BF1046984228BF1846994BB6F5E7
:1039F000167F88BF32469A4228BF1A46B9F1060F91
:103A000003D29FED618B1F2390E0B9F1060F0BD11C
:103A10009FED5F8B172389E086A0BDEC066B01B09C
:103A2000BDE8F04304F050BAB9F1090F03D29FED9D
:103A30005A8B0F237AE0B9F10B0F03D29FED588B0D
:103A40001E2373E0B9F10D0F03D29FED578B1623A0
:103A50006CE0B9F1100F03D29FED558B0E2365E09A
:103A6000B9F1150F03D29FED548B1D235EE0B9F120
:103A7000190F03D29FED528B152357E0B9F11F0F99
:103A800003D29FED518B0D2350E0B9F1280F03D2E3
:103A90009FED4F8B1C2349E0B9F1300F03D29FED0E
:103AA0004E8B142342E0B9F13C0F03D29FED4C8BB7
:103AB0000C233BE0B9F1500F03D29FED4B8B1B233E
:103AC00034E0B9F15F0F03D29FED498B13232DE052
:103AD000B9F1770F03D29FED488B0B2326E0B9F1A4
:103AE0009E0F03D29FED468B1A231FE0B9F1BD0F45
:103AF00003D29FED458B122318E0B9F1EC0F03D2EE
:103B00009FED438B0A2311E0B9F59C7F03D89FED0D
:103B1000428B19230AE042A3B9F5BB7F98BF083353
:103B200093ED008B4FF0090398BF11234A4C89B1E4
:103B3000C4F8800004F15001012084F87D80A26760
:103B400084F87C30FDF7ECFD94F87D20A16FD4F86B
:103B500080000DE06063211D002084F83180E26266
:103B600084F83030FDF7DCFD94F83120E16A606BB9
:103B700002903A488DED008B03F010FDBDEC066B12
:103B800001B0BDE8F08300BF0000004033331340B4
:103B900000000040333317400000004033331D4025
:103BA00000000060666623400000006066662740F3
:103BB0000000004033332D400000000000803340FF
:103BC0000000006066663740000000C0CC4C3D40FD
:103BD0000000000000804340000000403373474075
:103BE000000000C0CC4C4D40000000C0CC8C5340C5
:103BF00000000040337357400000004033535D40E5
:103C000000000060668663400000006066666740F2
:103C1000000000A099496D40000000000080734042
:103C20000000000000307D40000000A0995977405E
:103C3000352F000846535F5345544D4F4450415271
:103C4000414D533A20322C544F444F0D0000000098
:103C5000400D0300E0930400781800209F910008B5
:103C600046535F5345544D4F44504152414D533A92
:103C700020494E56414C494420524144494F0D0081
:103C80002DE9FE4FFDF757F85FFA80F8B8F1020F03
:103C900001D949A08BE0B8F1000F18BFB8F1010FAE
:103CA00040F08480A068DFF85491C8470290E06833
:103CB000C84701902069C84700906069C847C6B2EC
:103CC000A069C84707460028824618BF0127E06957
:103CD000C8478346206AC8470546606AC847002827
:103CE0004749814618BF0120B8F1000F16D081F86E
:103CF0009370009C029FA84681F89550019D81F821
:103D00009A0081F894B081F89060012081F8874092
:103D100081F88650A1F88470503114E081F8477022
:103D2000009C029FA84681F84950019D81F84E00F1
:103D300081F848B081F84460002081F83B4081F868
:103D40003A500F870431FDF7EBFCB9B2EAB2E3B2A7
:103D50002CA003F023FC3A483A49012E08BF014643
:103D60003948002E18BF084604F0AEF838483749E5
:103D7000BAF1000F18BF084604F0A6F835485FFAFC
:103D80008BF103F00BFC5FFA88F006288FBF3248F6
:103D900008F00700314951F8200004F095F8314847
:103DA0002F49B9F1000F18BF084600E00BA0BDE88D
:103DB000FE4F04F089B800BF46535F5345545F502F
:103DC00041434B4554504152414D533A20494E5680
:103DD000414C494420524144494F0D0046535F53E2
:103DE00045545F5041434B4554504152414D533A25
:103DF00020322C544F444F0D00000000352F000896
:103E00007818002046535F5345545F5041434B455B
:103E100054504152414D533A0D0A5052455F4C4562
:103E20004E3D25640D0A5052455F4445543D25647E
:103E30000D0A53594E435F4C454E3D25640D0A0013
:103E400019920008D192000848920008C892000810
:103E5000F091000892910008FB910008D8800008BA
:103E6000579200083D92000870B5FCF764FFC0B29D
:103E7000032801D332A04AE018B3012846D1264DC9
:103E800008340026082E08D054F82600FFF752F810
:103E9000A919013681F88800F4E705F150010020E6
:103EA0000026FDF73DFC1D4803F078FB1C4C072E57
:103EB00004D0A819FDF731F80136F8E795F88F100E
:103EC0001FE0154D08340026082E08D054F82600AF
:103ED000FFF730F8A919013681F83C00F4E7291DF5
:103EE00000200026FDF71CFC0C4803F057FB0C4C8F
:103EF000072E04D0A819FCF7F9FF0136F8E795F86A
:103F000043100848BDE8704003F048BB06A0BDE878
:103F1000704003F0D9BF00BF781800204993000813
:103F2000579300086591000846535F5345545F530B
:103F3000594E433A20322C544F444F0D000000009C
:103F400046535F5345545F53594E433A20494E56AA
:103F5000414C494420524144494F0D0010B5FCF7F3
:103F60007DFFC4B2032C04D30EA0BDE8104003F0C3
:103F7000ABBF204601F0BAFD10EE100AFCF75CFB67
:103F800002460B4602A02146BDE8104003F006BBE6
:103F90004745545F525353493A2025642C252E310E
:103FA000660000004745545F525353493A20494E3A
:103FB00056414C494420524144494F0D00000000F5
:103FC0000448017E90F8642090F8B03002A003F01D
:103FD000E5BA00BF781800204745545F5343414E6F
:103FE000533A2025642C25642C25640D0A0000001A
:103FF00001A003F069BF00BF4745545F4354554ECD
:10400000453A204E4F5420535550504F525445443A
:104010000D00000001A003F057BF00BF4745545FEB
:1040200044455649443A20544F444F0D0000000087
:104030001CB50020ADF806008DF80500FCF70EFF5A
:10404000C4B20DF105010DF10602204601F0F4FDA8
:1040500030B1BDF8062009A0214603F09FFA1CBD2F
:1040600001A003F031FF1CBD4745545F4552524F3C
:1040700052533A204552524F520D00004745545F6B
:104080004552524F52533A2025642C307825303413
:10409000580D0A001CB5FCF7E1FEC4B20DF1070192
:1040A000204601F0F3FD30B19DF8072009A021461C
:1040B00003F074FA1CBD02A003F006FF1CBD00BF94
:1040C0004745545F4D4F44454D3A204552524F525B
:1040D0000D0000004745545F4D4F44454D3A2025A3
:1040E000752C25750D0A0000BFB5FCF7B7FEC0B2F0
:1040F000032805D321A004B0BDE8B04003F0E4BE1E
:10410000012811D008BB1B484FF47A750269D0E929
:104110000213B0F9164090F91400FCF7CCFE1648D3
:10412000FCF705FF002121E012484FF47A75C26DBB
:10413000D0E91513B0F9624090F96000FCF7BBFEBE
:104140000D48FCF7F4FE012110E00A484FF47A759F
:10415000D0F8A820D0E92813B0F9AE4090F9AC000F
:10416000FCF7A9FE0448FCF7E2FE022103F016FA70
:10417000BFBD00BF781800206E9100084745545F0E
:104180005343414E504152414D533A20494E5641BE
:104190004C494420524144494F0D00001CB50020B9
:1041A0008DF807008DF80600FCF758FEC4B20DF13B
:1041B00006010DF10702204601F080FD40B19DF897
:1041C00007309DF8062009A0214603F0E7F91CBD41
:1041D00001A003F079FE1CBD4745545F5354415480
:1041E00055533A204552524F520D00004745545FF7
:1041F0005354415455533A2025642C30782530329D
:10420000582C3078253032580D0A0000BFB50748C9
:104210000388C278017944798579C079029004A035
:10422000CDE9004503F0BAF9BFBD00BFF0020020A0
:104230004745545F54494D453A2025642E25303278
:10424000642E253032642C253032643A25303264B5
:104250003A253032640D0A000348036803480268B7
:1042600003A003F09BB900BF300002402C000240C5
:104270004745545F5549443A203078256C6C580DB9
:104280000A00000002A001210022012303F086B9E8
:104290004745545F56455253494F4E3A2048573D83
:1042A00025642C46573D25642E25640D0A00000028
:1042B00080B505480068FCF7BFF9024603A00B462D
:1042C000BDE8804003F06AB9E80200204745545F2A
:1042D000564241543A20252E33660D0A0000000054
:1042E00003480449044B4FF48072FEF727BE00BF19
:1042F000701B0020770700201C00002080B501F013
:104300008BFD02A0BDE8804003F0DEBD494E49545C
:104310005F434F4E4649473A204F4B0D0000000087
:10432000BCB5FCF79BFDC1B2022901D942A06AE0ED
:104330004A4C02290AD001290FD194F86A5004F19D
:10434000690204F1670004F168030DE004F1B502AD
:1043500004F1B30004F1B40306E0A57F04F11D02EB
:1043600004F11B0004F11C031B7800781478022967
:104370000CD10A2B33D0182B2BD0342B2CD0262B3E
:1043800014BF9FED230B9FED2A0B2AE00A2B8FBF52
:104390009FED1F0B324A02EBC30292ED000B00901F
:1043A00030A053EC102B03F0F9F8384803F0F6F87E
:1043B000042C9ABF374850F82400354803F084FD98
:1043C000354803F0EBF8E8073449354818BF08468C
:1043D00019E09FED150B04E09FED0F0B01E09FED41
:1043E000100B009053EC102B2EA003F0D7F82748A9
:1043F00003F0D4F8072C9ABF344850F8240024481E
:1044000003F062FD32A0BDE8BC4003F05DBD00BF1B
:10441000000000000000F0BF0000000000606940E4
:104420000000000000649940000000000060894026
:1044300000000000006079404C525F4745545F4DDA
:104440004F44504152414D533A20494E56414C49F8
:104450004420524144494F0D0000000078180020CC
:10446000F88000084C525F4745545F4D4F4450411F
:1044700052414D533A2025640D0A42573D252E31B5
:10448000660D0A53463D25640D0A00006E93000830
:10449000FF91000850810008529400085D920008C6
:1044A000529200084C525F4745545F4D4F44504173
:1044B00052414D533A20320D0A42573D252E316666
:1044C0000D0A53463D25640D0A0000006481000872
:1044D0004C524F50543A4E4F5420535550504F5217
:1044E0005445440D00000000F8B5FCF7B7FCC0B21D
:1044F000022801D937A468E03F4D012821D00028C7
:1045000040D195F82620298C51484A4EB04795F85D
:1045100022104A48484A002918BF104603F0D4FC2C
:104520004748B04795F82700474C464F002820469B
:1045300018BF384603F0C8FC4448B04795F8280037
:1045400040E095F87220B5F86C103A4E2BA0B047B9
:1045500095F86E103948384A002918BF104603F004
:10456000B3FC3748B04795F87300374C354F0028F7
:10457000204618BF384603F0A7FC3448B04795F8EA
:1045800074001FE095F8B71095F8BC203148294E0B
:10459000B04795F8B8102948274A002918BF104697
:1045A00003F092FC2648B04795F8BD00264C254FF5
:1045B0000028204618BF384603F086FC2348B04741
:1045C00095F8BE00002818BF3C462046BDE8F840DC
:1045D00003F07ABC4C525F4745545F5041434B4512
:1045E00054504152414D533A20494E56414C494452
:1045F00020524144494F0D00781800204C525F472B
:1046000045545F5041434B4554504152414D533AFC
:1046100020310D0A5052455F4C454E3D25640D0A30
:104620005041595F4C454E3D25640D0A4845414473
:1046300045523A009D750008049300080E93000847
:104640005F9300085D92000852920008649300088E
:1046500072930008E293000880B5FCF7FFFBC0B23C
:10466000032804D31EA0BDE8804003F02DBC012820
:1046700008D00028074819BFB0F8BA1012A0818CE2
:104680000BA003E00348B0F8701003A0BDE8804021
:1046900002F084BF781800204C525F4745545F53A6
:1046A000594E433A20312C3078253034580D0A00C9
:1046B0004C525F4745545F53594E433A20302C309B
:1046C00078253034580D0A004C525F4745545F53EB
:1046D000594E433A20322C3078253034580D0A0098
:1046E0004C525F4745545F53594E433A204552520E
:1046F0004F520D00000000002DE9F0472DED047B26
:1047000048688D4C0E46A0470746B068A04705464E
:10471000F068A04781463069A04782467069A0478B
:10472000FEB2032E01D3A6A0C7E080460EB1012E33
:104730000CD1A8B2092803D29FED6B8B002074E046
:104740000C2809D29FED6A8B08206EE0A8B2CC2815
:1047500008D29FED5D8B18E0112809D29FED668B82
:10476000012062E0B0F5CB7F08D89FED598B0CE0BB
:10477000162838D29FED628B092056E056A1B0F57D
:104780004B7F98BF083191ED008B6C4800F19C0184
:104790000020FDF7ABFA5FFA89F053EC182B0C28D8
:1047A000014628BF0C21052865A038BF05210091CE
:1047B00002F0F4FE6C4802F0F1FE1AF0F80F18BF98
:1047C0004FF0070A5FFA8AF007289ABF684951F844
:1047D0002000664803F078FB66A0BDEC047BBDE8D2
:1047E000F04702F0DBBE202803D29FED478B02206A
:1047F0001BE02B2803D29FED468B0A2015E04028B2
:1048000003D29FED458B03200FE07E2803D29FED5E
:10481000448B042009E044A1FB284FF0060038BF78
:10482000083191ED008B38BF05205FFA8AF15FFAFD
:1048300089F5424A042988BF4FF0040A09F0FE01B5
:104840000C2D28BF0C2506295FFA88F138BF0625F4
:10485000002918BF01215EB182F86A1082F8680051
:1048600002F15001012082F869A082F8675006E049
:104870009177107782F81DA0D576111D0020FCF7E6
:104880004FFF53EC182B40A03146009502F086FEF6
:10489000354802F083FE5FFA8AF004289ABF444943
:1048A00051F82000314803F00FFB424802F076FE39
:1048B0005FEA08600CBF40484048BDEC047BBDE89F
:1048C000F04703F001BB00BF00000000006069403A
:1048D0000000000000607940000000000064994082
:1048E00000000000006089400000004033331F409A
:1048F000000000C0CCCC24400000004033332F40E7
:10490000000000C0CCCC3440000000C0CC4C3F4084
:10491000000000A099D944400000000000404F4032
:104920000000000000405F400000000000407F40A9
:104930000000000000406F40352F0008781800206C
:104940004C525F5345545F4D4F44504152414D537B
:104950003A20320D0A42573D252E31660D0A534644
:104960003D25640D0A0000006E930008FF910008C9
:10497000648100084C524F50543A4E4F54205355C6
:1049800050504F52544544004C525F5345545F4D74
:104990004F44504152414D533A2025640D0A42572D
:1049A0003D252E31660D0A53463D25640D0A000053
:1049B0005081000852940008529200085D9200084D
:1049C0004C525F5345545F4D4F44504152414D53FB
:1049D0003A20494E56414C494420524144494F0DDA
:1049E000000000002DE9F04748685B4D0E46A847DF
:1049F0000446B068A8478046B068A8478146306939
:104A0000A84782467069E7B2A8470446B069A8473C
:104A1000022F01D951A49AE0594E0AF0010104F085
:104A2000010200F00100012F2FD0002F5DD186F888
:104A3000280086F82210311D002086F82690A6F85E
:104A4000208086F82720FCF76BFE96F82620318C14
:104A500061485A4DA84796F822105A48584A0029EA
:104A600018BF104603F030FA5748A84796F82700B9
:104A7000574C564F0028204618BF384603F024FAFA
:104A80005448A84796F828005EE086F8740086F837
:104A90006E1006F15001012086F87290A6F86C8025
:104AA00086F87320FCF73CFE96F87220B6F86C107E
:104AB000424D34A0A84796F86E104248404A00295B
:104AC00018BF104603F000FA3F48A84796F8730055
:104AD0003F4C3E4F0028204618BF384603F0F4F9FB
:104AE0003C48A84796F874002EE086F8BE0086F889
:104AF000B81006F19C01002086F8BC9086F8B780BB
:104B000086F8BD20FDF7F2F896F8B71096F8BC20AD
:104B100032482A4DA84796F8B8102A48284A002952
:104B200018BF104603F0D0F92748A84796F8BD00F3
:104B3000274C264F0028204618BF384603F0C4F9FA
:104B40002448A84796F8BE00002818BF3C462046D7
:104B5000BDE8F04703F0B8B9352F00084C525F5359
:104B600045545F5041434B4554504152414D533A97
:104B700020494E56414C494420524144494F0D0072
:104B8000781800204C525F5345545F5041434B45C9
:104B900054504152414D533A20310D0A5052455F15
:104BA0004C454E3D25640D0A5041595F4C454E3DE4
:104BB00025640D0A4845414445523A009D75000858
:104BC000049300080E9300085F9300085D920008AC
:104BD0005292000864930008AA9300081A940008EF
:104BE000B0B5FCF7A8F8FCF7DCF8E9B2032904D368
:104BF00027A0BDE8B04003F067B9124C012908D0E6
:104C000091B9A084211D0020FCF78AFDA18C14A07D
:104C100014E0A4F8700004F150010120FCF780FDBD
:104C2000B4F8701008A009E0A4F8BA0004F19C01DF
:104C30000020FDF75BF8B4F8BA100FA0BDE8B04053
:104C400002F0ACBC781800204C525F5345545F53BF
:104C5000594E433A20312C3078253034580D0A0013
:104C60004C525F5345545F53594E433A20302C30D9
:104C700078253034580D0A004C525F5345545F5329
:104C8000594E433A20322C3078253034580D0A00E2
:104C90004C525F5345545F53594E433A20494E5648
:104CA000414C494420524144494F0D00E0B5FCF7C6
:104CB0005BF98DF80700C0B238B1FF2805D0034872
:104CC0000DF107010122FEF7CDF98CBD701B00200C
:104CD000B0B5FCF730F8FCF764F8EAB281B21046E0
:104CE00001F08AFA014602A0BDE8B04002F056BCCD
:104CF000524541445F5245473A203078253032587A
:104D00000D0A000003A003F0DFF8642000F0D0F9E2
:104D1000FDF728FA52455345543A204F4B0D0000F9
:104D2000F8B54868134F0C46B8470546A068B84721
:104D30000646E068B847C4B2002C18BF012401F051
:104D4000D3FB0D48F6B2EDB2002E80F8B04018BF8C
:104D5000012680F86460002D18BF0125057601F05A
:104D60008DFB06A029463246234601B0BDE8F0403F
:104D700002F014BC352F0008781800205345545F0A
:104D80005343414E533A2025642C25642C25640D51
:104D90000A00000001A003F097B800BF5345545F1C
:104DA0004354554E453A204E4F5420535550504F82
:104DB000525445440D00000001A003F085B800BF27
:104DC0005345545F44455649443A20544F444F0D8F
:104DD00000000000B0B5FBF7AEFFFBF7E2FFFCF709
:104DE000B0F801F0C9FA30B10AA021462A46BDE860
:104DF000B04002F0D3BB02A0BDE8B04003F064B8FD
:104E00005345545F4D4F44454D3A204552524F5201
:104E10000D0000005345545F4D4F44454D3A202549
:104E2000752C25750D0A0000B0B5FBF784FFFBF764
:104E3000B8FFFCF786F801F0C9FA30B10AA02146A4
:104E40002A46BDE8B04002F0A9BB02A0BDE8B040D0
:104E500003F03AB85345545F4F504D4F44453A2004
:104E60004552524F520D00005345545F4F504D4F25
:104E700044453A2025642C25640D0A002DE9F84F9D
:104E800048682F4D0E46A8470446B068A84781469B
:104E9000F068A84783463069A84707467069A84765
:104EA0008046B069E4B2FEF741F8032C04D333A086
:104EB000BDE8F84F03F008B806464FF47A7007FBD8
:104EC00000FA0BFB00FB09FB00F701F00DFB1D4D89
:104ED0005CB1012C13D105F1600005F1620105F10F
:104EE0005C0205F15803543512E005F1140005F198
:104EF000160105F1100205F10C03083508E005F173
:104F0000AC0005F1AE0105F1A80205F1A403A0353E
:104F1000C3F800B02F60C2F800A0A1F800800670AE
:104F200001F0ACFA2046394601F0EEF908B10DA0C7
:104F300000E005A02146BDE8F84F02F02FBB00BFFE
:104F4000352F0008781800205345545F5343414ED5
:104F5000504152414D533A2025752C4552524F52E3
:104F60000D0A00005345545F5343414E5041524196
:104F70004D533A2025752C4F4B0D0A005345545F75
:104F80005343414E504152414D533A20494E5641B0
:104F90004C494420524144494F0D000080B502F075
:104FA000E3FA02A0BDE8804002F08EBF53544F5296
:104FB000455F434F4E4649473A204F4B0D00000096
:104FC000B0B5FBF7B8FEFBF7ECFEFBF7BAFF01F05C
:104FD000B9FA30B10AA021462A46BDE8B04002F035
:104FE000DDBA02A0BDE8B04002F06EBF54585F5376
:104FF000545245414D3A204552524F520D00000047
:1050000054585F53545245414D3A2025752C25750F
:105010000D0A0000F8B548680B4F0C46B847054626
:10502000A068B8470646E068B847E9B2C5B2B4B26E
:10503000084621462A4601F0C3FA04A021462A4622
:10504000BDE8F84002F0AABA352F0008575249547B
:10505000455F5245473A203078253034582C307817
:10506000253032580D0A00000020FBF7BBBF0000BE
:1050700080B5012001F064FD0A49884211D3B0FBDC
:10508000F1F1194A11704FF47A71E022B0FBF1F09E
:1050900005490138486005480270002088600720F3
:1050A000086080BD40420F0010E000E023ED00E00A
:1050B0004FF47A71484300F001B80000B0B50A49D6
:1050C0000B780A490A686BB14C68584300234D6855
:1050D000A542FCD023445B1BA54228BF13442C46A9
:1050E0008342F4D3B0BD00BF7708002014E000E095
:1050F000E0B5002806480CBF06A10AA10D22FBF767
:1051000005F80120024A2021FBF70CFF8CBD00BFEF
:10511000841B002044454143544956415445442092
:10512000000000004143544956415445442020208A
:10513000000000001CB5044C024604A1FBF77EFEF3
:10514000FBF7D9FE1CBD00BF841B00205354455003
:105150003A202564206B487A0000000070B592B0B8
:10516000054610EE100A0C46FBF766FA41EC100BF0
:105170006A1C0AA123468DED000B02AE304602F0F8
:105180001DFA0120324610230090102000EB05107C
:10519000C1B20020FBF74EFD12B070BD25643A2568
:1051A000642C252E31662020000000001CB5044C24
:1051B000024604A1FBF742FEFBF79DFE1CBD00BFAB
:1051C000841B00205448523A2025642064426D001C
:1051D0001CB5044C024604A1FBF730FEFBF78BFE26
:1051E0001CBD00BF841B002053544152543A256417
:1051F0006B487A001CB5044C024604A1FBF71EFE66
:10520000FBF779FE1CBD00BF841B002053544F5098
:105210003A202564206B487A000000003B490A6868
:10522000D20444BF4FF480520A6010B5384A394B5B
:10523000394C93619461146804F40074223414604E
:105240009361002393614FF0FF3303600868C0044B
:1052500006D49068C007FCD001209060002010BDEB
:105260004FF4805008606FF0670010BD2DE9FE43D9
:10527000264B274C284DEE4699461B68DB0444BF5D
:105280004FF48053C9F80030224BA361A561256813
:1052900005F4007524352560A36100234FF0FF3528
:1052A000A361CDE9005522F007054F19EE1896428B
:1052B00004D2FE5C0EF803600133F7E700274FF0DD
:1052C000FF384FF0010C974214D27646AF4238BFF8
:1052D000CE193368E3607368236147F80080D9F81A
:1052E0000030DB0409D4A368DB07FCD0C4F808C095
:1052F0000837E8E70020BDE8FE834FF48050C9F886
:1053000000006FF06700BDE8FE8300BF08F00040BA
:1053100000000240BFAE9D8C16151413B0B5074DAA
:105320000446C1B2284601F0F5FF2846802101F06D
:105330004AFF0028F9D02046B0BD00BF0030004031
:105340004900032202FA01F1C26A1140C1627047AA
:10535000012303FA01F1002A426A0CBF22EA01018B
:1053600011434162704710B549000323C46A8B4062
:1053700002FA01F11C40C462826A9A4311438162BD
:1053800010BDC06A4900C84010F0030018BF0120DA
:105390007047000010B5062A18D8DFE802F0042094
:1053A0000D1408273C00FBF7D6FC0A4311E0FBF77D
:1053B00002FD22EA01015AE0FBF7CDFCFBF787FD75
:1053C00022EA010110E0FBF7F6FC43E0FBF7C3FC27
:1053D0008A438260C26822EA0101C16010BDFBF706
:1053E000BAFCFBF774FD1143016110BD0122594B5A
:1053F0008A40D443984223D1082921D39869204078
:10540000986198682040986018681043186018697F
:105410001043186110BD01224E4C8A40D343A04274
:105420001AD1082918D3A0691840A061A0681840B3
:10543000A06020681840206020691043206110BDE2
:105440000168214001608168214081604168114309
:105450004160816911430AE0016819400160816877
:10546000194081604168114341608169194081613F
:1054700010BD00BF4069C84000F001007047000047
:1054800070B5082913D30839324D8C0001EB410364
:105490002146A84208BF1946072602FA01F10F2249
:1054A000A240A84208BF06FA03F23C2305E08B00A5
:1054B00002FA03F10F229A403823C45824EA020268
:1054C0001143C15070BD00BF012202FA01F182698F
:1054D000514081617047000010B501231D4C8B4085
:1054E000A04217D1082915D3A069184202D1A0689B
:1054F000184217D0A069184205D1A068184202D1FD
:10550000206818421AD004F12000002A08BF04F1D4
:105510001C0003E00AB1203000E01C300168194390
:10552000016010BD20681842E4D020691842E1D023
:10553000002AF6D1FBF79CFC984307E0206918424B
:10554000E1D0002AEDD0FBF793FC1843206004F172
:105550001000E3E700FC014080B500F041FA00F0E4
:10556000EFF9FBF71FFD01F00DFFBDE88040FDF7EF
:105570002FBC000080B50420012101F02BF84FF46E
:10558000A04001F04FFB002001F03AFB0020002179
:1055900001F03EFB064801F04DFB4020012101F0E7
:1055A00093F801F02FFCBDE88040FFF761BD00BF1C
:1055B00001000002B0B500F025FD01F07BFB1548AD
:1055C0000068B0F1573F04D000F026FC12A002F0B2
:1055D0007BFC164C0020A04719A11D4D14A20028E9
:1055E00018BF11460846A8470120A0471CA119A2D0
:1055F000002818BF11460846A8470220A0471FA14F
:105600001BA2002818BF114608462946BDE8B04035
:10561000084700BF78180020494E495420434F4E98
:105620004749473A204F4B0D000000005D5D0008E0
:10563000415352363630313A204F4B0D00000000B6
:10564000415352363630313A204552524F520D00B6
:10565000C97E00085358313236323A204F4B0D0084
:105660005358313236323A204552524F520D0000D3
:105670005358313238303A204F4B0D0053583132A5
:1056800038303A204552524F520D00000120FCF7AD
:105690005FBE0000B0B5174C4FF400700225C4F88F
:1056A0000001072020602561D4F8040180280BD078
:1056B0001420FFF703FD0020C4F80C011420FFF7AD
:1056C000FDFC0120C4F80C01F2484FF400116560A4
:1056D0000322C0F88011016004F5B6300B21FFF7FA
:1056E000CFFE04F5B0300A210322BDE8B040FFF739
:1056F00051BE00BF0090004010B50F4C206820F054
:10570000200020606420FFF7D9FC206840F02000D2
:105710002060206820F08000206054F8040C40F0E5
:10572000200044F8040C206840F00100206060680C
:10573000C005FCD410BD00BF04910040BB480A2145
:105740000122FFF7C9BE00BFB8480A210022FFF7B7
:10575000C3BE00BF04490860486800F0110001287A
:10576000FAD10868C0B2704708900040FFF702FF06
:10577000FFF7F2FE6420FFF79BFCFBF76FFC0020B5
:105780000024FBF72FFC1AA002F09EFB1FA00121B2
:105790000022012301F002FFFFF70CFF6420FFF756
:1057A00087FCFEF79DFD01F0BBFD4FF4FA60C821B8
:1057B000FDF7F8FA00F062FE194D1A4FFF2600F0CF
:1057C000A1FCFFF773FA2878022809D140F6B83017
:1057D000C821FDF7E7FA2E7000F086FE00F068F8A9
:1057E00038780128EBD13C7001F09AFDE7E700BF63
:1057F0000D0A4D554C544942414E442052414449B2
:105800004F20504C4154464F524D0D0048573D25B6
:10581000642C46573D25642C25640D0A00000000C9
:1058200008000020EC020020E0B5027E0091911EED
:105830001022CBB2032B4FF0000338BF02EB011351
:10584000D9B200F1190200201023FBF7F3F98CBD47
:1058500080B5FFF709FC364800210170BDE88040A3
:1058600000F00CBE70B5FFF7FFFB0B48FBF758FAD2
:105870000A4C0B4DFBF76AFB0A4801210126A84799
:1058800009480121A84709480121A8472046FBF7FC
:105890002FFA2748067070BD8D0C0008089000088C
:1058A0002958000834900008008F0008B08F0008C5
:1058B0002DE9F041FFF7D6FF1D4C1E4D1E4FDFF8BE
:1058C0007C80FF262078012818BFBDE8F081287869
:1058D000FF282AD002282E7020D001280ED020BB0D
:1058E00038684068404520D0FBF799FA38680121B4
:1058F000FFF79AFFFBF7F8F940680CE0386800689A
:10590000404512D0FBF78BFA38680121FFF78CFF76
:10591000FBF7EAF90068FBF7EBF906E040F6B83070
:105920006421FDF73FFAFBF7D3F9FFF7BFF9C9E7A9
:10593000681900200800002018000020C88B00080B
:1059400010B5002001F04CF91220012100F0BCFE3E
:105950001120012100F0B8FE1E4C0821042220462F
:10596000FFF718FD20460B210722FFF713FD1A4C05
:105970000020221D2146FCF77FFC94ED010A9FEDDB
:10598000171A20EE010A84ED010AFCF7D5FC082065
:10599000FCF712FC0120FCF731FC00200121FCF790
:1059A0003DFC4FF48010FCF715FC0120FCF750FC87
:1059B00002200121FCF716FC36484FF48031C0F874
:1059C0008011016001F0C8FD0120BDE81040FCF726
:1059D000BFBC00BF00F00140E002002000007A449C
:1059E000B0B5114C0D200121A04720200121A04776
:1059F00021200121A04722200121A0470B4C0C4D62
:105A0000092101222046A847204604210122A84757
:105A1000204605210122A84704F580600F210422B9
:105A20002B46BDE8B0401847C966000800F00140A9
:105A3000955300087FB5164C05460121012204F557
:105A4000E2363046FFF71CFD304600210122FFF709
:105A500017FD002001F002F91F20012100F034FEA3
:105A60006E46304601F09BFB20463146009501F022
:105A7000AFFB2046012101F08CFB204610210122C2
:105A800001F099FB03484021C0F8801101607FBDFF
:105A90000030004000E100E00548E021C022017034
:105AA00004490020252808BF704742540130F9E717
:105AB00022ED00E000E400E010B50446012802D821
:105AC0002046FBF7B0FB0020022C38BF012010BDA0
:105AD00080B5022802D2FBF747FC04E04FF000003B
