:020000040000FA
:1000000008A2FF1F95020000CD020000CF020000F1
:10001000D1020000D3020000D50200000000000061
:10002000000000000000000000000000D7020000F7
:10003000D902000000000000DB020000DD02000029
:10004000D9130000E5130000F1130000FD130000B8
:100050000914000015140000211400002D140000E4
:100060003914000045140000511400005D14000014
:100070006914000075140000811400008D14000044
:1000800099140000A5140000B1140000BD14000074
:10009000C9140000D5140000E1140000ED140000A4
:1000A000F914000005150000111500001D150000D1
:1000B0002915000035150000411500004D15000000
:1000C0005915000069150000791500008915000018
:1000D00099150000A9150000B9150000C915000008
:1000E000D9150000E9150000F915000009160000F7
:1000F00019160000291600003916000049160000E4
:1001000059160000691600007916000089160000D3
:1001100099160000A9160000B9160000C9160000C3
:10012000DD160000F1160000051700001917000089
:100130002D17000041170000551700006917000037
:100140007D17000091170000A5170000B9170000E7
:10015000CD170000E1170000F51700000918000096
:100160001D18000031180000451800005918000043
:100170006D1800008118000095180000A9180000F3
:10018000BD180000D1180000E5180000F9180000A3
:100190000D1900002119000035190000491900004F
:1001A0005D190000711900008519000099190000FF
:1001B000AD190000C1190000D5190000E9190000AF
:1001C000FD190000111A0000251A0000391A00005C
:1001D0004D1A0000611A0000751A0000891A00000B
:1001E0009D1A0000B11A0000C51A0000D91A0000BB
:1001F000ED1A0000011B0000151B0000291B000068
:100200003D1B0000511B0000651B0000791B000016
:100210008D1B0000A11B0000B51B0000C91B0000C6
:10022000DD1B0000F11B0000051C0000191C000074
:100230002D1C0000411C0000551C0000691C000022
:100240007D1C0000711D000045210000F52100000B
:10025000F9230000DF020000DF020000DF020000DF
:10026000FD2400007D27000071290000112B0000F3
:10027000E92B0000652D0000352F0000093000003B
:10028000DFF80CD000F046FA004800479545000022
:1002900008A2FF1F12484FF01F01016011484FF0E4
:1002A0007701016010484FF0770101600F484FF46B
:1002B000885101600B484FF0760101600A484FF009
:1002C000760101600A4880470A480047FEE7FEE7DA
:1002D000FEE7FEE7FEE7FEE7FEE7FEE7FEE7FEE7F6
:1002E00010080540040805400C08054000080540BA
:1002F0009D3E0000810200002DE9F05F05460020D0
:1003000092469B4688460646814640241BE0284686
:1003100041464746224600F059F953465A46C01A0C
:10032000914110D311461846224600F040F92D1A8B
:1003300067EB01084F4622460120002100F037F903
:1003400017EB00094E41201EA4F10104DFDC4846F2
:1003500031462A464346BDE8F09FD2B201E000F89C
:10036000012B491EFBD270470022F6E710B5134659
:100370000A4604461946FFF7F0FF204610BD0EB5A9
:1003800040F2334102910021CDE900110A460B46AB
:1003900000F072F903B000BD0EB540F23342029294
:1003A0000022CDE90022134600F066F903B000BD3B
:1003B00001F0004330B421F0004150EA010206D0C0
:1003C0000A0DA2F56072C1F31301002A02DC30BCF1
:1003D00000207047440F44EAC104C100E01830BC5B
:1003E00000EBC25000F002B9704770477047704789
:1003F0007047704770477047704770477047704745
:10040000BFFFDFFFFFFEFFFFFFFFFFFFFFFFFFFF5D
:10041000FFFFFFFFFFFFFFFFFFFFFFFFFFFFFFFFEC
:10042000F0B480EA0102D40F4200B2EB410F02D2D5
:100430000246084611464A0042D0C30DDDB2C1F360
:10044000C752AD1A202D35DAC1F3160141F400026E
:1004500004B15242C5F1200602FA06F12A411044C5
:10046000B3EBD05F23D0C4B1012DA0EBC35009DCA6
:10047000F0BC4FF0004202EAC352DBB200F50000CC
:1004800000F0BDB8400000F1807000EBC350A0F157
:10049000807040EAD170490009E0490841EAC07122
:1004A000A0EBC35000F50000400800EBC350F0BCC7
:1004B00000F09CB86142012202EB4101001BF6E70B
:1004C000F0BC704781F00041AAE780F00040A7E748
:1004D0002DE9F04D81EA030404F0004B21F00045C2
:1004E00014464FF0000A23F0004150EA050220D0E4
:1004F00054EA01021DD0C5F30A570246C5F313039F
:10050000C1F31300C1F30A5640F4801543F480137D
:10051000A7EB0608101BD64608F2FD3873EB050062
:1005200002D308F1010801E092185B41B8F1000F15
:1005300003DA00200146BDE8F08D00204FF4801161
:10054000064684460EE0171B73EB050705D3121B06
:1005500063EB050306434CEA010C49084FEA3000FF
:1005600092185B4150EA0107EDD152EA030012D024
:1005700082EA040083EA0501084305D0101BAB4161
:1005800006D20122002306E000224FF0004302E0E1
:100590006FF0010253101AEB06004CEB085110EB00
:1005A0000A0041EB0B01BDE8F04D00F056B8202ADF
:1005B00004DB203A00FA02F1002070479140C2F1BA
:1005C000200320FA03F3194390407047202A04DBEC
:1005D000203A21FA02F00021704721FA02F3D040BC
:1005E000C2F1200291400843194670470029A8BF74
:1005F0007047401C490008BF20F00100704710B44C
:10060000B0FA80FC00FA0CF050EA010404BF10BC00
:10061000704749B1CCF1200421FA04F411FA0CF12D
:1006200018BF012121430843A3EB0C01CB1D4FEA66
:1006300000614FEA102042BF002010BC704700EB61
:10064000C35010440029A4BF10BC7047401C49008F
:1006500008BF20F0010010BC704710B5141E73F1E4
:10066000000408DA401C41F1000192185B411A4372
:1006700001D120F0010010BD2DE9F04D92469B46BE
:1006800011B1B1FA81F202E0B0FA80F22032904664
:10069000FFF78DFF04460F4640EA0A0041EA0B01CE
:1006A00053465A46084313D0114653EA010019D065
:1006B000C8F140025046FFF789FF05460E465046F6
:1006C00059464246FFF773FF084305D0012004E076
:1006D00020463946BDE8F08D0020054346EAE07625
:1006E0002C4337430A986305E40AA0EB0800002274
:1006F000FD0A44EA47540A3002D500200146E9E7E2
:10070000010510196941DDE9084500196941BDE895
:10071000F04DA2E71CB50948009009480190054634
:10072000009C06E0E06840F0010394E80700984769
:100730001034AC42F6D3FFF7A7FD0000444B000095
:10074000544B0000F8B506461A481F4614460D469D
:10075000864201D1112C0AD300F58060864201D176
:10076000092C04D3414840F2651100F059FB022DD9
:1007700004D33E484FF4B37100F052FB022F09D26C
:1007800006EB85000C30012F0CD101210268A1403D
:1007900011430CE0354840F2671100F041FB06EBD5
:1007A00085000C3001210268A14022EA01010160AC
:1007B000F8BD00BF00000440B0B50D462A4902F064
:1007C000EFFC03D02948E52100F02AFB0DB328886F
:1007D000042803D32548E82100F022FB688838B1BB
:1007E000102805D0202803D02048E92100F018FB6C
:1007F000A88840F08001802904D01C48EA2100F03C
:100800000FFBA88829886A8811430843608000206C
:10081000B0BD6FF00200B0BD70B50D46124902F0D8
:1008200009FD1646884204D0104840F23B2100F0F2
:10083000F7FA681E032804D30C484FF40F7100F038
:10084000EFFA56B1012E03D194F84700284307E090
:10085000064840F23D2100F0E3FA94F84700A8432F
:1008600084F8470070BD00BF00040440DB4A00006C
:1008700020B1014600208880086070476FF00200B8
:100880007047000010B5044610B114F0960004D073
:10089000CF4840F28B5100F0C3FA03480078204063
:1008A00018BF012010BD00BF3C400540B0B5044654
:1008B00030B1012C04D0EE4840F2E54100F0B0FA2E
:1008C000EC4D02F0C5FC04D1E94840F2E64100F0ED
:1008D000A7FA54B1D5F8DA0000064FF0010058BF6E
:1008E000082000F0CBF958B1B0BD02F0E5FC0528B6
:1008F00004BF6FF00500B0BD012028710020B0BD1D
:10090000002028712020BDE8B04000F0B7B900BF3A
:10091000002800F0AE80F8B50446007900F0180019
:10092000182804D1F64840F2B94100F079FAB4F839
:1009300005006FF35F201338B0F5E67F04D9F04867
:1009400040F2BA4100F06CFAE0790F2804D8EC4884
:1009500040F2BB4100F064FA474994F90400B0F159
:10096000FF3F096800F01F00C4BF41F20021C0F240
:100970007A010130B1FBF0F0B4F805106FF35F219C
:10098000013100FB01F53D4908443D49884204D34B
:10099000DB484FF4986100F043FA3A483A4928445A
:1009A000884204D3D64840F2C14100F039FAE079D8
:1009B0000121364E364F01EB1011B5FBF1F13144F8
:1009C000B94205D3F94840F2C24100F029FAE07972
:1009D000000704D1F54840F2C34100F021FAB4F811
:1009E00005000021B1EB103F06D1F04840F2C441B0
:1009F00000F016FAB4F80500012101EB1030B5FB48
:100A0000F0F03044B84204D3E84840F2C54100F069
:100A100007FAE07900F00F000130B5FBF0F0304448
:100A2000B84204D3E14840F2C64100F0F9F9207819
:100A3000022804D3DD484FF4996100F0F1F96648CB
:100A40000088C00704D1D94840F2C94100F0E8F954
:100A5000104801682279D20962F3C7110160616808
:100A600001602078B0FA80F04009BDE8F840FFF757
:100A70001DBF02F089BB00BF0082FF1FC0BDF0FF99
:100A800001366E0100E4B1F1011C4E0E401E1BFF49
:100A900041E0060B0041054028B1012101700349E6
:100AA00041600020704702F06FBB00BF00131011BF
:100AB000F0B585B06D4E04460D4630680490706800
:100AC0000390B0680290F068019001F0E060B0F12E
:100AD000E06F04D1B54840F2A12100F0A1F905F082
:100AE0007000702804D1B14840F2A22100F098F9BA
:100AF00005F4E020B0F5E02F04D1AC4840F2A3218A
:100B000000F08EF905F4E000B0F5E00F04D1A7483D
:100B10004FF4297100F084F905F00700072804D18B
:100B2000A24840F2A52100F07BF905F4E060B0F5A1
:100B3000E06F04D19D4840F2A62100F071F905F460
:100B4000E040B0F5E04F04D1984840F2A72100F012
:100B500067F92048044204D194484FF42A7100F008
:100B60005FF91D480088C00704D1904840F2A921D0
:100B700000F056F9ED4FB87900F0070005281DD1B7
:100B80003069C00704D189484FF42C7100F048F94E
:100B9000394830604FF0FF307060B060F06002F0B4
:100BA0003CFB02F079FB02F038FB049830600398BC
:100BB00070600298B0600198F06001E002F06CFB98
:100BC00002F02BFB05B0BDE8F04003F023B900BFF5
:100BD000564A000077777707FE4305407FB5234DDF
:100BE0000446062C2868039068680290A868019063
:100BF000E868009004D36D4840F2372100F010F906
:100C0000404EB6F8D803C00704D168484FF40E71BF
:100C100000F006F9307800F00700052818BF052C11
:100C20001DD12869C00704D160484FF4107100F04D
:100C3000F7F8114828604FF0FF306860A860E8605E
:100C400002F0EBFA1E20347000F0ECF803982860F4
:100C5000029868600198A8600098E86000E034702D
:100C600002F0DBFABDE87F4003F0D4B80080044016
:100C7000564A000026400540EEFAFFFF1CB5044628
:100C8000002001900198B0F5805F84BF6FF00700ED
:100C90001CBD2046FFF7F6FD10B901980130F0E7C2
:100CA00000201CBDB0B5044630B1012C04D03F4833
:100CB0004FF4677100F0B4F8124D02F0C9FA04D194
:100CC0003A4840F29D3100F0ABF834B1002028736F
:100CD0000820BDE8B040FFF7D1BF02F0EDFA0328CD
:100CE00002D16FF00500B0BDD5F8DA00000602D4DD
:100CF00028790028F5D0012028730020B0BD00BF5E
:100D0000564A00002640054000284DD0B0B50446A4
:100D10000078022804D325484FF45F7100F080F872
:100D20006078010141EA1010C0B2042804D31F48C2
:100D300040F27D3100F074F8A07840F04000402887
:100D400004D01A4840F27E3100F06AF8E07840F0B2
:100D50008000802804D0154840F27F3100F060F810
:100D600020790138092804D310484FF4607100F04D
:100D700057F80F4DB5F85C03C00704D10B4840F29B
:100D8000813100F04DF8207928706178E378A278FD
:100D900020781943B0FA80F01143064A40091170D7
:100DA000BDE8B040FFF77EBF02F0EEB9564A000042
:100DB000A24005401044054048B1014601220020F0
:100DC0000A804FF4B0628870A1F80320704702F0E7
:100DD000DBB90000B0B50D460446102804D8012048
:100DE0000B49A040084204D10A4840F2912100F08A
:100DF00017F835B1012D05D0064840F2922100F0D8
:100E00000FF8002404484FF4AA4101800480B0BDCB
:100E100006000100A24A00000CA104407047704780
:100E2000FEE7000083B0029048F20420C1F6FF7094
:100E3000006844F22001C4F205010968C1F30261AF
:100E4000C84048F67F51C0F25B01084449F6817101
:100E5000C1F25E61A0FB0101C80C0090FFE702989F
:100E6000411E029150B1FFE700980190FFE7019801
:100E7000411E019108B1FFE7F9E7F0E703B07047C1
:100E800070477047704770477047704770477047AA
:100E9000704770477047704770477047704770479A
:100EA000704770477047704770477047704770478A
:100EB000704770477047000070B5194D044655F8EB
:100EC000080C012804D0174840F24F11FFF7A8FF83
:100ED000F12C04D313484FF4A871FFF7A1FF296840
:100EE0002009124A44F6206360F307110E48296076
:100EF0004FF0FF3100682E6806F0F006B44204BFE0
:100F0000002070BD16680131C6F3026620FA06F6AD
:100F1000B6FBF3F6B14224BF6FF0070070BDEAE7FD
:100F2000080401403D4A00000482FF1F20400540A4
:100F300070477047704770477047704770477047F9
:100F400070477047704770477047704770477047E9
:100F50007047704770477047E1B3F8B50C460546D7
:100F600002F05EF904D31C484FF4EF71FFF758FF0D
:100F7000206840F08000802804D0174840F2DF113C
:100F8000FFF74EFF60684FEA3010042804D3124880
:100F90004FF4F071FFF744FFA068042804D30E4813
:100FA00040F2E111FFF73CFF0C490020102804BF7C
:100FB0000020F8BD25FA00F2D20708D094E84C00D2
:100FC0000F681A4327F0800732430F600A6004312C
:100FD0000130EBE702F0FFB8BB4A000010100540FB
:100FE00028B101460020C1E900008860704702F086
:100FF000F2B8000070B50D46044610B10A48204012
:1010000003D019488421FFF70BFF084E45B1012D8D
:1010100002D13068A04305E013488521FFF700FFA7
:1010200030682043306070BD8602F0F004800440D8
:1010300070B50D46044620B141F2031034EA0000B9
:1010400003D00948A821FFF7EBFE084E45B1012D5A
:1010500002D13068A04305E00348A921FFF7E0FE74
:1010600030682043306070BD894A00000C80044025
:101070007047704770470000002A00F0C0802DE9DB
:10108000FE4F914F064690460D463888C00704D162
:101090009B484FF48071FFF7C3FE062E04D3984897
:1010A00040F20111FFF7BCFE25B995484FF481715C
:1010B000FFF7B6FEB8F80000022804D3904840F2CB
:1010C0000311FFF7ADFEB8F8020040F0020002285D
:1010D00004D08B484FF48271FFF7A2FEB8F80400E9
:1010E00040F00400042804D0854840F20511FFF7C1
:1010F00097FEB8F8060040B1102806D0202804D08A
:101100007F484FF48371FFF78BFEB8F8080040F476
:101110008040B0F5804F04D0794840F20711FFF7C6
:101120007FFEB8F80A0040F04000402804D0744820
:101130004FF48471FFF774FEB8F80C0040F40070AF
:10114000B0F5007F04D06E4840F20911FFF768FE49
:10115000B8F80E0040F48050B0F5805F04D06848C5
:101160004FF48571FFF75CFEB8F8100040F40040C2
:10117000B0F5004F04D0624840F20B11FFF750FE6B
:1011800007EB8610002104300190019A402933D0EA
:10119000EE072DD0B8F81000B8F80270B8F800C00B
:1011A000B8F80460B8F80640B8F808B0B8F80EA06F
:1011B000B8F80C90B8F80A30029047EA0C0740469D
:1011C00042F6885832F801E03E4334430EEA080EF6
:1011D000804644EA0300029B40EA090040EA0A0014
:1011E00040EA0B0018434DF27723184070445052E8
:1011F0006D0801D00431C9E70020BDE8FE8F6FF013
:101200000200704770B5054601380C46C0B21F2871
:1012100004D33B484FF4B271FFF702FE022C04D313
:10122000374840F26511FFF7FBFD094E3089C007D2
:1012300004D133484FF4B371FFF7F2FD05F01F00FE
:10124000012C318814BF21EA00000843308070BDB2
:10125000F43B0540F8B515460C460646062804D36F
:1012600027484FF4BE71FFF7DBFD24B9244840F254
:101270007D11FFF7D5FD102D08D3A5F120001C2806
:1012800004D31F484FF4BF71FFF7CAFD0E4F3888D3
:10129000C00704D11A4840F27F11FFF7C1FD07EBE8
:1012A000861005F03F0100220630402A0AD0E307ED
:1012B00004D0835A23F03F030B448352640801D0C7
:1012C0000432F2E7F8BD00BFFC3B0540B0B5044670
:1012D000800404D00A484FF4ED71FFF7A1FD094DD9
:1012E000A888C00704D1064840F2DB11FFF798FD3B
:1012F000298804F440406FF39F3108442880B0BD32
:101300006F4A0000F83B054028B180B51221FFF775
:101310002BF8002080BD6FF00200704770477047C7
:101320007047704770477047704770477047704705
:1013300070477047704770477047704770477047F5
:10134000704770477047704770477047C0B1B0B57D
:1013500004460088B0F5007F04D31C48CD21FFF778
:101360005FFD20884209B4F9021002EB420202F14B
:1013700010058BB26D008D4204D91F2B08D80AE0EE
:1013800001F029BF202B06D3520025328A4202D217
:101390006FF00200B0BD0E4A40F2FF1552F8213046
:1013A0006FF35F23AB4202D142F8210005E052F80F
:1013B00021206FF35F22824205D16068C64A42F85D
:1013C00021000020B0BD6FF00100B0BDBB4A00009D
:1013D0005C1005407047704780B5C448006880477E
:1013E00001F0D5BE80B5C6484068804701F0CFBE49
:1013F00080B5C8488068804701F0C9BE80B5CA483A
:10140000C068804701F0C3BE80B5CC480069804702
:1014100001F0BDBE80B5C9484069804701F0B7BE44
:1014200080B5CB488069804701F0B1BE80B5CD481A
:10143000C069804701F0ABBE80B5CF48006A8047E5
:1014400001F0A5BE80B5D148406A804701F09FBE3B
:1014500080B5CE48806A804701F099BE80B5D048FB
:10146000C06A804701F093BE80B5D248006B8047C8
:1014700001F08DBE80B5D448406B804701F087BE37
:1014800080B5D648806B804701F081BE80B5D348D7
:10149000C06B804701F07BBE80B5D548006C8047AB
:1014A00001F075BE80B5D748406C804701F06FBE33
:1014B00080B5D948806C804701F069BE80B5DB48B3
:1014C000C06C804701F063BE80B5D848006D80478E
:1014D00001F05DBE80B5DA48406D804701F057BE2F
:1014E00080B5DC48806D804701F051BE80B5DE4894
:1014F000C06D804701F04BBE80B5E048006E80476C
:1015000001F045BE80B5DD48406E804701F03FBE2A
:1015100080B5DF48806E804701F039BE80B5E14874
:10152000C06E804701F033BE80B5E348006F80474E
:1015300001F02DBE80B5E548406F804701F027BE21
:1015400080B5E248806F804701F021BE80B5E44855
:10155000C06F804701F01BBE80B5E648D0F8800020
:10156000804701F014BE00BF80B5E748D0F8840082
:10157000804701F00CBE00BF80B5E848D0F8880075
:10158000804701F004BE00BF80B5E948D0F88C0068
:10159000804701F0FCBD00BF80B5EA48D0F890005C
:1015A000804701F0F4BD00BF80B5EB48D0F894004F
:1015B000804701F0ECBD00BF80B5EC48D0F8980042
:1015C000804701F0E4BD00BF80B5ED48D0F89C0035
:1015D000804701F0DCBD00BF80B5EE48D0F8A00028
:1015E000804701F0D4BD00BF80B5EF48D0F8A4001B
:1015F000804701F0CCBD00BF80B5F048D0F8A8000E
:10160000804701F0C4BD00BF80B5F148D0F8AC0000
:10161000804701F0BCBD00BF80B5F248D0F8B000F3
:10162000804701F0B4BD00BF80B5F348D0F8B400E6
:10163000804701F0ACBD00BF80B5F448D0F8B800D9
:10164000804701F0A4BD00BF80B5F548D0F8BC00CC
:10165000804701F09CBD00BF80B5F648D0F8C000BF
:10166000804701F094BD00BF80B5F748D0F8C400B2
:10167000804701F08CBD00BF80B5F848D0F8C800A5
:10168000804701F084BD00BF80B5F948D0F8CC0098
:10169000804701F07CBD00BF80B5FA48D0F8D0008B
:1016A000804701F074BD00BF80B5FB48D0F8D4007E
:1016B000804701F06CBD00BF80B5FC48D0F8D80071
:1016C000804701F064BD00BF80B5FD48D0F8DC0064
:1016D000804701F05CBD00BF0080FF1F80B5FD4862
:1016E000D0F8E000804701F052BD00BF0080FF1F2E
:1016F00080B5FD48D0F8E400804701F048BD00BF48
:101700000080FF1F80B5FD48D0F8E800804701F059
:101710003EBD00BF0080FF1F80B5FD48D0F8EC0043
:10172000804701F034BD00BF0080FF1F80B5FD4839
:10173000D0F8F000804701F02ABD00BF0080FF1FF5
:1017400080B5FD48D0F8F400804701F020BD00BF0F
:101750000080FF1F80B5FD48D0F8F800804701F0F9
:1017600016BD00BF0080FF1F80B5FD48D0F8FC000B
:10177000804701F00CBD00BF0080FF1F80B5FD4811
:10178000D0F80001804701F002BD00BF0080FF1FBC
:1017900080B5FD48D0F80401804701F0F8BC00BFD7
:1017A0000080FF1F80B5FD48D0F80801804701F098
:1017B000EEBC00BF0080FF1F80B5FD48D0F80C01D3
:1017C000804701F0E4BC00BF0080FF1F80B5FD48EA
:1017D000D0F81001804701F0DABC00BF0080FF1F85
:1017E00080B5FD48D0F81401804701F0D0BC00BF9F
:1017F0000080FF1F80B5FD48D0F81801804701F038
:10180000C6BC00BF0080FF1F80B5FD48D0F81C019A
:10181000804701F0BCBC00BF0080FF1F80B5FD48C1
:10182000D0F82001804701F0B2BC00BF0080FF1F4C
:1018300080B5FD48D0F82401804701F0A8BC00BF66
:101840000080FF1F80B5FD48D0F82801804701F0D7
:101850009EBC00BF0080FF1F80B5FD48D0F82C0162
:10186000804701F094BC00BF0080FF1F80B5FD4899
:10187000D0F83001804701F08ABC00BF0080FF1F14
:1018800080B5FD48D0F83401804701F080BC00BF2E
:101890000080FF1F80B5F848D0F83801804701F07C
:1018A00076BC00BF0080FF1F80B5F348D0F83C0134
:1018B000804701F06CBC00BF0080FF1F80B5EE4880
:1018C000D0F84001804701F062BC00BF0080FF1FDC
:1018D00080B5E948D0F84401804701F058BC00BF0A
:1018E0000080FF1F80B5E448D0F84801804701F030
:1018F0004EBC00BF0080FF1F80B5DF48D0F84C0110
:10190000804701F044BC00BF0080FF1F80B5DA486B
:10191000D0F85001804701F03ABC00BF0080FF1FA3
:1019200080B5D548D0F85401804701F030BC00BFE5
:101930000080FF1F80B5D048D0F85801804701F0E3
:1019400026BC00BF0080FF1F80B5CB48D0F85C01EB
:10195000804701F01CBC00BF0080FF1F80B5C64857
:10196000D0F86001804701F012BC00BF0080FF1F6B
:1019700080B5C148D0F86401804701F008BC00BFC1
:101980000080FF1F80B5BC48D0F86801804701F097
:10199000FEBB00BF0080FF1F80B5B748D0F86C01C8
:1019A000804701F0F4BB00BF0080FF1F80B5B24844
:1019B000D0F87001804701F0EABB00BF0080FF1F34
:1019C00080B5AD48D0F87401804701F0E0BB00BF9E
:1019D0000080FF1F80B5A848D0F87801804701F04B
:1019E000D6BB00BF0080FF1F80B5A348D0F87C01A4
:1019F000804701F0CCBB00BF0080FF1F80B59E4830
:101A0000D0F88001804701F0C2BB00BF0080FF1FFB
:101A100080B59948D0F88401804701F0B8BB00BF79
:101A20000080FF1F80B59448D0F88801804701F0FE
:101A3000AEBB00BF0080FF1F80B58F48D0F88C017F
:101A4000804701F0A4BB00BF0080FF1F80B58A481B
:101A5000D0F89001804701F09ABB00BF0080FF1FC3
:101A600080B58548D0F89401804701F090BB00BF55
:101A70000080FF1F80B58048D0F89801804701F0B2
:101A800086BB00BF0080FF1F80B57B48D0F89C015B
:101A9000804701F07CBB00BF0080FF1F80B5764807
:101AA000D0F8A001804701F072BB00BF0080FF1F8B
:101AB00080B57148D0F8A401804701F068BB00BF31
:101AC0000080FF1F80B56C48D0F8A801804701F066
:101AD0005EBB00BF0080FF1F80B56748D0F8AC0137
:101AE000804701F054BB00BF0080FF1F80B56248F3
:101AF000D0F8B001804701F04ABB00BF0080FF1F53
:101B000080B55D48D0F8B401804701F040BB00BF0C
:101B10000080FF1F80B55848D0F8B801804701F019
:101B200036BB00BF0080FF1F80B55348D0F8BC0112
:101B3000804701F02CBB00BF0080FF1F80B54E48DE
:101B4000D0F8C001804701F022BB00BF0080FF1F1A
:101B500080B54948D0F8C401804701F018BB00BFE8
:101B60000080FF1F80B54448D0F8C801804701F0CD
:101B70000EBB00BF0080FF1F80B53F48D0F8CC01EE
:101B8000804701F004BB00BF0080FF1F80B53A48CA
:101B9000D0F8D001804701F0FABA00BF0080FF1FE3
:101BA00080B53548D0F8D401804701F0F0BA00BFC5
:101BB0000080FF1F80B53048D0F8D801804701F081
:101BC000E6BA00BF0080FF1F80B52B48D0F8DC01CB
:101BD000804701F0DCBA00BF0080FF1F80B52648B7
:101BE000D0F8E001804701F0D2BA00BF0080FF1FAB
:101BF00080B52148D0F8E401804701F0C8BA00BFA1
:101C00000080FF1F80B51C48D0F8E801804701F034
:101C1000BEBA00BF0080FF1F80B51748D0F8EC01A6
:101C2000804701F0B4BA00BF0080FF1F80B51248A2
:101C3000D0F8F001804701F0AABA00BF0080FF1F72
:101C400080B50D48D0F8F401804701F0A0BA00BF7C
:101C50000080FF1F80B50848D0F8F801804701F0E8
:101C600096BA00BF0080FF1F80B50348D0F8FC0182
:101C7000804701F08CBA00BF0080FF1FB0B53A4822
:101C80003A4D01F010FB03D1E00718BFFFF754F9FC
:101C90006868012803D1A00748BFFFF74EF9A8687C
:101CA000012803D1600748BFFFF748F9E868012819
:101CB00003D1200748BFFFF742F92869012803D163
:101CC000E00648BFFFF73CF96869012803D1A00688
:101CD00048BFFFF736F9A869012803D1600648BF5D
:101CE000FFF730F9E869012803D1200648BFFFF764
:101CF0002AF9286A012803D1E00548BFFFF724F933
:101D0000686A012803D1A00548BFFFF71EF9A86A39
:101D1000012803D1600548BFFFF718F9E86A0128D8
:101D200003D1200548BFFFF712F9286B012803D122
:101D3000E00448BFFFF70CF9686B012803D1A00449
:101D400048BFFFF706F9A86B012803D1600448BF1C
:101D5000FFF700F9E86B012803D1200448BFFFF723
:101D6000FAF801F08DBA00BF5C120540800AA24269
:101D70002DE9F0470448054E054DD0F800A0D6F8EF
:101D8000B00A012826D105E0601205400001A642F4
:101D9000042C0540D6F8000138B93068012804D178
:101DA0005FEACA7018BFFFF773F8D6F8400138B978
:101DB000306C012804D15FEACA5048BFFFF760F8D1
:101DC00001F0E8F910F0011F04D05FEACA3048BF03
:101DD000FFF75AF8CB4F386801281FD1D6F8040115
:101DE00038B97068012804D15FEA8A7048BFFFF7EC
:101DF00050F8D6F8440138B9706C012804D15FEA74
:101E00008A5048BFFFF73DF801F0C4F910F0021FF7
:101E100004D05FEACA3048BFFFF737F8D7F80008A8
:101E200001281FD1D6F8080138B9B068012804D1BB
:101E30005FEA4A7048BFFFF72DF8D6F8480138B975
:101E4000B06C012804D15FEA4A5048BFFFF71AF886
:101E500001F0A0F910F0041F04D05FEACA3048BFB7
:101E6000FFF714F8A848006801281FD1D6F80C0124
:101E700038B9F068012804D15FEA0A7048BFFFF75B
:101E80000AF8D6F84C0138B9F06C012804D15FEAA1
:101E90000A5048BFFEF7F7FF01F07CF910F0081F69
:101EA00004D05FEACA3048BFFEF7F1FF974F984A67
:101EB000D7F8B00A012827D1D7F8000148B9386807
:101EC000012806D15FEACA6003D59046FEF7ECFF11
:101ED0004246D7F8400148B9386C012806D15FEA7C
:101EE000CA4003D59046FEF7D7FF424601F0B4F949
:101EF00010F0011F08D05FEA8A3005D5B0461646BB
:101F0000FEF7CEFF32464646A846824D2868012895
:101F10002DD1D7F8040158B97868012808D15FEAB3
:101F20008A6005D5B1461646FEF7BFFF32464E46DB
:101F3000D7F8440158B9706C012808D15FEA8A408B
:101F400005D5B1461646FEF7A8FF32464E46D8F8EC
:101F500000081168884310F0021F08D05FEA8A3039
:101F600005D534461646FEF79CFF32462646D5F880
:101F70000008454601282BD1D7F8080158B9B868A0
:101F8000012808D15FEA4A6005D534461646FEF7B7
:101F90008DFF32462646D7F8480158B9B06C012863
:101FA00008D15FEA4A4005D534461646FEF776FF6B
:101FB0003246264601F050F910F0041F08D05FEABF
:101FC0008A3005D534461646FEF76CFF3246264663
:101FD00051480068012825D1D7F80C0158B9F86894
:101FE000012808D15FEA0A6005D534461646FEF797
:101FF0005EFF32462646D7F84C0148B9F06C0128FE
:1020000006D15FEA0A4003D51646FEF748FF32467E
:1020100001F022F910F0081F04D05FEA8A3048BFAF
:10202000FEF741FF3D4DD5F8F000012808D13C48AE
:102030000068000704D05FEA4A3048BFFEF73AFF65
:10204000D5F8F800012807D16868012804D15FEAB3
:102050000A3048BFFEF72CFFD5F8F400012807D15D
:102060002868012804D15FEACA2048BFFEF721FF93
:102070002C480068000644BF5FEA4A2001F055F989
:1020800029482A4D0068012809D168692968084053
:10209000400604D05FEA0A2048BFFEF7AFF92448A3
:1020A000244E006801280BD123483058D5F800147D
:1020B0000840400604D05FEACA1048BFFEF79FF907
:1020C0001E480068012809D170693168084040063F
:1020D00004D05FEA8A1048BFFEF7A0FE18480068E7
:1020E00001280BD1D8F81400D8F800100840400699
:1020F00004D05FEA4A1048BFFEF791FEBFF34F8F4E
:10210000BDE8F087B013A642B023A6420081A642E4
:102110000C340540B093A642B0A3A64210822042E0
:10212000100401400C00009C7C00A44204200540E7
:102130007C80A4420428054014FCFFFF7C00A542DB
:102140007C80A542B0B52548254D01F0ACF806D1FC
:10215000A86F012803D1E00718BF01F0A9FE286C81
:10216000012807D1D5F8B800012803D1A00748BF3E
:1021700001F09FFE1B4D2868012806D1A86F012899
:1021800003D1600748BF01F095FE286C012807D1F4
:10219000D5F8B800012803D1200748BF01F08BFE15
:1021A00011480178C90706D04078C00703D0A002C3
:1021B00048BFFEF722F90D480088C00403D560022D
:1021C00048BF01F0B1F80A48006810F4403F03D05E
:1021D000200248BF01F01CFE01F052B86412054015
:1021E00008024842088248424040054000C404407A
:1021F0000494044070B57B487B4D01F054F807D13E
:10220000D5F88003012803D1E00718BF01F075FE5F
:102210006868012807D1D5F88403012803D1A007F5
:1022200048BF01F06BFEA868012807D1D5F88803E4
:10223000012803D1600748BF01F061FEE86801286A
:1022400007D1D5F88C03012803D1200748BF01F03E
:1022500057FE2869012807D1D5F89003012803D13A
:10226000E00648BF01F04DFE6869012807D1D5F8A6
:102270009403012803D1A00648BF01F043FEA869DA
:10228000012807D1D5F89803012803D1600648BF7B
:1022900001F03AFEE869012807D1D5F89C0301282E
:1022A00003D1200648BF01F030FE286A012807D17B
:1022B000D5F8A003012803D1E00548BF01F023FEB3
:1022C0004A4D00F08BFF10F4C06F03D0200548BFCB
:1022D00001F01CFE00F082FF10F4C05F03D0E004A8
:1022E00048BF01F014FE424E3068012807D1D6F8ED
:1022F0008003012803D1E00348BF01F009FE7068A4
:10230000012807D1D6F88403012803D1A00348BFD0
:1023100001F0FFFDB068012807D1D6F88803012835
:1023200003D1600348BF01F0F5FDF068012807D133
:10233000D6F88C03012803D1200348BF01F0EBFD40
:102340003069012807D1D6F89003012803D1E002B3
:1023500048BF01F0E1FD7069012807D1D6F8940368
:10236000012803D1A00248BF01F0D7FDB0690128C0
:1023700007D1D6F89803012803D1600248BF01F0C5
:10238000CEFDF069012807D1D6F89C03012803D1BE
:10239000200248BF01F0C4FD306A012807D1D6F8F9
:1023A000A003012803D1E00148BF01F0B7FD114EA1
:1023B000D5F80004316801EAD01010F4C06F03D0E2
:1023C000200148BF01F0ADFDD5F80004316801EAF5
:1023D000D01010F4C05F03D0E00048BF01F0A2FDB0
:1023E00000F046BF68120540800A30425480014028
:1023F000808A304270840140B0B53D483D4D00F0C8
:1024000052FF07D1D5F88003012803D1E00718BF98
:1024100001F089FD6868012807D1D5F884030128F7
:1024200003D1A00748BF01F07FFDA868012807D1AC
:10243000D5F88803012803D1600748BF01F075FD76
:10244000E868012807D1D5F88C03012803D12007BB
:1024500048BF01F06BFD2869012807D1D5F890032A
:10246000012803D1E00648BF01F061FD6869012839
:1024700007D1D5F89403012803D1A00648BF01F085
:1024800057FDA869012807D1D5F89803012803D181
:10249000600648BF01F04EFDE869012807D1D5F874
:1024A0009C03012803D1200648BF01F044FD286A9F
:1024B000012807D1D5F8A003012803D1E00548BFC2
:1024C00001F037FD0C4D00F089FE10F4C06F03D011
:1024D000200548BF01F030FD00F080FE10F4C05F21
:1024E00003D0E00448BF01F028FD00F0C9BE00BFE2
:1024F0006C120540800A3142548801402DE9F041B8
:102500008D488E4D00F0CFFE06D1A868012803D17A
:10251000E00718BF01F013FD6868012806D1E868DC
:10252000012803D1A00748BF01F00AFD844D288887
:10253000A9890840000603D0600748BF01F0FEFCEF
:10254000804E3068012806D1B068012803D12007E9
:1025500048BF01F0F7FC7068012806D1F068012837
:1025600003D1E00648BF01F0EEFCB5F80004764D5B
:10257000764E715B0840000603D0A00648BF01F00C
:10258000E0FC734F3868012806D1B868012803D1F0
:10259000600648BF01F0D9FC7868012806D1F868C8
:1025A000012803D1200648BF01F0D0FC00F03DFE19
:1025B00003D0E00548BF01F0C7FC664E3068012833
:1025C00006D1B068012803D1A00548BF01F0C0FCC6
:1025D0007068012806D1F068012803D1600548BF62
:1025E00001F0B7FC5C4E00F020FE03D0200548BF90
:1025F00001F0ADFC594F3868012806D1B8680128B0
:1026000003D1E00448BF01F0A6FC7868012806D198
:10261000F868012803D1A00448BF01F09DFCB6F87A
:1026200000044F4E715B0840000603D0600448BFB1
:1026300001F090FC4B4D2868012806D1A8680128BC
:1026400003D1E00348BF01F089FC6868012806D186
:10265000E868012803D1A00348BF01F080FC00F026
:10266000E4FD03D0600348BF01F077FC3E480068FA
:1026700001280AD13D484168006808403C490842A9
:1026800003D0200348BF01F083FF3A480668C768BB
:102690008046B80606D516F00B0F03D0600248BF7F
:1026A00001F05EFC07EA0605A80603D5200248BF34
:1026B00001F057FC280603D5E00148BF01F054FCA7
:1026C000680603D5A00148BF01F04DFCB80705D549
:1026D000F00503D5600148BF01F044FC2648D8F856
:1026E00000540668B00606D515F00B0F03D0200184
:1026F00048BF01F03AFC06EA0507B80603D5E0003A
:1027000048BF01F033FC380603D5A00048BF01F0F4
:1027100030FC780603D5600048BF01F029FCB00703
:1027200006D5E80504D5B4F1FF3FD8BF01F01FFC82
:10273000BFF34F8FBDE8F0817C12054030102A4274
:102740009050014030902A420CFCFFFF905801400D
:1027500030102B4230902B42905C014030102C42C4
:102760009064014030902C420001804314000C40E2
:10277000FBFC7CF700D001400CD401402DE9F04176
:102780007648046876480668C7688046B80606D565
:1027900016F00B0F03D0E00718BF01F0EBFB07EAC0
:1027A0000605A80603D5A00748BF01F0E4FB2806EC
:1027B00003D5600748BF01F0E1FB680603D5200799
:1027C00048BF01F0DAFBB80705D5F00503D5E006F0
:1027D00048BF01F0D1FB6348D8F800540668B00642
:1027E00006D515F00B0F03D0A00648BF01F0C7FBBC
:1027F00006EA0507B80603D5600648BF01F0C0FB2E
:10280000380603D5200648BF01F0BDFB780603D586
:10281000E00548BF01F0B6FBB00705D5E80503D5D4
:10282000A00548BF01F0ADFB4F4D2F682E6978051C
:1028300005D5300603D5200548BF01F03CF8B805A2
:1028400005D5B00603D5E00448BF01F035F83805DA
:1028500006D516F0020003D1A00448BF01F02AF803
:10286000F80506D516F01D0F03D0600448BF01F02F
:1028700020F8D5F80064D5F81054700505D5280661
:1028800003D5E00348BF01F01AF8B00505D5A80646
:1028900003D5A00348BF01F013F8300506D515F0A5
:1028A000020003D1600348BF01F008F8F00506D527
:1028B00015F01D0F03D0200348BF00F0FEFF2B4D85
:1028C0002F682E69780505D5300603D5A00248BFCC
:1028D00000F0F9FFB80505D5B00603D5600248BF82
:1028E00000F0F2FF380506D516F0020003D12002F1
:1028F00048BF00F0E7FFF80506D516F01D0F03D01E
:10290000E00148BF00F0DDFFD5F80064D5F81054B1
:10291000700505D5280603D5600148BF00F0D7FF34
:10292000B00505D5A80603D5200148BF00F0D0FFAB
:10293000300506D515F0020003D1E00048BF00F0D5
:10294000C5FFF00506D515F01D0F03D0A00048BF48
:1029500000F0BBFFBFF34F8FBDE8F0818012054050
:10296000001002400C14024004C001400400024068
:1029700070B56448644D04682E88E00705D0F00601
:1029800003D5700648BF01F097FAA00705D5B00639
:1029900003D5300648BF01F090FAAE88600705D530
:1029A000F00603D5700648BF01F088FA200705D568
:1029B000B00603D5300648BF01F081FA2E89E00643
:1029C00005D5F00603D5700648BF01F079FAA006D8
:1029D00005D5B00603D5300648BF01F072FA2E8E39
:1029E000600605D5F00503D5B00548BF01F06AFAC9
:1029F000200605D5B00403D5700448BF01F063FA82
:102A0000B5F88C50E00506D515F0010003D1E806B5
:102A100048BF01F059FAA00506D515F0020003D110
:102A2000E80548BF01F051FA600506D515F004002D
:102A300003D1E80448BF01F049FA344DE0032E8881
:102A400005D5F00603D5700648BF01F035FAA0039E
:102A500005D5B00603D5300648BF01F02EFAAE8882
:102A6000600305D5F00603D5700648BF01F031FAC2
:102A7000200305D5B00603D5300648BF01F02AFA79
:102A80002E89E00205D5F00603D5700648BF01F097
:102A900022FAA00205D5B00603D5300648BF01F0E2
:102AA0001BFA2E8E600205D5F00503D5B00548BF90
:102AB00001F013FA200205D5B00403D5700448BF15
:102AC00001F00CFAB5F88C50E00106D515F00100C4
:102AD00003D1E80648BF01F002FAA00106D515F0BF
:102AE000020003D1E80548BF01F0FAF9600106D5FC
:102AF00015F0040003D1E80448BF01F0F2F900F03A
:102B0000B7BB00BF8412054018700140184802404E
:102B100070B53348334D04682E88E00705D0F006C1
:102B200003D5700648BF01F0DDF9A00705D5B00652
:102B300003D5300648BF01F0D6F9AE88600705D549
:102B4000F00603D5700648BF01F0CEF9200705D581
:102B5000B00603D5300648BF01F0C7F92E89E0065C
:102B600005D5F00603D5700648BF01F0BFF9A006F1
:102B700005D5B00603D5300648BF01F0B8F92E8E52
:102B8000600605D5F00503D5B00548BF01F0B0F9E2
:102B9000200605D5B00403D5700448BF01F0A9F99B
:102BA000B5F88C50E00506D515F0010003D1E80614
:102BB00048BF01F089F9A00506D515F0020003D140
:102BC000E80548BF01F097F9600506D515F0040047
:102BD00003D1E80448BF01F08FF900F049BB00BF02
:102BE00088120540184C024070B55648564D04688E
:102BF0002868A9680840000703D0600648BFFEF7B0
:102C000097F9286AA96A0840000703D0200648BF40
:102C1000FEF78FF9286CA96C0840000703D0E00587
:102C200048BFFEF787F9286EA96E0840000703D059
:102C3000A00548BFFEF77FF9444D2868012806D15A
:102C4000E86F012803D1E00348BFFEF775FBA868D1
:102C5000012807D1D5F88000012803D1A00348BF7F
:102C6000FEF769FBE8683A4D012806D1286880071D
:102C700003D0600348BFFEF75DFB364E3068012885
:102C800006D1F06F012803D1200348BFFEF757FBA0
:102C9000B068012807D1D6F88000012803D1E002EE
:102CA00048BFFEF74BFBF068012807D1D5F80004B8
:102CB000800703D0A00248BFFEF73FFB264D2868DF
:102CC000012806D1E86F012803D1600248BFFEF752
:102CD00039FBA868012807D1D5F88000012803D165
:102CE000200248BFFEF72DFBE8681C4D012806D1E5
:102CF0002868800703D0E00148BFFEF721FB184E8B
:102D00003068012806D1F06F012803D1A00148BF27
:102D1000FEF71BFBB068012807D1D6F88000012818
:102D200003D1600148BFFEF70FFBF068012807D10F
:102D3000D5F80004800703D0200148BFFEF703FB4D
:102D400000F096BA8C1205400C7C014004003C4215
:102D500008E0014004803C42040044420820024054
:102D600004804442F8B56848684D0468E868012862
:102D700007D1D5F80C03012803D1E00648BFFEF7C0
:102D8000CEFA2869012807D1D5F81003012803D10C
:102D9000A00648BFFEF7C5FA2868012807D1D5F874
:102DA0000003012803D1600648BFFEF7B9FA584D69
:102DB000584E2868A9690840304203D0200648BF11
:102DC000FEF7ACFA544FF868012807D1D7F80C0386
:102DD000012803D1E00548BFFEF7A5FA38690128AC
:102DE00007D1D7F81003012803D1A00548BFFEF78B
:102DF0009CFA3868012807D1D7F80003012803D1CD
:102E0000600548BFFEF790FAD5F80004D5F818140D
:102E10003040084203D0200548BFFEF783FA3F4FF9
:102E2000F868012807D1D7F80C03012803D1E00482
:102E300048BFFEF77CFA3869012807D1D7F810039C
:102E4000012803D1A00448BFFEF773FA38680128AF
:102E500007D1D7F80003012803D1600448BFFEF76B
:102E600067FA2F49D5F8000809683040084203D0B6
:102E7000200448BFFEF75AFA2A4E2B4D307800F056
:102E80000300012806D12878800703D5A00348BF96
:102E900000F025FA307800F03000102806D12878AC
:102EA000800603D5600348BF00F01AFA1F4D28685A
:102EB000012807D1D5F88000012803D1E00248BFDE
:102EC000FEF7D7F86868012807D1D5F884000128F3
:102ED00003D1A00248BFFEF7CBF8A868012807D1AC
:102EE000D5F88800012803D1600248BFFEF7C2F878
:102EF0000F48006810F4403F03D0200248BF01F0A3
:102F000048FBBFF34F8FF8BD901205408C009C42E8
:102F100004E004401752F0008C809C428C009D42DB
:102F20001CE8044013440540E14005400083904202
:102F300004900440F8B52F482F4E0468306A0128E9
:102F400006D13068012803D1E00718BFFDF74DFA1C
:102F5000706A012806D17068012803D1A00748BF14
:102F6000FDF744FAD6F8600B244F254D012806D111
:102F70002868384203D0600748BFFDF735FAD6F815
:102F8000600B012806D12868384203D0200748BFCB
:102F9000FDF72DFA1B4E306A012806D13068012852
:102FA00003D1E00648BFFDF724FA706A012806D174
:102FB0007068012803D1A00648BFFDF71BFAD6F8B8
:102FC000600B012807D1D5F80004C00503D06006C6
:102FD00048BFFDF70DFAD6F8600B012807D1D5F8E8
:102FE0000004C00503D0200648BFFDF704FABFF374
:102FF0004F8FF8BD94120540C0088042FFFF0100CA
:10300000B0000440C0888042B0B52948294D04680A
:10301000600710D52888298940F2F71300EA0102D9
:10302000688869891A4204D1084040F27F11084239
:1030300001D000F03CFCA00611D51F49B5F80004F2
:1030400040F2F713CA880240088809891A4204D15D
:10305000084040F27F11084201D000F029FC6006D0
:1030600024D51648427803788178C07E84061BD424
:1030700012F0010418D11A4016D1CA0701D08A07EC
:1030800012D44A0701D50A070ED4CA0601D589060B
:103090000AD4010701D5C10606D441B2B1F1FF3F00
:1030A00004DC10F0400001D0FDF7A6F900F0E8B80C
:1030B0009812054030FC064032000740A404074047
:1030C000C10706D0284940F223120A6043F21022B9
:1030D0000A60810702D525490E4A0A6041074AF273
:1030E000015144BF234A118010B5C2068D4A03D551
:1030F0001488CB1D23431380430603D51388023164
:1031000019431180000603D51B48772101608160B7
:1031100010BD00BF0100A5A5C10702D012490022C1
:103120000A60810702D51149114A0A60410703D597
:1031300010494FF425420A80C1067A4905D50A880C
:1031400042F4254222F008020A80420605D50A8888
:1031500042F4254222F003020A80000603D5064805
:1031600076210160816070470004014010800440B6
:103170000000A5A5FC3B0540040805402246ADF82B
:103180001C80ADF80EB030476FF002007047BFF3FF
:103190004F8F80BDD5F80004D5F8081488437047D8
:1031A000044640F48060884270470530B0FBF1F07F
:1031B000A0F1010ABAF1FF0F704700F00F010009FA
:1031C00000EB800001EB400070472246ADF81C8008
:1031D000ADF8169030476FF0020070472868E96933
:1031E00001EAD010704740F48050B0F5805F70471E
:1031F00009681268C2F30262D14044F62062B1FB52
:10320000F2F164225143704700204FF0FF31002E4D
:1032100070472246ADF81CA030471E20FDF702BEC5
:1032200001384FF6FF71884270473088B1890840F5
:1032300000067047044640F4806070472178326889
:1032400001F00F00090901EB81014900002A7047D4
:10325000B5F8D803C0077047D5F80008116888434F
:103260007047A0FB0701FDF797B86FF002007047A9
:10327000BFF34F8F70BDE07840F0200020287047EA
:10328000BFF34F8FB0BDA0F18009B9F17F0F704738
:103290000C46054600287047396805EA0400A1433A
:1032A000084438607047046828680128704740F473
:1032B0000060B0F5006F7047287800F00700704795
:1032C00007EB87000A21400070475FEA50014FEA90
:1032D0003700704740F08050B0F1805F7047704712
:1032E00070470000B0B50446022804D30C4840F2F1
:1032F0006161FDF795FD0B4D2888800704D40848CF
:1033000040F26261FDF78CFD287B611EB1FA81F10C
:1033100000F07F00490940EAC1102873B0BD00BF2A
:103320000A4A0000FE4305407047704710B5474CFD
:1033300050B1012803D1207860F0770008E0BA4846
:1033400040F24D31FDF76CFD207800F07700083039
:10335000207010BD10B50446022804D3B24840F2D4
:10336000C911FDF75DFD3848046010BD18B514485B
:103370000021384A016036490B681468C4F30264BE
:10338000E34044F62064B3FBF4F364246343009306
:10339000036823B1009B73B1009B013BF7E7012356
:1033A0000360FFF725FF0091016839B1009911B161
:1033B00000990139F7E76FF0070018BD002018BD2C
:1033C0000000984281B02048016811B1816E012946
:1033D00002D1002001B070471C490A7842F009026E
:1033E0000A701B491B4A7346FFF702FF9E46009175
:1033F000816E0129EDD0009911B100990139F6E7EC
:103400006FF00700E6E700BF81B00F480168A9B17F
:10341000816E99B10D490A7802F0F60208320A70FD
:103420000B490C4A7346FFF7E3FE9E460091816EFE
:1034300021B1009929B100990139F7E7002001B0C5
:1034400070476FF00700FAE79C00984208C00440FC
:103450000482FF1F2040054000285BD070B5044661
:10346000007828B1902803D0B448D721FDF7D8FCC4
:10347000607840F00800082803D0B048D821FDF754
:10348000CFFCA078072803D3AC48D921FDF7C8FCAE
:10349000E07840F08000802803D0FD48DA21FDF775
:1034A000BFFCE088B0F5007F03D3F948DB21FDF7CE
:1034B000B7FC207940F04000402803D0F448DC21DC
:1034C000FDF7AEFC1448017A22786378A578E67897
:1034D00001F06F0102F09002114443EA050201720B
:1034E00021791143027801F04F0102F0B00211443A
:1034F000017006F0810190F8342002F07E02114440
:10350000E288C2F30023194380F8341080F8382091
:10351000002070BDFFF7A9BE04C00440A1B170B582
:10352000DA4EFFF7B5FE11D0012D04D0D8484FF484
:103530003C71FDF775FCFFF781FE0FD00844182899
:103540001DD340F2F62117E0FFF78FBE20783168D7
:10355000E9B118282BD340F2FE2125E008440138B8
:103560000C2804D3CA4840F2F321FDF759FCFFF7B9
:1035700082FE04D04FF43D71C548FDF751FC6078E0
:10358000FFF71BFE3C281AD34FF43E7114E00138BC
:103590000C2804D3BE4840F2FB21FDF741FCFFF7A5
:1035A0006AFE04D04FF43F71B948FDF739FC6078EA
:1035B0003C2804D34FF44071B548FDF731FC94F931
:1035C0000200002804DCB24840F20231FDF728FC7A
:1035D000B5B920780A236178C2B2B2FBF3F202EBEC
:1035E0008205A0EB450040EA02102070C8B2B0FB93
:1035F000F3F000EB8002A1EB420141EA00106070A1
:10360000306808B1207806E0E1782078202904BFEE
:1036100040F020002070054908716078A278087099
:1036200000200A7270BD00BF284B00002CC004406F
:1036300041B370B5FFF72CFE26D0012D04D094487D
:1036400040F20921FDF7ECFB2078FFF7B6FD642876
:1036500004D38F4840F20B21FDF7E2FB6078FFF7BF
:10366000ACFD01380C2804D389484FF40371FDF7F1
:10367000D7FBA078FFF7A1FD01381F281ED340F229
:103680000D2118E0FFF7F1BD2078642804D38048AD
:1036900040F20F21FDF7C4FB607801380C2804D3F9
:1036A0007B484FF40471FDF7BBFBA07801381F285D
:1036B00004D340F211217648FDF7B2FBE0780728E9
:1036C00004D3734840F21321FDF7AAFBFFF77AFEFB
:1036D00010B14FF0FF3070BD207805BBC1B20A2297
:1036E000B1FBF2F101EB8103A0EB4300A37840EAC8
:1036F000011061782070CDB2B5FBF2F505EB8506BF
:10370000A1EB460141EA05116170D9B2B1FBF2F1BA
:1037100001EB8102A3EB420242EA0111A1700849C8
:1037200008736078A278E37808720A710B70FFF76B
:103730006BFE002818BF4FF0FF3070BD284B000013
:103740001CC00440A1B1F8B5504EFFF7A1FD11D047
:10375000012D04D04E4840F27221FDF761FBFFF7C6
:103760006DFD0FD0084418281DD34FF41E7117E0CB
:10377000FFF77BBD2078316839B3182835D340F284
:1037800081212FE0084401380C2804D3404840F23E
:103790007521FDF745FBFFF76EFD04D040F2762161
:1037A0003B48FDF73DFB6078FFF707FD3C2804D35D
:1037B000374840F27A21FDF733FBA078FFF7FDFC94
:1037C0003C2822D340F27B211CE001380C2804D392
:1037D0002F4840F27E21FDF723FBFFF74CFD04D07C
:1037E00040F27F212A48FDF71BFB60783C2804D378
:1037F000274840F28321FDF713FBA0783C2804D32F
:103800004FF421712248FDF70BFBFFF7DBFD10B1F0
:103810004FF0FF30F8BD0DBB20780A256178A27803
:10382000C3B2B3FBF5F303EB8307A0EB470040EA19
:1038300003102070C8B2B0FBF5F000EB8003A1EBE1
:10384000430141EA00106070D0B2B0FBF5F000EB2C
:103850008001A2EB410141EA0010A070306808B17C
:10386000207806E0E1782078202904BF40F020008D
:103870002070084908726078A27808710A70FFF712
:10388000C3FD002818BF4FF0FF30F8BD8C009842F0
:10389000284B000010C0044038B1014600204FF40E
:1038A0000962C88008710A607047FFF7DEBC704784
:1038B0007047704770477047704770477047704750
:1038C0007047704770477047704770477047704740
:1038D00070470000B0B50446DC480D4684420DD068
:1038E000DB4884420AD0DB48844207D0DA4884426D
:1038F00004D0DA4840F26221FDF792FA35B1012D89
:1039000004D0D64840F26321FDF78AFA60693DB1E0
:1039100010F0040004D0D1484FF41971FDF780FA7B
:103920006068012D20F0400008BF40306060B0BDED
:1039300028B101460020C1E90000886070476FF09F
:1039400002007047B0B50446DF480D4684420DD0F2
:10395000DE4884420AD0DE48844207D0DD488442F3
:1039600004D0DD4840F2E921FDF75AFA4DB328684A
:103970004FEA3070082804D3D7484FF43B71FDF765
:103980004FFA68684FEA3060082804D3D24840F202
:10399000ED21FDF745FAA8684FEA3050082804D316
:1039A000ED4840F2EE21FDF73BFA286860B1E1688E
:1039B000000F60F31E71E160A06940F40050A06147
:1039C0000AE06FF00200B0BDA06920F40050A061D1
:1039D000E06820F0E040E060A069696839B140F437
:1039E0008040090EA061E06861F31A6005E020F4F0
:1039F0008040A061E06820F0E060E060A868A16914
:103A000038B141F40041A161010DE06861F3165045
:103A100005E021F40040A061E06820F4E000E060EF
:103A20000020B0BDF8B50446C7480D4684420DD00D
:103A3000C64884420AD0C648844207D0C54884425A
:103A400004D0C54840F2ED11FDF7EAF9002D79D018
:103A50002868022804D3C0484FF4F871FDF7E0F954
:103A6000686840F00200022804D0BB4840F2F1111F
:103A7000FDF7D6F9A86840F00800082804D0B64839
:103A80004FF4F971FDF7CCF9E86840F48050B0F5D7
:103A9000805F04D0B04840F2F311FDF7C1F9286906
:103AA00050B1B0F5004F07D0B0F5404F04D0AA4850
:103AB0004FF4FA71FDF7B4F96869042804D3A648F5
:103AC00040F2F511FDF7ACF9A8694FEAB0000828FB
:103AD00004D3A1484FF4FB71FDF7A2F9E8694FEA5E
:103AE00030210C290AD3A0F540604FEA3020042889
:103AF00004D3994840F2F711FDF792F9286A40F48F
:103B00008050B0F5805F04D093484FF4FC71FDF70E
:103B100087F9686A40F08000802804D08E4840F21F
:103B2000F911FDF77DF9A86A042804D38A484FF4F7
:103B3000FD71FDF775F9A868082806D1E968B1F5A7
:103B4000805F08D16FF00200F8BD2A68012A03D116
:103B5000F8B1012200E02A686B68D5E9036769695A
:103B60001A436B6A1A4332433A4302436260AA6AB9
:103B7000E3689B0863F39F020828E26012BFE869CC
:103B8000D5E9060210430843296A0843A0610020D2
:103B9000F8BD696941F002010229D3D0D9E700BF1D
:103BA000B0B5044668480D4684420DD0674884424B
:103BB0000AD06748844207D06648844204D06648E9
:103BC00040F2D121FDF72CF955B1012D03D16068E8
:103BD00040F4005007E0604840F2D221FDF720F9A0
:103BE000606820F400506060B0BD00BFB0B504460E
:103BF00016480D4684420DD0154884420AD0154817
:103C0000844207D01448844204D014484FF45B71B6
:103C1000FDF706F9A5F580704FEA3020082809D293
:103C2000C1B28B2222FA01F1C90703D00CA151F8CD
:103C3000200005E0094840F26D31FDF7F1F8002061
:103C4000A16921F0E0010843A061B0BD00C00140BE
:103C500000C4014000000240000402400F4B00007D
:103C60000000000020000000600000004000000094
:103C700060000000600000006000000060000000C4
:103C8000B0B5044630480D4684420DD02F488442DA
:103C90000AD02F48844207D02E48844204D02E48B0
:103CA00040F2C121FDF7BCF845B1102D06D0202D02
:103CB00004D0294840F2C221FDF7B2F86168280912
:103CC00060F305116160B0BD00C0014000C4014057
:103CD00000000240000402400F4B000070B5044693
:103CE000194816460D4684420DD0184884420AD021
:103CF0001748844207D01748844204D0164840F23F
:103D00003131FDF78DF8A5F580704FEA3020072896
:103D100014D8012101FA00F010F08B0F0ED04EB133
:103D2000012E02D1E068284306E00B4840F233310F
:103D3000FDF776F8E068A843E06070BD064840F201
:103D40003231FDF76DF8EAE700C0014000C40140E0
:103D500000000240000402400F4B000080B1014609
:103D6000002008234FF48062C1E908008862C1E99D
:103D70000000C1E90230C1E90400C1E90632704720
:103D80006FF00200704700002DE9F8430646013845
:103D9000904689460F2803D31B48C721FDF740F8FA
:103DA000B9F1080F03D31848C821FDF739F8B8F165
:103DB000080F03D31448C921FDF732F8134F786870
:103DC000772803D01048CA21FDF72AF800200721E0
:103DD000BEB1F20712D0C200D3B20432D2B201FA9D
:103DE00003F408FA03F301FA02F509FA02F21A439E
:103DF0003B682C442240A3431A443A6001307608C1
:103E0000E6E7BDE8F88300BF234A0000000805404C
:103E1000704700001C481D491E4A0068C00704BFC7
:103E200042F60051C0F231111948016012F8DA3C33
:103E300003F00703052B25D8B0B5DFE803F0200316
:103E40000503050814491AE04FF4004117E0136810
:103E50001468012505EB14741568126812065CBF1E
:103E600041F20021C0F27A0105F01F020132B1FBDC
:103E7000F2F1C3F3082201325143B1FBF4F1416086
:103E8000BDE8B040704700BF840601400024F40044
:103E90000082FF1F0041054000127A0080B5FFF745
:103EA000B9FF02480021016080BD00BF08ED00E0BD
:103EB000704770477047704770477047704770474A
:103EC000704770477047704770477047704770473A
:103ED000704770477047704770477047704770472A
:103EE000704770477047704770477047704770471A
:103EF000704770477047704770477047704770470A
:103F000070477047704770477047704770477047F9
:103F100070477047704770477047704770477047E9
:103F200070477047704770477047704770477047D9
:103F300070477047704770477047704770477047C9
:103F400070477047704770477047704770477047B9
:103F500070477047704770477047704770477047A9
:103F60007047704770477047704770477047704799
:103F70007047704770477047704770477047704789
:103F8000704770477047704710B504462448844214
:103F90000DD0244884420AD02348844207D02348C5
:103FA000844204D022484FF46871FCF739FF4FF087
:103FB0000040E060002020616061A06110BD00BF92
:103FC00070B50446FE4815460E4684420DD0FD48A5
:103FD00084420AD0FC48844207D0FC48844204D082
:103FE000F64840F2BB31FCF71BFF022D04D3F34827
:103FF0004FF46F71FCF714FF16B136F0EF0004D0E8
:10400000EE4840F2BD31FCF70BFFB0B230B1012DEC
:10401000E16814BF21EA00000843E06070BD00BF02
:1040200000D0014000D401400010024000140240C2
:10403000F44A00002DE9FE4F90460E46054621B990
:10404000DE4840F2A951FCF7EBFEDD4CA5420DD055
:10405000DC4885420AD0DC48854207D0DB488542EF
:1040600004D0D64840F2AA51FCF7DAFEE86810F016
:104070000C0F04D0D14840F2AB51FCF7D1FEA54261
:104080000DD0D04885420AD0CF48854207D0CF48CE
:10409000854204D0C94840F24921FCF7C1FECC4812
:1040A000CC49062300680968AA69C1F3021103EA32
:1040B0004202C84020FA02F7E868C0014BD46869A0
:1040C000800600F19480A5420DD0BE4885420AD0FA
:1040D000BD48854207D0BD48854204D0B7484FF45B
:1040E000A771FCF79DFEFFF78FF800F05F81002FAE
:1040F00000F05C81E868C0F3C031C1F10200704398
:104100004FEAC00BB7FBFBF2A2F1010ABAF1FF0FB5
:1041100000F2498102FB1B730020002B00F0DE80BF
:104120001023CDF80880A3EBC10303FB02F1A6FB2B
:104130000141090241EA1468FFF7C7F810EB0420B7
:1041400051EB080100F0DC8099463A460023FCF769
:10415000D3F84B46D6E0A5420DD09A4885420AD006
:104160009948854207D09948854204D0934840F247
:10417000A511FCF755FEFFF747F800F01781002F57
:1041800000F01481B400B7FBF4F1A1F1010ABAF117
:10419000FF0F00F2098101FB1472002A00F09E80DB
:1041A0008900CDF808803A46A6FB0181090241EA60
:1041B000186BFFF78AF810EB082041EB0B01002386
:1041C000FCF79AF8FFF75FF800F28B8049F0800067
:1041D0004FEA0828FFF745F807460E46404659467D
:1041E000FCF7DAF802460B46384631469DE0A54218
:1041F0000DD0744885420AD07348854207D0734871
:10420000854204D06D4840F2F311FCF709FEFEF739
:10421000FBFF00F0CB80002F00F0C880CDF80880B5
:104220006869C0F34254062C64D80120A04010F005
:104230006B0F5FD069A030F814B006FB0BF04FEAAB
:104240004008B7FBF8F1A1F1010ABAF1FF0F26D837
:1042500001FB18720020002A00F08C80A6FB0B23C3
:10426000A2FB014203FB0121490241EAD452FFF7BC
:104270002CF8019210EB442051413A460023FCF700
:104280003BF8FFF700F80AD849F080004FEA442BCA
:10429000FEF7E7FF0F460199064658463FE0FFF755
:1042A0000FF8B0FBF8F0FEF780FF7AD8A6FB0B12F0
:1042B000A1FB001302FB00304E00400040EAD17425
:1042C0003846FCF75CF80746884630462146FCF73E
:1042D00063F802460B463846414644E04FF0FF097A
:1042E0004CE0FEF7EDFFB0FBF4F0FEF75EFF58D8B0
:1042F00084002BE0314840F2F911FCF791FD99E779
:10430000B0FBF7F0FEF7BFFF17D849F080004FEA87
:10431000042BFEF7A6FF06460F4658464146FCF71B
:104320003BF802460B4630463946FCF7D1F8FCF71D
:104330003FF82949FCF774F81EE0FEF7C1FFB0FB17
:10434000FBF0FEF732FF2CD800FB03F43846FCF7F5
:1043500016F880460F46A4FB0601FCF71DF802463E
:104360000B4640463946FCF7B3F8FCF721F81A49EA
:10437000FCF756F84FF0FF09DDF80880AA6809F04D
:104380007F014FF67F7341EA0A219A431143B9F145
:10439000FF0FA96003D0E96841F00051E9600021F6
:1043A00004E0DDF8088000204FF0FF31B8F1000F85
:1043B00018BFC8F800000846BDE8FE8FF44A0000A8
:1043C00000D0014000D4014000100240001402401F
:1043D0000482FF1F20400540000080BF20004000F5
:1043E0005D008000BA000001740100022DE9F8436D
:1043F000002900F093808146534890460E4681453F
:104400000DD0524881450AD05148814507D05148C6
:10441000814504D0504840F22D31FCF701FD306851
:10442000FEF7E1FE04D04C4840F22E31FCF7F8FCD8
:10443000B068FEF73CFF04D0474840F22F31FCF74C
:10444000EFFCB06950B1B0F5806F07D0B0F5C06F28
:1044500004D041484FF44C71FCF7E2FC3069FEF7A0
:10446000C2FE04D03C4840F23131FCF7D9FC7069FF
:1044700040F40050B0F5005F04D0374840F23231CC
:10448000FCF7CEFCF06940F40040B0F5004F04D0DA
:10449000314840F23331FCF7C3FC306AFEF71AFFB3
:1044A00004D02D484FF44D71FCF7BAFC706A40F00F
:1044B0000040B0F1004F04D0274840F23531FCF7FE
:1044C000AFFCB06AB0F5807F08D0B0F5007F05D0B2
:1044D000214840F23631FCF7A3FCB06AD6E904EC7F
:1044E000D6E90637D6E90845B168A0F5007032680C
:1044F000B0FA80F043EA0E0341EA0C01400923437D
:10450000114340023B432B43C9F80C30C9F810104B
:10451000C9F8140032B10020BDE8F8836FF0020042
:10452000BDE8F8837068042805D30B484FF4517137
:10453000FCF776FC7068C9F8180048464246F168F6
:10454000BDE8F843FFF776BD00D0014000D401403C
:104550000010024000140240F44A0000B0B598B1C7
:10456000054600244FF416501421C5E9024005F118
:104570001000C5E90044FBF7F7FE4FF480704FF0E0
:104580000041C5E9091001E06FF002042046B0BD0A
:104590007047704790B0FF20FEF792FDEF48F0495A
:1045A000FCF786FA0F2001210122FFF7EDFB042022
:1045B000002100224FF00008FFF7E6FB3020FCF757
:1045C0007BFC6C462046FCF7F7FB05208DF802804B
:1045D000ADF800808DF804002046FCF795FB03AC95
:1045E0002046FCF759FAF4488DF80C8004902046D8
:1045F000FCF78EF94FF400404FF4004AFCF766FEDA
:104600000520FCF7EBFA03ACEC4D2046A847EC4E36
:1046100005200121FEF7FDFD2046A84705200221C7
:104620002246ADF81CA04FF0020BB0472046A84729
:1046300000200221FEF7EDFD2046A84700200421BE
:104640002246ADF81C80B0472046A847202008210C
:104650002246ADF81C80ADF81200DA480390002025
:10466000B0472046A8474FF4805001212246ADF8BC
:104670001A000120B0472046A8474FF0400901200A
:104680000221FEF7A2FD2046A84701200421FEF7E3
:104690009CFD2046A84701204FF48061FEF795FD60
:1046A0002046A84701204FF48051FEF767FD2046C1
:1046B000A84701204FF40051FEF760FD2046A847AF
:1046C00001204FF48041FEF759FD2046A847012004
:1046D0004FF40041FEF752FDBB4F08200021B847C0
:1046E0002046A84700204FF40041FEF747FD042074
:1046F0000021B8472046A84701200821FEF765FDA4
:1047000010200021B8472046A84701201021FEF7BD
:1047100035FD2046A847AB4F012020212246ADF8A9
:104720001C800397B0472046A84701204021FEF790
:1047300025FD2046A8470120802122460397ADF899
:104740001C808027B0472046A84701204FF4807185
:10475000FEF714FD2046A84701204FF40071FEF734
:104760000DFD2046A84702204FF48041FEF751FD81
:104770002046A84702204FF40041FEF74AFD20469C
:10478000A84700201021FEF720FD2046A847002062
:104790000121FEF73EFD8D4C002020212B22A04759
:1047A000002040212922A047002080212822A04764
:1047B00000204FF480712022A04700204FF40071A8
:1047C0002122A047824804904FF40010039003ACCC
:1047D0002046FCF7BBFD7F4D0120F0264FF001097C
:1047E000C5F8800185F81C6328607B4804907B48ED
:1047F00003902046FCF7AAFD4FF48010C5F888010D
:1048000085F87063A86003AC2046FCF7E9FB03A8B9
:10481000214680E880030120FCF79EFB0120012156
:10482000FCF706FC03AD2846FCF722F86C4C294641
:10483000ADF81080CDF80C8004F510363046FBF74B
:10484000BBFF684F3046002100220123B8473046A5
:10485000002101220123B847304600211022012304
:10486000B8474FF480700121FCF7E2FB0120FEF70E
:1048700039FD10200121FCF7ADFA3046012101225B
:10488000FBF7CAFF4FF080700121FCF7B3FB04F582
:1048900080563046FFF778FB2846FFF75FFE4FF45F
:1048A000E1301421CDE90388CDE9058005F1100040
:1048B000FBF75AFD4FF48070294600220D904FF00F
:1048C00000400C903046FFF791FD30460C2101224C
:1048D0000C27FFF775FB4FF480300121FCF78AFBB2
:1048E00003AD2846FFF73AFA4FF470602946CDF839
:1048F0003480CDE90B88CDE90789CDE90388CDE97E
:104900000970082005902046FFF78CF86D46284670
:10491000FFF70EF820462946CDF80880CDE900883B
:10492000FFF710F820460021FFF7AAF920460021E2
:10493000FFF736F920464FF48071FFF757F920460C
:104940004FF480710022FFF7C9F920460121FEF7DC
:10495000C1FFFEF70BFD08302AD003E07777770719
:104960001022110003AC2046FEF796FF4FF40060C2
:104970008DF80F80ADF80C002046FEF76DFD12207B
:104980000E900EA90120FEF7C9FD0120FEF7CEFC16
:10499000154869460F9700900020FEF749FE38B988
:1049A0000FA90020FEF7CEFE10B90120FEF7D2FCC1
:1049B000FF20FEF7B1FBFEE70018101109130000FD
:1049C00079100000010002000512000055120000DD
:1049D000D713000004E100E0D5130000C00174000B
:1049E00000C00140450700000001010002E008C8C6
:1049F000121F08C1002AFAD170477047002001E059
:104A000001C1121F002AFBD170476472697665727A
:104A10002F7372632F686333325F6C6C5F707763E0
:104A20002E63006472697665722F7372632F6863F8
:104A300033325F6C6C5F7372616D2E6300647269F8
:104A40007665722F7372632F686333325F6C6C5FAD
:104A500065666D2E63006472697665722F7372638A
:104A60002F686333325F6C6C5F636C6B2E63006422
:104A700072697665722F7372632F686333325F6C6D
:104A80006C5F6770696F2E63006472697665722F60
:104A90007372632F686333325F6C6C5F6663672E7B
:104AA00063006472697665722F7372632F68633373
:104AB000325F6C6C5F636D702E6300647269766543
:104AC000722F7372632F686333325F6C6C5F696E31
:104AD00074657272757074732E63006472697665A2
:104AE000722F7372632F686333325F6C6C5F616423
:104AF000632E63006472697665722F7372632F6828
:104B00006333325F6C6C5F75736172742E63006423
:104B100072697665722F7372632F686333325F6CCC
:104B20006C5F7370692E63006472697665722F73AF
:104B300072632F686333325F6C6C5F7274632E63D1
:104B400000000000544B00000080FF1F08220000FE
:044B5000FC4900001C
:040000050000028174
:00000001FF
